{
	"contracts/Pokenmon.sol": {
		"Pokenmon": {
			"abi": [
				{
					"inputs": [],
					"stateMutability": "nonpayable",
					"type": "constructor"
				},
				{
					"inputs": [
						{
							"internalType": "address",
							"name": "",
							"type": "address"
						},
						{
							"internalType": "address",
							"name": "",
							"type": "address"
						}
					],
					"name": "allowance",
					"outputs": [
						{
							"internalType": "uint256",
							"name": "",
							"type": "uint256"
						}
					],
					"stateMutability": "view",
					"type": "function"
				},
				{
					"inputs": [
						{
							"internalType": "address",
							"name": "spender",
							"type": "address"
						},
						{
							"internalType": "uint256",
							"name": "amount",
							"type": "uint256"
						}
					],
					"name": "approve",
					"outputs": [
						{
							"internalType": "bool",
							"name": "",
							"type": "bool"
						}
					],
					"stateMutability": "nonpayable",
					"type": "function"
				},
				{
					"inputs": [
						{
							"internalType": "address",
							"name": "account",
							"type": "address"
						}
					],
					"name": "balanceOf",
					"outputs": [
						{
							"internalType": "uint256",
							"name": "",
							"type": "uint256"
						}
					],
					"stateMutability": "view",
					"type": "function"
				},
				{
					"inputs": [
						{
							"internalType": "address",
							"name": "",
							"type": "address"
						}
					],
					"name": "balances",
					"outputs": [
						{
							"internalType": "uint256",
							"name": "",
							"type": "uint256"
						}
					],
					"stateMutability": "view",
					"type": "function"
				},
				{
					"inputs": [
						{
							"internalType": "uint256",
							"name": "amount",
							"type": "uint256"
						}
					],
					"name": "burn",
					"outputs": [],
					"stateMutability": "nonpayable",
					"type": "function"
				},
				{
					"inputs": [],
					"name": "buyPokenmon",
					"outputs": [],
					"stateMutability": "nonpayable",
					"type": "function"
				},
				{
					"inputs": [],
					"name": "decimals",
					"outputs": [
						{
							"internalType": "uint256",
							"name": "",
							"type": "uint256"
						}
					],
					"stateMutability": "view",
					"type": "function"
				},
				{
					"inputs": [],
					"name": "getPokenmon",
					"outputs": [
						{
							"components": [
								{
									"internalType": "string",
									"name": "url",
									"type": "string"
								},
								{
									"internalType": "string",
									"name": "name",
									"type": "string"
								}
							],
							"internalType": "struct Pokenmon.Pokens[]",
							"name": "",
							"type": "tuple[]"
						}
					],
					"stateMutability": "view",
					"type": "function"
				},
				{
					"inputs": [],
					"name": "getPokenmonUsers",
					"outputs": [
						{
							"components": [
								{
									"internalType": "address",
									"name": "account",
									"type": "address"
								}
							],
							"internalType": "struct Pokenmon.Users[]",
							"name": "",
							"type": "tuple[]"
						}
					],
					"stateMutability": "view",
					"type": "function"
				},
				{
					"inputs": [],
					"name": "name",
					"outputs": [
						{
							"internalType": "string",
							"name": "",
							"type": "string"
						}
					],
					"stateMutability": "view",
					"type": "function"
				},
				{
					"inputs": [
						{
							"internalType": "address",
							"name": "",
							"type": "address"
						},
						{
							"internalType": "uint256",
							"name": "",
							"type": "uint256"
						}
					],
					"name": "pokenmons",
					"outputs": [
						{
							"internalType": "string",
							"name": "url",
							"type": "string"
						},
						{
							"internalType": "string",
							"name": "name",
							"type": "string"
						}
					],
					"stateMutability": "view",
					"type": "function"
				},
				{
					"inputs": [],
					"name": "symbol",
					"outputs": [
						{
							"internalType": "string",
							"name": "",
							"type": "string"
						}
					],
					"stateMutability": "view",
					"type": "function"
				},
				{
					"inputs": [],
					"name": "totalSupply",
					"outputs": [
						{
							"internalType": "uint256",
							"name": "",
							"type": "uint256"
						}
					],
					"stateMutability": "view",
					"type": "function"
				},
				{
					"inputs": [
						{
							"internalType": "address",
							"name": "to",
							"type": "address"
						},
						{
							"internalType": "uint256",
							"name": "amount",
							"type": "uint256"
						}
					],
					"name": "transfer",
					"outputs": [
						{
							"internalType": "bool",
							"name": "",
							"type": "bool"
						}
					],
					"stateMutability": "nonpayable",
					"type": "function"
				},
				{
					"inputs": [
						{
							"internalType": "address",
							"name": "spender",
							"type": "address"
						},
						{
							"internalType": "address",
							"name": "to",
							"type": "address"
						},
						{
							"internalType": "uint256",
							"name": "amount",
							"type": "uint256"
						}
					],
					"name": "transferFrom",
					"outputs": [
						{
							"internalType": "bool",
							"name": "",
							"type": "bool"
						}
					],
					"stateMutability": "nonpayable",
					"type": "function"
				},
				{
					"inputs": [
						{
							"internalType": "uint256",
							"name": "",
							"type": "uint256"
						}
					],
					"name": "users",
					"outputs": [
						{
							"internalType": "address",
							"name": "account",
							"type": "address"
						}
					],
					"stateMutability": "view",
					"type": "function"
				},
				{
					"stateMutability": "payable",
					"type": "receive"
				}
			],
			"devdoc": {
				"kind": "dev",
				"methods": {},
				"version": 1
			},
			"evm": {
				"assembly": "    /* \"contracts/Pokenmon.sol\":86:5412  contract Pokenmon is ERC20 {... */\n  mstore(0x40, 0x80)\n    /* \"contracts/ERC20.sol\":395:397  18 */\n  0x12\n    /* \"contracts/ERC20.sol\":372:397  uint public decimals = 18 */\n  0x02\n  sstore\n    /* \"contracts/Pokenmon.sol\":828:838  1000 ether */\n  0x3635c9adc5dea00000\n    /* \"contracts/Pokenmon.sol\":799:838  uint256 private tokenPrice = 1000 ether */\n  0x07\n  sstore\n    /* \"contracts/Pokenmon.sol\":1273:1329  string[] pokenmonName = [\"Pikachu\" , \"Kobuki\", \"lucky\" ] */\n  mload(0x40)\n  dup1\n  0x60\n  add\n  0x40\n  mstore\n  dup1\n  mload(0x40)\n  dup1\n  0x40\n  add\n  0x40\n  mstore\n  dup1\n  0x07\n  dup2\n  mstore\n  0x20\n  add\n  0x50696b6163687500000000000000000000000000000000000000000000000000\n  dup2\n  mstore\n  pop\n  dup2\n  mstore\n  0x20\n  add\n  mload(0x40)\n  dup1\n  0x40\n  add\n  0x40\n  mstore\n  dup1\n  0x06\n  dup2\n  mstore\n  0x20\n  add\n  0x4b6f62756b690000000000000000000000000000000000000000000000000000\n  dup2\n  mstore\n  pop\n  dup2\n  mstore\n  0x20\n  add\n  mload(0x40)\n  dup1\n  0x40\n  add\n  0x40\n  mstore\n  dup1\n  0x05\n  dup2\n  mstore\n  0x20\n  add\n  0x6c75636b79000000000000000000000000000000000000000000000000000000\n  dup2\n  mstore\n  pop\n  dup2\n  mstore\n  pop\n  0x08\n  swap1\n  0x03\n  tag_1\n  swap3\n  swap2\n  swap1\n  tag_2\n  jump\t// in\ntag_1:\n  pop\n    /* \"contracts/Pokenmon.sol\":1510:2077  string[] pokenmonUrl = [... */\n  mload(0x40)\n  dup1\n  0x60\n  add\n  0x40\n  mstore\n  dup1\n  mload(0x40)\n  dup1\n  0x0100\n  add\n  0x40\n  mstore\n  dup1\n  0xcf\n  dup2\n  mstore\n  0x20\n  add\n  data_9cbb0aa9d91f7bb2d28013770bc471535d5daff9b7c6af76b014eccf0c54d213\n  0xcf\n  swap2\n  codecopy\n  dup2\n  mstore\n  0x20\n  add\n  mload(0x40)\n  dup1\n  0xa0\n  add\n  0x40\n  mstore\n  dup1\n  0x70\n  dup2\n  mstore\n  0x20\n  add\n  data_c1196ea258e314a0e8f031ccd6fb5bf1736c86f99161f64eb6964d60e93a8b8e\n  0x70\n  swap2\n  codecopy\n  dup2\n  mstore\n  0x20\n  add\n  mload(0x40)\n  dup1\n  0xe0\n  add\n  0x40\n  mstore\n  dup1\n  0xb1\n  dup2\n  mstore\n  0x20\n  add\n  data_1481d2c14dc46dd85db37ca0bc31e7f3a830916f81a213d5e7f31062c6c9ae22\n  0xb1\n  swap2\n  codecopy\n  dup2\n  mstore\n  pop\n  0x09\n  swap1\n  0x03\n  tag_3\n  swap3\n  swap2\n  swap1\n  tag_2\n  jump\t// in\ntag_3:\n  pop\n    /* \"contracts/Pokenmon.sol\":211:271  constructor() ERC20(\"Pokenmon\" , \"PTK\" , 1000000) {... */\n  callvalue\n  dup1\n  iszero\n  tag_4\n  jumpi\n  0x00\n  dup1\n  revert\ntag_4:\n  pop\n    /* \"contracts/ERC20.sol\":2598:2938  constructor(string memory _name, string memory _symbol, uint256 _amount ){... */\n  mload(0x40)\n  dup1\n  0x40\n  add\n  0x40\n  mstore\n  dup1\n  0x08\n  dup2\n  mstore\n  0x20\n  add\n  0x506f6b656e6d6f6e000000000000000000000000000000000000000000000000\n  dup2\n  mstore\n  pop\n  mload(0x40)\n  dup1\n  0x40\n  add\n  0x40\n  mstore\n  dup1\n  0x03\n  dup2\n  mstore\n  0x20\n  add\n  0x50544b0000000000000000000000000000000000000000000000000000000000\n  dup2\n  mstore\n  pop\n    /* \"contracts/Pokenmon.sol\":252:259  1000000 */\n  0x0f4240\n    /* \"contracts/ERC20.sol\":2700:2710  msg.sender */\n  caller\n    /* \"contracts/ERC20.sol\":2692:2697  owner */\n  0x04\n  0x00\n    /* \"contracts/ERC20.sol\":2692:2710  owner = msg.sender */\n  0x0100\n  exp\n  dup2\n  sload\n  dup2\n  0xffffffffffffffffffffffffffffffffffffffff\n  mul\n  not\n  and\n  swap1\n  dup4\n  0xffffffffffffffffffffffffffffffffffffffff\n  and\n  mul\n  or\n  swap1\n  sstore\n  pop\n    /* \"contracts/ERC20.sol\":2728:2733  _name */\n  dup3\n    /* \"contracts/ERC20.sol\":2721:2725  name */\n  0x00\n    /* \"contracts/ERC20.sol\":2721:2733  name = _name */\n  swap1\n  dup2\n  tag_8\n  swap2\n  swap1\n  tag_9\n  jump\t// in\ntag_8:\n  pop\n    /* \"contracts/ERC20.sol\":2753:2760  _symbol */\n  dup2\n    /* \"contracts/ERC20.sol\":2744:2750  symbol */\n  0x01\n    /* \"contracts/ERC20.sol\":2744:2760  symbol = _symbol */\n  swap1\n  dup2\n  tag_10\n  swap2\n  swap1\n  tag_9\n  jump\t// in\ntag_10:\n  pop\n    /* \"contracts/ERC20.sol\":2887:2928  mint(_amount * (10 ** uint256(decimals))) */\n  tag_11\n    /* \"contracts/ERC20.sol\":2917:2925  decimals */\n  sload(0x02)\n    /* \"contracts/ERC20.sol\":2903:2905  10 */\n  0x0a\n    /* \"contracts/ERC20.sol\":2903:2926  10 ** uint256(decimals) */\n  tag_12\n  swap2\n  swap1\n  tag_13\n  jump\t// in\ntag_12:\n    /* \"contracts/ERC20.sol\":2892:2899  _amount */\n  dup3\n    /* \"contracts/ERC20.sol\":2892:2927  _amount * (10 ** uint256(decimals)) */\n  tag_14\n  swap2\n  swap1\n  tag_15\n  jump\t// in\ntag_14:\n    /* \"contracts/ERC20.sol\":2887:2891  mint */\n  shl(0x20, tag_16)\n    /* \"contracts/ERC20.sol\":2887:2928  mint(_amount * (10 ** uint256(decimals))) */\n  0x20\n  shr\n  jump\t// in\ntag_11:\n    /* \"contracts/ERC20.sol\":2598:2938  constructor(string memory _name, string memory _symbol, uint256 _amount ){... */\n  pop\n  pop\n  pop\n    /* \"contracts/Pokenmon.sol\":86:5412  contract Pokenmon is ERC20 {... */\n  jump(tag_18)\n    /* \"contracts/ERC20.sol\":3124:3306  function mint(uint amount) internal {... */\ntag_16:\n    /* \"contracts/ERC20.sol\":3197:3203  amount */\n  dup1\n    /* \"contracts/ERC20.sol\":3173:3181  balances */\n  0x05\n    /* \"contracts/ERC20.sol\":3173:3193  balances[msg.sender] */\n  0x00\n    /* \"contracts/ERC20.sol\":3182:3192  msg.sender */\n  caller\n    /* \"contracts/ERC20.sol\":3173:3193  balances[msg.sender] */\n  0xffffffffffffffffffffffffffffffffffffffff\n  and\n  0xffffffffffffffffffffffffffffffffffffffff\n  and\n  dup2\n  mstore\n  0x20\n  add\n  swap1\n  dup2\n  mstore\n  0x20\n  add\n  0x00\n  keccak256\n  0x00\n    /* \"contracts/ERC20.sol\":3173:3203  balances[msg.sender] += amount */\n  dup3\n  dup3\n  sload\n  tag_20\n  swap2\n  swap1\n  tag_21\n  jump\t// in\ntag_20:\n  swap3\n  pop\n  pop\n  dup2\n  swap1\n  sstore\n  pop\n    /* \"contracts/ERC20.sol\":3250:3256  amount */\n  dup1\n    /* \"contracts/ERC20.sol\":3235:3246  totalSupply */\n  0x03\n  0x00\n    /* \"contracts/ERC20.sol\":3235:3256  totalSupply += amount */\n  dup3\n  dup3\n  sload\n  tag_22\n  swap2\n  swap1\n  tag_21\n  jump\t// in\ntag_22:\n  swap3\n  pop\n  pop\n  dup2\n  swap1\n  sstore\n  pop\n    /* \"contracts/ERC20.sol\":3124:3306  function mint(uint amount) internal {... */\n  pop\n  jump\t// out\n    /* \"contracts/Pokenmon.sol\":86:5412  contract Pokenmon is ERC20 {... */\ntag_2:\n  dup3\n  dup1\n  sload\n  dup3\n  dup3\n  sstore\n  swap1\n  0x00\n  mstore\n  keccak256(0x00, 0x20)\n  swap1\n  dup2\n  add\n  swap3\n  dup3\n  iszero\n  tag_23\n  jumpi\n  swap2\n  0x20\n  mul\n  dup3\n  add\ntag_24:\n  dup3\n  dup2\n  gt\n  iszero\n  tag_25\n  jumpi\n  dup3\n  mload\n  dup3\n  swap1\n  dup2\n  tag_26\n  swap2\n  swap1\n  tag_9\n  jump\t// in\ntag_26:\n  pop\n  swap2\n  0x20\n  add\n  swap2\n  swap1\n  0x01\n  add\n  swap1\n  jump(tag_24)\ntag_25:\ntag_23:\n  pop\n  swap1\n  pop\n  tag_27\n  swap2\n  swap1\n  tag_28\n  jump\t// in\ntag_27:\n  pop\n  swap1\n  jump\t// out\ntag_28:\ntag_29:\n  dup1\n  dup3\n  gt\n  iszero\n  tag_30\n  jumpi\n  0x00\n  dup2\n  dup2\n  tag_31\n  swap2\n  swap1\n  tag_32\n  jump\t// in\ntag_31:\n  pop\n  0x01\n  add\n  jump(tag_29)\ntag_30:\n  pop\n  swap1\n  jump\t// out\ntag_32:\n  pop\n  dup1\n  sload\n  tag_33\n  swap1\n  tag_34\n  jump\t// in\ntag_33:\n  0x00\n  dup3\n  sstore\n  dup1\n  0x1f\n  lt\n  tag_36\n  jumpi\n  pop\n  jump(tag_35)\ntag_36:\n  0x1f\n  add\n  0x20\n  swap1\n  div\n  swap1\n  0x00\n  mstore\n  keccak256(0x00, 0x20)\n  swap1\n  dup2\n  add\n  swap1\n  tag_37\n  swap2\n  swap1\n  tag_38\n  jump\t// in\ntag_37:\ntag_35:\n  pop\n  jump\t// out\ntag_38:\ntag_39:\n  dup1\n  dup3\n  gt\n  iszero\n  tag_40\n  jumpi\n  0x00\n  dup2\n  0x00\n  swap1\n  sstore\n  pop\n  0x01\n  add\n  jump(tag_39)\ntag_40:\n  pop\n  swap1\n  jump\t// out\n    /* \"#utility.yul\":7:106   */\ntag_41:\n    /* \"#utility.yul\":59:65   */\n  0x00\n    /* \"#utility.yul\":93:98   */\n  dup2\n    /* \"#utility.yul\":87:99   */\n  mload\n    /* \"#utility.yul\":77:99   */\n  swap1\n  pop\n    /* \"#utility.yul\":7:106   */\n  swap2\n  swap1\n  pop\n  jump\t// out\n    /* \"#utility.yul\":112:292   */\ntag_42:\n    /* \"#utility.yul\":160:237   */\n  0x4e487b7100000000000000000000000000000000000000000000000000000000\n    /* \"#utility.yul\":157:158   */\n  0x00\n    /* \"#utility.yul\":150:238   */\n  mstore\n    /* \"#utility.yul\":257:261   */\n  0x41\n    /* \"#utility.yul\":254:255   */\n  0x04\n    /* \"#utility.yul\":247:262   */\n  mstore\n    /* \"#utility.yul\":281:285   */\n  0x24\n    /* \"#utility.yul\":278:279   */\n  0x00\n    /* \"#utility.yul\":271:286   */\n  revert\n    /* \"#utility.yul\":298:478   */\ntag_43:\n    /* \"#utility.yul\":346:423   */\n  0x4e487b7100000000000000000000000000000000000000000000000000000000\n    /* \"#utility.yul\":343:344   */\n  0x00\n    /* \"#utility.yul\":336:424   */\n  mstore\n    /* \"#utility.yul\":443:447   */\n  0x22\n    /* \"#utility.yul\":440:441   */\n  0x04\n    /* \"#utility.yul\":433:448   */\n  mstore\n    /* \"#utility.yul\":467:471   */\n  0x24\n    /* \"#utility.yul\":464:465   */\n  0x00\n    /* \"#utility.yul\":457:472   */\n  revert\n    /* \"#utility.yul\":484:804   */\ntag_34:\n    /* \"#utility.yul\":528:534   */\n  0x00\n    /* \"#utility.yul\":565:566   */\n  0x02\n    /* \"#utility.yul\":559:563   */\n  dup3\n    /* \"#utility.yul\":555:567   */\n  div\n    /* \"#utility.yul\":545:567   */\n  swap1\n  pop\n    /* \"#utility.yul\":612:613   */\n  0x01\n    /* \"#utility.yul\":606:610   */\n  dup3\n    /* \"#utility.yul\":602:614   */\n  and\n    /* \"#utility.yul\":633:651   */\n  dup1\n    /* \"#utility.yul\":623:704   */\n  tag_69\n  jumpi\n    /* \"#utility.yul\":689:693   */\n  0x7f\n    /* \"#utility.yul\":681:687   */\n  dup3\n    /* \"#utility.yul\":677:694   */\n  and\n    /* \"#utility.yul\":667:694   */\n  swap2\n  pop\n    /* \"#utility.yul\":623:704   */\ntag_69:\n    /* \"#utility.yul\":751:753   */\n  0x20\n    /* \"#utility.yul\":743:749   */\n  dup3\n    /* \"#utility.yul\":740:754   */\n  lt\n    /* \"#utility.yul\":720:738   */\n  dup2\n    /* \"#utility.yul\":717:755   */\n  sub\n    /* \"#utility.yul\":714:798   */\n  tag_70\n  jumpi\n    /* \"#utility.yul\":770:788   */\n  tag_71\n  tag_43\n  jump\t// in\ntag_71:\n    /* \"#utility.yul\":714:798   */\ntag_70:\n    /* \"#utility.yul\":535:804   */\n  pop\n    /* \"#utility.yul\":484:804   */\n  swap2\n  swap1\n  pop\n  jump\t// out\n    /* \"#utility.yul\":810:951   */\ntag_44:\n    /* \"#utility.yul\":859:863   */\n  0x00\n    /* \"#utility.yul\":882:885   */\n  dup2\n    /* \"#utility.yul\":874:885   */\n  swap1\n  pop\n    /* \"#utility.yul\":905:908   */\n  dup2\n    /* \"#utility.yul\":902:903   */\n  0x00\n    /* \"#utility.yul\":895:909   */\n  mstore\n    /* \"#utility.yul\":939:943   */\n  0x20\n    /* \"#utility.yul\":936:937   */\n  0x00\n    /* \"#utility.yul\":926:944   */\n  keccak256\n    /* \"#utility.yul\":918:944   */\n  swap1\n  pop\n    /* \"#utility.yul\":810:951   */\n  swap2\n  swap1\n  pop\n  jump\t// out\n    /* \"#utility.yul\":957:1050   */\ntag_45:\n    /* \"#utility.yul\":994:1000   */\n  0x00\n    /* \"#utility.yul\":1041:1043   */\n  0x20\n    /* \"#utility.yul\":1036:1038   */\n  0x1f\n    /* \"#utility.yul\":1029:1034   */\n  dup4\n    /* \"#utility.yul\":1025:1039   */\n  add\n    /* \"#utility.yul\":1021:1044   */\n  div\n    /* \"#utility.yul\":1011:1044   */\n  swap1\n  pop\n    /* \"#utility.yul\":957:1050   */\n  swap2\n  swap1\n  pop\n  jump\t// out\n    /* \"#utility.yul\":1056:1163   */\ntag_46:\n    /* \"#utility.yul\":1100:1108   */\n  0x00\n    /* \"#utility.yul\":1150:1155   */\n  dup3\n    /* \"#utility.yul\":1144:1148   */\n  dup3\n    /* \"#utility.yul\":1140:1156   */\n  shl\n    /* \"#utility.yul\":1119:1156   */\n  swap1\n  pop\n    /* \"#utility.yul\":1056:1163   */\n  swap3\n  swap2\n  pop\n  pop\n  jump\t// out\n    /* \"#utility.yul\":1169:1562   */\ntag_47:\n    /* \"#utility.yul\":1238:1244   */\n  0x00\n    /* \"#utility.yul\":1288:1289   */\n  0x08\n    /* \"#utility.yul\":1276:1286   */\n  dup4\n    /* \"#utility.yul\":1272:1290   */\n  mul\n    /* \"#utility.yul\":1311:1408   */\n  tag_76\n    /* \"#utility.yul\":1341:1407   */\n  0xffffffffffffffffffffffffffffffffffffffffffffffffffffffffffffffff\n    /* \"#utility.yul\":1330:1339   */\n  dup3\n    /* \"#utility.yul\":1311:1408   */\n  tag_46\n  jump\t// in\ntag_76:\n    /* \"#utility.yul\":1429:1468   */\n  tag_77\n    /* \"#utility.yul\":1459:1467   */\n  dup7\n    /* \"#utility.yul\":1448:1457   */\n  dup4\n    /* \"#utility.yul\":1429:1468   */\n  tag_46\n  jump\t// in\ntag_77:\n    /* \"#utility.yul\":1417:1468   */\n  swap6\n  pop\n    /* \"#utility.yul\":1501:1505   */\n  dup1\n    /* \"#utility.yul\":1497:1506   */\n  not\n    /* \"#utility.yul\":1490:1495   */\n  dup5\n    /* \"#utility.yul\":1486:1507   */\n  and\n    /* \"#utility.yul\":1477:1507   */\n  swap4\n  pop\n    /* \"#utility.yul\":1550:1554   */\n  dup1\n    /* \"#utility.yul\":1540:1548   */\n  dup7\n    /* \"#utility.yul\":1536:1555   */\n  and\n    /* \"#utility.yul\":1529:1534   */\n  dup5\n    /* \"#utility.yul\":1526:1556   */\n  or\n    /* \"#utility.yul\":1516:1556   */\n  swap3\n  pop\n    /* \"#utility.yul\":1245:1562   */\n  pop\n  pop\n    /* \"#utility.yul\":1169:1562   */\n  swap4\n  swap3\n  pop\n  pop\n  pop\n  jump\t// out\n    /* \"#utility.yul\":1568:1645   */\ntag_48:\n    /* \"#utility.yul\":1605:1612   */\n  0x00\n    /* \"#utility.yul\":1634:1639   */\n  dup2\n    /* \"#utility.yul\":1623:1639   */\n  swap1\n  pop\n    /* \"#utility.yul\":1568:1645   */\n  swap2\n  swap1\n  pop\n  jump\t// out\n    /* \"#utility.yul\":1651:1711   */\ntag_49:\n    /* \"#utility.yul\":1679:1682   */\n  0x00\n    /* \"#utility.yul\":1700:1705   */\n  dup2\n    /* \"#utility.yul\":1693:1705   */\n  swap1\n  pop\n    /* \"#utility.yul\":1651:1711   */\n  swap2\n  swap1\n  pop\n  jump\t// out\n    /* \"#utility.yul\":1717:1859   */\ntag_50:\n    /* \"#utility.yul\":1767:1776   */\n  0x00\n    /* \"#utility.yul\":1800:1853   */\n  tag_81\n    /* \"#utility.yul\":1818:1852   */\n  tag_82\n    /* \"#utility.yul\":1827:1851   */\n  tag_83\n    /* \"#utility.yul\":1845:1850   */\n  dup5\n    /* \"#utility.yul\":1827:1851   */\n  tag_48\n  jump\t// in\ntag_83:\n    /* \"#utility.yul\":1818:1852   */\n  tag_49\n  jump\t// in\ntag_82:\n    /* \"#utility.yul\":1800:1853   */\n  tag_48\n  jump\t// in\ntag_81:\n    /* \"#utility.yul\":1787:1853   */\n  swap1\n  pop\n    /* \"#utility.yul\":1717:1859   */\n  swap2\n  swap1\n  pop\n  jump\t// out\n    /* \"#utility.yul\":1865:1940   */\ntag_51:\n    /* \"#utility.yul\":1908:1911   */\n  0x00\n    /* \"#utility.yul\":1929:1934   */\n  dup2\n    /* \"#utility.yul\":1922:1934   */\n  swap1\n  pop\n    /* \"#utility.yul\":1865:1940   */\n  swap2\n  swap1\n  pop\n  jump\t// out\n    /* \"#utility.yul\":1946:2215   */\ntag_52:\n    /* \"#utility.yul\":2056:2095   */\n  tag_86\n    /* \"#utility.yul\":2087:2094   */\n  dup4\n    /* \"#utility.yul\":2056:2095   */\n  tag_50\n  jump\t// in\ntag_86:\n    /* \"#utility.yul\":2117:2208   */\n  tag_87\n    /* \"#utility.yul\":2166:2207   */\n  tag_88\n    /* \"#utility.yul\":2190:2206   */\n  dup3\n    /* \"#utility.yul\":2166:2207   */\n  tag_51\n  jump\t// in\ntag_88:\n    /* \"#utility.yul\":2158:2164   */\n  dup5\n    /* \"#utility.yul\":2151:2155   */\n  dup5\n    /* \"#utility.yul\":2145:2156   */\n  sload\n    /* \"#utility.yul\":2117:2208   */\n  tag_47\n  jump\t// in\ntag_87:\n    /* \"#utility.yul\":2111:2115   */\n  dup3\n    /* \"#utility.yul\":2104:2209   */\n  sstore\n    /* \"#utility.yul\":2022:2215   */\n  pop\n    /* \"#utility.yul\":1946:2215   */\n  pop\n  pop\n  pop\n  jump\t// out\n    /* \"#utility.yul\":2221:2294   */\ntag_53:\n    /* \"#utility.yul\":2266:2269   */\n  0x00\n    /* \"#utility.yul\":2221:2294   */\n  swap1\n  jump\t// out\n    /* \"#utility.yul\":2300:2489   */\ntag_54:\n    /* \"#utility.yul\":2377:2409   */\n  tag_91\n  tag_53\n  jump\t// in\ntag_91:\n    /* \"#utility.yul\":2418:2483   */\n  tag_92\n    /* \"#utility.yul\":2476:2482   */\n  dup2\n    /* \"#utility.yul\":2468:2474   */\n  dup5\n    /* \"#utility.yul\":2462:2466   */\n  dup5\n    /* \"#utility.yul\":2418:2483   */\n  tag_52\n  jump\t// in\ntag_92:\n    /* \"#utility.yul\":2353:2489   */\n  pop\n    /* \"#utility.yul\":2300:2489   */\n  pop\n  pop\n  jump\t// out\n    /* \"#utility.yul\":2495:2681   */\ntag_55:\n    /* \"#utility.yul\":2555:2675   */\ntag_94:\n    /* \"#utility.yul\":2572:2575   */\n  dup2\n    /* \"#utility.yul\":2565:2570   */\n  dup2\n    /* \"#utility.yul\":2562:2576   */\n  lt\n    /* \"#utility.yul\":2555:2675   */\n  iszero\n  tag_96\n  jumpi\n    /* \"#utility.yul\":2626:2665   */\n  tag_97\n    /* \"#utility.yul\":2663:2664   */\n  0x00\n    /* \"#utility.yul\":2656:2661   */\n  dup3\n    /* \"#utility.yul\":2626:2665   */\n  tag_54\n  jump\t// in\ntag_97:\n    /* \"#utility.yul\":2599:2600   */\n  0x01\n    /* \"#utility.yul\":2592:2597   */\n  dup2\n    /* \"#utility.yul\":2588:2601   */\n  add\n    /* \"#utility.yul\":2579:2601   */\n  swap1\n  pop\n    /* \"#utility.yul\":2555:2675   */\n  jump(tag_94)\ntag_96:\n    /* \"#utility.yul\":2495:2681   */\n  pop\n  pop\n  jump\t// out\n    /* \"#utility.yul\":2687:3230   */\ntag_56:\n    /* \"#utility.yul\":2788:2790   */\n  0x1f\n    /* \"#utility.yul\":2783:2786   */\n  dup3\n    /* \"#utility.yul\":2780:2791   */\n  gt\n    /* \"#utility.yul\":2777:3223   */\n  iszero\n  tag_99\n  jumpi\n    /* \"#utility.yul\":2822:2860   */\n  tag_100\n    /* \"#utility.yul\":2854:2859   */\n  dup2\n    /* \"#utility.yul\":2822:2860   */\n  tag_44\n  jump\t// in\ntag_100:\n    /* \"#utility.yul\":2906:2935   */\n  tag_101\n    /* \"#utility.yul\":2924:2934   */\n  dup5\n    /* \"#utility.yul\":2906:2935   */\n  tag_45\n  jump\t// in\ntag_101:\n    /* \"#utility.yul\":2896:2904   */\n  dup2\n    /* \"#utility.yul\":2892:2936   */\n  add\n    /* \"#utility.yul\":3089:3091   */\n  0x20\n    /* \"#utility.yul\":3077:3087   */\n  dup6\n    /* \"#utility.yul\":3074:3092   */\n  lt\n    /* \"#utility.yul\":3071:3120   */\n  iszero\n  tag_102\n  jumpi\n    /* \"#utility.yul\":3110:3118   */\n  dup2\n    /* \"#utility.yul\":3095:3118   */\n  swap1\n  pop\n    /* \"#utility.yul\":3071:3120   */\ntag_102:\n    /* \"#utility.yul\":3133:3213   */\n  tag_103\n    /* \"#utility.yul\":3189:3211   */\n  tag_104\n    /* \"#utility.yul\":3207:3210   */\n  dup6\n    /* \"#utility.yul\":3189:3211   */\n  tag_45\n  jump\t// in\ntag_104:\n    /* \"#utility.yul\":3179:3187   */\n  dup4\n    /* \"#utility.yul\":3175:3212   */\n  add\n    /* \"#utility.yul\":3162:3173   */\n  dup3\n    /* \"#utility.yul\":3133:3213   */\n  tag_55\n  jump\t// in\ntag_103:\n    /* \"#utility.yul\":2792:3223   */\n  pop\n  pop\n    /* \"#utility.yul\":2777:3223   */\ntag_99:\n    /* \"#utility.yul\":2687:3230   */\n  pop\n  pop\n  pop\n  jump\t// out\n    /* \"#utility.yul\":3236:3353   */\ntag_57:\n    /* \"#utility.yul\":3290:3298   */\n  0x00\n    /* \"#utility.yul\":3340:3345   */\n  dup3\n    /* \"#utility.yul\":3334:3338   */\n  dup3\n    /* \"#utility.yul\":3330:3346   */\n  shr\n    /* \"#utility.yul\":3309:3346   */\n  swap1\n  pop\n    /* \"#utility.yul\":3236:3353   */\n  swap3\n  swap2\n  pop\n  pop\n  jump\t// out\n    /* \"#utility.yul\":3359:3528   */\ntag_58:\n    /* \"#utility.yul\":3403:3409   */\n  0x00\n    /* \"#utility.yul\":3436:3487   */\n  tag_107\n    /* \"#utility.yul\":3484:3485   */\n  0x00\n    /* \"#utility.yul\":3480:3486   */\n  not\n    /* \"#utility.yul\":3472:3477   */\n  dup5\n    /* \"#utility.yul\":3469:3470   */\n  0x08\n    /* \"#utility.yul\":3465:3478   */\n  mul\n    /* \"#utility.yul\":3436:3487   */\n  tag_57\n  jump\t// in\ntag_107:\n    /* \"#utility.yul\":3432:3488   */\n  not\n    /* \"#utility.yul\":3517:3521   */\n  dup1\n    /* \"#utility.yul\":3511:3515   */\n  dup4\n    /* \"#utility.yul\":3507:3522   */\n  and\n    /* \"#utility.yul\":3497:3522   */\n  swap2\n  pop\n    /* \"#utility.yul\":3410:3528   */\n  pop\n    /* \"#utility.yul\":3359:3528   */\n  swap3\n  swap2\n  pop\n  pop\n  jump\t// out\n    /* \"#utility.yul\":3533:3828   */\ntag_59:\n    /* \"#utility.yul\":3609:3613   */\n  0x00\n    /* \"#utility.yul\":3755:3784   */\n  tag_109\n    /* \"#utility.yul\":3780:3783   */\n  dup4\n    /* \"#utility.yul\":3774:3778   */\n  dup4\n    /* \"#utility.yul\":3755:3784   */\n  tag_58\n  jump\t// in\ntag_109:\n    /* \"#utility.yul\":3747:3784   */\n  swap2\n  pop\n    /* \"#utility.yul\":3817:3820   */\n  dup3\n    /* \"#utility.yul\":3814:3815   */\n  0x02\n    /* \"#utility.yul\":3810:3821   */\n  mul\n    /* \"#utility.yul\":3804:3808   */\n  dup3\n    /* \"#utility.yul\":3801:3822   */\n  or\n    /* \"#utility.yul\":3793:3822   */\n  swap1\n  pop\n    /* \"#utility.yul\":3533:3828   */\n  swap3\n  swap2\n  pop\n  pop\n  jump\t// out\n    /* \"#utility.yul\":3833:5228   */\ntag_9:\n    /* \"#utility.yul\":3950:3987   */\n  tag_111\n    /* \"#utility.yul\":3983:3986   */\n  dup3\n    /* \"#utility.yul\":3950:3987   */\n  tag_41\n  jump\t// in\ntag_111:\n    /* \"#utility.yul\":4052:4070   */\n  0xffffffffffffffff\n    /* \"#utility.yul\":4044:4050   */\n  dup2\n    /* \"#utility.yul\":4041:4071   */\n  gt\n    /* \"#utility.yul\":4038:4094   */\n  iszero\n  tag_112\n  jumpi\n    /* \"#utility.yul\":4074:4092   */\n  tag_113\n  tag_42\n  jump\t// in\ntag_113:\n    /* \"#utility.yul\":4038:4094   */\ntag_112:\n    /* \"#utility.yul\":4118:4156   */\n  tag_114\n    /* \"#utility.yul\":4150:4154   */\n  dup3\n    /* \"#utility.yul\":4144:4155   */\n  sload\n    /* \"#utility.yul\":4118:4156   */\n  tag_34\n  jump\t// in\ntag_114:\n    /* \"#utility.yul\":4203:4270   */\n  tag_115\n    /* \"#utility.yul\":4263:4269   */\n  dup3\n    /* \"#utility.yul\":4255:4261   */\n  dup3\n    /* \"#utility.yul\":4249:4253   */\n  dup6\n    /* \"#utility.yul\":4203:4270   */\n  tag_56\n  jump\t// in\ntag_115:\n    /* \"#utility.yul\":4297:4298   */\n  0x00\n    /* \"#utility.yul\":4321:4325   */\n  0x20\n    /* \"#utility.yul\":4308:4325   */\n  swap1\n  pop\n    /* \"#utility.yul\":4353:4355   */\n  0x1f\n    /* \"#utility.yul\":4345:4351   */\n  dup4\n    /* \"#utility.yul\":4342:4356   */\n  gt\n    /* \"#utility.yul\":4370:4371   */\n  0x01\n    /* \"#utility.yul\":4365:4983   */\n  dup2\n  eq\n  tag_117\n  jumpi\n    /* \"#utility.yul\":5027:5028   */\n  0x00\n    /* \"#utility.yul\":5044:5050   */\n  dup5\n    /* \"#utility.yul\":5041:5118   */\n  iszero\n  tag_118\n  jumpi\n    /* \"#utility.yul\":5093:5102   */\n  dup3\n    /* \"#utility.yul\":5088:5091   */\n  dup8\n    /* \"#utility.yul\":5084:5103   */\n  add\n    /* \"#utility.yul\":5078:5104   */\n  mload\n    /* \"#utility.yul\":5069:5104   */\n  swap1\n  pop\n    /* \"#utility.yul\":5041:5118   */\ntag_118:\n    /* \"#utility.yul\":5144:5211   */\n  tag_119\n    /* \"#utility.yul\":5204:5210   */\n  dup6\n    /* \"#utility.yul\":5197:5202   */\n  dup3\n    /* \"#utility.yul\":5144:5211   */\n  tag_59\n  jump\t// in\ntag_119:\n    /* \"#utility.yul\":5138:5142   */\n  dup7\n    /* \"#utility.yul\":5131:5212   */\n  sstore\n    /* \"#utility.yul\":5000:5222   */\n  pop\n    /* \"#utility.yul\":4335:5222   */\n  jump(tag_116)\n    /* \"#utility.yul\":4365:4983   */\ntag_117:\n    /* \"#utility.yul\":4417:4421   */\n  0x1f\n    /* \"#utility.yul\":4413:4422   */\n  not\n    /* \"#utility.yul\":4405:4411   */\n  dup5\n    /* \"#utility.yul\":4401:4423   */\n  and\n    /* \"#utility.yul\":4451:4488   */\n  tag_120\n    /* \"#utility.yul\":4483:4487   */\n  dup7\n    /* \"#utility.yul\":4451:4488   */\n  tag_44\n  jump\t// in\ntag_120:\n    /* \"#utility.yul\":4510:4511   */\n  0x00\n    /* \"#utility.yul\":4524:4732   */\ntag_121:\n    /* \"#utility.yul\":4538:4545   */\n  dup3\n    /* \"#utility.yul\":4535:4536   */\n  dup2\n    /* \"#utility.yul\":4532:4546   */\n  lt\n    /* \"#utility.yul\":4524:4732   */\n  iszero\n  tag_123\n  jumpi\n    /* \"#utility.yul\":4617:4626   */\n  dup5\n    /* \"#utility.yul\":4612:4615   */\n  dup10\n    /* \"#utility.yul\":4608:4627   */\n  add\n    /* \"#utility.yul\":4602:4628   */\n  mload\n    /* \"#utility.yul\":4594:4600   */\n  dup3\n    /* \"#utility.yul\":4587:4629   */\n  sstore\n    /* \"#utility.yul\":4668:4669   */\n  0x01\n    /* \"#utility.yul\":4660:4666   */\n  dup3\n    /* \"#utility.yul\":4656:4670   */\n  add\n    /* \"#utility.yul\":4646:4670   */\n  swap2\n  pop\n    /* \"#utility.yul\":4715:4717   */\n  0x20\n    /* \"#utility.yul\":4704:4713   */\n  dup6\n    /* \"#utility.yul\":4700:4718   */\n  add\n    /* \"#utility.yul\":4687:4718   */\n  swap5\n  pop\n    /* \"#utility.yul\":4561:4565   */\n  0x20\n    /* \"#utility.yul\":4558:4559   */\n  dup2\n    /* \"#utility.yul\":4554:4566   */\n  add\n    /* \"#utility.yul\":4549:4566   */\n  swap1\n  pop\n    /* \"#utility.yul\":4524:4732   */\n  jump(tag_121)\ntag_123:\n    /* \"#utility.yul\":4760:4766   */\n  dup7\n    /* \"#utility.yul\":4751:4758   */\n  dup4\n    /* \"#utility.yul\":4748:4767   */\n  lt\n    /* \"#utility.yul\":4745:4924   */\n  iszero\n  tag_124\n  jumpi\n    /* \"#utility.yul\":4818:4827   */\n  dup5\n    /* \"#utility.yul\":4813:4816   */\n  dup10\n    /* \"#utility.yul\":4809:4828   */\n  add\n    /* \"#utility.yul\":4803:4829   */\n  mload\n    /* \"#utility.yul\":4861:4909   */\n  tag_125\n    /* \"#utility.yul\":4903:4907   */\n  0x1f\n    /* \"#utility.yul\":4895:4901   */\n  dup10\n    /* \"#utility.yul\":4891:4908   */\n  and\n    /* \"#utility.yul\":4880:4889   */\n  dup3\n    /* \"#utility.yul\":4861:4909   */\n  tag_58\n  jump\t// in\ntag_125:\n    /* \"#utility.yul\":4853:4859   */\n  dup4\n    /* \"#utility.yul\":4846:4910   */\n  sstore\n    /* \"#utility.yul\":4768:4924   */\n  pop\n    /* \"#utility.yul\":4745:4924   */\ntag_124:\n    /* \"#utility.yul\":4970:4971   */\n  0x01\n    /* \"#utility.yul\":4966:4967   */\n  0x02\n    /* \"#utility.yul\":4958:4964   */\n  dup9\n    /* \"#utility.yul\":4954:4968   */\n  mul\n    /* \"#utility.yul\":4950:4972   */\n  add\n    /* \"#utility.yul\":4944:4948   */\n  dup9\n    /* \"#utility.yul\":4937:4973   */\n  sstore\n    /* \"#utility.yul\":4372:4983   */\n  pop\n  pop\n  pop\n    /* \"#utility.yul\":4335:5222   */\ntag_116:\n  pop\n    /* \"#utility.yul\":3925:5228   */\n  pop\n  pop\n  pop\n    /* \"#utility.yul\":3833:5228   */\n  pop\n  pop\n  jump\t// out\n    /* \"#utility.yul\":5234:5414   */\ntag_60:\n    /* \"#utility.yul\":5282:5359   */\n  0x4e487b7100000000000000000000000000000000000000000000000000000000\n    /* \"#utility.yul\":5279:5280   */\n  0x00\n    /* \"#utility.yul\":5272:5360   */\n  mstore\n    /* \"#utility.yul\":5379:5383   */\n  0x11\n    /* \"#utility.yul\":5376:5377   */\n  0x04\n    /* \"#utility.yul\":5369:5384   */\n  mstore\n    /* \"#utility.yul\":5403:5407   */\n  0x24\n    /* \"#utility.yul\":5400:5401   */\n  0x00\n    /* \"#utility.yul\":5393:5408   */\n  revert\n    /* \"#utility.yul\":5420:5522   */\ntag_61:\n    /* \"#utility.yul\":5462:5470   */\n  0x00\n    /* \"#utility.yul\":5509:5514   */\n  dup2\n    /* \"#utility.yul\":5506:5507   */\n  0x01\n    /* \"#utility.yul\":5502:5515   */\n  shr\n    /* \"#utility.yul\":5481:5515   */\n  swap1\n  pop\n    /* \"#utility.yul\":5420:5522   */\n  swap2\n  swap1\n  pop\n  jump\t// out\n    /* \"#utility.yul\":5528:6376   */\ntag_62:\n    /* \"#utility.yul\":5589:5594   */\n  0x00\n    /* \"#utility.yul\":5596:5600   */\n  dup1\n    /* \"#utility.yul\":5620:5626   */\n  dup3\n    /* \"#utility.yul\":5611:5626   */\n  swap2\n  pop\n    /* \"#utility.yul\":5644:5649   */\n  dup4\n    /* \"#utility.yul\":5635:5649   */\n  swap1\n  pop\n    /* \"#utility.yul\":5658:6370   */\ntag_129:\n    /* \"#utility.yul\":5679:5680   */\n  0x01\n    /* \"#utility.yul\":5669:5677   */\n  dup6\n    /* \"#utility.yul\":5666:5681   */\n  gt\n    /* \"#utility.yul\":5658:6370   */\n  iszero\n  tag_131\n  jumpi\n    /* \"#utility.yul\":5774:5778   */\n  dup1\n    /* \"#utility.yul\":5769:5772   */\n  dup7\n    /* \"#utility.yul\":5765:5779   */\n  div\n    /* \"#utility.yul\":5759:5763   */\n  dup2\n    /* \"#utility.yul\":5756:5780   */\n  gt\n    /* \"#utility.yul\":5753:5803   */\n  iszero\n  tag_132\n  jumpi\n    /* \"#utility.yul\":5783:5801   */\n  tag_133\n  tag_60\n  jump\t// in\ntag_133:\n    /* \"#utility.yul\":5753:5803   */\ntag_132:\n    /* \"#utility.yul\":5833:5834   */\n  0x01\n    /* \"#utility.yul\":5823:5831   */\n  dup6\n    /* \"#utility.yul\":5819:5835   */\n  and\n    /* \"#utility.yul\":5816:6267   */\n  iszero\n  tag_134\n  jumpi\n    /* \"#utility.yul\":6248:6252   */\n  dup1\n    /* \"#utility.yul\":6241:6246   */\n  dup3\n    /* \"#utility.yul\":6237:6253   */\n  mul\n    /* \"#utility.yul\":6228:6253   */\n  swap2\n  pop\n    /* \"#utility.yul\":5816:6267   */\ntag_134:\n    /* \"#utility.yul\":6298:6302   */\n  dup1\n    /* \"#utility.yul\":6292:6296   */\n  dup2\n    /* \"#utility.yul\":6288:6303   */\n  mul\n    /* \"#utility.yul\":6280:6303   */\n  swap1\n  pop\n    /* \"#utility.yul\":6328:6360   */\n  tag_135\n    /* \"#utility.yul\":6351:6359   */\n  dup6\n    /* \"#utility.yul\":6328:6360   */\n  tag_61\n  jump\t// in\ntag_135:\n    /* \"#utility.yul\":6316:6360   */\n  swap5\n  pop\n    /* \"#utility.yul\":5658:6370   */\n  jump(tag_129)\ntag_131:\n    /* \"#utility.yul\":5528:6376   */\n  swap5\n  pop\n  swap5\n  swap3\n  pop\n  pop\n  pop\n  jump\t// out\n    /* \"#utility.yul\":6382:7455   */\ntag_63:\n    /* \"#utility.yul\":6436:6441   */\n  0x00\n    /* \"#utility.yul\":6627:6635   */\n  dup3\n    /* \"#utility.yul\":6617:6657   */\n  tag_137\n  jumpi\n    /* \"#utility.yul\":6648:6649   */\n  0x01\n    /* \"#utility.yul\":6639:6649   */\n  swap1\n  pop\n    /* \"#utility.yul\":6650:6655   */\n  jump(tag_136)\n    /* \"#utility.yul\":6617:6657   */\ntag_137:\n    /* \"#utility.yul\":6676:6680   */\n  dup2\n    /* \"#utility.yul\":6666:6702   */\n  tag_138\n  jumpi\n    /* \"#utility.yul\":6693:6694   */\n  0x00\n    /* \"#utility.yul\":6684:6694   */\n  swap1\n  pop\n    /* \"#utility.yul\":6695:6700   */\n  jump(tag_136)\n    /* \"#utility.yul\":6666:6702   */\ntag_138:\n    /* \"#utility.yul\":6762:6766   */\n  dup2\n    /* \"#utility.yul\":6810:6811   */\n  0x01\n    /* \"#utility.yul\":6805:6832   */\n  dup2\n  eq\n  tag_140\n  jumpi\n    /* \"#utility.yul\":6846:6847   */\n  0x02\n    /* \"#utility.yul\":6841:7032   */\n  dup2\n  eq\n  tag_141\n  jumpi\n    /* \"#utility.yul\":6755:7032   */\n  jump(tag_139)\n    /* \"#utility.yul\":6805:6832   */\ntag_140:\n    /* \"#utility.yul\":6823:6824   */\n  0x01\n    /* \"#utility.yul\":6814:6824   */\n  swap2\n  pop\n    /* \"#utility.yul\":6825:6830   */\n  pop\n  jump(tag_136)\n    /* \"#utility.yul\":6841:7032   */\ntag_141:\n    /* \"#utility.yul\":6886:6889   */\n  0xff\n    /* \"#utility.yul\":6876:6884   */\n  dup5\n    /* \"#utility.yul\":6873:6890   */\n  gt\n    /* \"#utility.yul\":6870:6913   */\n  iszero\n  tag_142\n  jumpi\n    /* \"#utility.yul\":6893:6911   */\n  tag_143\n  tag_60\n  jump\t// in\ntag_143:\n    /* \"#utility.yul\":6870:6913   */\ntag_142:\n    /* \"#utility.yul\":6942:6950   */\n  dup4\n    /* \"#utility.yul\":6939:6940   */\n  0x02\n    /* \"#utility.yul\":6935:6951   */\n  exp\n    /* \"#utility.yul\":6926:6951   */\n  swap2\n  pop\n    /* \"#utility.yul\":6977:6980   */\n  dup5\n    /* \"#utility.yul\":6970:6975   */\n  dup3\n    /* \"#utility.yul\":6967:6981   */\n  gt\n    /* \"#utility.yul\":6964:7004   */\n  iszero\n  tag_144\n  jumpi\n    /* \"#utility.yul\":6984:7002   */\n  tag_145\n  tag_60\n  jump\t// in\ntag_145:\n    /* \"#utility.yul\":6964:7004   */\ntag_144:\n    /* \"#utility.yul\":7017:7022   */\n  pop\n  jump(tag_136)\n    /* \"#utility.yul\":6755:7032   */\ntag_139:\n  pop\n    /* \"#utility.yul\":7141:7143   */\n  0x20\n    /* \"#utility.yul\":7131:7139   */\n  dup4\n    /* \"#utility.yul\":7128:7144   */\n  lt\n    /* \"#utility.yul\":7122:7125   */\n  0x0133\n    /* \"#utility.yul\":7116:7120   */\n  dup4\n    /* \"#utility.yul\":7113:7126   */\n  lt\n    /* \"#utility.yul\":7109:7145   */\n  and\n    /* \"#utility.yul\":7091:7093   */\n  0x4e\n    /* \"#utility.yul\":7081:7089   */\n  dup5\n    /* \"#utility.yul\":7078:7094   */\n  lt\n    /* \"#utility.yul\":7073:7075   */\n  0x0b\n    /* \"#utility.yul\":7067:7071   */\n  dup5\n    /* \"#utility.yul\":7064:7076   */\n  lt\n    /* \"#utility.yul\":7060:7095   */\n  and\n    /* \"#utility.yul\":7044:7155   */\n  or\n    /* \"#utility.yul\":7041:7287   */\n  iszero\n  tag_146\n  jumpi\n    /* \"#utility.yul\":7197:7205   */\n  dup3\n    /* \"#utility.yul\":7191:7195   */\n  dup3\n    /* \"#utility.yul\":7187:7206   */\n  exp\n    /* \"#utility.yul\":7178:7206   */\n  swap1\n  pop\n    /* \"#utility.yul\":7232:7235   */\n  dup4\n    /* \"#utility.yul\":7225:7230   */\n  dup2\n    /* \"#utility.yul\":7222:7236   */\n  gt\n    /* \"#utility.yul\":7219:7259   */\n  iszero\n  tag_147\n  jumpi\n    /* \"#utility.yul\":7239:7257   */\n  tag_148\n  tag_60\n  jump\t// in\ntag_148:\n    /* \"#utility.yul\":7219:7259   */\ntag_147:\n    /* \"#utility.yul\":7272:7277   */\n  jump(tag_136)\n    /* \"#utility.yul\":7041:7287   */\ntag_146:\n    /* \"#utility.yul\":7312:7354   */\n  tag_149\n    /* \"#utility.yul\":7350:7353   */\n  dup5\n    /* \"#utility.yul\":7340:7348   */\n  dup5\n    /* \"#utility.yul\":7334:7338   */\n  dup5\n    /* \"#utility.yul\":7331:7332   */\n  0x01\n    /* \"#utility.yul\":7312:7354   */\n  tag_62\n  jump\t// in\ntag_149:\n    /* \"#utility.yul\":7297:7354   */\n  swap3\n  pop\n  swap1\n  pop\n    /* \"#utility.yul\":7386:7390   */\n  dup2\n    /* \"#utility.yul\":7381:7384   */\n  dup5\n    /* \"#utility.yul\":7377:7391   */\n  div\n    /* \"#utility.yul\":7370:7375   */\n  dup2\n    /* \"#utility.yul\":7367:7392   */\n  gt\n    /* \"#utility.yul\":7364:7415   */\n  iszero\n  tag_150\n  jumpi\n    /* \"#utility.yul\":7395:7413   */\n  tag_151\n  tag_60\n  jump\t// in\ntag_151:\n    /* \"#utility.yul\":7364:7415   */\ntag_150:\n    /* \"#utility.yul\":7444:7448   */\n  dup2\n    /* \"#utility.yul\":7437:7442   */\n  dup2\n    /* \"#utility.yul\":7433:7449   */\n  mul\n    /* \"#utility.yul\":7424:7449   */\n  swap1\n  pop\n    /* \"#utility.yul\":6382:7455   */\ntag_136:\n  swap4\n  swap3\n  pop\n  pop\n  pop\n  jump\t// out\n    /* \"#utility.yul\":7461:7746   */\ntag_13:\n    /* \"#utility.yul\":7521:7526   */\n  0x00\n    /* \"#utility.yul\":7545:7568   */\n  tag_153\n    /* \"#utility.yul\":7563:7567   */\n  dup3\n    /* \"#utility.yul\":7545:7568   */\n  tag_48\n  jump\t// in\ntag_153:\n    /* \"#utility.yul\":7537:7568   */\n  swap2\n  pop\n    /* \"#utility.yul\":7589:7616   */\n  tag_154\n    /* \"#utility.yul\":7607:7615   */\n  dup4\n    /* \"#utility.yul\":7589:7616   */\n  tag_48\n  jump\t// in\ntag_154:\n    /* \"#utility.yul\":7577:7616   */\n  swap3\n  pop\n    /* \"#utility.yul\":7635:7739   */\n  tag_155\n    /* \"#utility.yul\":7672:7738   */\n  0xffffffffffffffffffffffffffffffffffffffffffffffffffffffffffffffff\n    /* \"#utility.yul\":7662:7670   */\n  dup5\n    /* \"#utility.yul\":7656:7660   */\n  dup5\n    /* \"#utility.yul\":7635:7739   */\n  tag_63\n  jump\t// in\ntag_155:\n    /* \"#utility.yul\":7626:7739   */\n  swap1\n  pop\n    /* \"#utility.yul\":7461:7746   */\n  swap3\n  swap2\n  pop\n  pop\n  jump\t// out\n    /* \"#utility.yul\":7752:8162   */\ntag_15:\n    /* \"#utility.yul\":7792:7799   */\n  0x00\n    /* \"#utility.yul\":7815:7835   */\n  tag_157\n    /* \"#utility.yul\":7833:7834   */\n  dup3\n    /* \"#utility.yul\":7815:7835   */\n  tag_48\n  jump\t// in\ntag_157:\n    /* \"#utility.yul\":7810:7835   */\n  swap2\n  pop\n    /* \"#utility.yul\":7849:7869   */\n  tag_158\n    /* \"#utility.yul\":7867:7868   */\n  dup4\n    /* \"#utility.yul\":7849:7869   */\n  tag_48\n  jump\t// in\ntag_158:\n    /* \"#utility.yul\":7844:7869   */\n  swap3\n  pop\n    /* \"#utility.yul\":7904:7905   */\n  dup3\n    /* \"#utility.yul\":7901:7902   */\n  dup3\n    /* \"#utility.yul\":7897:7906   */\n  mul\n    /* \"#utility.yul\":7926:7956   */\n  tag_159\n    /* \"#utility.yul\":7944:7955   */\n  dup2\n    /* \"#utility.yul\":7926:7956   */\n  tag_48\n  jump\t// in\ntag_159:\n    /* \"#utility.yul\":7915:7956   */\n  swap2\n  pop\n    /* \"#utility.yul\":8105:8106   */\n  dup3\n    /* \"#utility.yul\":8096:8103   */\n  dup3\n    /* \"#utility.yul\":8092:8107   */\n  div\n    /* \"#utility.yul\":8089:8090   */\n  dup5\n    /* \"#utility.yul\":8086:8108   */\n  eq\n    /* \"#utility.yul\":8066:8067   */\n  dup4\n    /* \"#utility.yul\":8059:8068   */\n  iszero\n    /* \"#utility.yul\":8039:8122   */\n  or\n    /* \"#utility.yul\":8016:8155   */\n  tag_160\n  jumpi\n    /* \"#utility.yul\":8135:8153   */\n  tag_161\n  tag_60\n  jump\t// in\ntag_161:\n    /* \"#utility.yul\":8016:8155   */\ntag_160:\n    /* \"#utility.yul\":7800:8162   */\n  pop\n    /* \"#utility.yul\":7752:8162   */\n  swap3\n  swap2\n  pop\n  pop\n  jump\t// out\n    /* \"#utility.yul\":8168:8359   */\ntag_21:\n    /* \"#utility.yul\":8208:8211   */\n  0x00\n    /* \"#utility.yul\":8227:8247   */\n  tag_163\n    /* \"#utility.yul\":8245:8246   */\n  dup3\n    /* \"#utility.yul\":8227:8247   */\n  tag_48\n  jump\t// in\ntag_163:\n    /* \"#utility.yul\":8222:8247   */\n  swap2\n  pop\n    /* \"#utility.yul\":8261:8281   */\n  tag_164\n    /* \"#utility.yul\":8279:8280   */\n  dup4\n    /* \"#utility.yul\":8261:8281   */\n  tag_48\n  jump\t// in\ntag_164:\n    /* \"#utility.yul\":8256:8281   */\n  swap3\n  pop\n    /* \"#utility.yul\":8304:8305   */\n  dup3\n    /* \"#utility.yul\":8301:8302   */\n  dup3\n    /* \"#utility.yul\":8297:8306   */\n  add\n    /* \"#utility.yul\":8290:8306   */\n  swap1\n  pop\n    /* \"#utility.yul\":8325:8328   */\n  dup1\n    /* \"#utility.yul\":8322:8323   */\n  dup3\n    /* \"#utility.yul\":8319:8329   */\n  gt\n    /* \"#utility.yul\":8316:8352   */\n  iszero\n  tag_165\n  jumpi\n    /* \"#utility.yul\":8332:8350   */\n  tag_166\n  tag_60\n  jump\t// in\ntag_166:\n    /* \"#utility.yul\":8316:8352   */\ntag_165:\n    /* \"#utility.yul\":8168:8359   */\n  swap3\n  swap2\n  pop\n  pop\n  jump\t// out\n    /* \"contracts/Pokenmon.sol\":86:5412  contract Pokenmon is ERC20 {... */\ntag_18:\n  dataSize(sub_0)\n  dup1\n  dataOffset(sub_0)\n  0x00\n  codecopy\n  0x00\n  return\nstop\ndata_1481d2c14dc46dd85db37ca0bc31e7f3a830916f81a213d5e7f31062c6c9ae22 68747470733a2f2f692e6e616d752e77696b692f692f79565f775362656b59504966782d5450743735723043666c434e45697736337145696d51753277677038716c5a6a354a3033533876423168647871473974383648565372556f4431554675756241454b456a6d314533744e77376c5a664c3776643978666b6d74482d565868756251354177614f6c7a43764c5671724d4d3963673172596f525a4871523769365661756e51627243772e77656270\ndata_9cbb0aa9d91f7bb2d28013770bc471535d5daff9b7c6af76b014eccf0c54d213 68747470733a2f2f6d626c6f677468756d622d7068696e662e707374617469632e6e65742f4d6a41784f4441334d6a5a664d5449302f4d4441784e544d794e5459354e4441784e444d792e3554736253636749685143745f37493844563743464569784a7578776f4c54396d694d352d436e37764445672e5135356a6c6c5f76423136636f4d3853676a686b2d366c724e7a4663417558574769314556386243585477672e504e472e636170747572653233632f313533323536393337383733372e706e673f747970653d77383030\ndata_c1196ea258e314a0e8f031ccd6fb5bf1736c86f99161f64eb6964d60e93a8b8e 68747470733a2f2f692e6e616d752e77696b692f692f717857336e4f7833634475365547536147544b6d37436b4a6762704935434d4a4849716c6c33594d4148374468434e4a49326536304435764d4f726570526163733453735a48455f6678334a304a664b79344e4e4e512e676966\n\nsub_0: assembly {\n        /* \"contracts/Pokenmon.sol\":86:5412  contract Pokenmon is ERC20 {... */\n      mstore(0x40, 0x80)\n      jumpi(tag_1, lt(calldatasize, 0x04))\n      shr(0xe0, calldataload(0x00))\n      dup1\n      0x42966c68\n      gt\n      tag_19\n      jumpi\n      dup1\n      0xa9059cbb\n      gt\n      tag_20\n      jumpi\n      dup1\n      0xa9059cbb\n      eq\n      tag_15\n      jumpi\n      dup1\n      0xdd62ed3e\n      eq\n      tag_16\n      jumpi\n      dup1\n      0xefa9fbc5\n      eq\n      tag_17\n      jumpi\n      dup1\n      0xf5bf26fc\n      eq\n      tag_18\n      jumpi\n      jump(tag_2)\n    tag_20:\n      dup1\n      0x42966c68\n      eq\n      tag_11\n      jumpi\n      dup1\n      0x70a08231\n      eq\n      tag_12\n      jumpi\n      dup1\n      0x78196cbc\n      eq\n      tag_13\n      jumpi\n      dup1\n      0x95d89b41\n      eq\n      tag_14\n      jumpi\n      jump(tag_2)\n    tag_19:\n      dup1\n      0x27e235e3\n      gt\n      tag_21\n      jumpi\n      dup1\n      0x27e235e3\n      eq\n      tag_7\n      jumpi\n      dup1\n      0x2e7099a7\n      eq\n      tag_8\n      jumpi\n      dup1\n      0x313ce567\n      eq\n      tag_9\n      jumpi\n      dup1\n      0x365b98b2\n      eq\n      tag_10\n      jumpi\n      jump(tag_2)\n    tag_21:\n      dup1\n      0x06fdde03\n      eq\n      tag_3\n      jumpi\n      dup1\n      0x095ea7b3\n      eq\n      tag_4\n      jumpi\n      dup1\n      0x18160ddd\n      eq\n      tag_5\n      jumpi\n      dup1\n      0x23b872dd\n      eq\n      tag_6\n      jumpi\n      jump(tag_2)\n    tag_1:\n      jumpi(tag_2, calldatasize)\n        /* \"contracts/ERC20.sol\":1761:1772  uint amount */\n      0x00\n        /* \"contracts/ERC20.sol\":1787:1790  200 */\n      0xc8\n        /* \"contracts/ERC20.sol\":1775:1784  msg.value */\n      callvalue\n        /* \"contracts/ERC20.sol\":1775:1790  msg.value * 200 */\n      tag_24\n      swap2\n      swap1\n      tag_25\n      jump\t// in\n    tag_24:\n        /* \"contracts/ERC20.sol\":1761:1790  uint amount = msg.value * 200 */\n      swap1\n      pop\n        /* \"contracts/ERC20.sol\":1948:1954  amount */\n      dup1\n        /* \"contracts/ERC20.sol\":1929:1937  balances */\n      0x05\n        /* \"contracts/ERC20.sol\":1929:1944  balances[owner] */\n      0x00\n        /* \"contracts/ERC20.sol\":1938:1943  owner */\n      0x04\n      0x00\n      swap1\n      sload\n      swap1\n      0x0100\n      exp\n      swap1\n      div\n      0xffffffffffffffffffffffffffffffffffffffff\n      and\n        /* \"contracts/ERC20.sol\":1929:1944  balances[owner] */\n      0xffffffffffffffffffffffffffffffffffffffff\n      and\n      0xffffffffffffffffffffffffffffffffffffffff\n      and\n      dup2\n      mstore\n      0x20\n      add\n      swap1\n      dup2\n      mstore\n      0x20\n      add\n      0x00\n      keccak256\n      sload\n        /* \"contracts/ERC20.sol\":1929:1954  balances[owner] >= amount */\n      lt\n      iszero\n        /* \"contracts/ERC20.sol\":1921:1956  require(balances[owner] >= amount ) */\n      tag_26\n      jumpi\n      0x00\n      dup1\n      revert\n    tag_26:\n        /* \"contracts/ERC20.sol\":2068:2074  amount */\n      dup1\n        /* \"contracts/ERC20.sol\":2049:2057  balances */\n      0x05\n        /* \"contracts/ERC20.sol\":2049:2064  balances[owner] */\n      0x00\n        /* \"contracts/ERC20.sol\":2058:2063  owner */\n      0x04\n      0x00\n      swap1\n      sload\n      swap1\n      0x0100\n      exp\n      swap1\n      div\n      0xffffffffffffffffffffffffffffffffffffffff\n      and\n        /* \"contracts/ERC20.sol\":2049:2064  balances[owner] */\n      0xffffffffffffffffffffffffffffffffffffffff\n      and\n      0xffffffffffffffffffffffffffffffffffffffff\n      and\n      dup2\n      mstore\n      0x20\n      add\n      swap1\n      dup2\n      mstore\n      0x20\n      add\n      0x00\n      keccak256\n      0x00\n        /* \"contracts/ERC20.sol\":2049:2074  balances[owner] -= amount */\n      dup3\n      dup3\n      sload\n      tag_27\n      swap2\n      swap1\n      tag_28\n      jump\t// in\n    tag_27:\n      swap3\n      pop\n      pop\n      dup2\n      swap1\n      sstore\n      pop\n        /* \"contracts/ERC20.sol\":2109:2115  amount */\n      dup1\n        /* \"contracts/ERC20.sol\":2085:2093  balances */\n      0x05\n        /* \"contracts/ERC20.sol\":2085:2105  balances[msg.sender] */\n      0x00\n        /* \"contracts/ERC20.sol\":2094:2104  msg.sender */\n      caller\n        /* \"contracts/ERC20.sol\":2085:2105  balances[msg.sender] */\n      0xffffffffffffffffffffffffffffffffffffffff\n      and\n      0xffffffffffffffffffffffffffffffffffffffff\n      and\n      dup2\n      mstore\n      0x20\n      add\n      swap1\n      dup2\n      mstore\n      0x20\n      add\n      0x00\n      keccak256\n      0x00\n        /* \"contracts/ERC20.sol\":2085:2115  balances[msg.sender] += amount */\n      dup3\n      dup3\n      sload\n      tag_29\n      swap2\n      swap1\n      tag_30\n      jump\t// in\n    tag_29:\n      swap3\n      pop\n      pop\n      dup2\n      swap1\n      sstore\n      pop\n        /* \"contracts/ERC20.sol\":2373:2378  owner */\n      0x04\n      0x00\n      swap1\n      sload\n      swap1\n      0x0100\n      exp\n      swap1\n      div\n      0xffffffffffffffffffffffffffffffffffffffff\n      and\n        /* \"contracts/ERC20.sol\":2359:2378  msg.sender == owner */\n      0xffffffffffffffffffffffffffffffffffffffff\n      and\n        /* \"contracts/ERC20.sol\":2359:2369  msg.sender */\n      caller\n        /* \"contracts/ERC20.sol\":2359:2378  msg.sender == owner */\n      0xffffffffffffffffffffffffffffffffffffffff\n      and\n      sub\n        /* \"contracts/ERC20.sol\":2356:2543  if(msg.sender == owner ) {... */\n      tag_31\n      jumpi\n        /* \"contracts/ERC20.sol\":2396:2408  mint(amount) */\n      tag_32\n        /* \"contracts/ERC20.sol\":2401:2407  amount */\n      dup2\n        /* \"contracts/ERC20.sol\":2396:2400  mint */\n      tag_33\n        /* \"contracts/ERC20.sol\":2396:2408  mint(amount) */\n      jump\t// in\n    tag_32:\n        /* \"contracts/ERC20.sol\":2356:2543  if(msg.sender == owner ) {... */\n    tag_31:\n        /* \"contracts/ERC20.sol\":1179:2556  {... */\n      stop\n        /* \"contracts/Pokenmon.sol\":86:5412  contract Pokenmon is ERC20 {... */\n    tag_2:\n      0x00\n      dup1\n      revert\n        /* \"contracts/ERC20.sol\":200:218  string public name */\n    tag_3:\n      callvalue\n      dup1\n      iszero\n      tag_34\n      jumpi\n      0x00\n      dup1\n      revert\n    tag_34:\n      pop\n      tag_35\n      tag_36\n      jump\t// in\n    tag_35:\n      mload(0x40)\n      tag_37\n      swap2\n      swap1\n      tag_38\n      jump\t// in\n    tag_37:\n      mload(0x40)\n      dup1\n      swap2\n      sub\n      swap1\n      return\n        /* \"contracts/ERC20.sol\":4028:4231  function approve(address spender, uint amount) external override returns(bool) {... */\n    tag_4:\n      callvalue\n      dup1\n      iszero\n      tag_39\n      jumpi\n      0x00\n      dup1\n      revert\n    tag_39:\n      pop\n      tag_40\n      0x04\n      dup1\n      calldatasize\n      sub\n      dup2\n      add\n      swap1\n      tag_41\n      swap2\n      swap1\n      tag_42\n      jump\t// in\n    tag_41:\n      tag_43\n      jump\t// in\n    tag_40:\n      mload(0x40)\n      tag_44\n      swap2\n      swap1\n      tag_45\n      jump\t// in\n    tag_44:\n      mload(0x40)\n      dup1\n      swap2\n      sub\n      swap1\n      return\n        /* \"contracts/ERC20.sol\":513:545  uint public override totalSupply */\n    tag_5:\n      callvalue\n      dup1\n      iszero\n      tag_46\n      jumpi\n      0x00\n      dup1\n      revert\n    tag_46:\n      pop\n      tag_47\n      tag_48\n      jump\t// in\n    tag_47:\n      mload(0x40)\n      tag_49\n      swap2\n      swap1\n      tag_50\n      jump\t// in\n    tag_49:\n      mload(0x40)\n      dup1\n      swap2\n      sub\n      swap1\n      return\n        /* \"contracts/ERC20.sol\":4265:5172  function transferFrom(address spender, address to, uint amount) external override returns(bool) {... */\n    tag_6:\n      callvalue\n      dup1\n      iszero\n      tag_51\n      jumpi\n      0x00\n      dup1\n      revert\n    tag_51:\n      pop\n      tag_52\n      0x04\n      dup1\n      calldatasize\n      sub\n      dup2\n      add\n      swap1\n      tag_53\n      swap2\n      swap1\n      tag_54\n      jump\t// in\n    tag_53:\n      tag_55\n      jump\t// in\n    tag_52:\n      mload(0x40)\n      tag_56\n      swap2\n      swap1\n      tag_45\n      jump\t// in\n    tag_56:\n      mload(0x40)\n      dup1\n      swap2\n      sub\n      swap1\n      return\n        /* \"contracts/ERC20.sol\":634:676  mapping( address => uint ) public balances */\n    tag_7:\n      callvalue\n      dup1\n      iszero\n      tag_57\n      jumpi\n      0x00\n      dup1\n      revert\n    tag_57:\n      pop\n      tag_58\n      0x04\n      dup1\n      calldatasize\n      sub\n      dup2\n      add\n      swap1\n      tag_59\n      swap2\n      swap1\n      tag_60\n      jump\t// in\n    tag_59:\n      tag_61\n      jump\t// in\n    tag_58:\n      mload(0x40)\n      tag_62\n      swap2\n      swap1\n      tag_50\n      jump\t// in\n    tag_62:\n      mload(0x40)\n      dup1\n      swap2\n      sub\n      swap1\n      return\n        /* \"contracts/Pokenmon.sol\":3149:3254  function getPokenmonUsers() public view returns (Users[] memory ) {... */\n    tag_8:\n      callvalue\n      dup1\n      iszero\n      tag_63\n      jumpi\n      0x00\n      dup1\n      revert\n    tag_63:\n      pop\n      tag_64\n      tag_65\n      jump\t// in\n    tag_64:\n      mload(0x40)\n      tag_66\n      swap2\n      swap1\n      tag_67\n      jump\t// in\n    tag_66:\n      mload(0x40)\n      dup1\n      swap2\n      sub\n      swap1\n      return\n        /* \"contracts/ERC20.sol\":372:397  uint public decimals = 18 */\n    tag_9:\n      callvalue\n      dup1\n      iszero\n      tag_68\n      jumpi\n      0x00\n      dup1\n      revert\n    tag_68:\n      pop\n      tag_69\n      tag_70\n      jump\t// in\n    tag_69:\n      mload(0x40)\n      tag_71\n      swap2\n      swap1\n      tag_50\n      jump\t// in\n    tag_71:\n      mload(0x40)\n      dup1\n      swap2\n      sub\n      swap1\n      return\n        /* \"contracts/Pokenmon.sol\":2710:2730  Users[] public users */\n    tag_10:\n      callvalue\n      dup1\n      iszero\n      tag_72\n      jumpi\n      0x00\n      dup1\n      revert\n    tag_72:\n      pop\n      tag_73\n      0x04\n      dup1\n      calldatasize\n      sub\n      dup2\n      add\n      swap1\n      tag_74\n      swap2\n      swap1\n      tag_75\n      jump\t// in\n    tag_74:\n      tag_76\n      jump\t// in\n    tag_73:\n      mload(0x40)\n      tag_77\n      swap2\n      swap1\n      tag_78\n      jump\t// in\n    tag_77:\n      mload(0x40)\n      dup1\n      swap2\n      sub\n      swap1\n      return\n        /* \"contracts/ERC20.sol\":5213:5330  function burn(uint amount) external {... */\n    tag_11:\n      callvalue\n      dup1\n      iszero\n      tag_79\n      jumpi\n      0x00\n      dup1\n      revert\n    tag_79:\n      pop\n      tag_80\n      0x04\n      dup1\n      calldatasize\n      sub\n      dup2\n      add\n      swap1\n      tag_81\n      swap2\n      swap1\n      tag_75\n      jump\t// in\n    tag_81:\n      tag_82\n      jump\t// in\n    tag_80:\n      stop\n        /* \"contracts/ERC20.sol\":3358:3526  function balanceOf(address account) external view override returns(uint){... */\n    tag_12:\n      callvalue\n      dup1\n      iszero\n      tag_83\n      jumpi\n      0x00\n      dup1\n      revert\n    tag_83:\n      pop\n      tag_84\n      0x04\n      dup1\n      calldatasize\n      sub\n      dup2\n      add\n      swap1\n      tag_85\n      swap2\n      swap1\n      tag_60\n      jump\t// in\n    tag_85:\n      tag_86\n      jump\t// in\n    tag_84:\n      mload(0x40)\n      tag_87\n      swap2\n      swap1\n      tag_50\n      jump\t// in\n    tag_87:\n      mload(0x40)\n      dup1\n      swap2\n      sub\n      swap1\n      return\n        /* \"contracts/Pokenmon.sol\":2852:2969  function getPokenmon() public view returns( Pokens[] memory ) {... */\n    tag_13:\n      callvalue\n      dup1\n      iszero\n      tag_88\n      jumpi\n      0x00\n      dup1\n      revert\n    tag_88:\n      pop\n      tag_89\n      tag_90\n      jump\t// in\n    tag_89:\n      mload(0x40)\n      tag_91\n      swap2\n      swap1\n      tag_92\n      jump\t// in\n    tag_91:\n      mload(0x40)\n      dup1\n      swap2\n      sub\n      swap1\n      return\n        /* \"contracts/ERC20.sol\":278:298  string public symbol */\n    tag_14:\n      callvalue\n      dup1\n      iszero\n      tag_93\n      jumpi\n      0x00\n      dup1\n      revert\n    tag_93:\n      pop\n      tag_94\n      tag_95\n      jump\t// in\n    tag_94:\n      mload(0x40)\n      tag_96\n      swap2\n      swap1\n      tag_38\n      jump\t// in\n    tag_96:\n      mload(0x40)\n      dup1\n      swap2\n      sub\n      swap1\n      return\n        /* \"contracts/ERC20.sol\":3683:3965  function transfer(address to, uint amount) external override returns(bool) {... */\n    tag_15:\n      callvalue\n      dup1\n      iszero\n      tag_97\n      jumpi\n      0x00\n      dup1\n      revert\n    tag_97:\n      pop\n      tag_98\n      0x04\n      dup1\n      calldatasize\n      sub\n      dup2\n      add\n      swap1\n      tag_99\n      swap2\n      swap1\n      tag_42\n      jump\t// in\n    tag_99:\n      tag_100\n      jump\t// in\n    tag_98:\n      mload(0x40)\n      tag_101\n      swap2\n      swap1\n      tag_45\n      jump\t// in\n    tag_101:\n      mload(0x40)\n      dup1\n      swap2\n      sub\n      swap1\n      return\n        /* \"contracts/ERC20.sol\":780:851  mapping( address => mapping(address => uint)) public override allowance */\n    tag_16:\n      callvalue\n      dup1\n      iszero\n      tag_102\n      jumpi\n      0x00\n      dup1\n      revert\n    tag_102:\n      pop\n      tag_103\n      0x04\n      dup1\n      calldatasize\n      sub\n      dup2\n      add\n      swap1\n      tag_104\n      swap2\n      swap1\n      tag_105\n      jump\t// in\n    tag_104:\n      tag_106\n      jump\t// in\n    tag_103:\n      mload(0x40)\n      tag_107\n      swap2\n      swap1\n      tag_50\n      jump\t// in\n    tag_107:\n      mload(0x40)\n      dup1\n      swap2\n      sub\n      swap1\n      return\n        /* \"contracts/Pokenmon.sol\":2323:2370  mapping ( address => Pokens[]) public pokenmons */\n    tag_17:\n      callvalue\n      dup1\n      iszero\n      tag_108\n      jumpi\n      0x00\n      dup1\n      revert\n    tag_108:\n      pop\n      tag_109\n      0x04\n      dup1\n      calldatasize\n      sub\n      dup2\n      add\n      swap1\n      tag_110\n      swap2\n      swap1\n      tag_42\n      jump\t// in\n    tag_110:\n      tag_111\n      jump\t// in\n    tag_109:\n      mload(0x40)\n      tag_112\n      swap3\n      swap2\n      swap1\n      tag_113\n      jump\t// in\n    tag_112:\n      mload(0x40)\n      dup1\n      swap2\n      sub\n      swap1\n      return\n        /* \"contracts/Pokenmon.sol\":3266:5330  function buyPokenmon() public {... */\n    tag_18:\n      callvalue\n      dup1\n      iszero\n      tag_114\n      jumpi\n      0x00\n      dup1\n      revert\n    tag_114:\n      pop\n      tag_115\n      tag_116\n      jump\t// in\n    tag_115:\n      stop\n        /* \"contracts/ERC20.sol\":3124:3306  function mint(uint amount) internal {... */\n    tag_33:\n        /* \"contracts/ERC20.sol\":3197:3203  amount */\n      dup1\n        /* \"contracts/ERC20.sol\":3173:3181  balances */\n      0x05\n        /* \"contracts/ERC20.sol\":3173:3193  balances[msg.sender] */\n      0x00\n        /* \"contracts/ERC20.sol\":3182:3192  msg.sender */\n      caller\n        /* \"contracts/ERC20.sol\":3173:3193  balances[msg.sender] */\n      0xffffffffffffffffffffffffffffffffffffffff\n      and\n      0xffffffffffffffffffffffffffffffffffffffff\n      and\n      dup2\n      mstore\n      0x20\n      add\n      swap1\n      dup2\n      mstore\n      0x20\n      add\n      0x00\n      keccak256\n      0x00\n        /* \"contracts/ERC20.sol\":3173:3203  balances[msg.sender] += amount */\n      dup3\n      dup3\n      sload\n      tag_118\n      swap2\n      swap1\n      tag_30\n      jump\t// in\n    tag_118:\n      swap3\n      pop\n      pop\n      dup2\n      swap1\n      sstore\n      pop\n        /* \"contracts/ERC20.sol\":3250:3256  amount */\n      dup1\n        /* \"contracts/ERC20.sol\":3235:3246  totalSupply */\n      0x03\n      0x00\n        /* \"contracts/ERC20.sol\":3235:3256  totalSupply += amount */\n      dup3\n      dup3\n      sload\n      tag_119\n      swap2\n      swap1\n      tag_30\n      jump\t// in\n    tag_119:\n      swap3\n      pop\n      pop\n      dup2\n      swap1\n      sstore\n      pop\n        /* \"contracts/ERC20.sol\":3124:3306  function mint(uint amount) internal {... */\n      pop\n      jump\t// out\n        /* \"contracts/ERC20.sol\":200:218  string public name */\n    tag_36:\n      0x00\n      dup1\n      sload\n      tag_120\n      swap1\n      tag_121\n      jump\t// in\n    tag_120:\n      dup1\n      0x1f\n      add\n      0x20\n      dup1\n      swap2\n      div\n      mul\n      0x20\n      add\n      mload(0x40)\n      swap1\n      dup2\n      add\n      0x40\n      mstore\n      dup1\n      swap3\n      swap2\n      swap1\n      dup2\n      dup2\n      mstore\n      0x20\n      add\n      dup3\n      dup1\n      sload\n      tag_122\n      swap1\n      tag_121\n      jump\t// in\n    tag_122:\n      dup1\n      iszero\n      tag_123\n      jumpi\n      dup1\n      0x1f\n      lt\n      tag_124\n      jumpi\n      0x0100\n      dup1\n      dup4\n      sload\n      div\n      mul\n      dup4\n      mstore\n      swap2\n      0x20\n      add\n      swap2\n      jump(tag_123)\n    tag_124:\n      dup3\n      add\n      swap2\n      swap1\n      0x00\n      mstore\n      keccak256(0x00, 0x20)\n      swap1\n    tag_125:\n      dup2\n      sload\n      dup2\n      mstore\n      swap1\n      0x01\n      add\n      swap1\n      0x20\n      add\n      dup1\n      dup4\n      gt\n      tag_125\n      jumpi\n      dup3\n      swap1\n      sub\n      0x1f\n      and\n      dup3\n      add\n      swap2\n    tag_123:\n      pop\n      pop\n      pop\n      pop\n      pop\n      dup2\n      jump\t// out\n        /* \"contracts/ERC20.sol\":4028:4231  function approve(address spender, uint amount) external override returns(bool) {... */\n    tag_43:\n        /* \"contracts/ERC20.sol\":4101:4105  bool */\n      0x00\n        /* \"contracts/ERC20.sol\":4153:4159  amount */\n      dup2\n        /* \"contracts/ERC20.sol\":4120:4129  allowance */\n      0x06\n        /* \"contracts/ERC20.sol\":4120:4141  allowance[msg.sender] */\n      0x00\n        /* \"contracts/ERC20.sol\":4130:4140  msg.sender */\n      caller\n        /* \"contracts/ERC20.sol\":4120:4141  allowance[msg.sender] */\n      0xffffffffffffffffffffffffffffffffffffffff\n      and\n      0xffffffffffffffffffffffffffffffffffffffff\n      and\n      dup2\n      mstore\n      0x20\n      add\n      swap1\n      dup2\n      mstore\n      0x20\n      add\n      0x00\n      keccak256\n        /* \"contracts/ERC20.sol\":4120:4150  allowance[msg.sender][spender] */\n      0x00\n        /* \"contracts/ERC20.sol\":4142:4149  spender */\n      dup6\n        /* \"contracts/ERC20.sol\":4120:4150  allowance[msg.sender][spender] */\n      0xffffffffffffffffffffffffffffffffffffffff\n      and\n      0xffffffffffffffffffffffffffffffffffffffff\n      and\n      dup2\n      mstore\n      0x20\n      add\n      swap1\n      dup2\n      mstore\n      0x20\n      add\n      0x00\n      keccak256\n        /* \"contracts/ERC20.sol\":4120:4159  allowance[msg.sender][spender] = amount */\n      dup2\n      swap1\n      sstore\n      pop\n        /* \"contracts/ERC20.sol\":4219:4223  true */\n      0x01\n        /* \"contracts/ERC20.sol\":4212:4223  return true */\n      swap1\n      pop\n        /* \"contracts/ERC20.sol\":4028:4231  function approve(address spender, uint amount) external override returns(bool) {... */\n      swap3\n      swap2\n      pop\n      pop\n      jump\t// out\n        /* \"contracts/ERC20.sol\":513:545  uint public override totalSupply */\n    tag_48:\n      sload(0x03)\n      dup2\n      jump\t// out\n        /* \"contracts/ERC20.sol\":4265:5172  function transferFrom(address spender, address to, uint amount) external override returns(bool) {... */\n    tag_55:\n        /* \"contracts/ERC20.sol\":4355:4359  bool */\n      0x00\n        /* \"contracts/ERC20.sol\":4414:4420  amount */\n      dup2\n        /* \"contracts/ERC20.sol\":4380:4389  allowance */\n      0x06\n        /* \"contracts/ERC20.sol\":4380:4398  allowance[spender] */\n      0x00\n        /* \"contracts/ERC20.sol\":4390:4397  spender */\n      dup7\n        /* \"contracts/ERC20.sol\":4380:4398  allowance[spender] */\n      0xffffffffffffffffffffffffffffffffffffffff\n      and\n      0xffffffffffffffffffffffffffffffffffffffff\n      and\n      dup2\n      mstore\n      0x20\n      add\n      swap1\n      dup2\n      mstore\n      0x20\n      add\n      0x00\n      keccak256\n        /* \"contracts/ERC20.sol\":4380:4410  allowance[spender][msg.sender] */\n      0x00\n        /* \"contracts/ERC20.sol\":4399:4409  msg.sender */\n      caller\n        /* \"contracts/ERC20.sol\":4380:4410  allowance[spender][msg.sender] */\n      0xffffffffffffffffffffffffffffffffffffffff\n      and\n      0xffffffffffffffffffffffffffffffffffffffff\n      and\n      dup2\n      mstore\n      0x20\n      add\n      swap1\n      dup2\n      mstore\n      0x20\n      add\n      0x00\n      keccak256\n      sload\n        /* \"contracts/ERC20.sol\":4380:4420  allowance[spender][msg.sender] >= amount */\n      lt\n      iszero\n        /* \"contracts/ERC20.sol\":4372:4422  require(allowance[spender][msg.sender] >= amount ) */\n      tag_128\n      jumpi\n      0x00\n      dup1\n      revert\n    tag_128:\n        /* \"contracts/ERC20.sol\":5061:5067  amount */\n      dup2\n        /* \"contracts/ERC20.sol\":5027:5036  allowance */\n      0x06\n        /* \"contracts/ERC20.sol\":5027:5045  allowance[spender] */\n      0x00\n        /* \"contracts/ERC20.sol\":5037:5044  spender */\n      dup7\n        /* \"contracts/ERC20.sol\":5027:5045  allowance[spender] */\n      0xffffffffffffffffffffffffffffffffffffffff\n      and\n      0xffffffffffffffffffffffffffffffffffffffff\n      and\n      dup2\n      mstore\n      0x20\n      add\n      swap1\n      dup2\n      mstore\n      0x20\n      add\n      0x00\n      keccak256\n        /* \"contracts/ERC20.sol\":5027:5057  allowance[spender][msg.sender] */\n      0x00\n        /* \"contracts/ERC20.sol\":5046:5056  msg.sender */\n      caller\n        /* \"contracts/ERC20.sol\":5027:5057  allowance[spender][msg.sender] */\n      0xffffffffffffffffffffffffffffffffffffffff\n      and\n      0xffffffffffffffffffffffffffffffffffffffff\n      and\n      dup2\n      mstore\n      0x20\n      add\n      swap1\n      dup2\n      mstore\n      0x20\n      add\n      0x00\n      keccak256\n      0x00\n        /* \"contracts/ERC20.sol\":5027:5067  allowance[spender][msg.sender] -= amount */\n      dup3\n      dup3\n      sload\n      tag_129\n      swap2\n      swap1\n      tag_28\n      jump\t// in\n    tag_129:\n      swap3\n      pop\n      pop\n      dup2\n      swap1\n      sstore\n      pop\n        /* \"contracts/ERC20.sol\":5101:5107  amount */\n      dup2\n        /* \"contracts/ERC20.sol\":5080:5088  balances */\n      0x05\n        /* \"contracts/ERC20.sol\":5080:5097  balances[spender] */\n      0x00\n        /* \"contracts/ERC20.sol\":5089:5096  spender */\n      dup7\n        /* \"contracts/ERC20.sol\":5080:5097  balances[spender] */\n      0xffffffffffffffffffffffffffffffffffffffff\n      and\n      0xffffffffffffffffffffffffffffffffffffffff\n      and\n      dup2\n      mstore\n      0x20\n      add\n      swap1\n      dup2\n      mstore\n      0x20\n      add\n      0x00\n      keccak256\n      0x00\n        /* \"contracts/ERC20.sol\":5080:5107  balances[spender] -= amount */\n      dup3\n      dup3\n      sload\n      tag_130\n      swap2\n      swap1\n      tag_28\n      jump\t// in\n    tag_130:\n      swap3\n      pop\n      pop\n      dup2\n      swap1\n      sstore\n      pop\n        /* \"contracts/ERC20.sol\":5134:5140  amount */\n      dup2\n        /* \"contracts/ERC20.sol\":5118:5126  balances */\n      0x05\n        /* \"contracts/ERC20.sol\":5118:5130  balances[to] */\n      0x00\n        /* \"contracts/ERC20.sol\":5127:5129  to */\n      dup6\n        /* \"contracts/ERC20.sol\":5118:5130  balances[to] */\n      0xffffffffffffffffffffffffffffffffffffffff\n      and\n      0xffffffffffffffffffffffffffffffffffffffff\n      and\n      dup2\n      mstore\n      0x20\n      add\n      swap1\n      dup2\n      mstore\n      0x20\n      add\n      0x00\n      keccak256\n      0x00\n        /* \"contracts/ERC20.sol\":5118:5140  balances[to] += amount */\n      dup3\n      dup3\n      sload\n      tag_131\n      swap2\n      swap1\n      tag_30\n      jump\t// in\n    tag_131:\n      swap3\n      pop\n      pop\n      dup2\n      swap1\n      sstore\n      pop\n        /* \"contracts/ERC20.sol\":5160:5164  true */\n      0x01\n        /* \"contracts/ERC20.sol\":5153:5164  return true */\n      swap1\n      pop\n        /* \"contracts/ERC20.sol\":4265:5172  function transferFrom(address spender, address to, uint amount) external override returns(bool) {... */\n      swap4\n      swap3\n      pop\n      pop\n      pop\n      jump\t// out\n        /* \"contracts/ERC20.sol\":634:676  mapping( address => uint ) public balances */\n    tag_61:\n      mstore(0x20, 0x05)\n      dup1\n      0x00\n      mstore\n      keccak256(0x00, 0x40)\n      0x00\n      swap2\n      pop\n      swap1\n      pop\n      sload\n      dup2\n      jump\t// out\n        /* \"contracts/Pokenmon.sol\":3149:3254  function getPokenmonUsers() public view returns (Users[] memory ) {... */\n    tag_65:\n        /* \"contracts/Pokenmon.sol\":3198:3212  Users[] memory */\n      0x60\n        /* \"contracts/Pokenmon.sol\":3237:3242  users */\n      0x0b\n        /* \"contracts/Pokenmon.sol\":3230:3242  return users */\n      dup1\n      sload\n      dup1\n      0x20\n      mul\n      0x20\n      add\n      mload(0x40)\n      swap1\n      dup2\n      add\n      0x40\n      mstore\n      dup1\n      swap3\n      swap2\n      swap1\n      dup2\n      dup2\n      mstore\n      0x20\n      add\n      0x00\n      swap1\n    tag_133:\n      dup3\n      dup3\n      lt\n      iszero\n      tag_134\n      jumpi\n      dup4\n      dup3\n      swap1\n      0x00\n      mstore\n      keccak256(0x00, 0x20)\n      add\n      mload(0x40)\n      dup1\n      0x20\n      add\n      0x40\n      mstore\n      swap1\n      dup2\n      0x00\n      dup3\n      add\n      0x00\n      swap1\n      sload\n      swap1\n      0x0100\n      exp\n      swap1\n      div\n      0xffffffffffffffffffffffffffffffffffffffff\n      and\n      0xffffffffffffffffffffffffffffffffffffffff\n      and\n      0xffffffffffffffffffffffffffffffffffffffff\n      and\n      dup2\n      mstore\n      pop\n      pop\n      dup2\n      mstore\n      0x20\n      add\n      swap1\n      0x01\n      add\n      swap1\n      jump(tag_133)\n    tag_134:\n      pop\n      pop\n      pop\n      pop\n      swap1\n      pop\n        /* \"contracts/Pokenmon.sol\":3149:3254  function getPokenmonUsers() public view returns (Users[] memory ) {... */\n      swap1\n      jump\t// out\n        /* \"contracts/ERC20.sol\":372:397  uint public decimals = 18 */\n    tag_70:\n      sload(0x02)\n      dup2\n      jump\t// out\n        /* \"contracts/Pokenmon.sol\":2710:2730  Users[] public users */\n    tag_76:\n      0x0b\n      dup2\n      dup2\n      sload\n      dup2\n      lt\n      tag_136\n      jumpi\n      0x00\n      dup1\n      revert\n    tag_136:\n      swap1\n      0x00\n      mstore\n      keccak256(0x00, 0x20)\n      add\n      0x00\n      swap2\n      pop\n      swap1\n      pop\n      dup1\n      0x00\n      add\n      0x00\n      swap1\n      sload\n      swap1\n      0x0100\n      exp\n      swap1\n      div\n      0xffffffffffffffffffffffffffffffffffffffff\n      and\n      swap1\n      pop\n      dup2\n      jump\t// out\n        /* \"contracts/ERC20.sol\":5213:5330  function burn(uint amount) external {... */\n    tag_82:\n        /* \"contracts/ERC20.sol\":5284:5290  amount */\n      dup1\n        /* \"contracts/ERC20.sol\":5260:5268  balances */\n      0x05\n        /* \"contracts/ERC20.sol\":5260:5280  balances[msg.sender] */\n      0x00\n        /* \"contracts/ERC20.sol\":5269:5279  msg.sender */\n      caller\n        /* \"contracts/ERC20.sol\":5260:5280  balances[msg.sender] */\n      0xffffffffffffffffffffffffffffffffffffffff\n      and\n      0xffffffffffffffffffffffffffffffffffffffff\n      and\n      dup2\n      mstore\n      0x20\n      add\n      swap1\n      dup2\n      mstore\n      0x20\n      add\n      0x00\n      keccak256\n      0x00\n        /* \"contracts/ERC20.sol\":5260:5290  balances[msg.sender] -= amount */\n      dup3\n      dup3\n      sload\n      tag_139\n      swap2\n      swap1\n      tag_28\n      jump\t// in\n    tag_139:\n      swap3\n      pop\n      pop\n      dup2\n      swap1\n      sstore\n      pop\n        /* \"contracts/ERC20.sol\":5316:5322  amount */\n      dup1\n        /* \"contracts/ERC20.sol\":5301:5312  totalSupply */\n      0x03\n      0x00\n        /* \"contracts/ERC20.sol\":5301:5322  totalSupply -= amount */\n      dup3\n      dup3\n      sload\n      tag_140\n      swap2\n      swap1\n      tag_28\n      jump\t// in\n    tag_140:\n      swap3\n      pop\n      pop\n      dup2\n      swap1\n      sstore\n      pop\n        /* \"contracts/ERC20.sol\":5213:5330  function burn(uint amount) external {... */\n      pop\n      jump\t// out\n        /* \"contracts/ERC20.sol\":3358:3526  function balanceOf(address account) external view override returns(uint){... */\n    tag_86:\n        /* \"contracts/ERC20.sol\":3425:3429  uint */\n      0x00\n        /* \"contracts/ERC20.sol\":3448:3456  balances */\n      0x05\n        /* \"contracts/ERC20.sol\":3448:3465  balances[account] */\n      0x00\n        /* \"contracts/ERC20.sol\":3457:3464  account */\n      dup4\n        /* \"contracts/ERC20.sol\":3448:3465  balances[account] */\n      0xffffffffffffffffffffffffffffffffffffffff\n      and\n      0xffffffffffffffffffffffffffffffffffffffff\n      and\n      dup2\n      mstore\n      0x20\n      add\n      swap1\n      dup2\n      mstore\n      0x20\n      add\n      0x00\n      keccak256\n      sload\n        /* \"contracts/ERC20.sol\":3441:3465  return balances[account] */\n      swap1\n      pop\n        /* \"contracts/ERC20.sol\":3358:3526  function balanceOf(address account) external view override returns(uint){... */\n      swap2\n      swap1\n      pop\n      jump\t// out\n        /* \"contracts/Pokenmon.sol\":2852:2969  function getPokenmon() public view returns( Pokens[] memory ) {... */\n    tag_90:\n        /* \"contracts/Pokenmon.sol\":2896:2911  Pokens[] memory */\n      0x60\n        /* \"contracts/Pokenmon.sol\":2936:2945  pokenmons */\n      0x0a\n        /* \"contracts/Pokenmon.sol\":2936:2957  pokenmons[msg.sender] */\n      0x00\n        /* \"contracts/Pokenmon.sol\":2946:2956  msg.sender */\n      caller\n        /* \"contracts/Pokenmon.sol\":2936:2957  pokenmons[msg.sender] */\n      0xffffffffffffffffffffffffffffffffffffffff\n      and\n      0xffffffffffffffffffffffffffffffffffffffff\n      and\n      dup2\n      mstore\n      0x20\n      add\n      swap1\n      dup2\n      mstore\n      0x20\n      add\n      0x00\n      keccak256\n        /* \"contracts/Pokenmon.sol\":2929:2957  return pokenmons[msg.sender] */\n      dup1\n      sload\n      dup1\n      0x20\n      mul\n      0x20\n      add\n      mload(0x40)\n      swap1\n      dup2\n      add\n      0x40\n      mstore\n      dup1\n      swap3\n      swap2\n      swap1\n      dup2\n      dup2\n      mstore\n      0x20\n      add\n      0x00\n      swap1\n    tag_143:\n      dup3\n      dup3\n      lt\n      iszero\n      tag_144\n      jumpi\n      dup4\n      dup3\n      swap1\n      0x00\n      mstore\n      keccak256(0x00, 0x20)\n      swap1\n      0x02\n      mul\n      add\n      mload(0x40)\n      dup1\n      0x40\n      add\n      0x40\n      mstore\n      swap1\n      dup2\n      0x00\n      dup3\n      add\n      dup1\n      sload\n      tag_146\n      swap1\n      tag_121\n      jump\t// in\n    tag_146:\n      dup1\n      0x1f\n      add\n      0x20\n      dup1\n      swap2\n      div\n      mul\n      0x20\n      add\n      mload(0x40)\n      swap1\n      dup2\n      add\n      0x40\n      mstore\n      dup1\n      swap3\n      swap2\n      swap1\n      dup2\n      dup2\n      mstore\n      0x20\n      add\n      dup3\n      dup1\n      sload\n      tag_147\n      swap1\n      tag_121\n      jump\t// in\n    tag_147:\n      dup1\n      iszero\n      tag_148\n      jumpi\n      dup1\n      0x1f\n      lt\n      tag_149\n      jumpi\n      0x0100\n      dup1\n      dup4\n      sload\n      div\n      mul\n      dup4\n      mstore\n      swap2\n      0x20\n      add\n      swap2\n      jump(tag_148)\n    tag_149:\n      dup3\n      add\n      swap2\n      swap1\n      0x00\n      mstore\n      keccak256(0x00, 0x20)\n      swap1\n    tag_150:\n      dup2\n      sload\n      dup2\n      mstore\n      swap1\n      0x01\n      add\n      swap1\n      0x20\n      add\n      dup1\n      dup4\n      gt\n      tag_150\n      jumpi\n      dup3\n      swap1\n      sub\n      0x1f\n      and\n      dup3\n      add\n      swap2\n    tag_148:\n      pop\n      pop\n      pop\n      pop\n      pop\n      dup2\n      mstore\n      0x20\n      add\n      0x01\n      dup3\n      add\n      dup1\n      sload\n      tag_151\n      swap1\n      tag_121\n      jump\t// in\n    tag_151:\n      dup1\n      0x1f\n      add\n      0x20\n      dup1\n      swap2\n      div\n      mul\n      0x20\n      add\n      mload(0x40)\n      swap1\n      dup2\n      add\n      0x40\n      mstore\n      dup1\n      swap3\n      swap2\n      swap1\n      dup2\n      dup2\n      mstore\n      0x20\n      add\n      dup3\n      dup1\n      sload\n      tag_152\n      swap1\n      tag_121\n      jump\t// in\n    tag_152:\n      dup1\n      iszero\n      tag_153\n      jumpi\n      dup1\n      0x1f\n      lt\n      tag_154\n      jumpi\n      0x0100\n      dup1\n      dup4\n      sload\n      div\n      mul\n      dup4\n      mstore\n      swap2\n      0x20\n      add\n      swap2\n      jump(tag_153)\n    tag_154:\n      dup3\n      add\n      swap2\n      swap1\n      0x00\n      mstore\n      keccak256(0x00, 0x20)\n      swap1\n    tag_155:\n      dup2\n      sload\n      dup2\n      mstore\n      swap1\n      0x01\n      add\n      swap1\n      0x20\n      add\n      dup1\n      dup4\n      gt\n      tag_155\n      jumpi\n      dup3\n      swap1\n      sub\n      0x1f\n      and\n      dup3\n      add\n      swap2\n    tag_153:\n      pop\n      pop\n      pop\n      pop\n      pop\n      dup2\n      mstore\n      pop\n      pop\n      dup2\n      mstore\n      0x20\n      add\n      swap1\n      0x01\n      add\n      swap1\n      jump(tag_143)\n    tag_144:\n      pop\n      pop\n      pop\n      pop\n      swap1\n      pop\n        /* \"contracts/Pokenmon.sol\":2852:2969  function getPokenmon() public view returns( Pokens[] memory ) {... */\n      swap1\n      jump\t// out\n        /* \"contracts/ERC20.sol\":278:298  string public symbol */\n    tag_95:\n      0x01\n      dup1\n      sload\n      tag_156\n      swap1\n      tag_121\n      jump\t// in\n    tag_156:\n      dup1\n      0x1f\n      add\n      0x20\n      dup1\n      swap2\n      div\n      mul\n      0x20\n      add\n      mload(0x40)\n      swap1\n      dup2\n      add\n      0x40\n      mstore\n      dup1\n      swap3\n      swap2\n      swap1\n      dup2\n      dup2\n      mstore\n      0x20\n      add\n      dup3\n      dup1\n      sload\n      tag_157\n      swap1\n      tag_121\n      jump\t// in\n    tag_157:\n      dup1\n      iszero\n      tag_158\n      jumpi\n      dup1\n      0x1f\n      lt\n      tag_159\n      jumpi\n      0x0100\n      dup1\n      dup4\n      sload\n      div\n      mul\n      dup4\n      mstore\n      swap2\n      0x20\n      add\n      swap2\n      jump(tag_158)\n    tag_159:\n      dup3\n      add\n      swap2\n      swap1\n      0x00\n      mstore\n      keccak256(0x00, 0x20)\n      swap1\n    tag_160:\n      dup2\n      sload\n      dup2\n      mstore\n      swap1\n      0x01\n      add\n      swap1\n      0x20\n      add\n      dup1\n      dup4\n      gt\n      tag_160\n      jumpi\n      dup3\n      swap1\n      sub\n      0x1f\n      and\n      dup3\n      add\n      swap2\n    tag_158:\n      pop\n      pop\n      pop\n      pop\n      pop\n      dup2\n      jump\t// out\n        /* \"contracts/ERC20.sol\":3683:3965  function transfer(address to, uint amount) external override returns(bool) {... */\n    tag_100:\n        /* \"contracts/ERC20.sol\":3752:3756  bool */\n      0x00\n        /* \"contracts/ERC20.sol\":3865:3871  amount */\n      dup2\n        /* \"contracts/ERC20.sol\":3841:3849  balances */\n      0x05\n        /* \"contracts/ERC20.sol\":3841:3861  balances[msg.sender] */\n      0x00\n        /* \"contracts/ERC20.sol\":3850:3860  msg.sender */\n      caller\n        /* \"contracts/ERC20.sol\":3841:3861  balances[msg.sender] */\n      0xffffffffffffffffffffffffffffffffffffffff\n      and\n      0xffffffffffffffffffffffffffffffffffffffff\n      and\n      dup2\n      mstore\n      0x20\n      add\n      swap1\n      dup2\n      mstore\n      0x20\n      add\n      0x00\n      keccak256\n      0x00\n        /* \"contracts/ERC20.sol\":3841:3871  balances[msg.sender] -= amount */\n      dup3\n      dup3\n      sload\n      tag_162\n      swap2\n      swap1\n      tag_28\n      jump\t// in\n    tag_162:\n      swap3\n      pop\n      pop\n      dup2\n      swap1\n      sstore\n      pop\n        /* \"contracts/ERC20.sol\":3898:3904  amount */\n      dup2\n        /* \"contracts/ERC20.sol\":3882:3890  balances */\n      0x05\n        /* \"contracts/ERC20.sol\":3882:3894  balances[to] */\n      0x00\n        /* \"contracts/ERC20.sol\":3891:3893  to */\n      dup6\n        /* \"contracts/ERC20.sol\":3882:3894  balances[to] */\n      0xffffffffffffffffffffffffffffffffffffffff\n      and\n      0xffffffffffffffffffffffffffffffffffffffff\n      and\n      dup2\n      mstore\n      0x20\n      add\n      swap1\n      dup2\n      mstore\n      0x20\n      add\n      0x00\n      keccak256\n      0x00\n        /* \"contracts/ERC20.sol\":3882:3904  balances[to] += amount */\n      dup3\n      dup3\n      sload\n      tag_163\n      swap2\n      swap1\n      tag_30\n      jump\t// in\n    tag_163:\n      swap3\n      pop\n      pop\n      dup2\n      swap1\n      sstore\n      pop\n        /* \"contracts/ERC20.sol\":3953:3957  true */\n      0x01\n        /* \"contracts/ERC20.sol\":3946:3957  return true */\n      swap1\n      pop\n        /* \"contracts/ERC20.sol\":3683:3965  function transfer(address to, uint amount) external override returns(bool) {... */\n      swap3\n      swap2\n      pop\n      pop\n      jump\t// out\n        /* \"contracts/ERC20.sol\":780:851  mapping( address => mapping(address => uint)) public override allowance */\n    tag_106:\n      mstore(0x20, 0x06)\n      dup2\n      0x00\n      mstore\n      mstore(0x20, keccak256(0x00, 0x40))\n      dup1\n      0x00\n      mstore\n      keccak256(0x00, 0x40)\n      0x00\n      swap2\n      pop\n      swap2\n      pop\n      pop\n      sload\n      dup2\n      jump\t// out\n        /* \"contracts/Pokenmon.sol\":2323:2370  mapping ( address => Pokens[]) public pokenmons */\n    tag_111:\n      mstore(0x20, 0x0a)\n      dup2\n      0x00\n      mstore\n      keccak256(0x00, 0x40)\n      dup2\n      dup2\n      sload\n      dup2\n      lt\n      tag_164\n      jumpi\n      0x00\n      dup1\n      revert\n    tag_164:\n      swap1\n      0x00\n      mstore\n      keccak256(0x00, 0x20)\n      swap1\n      0x02\n      mul\n      add\n      0x00\n      swap2\n      pop\n      swap2\n      pop\n      pop\n      dup1\n      0x00\n      add\n      dup1\n      sload\n      tag_166\n      swap1\n      tag_121\n      jump\t// in\n    tag_166:\n      dup1\n      0x1f\n      add\n      0x20\n      dup1\n      swap2\n      div\n      mul\n      0x20\n      add\n      mload(0x40)\n      swap1\n      dup2\n      add\n      0x40\n      mstore\n      dup1\n      swap3\n      swap2\n      swap1\n      dup2\n      dup2\n      mstore\n      0x20\n      add\n      dup3\n      dup1\n      sload\n      tag_167\n      swap1\n      tag_121\n      jump\t// in\n    tag_167:\n      dup1\n      iszero\n      tag_168\n      jumpi\n      dup1\n      0x1f\n      lt\n      tag_169\n      jumpi\n      0x0100\n      dup1\n      dup4\n      sload\n      div\n      mul\n      dup4\n      mstore\n      swap2\n      0x20\n      add\n      swap2\n      jump(tag_168)\n    tag_169:\n      dup3\n      add\n      swap2\n      swap1\n      0x00\n      mstore\n      keccak256(0x00, 0x20)\n      swap1\n    tag_170:\n      dup2\n      sload\n      dup2\n      mstore\n      swap1\n      0x01\n      add\n      swap1\n      0x20\n      add\n      dup1\n      dup4\n      gt\n      tag_170\n      jumpi\n      dup3\n      swap1\n      sub\n      0x1f\n      and\n      dup3\n      add\n      swap2\n    tag_168:\n      pop\n      pop\n      pop\n      pop\n      pop\n      swap1\n      dup1\n      0x01\n      add\n      dup1\n      sload\n      tag_171\n      swap1\n      tag_121\n      jump\t// in\n    tag_171:\n      dup1\n      0x1f\n      add\n      0x20\n      dup1\n      swap2\n      div\n      mul\n      0x20\n      add\n      mload(0x40)\n      swap1\n      dup2\n      add\n      0x40\n      mstore\n      dup1\n      swap3\n      swap2\n      swap1\n      dup2\n      dup2\n      mstore\n      0x20\n      add\n      dup3\n      dup1\n      sload\n      tag_172\n      swap1\n      tag_121\n      jump\t// in\n    tag_172:\n      dup1\n      iszero\n      tag_173\n      jumpi\n      dup1\n      0x1f\n      lt\n      tag_174\n      jumpi\n      0x0100\n      dup1\n      dup4\n      sload\n      div\n      mul\n      dup4\n      mstore\n      swap2\n      0x20\n      add\n      swap2\n      jump(tag_173)\n    tag_174:\n      dup3\n      add\n      swap2\n      swap1\n      0x00\n      mstore\n      keccak256(0x00, 0x20)\n      swap1\n    tag_175:\n      dup2\n      sload\n      dup2\n      mstore\n      swap1\n      0x01\n      add\n      swap1\n      0x20\n      add\n      dup1\n      dup4\n      gt\n      tag_175\n      jumpi\n      dup3\n      swap1\n      sub\n      0x1f\n      and\n      dup3\n      add\n      swap2\n    tag_173:\n      pop\n      pop\n      pop\n      pop\n      pop\n      swap1\n      pop\n      dup3\n      jump\t// out\n        /* \"contracts/Pokenmon.sol\":3266:5330  function buyPokenmon() public {... */\n    tag_116:\n        /* \"contracts/Pokenmon.sol\":3392:3402  tokenPrice */\n      sload(0x07)\n        /* \"contracts/Pokenmon.sol\":3368:3376  balances */\n      0x05\n        /* \"contracts/Pokenmon.sol\":3368:3388  balances[msg.sender] */\n      0x00\n        /* \"contracts/Pokenmon.sol\":3377:3387  msg.sender */\n      caller\n        /* \"contracts/Pokenmon.sol\":3368:3388  balances[msg.sender] */\n      0xffffffffffffffffffffffffffffffffffffffff\n      and\n      0xffffffffffffffffffffffffffffffffffffffff\n      and\n      dup2\n      mstore\n      0x20\n      add\n      swap1\n      dup2\n      mstore\n      0x20\n      add\n      0x00\n      keccak256\n      sload\n        /* \"contracts/Pokenmon.sol\":3368:3402  balances[msg.sender] >= tokenPrice */\n      lt\n      iszero\n        /* \"contracts/Pokenmon.sol\":3360:3404  require(balances[msg.sender] >= tokenPrice ) */\n      tag_177\n      jumpi\n      0x00\n      dup1\n      revert\n    tag_177:\n        /* \"contracts/Pokenmon.sol\":3476:3486  tokenPrice */\n      sload(0x07)\n        /* \"contracts/Pokenmon.sol\":3452:3460  balances */\n      0x05\n        /* \"contracts/Pokenmon.sol\":3452:3472  balances[msg.sender] */\n      0x00\n        /* \"contracts/Pokenmon.sol\":3461:3471  msg.sender */\n      caller\n        /* \"contracts/Pokenmon.sol\":3452:3472  balances[msg.sender] */\n      0xffffffffffffffffffffffffffffffffffffffff\n      and\n      0xffffffffffffffffffffffffffffffffffffffff\n      and\n      dup2\n      mstore\n      0x20\n      add\n      swap1\n      dup2\n      mstore\n      0x20\n      add\n      0x00\n      keccak256\n      0x00\n        /* \"contracts/Pokenmon.sol\":3452:3486  balances[msg.sender] -= tokenPrice */\n      dup3\n      dup3\n      sload\n      tag_178\n      swap2\n      swap1\n      tag_28\n      jump\t// in\n    tag_178:\n      swap3\n      pop\n      pop\n      dup2\n      swap1\n      sstore\n      pop\n        /* \"contracts/Pokenmon.sol\":3611:3621  tokenPrice */\n      sload(0x07)\n        /* \"contracts/Pokenmon.sol\":3596:3607  totalSupply */\n      0x03\n      0x00\n        /* \"contracts/Pokenmon.sol\":3596:3621  totalSupply -= tokenPrice */\n      dup3\n      dup3\n      sload\n      tag_179\n      swap2\n      swap1\n      tag_28\n      jump\t// in\n    tag_179:\n      swap3\n      pop\n      pop\n      dup2\n      swap1\n      sstore\n      pop\n        /* \"contracts/Pokenmon.sol\":3671:3682  uint random */\n      0x00\n        /* \"contracts/Pokenmon.sol\":3735:3750  block.timestamp */\n      timestamp\n        /* \"contracts/Pokenmon.sol\":3752:3766  block.coinbase */\n      coinbase\n        /* \"contracts/Pokenmon.sol\":3769:3781  block.number */\n      number\n        /* \"contracts/Pokenmon.sol\":3718:3782  abi.encodePacked(block.timestamp, block.coinbase , block.number) */\n      add(0x20, mload(0x40))\n      tag_180\n      swap4\n      swap3\n      swap2\n      swap1\n      tag_181\n      jump\t// in\n    tag_180:\n      mload(0x40)\n      0x20\n      dup2\n      dup4\n      sub\n      sub\n      dup2\n      mstore\n      swap1\n      0x40\n      mstore\n        /* \"contracts/Pokenmon.sol\":3690:3797  keccak256(... */\n      dup1\n      mload\n      swap1\n      0x20\n      add\n      keccak256\n        /* \"contracts/Pokenmon.sol\":3685:3798  uint(keccak256(... */\n      0x00\n      shr\n        /* \"contracts/Pokenmon.sol\":3671:3798  uint random = uint(keccak256(... */\n      swap1\n      pop\n        /* \"contracts/Pokenmon.sol\":3890:3891  3 */\n      0x03\n        /* \"contracts/Pokenmon.sol\":3881:3887  random */\n      dup2\n        /* \"contracts/Pokenmon.sol\":3881:3891  random % 3 */\n      tag_182\n      swap2\n      swap1\n      tag_183\n      jump\t// in\n    tag_182:\n        /* \"contracts/Pokenmon.sol\":3865:3893  random = uint ( random % 3 ) */\n      swap1\n      pop\n        /* \"contracts/Pokenmon.sol\":4132:4141  pokenmons */\n      0x0a\n        /* \"contracts/Pokenmon.sol\":4132:4153  pokenmons[msg.sender] */\n      0x00\n        /* \"contracts/Pokenmon.sol\":4142:4152  msg.sender */\n      caller\n        /* \"contracts/Pokenmon.sol\":4132:4153  pokenmons[msg.sender] */\n      0xffffffffffffffffffffffffffffffffffffffff\n      and\n      0xffffffffffffffffffffffffffffffffffffffff\n      and\n      dup2\n      mstore\n      0x20\n      add\n      swap1\n      dup2\n      mstore\n      0x20\n      add\n      0x00\n      keccak256\n        /* \"contracts/Pokenmon.sol\":4159:4212  Pokens( pokenmonUrl[random] , pokenmonName[random]  ) */\n      mload(0x40)\n      dup1\n      0x40\n      add\n      0x40\n      mstore\n      dup1\n        /* \"contracts/Pokenmon.sol\":4167:4178  pokenmonUrl */\n      0x09\n        /* \"contracts/Pokenmon.sol\":4179:4185  random */\n      dup5\n        /* \"contracts/Pokenmon.sol\":4167:4186  pokenmonUrl[random] */\n      dup2\n      sload\n      dup2\n      lt\n      tag_184\n      jumpi\n      tag_185\n      tag_186\n      jump\t// in\n    tag_185:\n    tag_184:\n      swap1\n      0x00\n      mstore\n      keccak256(0x00, 0x20)\n      add\n        /* \"contracts/Pokenmon.sol\":4159:4212  Pokens( pokenmonUrl[random] , pokenmonName[random]  ) */\n      dup1\n      sload\n      tag_188\n      swap1\n      tag_121\n      jump\t// in\n    tag_188:\n      dup1\n      0x1f\n      add\n      0x20\n      dup1\n      swap2\n      div\n      mul\n      0x20\n      add\n      mload(0x40)\n      swap1\n      dup2\n      add\n      0x40\n      mstore\n      dup1\n      swap3\n      swap2\n      swap1\n      dup2\n      dup2\n      mstore\n      0x20\n      add\n      dup3\n      dup1\n      sload\n      tag_189\n      swap1\n      tag_121\n      jump\t// in\n    tag_189:\n      dup1\n      iszero\n      tag_190\n      jumpi\n      dup1\n      0x1f\n      lt\n      tag_191\n      jumpi\n      0x0100\n      dup1\n      dup4\n      sload\n      div\n      mul\n      dup4\n      mstore\n      swap2\n      0x20\n      add\n      swap2\n      jump(tag_190)\n    tag_191:\n      dup3\n      add\n      swap2\n      swap1\n      0x00\n      mstore\n      keccak256(0x00, 0x20)\n      swap1\n    tag_192:\n      dup2\n      sload\n      dup2\n      mstore\n      swap1\n      0x01\n      add\n      swap1\n      0x20\n      add\n      dup1\n      dup4\n      gt\n      tag_192\n      jumpi\n      dup3\n      swap1\n      sub\n      0x1f\n      and\n      dup3\n      add\n      swap2\n    tag_190:\n      pop\n      pop\n      pop\n      pop\n      pop\n      dup2\n      mstore\n      0x20\n      add\n        /* \"contracts/Pokenmon.sol\":4189:4201  pokenmonName */\n      0x08\n        /* \"contracts/Pokenmon.sol\":4202:4208  random */\n      dup5\n        /* \"contracts/Pokenmon.sol\":4189:4209  pokenmonName[random] */\n      dup2\n      sload\n      dup2\n      lt\n      tag_193\n      jumpi\n      tag_194\n      tag_186\n      jump\t// in\n    tag_194:\n    tag_193:\n      swap1\n      0x00\n      mstore\n      keccak256(0x00, 0x20)\n      add\n        /* \"contracts/Pokenmon.sol\":4159:4212  Pokens( pokenmonUrl[random] , pokenmonName[random]  ) */\n      dup1\n      sload\n      tag_196\n      swap1\n      tag_121\n      jump\t// in\n    tag_196:\n      dup1\n      0x1f\n      add\n      0x20\n      dup1\n      swap2\n      div\n      mul\n      0x20\n      add\n      mload(0x40)\n      swap1\n      dup2\n      add\n      0x40\n      mstore\n      dup1\n      swap3\n      swap2\n      swap1\n      dup2\n      dup2\n      mstore\n      0x20\n      add\n      dup3\n      dup1\n      sload\n      tag_197\n      swap1\n      tag_121\n      jump\t// in\n    tag_197:\n      dup1\n      iszero\n      tag_198\n      jumpi\n      dup1\n      0x1f\n      lt\n      tag_199\n      jumpi\n      0x0100\n      dup1\n      dup4\n      sload\n      div\n      mul\n      dup4\n      mstore\n      swap2\n      0x20\n      add\n      swap2\n      jump(tag_198)\n    tag_199:\n      dup3\n      add\n      swap2\n      swap1\n      0x00\n      mstore\n      keccak256(0x00, 0x20)\n      swap1\n    tag_200:\n      dup2\n      sload\n      dup2\n      mstore\n      swap1\n      0x01\n      add\n      swap1\n      0x20\n      add\n      dup1\n      dup4\n      gt\n      tag_200\n      jumpi\n      dup3\n      swap1\n      sub\n      0x1f\n      and\n      dup3\n      add\n      swap2\n    tag_198:\n      pop\n      pop\n      pop\n      pop\n      pop\n      dup2\n      mstore\n      pop\n        /* \"contracts/Pokenmon.sol\":4132:4213  pokenmons[msg.sender].push(Pokens( pokenmonUrl[random] , pokenmonName[random]  )) */\n      swap1\n      dup1\n      0x01\n      dup2\n      sload\n      add\n      dup1\n      dup3\n      sstore\n      dup1\n      swap2\n      pop\n      pop\n      0x01\n      swap1\n      sub\n      swap1\n      0x00\n      mstore\n      keccak256(0x00, 0x20)\n      swap1\n      0x02\n      mul\n      add\n      0x00\n      swap1\n      swap2\n      swap1\n      swap2\n      swap1\n      swap2\n      pop\n      0x00\n      dup3\n      add\n      mload\n      dup2\n      0x00\n      add\n      swap1\n      dup2\n      tag_202\n      swap2\n      swap1\n      tag_203\n      jump\t// in\n    tag_202:\n      pop\n      0x20\n      dup3\n      add\n      mload\n      dup2\n      0x01\n      add\n      swap1\n      dup2\n      tag_204\n      swap2\n      swap1\n      tag_203\n      jump\t// in\n    tag_204:\n      pop\n      pop\n      pop\n        /* \"contracts/Pokenmon.sol\":4741:4752  bool isUser */\n      0x00\n        /* \"contracts/Pokenmon.sol\":4802:4811  uint256 i */\n      dup1\n        /* \"contracts/Pokenmon.sol\":4797:5084  for( uint256 i = 0; i < users.length; i++ ) {... */\n    tag_205:\n        /* \"contracts/Pokenmon.sol\":4821:4826  users */\n      0x0b\n        /* \"contracts/Pokenmon.sol\":4821:4833  users.length */\n      dup1\n      sload\n      swap1\n      pop\n        /* \"contracts/Pokenmon.sol\":4817:4818  i */\n      dup2\n        /* \"contracts/Pokenmon.sol\":4817:4833  i < users.length */\n      lt\n        /* \"contracts/Pokenmon.sol\":4797:5084  for( uint256 i = 0; i < users.length; i++ ) {... */\n      iszero\n      tag_206\n      jumpi\n        /* \"contracts/Pokenmon.sol\":4887:4897  msg.sender */\n      caller\n        /* \"contracts/Pokenmon.sol\":4867:4897  users[i].account == msg.sender */\n      0xffffffffffffffffffffffffffffffffffffffff\n      and\n        /* \"contracts/Pokenmon.sol\":4867:4872  users */\n      0x0b\n        /* \"contracts/Pokenmon.sol\":4873:4874  i */\n      dup3\n        /* \"contracts/Pokenmon.sol\":4867:4875  users[i] */\n      dup2\n      sload\n      dup2\n      lt\n      tag_208\n      jumpi\n      tag_209\n      tag_186\n      jump\t// in\n    tag_209:\n    tag_208:\n      swap1\n      0x00\n      mstore\n      keccak256(0x00, 0x20)\n      add\n        /* \"contracts/Pokenmon.sol\":4867:4883  users[i].account */\n      0x00\n      add\n      0x00\n      swap1\n      sload\n      swap1\n      0x0100\n      exp\n      swap1\n      div\n      0xffffffffffffffffffffffffffffffffffffffff\n      and\n        /* \"contracts/Pokenmon.sol\":4867:4897  users[i].account == msg.sender */\n      0xffffffffffffffffffffffffffffffffffffffff\n      and\n      sub\n        /* \"contracts/Pokenmon.sol\":4864:5065  if(users[i].account == msg.sender) {... */\n      tag_211\n      jumpi\n        /* \"contracts/Pokenmon.sol\":5005:5009  true */\n      0x01\n        /* \"contracts/Pokenmon.sol\":4996:5009  isUser = true */\n      swap2\n      pop\n        /* \"contracts/Pokenmon.sol\":5036:5041  break */\n      jump(tag_206)\n        /* \"contracts/Pokenmon.sol\":4864:5065  if(users[i].account == msg.sender) {... */\n    tag_211:\n        /* \"contracts/Pokenmon.sol\":4835:4838  i++ */\n      dup1\n      dup1\n      tag_212\n      swap1\n      tag_213\n      jump\t// in\n    tag_212:\n      swap2\n      pop\n      pop\n        /* \"contracts/Pokenmon.sol\":4797:5084  for( uint256 i = 0; i < users.length; i++ ) {... */\n      jump(tag_205)\n    tag_206:\n      pop\n        /* \"contracts/Pokenmon.sol\":5109:5115  isUser */\n      dup1\n        /* \"contracts/Pokenmon.sol\":5104:5317  if (!isUser) {... */\n      tag_214\n      jumpi\n        /* \"contracts/Pokenmon.sol\":5140:5145  users */\n      0x0b\n        /* \"contracts/Pokenmon.sol\":5151:5168  Users(msg.sender) */\n      mload(0x40)\n      dup1\n      0x20\n      add\n      0x40\n      mstore\n      dup1\n        /* \"contracts/Pokenmon.sol\":5157:5167  msg.sender */\n      caller\n        /* \"contracts/Pokenmon.sol\":5151:5168  Users(msg.sender) */\n      0xffffffffffffffffffffffffffffffffffffffff\n      and\n      dup2\n      mstore\n      pop\n        /* \"contracts/Pokenmon.sol\":5140:5169  users.push(Users(msg.sender)) */\n      swap1\n      dup1\n      0x01\n      dup2\n      sload\n      add\n      dup1\n      dup3\n      sstore\n      dup1\n      swap2\n      pop\n      pop\n      0x01\n      swap1\n      sub\n      swap1\n      0x00\n      mstore\n      keccak256(0x00, 0x20)\n      add\n      0x00\n      swap1\n      swap2\n      swap1\n      swap2\n      swap1\n      swap2\n      pop\n      0x00\n      dup3\n      add\n      mload\n      dup2\n      0x00\n      add\n      exp(0x0100, 0x00)\n      dup2\n      sload\n      dup2\n      0xffffffffffffffffffffffffffffffffffffffff\n      mul\n      not\n      and\n      swap1\n      dup4\n      0xffffffffffffffffffffffffffffffffffffffff\n      and\n      mul\n      or\n      swap1\n      sstore\n      pop\n      pop\n      pop\n        /* \"contracts/Pokenmon.sol\":5104:5317  if (!isUser) {... */\n    tag_214:\n        /* \"contracts/Pokenmon.sol\":3296:5330  {... */\n      pop\n      pop\n        /* \"contracts/Pokenmon.sol\":3266:5330  function buyPokenmon() public {... */\n      jump\t// out\n        /* \"#utility.yul\":7:84   */\n    tag_216:\n        /* \"#utility.yul\":44:51   */\n      0x00\n        /* \"#utility.yul\":73:78   */\n      dup2\n        /* \"#utility.yul\":62:78   */\n      swap1\n      pop\n        /* \"#utility.yul\":7:84   */\n      swap2\n      swap1\n      pop\n      jump\t// out\n        /* \"#utility.yul\":90:270   */\n    tag_217:\n        /* \"#utility.yul\":138:215   */\n      0x4e487b7100000000000000000000000000000000000000000000000000000000\n        /* \"#utility.yul\":135:136   */\n      0x00\n        /* \"#utility.yul\":128:216   */\n      mstore\n        /* \"#utility.yul\":235:239   */\n      0x11\n        /* \"#utility.yul\":232:233   */\n      0x04\n        /* \"#utility.yul\":225:240   */\n      mstore\n        /* \"#utility.yul\":259:263   */\n      0x24\n        /* \"#utility.yul\":256:257   */\n      0x00\n        /* \"#utility.yul\":249:264   */\n      revert\n        /* \"#utility.yul\":276:686   */\n    tag_25:\n        /* \"#utility.yul\":316:323   */\n      0x00\n        /* \"#utility.yul\":339:359   */\n      tag_282\n        /* \"#utility.yul\":357:358   */\n      dup3\n        /* \"#utility.yul\":339:359   */\n      tag_216\n      jump\t// in\n    tag_282:\n        /* \"#utility.yul\":334:359   */\n      swap2\n      pop\n        /* \"#utility.yul\":373:393   */\n      tag_283\n        /* \"#utility.yul\":391:392   */\n      dup4\n        /* \"#utility.yul\":373:393   */\n      tag_216\n      jump\t// in\n    tag_283:\n        /* \"#utility.yul\":368:393   */\n      swap3\n      pop\n        /* \"#utility.yul\":428:429   */\n      dup3\n        /* \"#utility.yul\":425:426   */\n      dup3\n        /* \"#utility.yul\":421:430   */\n      mul\n        /* \"#utility.yul\":450:480   */\n      tag_284\n        /* \"#utility.yul\":468:479   */\n      dup2\n        /* \"#utility.yul\":450:480   */\n      tag_216\n      jump\t// in\n    tag_284:\n        /* \"#utility.yul\":439:480   */\n      swap2\n      pop\n        /* \"#utility.yul\":629:630   */\n      dup3\n        /* \"#utility.yul\":620:627   */\n      dup3\n        /* \"#utility.yul\":616:631   */\n      div\n        /* \"#utility.yul\":613:614   */\n      dup5\n        /* \"#utility.yul\":610:632   */\n      eq\n        /* \"#utility.yul\":590:591   */\n      dup4\n        /* \"#utility.yul\":583:592   */\n      iszero\n        /* \"#utility.yul\":563:646   */\n      or\n        /* \"#utility.yul\":540:679   */\n      tag_285\n      jumpi\n        /* \"#utility.yul\":659:677   */\n      tag_286\n      tag_217\n      jump\t// in\n    tag_286:\n        /* \"#utility.yul\":540:679   */\n    tag_285:\n        /* \"#utility.yul\":324:686   */\n      pop\n        /* \"#utility.yul\":276:686   */\n      swap3\n      swap2\n      pop\n      pop\n      jump\t// out\n        /* \"#utility.yul\":692:886   */\n    tag_28:\n        /* \"#utility.yul\":732:736   */\n      0x00\n        /* \"#utility.yul\":752:772   */\n      tag_288\n        /* \"#utility.yul\":770:771   */\n      dup3\n        /* \"#utility.yul\":752:772   */\n      tag_216\n      jump\t// in\n    tag_288:\n        /* \"#utility.yul\":747:772   */\n      swap2\n      pop\n        /* \"#utility.yul\":786:806   */\n      tag_289\n        /* \"#utility.yul\":804:805   */\n      dup4\n        /* \"#utility.yul\":786:806   */\n      tag_216\n      jump\t// in\n    tag_289:\n        /* \"#utility.yul\":781:806   */\n      swap3\n      pop\n        /* \"#utility.yul\":830:831   */\n      dup3\n        /* \"#utility.yul\":827:828   */\n      dup3\n        /* \"#utility.yul\":823:832   */\n      sub\n        /* \"#utility.yul\":815:832   */\n      swap1\n      pop\n        /* \"#utility.yul\":854:855   */\n      dup2\n        /* \"#utility.yul\":848:852   */\n      dup2\n        /* \"#utility.yul\":845:856   */\n      gt\n        /* \"#utility.yul\":842:879   */\n      iszero\n      tag_290\n      jumpi\n        /* \"#utility.yul\":859:877   */\n      tag_291\n      tag_217\n      jump\t// in\n    tag_291:\n        /* \"#utility.yul\":842:879   */\n    tag_290:\n        /* \"#utility.yul\":692:886   */\n      swap3\n      swap2\n      pop\n      pop\n      jump\t// out\n        /* \"#utility.yul\":892:1083   */\n    tag_30:\n        /* \"#utility.yul\":932:935   */\n      0x00\n        /* \"#utility.yul\":951:971   */\n      tag_293\n        /* \"#utility.yul\":969:970   */\n      dup3\n        /* \"#utility.yul\":951:971   */\n      tag_216\n      jump\t// in\n    tag_293:\n        /* \"#utility.yul\":946:971   */\n      swap2\n      pop\n        /* \"#utility.yul\":985:1005   */\n      tag_294\n        /* \"#utility.yul\":1003:1004   */\n      dup4\n        /* \"#utility.yul\":985:1005   */\n      tag_216\n      jump\t// in\n    tag_294:\n        /* \"#utility.yul\":980:1005   */\n      swap3\n      pop\n        /* \"#utility.yul\":1028:1029   */\n      dup3\n        /* \"#utility.yul\":1025:1026   */\n      dup3\n        /* \"#utility.yul\":1021:1030   */\n      add\n        /* \"#utility.yul\":1014:1030   */\n      swap1\n      pop\n        /* \"#utility.yul\":1049:1052   */\n      dup1\n        /* \"#utility.yul\":1046:1047   */\n      dup3\n        /* \"#utility.yul\":1043:1053   */\n      gt\n        /* \"#utility.yul\":1040:1076   */\n      iszero\n      tag_295\n      jumpi\n        /* \"#utility.yul\":1056:1074   */\n      tag_296\n      tag_217\n      jump\t// in\n    tag_296:\n        /* \"#utility.yul\":1040:1076   */\n    tag_295:\n        /* \"#utility.yul\":892:1083   */\n      swap3\n      swap2\n      pop\n      pop\n      jump\t// out\n        /* \"#utility.yul\":1089:1188   */\n    tag_218:\n        /* \"#utility.yul\":1141:1147   */\n      0x00\n        /* \"#utility.yul\":1175:1180   */\n      dup2\n        /* \"#utility.yul\":1169:1181   */\n      mload\n        /* \"#utility.yul\":1159:1181   */\n      swap1\n      pop\n        /* \"#utility.yul\":1089:1188   */\n      swap2\n      swap1\n      pop\n      jump\t// out\n        /* \"#utility.yul\":1194:1363   */\n    tag_219:\n        /* \"#utility.yul\":1278:1289   */\n      0x00\n        /* \"#utility.yul\":1312:1318   */\n      dup3\n        /* \"#utility.yul\":1307:1310   */\n      dup3\n        /* \"#utility.yul\":1300:1319   */\n      mstore\n        /* \"#utility.yul\":1352:1356   */\n      0x20\n        /* \"#utility.yul\":1347:1350   */\n      dup3\n        /* \"#utility.yul\":1343:1357   */\n      add\n        /* \"#utility.yul\":1328:1357   */\n      swap1\n      pop\n        /* \"#utility.yul\":1194:1363   */\n      swap3\n      swap2\n      pop\n      pop\n      jump\t// out\n        /* \"#utility.yul\":1369:1615   */\n    tag_220:\n        /* \"#utility.yul\":1450:1451   */\n      0x00\n        /* \"#utility.yul\":1460:1573   */\n    tag_300:\n        /* \"#utility.yul\":1474:1480   */\n      dup4\n        /* \"#utility.yul\":1471:1472   */\n      dup2\n        /* \"#utility.yul\":1468:1481   */\n      lt\n        /* \"#utility.yul\":1460:1573   */\n      iszero\n      tag_302\n      jumpi\n        /* \"#utility.yul\":1559:1560   */\n      dup1\n        /* \"#utility.yul\":1554:1557   */\n      dup3\n        /* \"#utility.yul\":1550:1561   */\n      add\n        /* \"#utility.yul\":1544:1562   */\n      mload\n        /* \"#utility.yul\":1540:1541   */\n      dup2\n        /* \"#utility.yul\":1535:1538   */\n      dup5\n        /* \"#utility.yul\":1531:1542   */\n      add\n        /* \"#utility.yul\":1524:1563   */\n      mstore\n        /* \"#utility.yul\":1496:1498   */\n      0x20\n        /* \"#utility.yul\":1493:1494   */\n      dup2\n        /* \"#utility.yul\":1489:1499   */\n      add\n        /* \"#utility.yul\":1484:1499   */\n      swap1\n      pop\n        /* \"#utility.yul\":1460:1573   */\n      jump(tag_300)\n    tag_302:\n        /* \"#utility.yul\":1607:1608   */\n      0x00\n        /* \"#utility.yul\":1598:1604   */\n      dup5\n        /* \"#utility.yul\":1593:1596   */\n      dup5\n        /* \"#utility.yul\":1589:1605   */\n      add\n        /* \"#utility.yul\":1582:1609   */\n      mstore\n        /* \"#utility.yul\":1431:1615   */\n      pop\n        /* \"#utility.yul\":1369:1615   */\n      pop\n      pop\n      pop\n      jump\t// out\n        /* \"#utility.yul\":1621:1723   */\n    tag_221:\n        /* \"#utility.yul\":1662:1668   */\n      0x00\n        /* \"#utility.yul\":1713:1715   */\n      0x1f\n        /* \"#utility.yul\":1709:1716   */\n      not\n        /* \"#utility.yul\":1704:1706   */\n      0x1f\n        /* \"#utility.yul\":1697:1702   */\n      dup4\n        /* \"#utility.yul\":1693:1707   */\n      add\n        /* \"#utility.yul\":1689:1717   */\n      and\n        /* \"#utility.yul\":1679:1717   */\n      swap1\n      pop\n        /* \"#utility.yul\":1621:1723   */\n      swap2\n      swap1\n      pop\n      jump\t// out\n        /* \"#utility.yul\":1729:2106   */\n    tag_222:\n        /* \"#utility.yul\":1817:1820   */\n      0x00\n        /* \"#utility.yul\":1845:1884   */\n      tag_305\n        /* \"#utility.yul\":1878:1883   */\n      dup3\n        /* \"#utility.yul\":1845:1884   */\n      tag_218\n      jump\t// in\n    tag_305:\n        /* \"#utility.yul\":1900:1971   */\n      tag_306\n        /* \"#utility.yul\":1964:1970   */\n      dup2\n        /* \"#utility.yul\":1959:1962   */\n      dup6\n        /* \"#utility.yul\":1900:1971   */\n      tag_219\n      jump\t// in\n    tag_306:\n        /* \"#utility.yul\":1893:1971   */\n      swap4\n      pop\n        /* \"#utility.yul\":1980:2045   */\n      tag_307\n        /* \"#utility.yul\":2038:2044   */\n      dup2\n        /* \"#utility.yul\":2033:2036   */\n      dup6\n        /* \"#utility.yul\":2026:2030   */\n      0x20\n        /* \"#utility.yul\":2019:2024   */\n      dup7\n        /* \"#utility.yul\":2015:2031   */\n      add\n        /* \"#utility.yul\":1980:2045   */\n      tag_220\n      jump\t// in\n    tag_307:\n        /* \"#utility.yul\":2070:2099   */\n      tag_308\n        /* \"#utility.yul\":2092:2098   */\n      dup2\n        /* \"#utility.yul\":2070:2099   */\n      tag_221\n      jump\t// in\n    tag_308:\n        /* \"#utility.yul\":2065:2068   */\n      dup5\n        /* \"#utility.yul\":2061:2100   */\n      add\n        /* \"#utility.yul\":2054:2100   */\n      swap2\n      pop\n        /* \"#utility.yul\":1821:2106   */\n      pop\n        /* \"#utility.yul\":1729:2106   */\n      swap3\n      swap2\n      pop\n      pop\n      jump\t// out\n        /* \"#utility.yul\":2112:2425   */\n    tag_38:\n        /* \"#utility.yul\":2225:2229   */\n      0x00\n        /* \"#utility.yul\":2263:2265   */\n      0x20\n        /* \"#utility.yul\":2252:2261   */\n      dup3\n        /* \"#utility.yul\":2248:2266   */\n      add\n        /* \"#utility.yul\":2240:2266   */\n      swap1\n      pop\n        /* \"#utility.yul\":2312:2321   */\n      dup2\n        /* \"#utility.yul\":2306:2310   */\n      dup2\n        /* \"#utility.yul\":2302:2322   */\n      sub\n        /* \"#utility.yul\":2298:2299   */\n      0x00\n        /* \"#utility.yul\":2287:2296   */\n      dup4\n        /* \"#utility.yul\":2283:2300   */\n      add\n        /* \"#utility.yul\":2276:2323   */\n      mstore\n        /* \"#utility.yul\":2340:2418   */\n      tag_310\n        /* \"#utility.yul\":2413:2417   */\n      dup2\n        /* \"#utility.yul\":2404:2410   */\n      dup5\n        /* \"#utility.yul\":2340:2418   */\n      tag_222\n      jump\t// in\n    tag_310:\n        /* \"#utility.yul\":2332:2418   */\n      swap1\n      pop\n        /* \"#utility.yul\":2112:2425   */\n      swap3\n      swap2\n      pop\n      pop\n      jump\t// out\n        /* \"#utility.yul\":2512:2629   */\n    tag_224:\n        /* \"#utility.yul\":2621:2622   */\n      0x00\n        /* \"#utility.yul\":2618:2619   */\n      dup1\n        /* \"#utility.yul\":2611:2623   */\n      revert\n        /* \"#utility.yul\":2758:2884   */\n    tag_226:\n        /* \"#utility.yul\":2795:2802   */\n      0x00\n        /* \"#utility.yul\":2835:2877   */\n      0xffffffffffffffffffffffffffffffffffffffff\n        /* \"#utility.yul\":2828:2833   */\n      dup3\n        /* \"#utility.yul\":2824:2878   */\n      and\n        /* \"#utility.yul\":2813:2878   */\n      swap1\n      pop\n        /* \"#utility.yul\":2758:2884   */\n      swap2\n      swap1\n      pop\n      jump\t// out\n        /* \"#utility.yul\":2890:2986   */\n    tag_227:\n        /* \"#utility.yul\":2927:2934   */\n      0x00\n        /* \"#utility.yul\":2956:2980   */\n      tag_316\n        /* \"#utility.yul\":2974:2979   */\n      dup3\n        /* \"#utility.yul\":2956:2980   */\n      tag_226\n      jump\t// in\n    tag_316:\n        /* \"#utility.yul\":2945:2980   */\n      swap1\n      pop\n        /* \"#utility.yul\":2890:2986   */\n      swap2\n      swap1\n      pop\n      jump\t// out\n        /* \"#utility.yul\":2992:3114   */\n    tag_228:\n        /* \"#utility.yul\":3065:3089   */\n      tag_318\n        /* \"#utility.yul\":3083:3088   */\n      dup2\n        /* \"#utility.yul\":3065:3089   */\n      tag_227\n      jump\t// in\n    tag_318:\n        /* \"#utility.yul\":3058:3063   */\n      dup2\n        /* \"#utility.yul\":3055:3090   */\n      eq\n        /* \"#utility.yul\":3045:3108   */\n      tag_319\n      jumpi\n        /* \"#utility.yul\":3104:3105   */\n      0x00\n        /* \"#utility.yul\":3101:3102   */\n      dup1\n        /* \"#utility.yul\":3094:3106   */\n      revert\n        /* \"#utility.yul\":3045:3108   */\n    tag_319:\n        /* \"#utility.yul\":2992:3114   */\n      pop\n      jump\t// out\n        /* \"#utility.yul\":3120:3259   */\n    tag_229:\n        /* \"#utility.yul\":3166:3171   */\n      0x00\n        /* \"#utility.yul\":3204:3210   */\n      dup2\n        /* \"#utility.yul\":3191:3211   */\n      calldataload\n        /* \"#utility.yul\":3182:3211   */\n      swap1\n      pop\n        /* \"#utility.yul\":3220:3253   */\n      tag_321\n        /* \"#utility.yul\":3247:3252   */\n      dup2\n        /* \"#utility.yul\":3220:3253   */\n      tag_228\n      jump\t// in\n    tag_321:\n        /* \"#utility.yul\":3120:3259   */\n      swap3\n      swap2\n      pop\n      pop\n      jump\t// out\n        /* \"#utility.yul\":3265:3387   */\n    tag_230:\n        /* \"#utility.yul\":3338:3362   */\n      tag_323\n        /* \"#utility.yul\":3356:3361   */\n      dup2\n        /* \"#utility.yul\":3338:3362   */\n      tag_216\n      jump\t// in\n    tag_323:\n        /* \"#utility.yul\":3331:3336   */\n      dup2\n        /* \"#utility.yul\":3328:3363   */\n      eq\n        /* \"#utility.yul\":3318:3381   */\n      tag_324\n      jumpi\n        /* \"#utility.yul\":3377:3378   */\n      0x00\n        /* \"#utility.yul\":3374:3375   */\n      dup1\n        /* \"#utility.yul\":3367:3379   */\n      revert\n        /* \"#utility.yul\":3318:3381   */\n    tag_324:\n        /* \"#utility.yul\":3265:3387   */\n      pop\n      jump\t// out\n        /* \"#utility.yul\":3393:3532   */\n    tag_231:\n        /* \"#utility.yul\":3439:3444   */\n      0x00\n        /* \"#utility.yul\":3477:3483   */\n      dup2\n        /* \"#utility.yul\":3464:3484   */\n      calldataload\n        /* \"#utility.yul\":3455:3484   */\n      swap1\n      pop\n        /* \"#utility.yul\":3493:3526   */\n      tag_326\n        /* \"#utility.yul\":3520:3525   */\n      dup2\n        /* \"#utility.yul\":3493:3526   */\n      tag_230\n      jump\t// in\n    tag_326:\n        /* \"#utility.yul\":3393:3532   */\n      swap3\n      swap2\n      pop\n      pop\n      jump\t// out\n        /* \"#utility.yul\":3538:4012   */\n    tag_42:\n        /* \"#utility.yul\":3606:3612   */\n      0x00\n        /* \"#utility.yul\":3614:3620   */\n      dup1\n        /* \"#utility.yul\":3663:3665   */\n      0x40\n        /* \"#utility.yul\":3651:3660   */\n      dup4\n        /* \"#utility.yul\":3642:3649   */\n      dup6\n        /* \"#utility.yul\":3638:3661   */\n      sub\n        /* \"#utility.yul\":3634:3666   */\n      slt\n        /* \"#utility.yul\":3631:3750   */\n      iszero\n      tag_328\n      jumpi\n        /* \"#utility.yul\":3669:3748   */\n      tag_329\n      tag_224\n      jump\t// in\n    tag_329:\n        /* \"#utility.yul\":3631:3750   */\n    tag_328:\n        /* \"#utility.yul\":3789:3790   */\n      0x00\n        /* \"#utility.yul\":3814:3867   */\n      tag_330\n        /* \"#utility.yul\":3859:3866   */\n      dup6\n        /* \"#utility.yul\":3850:3856   */\n      dup3\n        /* \"#utility.yul\":3839:3848   */\n      dup7\n        /* \"#utility.yul\":3835:3857   */\n      add\n        /* \"#utility.yul\":3814:3867   */\n      tag_229\n      jump\t// in\n    tag_330:\n        /* \"#utility.yul\":3804:3867   */\n      swap3\n      pop\n        /* \"#utility.yul\":3760:3877   */\n      pop\n        /* \"#utility.yul\":3916:3918   */\n      0x20\n        /* \"#utility.yul\":3942:3995   */\n      tag_331\n        /* \"#utility.yul\":3987:3994   */\n      dup6\n        /* \"#utility.yul\":3978:3984   */\n      dup3\n        /* \"#utility.yul\":3967:3976   */\n      dup7\n        /* \"#utility.yul\":3963:3985   */\n      add\n        /* \"#utility.yul\":3942:3995   */\n      tag_231\n      jump\t// in\n    tag_331:\n        /* \"#utility.yul\":3932:3995   */\n      swap2\n      pop\n        /* \"#utility.yul\":3887:4005   */\n      pop\n        /* \"#utility.yul\":3538:4012   */\n      swap3\n      pop\n      swap3\n      swap1\n      pop\n      jump\t// out\n        /* \"#utility.yul\":4018:4108   */\n    tag_232:\n        /* \"#utility.yul\":4052:4059   */\n      0x00\n        /* \"#utility.yul\":4095:4100   */\n      dup2\n        /* \"#utility.yul\":4088:4101   */\n      iszero\n        /* \"#utility.yul\":4081:4102   */\n      iszero\n        /* \"#utility.yul\":4070:4102   */\n      swap1\n      pop\n        /* \"#utility.yul\":4018:4108   */\n      swap2\n      swap1\n      pop\n      jump\t// out\n        /* \"#utility.yul\":4114:4223   */\n    tag_233:\n        /* \"#utility.yul\":4195:4216   */\n      tag_334\n        /* \"#utility.yul\":4210:4215   */\n      dup2\n        /* \"#utility.yul\":4195:4216   */\n      tag_232\n      jump\t// in\n    tag_334:\n        /* \"#utility.yul\":4190:4193   */\n      dup3\n        /* \"#utility.yul\":4183:4217   */\n      mstore\n        /* \"#utility.yul\":4114:4223   */\n      pop\n      pop\n      jump\t// out\n        /* \"#utility.yul\":4229:4439   */\n    tag_45:\n        /* \"#utility.yul\":4316:4320   */\n      0x00\n        /* \"#utility.yul\":4354:4356   */\n      0x20\n        /* \"#utility.yul\":4343:4352   */\n      dup3\n        /* \"#utility.yul\":4339:4357   */\n      add\n        /* \"#utility.yul\":4331:4357   */\n      swap1\n      pop\n        /* \"#utility.yul\":4367:4432   */\n      tag_336\n        /* \"#utility.yul\":4429:4430   */\n      0x00\n        /* \"#utility.yul\":4418:4427   */\n      dup4\n        /* \"#utility.yul\":4414:4431   */\n      add\n        /* \"#utility.yul\":4405:4411   */\n      dup5\n        /* \"#utility.yul\":4367:4432   */\n      tag_233\n      jump\t// in\n    tag_336:\n        /* \"#utility.yul\":4229:4439   */\n      swap3\n      swap2\n      pop\n      pop\n      jump\t// out\n        /* \"#utility.yul\":4445:4563   */\n    tag_234:\n        /* \"#utility.yul\":4532:4556   */\n      tag_338\n        /* \"#utility.yul\":4550:4555   */\n      dup2\n        /* \"#utility.yul\":4532:4556   */\n      tag_216\n      jump\t// in\n    tag_338:\n        /* \"#utility.yul\":4527:4530   */\n      dup3\n        /* \"#utility.yul\":4520:4557   */\n      mstore\n        /* \"#utility.yul\":4445:4563   */\n      pop\n      pop\n      jump\t// out\n        /* \"#utility.yul\":4569:4791   */\n    tag_50:\n        /* \"#utility.yul\":4662:4666   */\n      0x00\n        /* \"#utility.yul\":4700:4702   */\n      0x20\n        /* \"#utility.yul\":4689:4698   */\n      dup3\n        /* \"#utility.yul\":4685:4703   */\n      add\n        /* \"#utility.yul\":4677:4703   */\n      swap1\n      pop\n        /* \"#utility.yul\":4713:4784   */\n      tag_340\n        /* \"#utility.yul\":4781:4782   */\n      0x00\n        /* \"#utility.yul\":4770:4779   */\n      dup4\n        /* \"#utility.yul\":4766:4783   */\n      add\n        /* \"#utility.yul\":4757:4763   */\n      dup5\n        /* \"#utility.yul\":4713:4784   */\n      tag_234\n      jump\t// in\n    tag_340:\n        /* \"#utility.yul\":4569:4791   */\n      swap3\n      swap2\n      pop\n      pop\n      jump\t// out\n        /* \"#utility.yul\":4797:5416   */\n    tag_54:\n        /* \"#utility.yul\":4874:4880   */\n      0x00\n        /* \"#utility.yul\":4882:4888   */\n      dup1\n        /* \"#utility.yul\":4890:4896   */\n      0x00\n        /* \"#utility.yul\":4939:4941   */\n      0x60\n        /* \"#utility.yul\":4927:4936   */\n      dup5\n        /* \"#utility.yul\":4918:4925   */\n      dup7\n        /* \"#utility.yul\":4914:4937   */\n      sub\n        /* \"#utility.yul\":4910:4942   */\n      slt\n        /* \"#utility.yul\":4907:5026   */\n      iszero\n      tag_342\n      jumpi\n        /* \"#utility.yul\":4945:5024   */\n      tag_343\n      tag_224\n      jump\t// in\n    tag_343:\n        /* \"#utility.yul\":4907:5026   */\n    tag_342:\n        /* \"#utility.yul\":5065:5066   */\n      0x00\n        /* \"#utility.yul\":5090:5143   */\n      tag_344\n        /* \"#utility.yul\":5135:5142   */\n      dup7\n        /* \"#utility.yul\":5126:5132   */\n      dup3\n        /* \"#utility.yul\":5115:5124   */\n      dup8\n        /* \"#utility.yul\":5111:5133   */\n      add\n        /* \"#utility.yul\":5090:5143   */\n      tag_229\n      jump\t// in\n    tag_344:\n        /* \"#utility.yul\":5080:5143   */\n      swap4\n      pop\n        /* \"#utility.yul\":5036:5153   */\n      pop\n        /* \"#utility.yul\":5192:5194   */\n      0x20\n        /* \"#utility.yul\":5218:5271   */\n      tag_345\n        /* \"#utility.yul\":5263:5270   */\n      dup7\n        /* \"#utility.yul\":5254:5260   */\n      dup3\n        /* \"#utility.yul\":5243:5252   */\n      dup8\n        /* \"#utility.yul\":5239:5261   */\n      add\n        /* \"#utility.yul\":5218:5271   */\n      tag_229\n      jump\t// in\n    tag_345:\n        /* \"#utility.yul\":5208:5271   */\n      swap3\n      pop\n        /* \"#utility.yul\":5163:5281   */\n      pop\n        /* \"#utility.yul\":5320:5322   */\n      0x40\n        /* \"#utility.yul\":5346:5399   */\n      tag_346\n        /* \"#utility.yul\":5391:5398   */\n      dup7\n        /* \"#utility.yul\":5382:5388   */\n      dup3\n        /* \"#utility.yul\":5371:5380   */\n      dup8\n        /* \"#utility.yul\":5367:5389   */\n      add\n        /* \"#utility.yul\":5346:5399   */\n      tag_231\n      jump\t// in\n    tag_346:\n        /* \"#utility.yul\":5336:5399   */\n      swap2\n      pop\n        /* \"#utility.yul\":5291:5409   */\n      pop\n        /* \"#utility.yul\":4797:5416   */\n      swap3\n      pop\n      swap3\n      pop\n      swap3\n      jump\t// out\n        /* \"#utility.yul\":5422:5751   */\n    tag_60:\n        /* \"#utility.yul\":5481:5487   */\n      0x00\n        /* \"#utility.yul\":5530:5532   */\n      0x20\n        /* \"#utility.yul\":5518:5527   */\n      dup3\n        /* \"#utility.yul\":5509:5516   */\n      dup5\n        /* \"#utility.yul\":5505:5528   */\n      sub\n        /* \"#utility.yul\":5501:5533   */\n      slt\n        /* \"#utility.yul\":5498:5617   */\n      iszero\n      tag_348\n      jumpi\n        /* \"#utility.yul\":5536:5615   */\n      tag_349\n      tag_224\n      jump\t// in\n    tag_349:\n        /* \"#utility.yul\":5498:5617   */\n    tag_348:\n        /* \"#utility.yul\":5656:5657   */\n      0x00\n        /* \"#utility.yul\":5681:5734   */\n      tag_350\n        /* \"#utility.yul\":5726:5733   */\n      dup5\n        /* \"#utility.yul\":5717:5723   */\n      dup3\n        /* \"#utility.yul\":5706:5715   */\n      dup6\n        /* \"#utility.yul\":5702:5724   */\n      add\n        /* \"#utility.yul\":5681:5734   */\n      tag_229\n      jump\t// in\n    tag_350:\n        /* \"#utility.yul\":5671:5734   */\n      swap2\n      pop\n        /* \"#utility.yul\":5627:5744   */\n      pop\n        /* \"#utility.yul\":5422:5751   */\n      swap3\n      swap2\n      pop\n      pop\n      jump\t// out\n        /* \"#utility.yul\":5757:5893   */\n    tag_235:\n        /* \"#utility.yul\":5846:5852   */\n      0x00\n        /* \"#utility.yul\":5880:5885   */\n      dup2\n        /* \"#utility.yul\":5874:5886   */\n      mload\n        /* \"#utility.yul\":5864:5886   */\n      swap1\n      pop\n        /* \"#utility.yul\":5757:5893   */\n      swap2\n      swap1\n      pop\n      jump\t// out\n        /* \"#utility.yul\":5899:6105   */\n    tag_236:\n        /* \"#utility.yul\":6020:6031   */\n      0x00\n        /* \"#utility.yul\":6054:6060   */\n      dup3\n        /* \"#utility.yul\":6049:6052   */\n      dup3\n        /* \"#utility.yul\":6042:6061   */\n      mstore\n        /* \"#utility.yul\":6094:6098   */\n      0x20\n        /* \"#utility.yul\":6089:6092   */\n      dup3\n        /* \"#utility.yul\":6085:6099   */\n      add\n        /* \"#utility.yul\":6070:6099   */\n      swap1\n      pop\n        /* \"#utility.yul\":5899:6105   */\n      swap3\n      swap2\n      pop\n      pop\n      jump\t// out\n        /* \"#utility.yul\":6111:6265   */\n    tag_237:\n        /* \"#utility.yul\":6200:6204   */\n      0x00\n        /* \"#utility.yul\":6223:6226   */\n      dup2\n        /* \"#utility.yul\":6215:6226   */\n      swap1\n      pop\n        /* \"#utility.yul\":6253:6257   */\n      0x20\n        /* \"#utility.yul\":6248:6251   */\n      dup3\n        /* \"#utility.yul\":6244:6258   */\n      add\n        /* \"#utility.yul\":6236:6258   */\n      swap1\n      pop\n        /* \"#utility.yul\":6111:6265   */\n      swap2\n      swap1\n      pop\n      jump\t// out\n        /* \"#utility.yul\":6271:6379   */\n    tag_238:\n        /* \"#utility.yul\":6348:6372   */\n      tag_355\n        /* \"#utility.yul\":6366:6371   */\n      dup2\n        /* \"#utility.yul\":6348:6372   */\n      tag_227\n      jump\t// in\n    tag_355:\n        /* \"#utility.yul\":6343:6346   */\n      dup3\n        /* \"#utility.yul\":6336:6373   */\n      mstore\n        /* \"#utility.yul\":6271:6379   */\n      pop\n      pop\n      jump\t// out\n        /* \"#utility.yul\":6439:6759   */\n    tag_239:\n        /* \"#utility.yul\":6570:6574   */\n      0x20\n        /* \"#utility.yul\":6565:6568   */\n      dup3\n        /* \"#utility.yul\":6561:6575   */\n      add\n        /* \"#utility.yul\":6660:6664   */\n      0x00\n        /* \"#utility.yul\":6653:6658   */\n      dup3\n        /* \"#utility.yul\":6649:6665   */\n      add\n        /* \"#utility.yul\":6643:6666   */\n      mload\n        /* \"#utility.yul\":6679:6742   */\n      tag_357\n        /* \"#utility.yul\":6736:6740   */\n      0x00\n        /* \"#utility.yul\":6731:6734   */\n      dup6\n        /* \"#utility.yul\":6727:6741   */\n      add\n        /* \"#utility.yul\":6713:6725   */\n      dup3\n        /* \"#utility.yul\":6679:6742   */\n      tag_238\n      jump\t// in\n    tag_357:\n        /* \"#utility.yul\":6585:6752   */\n      pop\n        /* \"#utility.yul\":6539:6759   */\n      pop\n        /* \"#utility.yul\":6439:6759   */\n      pop\n      pop\n      jump\t// out\n        /* \"#utility.yul\":6765:7032   */\n    tag_240:\n        /* \"#utility.yul\":6878:6888   */\n      0x00\n        /* \"#utility.yul\":6899:6989   */\n      tag_359\n        /* \"#utility.yul\":6985:6988   */\n      dup4\n        /* \"#utility.yul\":6977:6983   */\n      dup4\n        /* \"#utility.yul\":6899:6989   */\n      tag_239\n      jump\t// in\n    tag_359:\n        /* \"#utility.yul\":7021:7025   */\n      0x20\n        /* \"#utility.yul\":7016:7019   */\n      dup4\n        /* \"#utility.yul\":7012:7026   */\n      add\n        /* \"#utility.yul\":6998:7026   */\n      swap1\n      pop\n        /* \"#utility.yul\":6765:7032   */\n      swap3\n      swap2\n      pop\n      pop\n      jump\t// out\n        /* \"#utility.yul\":7038:7173   */\n    tag_241:\n        /* \"#utility.yul\":7130:7134   */\n      0x00\n        /* \"#utility.yul\":7162:7166   */\n      0x20\n        /* \"#utility.yul\":7157:7160   */\n      dup3\n        /* \"#utility.yul\":7153:7167   */\n      add\n        /* \"#utility.yul\":7145:7167   */\n      swap1\n      pop\n        /* \"#utility.yul\":7038:7173   */\n      swap2\n      swap1\n      pop\n      jump\t// out\n        /* \"#utility.yul\":7237:8145   */\n    tag_242:\n        /* \"#utility.yul\":7400:7403   */\n      0x00\n        /* \"#utility.yul\":7429:7505   */\n      tag_362\n        /* \"#utility.yul\":7499:7504   */\n      dup3\n        /* \"#utility.yul\":7429:7505   */\n      tag_235\n      jump\t// in\n    tag_362:\n        /* \"#utility.yul\":7521:7629   */\n      tag_363\n        /* \"#utility.yul\":7622:7628   */\n      dup2\n        /* \"#utility.yul\":7617:7620   */\n      dup6\n        /* \"#utility.yul\":7521:7629   */\n      tag_236\n      jump\t// in\n    tag_363:\n        /* \"#utility.yul\":7514:7629   */\n      swap4\n      pop\n        /* \"#utility.yul\":7653:7731   */\n      tag_364\n        /* \"#utility.yul\":7725:7730   */\n      dup4\n        /* \"#utility.yul\":7653:7731   */\n      tag_237\n      jump\t// in\n    tag_364:\n        /* \"#utility.yul\":7754:7761   */\n      dup1\n        /* \"#utility.yul\":7785:7786   */\n      0x00\n        /* \"#utility.yul\":7770:8120   */\n    tag_365:\n        /* \"#utility.yul\":7795:7801   */\n      dup4\n        /* \"#utility.yul\":7792:7793   */\n      dup2\n        /* \"#utility.yul\":7789:7802   */\n      lt\n        /* \"#utility.yul\":7770:8120   */\n      iszero\n      tag_367\n      jumpi\n        /* \"#utility.yul\":7871:7877   */\n      dup2\n        /* \"#utility.yul\":7865:7878   */\n      mload\n        /* \"#utility.yul\":7898:8005   */\n      tag_368\n        /* \"#utility.yul\":8001:8004   */\n      dup9\n        /* \"#utility.yul\":7986:7999   */\n      dup3\n        /* \"#utility.yul\":7898:8005   */\n      tag_240\n      jump\t// in\n    tag_368:\n        /* \"#utility.yul\":7891:8005   */\n      swap8\n      pop\n        /* \"#utility.yul\":8028:8110   */\n      tag_369\n        /* \"#utility.yul\":8103:8109   */\n      dup4\n        /* \"#utility.yul\":8028:8110   */\n      tag_241\n      jump\t// in\n    tag_369:\n        /* \"#utility.yul\":8018:8110   */\n      swap3\n      pop\n        /* \"#utility.yul\":7830:8120   */\n      pop\n        /* \"#utility.yul\":7817:7818   */\n      0x01\n        /* \"#utility.yul\":7814:7815   */\n      dup2\n        /* \"#utility.yul\":7810:7819   */\n      add\n        /* \"#utility.yul\":7805:7819   */\n      swap1\n      pop\n        /* \"#utility.yul\":7770:8120   */\n      jump(tag_365)\n    tag_367:\n        /* \"#utility.yul\":7774:7788   */\n      pop\n        /* \"#utility.yul\":8136:8139   */\n      dup6\n        /* \"#utility.yul\":8129:8139   */\n      swap4\n      pop\n        /* \"#utility.yul\":7405:8145   */\n      pop\n      pop\n      pop\n        /* \"#utility.yul\":7237:8145   */\n      swap3\n      swap2\n      pop\n      pop\n      jump\t// out\n        /* \"#utility.yul\":8151:8612   */\n    tag_67:\n        /* \"#utility.yul\":8338:8342   */\n      0x00\n        /* \"#utility.yul\":8376:8378   */\n      0x20\n        /* \"#utility.yul\":8365:8374   */\n      dup3\n        /* \"#utility.yul\":8361:8379   */\n      add\n        /* \"#utility.yul\":8353:8379   */\n      swap1\n      pop\n        /* \"#utility.yul\":8425:8434   */\n      dup2\n        /* \"#utility.yul\":8419:8423   */\n      dup2\n        /* \"#utility.yul\":8415:8435   */\n      sub\n        /* \"#utility.yul\":8411:8412   */\n      0x00\n        /* \"#utility.yul\":8400:8409   */\n      dup4\n        /* \"#utility.yul\":8396:8413   */\n      add\n        /* \"#utility.yul\":8389:8436   */\n      mstore\n        /* \"#utility.yul\":8453:8605   */\n      tag_371\n        /* \"#utility.yul\":8600:8604   */\n      dup2\n        /* \"#utility.yul\":8591:8597   */\n      dup5\n        /* \"#utility.yul\":8453:8605   */\n      tag_242\n      jump\t// in\n    tag_371:\n        /* \"#utility.yul\":8445:8605   */\n      swap1\n      pop\n        /* \"#utility.yul\":8151:8612   */\n      swap3\n      swap2\n      pop\n      pop\n      jump\t// out\n        /* \"#utility.yul\":8618:8947   */\n    tag_75:\n        /* \"#utility.yul\":8677:8683   */\n      0x00\n        /* \"#utility.yul\":8726:8728   */\n      0x20\n        /* \"#utility.yul\":8714:8723   */\n      dup3\n        /* \"#utility.yul\":8705:8712   */\n      dup5\n        /* \"#utility.yul\":8701:8724   */\n      sub\n        /* \"#utility.yul\":8697:8729   */\n      slt\n        /* \"#utility.yul\":8694:8813   */\n      iszero\n      tag_373\n      jumpi\n        /* \"#utility.yul\":8732:8811   */\n      tag_374\n      tag_224\n      jump\t// in\n    tag_374:\n        /* \"#utility.yul\":8694:8813   */\n    tag_373:\n        /* \"#utility.yul\":8852:8853   */\n      0x00\n        /* \"#utility.yul\":8877:8930   */\n      tag_375\n        /* \"#utility.yul\":8922:8929   */\n      dup5\n        /* \"#utility.yul\":8913:8919   */\n      dup3\n        /* \"#utility.yul\":8902:8911   */\n      dup6\n        /* \"#utility.yul\":8898:8920   */\n      add\n        /* \"#utility.yul\":8877:8930   */\n      tag_231\n      jump\t// in\n    tag_375:\n        /* \"#utility.yul\":8867:8930   */\n      swap2\n      pop\n        /* \"#utility.yul\":8823:8940   */\n      pop\n        /* \"#utility.yul\":8618:8947   */\n      swap3\n      swap2\n      pop\n      pop\n      jump\t// out\n        /* \"#utility.yul\":8953:9071   */\n    tag_243:\n        /* \"#utility.yul\":9040:9064   */\n      tag_377\n        /* \"#utility.yul\":9058:9063   */\n      dup2\n        /* \"#utility.yul\":9040:9064   */\n      tag_227\n      jump\t// in\n    tag_377:\n        /* \"#utility.yul\":9035:9038   */\n      dup3\n        /* \"#utility.yul\":9028:9065   */\n      mstore\n        /* \"#utility.yul\":8953:9071   */\n      pop\n      pop\n      jump\t// out\n        /* \"#utility.yul\":9077:9299   */\n    tag_78:\n        /* \"#utility.yul\":9170:9174   */\n      0x00\n        /* \"#utility.yul\":9208:9210   */\n      0x20\n        /* \"#utility.yul\":9197:9206   */\n      dup3\n        /* \"#utility.yul\":9193:9211   */\n      add\n        /* \"#utility.yul\":9185:9211   */\n      swap1\n      pop\n        /* \"#utility.yul\":9221:9292   */\n      tag_379\n        /* \"#utility.yul\":9289:9290   */\n      0x00\n        /* \"#utility.yul\":9278:9287   */\n      dup4\n        /* \"#utility.yul\":9274:9291   */\n      add\n        /* \"#utility.yul\":9265:9271   */\n      dup5\n        /* \"#utility.yul\":9221:9292   */\n      tag_243\n      jump\t// in\n    tag_379:\n        /* \"#utility.yul\":9077:9299   */\n      swap3\n      swap2\n      pop\n      pop\n      jump\t// out\n        /* \"#utility.yul\":9305:9442   */\n    tag_244:\n        /* \"#utility.yul\":9395:9401   */\n      0x00\n        /* \"#utility.yul\":9429:9434   */\n      dup2\n        /* \"#utility.yul\":9423:9435   */\n      mload\n        /* \"#utility.yul\":9413:9435   */\n      swap1\n      pop\n        /* \"#utility.yul\":9305:9442   */\n      swap2\n      swap1\n      pop\n      jump\t// out\n        /* \"#utility.yul\":9448:9655   */\n    tag_245:\n        /* \"#utility.yul\":9570:9581   */\n      0x00\n        /* \"#utility.yul\":9604:9610   */\n      dup3\n        /* \"#utility.yul\":9599:9602   */\n      dup3\n        /* \"#utility.yul\":9592:9611   */\n      mstore\n        /* \"#utility.yul\":9644:9648   */\n      0x20\n        /* \"#utility.yul\":9639:9642   */\n      dup3\n        /* \"#utility.yul\":9635:9649   */\n      add\n        /* \"#utility.yul\":9620:9649   */\n      swap1\n      pop\n        /* \"#utility.yul\":9448:9655   */\n      swap3\n      swap2\n      pop\n      pop\n      jump\t// out\n        /* \"#utility.yul\":9661:9816   */\n    tag_246:\n        /* \"#utility.yul\":9751:9755   */\n      0x00\n        /* \"#utility.yul\":9774:9777   */\n      dup2\n        /* \"#utility.yul\":9766:9777   */\n      swap1\n      pop\n        /* \"#utility.yul\":9804:9808   */\n      0x20\n        /* \"#utility.yul\":9799:9802   */\n      dup3\n        /* \"#utility.yul\":9795:9809   */\n      add\n        /* \"#utility.yul\":9787:9809   */\n      swap1\n      pop\n        /* \"#utility.yul\":9661:9816   */\n      swap2\n      swap1\n      pop\n      jump\t// out\n        /* \"#utility.yul\":9822:9981   */\n    tag_247:\n        /* \"#utility.yul\":9896:9907   */\n      0x00\n        /* \"#utility.yul\":9930:9936   */\n      dup3\n        /* \"#utility.yul\":9925:9928   */\n      dup3\n        /* \"#utility.yul\":9918:9937   */\n      mstore\n        /* \"#utility.yul\":9970:9974   */\n      0x20\n        /* \"#utility.yul\":9965:9968   */\n      dup3\n        /* \"#utility.yul\":9961:9975   */\n      add\n        /* \"#utility.yul\":9946:9975   */\n      swap1\n      pop\n        /* \"#utility.yul\":9822:9981   */\n      swap3\n      swap2\n      pop\n      pop\n      jump\t// out\n        /* \"#utility.yul\":9987:10344   */\n    tag_248:\n        /* \"#utility.yul\":10065:10068   */\n      0x00\n        /* \"#utility.yul\":10093:10132   */\n      tag_385\n        /* \"#utility.yul\":10126:10131   */\n      dup3\n        /* \"#utility.yul\":10093:10132   */\n      tag_218\n      jump\t// in\n    tag_385:\n        /* \"#utility.yul\":10148:10209   */\n      tag_386\n        /* \"#utility.yul\":10202:10208   */\n      dup2\n        /* \"#utility.yul\":10197:10200   */\n      dup6\n        /* \"#utility.yul\":10148:10209   */\n      tag_247\n      jump\t// in\n    tag_386:\n        /* \"#utility.yul\":10141:10209   */\n      swap4\n      pop\n        /* \"#utility.yul\":10218:10283   */\n      tag_387\n        /* \"#utility.yul\":10276:10282   */\n      dup2\n        /* \"#utility.yul\":10271:10274   */\n      dup6\n        /* \"#utility.yul\":10264:10268   */\n      0x20\n        /* \"#utility.yul\":10257:10262   */\n      dup7\n        /* \"#utility.yul\":10253:10269   */\n      add\n        /* \"#utility.yul\":10218:10283   */\n      tag_220\n      jump\t// in\n    tag_387:\n        /* \"#utility.yul\":10308:10337   */\n      tag_388\n        /* \"#utility.yul\":10330:10336   */\n      dup2\n        /* \"#utility.yul\":10308:10337   */\n      tag_221\n      jump\t// in\n    tag_388:\n        /* \"#utility.yul\":10303:10306   */\n      dup5\n        /* \"#utility.yul\":10299:10338   */\n      add\n        /* \"#utility.yul\":10292:10338   */\n      swap2\n      pop\n        /* \"#utility.yul\":10069:10344   */\n      pop\n        /* \"#utility.yul\":9987:10344   */\n      swap3\n      swap2\n      pop\n      pop\n      jump\t// out\n        /* \"#utility.yul\":10406:11068   */\n    tag_249:\n        /* \"#utility.yul\":10511:10514   */\n      0x00\n        /* \"#utility.yul\":10547:10551   */\n      0x40\n        /* \"#utility.yul\":10542:10545   */\n      dup4\n        /* \"#utility.yul\":10538:10552   */\n      add\n        /* \"#utility.yul\":10633:10637   */\n      0x00\n        /* \"#utility.yul\":10626:10631   */\n      dup4\n        /* \"#utility.yul\":10622:10638   */\n      add\n        /* \"#utility.yul\":10616:10639   */\n      mload\n        /* \"#utility.yul\":10686:10689   */\n      dup5\n        /* \"#utility.yul\":10680:10684   */\n      dup3\n        /* \"#utility.yul\":10676:10690   */\n      sub\n        /* \"#utility.yul\":10669:10673   */\n      0x00\n        /* \"#utility.yul\":10664:10667   */\n      dup7\n        /* \"#utility.yul\":10660:10674   */\n      add\n        /* \"#utility.yul\":10653:10691   */\n      mstore\n        /* \"#utility.yul\":10712:10785   */\n      tag_390\n        /* \"#utility.yul\":10780:10784   */\n      dup3\n        /* \"#utility.yul\":10766:10778   */\n      dup3\n        /* \"#utility.yul\":10712:10785   */\n      tag_248\n      jump\t// in\n    tag_390:\n        /* \"#utility.yul\":10704:10785   */\n      swap2\n      pop\n        /* \"#utility.yul\":10562:10796   */\n      pop\n        /* \"#utility.yul\":10878:10882   */\n      0x20\n        /* \"#utility.yul\":10871:10876   */\n      dup4\n        /* \"#utility.yul\":10867:10883   */\n      add\n        /* \"#utility.yul\":10861:10884   */\n      mload\n        /* \"#utility.yul\":10931:10934   */\n      dup5\n        /* \"#utility.yul\":10925:10929   */\n      dup3\n        /* \"#utility.yul\":10921:10935   */\n      sub\n        /* \"#utility.yul\":10914:10918   */\n      0x20\n        /* \"#utility.yul\":10909:10912   */\n      dup7\n        /* \"#utility.yul\":10905:10919   */\n      add\n        /* \"#utility.yul\":10898:10936   */\n      mstore\n        /* \"#utility.yul\":10957:11030   */\n      tag_391\n        /* \"#utility.yul\":11025:11029   */\n      dup3\n        /* \"#utility.yul\":11011:11023   */\n      dup3\n        /* \"#utility.yul\":10957:11030   */\n      tag_248\n      jump\t// in\n    tag_391:\n        /* \"#utility.yul\":10949:11030   */\n      swap2\n      pop\n        /* \"#utility.yul\":10806:11041   */\n      pop\n        /* \"#utility.yul\":11058:11062   */\n      dup1\n        /* \"#utility.yul\":11051:11062   */\n      swap2\n      pop\n        /* \"#utility.yul\":10516:11068   */\n      pop\n        /* \"#utility.yul\":10406:11068   */\n      swap3\n      swap2\n      pop\n      pop\n      jump\t// out\n        /* \"#utility.yul\":11074:11322   */\n    tag_250:\n        /* \"#utility.yul\":11189:11199   */\n      0x00\n        /* \"#utility.yul\":11224:11316   */\n      tag_393\n        /* \"#utility.yul\":11312:11315   */\n      dup4\n        /* \"#utility.yul\":11304:11310   */\n      dup4\n        /* \"#utility.yul\":11224:11316   */\n      tag_249\n      jump\t// in\n    tag_393:\n        /* \"#utility.yul\":11210:11316   */\n      swap1\n      pop\n        /* \"#utility.yul\":11074:11322   */\n      swap3\n      swap2\n      pop\n      pop\n      jump\t// out\n        /* \"#utility.yul\":11328:11464   */\n    tag_251:\n        /* \"#utility.yul\":11421:11425   */\n      0x00\n        /* \"#utility.yul\":11453:11457   */\n      0x20\n        /* \"#utility.yul\":11448:11451   */\n      dup3\n        /* \"#utility.yul\":11444:11458   */\n      add\n        /* \"#utility.yul\":11436:11458   */\n      swap1\n      pop\n        /* \"#utility.yul\":11328:11464   */\n      swap2\n      swap1\n      pop\n      jump\t// out\n        /* \"#utility.yul\":11530:12625   */\n    tag_252:\n        /* \"#utility.yul\":11695:11698   */\n      0x00\n        /* \"#utility.yul\":11724:11801   */\n      tag_396\n        /* \"#utility.yul\":11795:11800   */\n      dup3\n        /* \"#utility.yul\":11724:11801   */\n      tag_244\n      jump\t// in\n    tag_396:\n        /* \"#utility.yul\":11817:11926   */\n      tag_397\n        /* \"#utility.yul\":11919:11925   */\n      dup2\n        /* \"#utility.yul\":11914:11917   */\n      dup6\n        /* \"#utility.yul\":11817:11926   */\n      tag_245\n      jump\t// in\n    tag_397:\n        /* \"#utility.yul\":11810:11926   */\n      swap4\n      pop\n        /* \"#utility.yul\":11952:11955   */\n      dup4\n        /* \"#utility.yul\":11997:12001   */\n      0x20\n        /* \"#utility.yul\":11989:11995   */\n      dup3\n        /* \"#utility.yul\":11985:12002   */\n      mul\n        /* \"#utility.yul\":11980:11983   */\n      dup6\n        /* \"#utility.yul\":11976:12003   */\n      add\n        /* \"#utility.yul\":12027:12106   */\n      tag_398\n        /* \"#utility.yul\":12100:12105   */\n      dup6\n        /* \"#utility.yul\":12027:12106   */\n      tag_246\n      jump\t// in\n    tag_398:\n        /* \"#utility.yul\":12129:12136   */\n      dup1\n        /* \"#utility.yul\":12160:12161   */\n      0x00\n        /* \"#utility.yul\":12145:12580   */\n    tag_399:\n        /* \"#utility.yul\":12170:12176   */\n      dup6\n        /* \"#utility.yul\":12167:12168   */\n      dup2\n        /* \"#utility.yul\":12164:12177   */\n      lt\n        /* \"#utility.yul\":12145:12580   */\n      iszero\n      tag_401\n      jumpi\n        /* \"#utility.yul\":12241:12250   */\n      dup5\n        /* \"#utility.yul\":12235:12239   */\n      dup5\n        /* \"#utility.yul\":12231:12251   */\n      sub\n        /* \"#utility.yul\":12226:12229   */\n      dup10\n        /* \"#utility.yul\":12219:12252   */\n      mstore\n        /* \"#utility.yul\":12292:12298   */\n      dup2\n        /* \"#utility.yul\":12286:12299   */\n      mload\n        /* \"#utility.yul\":12320:12430   */\n      tag_402\n        /* \"#utility.yul\":12425:12429   */\n      dup6\n        /* \"#utility.yul\":12410:12423   */\n      dup3\n        /* \"#utility.yul\":12320:12430   */\n      tag_250\n      jump\t// in\n    tag_402:\n        /* \"#utility.yul\":12312:12430   */\n      swap5\n      pop\n        /* \"#utility.yul\":12453:12536   */\n      tag_403\n        /* \"#utility.yul\":12529:12535   */\n      dup4\n        /* \"#utility.yul\":12453:12536   */\n      tag_251\n      jump\t// in\n    tag_403:\n        /* \"#utility.yul\":12443:12536   */\n      swap3\n      pop\n        /* \"#utility.yul\":12565:12569   */\n      0x20\n        /* \"#utility.yul\":12560:12563   */\n      dup11\n        /* \"#utility.yul\":12556:12570   */\n      add\n        /* \"#utility.yul\":12549:12570   */\n      swap10\n      pop\n        /* \"#utility.yul\":12205:12580   */\n      pop\n        /* \"#utility.yul\":12192:12193   */\n      0x01\n        /* \"#utility.yul\":12189:12190   */\n      dup2\n        /* \"#utility.yul\":12185:12194   */\n      add\n        /* \"#utility.yul\":12180:12194   */\n      swap1\n      pop\n        /* \"#utility.yul\":12145:12580   */\n      jump(tag_399)\n    tag_401:\n        /* \"#utility.yul\":12149:12163   */\n      pop\n        /* \"#utility.yul\":12596:12600   */\n      dup3\n        /* \"#utility.yul\":12589:12600   */\n      swap8\n      pop\n        /* \"#utility.yul\":12616:12619   */\n      dup8\n        /* \"#utility.yul\":12609:12619   */\n      swap6\n      pop\n        /* \"#utility.yul\":11700:12625   */\n      pop\n      pop\n      pop\n      pop\n      pop\n        /* \"#utility.yul\":11530:12625   */\n      swap3\n      swap2\n      pop\n      pop\n      jump\t// out\n        /* \"#utility.yul\":12631:13096   */\n    tag_92:\n        /* \"#utility.yul\":12820:12824   */\n      0x00\n        /* \"#utility.yul\":12858:12860   */\n      0x20\n        /* \"#utility.yul\":12847:12856   */\n      dup3\n        /* \"#utility.yul\":12843:12861   */\n      add\n        /* \"#utility.yul\":12835:12861   */\n      swap1\n      pop\n        /* \"#utility.yul\":12907:12916   */\n      dup2\n        /* \"#utility.yul\":12901:12905   */\n      dup2\n        /* \"#utility.yul\":12897:12917   */\n      sub\n        /* \"#utility.yul\":12893:12894   */\n      0x00\n        /* \"#utility.yul\":12882:12891   */\n      dup4\n        /* \"#utility.yul\":12878:12895   */\n      add\n        /* \"#utility.yul\":12871:12918   */\n      mstore\n        /* \"#utility.yul\":12935:13089   */\n      tag_405\n        /* \"#utility.yul\":13084:13088   */\n      dup2\n        /* \"#utility.yul\":13075:13081   */\n      dup5\n        /* \"#utility.yul\":12935:13089   */\n      tag_252\n      jump\t// in\n    tag_405:\n        /* \"#utility.yul\":12927:13089   */\n      swap1\n      pop\n        /* \"#utility.yul\":12631:13096   */\n      swap3\n      swap2\n      pop\n      pop\n      jump\t// out\n        /* \"#utility.yul\":13102:13576   */\n    tag_105:\n        /* \"#utility.yul\":13170:13176   */\n      0x00\n        /* \"#utility.yul\":13178:13184   */\n      dup1\n        /* \"#utility.yul\":13227:13229   */\n      0x40\n        /* \"#utility.yul\":13215:13224   */\n      dup4\n        /* \"#utility.yul\":13206:13213   */\n      dup6\n        /* \"#utility.yul\":13202:13225   */\n      sub\n        /* \"#utility.yul\":13198:13230   */\n      slt\n        /* \"#utility.yul\":13195:13314   */\n      iszero\n      tag_407\n      jumpi\n        /* \"#utility.yul\":13233:13312   */\n      tag_408\n      tag_224\n      jump\t// in\n    tag_408:\n        /* \"#utility.yul\":13195:13314   */\n    tag_407:\n        /* \"#utility.yul\":13353:13354   */\n      0x00\n        /* \"#utility.yul\":13378:13431   */\n      tag_409\n        /* \"#utility.yul\":13423:13430   */\n      dup6\n        /* \"#utility.yul\":13414:13420   */\n      dup3\n        /* \"#utility.yul\":13403:13412   */\n      dup7\n        /* \"#utility.yul\":13399:13421   */\n      add\n        /* \"#utility.yul\":13378:13431   */\n      tag_229\n      jump\t// in\n    tag_409:\n        /* \"#utility.yul\":13368:13431   */\n      swap3\n      pop\n        /* \"#utility.yul\":13324:13441   */\n      pop\n        /* \"#utility.yul\":13480:13482   */\n      0x20\n        /* \"#utility.yul\":13506:13559   */\n      tag_410\n        /* \"#utility.yul\":13551:13558   */\n      dup6\n        /* \"#utility.yul\":13542:13548   */\n      dup3\n        /* \"#utility.yul\":13531:13540   */\n      dup7\n        /* \"#utility.yul\":13527:13549   */\n      add\n        /* \"#utility.yul\":13506:13559   */\n      tag_229\n      jump\t// in\n    tag_410:\n        /* \"#utility.yul\":13496:13559   */\n      swap2\n      pop\n        /* \"#utility.yul\":13451:13569   */\n      pop\n        /* \"#utility.yul\":13102:13576   */\n      swap3\n      pop\n      swap3\n      swap1\n      pop\n      jump\t// out\n        /* \"#utility.yul\":13582:14096   */\n    tag_113:\n        /* \"#utility.yul\":13743:13747   */\n      0x00\n        /* \"#utility.yul\":13781:13783   */\n      0x40\n        /* \"#utility.yul\":13770:13779   */\n      dup3\n        /* \"#utility.yul\":13766:13784   */\n      add\n        /* \"#utility.yul\":13758:13784   */\n      swap1\n      pop\n        /* \"#utility.yul\":13830:13839   */\n      dup2\n        /* \"#utility.yul\":13824:13828   */\n      dup2\n        /* \"#utility.yul\":13820:13840   */\n      sub\n        /* \"#utility.yul\":13816:13817   */\n      0x00\n        /* \"#utility.yul\":13805:13814   */\n      dup4\n        /* \"#utility.yul\":13801:13818   */\n      add\n        /* \"#utility.yul\":13794:13841   */\n      mstore\n        /* \"#utility.yul\":13858:13936   */\n      tag_412\n        /* \"#utility.yul\":13931:13935   */\n      dup2\n        /* \"#utility.yul\":13922:13928   */\n      dup6\n        /* \"#utility.yul\":13858:13936   */\n      tag_222\n      jump\t// in\n    tag_412:\n        /* \"#utility.yul\":13850:13936   */\n      swap1\n      pop\n        /* \"#utility.yul\":13983:13992   */\n      dup2\n        /* \"#utility.yul\":13977:13981   */\n      dup2\n        /* \"#utility.yul\":13973:13993   */\n      sub\n        /* \"#utility.yul\":13968:13970   */\n      0x20\n        /* \"#utility.yul\":13957:13966   */\n      dup4\n        /* \"#utility.yul\":13953:13971   */\n      add\n        /* \"#utility.yul\":13946:13994   */\n      mstore\n        /* \"#utility.yul\":14011:14089   */\n      tag_413\n        /* \"#utility.yul\":14084:14088   */\n      dup2\n        /* \"#utility.yul\":14075:14081   */\n      dup5\n        /* \"#utility.yul\":14011:14089   */\n      tag_222\n      jump\t// in\n    tag_413:\n        /* \"#utility.yul\":14003:14089   */\n      swap1\n      pop\n        /* \"#utility.yul\":13582:14096   */\n      swap4\n      swap3\n      pop\n      pop\n      pop\n      jump\t// out\n        /* \"#utility.yul\":14102:14282   */\n    tag_253:\n        /* \"#utility.yul\":14150:14227   */\n      0x4e487b7100000000000000000000000000000000000000000000000000000000\n        /* \"#utility.yul\":14147:14148   */\n      0x00\n        /* \"#utility.yul\":14140:14228   */\n      mstore\n        /* \"#utility.yul\":14247:14251   */\n      0x22\n        /* \"#utility.yul\":14244:14245   */\n      0x04\n        /* \"#utility.yul\":14237:14252   */\n      mstore\n        /* \"#utility.yul\":14271:14275   */\n      0x24\n        /* \"#utility.yul\":14268:14269   */\n      0x00\n        /* \"#utility.yul\":14261:14276   */\n      revert\n        /* \"#utility.yul\":14288:14608   */\n    tag_121:\n        /* \"#utility.yul\":14332:14338   */\n      0x00\n        /* \"#utility.yul\":14369:14370   */\n      0x02\n        /* \"#utility.yul\":14363:14367   */\n      dup3\n        /* \"#utility.yul\":14359:14371   */\n      div\n        /* \"#utility.yul\":14349:14371   */\n      swap1\n      pop\n        /* \"#utility.yul\":14416:14417   */\n      0x01\n        /* \"#utility.yul\":14410:14414   */\n      dup3\n        /* \"#utility.yul\":14406:14418   */\n      and\n        /* \"#utility.yul\":14437:14455   */\n      dup1\n        /* \"#utility.yul\":14427:14508   */\n      tag_416\n      jumpi\n        /* \"#utility.yul\":14493:14497   */\n      0x7f\n        /* \"#utility.yul\":14485:14491   */\n      dup3\n        /* \"#utility.yul\":14481:14498   */\n      and\n        /* \"#utility.yul\":14471:14498   */\n      swap2\n      pop\n        /* \"#utility.yul\":14427:14508   */\n    tag_416:\n        /* \"#utility.yul\":14555:14557   */\n      0x20\n        /* \"#utility.yul\":14547:14553   */\n      dup3\n        /* \"#utility.yul\":14544:14558   */\n      lt\n        /* \"#utility.yul\":14524:14542   */\n      dup2\n        /* \"#utility.yul\":14521:14559   */\n      sub\n        /* \"#utility.yul\":14518:14602   */\n      tag_417\n      jumpi\n        /* \"#utility.yul\":14574:14592   */\n      tag_418\n      tag_253\n      jump\t// in\n    tag_418:\n        /* \"#utility.yul\":14518:14602   */\n    tag_417:\n        /* \"#utility.yul\":14339:14608   */\n      pop\n        /* \"#utility.yul\":14288:14608   */\n      swap2\n      swap1\n      pop\n      jump\t// out\n        /* \"#utility.yul\":14614:14693   */\n    tag_254:\n        /* \"#utility.yul\":14653:14660   */\n      0x00\n        /* \"#utility.yul\":14682:14687   */\n      dup2\n        /* \"#utility.yul\":14671:14687   */\n      swap1\n      pop\n        /* \"#utility.yul\":14614:14693   */\n      swap2\n      swap1\n      pop\n      jump\t// out\n        /* \"#utility.yul\":14699:14856   */\n    tag_255:\n        /* \"#utility.yul\":14804:14849   */\n      tag_421\n        /* \"#utility.yul\":14824:14848   */\n      tag_422\n        /* \"#utility.yul\":14842:14847   */\n      dup3\n        /* \"#utility.yul\":14824:14848   */\n      tag_216\n      jump\t// in\n    tag_422:\n        /* \"#utility.yul\":14804:14849   */\n      tag_254\n      jump\t// in\n    tag_421:\n        /* \"#utility.yul\":14799:14802   */\n      dup3\n        /* \"#utility.yul\":14792:14850   */\n      mstore\n        /* \"#utility.yul\":14699:14856   */\n      pop\n      pop\n      jump\t// out\n        /* \"#utility.yul\":14862:14966   */\n    tag_256:\n        /* \"#utility.yul\":14907:14914   */\n      0x00\n        /* \"#utility.yul\":14936:14960   */\n      tag_424\n        /* \"#utility.yul\":14954:14959   */\n      dup3\n        /* \"#utility.yul\":14936:14960   */\n      tag_226\n      jump\t// in\n    tag_424:\n        /* \"#utility.yul\":14925:14960   */\n      swap1\n      pop\n        /* \"#utility.yul\":14862:14966   */\n      swap2\n      swap1\n      pop\n      jump\t// out\n        /* \"#utility.yul\":14972:15066   */\n    tag_257:\n        /* \"#utility.yul\":15005:15013   */\n      0x00\n        /* \"#utility.yul\":15053:15058   */\n      dup2\n        /* \"#utility.yul\":15049:15051   */\n      0x60\n        /* \"#utility.yul\":15045:15059   */\n      shl\n        /* \"#utility.yul\":15024:15059   */\n      swap1\n      pop\n        /* \"#utility.yul\":14972:15066   */\n      swap2\n      swap1\n      pop\n      jump\t// out\n        /* \"#utility.yul\":15072:15166   */\n    tag_258:\n        /* \"#utility.yul\":15111:15118   */\n      0x00\n        /* \"#utility.yul\":15140:15160   */\n      tag_427\n        /* \"#utility.yul\":15154:15159   */\n      dup3\n        /* \"#utility.yul\":15140:15160   */\n      tag_257\n      jump\t// in\n    tag_427:\n        /* \"#utility.yul\":15129:15160   */\n      swap1\n      pop\n        /* \"#utility.yul\":15072:15166   */\n      swap2\n      swap1\n      pop\n      jump\t// out\n        /* \"#utility.yul\":15172:15280   */\n    tag_259:\n        /* \"#utility.yul\":15219:15226   */\n      0x00\n        /* \"#utility.yul\":15248:15274   */\n      tag_429\n        /* \"#utility.yul\":15268:15273   */\n      dup3\n        /* \"#utility.yul\":15248:15274   */\n      tag_258\n      jump\t// in\n    tag_429:\n        /* \"#utility.yul\":15237:15274   */\n      swap1\n      pop\n        /* \"#utility.yul\":15172:15280   */\n      swap2\n      swap1\n      pop\n      jump\t// out\n        /* \"#utility.yul\":15286:15475   */\n    tag_260:\n        /* \"#utility.yul\":15407:15468   */\n      tag_431\n        /* \"#utility.yul\":15435:15467   */\n      tag_432\n        /* \"#utility.yul\":15461:15466   */\n      dup3\n        /* \"#utility.yul\":15435:15467   */\n      tag_256\n      jump\t// in\n    tag_432:\n        /* \"#utility.yul\":15407:15468   */\n      tag_259\n      jump\t// in\n    tag_431:\n        /* \"#utility.yul\":15402:15405   */\n      dup3\n        /* \"#utility.yul\":15395:15469   */\n      mstore\n        /* \"#utility.yul\":15286:15475   */\n      pop\n      pop\n      jump\t// out\n        /* \"#utility.yul\":15481:16051   */\n    tag_181:\n        /* \"#utility.yul\":15665:15668   */\n      0x00\n        /* \"#utility.yul\":15680:15755   */\n      tag_434\n        /* \"#utility.yul\":15751:15754   */\n      dup3\n        /* \"#utility.yul\":15742:15748   */\n      dup7\n        /* \"#utility.yul\":15680:15755   */\n      tag_255\n      jump\t// in\n    tag_434:\n        /* \"#utility.yul\":15780:15782   */\n      0x20\n        /* \"#utility.yul\":15775:15778   */\n      dup3\n        /* \"#utility.yul\":15771:15783   */\n      add\n        /* \"#utility.yul\":15764:15783   */\n      swap2\n      pop\n        /* \"#utility.yul\":15793:15884   */\n      tag_435\n        /* \"#utility.yul\":15880:15883   */\n      dup3\n        /* \"#utility.yul\":15871:15877   */\n      dup6\n        /* \"#utility.yul\":15793:15884   */\n      tag_260\n      jump\t// in\n    tag_435:\n        /* \"#utility.yul\":15909:15911   */\n      0x14\n        /* \"#utility.yul\":15904:15907   */\n      dup3\n        /* \"#utility.yul\":15900:15912   */\n      add\n        /* \"#utility.yul\":15893:15912   */\n      swap2\n      pop\n        /* \"#utility.yul\":15922:15997   */\n      tag_436\n        /* \"#utility.yul\":15993:15996   */\n      dup3\n        /* \"#utility.yul\":15984:15990   */\n      dup5\n        /* \"#utility.yul\":15922:15997   */\n      tag_255\n      jump\t// in\n    tag_436:\n        /* \"#utility.yul\":16022:16024   */\n      0x20\n        /* \"#utility.yul\":16017:16020   */\n      dup3\n        /* \"#utility.yul\":16013:16025   */\n      add\n        /* \"#utility.yul\":16006:16025   */\n      swap2\n      pop\n        /* \"#utility.yul\":16042:16045   */\n      dup2\n        /* \"#utility.yul\":16035:16045   */\n      swap1\n      pop\n        /* \"#utility.yul\":15481:16051   */\n      swap5\n      swap4\n      pop\n      pop\n      pop\n      pop\n      jump\t// out\n        /* \"#utility.yul\":16057:16237   */\n    tag_261:\n        /* \"#utility.yul\":16105:16182   */\n      0x4e487b7100000000000000000000000000000000000000000000000000000000\n        /* \"#utility.yul\":16102:16103   */\n      0x00\n        /* \"#utility.yul\":16095:16183   */\n      mstore\n        /* \"#utility.yul\":16202:16206   */\n      0x12\n        /* \"#utility.yul\":16199:16200   */\n      0x04\n        /* \"#utility.yul\":16192:16207   */\n      mstore\n        /* \"#utility.yul\":16226:16230   */\n      0x24\n        /* \"#utility.yul\":16223:16224   */\n      0x00\n        /* \"#utility.yul\":16216:16231   */\n      revert\n        /* \"#utility.yul\":16243:16419   */\n    tag_183:\n        /* \"#utility.yul\":16275:16276   */\n      0x00\n        /* \"#utility.yul\":16292:16312   */\n      tag_439\n        /* \"#utility.yul\":16310:16311   */\n      dup3\n        /* \"#utility.yul\":16292:16312   */\n      tag_216\n      jump\t// in\n    tag_439:\n        /* \"#utility.yul\":16287:16312   */\n      swap2\n      pop\n        /* \"#utility.yul\":16326:16346   */\n      tag_440\n        /* \"#utility.yul\":16344:16345   */\n      dup4\n        /* \"#utility.yul\":16326:16346   */\n      tag_216\n      jump\t// in\n    tag_440:\n        /* \"#utility.yul\":16321:16346   */\n      swap3\n      pop\n        /* \"#utility.yul\":16365:16366   */\n      dup3\n        /* \"#utility.yul\":16355:16390   */\n      tag_441\n      jumpi\n        /* \"#utility.yul\":16370:16388   */\n      tag_442\n      tag_261\n      jump\t// in\n    tag_442:\n        /* \"#utility.yul\":16355:16390   */\n    tag_441:\n        /* \"#utility.yul\":16411:16412   */\n      dup3\n        /* \"#utility.yul\":16408:16409   */\n      dup3\n        /* \"#utility.yul\":16404:16413   */\n      mod\n        /* \"#utility.yul\":16399:16413   */\n      swap1\n      pop\n        /* \"#utility.yul\":16243:16419   */\n      swap3\n      swap2\n      pop\n      pop\n      jump\t// out\n        /* \"#utility.yul\":16425:16605   */\n    tag_186:\n        /* \"#utility.yul\":16473:16550   */\n      0x4e487b7100000000000000000000000000000000000000000000000000000000\n        /* \"#utility.yul\":16470:16471   */\n      0x00\n        /* \"#utility.yul\":16463:16551   */\n      mstore\n        /* \"#utility.yul\":16570:16574   */\n      0x32\n        /* \"#utility.yul\":16567:16568   */\n      0x04\n        /* \"#utility.yul\":16560:16575   */\n      mstore\n        /* \"#utility.yul\":16594:16598   */\n      0x24\n        /* \"#utility.yul\":16591:16592   */\n      0x00\n        /* \"#utility.yul\":16584:16599   */\n      revert\n        /* \"#utility.yul\":16611:16791   */\n    tag_262:\n        /* \"#utility.yul\":16659:16736   */\n      0x4e487b7100000000000000000000000000000000000000000000000000000000\n        /* \"#utility.yul\":16656:16657   */\n      0x00\n        /* \"#utility.yul\":16649:16737   */\n      mstore\n        /* \"#utility.yul\":16756:16760   */\n      0x41\n        /* \"#utility.yul\":16753:16754   */\n      0x04\n        /* \"#utility.yul\":16746:16761   */\n      mstore\n        /* \"#utility.yul\":16780:16784   */\n      0x24\n        /* \"#utility.yul\":16777:16778   */\n      0x00\n        /* \"#utility.yul\":16770:16785   */\n      revert\n        /* \"#utility.yul\":16797:16938   */\n    tag_263:\n        /* \"#utility.yul\":16846:16850   */\n      0x00\n        /* \"#utility.yul\":16869:16872   */\n      dup2\n        /* \"#utility.yul\":16861:16872   */\n      swap1\n      pop\n        /* \"#utility.yul\":16892:16895   */\n      dup2\n        /* \"#utility.yul\":16889:16890   */\n      0x00\n        /* \"#utility.yul\":16882:16896   */\n      mstore\n        /* \"#utility.yul\":16926:16930   */\n      0x20\n        /* \"#utility.yul\":16923:16924   */\n      0x00\n        /* \"#utility.yul\":16913:16931   */\n      keccak256\n        /* \"#utility.yul\":16905:16931   */\n      swap1\n      pop\n        /* \"#utility.yul\":16797:16938   */\n      swap2\n      swap1\n      pop\n      jump\t// out\n        /* \"#utility.yul\":16944:17037   */\n    tag_264:\n        /* \"#utility.yul\":16981:16987   */\n      0x00\n        /* \"#utility.yul\":17028:17030   */\n      0x20\n        /* \"#utility.yul\":17023:17025   */\n      0x1f\n        /* \"#utility.yul\":17016:17021   */\n      dup4\n        /* \"#utility.yul\":17012:17026   */\n      add\n        /* \"#utility.yul\":17008:17031   */\n      div\n        /* \"#utility.yul\":16998:17031   */\n      swap1\n      pop\n        /* \"#utility.yul\":16944:17037   */\n      swap2\n      swap1\n      pop\n      jump\t// out\n        /* \"#utility.yul\":17043:17150   */\n    tag_265:\n        /* \"#utility.yul\":17087:17095   */\n      0x00\n        /* \"#utility.yul\":17137:17142   */\n      dup3\n        /* \"#utility.yul\":17131:17135   */\n      dup3\n        /* \"#utility.yul\":17127:17143   */\n      shl\n        /* \"#utility.yul\":17106:17143   */\n      swap1\n      pop\n        /* \"#utility.yul\":17043:17150   */\n      swap3\n      swap2\n      pop\n      pop\n      jump\t// out\n        /* \"#utility.yul\":17156:17549   */\n    tag_266:\n        /* \"#utility.yul\":17225:17231   */\n      0x00\n        /* \"#utility.yul\":17275:17276   */\n      0x08\n        /* \"#utility.yul\":17263:17273   */\n      dup4\n        /* \"#utility.yul\":17259:17277   */\n      mul\n        /* \"#utility.yul\":17298:17395   */\n      tag_449\n        /* \"#utility.yul\":17328:17394   */\n      0xffffffffffffffffffffffffffffffffffffffffffffffffffffffffffffffff\n        /* \"#utility.yul\":17317:17326   */\n      dup3\n        /* \"#utility.yul\":17298:17395   */\n      tag_265\n      jump\t// in\n    tag_449:\n        /* \"#utility.yul\":17416:17455   */\n      tag_450\n        /* \"#utility.yul\":17446:17454   */\n      dup7\n        /* \"#utility.yul\":17435:17444   */\n      dup4\n        /* \"#utility.yul\":17416:17455   */\n      tag_265\n      jump\t// in\n    tag_450:\n        /* \"#utility.yul\":17404:17455   */\n      swap6\n      pop\n        /* \"#utility.yul\":17488:17492   */\n      dup1\n        /* \"#utility.yul\":17484:17493   */\n      not\n        /* \"#utility.yul\":17477:17482   */\n      dup5\n        /* \"#utility.yul\":17473:17494   */\n      and\n        /* \"#utility.yul\":17464:17494   */\n      swap4\n      pop\n        /* \"#utility.yul\":17537:17541   */\n      dup1\n        /* \"#utility.yul\":17527:17535   */\n      dup7\n        /* \"#utility.yul\":17523:17542   */\n      and\n        /* \"#utility.yul\":17516:17521   */\n      dup5\n        /* \"#utility.yul\":17513:17543   */\n      or\n        /* \"#utility.yul\":17503:17543   */\n      swap3\n      pop\n        /* \"#utility.yul\":17232:17549   */\n      pop\n      pop\n        /* \"#utility.yul\":17156:17549   */\n      swap4\n      swap3\n      pop\n      pop\n      pop\n      jump\t// out\n        /* \"#utility.yul\":17555:17615   */\n    tag_267:\n        /* \"#utility.yul\":17583:17586   */\n      0x00\n        /* \"#utility.yul\":17604:17609   */\n      dup2\n        /* \"#utility.yul\":17597:17609   */\n      swap1\n      pop\n        /* \"#utility.yul\":17555:17615   */\n      swap2\n      swap1\n      pop\n      jump\t// out\n        /* \"#utility.yul\":17621:17763   */\n    tag_268:\n        /* \"#utility.yul\":17671:17680   */\n      0x00\n        /* \"#utility.yul\":17704:17757   */\n      tag_453\n        /* \"#utility.yul\":17722:17756   */\n      tag_454\n        /* \"#utility.yul\":17731:17755   */\n      tag_455\n        /* \"#utility.yul\":17749:17754   */\n      dup5\n        /* \"#utility.yul\":17731:17755   */\n      tag_216\n      jump\t// in\n    tag_455:\n        /* \"#utility.yul\":17722:17756   */\n      tag_267\n      jump\t// in\n    tag_454:\n        /* \"#utility.yul\":17704:17757   */\n      tag_216\n      jump\t// in\n    tag_453:\n        /* \"#utility.yul\":17691:17757   */\n      swap1\n      pop\n        /* \"#utility.yul\":17621:17763   */\n      swap2\n      swap1\n      pop\n      jump\t// out\n        /* \"#utility.yul\":17769:17844   */\n    tag_269:\n        /* \"#utility.yul\":17812:17815   */\n      0x00\n        /* \"#utility.yul\":17833:17838   */\n      dup2\n        /* \"#utility.yul\":17826:17838   */\n      swap1\n      pop\n        /* \"#utility.yul\":17769:17844   */\n      swap2\n      swap1\n      pop\n      jump\t// out\n        /* \"#utility.yul\":17850:18119   */\n    tag_270:\n        /* \"#utility.yul\":17960:17999   */\n      tag_458\n        /* \"#utility.yul\":17991:17998   */\n      dup4\n        /* \"#utility.yul\":17960:17999   */\n      tag_268\n      jump\t// in\n    tag_458:\n        /* \"#utility.yul\":18021:18112   */\n      tag_459\n        /* \"#utility.yul\":18070:18111   */\n      tag_460\n        /* \"#utility.yul\":18094:18110   */\n      dup3\n        /* \"#utility.yul\":18070:18111   */\n      tag_269\n      jump\t// in\n    tag_460:\n        /* \"#utility.yul\":18062:18068   */\n      dup5\n        /* \"#utility.yul\":18055:18059   */\n      dup5\n        /* \"#utility.yul\":18049:18060   */\n      sload\n        /* \"#utility.yul\":18021:18112   */\n      tag_266\n      jump\t// in\n    tag_459:\n        /* \"#utility.yul\":18015:18019   */\n      dup3\n        /* \"#utility.yul\":18008:18113   */\n      sstore\n        /* \"#utility.yul\":17926:18119   */\n      pop\n        /* \"#utility.yul\":17850:18119   */\n      pop\n      pop\n      pop\n      jump\t// out\n        /* \"#utility.yul\":18125:18198   */\n    tag_271:\n        /* \"#utility.yul\":18170:18173   */\n      0x00\n        /* \"#utility.yul\":18125:18198   */\n      swap1\n      jump\t// out\n        /* \"#utility.yul\":18204:18393   */\n    tag_272:\n        /* \"#utility.yul\":18281:18313   */\n      tag_463\n      tag_271\n      jump\t// in\n    tag_463:\n        /* \"#utility.yul\":18322:18387   */\n      tag_464\n        /* \"#utility.yul\":18380:18386   */\n      dup2\n        /* \"#utility.yul\":18372:18378   */\n      dup5\n        /* \"#utility.yul\":18366:18370   */\n      dup5\n        /* \"#utility.yul\":18322:18387   */\n      tag_270\n      jump\t// in\n    tag_464:\n        /* \"#utility.yul\":18257:18393   */\n      pop\n        /* \"#utility.yul\":18204:18393   */\n      pop\n      pop\n      jump\t// out\n        /* \"#utility.yul\":18399:18585   */\n    tag_273:\n        /* \"#utility.yul\":18459:18579   */\n    tag_466:\n        /* \"#utility.yul\":18476:18479   */\n      dup2\n        /* \"#utility.yul\":18469:18474   */\n      dup2\n        /* \"#utility.yul\":18466:18480   */\n      lt\n        /* \"#utility.yul\":18459:18579   */\n      iszero\n      tag_468\n      jumpi\n        /* \"#utility.yul\":18530:18569   */\n      tag_469\n        /* \"#utility.yul\":18567:18568   */\n      0x00\n        /* \"#utility.yul\":18560:18565   */\n      dup3\n        /* \"#utility.yul\":18530:18569   */\n      tag_272\n      jump\t// in\n    tag_469:\n        /* \"#utility.yul\":18503:18504   */\n      0x01\n        /* \"#utility.yul\":18496:18501   */\n      dup2\n        /* \"#utility.yul\":18492:18505   */\n      add\n        /* \"#utility.yul\":18483:18505   */\n      swap1\n      pop\n        /* \"#utility.yul\":18459:18579   */\n      jump(tag_466)\n    tag_468:\n        /* \"#utility.yul\":18399:18585   */\n      pop\n      pop\n      jump\t// out\n        /* \"#utility.yul\":18591:19134   */\n    tag_274:\n        /* \"#utility.yul\":18692:18694   */\n      0x1f\n        /* \"#utility.yul\":18687:18690   */\n      dup3\n        /* \"#utility.yul\":18684:18695   */\n      gt\n        /* \"#utility.yul\":18681:19127   */\n      iszero\n      tag_471\n      jumpi\n        /* \"#utility.yul\":18726:18764   */\n      tag_472\n        /* \"#utility.yul\":18758:18763   */\n      dup2\n        /* \"#utility.yul\":18726:18764   */\n      tag_263\n      jump\t// in\n    tag_472:\n        /* \"#utility.yul\":18810:18839   */\n      tag_473\n        /* \"#utility.yul\":18828:18838   */\n      dup5\n        /* \"#utility.yul\":18810:18839   */\n      tag_264\n      jump\t// in\n    tag_473:\n        /* \"#utility.yul\":18800:18808   */\n      dup2\n        /* \"#utility.yul\":18796:18840   */\n      add\n        /* \"#utility.yul\":18993:18995   */\n      0x20\n        /* \"#utility.yul\":18981:18991   */\n      dup6\n        /* \"#utility.yul\":18978:18996   */\n      lt\n        /* \"#utility.yul\":18975:19024   */\n      iszero\n      tag_474\n      jumpi\n        /* \"#utility.yul\":19014:19022   */\n      dup2\n        /* \"#utility.yul\":18999:19022   */\n      swap1\n      pop\n        /* \"#utility.yul\":18975:19024   */\n    tag_474:\n        /* \"#utility.yul\":19037:19117   */\n      tag_475\n        /* \"#utility.yul\":19093:19115   */\n      tag_476\n        /* \"#utility.yul\":19111:19114   */\n      dup6\n        /* \"#utility.yul\":19093:19115   */\n      tag_264\n      jump\t// in\n    tag_476:\n        /* \"#utility.yul\":19083:19091   */\n      dup4\n        /* \"#utility.yul\":19079:19116   */\n      add\n        /* \"#utility.yul\":19066:19077   */\n      dup3\n        /* \"#utility.yul\":19037:19117   */\n      tag_273\n      jump\t// in\n    tag_475:\n        /* \"#utility.yul\":18696:19127   */\n      pop\n      pop\n        /* \"#utility.yul\":18681:19127   */\n    tag_471:\n        /* \"#utility.yul\":18591:19134   */\n      pop\n      pop\n      pop\n      jump\t// out\n        /* \"#utility.yul\":19140:19257   */\n    tag_275:\n        /* \"#utility.yul\":19194:19202   */\n      0x00\n        /* \"#utility.yul\":19244:19249   */\n      dup3\n        /* \"#utility.yul\":19238:19242   */\n      dup3\n        /* \"#utility.yul\":19234:19250   */\n      shr\n        /* \"#utility.yul\":19213:19250   */\n      swap1\n      pop\n        /* \"#utility.yul\":19140:19257   */\n      swap3\n      swap2\n      pop\n      pop\n      jump\t// out\n        /* \"#utility.yul\":19263:19432   */\n    tag_276:\n        /* \"#utility.yul\":19307:19313   */\n      0x00\n        /* \"#utility.yul\":19340:19391   */\n      tag_479\n        /* \"#utility.yul\":19388:19389   */\n      0x00\n        /* \"#utility.yul\":19384:19390   */\n      not\n        /* \"#utility.yul\":19376:19381   */\n      dup5\n        /* \"#utility.yul\":19373:19374   */\n      0x08\n        /* \"#utility.yul\":19369:19382   */\n      mul\n        /* \"#utility.yul\":19340:19391   */\n      tag_275\n      jump\t// in\n    tag_479:\n        /* \"#utility.yul\":19336:19392   */\n      not\n        /* \"#utility.yul\":19421:19425   */\n      dup1\n        /* \"#utility.yul\":19415:19419   */\n      dup4\n        /* \"#utility.yul\":19411:19426   */\n      and\n        /* \"#utility.yul\":19401:19426   */\n      swap2\n      pop\n        /* \"#utility.yul\":19314:19432   */\n      pop\n        /* \"#utility.yul\":19263:19432   */\n      swap3\n      swap2\n      pop\n      pop\n      jump\t// out\n        /* \"#utility.yul\":19437:19732   */\n    tag_277:\n        /* \"#utility.yul\":19513:19517   */\n      0x00\n        /* \"#utility.yul\":19659:19688   */\n      tag_481\n        /* \"#utility.yul\":19684:19687   */\n      dup4\n        /* \"#utility.yul\":19678:19682   */\n      dup4\n        /* \"#utility.yul\":19659:19688   */\n      tag_276\n      jump\t// in\n    tag_481:\n        /* \"#utility.yul\":19651:19688   */\n      swap2\n      pop\n        /* \"#utility.yul\":19721:19724   */\n      dup3\n        /* \"#utility.yul\":19718:19719   */\n      0x02\n        /* \"#utility.yul\":19714:19725   */\n      mul\n        /* \"#utility.yul\":19708:19712   */\n      dup3\n        /* \"#utility.yul\":19705:19726   */\n      or\n        /* \"#utility.yul\":19697:19726   */\n      swap1\n      pop\n        /* \"#utility.yul\":19437:19732   */\n      swap3\n      swap2\n      pop\n      pop\n      jump\t// out\n        /* \"#utility.yul\":19737:21132   */\n    tag_203:\n        /* \"#utility.yul\":19854:19891   */\n      tag_483\n        /* \"#utility.yul\":19887:19890   */\n      dup3\n        /* \"#utility.yul\":19854:19891   */\n      tag_218\n      jump\t// in\n    tag_483:\n        /* \"#utility.yul\":19956:19974   */\n      0xffffffffffffffff\n        /* \"#utility.yul\":19948:19954   */\n      dup2\n        /* \"#utility.yul\":19945:19975   */\n      gt\n        /* \"#utility.yul\":19942:19998   */\n      iszero\n      tag_484\n      jumpi\n        /* \"#utility.yul\":19978:19996   */\n      tag_485\n      tag_262\n      jump\t// in\n    tag_485:\n        /* \"#utility.yul\":19942:19998   */\n    tag_484:\n        /* \"#utility.yul\":20022:20060   */\n      tag_486\n        /* \"#utility.yul\":20054:20058   */\n      dup3\n        /* \"#utility.yul\":20048:20059   */\n      sload\n        /* \"#utility.yul\":20022:20060   */\n      tag_121\n      jump\t// in\n    tag_486:\n        /* \"#utility.yul\":20107:20174   */\n      tag_487\n        /* \"#utility.yul\":20167:20173   */\n      dup3\n        /* \"#utility.yul\":20159:20165   */\n      dup3\n        /* \"#utility.yul\":20153:20157   */\n      dup6\n        /* \"#utility.yul\":20107:20174   */\n      tag_274\n      jump\t// in\n    tag_487:\n        /* \"#utility.yul\":20201:20202   */\n      0x00\n        /* \"#utility.yul\":20225:20229   */\n      0x20\n        /* \"#utility.yul\":20212:20229   */\n      swap1\n      pop\n        /* \"#utility.yul\":20257:20259   */\n      0x1f\n        /* \"#utility.yul\":20249:20255   */\n      dup4\n        /* \"#utility.yul\":20246:20260   */\n      gt\n        /* \"#utility.yul\":20274:20275   */\n      0x01\n        /* \"#utility.yul\":20269:20887   */\n      dup2\n      eq\n      tag_489\n      jumpi\n        /* \"#utility.yul\":20931:20932   */\n      0x00\n        /* \"#utility.yul\":20948:20954   */\n      dup5\n        /* \"#utility.yul\":20945:21022   */\n      iszero\n      tag_490\n      jumpi\n        /* \"#utility.yul\":20997:21006   */\n      dup3\n        /* \"#utility.yul\":20992:20995   */\n      dup8\n        /* \"#utility.yul\":20988:21007   */\n      add\n        /* \"#utility.yul\":20982:21008   */\n      mload\n        /* \"#utility.yul\":20973:21008   */\n      swap1\n      pop\n        /* \"#utility.yul\":20945:21022   */\n    tag_490:\n        /* \"#utility.yul\":21048:21115   */\n      tag_491\n        /* \"#utility.yul\":21108:21114   */\n      dup6\n        /* \"#utility.yul\":21101:21106   */\n      dup3\n        /* \"#utility.yul\":21048:21115   */\n      tag_277\n      jump\t// in\n    tag_491:\n        /* \"#utility.yul\":21042:21046   */\n      dup7\n        /* \"#utility.yul\":21035:21116   */\n      sstore\n        /* \"#utility.yul\":20904:21126   */\n      pop\n        /* \"#utility.yul\":20239:21126   */\n      jump(tag_488)\n        /* \"#utility.yul\":20269:20887   */\n    tag_489:\n        /* \"#utility.yul\":20321:20325   */\n      0x1f\n        /* \"#utility.yul\":20317:20326   */\n      not\n        /* \"#utility.yul\":20309:20315   */\n      dup5\n        /* \"#utility.yul\":20305:20327   */\n      and\n        /* \"#utility.yul\":20355:20392   */\n      tag_492\n        /* \"#utility.yul\":20387:20391   */\n      dup7\n        /* \"#utility.yul\":20355:20392   */\n      tag_263\n      jump\t// in\n    tag_492:\n        /* \"#utility.yul\":20414:20415   */\n      0x00\n        /* \"#utility.yul\":20428:20636   */\n    tag_493:\n        /* \"#utility.yul\":20442:20449   */\n      dup3\n        /* \"#utility.yul\":20439:20440   */\n      dup2\n        /* \"#utility.yul\":20436:20450   */\n      lt\n        /* \"#utility.yul\":20428:20636   */\n      iszero\n      tag_495\n      jumpi\n        /* \"#utility.yul\":20521:20530   */\n      dup5\n        /* \"#utility.yul\":20516:20519   */\n      dup10\n        /* \"#utility.yul\":20512:20531   */\n      add\n        /* \"#utility.yul\":20506:20532   */\n      mload\n        /* \"#utility.yul\":20498:20504   */\n      dup3\n        /* \"#utility.yul\":20491:20533   */\n      sstore\n        /* \"#utility.yul\":20572:20573   */\n      0x01\n        /* \"#utility.yul\":20564:20570   */\n      dup3\n        /* \"#utility.yul\":20560:20574   */\n      add\n        /* \"#utility.yul\":20550:20574   */\n      swap2\n      pop\n        /* \"#utility.yul\":20619:20621   */\n      0x20\n        /* \"#utility.yul\":20608:20617   */\n      dup6\n        /* \"#utility.yul\":20604:20622   */\n      add\n        /* \"#utility.yul\":20591:20622   */\n      swap5\n      pop\n        /* \"#utility.yul\":20465:20469   */\n      0x20\n        /* \"#utility.yul\":20462:20463   */\n      dup2\n        /* \"#utility.yul\":20458:20470   */\n      add\n        /* \"#utility.yul\":20453:20470   */\n      swap1\n      pop\n        /* \"#utility.yul\":20428:20636   */\n      jump(tag_493)\n    tag_495:\n        /* \"#utility.yul\":20664:20670   */\n      dup7\n        /* \"#utility.yul\":20655:20662   */\n      dup4\n        /* \"#utility.yul\":20652:20671   */\n      lt\n        /* \"#utility.yul\":20649:20828   */\n      iszero\n      tag_496\n      jumpi\n        /* \"#utility.yul\":20722:20731   */\n      dup5\n        /* \"#utility.yul\":20717:20720   */\n      dup10\n        /* \"#utility.yul\":20713:20732   */\n      add\n        /* \"#utility.yul\":20707:20733   */\n      mload\n        /* \"#utility.yul\":20765:20813   */\n      tag_497\n        /* \"#utility.yul\":20807:20811   */\n      0x1f\n        /* \"#utility.yul\":20799:20805   */\n      dup10\n        /* \"#utility.yul\":20795:20812   */\n      and\n        /* \"#utility.yul\":20784:20793   */\n      dup3\n        /* \"#utility.yul\":20765:20813   */\n      tag_276\n      jump\t// in\n    tag_497:\n        /* \"#utility.yul\":20757:20763   */\n      dup4\n        /* \"#utility.yul\":20750:20814   */\n      sstore\n        /* \"#utility.yul\":20672:20828   */\n      pop\n        /* \"#utility.yul\":20649:20828   */\n    tag_496:\n        /* \"#utility.yul\":20874:20875   */\n      0x01\n        /* \"#utility.yul\":20870:20871   */\n      0x02\n        /* \"#utility.yul\":20862:20868   */\n      dup9\n        /* \"#utility.yul\":20858:20872   */\n      mul\n        /* \"#utility.yul\":20854:20876   */\n      add\n        /* \"#utility.yul\":20848:20852   */\n      dup9\n        /* \"#utility.yul\":20841:20877   */\n      sstore\n        /* \"#utility.yul\":20276:20887   */\n      pop\n      pop\n      pop\n        /* \"#utility.yul\":20239:21126   */\n    tag_488:\n      pop\n        /* \"#utility.yul\":19829:21132   */\n      pop\n      pop\n      pop\n        /* \"#utility.yul\":19737:21132   */\n      pop\n      pop\n      jump\t// out\n        /* \"#utility.yul\":21138:21371   */\n    tag_213:\n        /* \"#utility.yul\":21177:21180   */\n      0x00\n        /* \"#utility.yul\":21200:21224   */\n      tag_499\n        /* \"#utility.yul\":21218:21223   */\n      dup3\n        /* \"#utility.yul\":21200:21224   */\n      tag_216\n      jump\t// in\n    tag_499:\n        /* \"#utility.yul\":21191:21224   */\n      swap2\n      pop\n        /* \"#utility.yul\":21246:21312   */\n      0xffffffffffffffffffffffffffffffffffffffffffffffffffffffffffffffff\n        /* \"#utility.yul\":21239:21244   */\n      dup3\n        /* \"#utility.yul\":21236:21313   */\n      sub\n        /* \"#utility.yul\":21233:21336   */\n      tag_500\n      jumpi\n        /* \"#utility.yul\":21316:21334   */\n      tag_501\n      tag_217\n      jump\t// in\n    tag_501:\n        /* \"#utility.yul\":21233:21336   */\n    tag_500:\n        /* \"#utility.yul\":21363:21364   */\n      0x01\n        /* \"#utility.yul\":21356:21361   */\n      dup3\n        /* \"#utility.yul\":21352:21365   */\n      add\n        /* \"#utility.yul\":21345:21365   */\n      swap1\n      pop\n        /* \"#utility.yul\":21138:21371   */\n      swap2\n      swap1\n      pop\n      jump\t// out\n\n    auxdata: 0xa2646970667358221220e6fa2c0a386da1537dabdfee67c7f94ebdfc50aba426d4546d322959f161c23264736f6c63430008130033\n}\n",
				"bytecode": {
					"linkReferences": {},
					"object": "60806040526012600255683635c9adc5dea0000060075560405180606001604052806040518060400160405280600781526020017f50696b616368750000000000000000000000000000000000000000000000000081525081526020016040518060400160405280600681526020017f4b6f62756b69000000000000000000000000000000000000000000000000000081525081526020016040518060400160405280600581526020017f6c75636b790000000000000000000000000000000000000000000000000000008152508152506008906003620000e2929190620002ed565b50604051806060016040528060405180610100016040528060cf81526020016200297460cf913981526020016040518060a001604052806070815260200162002a436070913981526020016040518060e0016040528060b18152602001620028c360b1913981525060099060036200015c929190620002ed565b503480156200016a57600080fd5b506040518060400160405280600881526020017f506f6b656e6d6f6e0000000000000000000000000000000000000000000000008152506040518060400160405280600381526020017f50544b0000000000000000000000000000000000000000000000000000000000815250620f424033600460006101000a81548173ffffffffffffffffffffffffffffffffffffffff021916908373ffffffffffffffffffffffffffffffffffffffff16021790555082600090816200022d919062000654565b5081600190816200023f919062000654565b506200026e600254600a620002559190620008be565b826200026291906200090f565b6200027760201b60201c565b50505062000995565b80600560003373ffffffffffffffffffffffffffffffffffffffff1673ffffffffffffffffffffffffffffffffffffffff1681526020019081526020016000206000828254620002c891906200095a565b925050819055508060036000828254620002e391906200095a565b9250508190555050565b8280548282559060005260206000209081019282156200033a579160200282015b828111156200033957825182908162000328919062000654565b50916020019190600101906200030e565b5b5090506200034991906200034d565b5090565b5b8082111562000371576000818162000367919062000375565b506001016200034e565b5090565b508054620003839062000443565b6000825580601f10620003975750620003b8565b601f016020900490600052602060002090810190620003b79190620003bb565b5b50565b5b80821115620003d6576000816000905550600101620003bc565b5090565b600081519050919050565b7f4e487b7100000000000000000000000000000000000000000000000000000000600052604160045260246000fd5b7f4e487b7100000000000000000000000000000000000000000000000000000000600052602260045260246000fd5b600060028204905060018216806200045c57607f821691505b60208210810362000472576200047162000414565b5b50919050565b60008190508160005260206000209050919050565b60006020601f8301049050919050565b600082821b905092915050565b600060088302620004dc7fffffffffffffffffffffffffffffffffffffffffffffffffffffffffffffffff826200049d565b620004e886836200049d565b95508019841693508086168417925050509392505050565b6000819050919050565b6000819050919050565b6000620005356200052f620005298462000500565b6200050a565b62000500565b9050919050565b6000819050919050565b620005518362000514565b6200056962000560826200053c565b848454620004aa565b825550505050565b600090565b6200058062000571565b6200058d81848462000546565b505050565b5b81811015620005b557620005a960008262000576565b60018101905062000593565b5050565b601f8211156200060457620005ce8162000478565b620005d9846200048d565b81016020851015620005e9578190505b62000601620005f8856200048d565b83018262000592565b50505b505050565b600082821c905092915050565b6000620006296000198460080262000609565b1980831691505092915050565b600062000644838362000616565b9150826002028217905092915050565b6200065f82620003da565b67ffffffffffffffff8111156200067b576200067a620003e5565b5b62000687825462000443565b62000694828285620005b9565b600060209050601f831160018114620006cc5760008415620006b7578287015190505b620006c3858262000636565b86555062000733565b601f198416620006dc8662000478565b60005b828110156200070657848901518255600182019150602085019450602081019050620006df565b8683101562000726578489015162000722601f89168262000616565b8355505b6001600288020188555050505b505050505050565b7f4e487b7100000000000000000000000000000000000000000000000000000000600052601160045260246000fd5b60008160011c9050919050565b6000808291508390505b6001851115620007c957808604811115620007a157620007a06200073b565b5b6001851615620007b15780820291505b8081029050620007c1856200076a565b945062000781565b94509492505050565b600082620007e45760019050620008b7565b81620007f45760009050620008b7565b81600181146200080d576002811462000818576200084e565b6001915050620008b7565b60ff8411156200082d576200082c6200073b565b5b8360020a9150848211156200084757620008466200073b565b5b50620008b7565b5060208310610133831016604e8410600b8410161715620008885782820a9050838111156200088257620008816200073b565b5b620008b7565b62000897848484600162000777565b92509050818404811115620008b157620008b06200073b565b5b81810290505b9392505050565b6000620008cb8262000500565b9150620008d88362000500565b9250620009077fffffffffffffffffffffffffffffffffffffffffffffffffffffffffffffffff8484620007d2565b905092915050565b60006200091c8262000500565b9150620009298362000500565b9250828202620009398162000500565b915082820484148315176200095357620009526200073b565b5b5092915050565b6000620009678262000500565b9150620009748362000500565b92508282019050808211156200098f576200098e6200073b565b5b92915050565b611f1e80620009a56000396000f3fe6080604052600436106100f75760003560e01c806342966c681161008a578063a9059cbb11610059578063a9059cbb1461050b578063dd62ed3e14610548578063efa9fbc514610585578063f5bf26fc146105c3576102aa565b806342966c681461044f57806370a082311461047857806378196cbc146104b557806395d89b41146104e0576102aa565b806327e235e3116100c657806327e235e31461037f5780632e7099a7146103bc578063313ce567146103e7578063365b98b214610412576102aa565b806306fdde03146102af578063095ea7b3146102da57806318160ddd1461031757806323b872dd14610342576102aa565b366102aa57600060c83461010b9190611405565b90508060056000600460009054906101000a900473ffffffffffffffffffffffffffffffffffffffff1673ffffffffffffffffffffffffffffffffffffffff1673ffffffffffffffffffffffffffffffffffffffff16815260200190815260200160002054101561017b57600080fd5b8060056000600460009054906101000a900473ffffffffffffffffffffffffffffffffffffffff1673ffffffffffffffffffffffffffffffffffffffff1673ffffffffffffffffffffffffffffffffffffffff16815260200190815260200160002060008282546101ec9190611447565b9250508190555080600560003373ffffffffffffffffffffffffffffffffffffffff1673ffffffffffffffffffffffffffffffffffffffff1681526020019081526020016000206000828254610242919061147b565b92505081905550600460009054906101000a900473ffffffffffffffffffffffffffffffffffffffff1673ffffffffffffffffffffffffffffffffffffffff163373ffffffffffffffffffffffffffffffffffffffff16036102a8576102a7816105da565b5b005b600080fd5b3480156102bb57600080fd5b506102c461064c565b6040516102d1919061153f565b60405180910390f35b3480156102e657600080fd5b5061030160048036038101906102fc91906115f0565b6106da565b60405161030e919061164b565b60405180910390f35b34801561032357600080fd5b5061032c610767565b6040516103399190611675565b60405180910390f35b34801561034e57600080fd5b5061036960048036038101906103649190611690565b61076d565b604051610376919061164b565b60405180910390f35b34801561038b57600080fd5b506103a660048036038101906103a191906116e3565b610942565b6040516103b39190611675565b60405180910390f35b3480156103c857600080fd5b506103d161095a565b6040516103de91906117ea565b60405180910390f35b3480156103f357600080fd5b506103fc610a0b565b6040516104099190611675565b60405180910390f35b34801561041e57600080fd5b506104396004803603810190610434919061180c565b610a11565b6040516104469190611848565b60405180910390f35b34801561045b57600080fd5b506104766004803603810190610471919061180c565b610a5b565b005b34801561048457600080fd5b5061049f600480360381019061049a91906116e3565b610acd565b6040516104ac9190611675565b60405180910390f35b3480156104c157600080fd5b506104ca610b16565b6040516104d791906119b3565b60405180910390f35b3480156104ec57600080fd5b506104f5610cd6565b604051610502919061153f565b60405180910390f35b34801561051757600080fd5b50610532600480360381019061052d91906115f0565b610d64565b60405161053f919061164b565b60405180910390f35b34801561055457600080fd5b5061056f600480360381019061056a91906119d5565b610e1c565b60405161057c9190611675565b60405180910390f35b34801561059157600080fd5b506105ac60048036038101906105a791906115f0565b610e41565b6040516105ba929190611a15565b60405180910390f35b3480156105cf57600080fd5b506105d8610f92565b005b80600560003373ffffffffffffffffffffffffffffffffffffffff1673ffffffffffffffffffffffffffffffffffffffff1681526020019081526020016000206000828254610629919061147b565b925050819055508060036000828254610642919061147b565b9250508190555050565b6000805461065990611a7b565b80601f016020809104026020016040519081016040528092919081815260200182805461068590611a7b565b80156106d25780601f106106a7576101008083540402835291602001916106d2565b820191906000526020600020905b8154815290600101906020018083116106b557829003601f168201915b505050505081565b600081600660003373ffffffffffffffffffffffffffffffffffffffff1673ffffffffffffffffffffffffffffffffffffffff16815260200190815260200160002060008573ffffffffffffffffffffffffffffffffffffffff1673ffffffffffffffffffffffffffffffffffffffff168152602001908152602001600020819055506001905092915050565b60035481565b600081600660008673ffffffffffffffffffffffffffffffffffffffff1673ffffffffffffffffffffffffffffffffffffffff16815260200190815260200160002060003373ffffffffffffffffffffffffffffffffffffffff1673ffffffffffffffffffffffffffffffffffffffff1681526020019081526020016000205410156107f857600080fd5b81600660008673ffffffffffffffffffffffffffffffffffffffff1673ffffffffffffffffffffffffffffffffffffffff16815260200190815260200160002060003373ffffffffffffffffffffffffffffffffffffffff1673ffffffffffffffffffffffffffffffffffffffff16815260200190815260200160002060008282546108849190611447565b9250508190555081600560008673ffffffffffffffffffffffffffffffffffffffff1673ffffffffffffffffffffffffffffffffffffffff16815260200190815260200160002060008282546108da9190611447565b9250508190555081600560008573ffffffffffffffffffffffffffffffffffffffff1673ffffffffffffffffffffffffffffffffffffffff1681526020019081526020016000206000828254610930919061147b565b92505081905550600190509392505050565b60056020528060005260406000206000915090505481565b6060600b805480602002602001604051908101604052809291908181526020016000905b82821015610a02578382906000526020600020016040518060200160405290816000820160009054906101000a900473ffffffffffffffffffffffffffffffffffffffff1673ffffffffffffffffffffffffffffffffffffffff1673ffffffffffffffffffffffffffffffffffffffff16815250508152602001906001019061097e565b50505050905090565b60025481565b600b8181548110610a2157600080fd5b906000526020600020016000915090508060000160009054906101000a900473ffffffffffffffffffffffffffffffffffffffff16905081565b80600560003373ffffffffffffffffffffffffffffffffffffffff1673ffffffffffffffffffffffffffffffffffffffff1681526020019081526020016000206000828254610aaa9190611447565b925050819055508060036000828254610ac39190611447565b9250508190555050565b6000600560008373ffffffffffffffffffffffffffffffffffffffff1673ffffffffffffffffffffffffffffffffffffffff168152602001908152602001600020549050919050565b6060600a60003373ffffffffffffffffffffffffffffffffffffffff1673ffffffffffffffffffffffffffffffffffffffff168152602001908152602001600020805480602002602001604051908101604052809291908181526020016000905b82821015610ccd5783829060005260206000209060020201604051806040016040529081600082018054610baa90611a7b565b80601f0160208091040260200160405190810160405280929190818152602001828054610bd690611a7b565b8015610c235780601f10610bf857610100808354040283529160200191610c23565b820191906000526020600020905b815481529060010190602001808311610c0657829003601f168201915b50505050508152602001600182018054610c3c90611a7b565b80601f0160208091040260200160405190810160405280929190818152602001828054610c6890611a7b565b8015610cb55780601f10610c8a57610100808354040283529160200191610cb5565b820191906000526020600020905b815481529060010190602001808311610c9857829003601f168201915b50505050508152505081526020019060010190610b77565b50505050905090565b60018054610ce390611a7b565b80601f0160208091040260200160405190810160405280929190818152602001828054610d0f90611a7b565b8015610d5c5780601f10610d3157610100808354040283529160200191610d5c565b820191906000526020600020905b815481529060010190602001808311610d3f57829003601f168201915b505050505081565b600081600560003373ffffffffffffffffffffffffffffffffffffffff1673ffffffffffffffffffffffffffffffffffffffff1681526020019081526020016000206000828254610db59190611447565b9250508190555081600560008573ffffffffffffffffffffffffffffffffffffffff1673ffffffffffffffffffffffffffffffffffffffff1681526020019081526020016000206000828254610e0b919061147b565b925050819055506001905092915050565b6006602052816000526040600020602052806000526040600020600091509150505481565b600a6020528160005260406000208181548110610e5d57600080fd5b906000526020600020906002020160009150915050806000018054610e8190611a7b565b80601f0160208091040260200160405190810160405280929190818152602001828054610ead90611a7b565b8015610efa5780601f10610ecf57610100808354040283529160200191610efa565b820191906000526020600020905b815481529060010190602001808311610edd57829003601f168201915b505050505090806001018054610f0f90611a7b565b80601f0160208091040260200160405190810160405280929190818152602001828054610f3b90611a7b565b8015610f885780601f10610f5d57610100808354040283529160200191610f88565b820191906000526020600020905b815481529060010190602001808311610f6b57829003601f168201915b5050505050905082565b600754600560003373ffffffffffffffffffffffffffffffffffffffff1673ffffffffffffffffffffffffffffffffffffffff168152602001908152602001600020541015610fe057600080fd5b600754600560003373ffffffffffffffffffffffffffffffffffffffff1673ffffffffffffffffffffffffffffffffffffffff16815260200190815260200160002060008282546110319190611447565b925050819055506007546003600082825461104c9190611447565b92505081905550600042414360405160200161106a93929190611b27565b6040516020818303038152906040528051906020012060001c90506003816110929190611b93565b9050600a60003373ffffffffffffffffffffffffffffffffffffffff1673ffffffffffffffffffffffffffffffffffffffff1681526020019081526020016000206040518060400160405280600984815481106110f2576110f1611bc4565b5b90600052602060002001805461110790611a7b565b80601f016020809104026020016040519081016040528092919081815260200182805461113390611a7b565b80156111805780601f1061115557610100808354040283529160200191611180565b820191906000526020600020905b81548152906001019060200180831161116357829003601f168201915b505050505081526020016008848154811061119e5761119d611bc4565b5b9060005260206000200180546111b390611a7b565b80601f01602080910402602001604051908101604052809291908181526020018280546111df90611a7b565b801561122c5780601f106112015761010080835404028352916020019161122c565b820191906000526020600020905b81548152906001019060200180831161120f57829003601f168201915b5050505050815250908060018154018082558091505060019003906000526020600020906002020160009091909190915060008201518160000190816112729190611dce565b5060208201518160010190816112889190611dce565b5050506000805b600b8054905081101561132c573373ffffffffffffffffffffffffffffffffffffffff16600b82815481106112c7576112c6611bc4565b5b9060005260206000200160000160009054906101000a900473ffffffffffffffffffffffffffffffffffffffff1673ffffffffffffffffffffffffffffffffffffffff1603611319576001915061132c565b808061132490611ea0565b91505061128f565b50806113c857600b60405180602001604052803373ffffffffffffffffffffffffffffffffffffffff168152509080600181540180825580915050600190039060005260206000200160009091909190915060008201518160000160006101000a81548173ffffffffffffffffffffffffffffffffffffffff021916908373ffffffffffffffffffffffffffffffffffffffff16021790555050505b5050565b6000819050919050565b7f4e487b7100000000000000000000000000000000000000000000000000000000600052601160045260246000fd5b6000611410826113cc565b915061141b836113cc565b9250828202611429816113cc565b915082820484148315176114405761143f6113d6565b5b5092915050565b6000611452826113cc565b915061145d836113cc565b9250828203905081811115611475576114746113d6565b5b92915050565b6000611486826113cc565b9150611491836113cc565b92508282019050808211156114a9576114a86113d6565b5b92915050565b600081519050919050565b600082825260208201905092915050565b60005b838110156114e95780820151818401526020810190506114ce565b60008484015250505050565b6000601f19601f8301169050919050565b6000611511826114af565b61151b81856114ba565b935061152b8185602086016114cb565b611534816114f5565b840191505092915050565b600060208201905081810360008301526115598184611506565b905092915050565b600080fd5b600073ffffffffffffffffffffffffffffffffffffffff82169050919050565b600061159182611566565b9050919050565b6115a181611586565b81146115ac57600080fd5b50565b6000813590506115be81611598565b92915050565b6115cd816113cc565b81146115d857600080fd5b50565b6000813590506115ea816115c4565b92915050565b6000806040838503121561160757611606611561565b5b6000611615858286016115af565b9250506020611626858286016115db565b9150509250929050565b60008115159050919050565b61164581611630565b82525050565b6000602082019050611660600083018461163c565b92915050565b61166f816113cc565b82525050565b600060208201905061168a6000830184611666565b92915050565b6000806000606084860312156116a9576116a8611561565b5b60006116b7868287016115af565b93505060206116c8868287016115af565b92505060406116d9868287016115db565b9150509250925092565b6000602082840312156116f9576116f8611561565b5b6000611707848285016115af565b91505092915050565b600081519050919050565b600082825260208201905092915050565b6000819050602082019050919050565b61174581611586565b82525050565b602082016000820151611761600085018261173c565b50505050565b6000611773838361174b565b60208301905092915050565b6000602082019050919050565b600061179782611710565b6117a1818561171b565b93506117ac8361172c565b8060005b838110156117dd5781516117c48882611767565b97506117cf8361177f565b9250506001810190506117b0565b5085935050505092915050565b60006020820190508181036000830152611804818461178c565b905092915050565b60006020828403121561182257611821611561565b5b6000611830848285016115db565b91505092915050565b61184281611586565b82525050565b600060208201905061185d6000830184611839565b92915050565b600081519050919050565b600082825260208201905092915050565b6000819050602082019050919050565b600082825260208201905092915050565b60006118ab826114af565b6118b5818561188f565b93506118c58185602086016114cb565b6118ce816114f5565b840191505092915050565b600060408301600083015184820360008601526118f682826118a0565b9150506020830151848203602086015261191082826118a0565b9150508091505092915050565b600061192983836118d9565b905092915050565b6000602082019050919050565b600061194982611863565b611953818561186e565b9350836020820285016119658561187f565b8060005b858110156119a15784840389528151611982858261191d565b945061198d83611931565b925060208a01995050600181019050611969565b50829750879550505050505092915050565b600060208201905081810360008301526119cd818461193e565b905092915050565b600080604083850312156119ec576119eb611561565b5b60006119fa858286016115af565b9250506020611a0b858286016115af565b9150509250929050565b60006040820190508181036000830152611a2f8185611506565b90508181036020830152611a438184611506565b90509392505050565b7f4e487b7100000000000000000000000000000000000000000000000000000000600052602260045260246000fd5b60006002820490506001821680611a9357607f821691505b602082108103611aa657611aa5611a4c565b5b50919050565b6000819050919050565b611ac7611ac2826113cc565b611aac565b82525050565b6000611ad882611566565b9050919050565b60008160601b9050919050565b6000611af782611adf565b9050919050565b6000611b0982611aec565b9050919050565b611b21611b1c82611acd565b611afe565b82525050565b6000611b338286611ab6565b602082019150611b438285611b10565b601482019150611b538284611ab6565b602082019150819050949350505050565b7f4e487b7100000000000000000000000000000000000000000000000000000000600052601260045260246000fd5b6000611b9e826113cc565b9150611ba9836113cc565b925082611bb957611bb8611b64565b5b828206905092915050565b7f4e487b7100000000000000000000000000000000000000000000000000000000600052603260045260246000fd5b7f4e487b7100000000000000000000000000000000000000000000000000000000600052604160045260246000fd5b60008190508160005260206000209050919050565b60006020601f8301049050919050565b600082821b905092915050565b600060088302611c847fffffffffffffffffffffffffffffffffffffffffffffffffffffffffffffffff82611c47565b611c8e8683611c47565b95508019841693508086168417925050509392505050565b6000819050919050565b6000611ccb611cc6611cc1846113cc565b611ca6565b6113cc565b9050919050565b6000819050919050565b611ce583611cb0565b611cf9611cf182611cd2565b848454611c54565b825550505050565b600090565b611d0e611d01565b611d19818484611cdc565b505050565b5b81811015611d3d57611d32600082611d06565b600181019050611d1f565b5050565b601f821115611d8257611d5381611c22565b611d5c84611c37565b81016020851015611d6b578190505b611d7f611d7785611c37565b830182611d1e565b50505b505050565b600082821c905092915050565b6000611da560001984600802611d87565b1980831691505092915050565b6000611dbe8383611d94565b9150826002028217905092915050565b611dd7826114af565b67ffffffffffffffff811115611df057611def611bf3565b5b611dfa8254611a7b565b611e05828285611d41565b600060209050601f831160018114611e385760008415611e26578287015190505b611e308582611db2565b865550611e98565b601f198416611e4686611c22565b60005b82811015611e6e57848901518255600182019150602085019450602081019050611e49565b86831015611e8b5784890151611e87601f891682611d94565b8355505b6001600288020188555050505b505050505050565b6000611eab826113cc565b91507fffffffffffffffffffffffffffffffffffffffffffffffffffffffffffffffff8203611edd57611edc6113d6565b5b60018201905091905056fea2646970667358221220e6fa2c0a386da1537dabdfee67c7f94ebdfc50aba426d4546d322959f161c23264736f6c6343000813003368747470733a2f2f692e6e616d752e77696b692f692f79565f775362656b59504966782d5450743735723043666c434e45697736337145696d51753277677038716c5a6a354a3033533876423168647871473974383648565372556f4431554675756241454b456a6d314533744e77376c5a664c3776643978666b6d74482d565868756251354177614f6c7a43764c5671724d4d3963673172596f525a4871523769365661756e51627243772e7765627068747470733a2f2f6d626c6f677468756d622d7068696e662e707374617469632e6e65742f4d6a41784f4441334d6a5a664d5449302f4d4441784e544d794e5459354e4441784e444d792e3554736253636749685143745f37493844563743464569784a7578776f4c54396d694d352d436e37764445672e5135356a6c6c5f76423136636f4d3853676a686b2d366c724e7a4663417558574769314556386243585477672e504e472e636170747572653233632f313533323536393337383733372e706e673f747970653d7738303068747470733a2f2f692e6e616d752e77696b692f692f717857336e4f7833634475365547536147544b6d37436b4a6762704935434d4a4849716c6c33594d4148374468434e4a49326536304435764d4f726570526163733453735a48455f6678334a304a664b79344e4e4e512e676966",
					"opcodes": "PUSH1 0x80 PUSH1 0x40 MSTORE PUSH1 0x12 PUSH1 0x2 SSTORE PUSH9 0x3635C9ADC5DEA00000 PUSH1 0x7 SSTORE PUSH1 0x40 MLOAD DUP1 PUSH1 0x60 ADD PUSH1 0x40 MSTORE DUP1 PUSH1 0x40 MLOAD DUP1 PUSH1 0x40 ADD PUSH1 0x40 MSTORE DUP1 PUSH1 0x7 DUP2 MSTORE PUSH1 0x20 ADD PUSH32 0x50696B6163687500000000000000000000000000000000000000000000000000 DUP2 MSTORE POP DUP2 MSTORE PUSH1 0x20 ADD PUSH1 0x40 MLOAD DUP1 PUSH1 0x40 ADD PUSH1 0x40 MSTORE DUP1 PUSH1 0x6 DUP2 MSTORE PUSH1 0x20 ADD PUSH32 0x4B6F62756B690000000000000000000000000000000000000000000000000000 DUP2 MSTORE POP DUP2 MSTORE PUSH1 0x20 ADD PUSH1 0x40 MLOAD DUP1 PUSH1 0x40 ADD PUSH1 0x40 MSTORE DUP1 PUSH1 0x5 DUP2 MSTORE PUSH1 0x20 ADD PUSH32 0x6C75636B79000000000000000000000000000000000000000000000000000000 DUP2 MSTORE POP DUP2 MSTORE POP PUSH1 0x8 SWAP1 PUSH1 0x3 PUSH3 0xE2 SWAP3 SWAP2 SWAP1 PUSH3 0x2ED JUMP JUMPDEST POP PUSH1 0x40 MLOAD DUP1 PUSH1 0x60 ADD PUSH1 0x40 MSTORE DUP1 PUSH1 0x40 MLOAD DUP1 PUSH2 0x100 ADD PUSH1 0x40 MSTORE DUP1 PUSH1 0xCF DUP2 MSTORE PUSH1 0x20 ADD PUSH3 0x2974 PUSH1 0xCF SWAP2 CODECOPY DUP2 MSTORE PUSH1 0x20 ADD PUSH1 0x40 MLOAD DUP1 PUSH1 0xA0 ADD PUSH1 0x40 MSTORE DUP1 PUSH1 0x70 DUP2 MSTORE PUSH1 0x20 ADD PUSH3 0x2A43 PUSH1 0x70 SWAP2 CODECOPY DUP2 MSTORE PUSH1 0x20 ADD PUSH1 0x40 MLOAD DUP1 PUSH1 0xE0 ADD PUSH1 0x40 MSTORE DUP1 PUSH1 0xB1 DUP2 MSTORE PUSH1 0x20 ADD PUSH3 0x28C3 PUSH1 0xB1 SWAP2 CODECOPY DUP2 MSTORE POP PUSH1 0x9 SWAP1 PUSH1 0x3 PUSH3 0x15C SWAP3 SWAP2 SWAP1 PUSH3 0x2ED JUMP JUMPDEST POP CALLVALUE DUP1 ISZERO PUSH3 0x16A JUMPI PUSH1 0x0 DUP1 REVERT JUMPDEST POP PUSH1 0x40 MLOAD DUP1 PUSH1 0x40 ADD PUSH1 0x40 MSTORE DUP1 PUSH1 0x8 DUP2 MSTORE PUSH1 0x20 ADD PUSH32 0x506F6B656E6D6F6E000000000000000000000000000000000000000000000000 DUP2 MSTORE POP PUSH1 0x40 MLOAD DUP1 PUSH1 0x40 ADD PUSH1 0x40 MSTORE DUP1 PUSH1 0x3 DUP2 MSTORE PUSH1 0x20 ADD PUSH32 0x50544B0000000000000000000000000000000000000000000000000000000000 DUP2 MSTORE POP PUSH3 0xF4240 CALLER PUSH1 0x4 PUSH1 0x0 PUSH2 0x100 EXP DUP2 SLOAD DUP2 PUSH20 0xFFFFFFFFFFFFFFFFFFFFFFFFFFFFFFFFFFFFFFFF MUL NOT AND SWAP1 DUP4 PUSH20 0xFFFFFFFFFFFFFFFFFFFFFFFFFFFFFFFFFFFFFFFF AND MUL OR SWAP1 SSTORE POP DUP3 PUSH1 0x0 SWAP1 DUP2 PUSH3 0x22D SWAP2 SWAP1 PUSH3 0x654 JUMP JUMPDEST POP DUP2 PUSH1 0x1 SWAP1 DUP2 PUSH3 0x23F SWAP2 SWAP1 PUSH3 0x654 JUMP JUMPDEST POP PUSH3 0x26E PUSH1 0x2 SLOAD PUSH1 0xA PUSH3 0x255 SWAP2 SWAP1 PUSH3 0x8BE JUMP JUMPDEST DUP3 PUSH3 0x262 SWAP2 SWAP1 PUSH3 0x90F JUMP JUMPDEST PUSH3 0x277 PUSH1 0x20 SHL PUSH1 0x20 SHR JUMP JUMPDEST POP POP POP PUSH3 0x995 JUMP JUMPDEST DUP1 PUSH1 0x5 PUSH1 0x0 CALLER PUSH20 0xFFFFFFFFFFFFFFFFFFFFFFFFFFFFFFFFFFFFFFFF AND PUSH20 0xFFFFFFFFFFFFFFFFFFFFFFFFFFFFFFFFFFFFFFFF AND DUP2 MSTORE PUSH1 0x20 ADD SWAP1 DUP2 MSTORE PUSH1 0x20 ADD PUSH1 0x0 KECCAK256 PUSH1 0x0 DUP3 DUP3 SLOAD PUSH3 0x2C8 SWAP2 SWAP1 PUSH3 0x95A JUMP JUMPDEST SWAP3 POP POP DUP2 SWAP1 SSTORE POP DUP1 PUSH1 0x3 PUSH1 0x0 DUP3 DUP3 SLOAD PUSH3 0x2E3 SWAP2 SWAP1 PUSH3 0x95A JUMP JUMPDEST SWAP3 POP POP DUP2 SWAP1 SSTORE POP POP JUMP JUMPDEST DUP3 DUP1 SLOAD DUP3 DUP3 SSTORE SWAP1 PUSH1 0x0 MSTORE PUSH1 0x20 PUSH1 0x0 KECCAK256 SWAP1 DUP2 ADD SWAP3 DUP3 ISZERO PUSH3 0x33A JUMPI SWAP2 PUSH1 0x20 MUL DUP3 ADD JUMPDEST DUP3 DUP2 GT ISZERO PUSH3 0x339 JUMPI DUP3 MLOAD DUP3 SWAP1 DUP2 PUSH3 0x328 SWAP2 SWAP1 PUSH3 0x654 JUMP JUMPDEST POP SWAP2 PUSH1 0x20 ADD SWAP2 SWAP1 PUSH1 0x1 ADD SWAP1 PUSH3 0x30E JUMP JUMPDEST JUMPDEST POP SWAP1 POP PUSH3 0x349 SWAP2 SWAP1 PUSH3 0x34D JUMP JUMPDEST POP SWAP1 JUMP JUMPDEST JUMPDEST DUP1 DUP3 GT ISZERO PUSH3 0x371 JUMPI PUSH1 0x0 DUP2 DUP2 PUSH3 0x367 SWAP2 SWAP1 PUSH3 0x375 JUMP JUMPDEST POP PUSH1 0x1 ADD PUSH3 0x34E JUMP JUMPDEST POP SWAP1 JUMP JUMPDEST POP DUP1 SLOAD PUSH3 0x383 SWAP1 PUSH3 0x443 JUMP JUMPDEST PUSH1 0x0 DUP3 SSTORE DUP1 PUSH1 0x1F LT PUSH3 0x397 JUMPI POP PUSH3 0x3B8 JUMP JUMPDEST PUSH1 0x1F ADD PUSH1 0x20 SWAP1 DIV SWAP1 PUSH1 0x0 MSTORE PUSH1 0x20 PUSH1 0x0 KECCAK256 SWAP1 DUP2 ADD SWAP1 PUSH3 0x3B7 SWAP2 SWAP1 PUSH3 0x3BB JUMP JUMPDEST JUMPDEST POP JUMP JUMPDEST JUMPDEST DUP1 DUP3 GT ISZERO PUSH3 0x3D6 JUMPI PUSH1 0x0 DUP2 PUSH1 0x0 SWAP1 SSTORE POP PUSH1 0x1 ADD PUSH3 0x3BC JUMP JUMPDEST POP SWAP1 JUMP JUMPDEST PUSH1 0x0 DUP2 MLOAD SWAP1 POP SWAP2 SWAP1 POP JUMP JUMPDEST PUSH32 0x4E487B7100000000000000000000000000000000000000000000000000000000 PUSH1 0x0 MSTORE PUSH1 0x41 PUSH1 0x4 MSTORE PUSH1 0x24 PUSH1 0x0 REVERT JUMPDEST PUSH32 0x4E487B7100000000000000000000000000000000000000000000000000000000 PUSH1 0x0 MSTORE PUSH1 0x22 PUSH1 0x4 MSTORE PUSH1 0x24 PUSH1 0x0 REVERT JUMPDEST PUSH1 0x0 PUSH1 0x2 DUP3 DIV SWAP1 POP PUSH1 0x1 DUP3 AND DUP1 PUSH3 0x45C JUMPI PUSH1 0x7F DUP3 AND SWAP2 POP JUMPDEST PUSH1 0x20 DUP3 LT DUP2 SUB PUSH3 0x472 JUMPI PUSH3 0x471 PUSH3 0x414 JUMP JUMPDEST JUMPDEST POP SWAP2 SWAP1 POP JUMP JUMPDEST PUSH1 0x0 DUP2 SWAP1 POP DUP2 PUSH1 0x0 MSTORE PUSH1 0x20 PUSH1 0x0 KECCAK256 SWAP1 POP SWAP2 SWAP1 POP JUMP JUMPDEST PUSH1 0x0 PUSH1 0x20 PUSH1 0x1F DUP4 ADD DIV SWAP1 POP SWAP2 SWAP1 POP JUMP JUMPDEST PUSH1 0x0 DUP3 DUP3 SHL SWAP1 POP SWAP3 SWAP2 POP POP JUMP JUMPDEST PUSH1 0x0 PUSH1 0x8 DUP4 MUL PUSH3 0x4DC PUSH32 0xFFFFFFFFFFFFFFFFFFFFFFFFFFFFFFFFFFFFFFFFFFFFFFFFFFFFFFFFFFFFFFFF DUP3 PUSH3 0x49D JUMP JUMPDEST PUSH3 0x4E8 DUP7 DUP4 PUSH3 0x49D JUMP JUMPDEST SWAP6 POP DUP1 NOT DUP5 AND SWAP4 POP DUP1 DUP7 AND DUP5 OR SWAP3 POP POP POP SWAP4 SWAP3 POP POP POP JUMP JUMPDEST PUSH1 0x0 DUP2 SWAP1 POP SWAP2 SWAP1 POP JUMP JUMPDEST PUSH1 0x0 DUP2 SWAP1 POP SWAP2 SWAP1 POP JUMP JUMPDEST PUSH1 0x0 PUSH3 0x535 PUSH3 0x52F PUSH3 0x529 DUP5 PUSH3 0x500 JUMP JUMPDEST PUSH3 0x50A JUMP JUMPDEST PUSH3 0x500 JUMP JUMPDEST SWAP1 POP SWAP2 SWAP1 POP JUMP JUMPDEST PUSH1 0x0 DUP2 SWAP1 POP SWAP2 SWAP1 POP JUMP JUMPDEST PUSH3 0x551 DUP4 PUSH3 0x514 JUMP JUMPDEST PUSH3 0x569 PUSH3 0x560 DUP3 PUSH3 0x53C JUMP JUMPDEST DUP5 DUP5 SLOAD PUSH3 0x4AA JUMP JUMPDEST DUP3 SSTORE POP POP POP POP JUMP JUMPDEST PUSH1 0x0 SWAP1 JUMP JUMPDEST PUSH3 0x580 PUSH3 0x571 JUMP JUMPDEST PUSH3 0x58D DUP2 DUP5 DUP5 PUSH3 0x546 JUMP JUMPDEST POP POP POP JUMP JUMPDEST JUMPDEST DUP2 DUP2 LT ISZERO PUSH3 0x5B5 JUMPI PUSH3 0x5A9 PUSH1 0x0 DUP3 PUSH3 0x576 JUMP JUMPDEST PUSH1 0x1 DUP2 ADD SWAP1 POP PUSH3 0x593 JUMP JUMPDEST POP POP JUMP JUMPDEST PUSH1 0x1F DUP3 GT ISZERO PUSH3 0x604 JUMPI PUSH3 0x5CE DUP2 PUSH3 0x478 JUMP JUMPDEST PUSH3 0x5D9 DUP5 PUSH3 0x48D JUMP JUMPDEST DUP2 ADD PUSH1 0x20 DUP6 LT ISZERO PUSH3 0x5E9 JUMPI DUP2 SWAP1 POP JUMPDEST PUSH3 0x601 PUSH3 0x5F8 DUP6 PUSH3 0x48D JUMP JUMPDEST DUP4 ADD DUP3 PUSH3 0x592 JUMP JUMPDEST POP POP JUMPDEST POP POP POP JUMP JUMPDEST PUSH1 0x0 DUP3 DUP3 SHR SWAP1 POP SWAP3 SWAP2 POP POP JUMP JUMPDEST PUSH1 0x0 PUSH3 0x629 PUSH1 0x0 NOT DUP5 PUSH1 0x8 MUL PUSH3 0x609 JUMP JUMPDEST NOT DUP1 DUP4 AND SWAP2 POP POP SWAP3 SWAP2 POP POP JUMP JUMPDEST PUSH1 0x0 PUSH3 0x644 DUP4 DUP4 PUSH3 0x616 JUMP JUMPDEST SWAP2 POP DUP3 PUSH1 0x2 MUL DUP3 OR SWAP1 POP SWAP3 SWAP2 POP POP JUMP JUMPDEST PUSH3 0x65F DUP3 PUSH3 0x3DA JUMP JUMPDEST PUSH8 0xFFFFFFFFFFFFFFFF DUP2 GT ISZERO PUSH3 0x67B JUMPI PUSH3 0x67A PUSH3 0x3E5 JUMP JUMPDEST JUMPDEST PUSH3 0x687 DUP3 SLOAD PUSH3 0x443 JUMP JUMPDEST PUSH3 0x694 DUP3 DUP3 DUP6 PUSH3 0x5B9 JUMP JUMPDEST PUSH1 0x0 PUSH1 0x20 SWAP1 POP PUSH1 0x1F DUP4 GT PUSH1 0x1 DUP2 EQ PUSH3 0x6CC JUMPI PUSH1 0x0 DUP5 ISZERO PUSH3 0x6B7 JUMPI DUP3 DUP8 ADD MLOAD SWAP1 POP JUMPDEST PUSH3 0x6C3 DUP6 DUP3 PUSH3 0x636 JUMP JUMPDEST DUP7 SSTORE POP PUSH3 0x733 JUMP JUMPDEST PUSH1 0x1F NOT DUP5 AND PUSH3 0x6DC DUP7 PUSH3 0x478 JUMP JUMPDEST PUSH1 0x0 JUMPDEST DUP3 DUP2 LT ISZERO PUSH3 0x706 JUMPI DUP5 DUP10 ADD MLOAD DUP3 SSTORE PUSH1 0x1 DUP3 ADD SWAP2 POP PUSH1 0x20 DUP6 ADD SWAP5 POP PUSH1 0x20 DUP2 ADD SWAP1 POP PUSH3 0x6DF JUMP JUMPDEST DUP7 DUP4 LT ISZERO PUSH3 0x726 JUMPI DUP5 DUP10 ADD MLOAD PUSH3 0x722 PUSH1 0x1F DUP10 AND DUP3 PUSH3 0x616 JUMP JUMPDEST DUP4 SSTORE POP JUMPDEST PUSH1 0x1 PUSH1 0x2 DUP9 MUL ADD DUP9 SSTORE POP POP POP JUMPDEST POP POP POP POP POP POP JUMP JUMPDEST PUSH32 0x4E487B7100000000000000000000000000000000000000000000000000000000 PUSH1 0x0 MSTORE PUSH1 0x11 PUSH1 0x4 MSTORE PUSH1 0x24 PUSH1 0x0 REVERT JUMPDEST PUSH1 0x0 DUP2 PUSH1 0x1 SHR SWAP1 POP SWAP2 SWAP1 POP JUMP JUMPDEST PUSH1 0x0 DUP1 DUP3 SWAP2 POP DUP4 SWAP1 POP JUMPDEST PUSH1 0x1 DUP6 GT ISZERO PUSH3 0x7C9 JUMPI DUP1 DUP7 DIV DUP2 GT ISZERO PUSH3 0x7A1 JUMPI PUSH3 0x7A0 PUSH3 0x73B JUMP JUMPDEST JUMPDEST PUSH1 0x1 DUP6 AND ISZERO PUSH3 0x7B1 JUMPI DUP1 DUP3 MUL SWAP2 POP JUMPDEST DUP1 DUP2 MUL SWAP1 POP PUSH3 0x7C1 DUP6 PUSH3 0x76A JUMP JUMPDEST SWAP5 POP PUSH3 0x781 JUMP JUMPDEST SWAP5 POP SWAP5 SWAP3 POP POP POP JUMP JUMPDEST PUSH1 0x0 DUP3 PUSH3 0x7E4 JUMPI PUSH1 0x1 SWAP1 POP PUSH3 0x8B7 JUMP JUMPDEST DUP2 PUSH3 0x7F4 JUMPI PUSH1 0x0 SWAP1 POP PUSH3 0x8B7 JUMP JUMPDEST DUP2 PUSH1 0x1 DUP2 EQ PUSH3 0x80D JUMPI PUSH1 0x2 DUP2 EQ PUSH3 0x818 JUMPI PUSH3 0x84E JUMP JUMPDEST PUSH1 0x1 SWAP2 POP POP PUSH3 0x8B7 JUMP JUMPDEST PUSH1 0xFF DUP5 GT ISZERO PUSH3 0x82D JUMPI PUSH3 0x82C PUSH3 0x73B JUMP JUMPDEST JUMPDEST DUP4 PUSH1 0x2 EXP SWAP2 POP DUP5 DUP3 GT ISZERO PUSH3 0x847 JUMPI PUSH3 0x846 PUSH3 0x73B JUMP JUMPDEST JUMPDEST POP PUSH3 0x8B7 JUMP JUMPDEST POP PUSH1 0x20 DUP4 LT PUSH2 0x133 DUP4 LT AND PUSH1 0x4E DUP5 LT PUSH1 0xB DUP5 LT AND OR ISZERO PUSH3 0x888 JUMPI DUP3 DUP3 EXP SWAP1 POP DUP4 DUP2 GT ISZERO PUSH3 0x882 JUMPI PUSH3 0x881 PUSH3 0x73B JUMP JUMPDEST JUMPDEST PUSH3 0x8B7 JUMP JUMPDEST PUSH3 0x897 DUP5 DUP5 DUP5 PUSH1 0x1 PUSH3 0x777 JUMP JUMPDEST SWAP3 POP SWAP1 POP DUP2 DUP5 DIV DUP2 GT ISZERO PUSH3 0x8B1 JUMPI PUSH3 0x8B0 PUSH3 0x73B JUMP JUMPDEST JUMPDEST DUP2 DUP2 MUL SWAP1 POP JUMPDEST SWAP4 SWAP3 POP POP POP JUMP JUMPDEST PUSH1 0x0 PUSH3 0x8CB DUP3 PUSH3 0x500 JUMP JUMPDEST SWAP2 POP PUSH3 0x8D8 DUP4 PUSH3 0x500 JUMP JUMPDEST SWAP3 POP PUSH3 0x907 PUSH32 0xFFFFFFFFFFFFFFFFFFFFFFFFFFFFFFFFFFFFFFFFFFFFFFFFFFFFFFFFFFFFFFFF DUP5 DUP5 PUSH3 0x7D2 JUMP JUMPDEST SWAP1 POP SWAP3 SWAP2 POP POP JUMP JUMPDEST PUSH1 0x0 PUSH3 0x91C DUP3 PUSH3 0x500 JUMP JUMPDEST SWAP2 POP PUSH3 0x929 DUP4 PUSH3 0x500 JUMP JUMPDEST SWAP3 POP DUP3 DUP3 MUL PUSH3 0x939 DUP2 PUSH3 0x500 JUMP JUMPDEST SWAP2 POP DUP3 DUP3 DIV DUP5 EQ DUP4 ISZERO OR PUSH3 0x953 JUMPI PUSH3 0x952 PUSH3 0x73B JUMP JUMPDEST JUMPDEST POP SWAP3 SWAP2 POP POP JUMP JUMPDEST PUSH1 0x0 PUSH3 0x967 DUP3 PUSH3 0x500 JUMP JUMPDEST SWAP2 POP PUSH3 0x974 DUP4 PUSH3 0x500 JUMP JUMPDEST SWAP3 POP DUP3 DUP3 ADD SWAP1 POP DUP1 DUP3 GT ISZERO PUSH3 0x98F JUMPI PUSH3 0x98E PUSH3 0x73B JUMP JUMPDEST JUMPDEST SWAP3 SWAP2 POP POP JUMP JUMPDEST PUSH2 0x1F1E DUP1 PUSH3 0x9A5 PUSH1 0x0 CODECOPY PUSH1 0x0 RETURN INVALID PUSH1 0x80 PUSH1 0x40 MSTORE PUSH1 0x4 CALLDATASIZE LT PUSH2 0xF7 JUMPI PUSH1 0x0 CALLDATALOAD PUSH1 0xE0 SHR DUP1 PUSH4 0x42966C68 GT PUSH2 0x8A JUMPI DUP1 PUSH4 0xA9059CBB GT PUSH2 0x59 JUMPI DUP1 PUSH4 0xA9059CBB EQ PUSH2 0x50B JUMPI DUP1 PUSH4 0xDD62ED3E EQ PUSH2 0x548 JUMPI DUP1 PUSH4 0xEFA9FBC5 EQ PUSH2 0x585 JUMPI DUP1 PUSH4 0xF5BF26FC EQ PUSH2 0x5C3 JUMPI PUSH2 0x2AA JUMP JUMPDEST DUP1 PUSH4 0x42966C68 EQ PUSH2 0x44F JUMPI DUP1 PUSH4 0x70A08231 EQ PUSH2 0x478 JUMPI DUP1 PUSH4 0x78196CBC EQ PUSH2 0x4B5 JUMPI DUP1 PUSH4 0x95D89B41 EQ PUSH2 0x4E0 JUMPI PUSH2 0x2AA JUMP JUMPDEST DUP1 PUSH4 0x27E235E3 GT PUSH2 0xC6 JUMPI DUP1 PUSH4 0x27E235E3 EQ PUSH2 0x37F JUMPI DUP1 PUSH4 0x2E7099A7 EQ PUSH2 0x3BC JUMPI DUP1 PUSH4 0x313CE567 EQ PUSH2 0x3E7 JUMPI DUP1 PUSH4 0x365B98B2 EQ PUSH2 0x412 JUMPI PUSH2 0x2AA JUMP JUMPDEST DUP1 PUSH4 0x6FDDE03 EQ PUSH2 0x2AF JUMPI DUP1 PUSH4 0x95EA7B3 EQ PUSH2 0x2DA JUMPI DUP1 PUSH4 0x18160DDD EQ PUSH2 0x317 JUMPI DUP1 PUSH4 0x23B872DD EQ PUSH2 0x342 JUMPI PUSH2 0x2AA JUMP JUMPDEST CALLDATASIZE PUSH2 0x2AA JUMPI PUSH1 0x0 PUSH1 0xC8 CALLVALUE PUSH2 0x10B SWAP2 SWAP1 PUSH2 0x1405 JUMP JUMPDEST SWAP1 POP DUP1 PUSH1 0x5 PUSH1 0x0 PUSH1 0x4 PUSH1 0x0 SWAP1 SLOAD SWAP1 PUSH2 0x100 EXP SWAP1 DIV PUSH20 0xFFFFFFFFFFFFFFFFFFFFFFFFFFFFFFFFFFFFFFFF AND PUSH20 0xFFFFFFFFFFFFFFFFFFFFFFFFFFFFFFFFFFFFFFFF AND PUSH20 0xFFFFFFFFFFFFFFFFFFFFFFFFFFFFFFFFFFFFFFFF AND DUP2 MSTORE PUSH1 0x20 ADD SWAP1 DUP2 MSTORE PUSH1 0x20 ADD PUSH1 0x0 KECCAK256 SLOAD LT ISZERO PUSH2 0x17B JUMPI PUSH1 0x0 DUP1 REVERT JUMPDEST DUP1 PUSH1 0x5 PUSH1 0x0 PUSH1 0x4 PUSH1 0x0 SWAP1 SLOAD SWAP1 PUSH2 0x100 EXP SWAP1 DIV PUSH20 0xFFFFFFFFFFFFFFFFFFFFFFFFFFFFFFFFFFFFFFFF AND PUSH20 0xFFFFFFFFFFFFFFFFFFFFFFFFFFFFFFFFFFFFFFFF AND PUSH20 0xFFFFFFFFFFFFFFFFFFFFFFFFFFFFFFFFFFFFFFFF AND DUP2 MSTORE PUSH1 0x20 ADD SWAP1 DUP2 MSTORE PUSH1 0x20 ADD PUSH1 0x0 KECCAK256 PUSH1 0x0 DUP3 DUP3 SLOAD PUSH2 0x1EC SWAP2 SWAP1 PUSH2 0x1447 JUMP JUMPDEST SWAP3 POP POP DUP2 SWAP1 SSTORE POP DUP1 PUSH1 0x5 PUSH1 0x0 CALLER PUSH20 0xFFFFFFFFFFFFFFFFFFFFFFFFFFFFFFFFFFFFFFFF AND PUSH20 0xFFFFFFFFFFFFFFFFFFFFFFFFFFFFFFFFFFFFFFFF AND DUP2 MSTORE PUSH1 0x20 ADD SWAP1 DUP2 MSTORE PUSH1 0x20 ADD PUSH1 0x0 KECCAK256 PUSH1 0x0 DUP3 DUP3 SLOAD PUSH2 0x242 SWAP2 SWAP1 PUSH2 0x147B JUMP JUMPDEST SWAP3 POP POP DUP2 SWAP1 SSTORE POP PUSH1 0x4 PUSH1 0x0 SWAP1 SLOAD SWAP1 PUSH2 0x100 EXP SWAP1 DIV PUSH20 0xFFFFFFFFFFFFFFFFFFFFFFFFFFFFFFFFFFFFFFFF AND PUSH20 0xFFFFFFFFFFFFFFFFFFFFFFFFFFFFFFFFFFFFFFFF AND CALLER PUSH20 0xFFFFFFFFFFFFFFFFFFFFFFFFFFFFFFFFFFFFFFFF AND SUB PUSH2 0x2A8 JUMPI PUSH2 0x2A7 DUP2 PUSH2 0x5DA JUMP JUMPDEST JUMPDEST STOP JUMPDEST PUSH1 0x0 DUP1 REVERT JUMPDEST CALLVALUE DUP1 ISZERO PUSH2 0x2BB JUMPI PUSH1 0x0 DUP1 REVERT JUMPDEST POP PUSH2 0x2C4 PUSH2 0x64C JUMP JUMPDEST PUSH1 0x40 MLOAD PUSH2 0x2D1 SWAP2 SWAP1 PUSH2 0x153F JUMP JUMPDEST PUSH1 0x40 MLOAD DUP1 SWAP2 SUB SWAP1 RETURN JUMPDEST CALLVALUE DUP1 ISZERO PUSH2 0x2E6 JUMPI PUSH1 0x0 DUP1 REVERT JUMPDEST POP PUSH2 0x301 PUSH1 0x4 DUP1 CALLDATASIZE SUB DUP2 ADD SWAP1 PUSH2 0x2FC SWAP2 SWAP1 PUSH2 0x15F0 JUMP JUMPDEST PUSH2 0x6DA JUMP JUMPDEST PUSH1 0x40 MLOAD PUSH2 0x30E SWAP2 SWAP1 PUSH2 0x164B JUMP JUMPDEST PUSH1 0x40 MLOAD DUP1 SWAP2 SUB SWAP1 RETURN JUMPDEST CALLVALUE DUP1 ISZERO PUSH2 0x323 JUMPI PUSH1 0x0 DUP1 REVERT JUMPDEST POP PUSH2 0x32C PUSH2 0x767 JUMP JUMPDEST PUSH1 0x40 MLOAD PUSH2 0x339 SWAP2 SWAP1 PUSH2 0x1675 JUMP JUMPDEST PUSH1 0x40 MLOAD DUP1 SWAP2 SUB SWAP1 RETURN JUMPDEST CALLVALUE DUP1 ISZERO PUSH2 0x34E JUMPI PUSH1 0x0 DUP1 REVERT JUMPDEST POP PUSH2 0x369 PUSH1 0x4 DUP1 CALLDATASIZE SUB DUP2 ADD SWAP1 PUSH2 0x364 SWAP2 SWAP1 PUSH2 0x1690 JUMP JUMPDEST PUSH2 0x76D JUMP JUMPDEST PUSH1 0x40 MLOAD PUSH2 0x376 SWAP2 SWAP1 PUSH2 0x164B JUMP JUMPDEST PUSH1 0x40 MLOAD DUP1 SWAP2 SUB SWAP1 RETURN JUMPDEST CALLVALUE DUP1 ISZERO PUSH2 0x38B JUMPI PUSH1 0x0 DUP1 REVERT JUMPDEST POP PUSH2 0x3A6 PUSH1 0x4 DUP1 CALLDATASIZE SUB DUP2 ADD SWAP1 PUSH2 0x3A1 SWAP2 SWAP1 PUSH2 0x16E3 JUMP JUMPDEST PUSH2 0x942 JUMP JUMPDEST PUSH1 0x40 MLOAD PUSH2 0x3B3 SWAP2 SWAP1 PUSH2 0x1675 JUMP JUMPDEST PUSH1 0x40 MLOAD DUP1 SWAP2 SUB SWAP1 RETURN JUMPDEST CALLVALUE DUP1 ISZERO PUSH2 0x3C8 JUMPI PUSH1 0x0 DUP1 REVERT JUMPDEST POP PUSH2 0x3D1 PUSH2 0x95A JUMP JUMPDEST PUSH1 0x40 MLOAD PUSH2 0x3DE SWAP2 SWAP1 PUSH2 0x17EA JUMP JUMPDEST PUSH1 0x40 MLOAD DUP1 SWAP2 SUB SWAP1 RETURN JUMPDEST CALLVALUE DUP1 ISZERO PUSH2 0x3F3 JUMPI PUSH1 0x0 DUP1 REVERT JUMPDEST POP PUSH2 0x3FC PUSH2 0xA0B JUMP JUMPDEST PUSH1 0x40 MLOAD PUSH2 0x409 SWAP2 SWAP1 PUSH2 0x1675 JUMP JUMPDEST PUSH1 0x40 MLOAD DUP1 SWAP2 SUB SWAP1 RETURN JUMPDEST CALLVALUE DUP1 ISZERO PUSH2 0x41E JUMPI PUSH1 0x0 DUP1 REVERT JUMPDEST POP PUSH2 0x439 PUSH1 0x4 DUP1 CALLDATASIZE SUB DUP2 ADD SWAP1 PUSH2 0x434 SWAP2 SWAP1 PUSH2 0x180C JUMP JUMPDEST PUSH2 0xA11 JUMP JUMPDEST PUSH1 0x40 MLOAD PUSH2 0x446 SWAP2 SWAP1 PUSH2 0x1848 JUMP JUMPDEST PUSH1 0x40 MLOAD DUP1 SWAP2 SUB SWAP1 RETURN JUMPDEST CALLVALUE DUP1 ISZERO PUSH2 0x45B JUMPI PUSH1 0x0 DUP1 REVERT JUMPDEST POP PUSH2 0x476 PUSH1 0x4 DUP1 CALLDATASIZE SUB DUP2 ADD SWAP1 PUSH2 0x471 SWAP2 SWAP1 PUSH2 0x180C JUMP JUMPDEST PUSH2 0xA5B JUMP JUMPDEST STOP JUMPDEST CALLVALUE DUP1 ISZERO PUSH2 0x484 JUMPI PUSH1 0x0 DUP1 REVERT JUMPDEST POP PUSH2 0x49F PUSH1 0x4 DUP1 CALLDATASIZE SUB DUP2 ADD SWAP1 PUSH2 0x49A SWAP2 SWAP1 PUSH2 0x16E3 JUMP JUMPDEST PUSH2 0xACD JUMP JUMPDEST PUSH1 0x40 MLOAD PUSH2 0x4AC SWAP2 SWAP1 PUSH2 0x1675 JUMP JUMPDEST PUSH1 0x40 MLOAD DUP1 SWAP2 SUB SWAP1 RETURN JUMPDEST CALLVALUE DUP1 ISZERO PUSH2 0x4C1 JUMPI PUSH1 0x0 DUP1 REVERT JUMPDEST POP PUSH2 0x4CA PUSH2 0xB16 JUMP JUMPDEST PUSH1 0x40 MLOAD PUSH2 0x4D7 SWAP2 SWAP1 PUSH2 0x19B3 JUMP JUMPDEST PUSH1 0x40 MLOAD DUP1 SWAP2 SUB SWAP1 RETURN JUMPDEST CALLVALUE DUP1 ISZERO PUSH2 0x4EC JUMPI PUSH1 0x0 DUP1 REVERT JUMPDEST POP PUSH2 0x4F5 PUSH2 0xCD6 JUMP JUMPDEST PUSH1 0x40 MLOAD PUSH2 0x502 SWAP2 SWAP1 PUSH2 0x153F JUMP JUMPDEST PUSH1 0x40 MLOAD DUP1 SWAP2 SUB SWAP1 RETURN JUMPDEST CALLVALUE DUP1 ISZERO PUSH2 0x517 JUMPI PUSH1 0x0 DUP1 REVERT JUMPDEST POP PUSH2 0x532 PUSH1 0x4 DUP1 CALLDATASIZE SUB DUP2 ADD SWAP1 PUSH2 0x52D SWAP2 SWAP1 PUSH2 0x15F0 JUMP JUMPDEST PUSH2 0xD64 JUMP JUMPDEST PUSH1 0x40 MLOAD PUSH2 0x53F SWAP2 SWAP1 PUSH2 0x164B JUMP JUMPDEST PUSH1 0x40 MLOAD DUP1 SWAP2 SUB SWAP1 RETURN JUMPDEST CALLVALUE DUP1 ISZERO PUSH2 0x554 JUMPI PUSH1 0x0 DUP1 REVERT JUMPDEST POP PUSH2 0x56F PUSH1 0x4 DUP1 CALLDATASIZE SUB DUP2 ADD SWAP1 PUSH2 0x56A SWAP2 SWAP1 PUSH2 0x19D5 JUMP JUMPDEST PUSH2 0xE1C JUMP JUMPDEST PUSH1 0x40 MLOAD PUSH2 0x57C SWAP2 SWAP1 PUSH2 0x1675 JUMP JUMPDEST PUSH1 0x40 MLOAD DUP1 SWAP2 SUB SWAP1 RETURN JUMPDEST CALLVALUE DUP1 ISZERO PUSH2 0x591 JUMPI PUSH1 0x0 DUP1 REVERT JUMPDEST POP PUSH2 0x5AC PUSH1 0x4 DUP1 CALLDATASIZE SUB DUP2 ADD SWAP1 PUSH2 0x5A7 SWAP2 SWAP1 PUSH2 0x15F0 JUMP JUMPDEST PUSH2 0xE41 JUMP JUMPDEST PUSH1 0x40 MLOAD PUSH2 0x5BA SWAP3 SWAP2 SWAP1 PUSH2 0x1A15 JUMP JUMPDEST PUSH1 0x40 MLOAD DUP1 SWAP2 SUB SWAP1 RETURN JUMPDEST CALLVALUE DUP1 ISZERO PUSH2 0x5CF JUMPI PUSH1 0x0 DUP1 REVERT JUMPDEST POP PUSH2 0x5D8 PUSH2 0xF92 JUMP JUMPDEST STOP JUMPDEST DUP1 PUSH1 0x5 PUSH1 0x0 CALLER PUSH20 0xFFFFFFFFFFFFFFFFFFFFFFFFFFFFFFFFFFFFFFFF AND PUSH20 0xFFFFFFFFFFFFFFFFFFFFFFFFFFFFFFFFFFFFFFFF AND DUP2 MSTORE PUSH1 0x20 ADD SWAP1 DUP2 MSTORE PUSH1 0x20 ADD PUSH1 0x0 KECCAK256 PUSH1 0x0 DUP3 DUP3 SLOAD PUSH2 0x629 SWAP2 SWAP1 PUSH2 0x147B JUMP JUMPDEST SWAP3 POP POP DUP2 SWAP1 SSTORE POP DUP1 PUSH1 0x3 PUSH1 0x0 DUP3 DUP3 SLOAD PUSH2 0x642 SWAP2 SWAP1 PUSH2 0x147B JUMP JUMPDEST SWAP3 POP POP DUP2 SWAP1 SSTORE POP POP JUMP JUMPDEST PUSH1 0x0 DUP1 SLOAD PUSH2 0x659 SWAP1 PUSH2 0x1A7B JUMP JUMPDEST DUP1 PUSH1 0x1F ADD PUSH1 0x20 DUP1 SWAP2 DIV MUL PUSH1 0x20 ADD PUSH1 0x40 MLOAD SWAP1 DUP2 ADD PUSH1 0x40 MSTORE DUP1 SWAP3 SWAP2 SWAP1 DUP2 DUP2 MSTORE PUSH1 0x20 ADD DUP3 DUP1 SLOAD PUSH2 0x685 SWAP1 PUSH2 0x1A7B JUMP JUMPDEST DUP1 ISZERO PUSH2 0x6D2 JUMPI DUP1 PUSH1 0x1F LT PUSH2 0x6A7 JUMPI PUSH2 0x100 DUP1 DUP4 SLOAD DIV MUL DUP4 MSTORE SWAP2 PUSH1 0x20 ADD SWAP2 PUSH2 0x6D2 JUMP JUMPDEST DUP3 ADD SWAP2 SWAP1 PUSH1 0x0 MSTORE PUSH1 0x20 PUSH1 0x0 KECCAK256 SWAP1 JUMPDEST DUP2 SLOAD DUP2 MSTORE SWAP1 PUSH1 0x1 ADD SWAP1 PUSH1 0x20 ADD DUP1 DUP4 GT PUSH2 0x6B5 JUMPI DUP3 SWAP1 SUB PUSH1 0x1F AND DUP3 ADD SWAP2 JUMPDEST POP POP POP POP POP DUP2 JUMP JUMPDEST PUSH1 0x0 DUP2 PUSH1 0x6 PUSH1 0x0 CALLER PUSH20 0xFFFFFFFFFFFFFFFFFFFFFFFFFFFFFFFFFFFFFFFF AND PUSH20 0xFFFFFFFFFFFFFFFFFFFFFFFFFFFFFFFFFFFFFFFF AND DUP2 MSTORE PUSH1 0x20 ADD SWAP1 DUP2 MSTORE PUSH1 0x20 ADD PUSH1 0x0 KECCAK256 PUSH1 0x0 DUP6 PUSH20 0xFFFFFFFFFFFFFFFFFFFFFFFFFFFFFFFFFFFFFFFF AND PUSH20 0xFFFFFFFFFFFFFFFFFFFFFFFFFFFFFFFFFFFFFFFF AND DUP2 MSTORE PUSH1 0x20 ADD SWAP1 DUP2 MSTORE PUSH1 0x20 ADD PUSH1 0x0 KECCAK256 DUP2 SWAP1 SSTORE POP PUSH1 0x1 SWAP1 POP SWAP3 SWAP2 POP POP JUMP JUMPDEST PUSH1 0x3 SLOAD DUP2 JUMP JUMPDEST PUSH1 0x0 DUP2 PUSH1 0x6 PUSH1 0x0 DUP7 PUSH20 0xFFFFFFFFFFFFFFFFFFFFFFFFFFFFFFFFFFFFFFFF AND PUSH20 0xFFFFFFFFFFFFFFFFFFFFFFFFFFFFFFFFFFFFFFFF AND DUP2 MSTORE PUSH1 0x20 ADD SWAP1 DUP2 MSTORE PUSH1 0x20 ADD PUSH1 0x0 KECCAK256 PUSH1 0x0 CALLER PUSH20 0xFFFFFFFFFFFFFFFFFFFFFFFFFFFFFFFFFFFFFFFF AND PUSH20 0xFFFFFFFFFFFFFFFFFFFFFFFFFFFFFFFFFFFFFFFF AND DUP2 MSTORE PUSH1 0x20 ADD SWAP1 DUP2 MSTORE PUSH1 0x20 ADD PUSH1 0x0 KECCAK256 SLOAD LT ISZERO PUSH2 0x7F8 JUMPI PUSH1 0x0 DUP1 REVERT JUMPDEST DUP2 PUSH1 0x6 PUSH1 0x0 DUP7 PUSH20 0xFFFFFFFFFFFFFFFFFFFFFFFFFFFFFFFFFFFFFFFF AND PUSH20 0xFFFFFFFFFFFFFFFFFFFFFFFFFFFFFFFFFFFFFFFF AND DUP2 MSTORE PUSH1 0x20 ADD SWAP1 DUP2 MSTORE PUSH1 0x20 ADD PUSH1 0x0 KECCAK256 PUSH1 0x0 CALLER PUSH20 0xFFFFFFFFFFFFFFFFFFFFFFFFFFFFFFFFFFFFFFFF AND PUSH20 0xFFFFFFFFFFFFFFFFFFFFFFFFFFFFFFFFFFFFFFFF AND DUP2 MSTORE PUSH1 0x20 ADD SWAP1 DUP2 MSTORE PUSH1 0x20 ADD PUSH1 0x0 KECCAK256 PUSH1 0x0 DUP3 DUP3 SLOAD PUSH2 0x884 SWAP2 SWAP1 PUSH2 0x1447 JUMP JUMPDEST SWAP3 POP POP DUP2 SWAP1 SSTORE POP DUP2 PUSH1 0x5 PUSH1 0x0 DUP7 PUSH20 0xFFFFFFFFFFFFFFFFFFFFFFFFFFFFFFFFFFFFFFFF AND PUSH20 0xFFFFFFFFFFFFFFFFFFFFFFFFFFFFFFFFFFFFFFFF AND DUP2 MSTORE PUSH1 0x20 ADD SWAP1 DUP2 MSTORE PUSH1 0x20 ADD PUSH1 0x0 KECCAK256 PUSH1 0x0 DUP3 DUP3 SLOAD PUSH2 0x8DA SWAP2 SWAP1 PUSH2 0x1447 JUMP JUMPDEST SWAP3 POP POP DUP2 SWAP1 SSTORE POP DUP2 PUSH1 0x5 PUSH1 0x0 DUP6 PUSH20 0xFFFFFFFFFFFFFFFFFFFFFFFFFFFFFFFFFFFFFFFF AND PUSH20 0xFFFFFFFFFFFFFFFFFFFFFFFFFFFFFFFFFFFFFFFF AND DUP2 MSTORE PUSH1 0x20 ADD SWAP1 DUP2 MSTORE PUSH1 0x20 ADD PUSH1 0x0 KECCAK256 PUSH1 0x0 DUP3 DUP3 SLOAD PUSH2 0x930 SWAP2 SWAP1 PUSH2 0x147B JUMP JUMPDEST SWAP3 POP POP DUP2 SWAP1 SSTORE POP PUSH1 0x1 SWAP1 POP SWAP4 SWAP3 POP POP POP JUMP JUMPDEST PUSH1 0x5 PUSH1 0x20 MSTORE DUP1 PUSH1 0x0 MSTORE PUSH1 0x40 PUSH1 0x0 KECCAK256 PUSH1 0x0 SWAP2 POP SWAP1 POP SLOAD DUP2 JUMP JUMPDEST PUSH1 0x60 PUSH1 0xB DUP1 SLOAD DUP1 PUSH1 0x20 MUL PUSH1 0x20 ADD PUSH1 0x40 MLOAD SWAP1 DUP2 ADD PUSH1 0x40 MSTORE DUP1 SWAP3 SWAP2 SWAP1 DUP2 DUP2 MSTORE PUSH1 0x20 ADD PUSH1 0x0 SWAP1 JUMPDEST DUP3 DUP3 LT ISZERO PUSH2 0xA02 JUMPI DUP4 DUP3 SWAP1 PUSH1 0x0 MSTORE PUSH1 0x20 PUSH1 0x0 KECCAK256 ADD PUSH1 0x40 MLOAD DUP1 PUSH1 0x20 ADD PUSH1 0x40 MSTORE SWAP1 DUP2 PUSH1 0x0 DUP3 ADD PUSH1 0x0 SWAP1 SLOAD SWAP1 PUSH2 0x100 EXP SWAP1 DIV PUSH20 0xFFFFFFFFFFFFFFFFFFFFFFFFFFFFFFFFFFFFFFFF AND PUSH20 0xFFFFFFFFFFFFFFFFFFFFFFFFFFFFFFFFFFFFFFFF AND PUSH20 0xFFFFFFFFFFFFFFFFFFFFFFFFFFFFFFFFFFFFFFFF AND DUP2 MSTORE POP POP DUP2 MSTORE PUSH1 0x20 ADD SWAP1 PUSH1 0x1 ADD SWAP1 PUSH2 0x97E JUMP JUMPDEST POP POP POP POP SWAP1 POP SWAP1 JUMP JUMPDEST PUSH1 0x2 SLOAD DUP2 JUMP JUMPDEST PUSH1 0xB DUP2 DUP2 SLOAD DUP2 LT PUSH2 0xA21 JUMPI PUSH1 0x0 DUP1 REVERT JUMPDEST SWAP1 PUSH1 0x0 MSTORE PUSH1 0x20 PUSH1 0x0 KECCAK256 ADD PUSH1 0x0 SWAP2 POP SWAP1 POP DUP1 PUSH1 0x0 ADD PUSH1 0x0 SWAP1 SLOAD SWAP1 PUSH2 0x100 EXP SWAP1 DIV PUSH20 0xFFFFFFFFFFFFFFFFFFFFFFFFFFFFFFFFFFFFFFFF AND SWAP1 POP DUP2 JUMP JUMPDEST DUP1 PUSH1 0x5 PUSH1 0x0 CALLER PUSH20 0xFFFFFFFFFFFFFFFFFFFFFFFFFFFFFFFFFFFFFFFF AND PUSH20 0xFFFFFFFFFFFFFFFFFFFFFFFFFFFFFFFFFFFFFFFF AND DUP2 MSTORE PUSH1 0x20 ADD SWAP1 DUP2 MSTORE PUSH1 0x20 ADD PUSH1 0x0 KECCAK256 PUSH1 0x0 DUP3 DUP3 SLOAD PUSH2 0xAAA SWAP2 SWAP1 PUSH2 0x1447 JUMP JUMPDEST SWAP3 POP POP DUP2 SWAP1 SSTORE POP DUP1 PUSH1 0x3 PUSH1 0x0 DUP3 DUP3 SLOAD PUSH2 0xAC3 SWAP2 SWAP1 PUSH2 0x1447 JUMP JUMPDEST SWAP3 POP POP DUP2 SWAP1 SSTORE POP POP JUMP JUMPDEST PUSH1 0x0 PUSH1 0x5 PUSH1 0x0 DUP4 PUSH20 0xFFFFFFFFFFFFFFFFFFFFFFFFFFFFFFFFFFFFFFFF AND PUSH20 0xFFFFFFFFFFFFFFFFFFFFFFFFFFFFFFFFFFFFFFFF AND DUP2 MSTORE PUSH1 0x20 ADD SWAP1 DUP2 MSTORE PUSH1 0x20 ADD PUSH1 0x0 KECCAK256 SLOAD SWAP1 POP SWAP2 SWAP1 POP JUMP JUMPDEST PUSH1 0x60 PUSH1 0xA PUSH1 0x0 CALLER PUSH20 0xFFFFFFFFFFFFFFFFFFFFFFFFFFFFFFFFFFFFFFFF AND PUSH20 0xFFFFFFFFFFFFFFFFFFFFFFFFFFFFFFFFFFFFFFFF AND DUP2 MSTORE PUSH1 0x20 ADD SWAP1 DUP2 MSTORE PUSH1 0x20 ADD PUSH1 0x0 KECCAK256 DUP1 SLOAD DUP1 PUSH1 0x20 MUL PUSH1 0x20 ADD PUSH1 0x40 MLOAD SWAP1 DUP2 ADD PUSH1 0x40 MSTORE DUP1 SWAP3 SWAP2 SWAP1 DUP2 DUP2 MSTORE PUSH1 0x20 ADD PUSH1 0x0 SWAP1 JUMPDEST DUP3 DUP3 LT ISZERO PUSH2 0xCCD JUMPI DUP4 DUP3 SWAP1 PUSH1 0x0 MSTORE PUSH1 0x20 PUSH1 0x0 KECCAK256 SWAP1 PUSH1 0x2 MUL ADD PUSH1 0x40 MLOAD DUP1 PUSH1 0x40 ADD PUSH1 0x40 MSTORE SWAP1 DUP2 PUSH1 0x0 DUP3 ADD DUP1 SLOAD PUSH2 0xBAA SWAP1 PUSH2 0x1A7B JUMP JUMPDEST DUP1 PUSH1 0x1F ADD PUSH1 0x20 DUP1 SWAP2 DIV MUL PUSH1 0x20 ADD PUSH1 0x40 MLOAD SWAP1 DUP2 ADD PUSH1 0x40 MSTORE DUP1 SWAP3 SWAP2 SWAP1 DUP2 DUP2 MSTORE PUSH1 0x20 ADD DUP3 DUP1 SLOAD PUSH2 0xBD6 SWAP1 PUSH2 0x1A7B JUMP JUMPDEST DUP1 ISZERO PUSH2 0xC23 JUMPI DUP1 PUSH1 0x1F LT PUSH2 0xBF8 JUMPI PUSH2 0x100 DUP1 DUP4 SLOAD DIV MUL DUP4 MSTORE SWAP2 PUSH1 0x20 ADD SWAP2 PUSH2 0xC23 JUMP JUMPDEST DUP3 ADD SWAP2 SWAP1 PUSH1 0x0 MSTORE PUSH1 0x20 PUSH1 0x0 KECCAK256 SWAP1 JUMPDEST DUP2 SLOAD DUP2 MSTORE SWAP1 PUSH1 0x1 ADD SWAP1 PUSH1 0x20 ADD DUP1 DUP4 GT PUSH2 0xC06 JUMPI DUP3 SWAP1 SUB PUSH1 0x1F AND DUP3 ADD SWAP2 JUMPDEST POP POP POP POP POP DUP2 MSTORE PUSH1 0x20 ADD PUSH1 0x1 DUP3 ADD DUP1 SLOAD PUSH2 0xC3C SWAP1 PUSH2 0x1A7B JUMP JUMPDEST DUP1 PUSH1 0x1F ADD PUSH1 0x20 DUP1 SWAP2 DIV MUL PUSH1 0x20 ADD PUSH1 0x40 MLOAD SWAP1 DUP2 ADD PUSH1 0x40 MSTORE DUP1 SWAP3 SWAP2 SWAP1 DUP2 DUP2 MSTORE PUSH1 0x20 ADD DUP3 DUP1 SLOAD PUSH2 0xC68 SWAP1 PUSH2 0x1A7B JUMP JUMPDEST DUP1 ISZERO PUSH2 0xCB5 JUMPI DUP1 PUSH1 0x1F LT PUSH2 0xC8A JUMPI PUSH2 0x100 DUP1 DUP4 SLOAD DIV MUL DUP4 MSTORE SWAP2 PUSH1 0x20 ADD SWAP2 PUSH2 0xCB5 JUMP JUMPDEST DUP3 ADD SWAP2 SWAP1 PUSH1 0x0 MSTORE PUSH1 0x20 PUSH1 0x0 KECCAK256 SWAP1 JUMPDEST DUP2 SLOAD DUP2 MSTORE SWAP1 PUSH1 0x1 ADD SWAP1 PUSH1 0x20 ADD DUP1 DUP4 GT PUSH2 0xC98 JUMPI DUP3 SWAP1 SUB PUSH1 0x1F AND DUP3 ADD SWAP2 JUMPDEST POP POP POP POP POP DUP2 MSTORE POP POP DUP2 MSTORE PUSH1 0x20 ADD SWAP1 PUSH1 0x1 ADD SWAP1 PUSH2 0xB77 JUMP JUMPDEST POP POP POP POP SWAP1 POP SWAP1 JUMP JUMPDEST PUSH1 0x1 DUP1 SLOAD PUSH2 0xCE3 SWAP1 PUSH2 0x1A7B JUMP JUMPDEST DUP1 PUSH1 0x1F ADD PUSH1 0x20 DUP1 SWAP2 DIV MUL PUSH1 0x20 ADD PUSH1 0x40 MLOAD SWAP1 DUP2 ADD PUSH1 0x40 MSTORE DUP1 SWAP3 SWAP2 SWAP1 DUP2 DUP2 MSTORE PUSH1 0x20 ADD DUP3 DUP1 SLOAD PUSH2 0xD0F SWAP1 PUSH2 0x1A7B JUMP JUMPDEST DUP1 ISZERO PUSH2 0xD5C JUMPI DUP1 PUSH1 0x1F LT PUSH2 0xD31 JUMPI PUSH2 0x100 DUP1 DUP4 SLOAD DIV MUL DUP4 MSTORE SWAP2 PUSH1 0x20 ADD SWAP2 PUSH2 0xD5C JUMP JUMPDEST DUP3 ADD SWAP2 SWAP1 PUSH1 0x0 MSTORE PUSH1 0x20 PUSH1 0x0 KECCAK256 SWAP1 JUMPDEST DUP2 SLOAD DUP2 MSTORE SWAP1 PUSH1 0x1 ADD SWAP1 PUSH1 0x20 ADD DUP1 DUP4 GT PUSH2 0xD3F JUMPI DUP3 SWAP1 SUB PUSH1 0x1F AND DUP3 ADD SWAP2 JUMPDEST POP POP POP POP POP DUP2 JUMP JUMPDEST PUSH1 0x0 DUP2 PUSH1 0x5 PUSH1 0x0 CALLER PUSH20 0xFFFFFFFFFFFFFFFFFFFFFFFFFFFFFFFFFFFFFFFF AND PUSH20 0xFFFFFFFFFFFFFFFFFFFFFFFFFFFFFFFFFFFFFFFF AND DUP2 MSTORE PUSH1 0x20 ADD SWAP1 DUP2 MSTORE PUSH1 0x20 ADD PUSH1 0x0 KECCAK256 PUSH1 0x0 DUP3 DUP3 SLOAD PUSH2 0xDB5 SWAP2 SWAP1 PUSH2 0x1447 JUMP JUMPDEST SWAP3 POP POP DUP2 SWAP1 SSTORE POP DUP2 PUSH1 0x5 PUSH1 0x0 DUP6 PUSH20 0xFFFFFFFFFFFFFFFFFFFFFFFFFFFFFFFFFFFFFFFF AND PUSH20 0xFFFFFFFFFFFFFFFFFFFFFFFFFFFFFFFFFFFFFFFF AND DUP2 MSTORE PUSH1 0x20 ADD SWAP1 DUP2 MSTORE PUSH1 0x20 ADD PUSH1 0x0 KECCAK256 PUSH1 0x0 DUP3 DUP3 SLOAD PUSH2 0xE0B SWAP2 SWAP1 PUSH2 0x147B JUMP JUMPDEST SWAP3 POP POP DUP2 SWAP1 SSTORE POP PUSH1 0x1 SWAP1 POP SWAP3 SWAP2 POP POP JUMP JUMPDEST PUSH1 0x6 PUSH1 0x20 MSTORE DUP2 PUSH1 0x0 MSTORE PUSH1 0x40 PUSH1 0x0 KECCAK256 PUSH1 0x20 MSTORE DUP1 PUSH1 0x0 MSTORE PUSH1 0x40 PUSH1 0x0 KECCAK256 PUSH1 0x0 SWAP2 POP SWAP2 POP POP SLOAD DUP2 JUMP JUMPDEST PUSH1 0xA PUSH1 0x20 MSTORE DUP2 PUSH1 0x0 MSTORE PUSH1 0x40 PUSH1 0x0 KECCAK256 DUP2 DUP2 SLOAD DUP2 LT PUSH2 0xE5D JUMPI PUSH1 0x0 DUP1 REVERT JUMPDEST SWAP1 PUSH1 0x0 MSTORE PUSH1 0x20 PUSH1 0x0 KECCAK256 SWAP1 PUSH1 0x2 MUL ADD PUSH1 0x0 SWAP2 POP SWAP2 POP POP DUP1 PUSH1 0x0 ADD DUP1 SLOAD PUSH2 0xE81 SWAP1 PUSH2 0x1A7B JUMP JUMPDEST DUP1 PUSH1 0x1F ADD PUSH1 0x20 DUP1 SWAP2 DIV MUL PUSH1 0x20 ADD PUSH1 0x40 MLOAD SWAP1 DUP2 ADD PUSH1 0x40 MSTORE DUP1 SWAP3 SWAP2 SWAP1 DUP2 DUP2 MSTORE PUSH1 0x20 ADD DUP3 DUP1 SLOAD PUSH2 0xEAD SWAP1 PUSH2 0x1A7B JUMP JUMPDEST DUP1 ISZERO PUSH2 0xEFA JUMPI DUP1 PUSH1 0x1F LT PUSH2 0xECF JUMPI PUSH2 0x100 DUP1 DUP4 SLOAD DIV MUL DUP4 MSTORE SWAP2 PUSH1 0x20 ADD SWAP2 PUSH2 0xEFA JUMP JUMPDEST DUP3 ADD SWAP2 SWAP1 PUSH1 0x0 MSTORE PUSH1 0x20 PUSH1 0x0 KECCAK256 SWAP1 JUMPDEST DUP2 SLOAD DUP2 MSTORE SWAP1 PUSH1 0x1 ADD SWAP1 PUSH1 0x20 ADD DUP1 DUP4 GT PUSH2 0xEDD JUMPI DUP3 SWAP1 SUB PUSH1 0x1F AND DUP3 ADD SWAP2 JUMPDEST POP POP POP POP POP SWAP1 DUP1 PUSH1 0x1 ADD DUP1 SLOAD PUSH2 0xF0F SWAP1 PUSH2 0x1A7B JUMP JUMPDEST DUP1 PUSH1 0x1F ADD PUSH1 0x20 DUP1 SWAP2 DIV MUL PUSH1 0x20 ADD PUSH1 0x40 MLOAD SWAP1 DUP2 ADD PUSH1 0x40 MSTORE DUP1 SWAP3 SWAP2 SWAP1 DUP2 DUP2 MSTORE PUSH1 0x20 ADD DUP3 DUP1 SLOAD PUSH2 0xF3B SWAP1 PUSH2 0x1A7B JUMP JUMPDEST DUP1 ISZERO PUSH2 0xF88 JUMPI DUP1 PUSH1 0x1F LT PUSH2 0xF5D JUMPI PUSH2 0x100 DUP1 DUP4 SLOAD DIV MUL DUP4 MSTORE SWAP2 PUSH1 0x20 ADD SWAP2 PUSH2 0xF88 JUMP JUMPDEST DUP3 ADD SWAP2 SWAP1 PUSH1 0x0 MSTORE PUSH1 0x20 PUSH1 0x0 KECCAK256 SWAP1 JUMPDEST DUP2 SLOAD DUP2 MSTORE SWAP1 PUSH1 0x1 ADD SWAP1 PUSH1 0x20 ADD DUP1 DUP4 GT PUSH2 0xF6B JUMPI DUP3 SWAP1 SUB PUSH1 0x1F AND DUP3 ADD SWAP2 JUMPDEST POP POP POP POP POP SWAP1 POP DUP3 JUMP JUMPDEST PUSH1 0x7 SLOAD PUSH1 0x5 PUSH1 0x0 CALLER PUSH20 0xFFFFFFFFFFFFFFFFFFFFFFFFFFFFFFFFFFFFFFFF AND PUSH20 0xFFFFFFFFFFFFFFFFFFFFFFFFFFFFFFFFFFFFFFFF AND DUP2 MSTORE PUSH1 0x20 ADD SWAP1 DUP2 MSTORE PUSH1 0x20 ADD PUSH1 0x0 KECCAK256 SLOAD LT ISZERO PUSH2 0xFE0 JUMPI PUSH1 0x0 DUP1 REVERT JUMPDEST PUSH1 0x7 SLOAD PUSH1 0x5 PUSH1 0x0 CALLER PUSH20 0xFFFFFFFFFFFFFFFFFFFFFFFFFFFFFFFFFFFFFFFF AND PUSH20 0xFFFFFFFFFFFFFFFFFFFFFFFFFFFFFFFFFFFFFFFF AND DUP2 MSTORE PUSH1 0x20 ADD SWAP1 DUP2 MSTORE PUSH1 0x20 ADD PUSH1 0x0 KECCAK256 PUSH1 0x0 DUP3 DUP3 SLOAD PUSH2 0x1031 SWAP2 SWAP1 PUSH2 0x1447 JUMP JUMPDEST SWAP3 POP POP DUP2 SWAP1 SSTORE POP PUSH1 0x7 SLOAD PUSH1 0x3 PUSH1 0x0 DUP3 DUP3 SLOAD PUSH2 0x104C SWAP2 SWAP1 PUSH2 0x1447 JUMP JUMPDEST SWAP3 POP POP DUP2 SWAP1 SSTORE POP PUSH1 0x0 TIMESTAMP COINBASE NUMBER PUSH1 0x40 MLOAD PUSH1 0x20 ADD PUSH2 0x106A SWAP4 SWAP3 SWAP2 SWAP1 PUSH2 0x1B27 JUMP JUMPDEST PUSH1 0x40 MLOAD PUSH1 0x20 DUP2 DUP4 SUB SUB DUP2 MSTORE SWAP1 PUSH1 0x40 MSTORE DUP1 MLOAD SWAP1 PUSH1 0x20 ADD KECCAK256 PUSH1 0x0 SHR SWAP1 POP PUSH1 0x3 DUP2 PUSH2 0x1092 SWAP2 SWAP1 PUSH2 0x1B93 JUMP JUMPDEST SWAP1 POP PUSH1 0xA PUSH1 0x0 CALLER PUSH20 0xFFFFFFFFFFFFFFFFFFFFFFFFFFFFFFFFFFFFFFFF AND PUSH20 0xFFFFFFFFFFFFFFFFFFFFFFFFFFFFFFFFFFFFFFFF AND DUP2 MSTORE PUSH1 0x20 ADD SWAP1 DUP2 MSTORE PUSH1 0x20 ADD PUSH1 0x0 KECCAK256 PUSH1 0x40 MLOAD DUP1 PUSH1 0x40 ADD PUSH1 0x40 MSTORE DUP1 PUSH1 0x9 DUP5 DUP2 SLOAD DUP2 LT PUSH2 0x10F2 JUMPI PUSH2 0x10F1 PUSH2 0x1BC4 JUMP JUMPDEST JUMPDEST SWAP1 PUSH1 0x0 MSTORE PUSH1 0x20 PUSH1 0x0 KECCAK256 ADD DUP1 SLOAD PUSH2 0x1107 SWAP1 PUSH2 0x1A7B JUMP JUMPDEST DUP1 PUSH1 0x1F ADD PUSH1 0x20 DUP1 SWAP2 DIV MUL PUSH1 0x20 ADD PUSH1 0x40 MLOAD SWAP1 DUP2 ADD PUSH1 0x40 MSTORE DUP1 SWAP3 SWAP2 SWAP1 DUP2 DUP2 MSTORE PUSH1 0x20 ADD DUP3 DUP1 SLOAD PUSH2 0x1133 SWAP1 PUSH2 0x1A7B JUMP JUMPDEST DUP1 ISZERO PUSH2 0x1180 JUMPI DUP1 PUSH1 0x1F LT PUSH2 0x1155 JUMPI PUSH2 0x100 DUP1 DUP4 SLOAD DIV MUL DUP4 MSTORE SWAP2 PUSH1 0x20 ADD SWAP2 PUSH2 0x1180 JUMP JUMPDEST DUP3 ADD SWAP2 SWAP1 PUSH1 0x0 MSTORE PUSH1 0x20 PUSH1 0x0 KECCAK256 SWAP1 JUMPDEST DUP2 SLOAD DUP2 MSTORE SWAP1 PUSH1 0x1 ADD SWAP1 PUSH1 0x20 ADD DUP1 DUP4 GT PUSH2 0x1163 JUMPI DUP3 SWAP1 SUB PUSH1 0x1F AND DUP3 ADD SWAP2 JUMPDEST POP POP POP POP POP DUP2 MSTORE PUSH1 0x20 ADD PUSH1 0x8 DUP5 DUP2 SLOAD DUP2 LT PUSH2 0x119E JUMPI PUSH2 0x119D PUSH2 0x1BC4 JUMP JUMPDEST JUMPDEST SWAP1 PUSH1 0x0 MSTORE PUSH1 0x20 PUSH1 0x0 KECCAK256 ADD DUP1 SLOAD PUSH2 0x11B3 SWAP1 PUSH2 0x1A7B JUMP JUMPDEST DUP1 PUSH1 0x1F ADD PUSH1 0x20 DUP1 SWAP2 DIV MUL PUSH1 0x20 ADD PUSH1 0x40 MLOAD SWAP1 DUP2 ADD PUSH1 0x40 MSTORE DUP1 SWAP3 SWAP2 SWAP1 DUP2 DUP2 MSTORE PUSH1 0x20 ADD DUP3 DUP1 SLOAD PUSH2 0x11DF SWAP1 PUSH2 0x1A7B JUMP JUMPDEST DUP1 ISZERO PUSH2 0x122C JUMPI DUP1 PUSH1 0x1F LT PUSH2 0x1201 JUMPI PUSH2 0x100 DUP1 DUP4 SLOAD DIV MUL DUP4 MSTORE SWAP2 PUSH1 0x20 ADD SWAP2 PUSH2 0x122C JUMP JUMPDEST DUP3 ADD SWAP2 SWAP1 PUSH1 0x0 MSTORE PUSH1 0x20 PUSH1 0x0 KECCAK256 SWAP1 JUMPDEST DUP2 SLOAD DUP2 MSTORE SWAP1 PUSH1 0x1 ADD SWAP1 PUSH1 0x20 ADD DUP1 DUP4 GT PUSH2 0x120F JUMPI DUP3 SWAP1 SUB PUSH1 0x1F AND DUP3 ADD SWAP2 JUMPDEST POP POP POP POP POP DUP2 MSTORE POP SWAP1 DUP1 PUSH1 0x1 DUP2 SLOAD ADD DUP1 DUP3 SSTORE DUP1 SWAP2 POP POP PUSH1 0x1 SWAP1 SUB SWAP1 PUSH1 0x0 MSTORE PUSH1 0x20 PUSH1 0x0 KECCAK256 SWAP1 PUSH1 0x2 MUL ADD PUSH1 0x0 SWAP1 SWAP2 SWAP1 SWAP2 SWAP1 SWAP2 POP PUSH1 0x0 DUP3 ADD MLOAD DUP2 PUSH1 0x0 ADD SWAP1 DUP2 PUSH2 0x1272 SWAP2 SWAP1 PUSH2 0x1DCE JUMP JUMPDEST POP PUSH1 0x20 DUP3 ADD MLOAD DUP2 PUSH1 0x1 ADD SWAP1 DUP2 PUSH2 0x1288 SWAP2 SWAP1 PUSH2 0x1DCE JUMP JUMPDEST POP POP POP PUSH1 0x0 DUP1 JUMPDEST PUSH1 0xB DUP1 SLOAD SWAP1 POP DUP2 LT ISZERO PUSH2 0x132C JUMPI CALLER PUSH20 0xFFFFFFFFFFFFFFFFFFFFFFFFFFFFFFFFFFFFFFFF AND PUSH1 0xB DUP3 DUP2 SLOAD DUP2 LT PUSH2 0x12C7 JUMPI PUSH2 0x12C6 PUSH2 0x1BC4 JUMP JUMPDEST JUMPDEST SWAP1 PUSH1 0x0 MSTORE PUSH1 0x20 PUSH1 0x0 KECCAK256 ADD PUSH1 0x0 ADD PUSH1 0x0 SWAP1 SLOAD SWAP1 PUSH2 0x100 EXP SWAP1 DIV PUSH20 0xFFFFFFFFFFFFFFFFFFFFFFFFFFFFFFFFFFFFFFFF AND PUSH20 0xFFFFFFFFFFFFFFFFFFFFFFFFFFFFFFFFFFFFFFFF AND SUB PUSH2 0x1319 JUMPI PUSH1 0x1 SWAP2 POP PUSH2 0x132C JUMP JUMPDEST DUP1 DUP1 PUSH2 0x1324 SWAP1 PUSH2 0x1EA0 JUMP JUMPDEST SWAP2 POP POP PUSH2 0x128F JUMP JUMPDEST POP DUP1 PUSH2 0x13C8 JUMPI PUSH1 0xB PUSH1 0x40 MLOAD DUP1 PUSH1 0x20 ADD PUSH1 0x40 MSTORE DUP1 CALLER PUSH20 0xFFFFFFFFFFFFFFFFFFFFFFFFFFFFFFFFFFFFFFFF AND DUP2 MSTORE POP SWAP1 DUP1 PUSH1 0x1 DUP2 SLOAD ADD DUP1 DUP3 SSTORE DUP1 SWAP2 POP POP PUSH1 0x1 SWAP1 SUB SWAP1 PUSH1 0x0 MSTORE PUSH1 0x20 PUSH1 0x0 KECCAK256 ADD PUSH1 0x0 SWAP1 SWAP2 SWAP1 SWAP2 SWAP1 SWAP2 POP PUSH1 0x0 DUP3 ADD MLOAD DUP2 PUSH1 0x0 ADD PUSH1 0x0 PUSH2 0x100 EXP DUP2 SLOAD DUP2 PUSH20 0xFFFFFFFFFFFFFFFFFFFFFFFFFFFFFFFFFFFFFFFF MUL NOT AND SWAP1 DUP4 PUSH20 0xFFFFFFFFFFFFFFFFFFFFFFFFFFFFFFFFFFFFFFFF AND MUL OR SWAP1 SSTORE POP POP POP JUMPDEST POP POP JUMP JUMPDEST PUSH1 0x0 DUP2 SWAP1 POP SWAP2 SWAP1 POP JUMP JUMPDEST PUSH32 0x4E487B7100000000000000000000000000000000000000000000000000000000 PUSH1 0x0 MSTORE PUSH1 0x11 PUSH1 0x4 MSTORE PUSH1 0x24 PUSH1 0x0 REVERT JUMPDEST PUSH1 0x0 PUSH2 0x1410 DUP3 PUSH2 0x13CC JUMP JUMPDEST SWAP2 POP PUSH2 0x141B DUP4 PUSH2 0x13CC JUMP JUMPDEST SWAP3 POP DUP3 DUP3 MUL PUSH2 0x1429 DUP2 PUSH2 0x13CC JUMP JUMPDEST SWAP2 POP DUP3 DUP3 DIV DUP5 EQ DUP4 ISZERO OR PUSH2 0x1440 JUMPI PUSH2 0x143F PUSH2 0x13D6 JUMP JUMPDEST JUMPDEST POP SWAP3 SWAP2 POP POP JUMP JUMPDEST PUSH1 0x0 PUSH2 0x1452 DUP3 PUSH2 0x13CC JUMP JUMPDEST SWAP2 POP PUSH2 0x145D DUP4 PUSH2 0x13CC JUMP JUMPDEST SWAP3 POP DUP3 DUP3 SUB SWAP1 POP DUP2 DUP2 GT ISZERO PUSH2 0x1475 JUMPI PUSH2 0x1474 PUSH2 0x13D6 JUMP JUMPDEST JUMPDEST SWAP3 SWAP2 POP POP JUMP JUMPDEST PUSH1 0x0 PUSH2 0x1486 DUP3 PUSH2 0x13CC JUMP JUMPDEST SWAP2 POP PUSH2 0x1491 DUP4 PUSH2 0x13CC JUMP JUMPDEST SWAP3 POP DUP3 DUP3 ADD SWAP1 POP DUP1 DUP3 GT ISZERO PUSH2 0x14A9 JUMPI PUSH2 0x14A8 PUSH2 0x13D6 JUMP JUMPDEST JUMPDEST SWAP3 SWAP2 POP POP JUMP JUMPDEST PUSH1 0x0 DUP2 MLOAD SWAP1 POP SWAP2 SWAP1 POP JUMP JUMPDEST PUSH1 0x0 DUP3 DUP3 MSTORE PUSH1 0x20 DUP3 ADD SWAP1 POP SWAP3 SWAP2 POP POP JUMP JUMPDEST PUSH1 0x0 JUMPDEST DUP4 DUP2 LT ISZERO PUSH2 0x14E9 JUMPI DUP1 DUP3 ADD MLOAD DUP2 DUP5 ADD MSTORE PUSH1 0x20 DUP2 ADD SWAP1 POP PUSH2 0x14CE JUMP JUMPDEST PUSH1 0x0 DUP5 DUP5 ADD MSTORE POP POP POP POP JUMP JUMPDEST PUSH1 0x0 PUSH1 0x1F NOT PUSH1 0x1F DUP4 ADD AND SWAP1 POP SWAP2 SWAP1 POP JUMP JUMPDEST PUSH1 0x0 PUSH2 0x1511 DUP3 PUSH2 0x14AF JUMP JUMPDEST PUSH2 0x151B DUP2 DUP6 PUSH2 0x14BA JUMP JUMPDEST SWAP4 POP PUSH2 0x152B DUP2 DUP6 PUSH1 0x20 DUP7 ADD PUSH2 0x14CB JUMP JUMPDEST PUSH2 0x1534 DUP2 PUSH2 0x14F5 JUMP JUMPDEST DUP5 ADD SWAP2 POP POP SWAP3 SWAP2 POP POP JUMP JUMPDEST PUSH1 0x0 PUSH1 0x20 DUP3 ADD SWAP1 POP DUP2 DUP2 SUB PUSH1 0x0 DUP4 ADD MSTORE PUSH2 0x1559 DUP2 DUP5 PUSH2 0x1506 JUMP JUMPDEST SWAP1 POP SWAP3 SWAP2 POP POP JUMP JUMPDEST PUSH1 0x0 DUP1 REVERT JUMPDEST PUSH1 0x0 PUSH20 0xFFFFFFFFFFFFFFFFFFFFFFFFFFFFFFFFFFFFFFFF DUP3 AND SWAP1 POP SWAP2 SWAP1 POP JUMP JUMPDEST PUSH1 0x0 PUSH2 0x1591 DUP3 PUSH2 0x1566 JUMP JUMPDEST SWAP1 POP SWAP2 SWAP1 POP JUMP JUMPDEST PUSH2 0x15A1 DUP2 PUSH2 0x1586 JUMP JUMPDEST DUP2 EQ PUSH2 0x15AC JUMPI PUSH1 0x0 DUP1 REVERT JUMPDEST POP JUMP JUMPDEST PUSH1 0x0 DUP2 CALLDATALOAD SWAP1 POP PUSH2 0x15BE DUP2 PUSH2 0x1598 JUMP JUMPDEST SWAP3 SWAP2 POP POP JUMP JUMPDEST PUSH2 0x15CD DUP2 PUSH2 0x13CC JUMP JUMPDEST DUP2 EQ PUSH2 0x15D8 JUMPI PUSH1 0x0 DUP1 REVERT JUMPDEST POP JUMP JUMPDEST PUSH1 0x0 DUP2 CALLDATALOAD SWAP1 POP PUSH2 0x15EA DUP2 PUSH2 0x15C4 JUMP JUMPDEST SWAP3 SWAP2 POP POP JUMP JUMPDEST PUSH1 0x0 DUP1 PUSH1 0x40 DUP4 DUP6 SUB SLT ISZERO PUSH2 0x1607 JUMPI PUSH2 0x1606 PUSH2 0x1561 JUMP JUMPDEST JUMPDEST PUSH1 0x0 PUSH2 0x1615 DUP6 DUP3 DUP7 ADD PUSH2 0x15AF JUMP JUMPDEST SWAP3 POP POP PUSH1 0x20 PUSH2 0x1626 DUP6 DUP3 DUP7 ADD PUSH2 0x15DB JUMP JUMPDEST SWAP2 POP POP SWAP3 POP SWAP3 SWAP1 POP JUMP JUMPDEST PUSH1 0x0 DUP2 ISZERO ISZERO SWAP1 POP SWAP2 SWAP1 POP JUMP JUMPDEST PUSH2 0x1645 DUP2 PUSH2 0x1630 JUMP JUMPDEST DUP3 MSTORE POP POP JUMP JUMPDEST PUSH1 0x0 PUSH1 0x20 DUP3 ADD SWAP1 POP PUSH2 0x1660 PUSH1 0x0 DUP4 ADD DUP5 PUSH2 0x163C JUMP JUMPDEST SWAP3 SWAP2 POP POP JUMP JUMPDEST PUSH2 0x166F DUP2 PUSH2 0x13CC JUMP JUMPDEST DUP3 MSTORE POP POP JUMP JUMPDEST PUSH1 0x0 PUSH1 0x20 DUP3 ADD SWAP1 POP PUSH2 0x168A PUSH1 0x0 DUP4 ADD DUP5 PUSH2 0x1666 JUMP JUMPDEST SWAP3 SWAP2 POP POP JUMP JUMPDEST PUSH1 0x0 DUP1 PUSH1 0x0 PUSH1 0x60 DUP5 DUP7 SUB SLT ISZERO PUSH2 0x16A9 JUMPI PUSH2 0x16A8 PUSH2 0x1561 JUMP JUMPDEST JUMPDEST PUSH1 0x0 PUSH2 0x16B7 DUP7 DUP3 DUP8 ADD PUSH2 0x15AF JUMP JUMPDEST SWAP4 POP POP PUSH1 0x20 PUSH2 0x16C8 DUP7 DUP3 DUP8 ADD PUSH2 0x15AF JUMP JUMPDEST SWAP3 POP POP PUSH1 0x40 PUSH2 0x16D9 DUP7 DUP3 DUP8 ADD PUSH2 0x15DB JUMP JUMPDEST SWAP2 POP POP SWAP3 POP SWAP3 POP SWAP3 JUMP JUMPDEST PUSH1 0x0 PUSH1 0x20 DUP3 DUP5 SUB SLT ISZERO PUSH2 0x16F9 JUMPI PUSH2 0x16F8 PUSH2 0x1561 JUMP JUMPDEST JUMPDEST PUSH1 0x0 PUSH2 0x1707 DUP5 DUP3 DUP6 ADD PUSH2 0x15AF JUMP JUMPDEST SWAP2 POP POP SWAP3 SWAP2 POP POP JUMP JUMPDEST PUSH1 0x0 DUP2 MLOAD SWAP1 POP SWAP2 SWAP1 POP JUMP JUMPDEST PUSH1 0x0 DUP3 DUP3 MSTORE PUSH1 0x20 DUP3 ADD SWAP1 POP SWAP3 SWAP2 POP POP JUMP JUMPDEST PUSH1 0x0 DUP2 SWAP1 POP PUSH1 0x20 DUP3 ADD SWAP1 POP SWAP2 SWAP1 POP JUMP JUMPDEST PUSH2 0x1745 DUP2 PUSH2 0x1586 JUMP JUMPDEST DUP3 MSTORE POP POP JUMP JUMPDEST PUSH1 0x20 DUP3 ADD PUSH1 0x0 DUP3 ADD MLOAD PUSH2 0x1761 PUSH1 0x0 DUP6 ADD DUP3 PUSH2 0x173C JUMP JUMPDEST POP POP POP POP JUMP JUMPDEST PUSH1 0x0 PUSH2 0x1773 DUP4 DUP4 PUSH2 0x174B JUMP JUMPDEST PUSH1 0x20 DUP4 ADD SWAP1 POP SWAP3 SWAP2 POP POP JUMP JUMPDEST PUSH1 0x0 PUSH1 0x20 DUP3 ADD SWAP1 POP SWAP2 SWAP1 POP JUMP JUMPDEST PUSH1 0x0 PUSH2 0x1797 DUP3 PUSH2 0x1710 JUMP JUMPDEST PUSH2 0x17A1 DUP2 DUP6 PUSH2 0x171B JUMP JUMPDEST SWAP4 POP PUSH2 0x17AC DUP4 PUSH2 0x172C JUMP JUMPDEST DUP1 PUSH1 0x0 JUMPDEST DUP4 DUP2 LT ISZERO PUSH2 0x17DD JUMPI DUP2 MLOAD PUSH2 0x17C4 DUP9 DUP3 PUSH2 0x1767 JUMP JUMPDEST SWAP8 POP PUSH2 0x17CF DUP4 PUSH2 0x177F JUMP JUMPDEST SWAP3 POP POP PUSH1 0x1 DUP2 ADD SWAP1 POP PUSH2 0x17B0 JUMP JUMPDEST POP DUP6 SWAP4 POP POP POP POP SWAP3 SWAP2 POP POP JUMP JUMPDEST PUSH1 0x0 PUSH1 0x20 DUP3 ADD SWAP1 POP DUP2 DUP2 SUB PUSH1 0x0 DUP4 ADD MSTORE PUSH2 0x1804 DUP2 DUP5 PUSH2 0x178C JUMP JUMPDEST SWAP1 POP SWAP3 SWAP2 POP POP JUMP JUMPDEST PUSH1 0x0 PUSH1 0x20 DUP3 DUP5 SUB SLT ISZERO PUSH2 0x1822 JUMPI PUSH2 0x1821 PUSH2 0x1561 JUMP JUMPDEST JUMPDEST PUSH1 0x0 PUSH2 0x1830 DUP5 DUP3 DUP6 ADD PUSH2 0x15DB JUMP JUMPDEST SWAP2 POP POP SWAP3 SWAP2 POP POP JUMP JUMPDEST PUSH2 0x1842 DUP2 PUSH2 0x1586 JUMP JUMPDEST DUP3 MSTORE POP POP JUMP JUMPDEST PUSH1 0x0 PUSH1 0x20 DUP3 ADD SWAP1 POP PUSH2 0x185D PUSH1 0x0 DUP4 ADD DUP5 PUSH2 0x1839 JUMP JUMPDEST SWAP3 SWAP2 POP POP JUMP JUMPDEST PUSH1 0x0 DUP2 MLOAD SWAP1 POP SWAP2 SWAP1 POP JUMP JUMPDEST PUSH1 0x0 DUP3 DUP3 MSTORE PUSH1 0x20 DUP3 ADD SWAP1 POP SWAP3 SWAP2 POP POP JUMP JUMPDEST PUSH1 0x0 DUP2 SWAP1 POP PUSH1 0x20 DUP3 ADD SWAP1 POP SWAP2 SWAP1 POP JUMP JUMPDEST PUSH1 0x0 DUP3 DUP3 MSTORE PUSH1 0x20 DUP3 ADD SWAP1 POP SWAP3 SWAP2 POP POP JUMP JUMPDEST PUSH1 0x0 PUSH2 0x18AB DUP3 PUSH2 0x14AF JUMP JUMPDEST PUSH2 0x18B5 DUP2 DUP6 PUSH2 0x188F JUMP JUMPDEST SWAP4 POP PUSH2 0x18C5 DUP2 DUP6 PUSH1 0x20 DUP7 ADD PUSH2 0x14CB JUMP JUMPDEST PUSH2 0x18CE DUP2 PUSH2 0x14F5 JUMP JUMPDEST DUP5 ADD SWAP2 POP POP SWAP3 SWAP2 POP POP JUMP JUMPDEST PUSH1 0x0 PUSH1 0x40 DUP4 ADD PUSH1 0x0 DUP4 ADD MLOAD DUP5 DUP3 SUB PUSH1 0x0 DUP7 ADD MSTORE PUSH2 0x18F6 DUP3 DUP3 PUSH2 0x18A0 JUMP JUMPDEST SWAP2 POP POP PUSH1 0x20 DUP4 ADD MLOAD DUP5 DUP3 SUB PUSH1 0x20 DUP7 ADD MSTORE PUSH2 0x1910 DUP3 DUP3 PUSH2 0x18A0 JUMP JUMPDEST SWAP2 POP POP DUP1 SWAP2 POP POP SWAP3 SWAP2 POP POP JUMP JUMPDEST PUSH1 0x0 PUSH2 0x1929 DUP4 DUP4 PUSH2 0x18D9 JUMP JUMPDEST SWAP1 POP SWAP3 SWAP2 POP POP JUMP JUMPDEST PUSH1 0x0 PUSH1 0x20 DUP3 ADD SWAP1 POP SWAP2 SWAP1 POP JUMP JUMPDEST PUSH1 0x0 PUSH2 0x1949 DUP3 PUSH2 0x1863 JUMP JUMPDEST PUSH2 0x1953 DUP2 DUP6 PUSH2 0x186E JUMP JUMPDEST SWAP4 POP DUP4 PUSH1 0x20 DUP3 MUL DUP6 ADD PUSH2 0x1965 DUP6 PUSH2 0x187F JUMP JUMPDEST DUP1 PUSH1 0x0 JUMPDEST DUP6 DUP2 LT ISZERO PUSH2 0x19A1 JUMPI DUP5 DUP5 SUB DUP10 MSTORE DUP2 MLOAD PUSH2 0x1982 DUP6 DUP3 PUSH2 0x191D JUMP JUMPDEST SWAP5 POP PUSH2 0x198D DUP4 PUSH2 0x1931 JUMP JUMPDEST SWAP3 POP PUSH1 0x20 DUP11 ADD SWAP10 POP POP PUSH1 0x1 DUP2 ADD SWAP1 POP PUSH2 0x1969 JUMP JUMPDEST POP DUP3 SWAP8 POP DUP8 SWAP6 POP POP POP POP POP POP SWAP3 SWAP2 POP POP JUMP JUMPDEST PUSH1 0x0 PUSH1 0x20 DUP3 ADD SWAP1 POP DUP2 DUP2 SUB PUSH1 0x0 DUP4 ADD MSTORE PUSH2 0x19CD DUP2 DUP5 PUSH2 0x193E JUMP JUMPDEST SWAP1 POP SWAP3 SWAP2 POP POP JUMP JUMPDEST PUSH1 0x0 DUP1 PUSH1 0x40 DUP4 DUP6 SUB SLT ISZERO PUSH2 0x19EC JUMPI PUSH2 0x19EB PUSH2 0x1561 JUMP JUMPDEST JUMPDEST PUSH1 0x0 PUSH2 0x19FA DUP6 DUP3 DUP7 ADD PUSH2 0x15AF JUMP JUMPDEST SWAP3 POP POP PUSH1 0x20 PUSH2 0x1A0B DUP6 DUP3 DUP7 ADD PUSH2 0x15AF JUMP JUMPDEST SWAP2 POP POP SWAP3 POP SWAP3 SWAP1 POP JUMP JUMPDEST PUSH1 0x0 PUSH1 0x40 DUP3 ADD SWAP1 POP DUP2 DUP2 SUB PUSH1 0x0 DUP4 ADD MSTORE PUSH2 0x1A2F DUP2 DUP6 PUSH2 0x1506 JUMP JUMPDEST SWAP1 POP DUP2 DUP2 SUB PUSH1 0x20 DUP4 ADD MSTORE PUSH2 0x1A43 DUP2 DUP5 PUSH2 0x1506 JUMP JUMPDEST SWAP1 POP SWAP4 SWAP3 POP POP POP JUMP JUMPDEST PUSH32 0x4E487B7100000000000000000000000000000000000000000000000000000000 PUSH1 0x0 MSTORE PUSH1 0x22 PUSH1 0x4 MSTORE PUSH1 0x24 PUSH1 0x0 REVERT JUMPDEST PUSH1 0x0 PUSH1 0x2 DUP3 DIV SWAP1 POP PUSH1 0x1 DUP3 AND DUP1 PUSH2 0x1A93 JUMPI PUSH1 0x7F DUP3 AND SWAP2 POP JUMPDEST PUSH1 0x20 DUP3 LT DUP2 SUB PUSH2 0x1AA6 JUMPI PUSH2 0x1AA5 PUSH2 0x1A4C JUMP JUMPDEST JUMPDEST POP SWAP2 SWAP1 POP JUMP JUMPDEST PUSH1 0x0 DUP2 SWAP1 POP SWAP2 SWAP1 POP JUMP JUMPDEST PUSH2 0x1AC7 PUSH2 0x1AC2 DUP3 PUSH2 0x13CC JUMP JUMPDEST PUSH2 0x1AAC JUMP JUMPDEST DUP3 MSTORE POP POP JUMP JUMPDEST PUSH1 0x0 PUSH2 0x1AD8 DUP3 PUSH2 0x1566 JUMP JUMPDEST SWAP1 POP SWAP2 SWAP1 POP JUMP JUMPDEST PUSH1 0x0 DUP2 PUSH1 0x60 SHL SWAP1 POP SWAP2 SWAP1 POP JUMP JUMPDEST PUSH1 0x0 PUSH2 0x1AF7 DUP3 PUSH2 0x1ADF JUMP JUMPDEST SWAP1 POP SWAP2 SWAP1 POP JUMP JUMPDEST PUSH1 0x0 PUSH2 0x1B09 DUP3 PUSH2 0x1AEC JUMP JUMPDEST SWAP1 POP SWAP2 SWAP1 POP JUMP JUMPDEST PUSH2 0x1B21 PUSH2 0x1B1C DUP3 PUSH2 0x1ACD JUMP JUMPDEST PUSH2 0x1AFE JUMP JUMPDEST DUP3 MSTORE POP POP JUMP JUMPDEST PUSH1 0x0 PUSH2 0x1B33 DUP3 DUP7 PUSH2 0x1AB6 JUMP JUMPDEST PUSH1 0x20 DUP3 ADD SWAP2 POP PUSH2 0x1B43 DUP3 DUP6 PUSH2 0x1B10 JUMP JUMPDEST PUSH1 0x14 DUP3 ADD SWAP2 POP PUSH2 0x1B53 DUP3 DUP5 PUSH2 0x1AB6 JUMP JUMPDEST PUSH1 0x20 DUP3 ADD SWAP2 POP DUP2 SWAP1 POP SWAP5 SWAP4 POP POP POP POP JUMP JUMPDEST PUSH32 0x4E487B7100000000000000000000000000000000000000000000000000000000 PUSH1 0x0 MSTORE PUSH1 0x12 PUSH1 0x4 MSTORE PUSH1 0x24 PUSH1 0x0 REVERT JUMPDEST PUSH1 0x0 PUSH2 0x1B9E DUP3 PUSH2 0x13CC JUMP JUMPDEST SWAP2 POP PUSH2 0x1BA9 DUP4 PUSH2 0x13CC JUMP JUMPDEST SWAP3 POP DUP3 PUSH2 0x1BB9 JUMPI PUSH2 0x1BB8 PUSH2 0x1B64 JUMP JUMPDEST JUMPDEST DUP3 DUP3 MOD SWAP1 POP SWAP3 SWAP2 POP POP JUMP JUMPDEST PUSH32 0x4E487B7100000000000000000000000000000000000000000000000000000000 PUSH1 0x0 MSTORE PUSH1 0x32 PUSH1 0x4 MSTORE PUSH1 0x24 PUSH1 0x0 REVERT JUMPDEST PUSH32 0x4E487B7100000000000000000000000000000000000000000000000000000000 PUSH1 0x0 MSTORE PUSH1 0x41 PUSH1 0x4 MSTORE PUSH1 0x24 PUSH1 0x0 REVERT JUMPDEST PUSH1 0x0 DUP2 SWAP1 POP DUP2 PUSH1 0x0 MSTORE PUSH1 0x20 PUSH1 0x0 KECCAK256 SWAP1 POP SWAP2 SWAP1 POP JUMP JUMPDEST PUSH1 0x0 PUSH1 0x20 PUSH1 0x1F DUP4 ADD DIV SWAP1 POP SWAP2 SWAP1 POP JUMP JUMPDEST PUSH1 0x0 DUP3 DUP3 SHL SWAP1 POP SWAP3 SWAP2 POP POP JUMP JUMPDEST PUSH1 0x0 PUSH1 0x8 DUP4 MUL PUSH2 0x1C84 PUSH32 0xFFFFFFFFFFFFFFFFFFFFFFFFFFFFFFFFFFFFFFFFFFFFFFFFFFFFFFFFFFFFFFFF DUP3 PUSH2 0x1C47 JUMP JUMPDEST PUSH2 0x1C8E DUP7 DUP4 PUSH2 0x1C47 JUMP JUMPDEST SWAP6 POP DUP1 NOT DUP5 AND SWAP4 POP DUP1 DUP7 AND DUP5 OR SWAP3 POP POP POP SWAP4 SWAP3 POP POP POP JUMP JUMPDEST PUSH1 0x0 DUP2 SWAP1 POP SWAP2 SWAP1 POP JUMP JUMPDEST PUSH1 0x0 PUSH2 0x1CCB PUSH2 0x1CC6 PUSH2 0x1CC1 DUP5 PUSH2 0x13CC JUMP JUMPDEST PUSH2 0x1CA6 JUMP JUMPDEST PUSH2 0x13CC JUMP JUMPDEST SWAP1 POP SWAP2 SWAP1 POP JUMP JUMPDEST PUSH1 0x0 DUP2 SWAP1 POP SWAP2 SWAP1 POP JUMP JUMPDEST PUSH2 0x1CE5 DUP4 PUSH2 0x1CB0 JUMP JUMPDEST PUSH2 0x1CF9 PUSH2 0x1CF1 DUP3 PUSH2 0x1CD2 JUMP JUMPDEST DUP5 DUP5 SLOAD PUSH2 0x1C54 JUMP JUMPDEST DUP3 SSTORE POP POP POP POP JUMP JUMPDEST PUSH1 0x0 SWAP1 JUMP JUMPDEST PUSH2 0x1D0E PUSH2 0x1D01 JUMP JUMPDEST PUSH2 0x1D19 DUP2 DUP5 DUP5 PUSH2 0x1CDC JUMP JUMPDEST POP POP POP JUMP JUMPDEST JUMPDEST DUP2 DUP2 LT ISZERO PUSH2 0x1D3D JUMPI PUSH2 0x1D32 PUSH1 0x0 DUP3 PUSH2 0x1D06 JUMP JUMPDEST PUSH1 0x1 DUP2 ADD SWAP1 POP PUSH2 0x1D1F JUMP JUMPDEST POP POP JUMP JUMPDEST PUSH1 0x1F DUP3 GT ISZERO PUSH2 0x1D82 JUMPI PUSH2 0x1D53 DUP2 PUSH2 0x1C22 JUMP JUMPDEST PUSH2 0x1D5C DUP5 PUSH2 0x1C37 JUMP JUMPDEST DUP2 ADD PUSH1 0x20 DUP6 LT ISZERO PUSH2 0x1D6B JUMPI DUP2 SWAP1 POP JUMPDEST PUSH2 0x1D7F PUSH2 0x1D77 DUP6 PUSH2 0x1C37 JUMP JUMPDEST DUP4 ADD DUP3 PUSH2 0x1D1E JUMP JUMPDEST POP POP JUMPDEST POP POP POP JUMP JUMPDEST PUSH1 0x0 DUP3 DUP3 SHR SWAP1 POP SWAP3 SWAP2 POP POP JUMP JUMPDEST PUSH1 0x0 PUSH2 0x1DA5 PUSH1 0x0 NOT DUP5 PUSH1 0x8 MUL PUSH2 0x1D87 JUMP JUMPDEST NOT DUP1 DUP4 AND SWAP2 POP POP SWAP3 SWAP2 POP POP JUMP JUMPDEST PUSH1 0x0 PUSH2 0x1DBE DUP4 DUP4 PUSH2 0x1D94 JUMP JUMPDEST SWAP2 POP DUP3 PUSH1 0x2 MUL DUP3 OR SWAP1 POP SWAP3 SWAP2 POP POP JUMP JUMPDEST PUSH2 0x1DD7 DUP3 PUSH2 0x14AF JUMP JUMPDEST PUSH8 0xFFFFFFFFFFFFFFFF DUP2 GT ISZERO PUSH2 0x1DF0 JUMPI PUSH2 0x1DEF PUSH2 0x1BF3 JUMP JUMPDEST JUMPDEST PUSH2 0x1DFA DUP3 SLOAD PUSH2 0x1A7B JUMP JUMPDEST PUSH2 0x1E05 DUP3 DUP3 DUP6 PUSH2 0x1D41 JUMP JUMPDEST PUSH1 0x0 PUSH1 0x20 SWAP1 POP PUSH1 0x1F DUP4 GT PUSH1 0x1 DUP2 EQ PUSH2 0x1E38 JUMPI PUSH1 0x0 DUP5 ISZERO PUSH2 0x1E26 JUMPI DUP3 DUP8 ADD MLOAD SWAP1 POP JUMPDEST PUSH2 0x1E30 DUP6 DUP3 PUSH2 0x1DB2 JUMP JUMPDEST DUP7 SSTORE POP PUSH2 0x1E98 JUMP JUMPDEST PUSH1 0x1F NOT DUP5 AND PUSH2 0x1E46 DUP7 PUSH2 0x1C22 JUMP JUMPDEST PUSH1 0x0 JUMPDEST DUP3 DUP2 LT ISZERO PUSH2 0x1E6E JUMPI DUP5 DUP10 ADD MLOAD DUP3 SSTORE PUSH1 0x1 DUP3 ADD SWAP2 POP PUSH1 0x20 DUP6 ADD SWAP5 POP PUSH1 0x20 DUP2 ADD SWAP1 POP PUSH2 0x1E49 JUMP JUMPDEST DUP7 DUP4 LT ISZERO PUSH2 0x1E8B JUMPI DUP5 DUP10 ADD MLOAD PUSH2 0x1E87 PUSH1 0x1F DUP10 AND DUP3 PUSH2 0x1D94 JUMP JUMPDEST DUP4 SSTORE POP JUMPDEST PUSH1 0x1 PUSH1 0x2 DUP9 MUL ADD DUP9 SSTORE POP POP POP JUMPDEST POP POP POP POP POP POP JUMP JUMPDEST PUSH1 0x0 PUSH2 0x1EAB DUP3 PUSH2 0x13CC JUMP JUMPDEST SWAP2 POP PUSH32 0xFFFFFFFFFFFFFFFFFFFFFFFFFFFFFFFFFFFFFFFFFFFFFFFFFFFFFFFFFFFFFFFF DUP3 SUB PUSH2 0x1EDD JUMPI PUSH2 0x1EDC PUSH2 0x13D6 JUMP JUMPDEST JUMPDEST PUSH1 0x1 DUP3 ADD SWAP1 POP SWAP2 SWAP1 POP JUMP INVALID LOG2 PUSH5 0x6970667358 0x22 SLT KECCAK256 0xE6 STATICCALL 0x2C EXP CODESIZE PUSH14 0xA1537DABDFEE67C7F94EBDFC50AB LOG4 0x26 0xD4 SLOAD PUSH14 0x322959F161C23264736F6C634300 ADDMOD SGT STOP CALLER PUSH9 0x747470733A2F2F692E PUSH15 0x616D752E77696B692F692F79565F77 MSTORE8 PUSH3 0x656B59 POP 0x49 PUSH7 0x782D5450743735 PUSH19 0x3043666C434E45697736337145696D51753277 PUSH8 0x7038716C5A6A354A ADDRESS CALLER MSTORE8 CODESIZE PUSH23 0x423168647871473974383648565372556F443155467575 PUSH3 0x41454B GASLIMIT PUSH11 0x6D314533744E77376C5A66 0x4C CALLDATACOPY PUSH23 0x643978666B6D74482D565868756251354177614F6C7A43 PUSH23 0x4C5671724D4D3963673172596F525A4871523769365661 PUSH22 0x6E51627243772E7765627068747470733A2F2F6D626C PUSH16 0x677468756D622D7068696E662E707374 PUSH2 0x7469 PUSH4 0x2E6E6574 0x2F 0x4D PUSH11 0x41784F4441334D6A5A664D SLOAD 0x49 ADDRESS 0x2F 0x4D PREVRANDAO COINBASE PUSH25 0x4E544D794E5459354E4441784E444D792E3554736253636749 PUSH9 0x5143745F3749384456 CALLDATACOPY NUMBER CHAINID GASLIMIT PUSH10 0x784A7578776F4C54396D PUSH10 0x4D352D436E3776444567 0x2E MLOAD CALLDATALOAD CALLDATALOAD PUSH11 0x6C6C5F76423136636F4D38 MSTORE8 PUSH8 0x6A686B2D366C724E PUSH27 0x4663417558574769314556386243585477672E504E472E63617074 PUSH22 0x72653233632F313533323536393337383733372E706E PUSH8 0x3F747970653D7738 ADDRESS ADDRESS PUSH9 0x747470733A2F2F692E PUSH15 0x616D752E77696B692F692F71785733 PUSH15 0x4F7833634475365547536147544B6D CALLDATACOPY NUMBER PUSH12 0x4A6762704935434D4A484971 PUSH13 0x6C33594D4148374468434E4A49 ORIGIN PUSH6 0x36304435764D 0x4F PUSH19 0x6570526163733453735A48455F6678334A304A PUSH7 0x4B79344E4E4E51 0x2E PUSH8 0x6966000000000000 "
				},
				"gasEstimates": {
					"creation": {
						"codeDepositCost": "1593200",
						"executionCost": "infinite",
						"totalCost": "infinite"
					},
					"external": {
						"allowance(address,address)": "infinite",
						"approve(address,uint256)": "23169",
						"balanceOf(address)": "2886",
						"balances(address)": "2837",
						"burn(uint256)": "infinite",
						"buyPokenmon()": "infinite",
						"decimals()": "2496",
						"getPokenmon()": "infinite",
						"getPokenmonUsers()": "infinite",
						"name()": "infinite",
						"pokenmons(address,uint256)": "infinite",
						"symbol()": "infinite",
						"totalSupply()": "2497",
						"transfer(address,uint256)": "infinite",
						"transferFrom(address,address,uint256)": "infinite",
						"users(uint256)": "5070"
					}
				},
				"methodIdentifiers": {
					"allowance(address,address)": "dd62ed3e",
					"approve(address,uint256)": "095ea7b3",
					"balanceOf(address)": "70a08231",
					"balances(address)": "27e235e3",
					"burn(uint256)": "42966c68",
					"buyPokenmon()": "f5bf26fc",
					"decimals()": "313ce567",
					"getPokenmon()": "78196cbc",
					"getPokenmonUsers()": "2e7099a7",
					"name()": "06fdde03",
					"pokenmons(address,uint256)": "efa9fbc5",
					"symbol()": "95d89b41",
					"totalSupply()": "18160ddd",
					"transfer(address,uint256)": "a9059cbb",
					"transferFrom(address,address,uint256)": "23b872dd",
					"users(uint256)": "365b98b2"
				}
			},
			"storageLayout": {
				"storage": [
					{
						"astId": 6,
						"contract": "contracts/Pokenmon.sol:Pokenmon",
						"label": "name",
						"offset": 0,
						"slot": "0",
						"type": "t_string_storage"
					},
					{
						"astId": 8,
						"contract": "contracts/Pokenmon.sol:Pokenmon",
						"label": "symbol",
						"offset": 0,
						"slot": "1",
						"type": "t_string_storage"
					},
					{
						"astId": 11,
						"contract": "contracts/Pokenmon.sol:Pokenmon",
						"label": "decimals",
						"offset": 0,
						"slot": "2",
						"type": "t_uint256"
					},
					{
						"astId": 14,
						"contract": "contracts/Pokenmon.sol:Pokenmon",
						"label": "totalSupply",
						"offset": 0,
						"slot": "3",
						"type": "t_uint256"
					},
					{
						"astId": 16,
						"contract": "contracts/Pokenmon.sol:Pokenmon",
						"label": "owner",
						"offset": 0,
						"slot": "4",
						"type": "t_address"
					},
					{
						"astId": 20,
						"contract": "contracts/Pokenmon.sol:Pokenmon",
						"label": "balances",
						"offset": 0,
						"slot": "5",
						"type": "t_mapping(t_address,t_uint256)"
					},
					{
						"astId": 27,
						"contract": "contracts/Pokenmon.sol:Pokenmon",
						"label": "allowance",
						"offset": 0,
						"slot": "6",
						"type": "t_mapping(t_address,t_mapping(t_address,t_uint256))"
					},
					{
						"astId": 325,
						"contract": "contracts/Pokenmon.sol:Pokenmon",
						"label": "tokenPrice",
						"offset": 0,
						"slot": "7",
						"type": "t_uint256"
					},
					{
						"astId": 332,
						"contract": "contracts/Pokenmon.sol:Pokenmon",
						"label": "pokenmonName",
						"offset": 0,
						"slot": "8",
						"type": "t_array(t_string_storage)dyn_storage"
					},
					{
						"astId": 339,
						"contract": "contracts/Pokenmon.sol:Pokenmon",
						"label": "pokenmonUrl",
						"offset": 0,
						"slot": "9",
						"type": "t_array(t_string_storage)dyn_storage"
					},
					{
						"astId": 345,
						"contract": "contracts/Pokenmon.sol:Pokenmon",
						"label": "pokenmons",
						"offset": 0,
						"slot": "10",
						"type": "t_mapping(t_address,t_array(t_struct(Pokens)319_storage)dyn_storage)"
					},
					{
						"astId": 349,
						"contract": "contracts/Pokenmon.sol:Pokenmon",
						"label": "users",
						"offset": 0,
						"slot": "11",
						"type": "t_array(t_struct(Users)322_storage)dyn_storage"
					}
				],
				"types": {
					"t_address": {
						"encoding": "inplace",
						"label": "address",
						"numberOfBytes": "20"
					},
					"t_array(t_string_storage)dyn_storage": {
						"base": "t_string_storage",
						"encoding": "dynamic_array",
						"label": "string[]",
						"numberOfBytes": "32"
					},
					"t_array(t_struct(Pokens)319_storage)dyn_storage": {
						"base": "t_struct(Pokens)319_storage",
						"encoding": "dynamic_array",
						"label": "struct Pokenmon.Pokens[]",
						"numberOfBytes": "32"
					},
					"t_array(t_struct(Users)322_storage)dyn_storage": {
						"base": "t_struct(Users)322_storage",
						"encoding": "dynamic_array",
						"label": "struct Pokenmon.Users[]",
						"numberOfBytes": "32"
					},
					"t_mapping(t_address,t_array(t_struct(Pokens)319_storage)dyn_storage)": {
						"encoding": "mapping",
						"key": "t_address",
						"label": "mapping(address => struct Pokenmon.Pokens[])",
						"numberOfBytes": "32",
						"value": "t_array(t_struct(Pokens)319_storage)dyn_storage"
					},
					"t_mapping(t_address,t_mapping(t_address,t_uint256))": {
						"encoding": "mapping",
						"key": "t_address",
						"label": "mapping(address => mapping(address => uint256))",
						"numberOfBytes": "32",
						"value": "t_mapping(t_address,t_uint256)"
					},
					"t_mapping(t_address,t_uint256)": {
						"encoding": "mapping",
						"key": "t_address",
						"label": "mapping(address => uint256)",
						"numberOfBytes": "32",
						"value": "t_uint256"
					},
					"t_string_storage": {
						"encoding": "bytes",
						"label": "string",
						"numberOfBytes": "32"
					},
					"t_struct(Pokens)319_storage": {
						"encoding": "inplace",
						"label": "struct Pokenmon.Pokens",
						"members": [
							{
								"astId": 316,
								"contract": "contracts/Pokenmon.sol:Pokenmon",
								"label": "url",
								"offset": 0,
								"slot": "0",
								"type": "t_string_storage"
							},
							{
								"astId": 318,
								"contract": "contracts/Pokenmon.sol:Pokenmon",
								"label": "name",
								"offset": 0,
								"slot": "1",
								"type": "t_string_storage"
							}
						],
						"numberOfBytes": "64"
					},
					"t_struct(Users)322_storage": {
						"encoding": "inplace",
						"label": "struct Pokenmon.Users",
						"members": [
							{
								"astId": 321,
								"contract": "contracts/Pokenmon.sol:Pokenmon",
								"label": "account",
								"offset": 0,
								"slot": "0",
								"type": "t_address"
							}
						],
						"numberOfBytes": "32"
					},
					"t_uint256": {
						"encoding": "inplace",
						"label": "uint256",
						"numberOfBytes": "32"
					}
				}
			},
			"userdoc": {
				"kind": "user",
				"methods": {},
				"version": 1
			}
		}
	}
}