{
	"myNFT.sol": {
		"MyNFT": {
			"abi": [
				{
					"inputs": [
						{
							"internalType": "string",
							"name": "_name",
							"type": "string"
						},
						{
							"internalType": "string",
							"name": "_symbol",
							"type": "string"
						}
					],
					"stateMutability": "nonpayable",
					"type": "constructor"
				},
				{
					"inputs": [
						{
							"internalType": "address",
							"name": "sender",
							"type": "address"
						},
						{
							"internalType": "uint256",
							"name": "tokenId",
							"type": "uint256"
						},
						{
							"internalType": "address",
							"name": "owner",
							"type": "address"
						}
					],
					"name": "ERC721IncorrectOwner",
					"type": "error"
				},
				{
					"inputs": [
						{
							"internalType": "address",
							"name": "operator",
							"type": "address"
						},
						{
							"internalType": "uint256",
							"name": "tokenId",
							"type": "uint256"
						}
					],
					"name": "ERC721InsufficientApproval",
					"type": "error"
				},
				{
					"inputs": [
						{
							"internalType": "address",
							"name": "approver",
							"type": "address"
						}
					],
					"name": "ERC721InvalidApprover",
					"type": "error"
				},
				{
					"inputs": [
						{
							"internalType": "address",
							"name": "operator",
							"type": "address"
						}
					],
					"name": "ERC721InvalidOperator",
					"type": "error"
				},
				{
					"inputs": [
						{
							"internalType": "address",
							"name": "owner",
							"type": "address"
						}
					],
					"name": "ERC721InvalidOwner",
					"type": "error"
				},
				{
					"inputs": [
						{
							"internalType": "address",
							"name": "receiver",
							"type": "address"
						}
					],
					"name": "ERC721InvalidReceiver",
					"type": "error"
				},
				{
					"inputs": [
						{
							"internalType": "address",
							"name": "sender",
							"type": "address"
						}
					],
					"name": "ERC721InvalidSender",
					"type": "error"
				},
				{
					"inputs": [
						{
							"internalType": "uint256",
							"name": "tokenId",
							"type": "uint256"
						}
					],
					"name": "ERC721NonexistentToken",
					"type": "error"
				},
				{
					"anonymous": false,
					"inputs": [
						{
							"indexed": true,
							"internalType": "address",
							"name": "owner",
							"type": "address"
						},
						{
							"indexed": true,
							"internalType": "address",
							"name": "approved",
							"type": "address"
						},
						{
							"indexed": true,
							"internalType": "uint256",
							"name": "tokenId",
							"type": "uint256"
						}
					],
					"name": "Approval",
					"type": "event"
				},
				{
					"anonymous": false,
					"inputs": [
						{
							"indexed": true,
							"internalType": "address",
							"name": "owner",
							"type": "address"
						},
						{
							"indexed": true,
							"internalType": "address",
							"name": "operator",
							"type": "address"
						},
						{
							"indexed": false,
							"internalType": "bool",
							"name": "approved",
							"type": "bool"
						}
					],
					"name": "ApprovalForAll",
					"type": "event"
				},
				{
					"anonymous": false,
					"inputs": [
						{
							"indexed": true,
							"internalType": "address",
							"name": "from",
							"type": "address"
						},
						{
							"indexed": true,
							"internalType": "address",
							"name": "to",
							"type": "address"
						},
						{
							"indexed": true,
							"internalType": "uint256",
							"name": "tokenId",
							"type": "uint256"
						}
					],
					"name": "Transfer",
					"type": "event"
				},
				{
					"inputs": [
						{
							"internalType": "address",
							"name": "to",
							"type": "address"
						},
						{
							"internalType": "uint256",
							"name": "tokenId",
							"type": "uint256"
						}
					],
					"name": "approve",
					"outputs": [],
					"stateMutability": "nonpayable",
					"type": "function"
				},
				{
					"inputs": [
						{
							"internalType": "address",
							"name": "owner",
							"type": "address"
						}
					],
					"name": "balanceOf",
					"outputs": [
						{
							"internalType": "uint256",
							"name": "",
							"type": "uint256"
						}
					],
					"stateMutability": "view",
					"type": "function"
				},
				{
					"inputs": [
						{
							"internalType": "uint256",
							"name": "tokenId",
							"type": "uint256"
						}
					],
					"name": "getApproved",
					"outputs": [
						{
							"internalType": "address",
							"name": "",
							"type": "address"
						}
					],
					"stateMutability": "view",
					"type": "function"
				},
				{
					"inputs": [
						{
							"internalType": "address",
							"name": "owner",
							"type": "address"
						},
						{
							"internalType": "address",
							"name": "operator",
							"type": "address"
						}
					],
					"name": "isApprovedForAll",
					"outputs": [
						{
							"internalType": "bool",
							"name": "",
							"type": "bool"
						}
					],
					"stateMutability": "view",
					"type": "function"
				},
				{
					"inputs": [
						{
							"internalType": "uint256",
							"name": "_tokenId",
							"type": "uint256"
						}
					],
					"name": "minting",
					"outputs": [],
					"stateMutability": "nonpayable",
					"type": "function"
				},
				{
					"inputs": [],
					"name": "name",
					"outputs": [
						{
							"internalType": "string",
							"name": "",
							"type": "string"
						}
					],
					"stateMutability": "view",
					"type": "function"
				},
				{
					"inputs": [
						{
							"internalType": "uint256",
							"name": "tokenId",
							"type": "uint256"
						}
					],
					"name": "ownerOf",
					"outputs": [
						{
							"internalType": "address",
							"name": "",
							"type": "address"
						}
					],
					"stateMutability": "view",
					"type": "function"
				},
				{
					"inputs": [
						{
							"internalType": "address",
							"name": "from",
							"type": "address"
						},
						{
							"internalType": "address",
							"name": "to",
							"type": "address"
						},
						{
							"internalType": "uint256",
							"name": "tokenId",
							"type": "uint256"
						}
					],
					"name": "safeTransferFrom",
					"outputs": [],
					"stateMutability": "nonpayable",
					"type": "function"
				},
				{
					"inputs": [
						{
							"internalType": "address",
							"name": "from",
							"type": "address"
						},
						{
							"internalType": "address",
							"name": "to",
							"type": "address"
						},
						{
							"internalType": "uint256",
							"name": "tokenId",
							"type": "uint256"
						},
						{
							"internalType": "bytes",
							"name": "data",
							"type": "bytes"
						}
					],
					"name": "safeTransferFrom",
					"outputs": [],
					"stateMutability": "nonpayable",
					"type": "function"
				},
				{
					"inputs": [
						{
							"internalType": "address",
							"name": "owner",
							"type": "address"
						},
						{
							"internalType": "address",
							"name": "operator",
							"type": "address"
						},
						{
							"internalType": "bool",
							"name": "approved",
							"type": "bool"
						}
					],
					"name": "setAppAll",
					"outputs": [],
					"stateMutability": "nonpayable",
					"type": "function"
				},
				{
					"inputs": [
						{
							"internalType": "address",
							"name": "operator",
							"type": "address"
						},
						{
							"internalType": "bool",
							"name": "approved",
							"type": "bool"
						}
					],
					"name": "setApprovalForAll",
					"outputs": [],
					"stateMutability": "nonpayable",
					"type": "function"
				},
				{
					"inputs": [
						{
							"internalType": "uint256",
							"name": "_tokenId",
							"type": "uint256"
						},
						{
							"internalType": "string",
							"name": "uri",
							"type": "string"
						}
					],
					"name": "setTokenURI",
					"outputs": [],
					"stateMutability": "nonpayable",
					"type": "function"
				},
				{
					"inputs": [
						{
							"internalType": "bytes4",
							"name": "interfaceId",
							"type": "bytes4"
						}
					],
					"name": "supportsInterface",
					"outputs": [
						{
							"internalType": "bool",
							"name": "",
							"type": "bool"
						}
					],
					"stateMutability": "view",
					"type": "function"
				},
				{
					"inputs": [],
					"name": "symbol",
					"outputs": [
						{
							"internalType": "string",
							"name": "",
							"type": "string"
						}
					],
					"stateMutability": "view",
					"type": "function"
				},
				{
					"inputs": [
						{
							"internalType": "uint256",
							"name": "_tokenId",
							"type": "uint256"
						}
					],
					"name": "tokenURI",
					"outputs": [
						{
							"internalType": "string",
							"name": "",
							"type": "string"
						}
					],
					"stateMutability": "view",
					"type": "function"
				},
				{
					"inputs": [
						{
							"internalType": "address",
							"name": "from",
							"type": "address"
						},
						{
							"internalType": "address",
							"name": "to",
							"type": "address"
						},
						{
							"internalType": "uint256",
							"name": "tokenId",
							"type": "uint256"
						}
					],
					"name": "transferFrom",
					"outputs": [],
					"stateMutability": "nonpayable",
					"type": "function"
				}
			],
			"devdoc": {
				"errors": {
					"ERC721IncorrectOwner(address,uint256,address)": [
						{
							"details": "Indicates an error related to the ownership over a particular token. Used in transfers.",
							"params": {
								"owner": "Address of the current owner of a token.",
								"sender": "Address whose tokens are being transferred.",
								"tokenId": "Identifier number of a token."
							}
						}
					],
					"ERC721InsufficientApproval(address,uint256)": [
						{
							"details": "Indicates a failure with the `operator`’s approval. Used in transfers.",
							"params": {
								"operator": "Address that may be allowed to operate on tokens without being their owner.",
								"tokenId": "Identifier number of a token."
							}
						}
					],
					"ERC721InvalidApprover(address)": [
						{
							"details": "Indicates a failure with the `approver` of a token to be approved. Used in approvals.",
							"params": {
								"approver": "Address initiating an approval operation."
							}
						}
					],
					"ERC721InvalidOperator(address)": [
						{
							"details": "Indicates a failure with the `operator` to be approved. Used in approvals.",
							"params": {
								"operator": "Address that may be allowed to operate on tokens without being their owner."
							}
						}
					],
					"ERC721InvalidOwner(address)": [
						{
							"details": "Indicates that an address can't be an owner. For example, `address(0)` is a forbidden owner in EIP-20. Used in balance queries.",
							"params": {
								"owner": "Address of the current owner of a token."
							}
						}
					],
					"ERC721InvalidReceiver(address)": [
						{
							"details": "Indicates a failure with the token `receiver`. Used in transfers.",
							"params": {
								"receiver": "Address to which tokens are being transferred."
							}
						}
					],
					"ERC721InvalidSender(address)": [
						{
							"details": "Indicates a failure with the token `sender`. Used in transfers.",
							"params": {
								"sender": "Address whose tokens are being transferred."
							}
						}
					],
					"ERC721NonexistentToken(uint256)": [
						{
							"details": "Indicates a `tokenId` whose `owner` is the zero address.",
							"params": {
								"tokenId": "Identifier number of a token."
							}
						}
					]
				},
				"events": {
					"Approval(address,address,uint256)": {
						"details": "Emitted when `owner` enables `approved` to manage the `tokenId` token."
					},
					"ApprovalForAll(address,address,bool)": {
						"details": "Emitted when `owner` enables or disables (`approved`) `operator` to manage all of its assets."
					},
					"Transfer(address,address,uint256)": {
						"details": "Emitted when `tokenId` token is transferred from `from` to `to`."
					}
				},
				"kind": "dev",
				"methods": {
					"approve(address,uint256)": {
						"details": "See {IERC721-approve}."
					},
					"balanceOf(address)": {
						"details": "See {IERC721-balanceOf}."
					},
					"getApproved(uint256)": {
						"details": "See {IERC721-getApproved}."
					},
					"isApprovedForAll(address,address)": {
						"details": "See {IERC721-isApprovedForAll}."
					},
					"name()": {
						"details": "See {IERC721Metadata-name}."
					},
					"ownerOf(uint256)": {
						"details": "See {IERC721-ownerOf}."
					},
					"safeTransferFrom(address,address,uint256)": {
						"details": "See {IERC721-safeTransferFrom}."
					},
					"safeTransferFrom(address,address,uint256,bytes)": {
						"details": "See {IERC721-safeTransferFrom}."
					},
					"setApprovalForAll(address,bool)": {
						"details": "See {IERC721-setApprovalForAll}."
					},
					"supportsInterface(bytes4)": {
						"details": "See {IERC165-supportsInterface}."
					},
					"symbol()": {
						"details": "See {IERC721Metadata-symbol}."
					},
					"transferFrom(address,address,uint256)": {
						"details": "See {IERC721-transferFrom}."
					}
				},
				"version": 1
			},
			"evm": {
				"assembly": "    /* \"myNFT.sol\":175:3131  contract MyNFT is ERC721 {... */\n  mstore(0x40, 0x80)\n    /* \"myNFT.sol\":207:298  constructor( string memory _name, string memory _symbol ) ERC721(_name, _symbol) {... */\n  callvalue\n  dup1\n  iszero\n  tag_1\n  jumpi\n  0x00\n  dup1\n  revert\ntag_1:\n  pop\n  mload(0x40)\n  sub(codesize, bytecodeSize)\n  dup1\n  bytecodeSize\n  dup4\n  codecopy\n  dup2\n  dup2\n  add\n  0x40\n  mstore\n  dup2\n  add\n  swap1\n  tag_2\n  swap2\n  swap1\n  tag_3\n  jump\t// in\ntag_2:\n    /* \"myNFT.sol\":272:277  _name */\n  dup2\n    /* \"myNFT.sol\":279:286  _symbol */\n  dup2\n    /* \"node_modules/@openzeppelin/contracts/token/ERC721/ERC721.sol\":2788:2793  name_ */\n  dup2\n    /* \"node_modules/@openzeppelin/contracts/token/ERC721/ERC721.sol\":2780:2785  _name */\n  0x00\n    /* \"node_modules/@openzeppelin/contracts/token/ERC721/ERC721.sol\":2780:2793  _name = name_ */\n  swap1\n  dup2\n  tag_7\n  swap2\n  swap1\n  tag_8\n  jump\t// in\ntag_7:\n  pop\n    /* \"node_modules/@openzeppelin/contracts/token/ERC721/ERC721.sol\":2813:2820  symbol_ */\n  dup1\n    /* \"node_modules/@openzeppelin/contracts/token/ERC721/ERC721.sol\":2803:2810  _symbol */\n  0x01\n    /* \"node_modules/@openzeppelin/contracts/token/ERC721/ERC721.sol\":2803:2820  _symbol = symbol_ */\n  swap1\n  dup2\n  tag_9\n  swap2\n  swap1\n  tag_8\n  jump\t// in\ntag_9:\n  pop\n    /* \"node_modules/@openzeppelin/contracts/token/ERC721/ERC721.sol\":2714:2827  constructor(string memory name_, string memory symbol_) {... */\n  pop\n  pop\n    /* \"myNFT.sol\":207:298  constructor( string memory _name, string memory _symbol ) ERC721(_name, _symbol) {... */\n  pop\n  pop\n    /* \"myNFT.sol\":175:3131  contract MyNFT is ERC721 {... */\n  jump(tag_11)\n    /* \"#utility.yul\":7:82   */\ntag_12:\n    /* \"#utility.yul\":40:46   */\n  0x00\n    /* \"#utility.yul\":73:75   */\n  0x40\n    /* \"#utility.yul\":67:76   */\n  mload\n    /* \"#utility.yul\":57:76   */\n  swap1\n  pop\n    /* \"#utility.yul\":7:82   */\n  swap1\n  jump\t// out\n    /* \"#utility.yul\":88:205   */\ntag_13:\n    /* \"#utility.yul\":197:198   */\n  0x00\n    /* \"#utility.yul\":194:195   */\n  dup1\n    /* \"#utility.yul\":187:199   */\n  revert\n    /* \"#utility.yul\":211:328   */\ntag_14:\n    /* \"#utility.yul\":320:321   */\n  0x00\n    /* \"#utility.yul\":317:318   */\n  dup1\n    /* \"#utility.yul\":310:322   */\n  revert\n    /* \"#utility.yul\":334:451   */\ntag_15:\n    /* \"#utility.yul\":443:444   */\n  0x00\n    /* \"#utility.yul\":440:441   */\n  dup1\n    /* \"#utility.yul\":433:445   */\n  revert\n    /* \"#utility.yul\":457:574   */\ntag_16:\n    /* \"#utility.yul\":566:567   */\n  0x00\n    /* \"#utility.yul\":563:564   */\n  dup1\n    /* \"#utility.yul\":556:568   */\n  revert\n    /* \"#utility.yul\":580:682   */\ntag_17:\n    /* \"#utility.yul\":621:627   */\n  0x00\n    /* \"#utility.yul\":672:674   */\n  0x1f\n    /* \"#utility.yul\":668:675   */\n  not\n    /* \"#utility.yul\":663:665   */\n  0x1f\n    /* \"#utility.yul\":656:661   */\n  dup4\n    /* \"#utility.yul\":652:666   */\n  add\n    /* \"#utility.yul\":648:676   */\n  and\n    /* \"#utility.yul\":638:676   */\n  swap1\n  pop\n    /* \"#utility.yul\":580:682   */\n  swap2\n  swap1\n  pop\n  jump\t// out\n    /* \"#utility.yul\":688:868   */\ntag_18:\n    /* \"#utility.yul\":736:813   */\n  0x4e487b7100000000000000000000000000000000000000000000000000000000\n    /* \"#utility.yul\":733:734   */\n  0x00\n    /* \"#utility.yul\":726:814   */\n  mstore\n    /* \"#utility.yul\":833:837   */\n  0x41\n    /* \"#utility.yul\":830:831   */\n  0x04\n    /* \"#utility.yul\":823:838   */\n  mstore\n    /* \"#utility.yul\":857:861   */\n  0x24\n    /* \"#utility.yul\":854:855   */\n  0x00\n    /* \"#utility.yul\":847:862   */\n  revert\n    /* \"#utility.yul\":874:1155   */\ntag_19:\n    /* \"#utility.yul\":957:984   */\n  tag_53\n    /* \"#utility.yul\":979:983   */\n  dup3\n    /* \"#utility.yul\":957:984   */\n  tag_17\n  jump\t// in\ntag_53:\n    /* \"#utility.yul\":949:955   */\n  dup2\n    /* \"#utility.yul\":945:985   */\n  add\n    /* \"#utility.yul\":1087:1093   */\n  dup2\n    /* \"#utility.yul\":1075:1085   */\n  dup2\n    /* \"#utility.yul\":1072:1094   */\n  lt\n    /* \"#utility.yul\":1051:1069   */\n  0xffffffffffffffff\n    /* \"#utility.yul\":1039:1049   */\n  dup3\n    /* \"#utility.yul\":1036:1070   */\n  gt\n    /* \"#utility.yul\":1033:1095   */\n  or\n    /* \"#utility.yul\":1030:1118   */\n  iszero\n  tag_54\n  jumpi\n    /* \"#utility.yul\":1098:1116   */\n  tag_55\n  tag_18\n  jump\t// in\ntag_55:\n    /* \"#utility.yul\":1030:1118   */\ntag_54:\n    /* \"#utility.yul\":1138:1148   */\n  dup1\n    /* \"#utility.yul\":1134:1136   */\n  0x40\n    /* \"#utility.yul\":1127:1149   */\n  mstore\n    /* \"#utility.yul\":917:1155   */\n  pop\n    /* \"#utility.yul\":874:1155   */\n  pop\n  pop\n  jump\t// out\n    /* \"#utility.yul\":1161:1290   */\ntag_20:\n    /* \"#utility.yul\":1195:1201   */\n  0x00\n    /* \"#utility.yul\":1222:1242   */\n  tag_57\n  tag_12\n  jump\t// in\ntag_57:\n    /* \"#utility.yul\":1212:1242   */\n  swap1\n  pop\n    /* \"#utility.yul\":1251:1284   */\n  tag_58\n    /* \"#utility.yul\":1279:1283   */\n  dup3\n    /* \"#utility.yul\":1271:1277   */\n  dup3\n    /* \"#utility.yul\":1251:1284   */\n  tag_19\n  jump\t// in\ntag_58:\n    /* \"#utility.yul\":1161:1290   */\n  swap2\n  swap1\n  pop\n  jump\t// out\n    /* \"#utility.yul\":1296:1604   */\ntag_21:\n    /* \"#utility.yul\":1358:1362   */\n  0x00\n    /* \"#utility.yul\":1448:1466   */\n  0xffffffffffffffff\n    /* \"#utility.yul\":1440:1446   */\n  dup3\n    /* \"#utility.yul\":1437:1467   */\n  gt\n    /* \"#utility.yul\":1434:1490   */\n  iszero\n  tag_60\n  jumpi\n    /* \"#utility.yul\":1470:1488   */\n  tag_61\n  tag_18\n  jump\t// in\ntag_61:\n    /* \"#utility.yul\":1434:1490   */\ntag_60:\n    /* \"#utility.yul\":1508:1537   */\n  tag_62\n    /* \"#utility.yul\":1530:1536   */\n  dup3\n    /* \"#utility.yul\":1508:1537   */\n  tag_17\n  jump\t// in\ntag_62:\n    /* \"#utility.yul\":1500:1537   */\n  swap1\n  pop\n    /* \"#utility.yul\":1592:1596   */\n  0x20\n    /* \"#utility.yul\":1586:1590   */\n  dup2\n    /* \"#utility.yul\":1582:1597   */\n  add\n    /* \"#utility.yul\":1574:1597   */\n  swap1\n  pop\n    /* \"#utility.yul\":1296:1604   */\n  swap2\n  swap1\n  pop\n  jump\t// out\n    /* \"#utility.yul\":1610:1856   */\ntag_22:\n    /* \"#utility.yul\":1691:1692   */\n  0x00\n    /* \"#utility.yul\":1701:1814   */\ntag_64:\n    /* \"#utility.yul\":1715:1721   */\n  dup4\n    /* \"#utility.yul\":1712:1713   */\n  dup2\n    /* \"#utility.yul\":1709:1722   */\n  lt\n    /* \"#utility.yul\":1701:1814   */\n  iszero\n  tag_66\n  jumpi\n    /* \"#utility.yul\":1800:1801   */\n  dup1\n    /* \"#utility.yul\":1795:1798   */\n  dup3\n    /* \"#utility.yul\":1791:1802   */\n  add\n    /* \"#utility.yul\":1785:1803   */\n  mload\n    /* \"#utility.yul\":1781:1782   */\n  dup2\n    /* \"#utility.yul\":1776:1779   */\n  dup5\n    /* \"#utility.yul\":1772:1783   */\n  add\n    /* \"#utility.yul\":1765:1804   */\n  mstore\n    /* \"#utility.yul\":1737:1739   */\n  0x20\n    /* \"#utility.yul\":1734:1735   */\n  dup2\n    /* \"#utility.yul\":1730:1740   */\n  add\n    /* \"#utility.yul\":1725:1740   */\n  swap1\n  pop\n    /* \"#utility.yul\":1701:1814   */\n  jump(tag_64)\ntag_66:\n    /* \"#utility.yul\":1848:1849   */\n  0x00\n    /* \"#utility.yul\":1839:1845   */\n  dup5\n    /* \"#utility.yul\":1834:1837   */\n  dup5\n    /* \"#utility.yul\":1830:1846   */\n  add\n    /* \"#utility.yul\":1823:1850   */\n  mstore\n    /* \"#utility.yul\":1672:1856   */\n  pop\n    /* \"#utility.yul\":1610:1856   */\n  pop\n  pop\n  pop\n  jump\t// out\n    /* \"#utility.yul\":1862:2296   */\ntag_23:\n    /* \"#utility.yul\":1951:1956   */\n  0x00\n    /* \"#utility.yul\":1976:2042   */\n  tag_68\n    /* \"#utility.yul\":1992:2041   */\n  tag_69\n    /* \"#utility.yul\":2034:2040   */\n  dup5\n    /* \"#utility.yul\":1992:2041   */\n  tag_21\n  jump\t// in\ntag_69:\n    /* \"#utility.yul\":1976:2042   */\n  tag_20\n  jump\t// in\ntag_68:\n    /* \"#utility.yul\":1967:2042   */\n  swap1\n  pop\n    /* \"#utility.yul\":2065:2071   */\n  dup3\n    /* \"#utility.yul\":2058:2063   */\n  dup2\n    /* \"#utility.yul\":2051:2072   */\n  mstore\n    /* \"#utility.yul\":2103:2107   */\n  0x20\n    /* \"#utility.yul\":2096:2101   */\n  dup2\n    /* \"#utility.yul\":2092:2108   */\n  add\n    /* \"#utility.yul\":2141:2144   */\n  dup5\n    /* \"#utility.yul\":2132:2138   */\n  dup5\n    /* \"#utility.yul\":2127:2130   */\n  dup5\n    /* \"#utility.yul\":2123:2139   */\n  add\n    /* \"#utility.yul\":2120:2145   */\n  gt\n    /* \"#utility.yul\":2117:2229   */\n  iszero\n  tag_70\n  jumpi\n    /* \"#utility.yul\":2148:2227   */\n  tag_71\n  tag_16\n  jump\t// in\ntag_71:\n    /* \"#utility.yul\":2117:2229   */\ntag_70:\n    /* \"#utility.yul\":2238:2290   */\n  tag_72\n    /* \"#utility.yul\":2283:2289   */\n  dup5\n    /* \"#utility.yul\":2278:2281   */\n  dup3\n    /* \"#utility.yul\":2273:2276   */\n  dup6\n    /* \"#utility.yul\":2238:2290   */\n  tag_22\n  jump\t// in\ntag_72:\n    /* \"#utility.yul\":1957:2296   */\n  pop\n    /* \"#utility.yul\":1862:2296   */\n  swap4\n  swap3\n  pop\n  pop\n  pop\n  jump\t// out\n    /* \"#utility.yul\":2316:2671   */\ntag_24:\n    /* \"#utility.yul\":2383:2388   */\n  0x00\n    /* \"#utility.yul\":2432:2435   */\n  dup3\n    /* \"#utility.yul\":2425:2429   */\n  0x1f\n    /* \"#utility.yul\":2417:2423   */\n  dup4\n    /* \"#utility.yul\":2413:2430   */\n  add\n    /* \"#utility.yul\":2409:2436   */\n  slt\n    /* \"#utility.yul\":2399:2521   */\n  tag_74\n  jumpi\n    /* \"#utility.yul\":2440:2519   */\n  tag_75\n  tag_15\n  jump\t// in\ntag_75:\n    /* \"#utility.yul\":2399:2521   */\ntag_74:\n    /* \"#utility.yul\":2550:2556   */\n  dup2\n    /* \"#utility.yul\":2544:2557   */\n  mload\n    /* \"#utility.yul\":2575:2665   */\n  tag_76\n    /* \"#utility.yul\":2661:2664   */\n  dup5\n    /* \"#utility.yul\":2653:2659   */\n  dup3\n    /* \"#utility.yul\":2646:2650   */\n  0x20\n    /* \"#utility.yul\":2638:2644   */\n  dup7\n    /* \"#utility.yul\":2634:2651   */\n  add\n    /* \"#utility.yul\":2575:2665   */\n  tag_23\n  jump\t// in\ntag_76:\n    /* \"#utility.yul\":2566:2665   */\n  swap2\n  pop\n    /* \"#utility.yul\":2389:2671   */\n  pop\n    /* \"#utility.yul\":2316:2671   */\n  swap3\n  swap2\n  pop\n  pop\n  jump\t// out\n    /* \"#utility.yul\":2677:3530   */\ntag_3:\n    /* \"#utility.yul\":2776:2782   */\n  0x00\n    /* \"#utility.yul\":2784:2790   */\n  dup1\n    /* \"#utility.yul\":2833:2835   */\n  0x40\n    /* \"#utility.yul\":2821:2830   */\n  dup4\n    /* \"#utility.yul\":2812:2819   */\n  dup6\n    /* \"#utility.yul\":2808:2831   */\n  sub\n    /* \"#utility.yul\":2804:2836   */\n  slt\n    /* \"#utility.yul\":2801:2920   */\n  iszero\n  tag_78\n  jumpi\n    /* \"#utility.yul\":2839:2918   */\n  tag_79\n  tag_13\n  jump\t// in\ntag_79:\n    /* \"#utility.yul\":2801:2920   */\ntag_78:\n    /* \"#utility.yul\":2980:2981   */\n  0x00\n    /* \"#utility.yul\":2969:2978   */\n  dup4\n    /* \"#utility.yul\":2965:2982   */\n  add\n    /* \"#utility.yul\":2959:2983   */\n  mload\n    /* \"#utility.yul\":3010:3028   */\n  0xffffffffffffffff\n    /* \"#utility.yul\":3002:3008   */\n  dup2\n    /* \"#utility.yul\":2999:3029   */\n  gt\n    /* \"#utility.yul\":2996:3113   */\n  iszero\n  tag_80\n  jumpi\n    /* \"#utility.yul\":3032:3111   */\n  tag_81\n  tag_14\n  jump\t// in\ntag_81:\n    /* \"#utility.yul\":2996:3113   */\ntag_80:\n    /* \"#utility.yul\":3137:3211   */\n  tag_82\n    /* \"#utility.yul\":3203:3210   */\n  dup6\n    /* \"#utility.yul\":3194:3200   */\n  dup3\n    /* \"#utility.yul\":3183:3192   */\n  dup7\n    /* \"#utility.yul\":3179:3201   */\n  add\n    /* \"#utility.yul\":3137:3211   */\n  tag_24\n  jump\t// in\ntag_82:\n    /* \"#utility.yul\":3127:3211   */\n  swap3\n  pop\n    /* \"#utility.yul\":2930:3221   */\n  pop\n    /* \"#utility.yul\":3281:3283   */\n  0x20\n    /* \"#utility.yul\":3270:3279   */\n  dup4\n    /* \"#utility.yul\":3266:3284   */\n  add\n    /* \"#utility.yul\":3260:3285   */\n  mload\n    /* \"#utility.yul\":3312:3330   */\n  0xffffffffffffffff\n    /* \"#utility.yul\":3304:3310   */\n  dup2\n    /* \"#utility.yul\":3301:3331   */\n  gt\n    /* \"#utility.yul\":3298:3415   */\n  iszero\n  tag_83\n  jumpi\n    /* \"#utility.yul\":3334:3413   */\n  tag_84\n  tag_14\n  jump\t// in\ntag_84:\n    /* \"#utility.yul\":3298:3415   */\ntag_83:\n    /* \"#utility.yul\":3439:3513   */\n  tag_85\n    /* \"#utility.yul\":3505:3512   */\n  dup6\n    /* \"#utility.yul\":3496:3502   */\n  dup3\n    /* \"#utility.yul\":3485:3494   */\n  dup7\n    /* \"#utility.yul\":3481:3503   */\n  add\n    /* \"#utility.yul\":3439:3513   */\n  tag_24\n  jump\t// in\ntag_85:\n    /* \"#utility.yul\":3429:3513   */\n  swap2\n  pop\n    /* \"#utility.yul\":3231:3523   */\n  pop\n    /* \"#utility.yul\":2677:3530   */\n  swap3\n  pop\n  swap3\n  swap1\n  pop\n  jump\t// out\n    /* \"#utility.yul\":3536:3635   */\ntag_25:\n    /* \"#utility.yul\":3588:3594   */\n  0x00\n    /* \"#utility.yul\":3622:3627   */\n  dup2\n    /* \"#utility.yul\":3616:3628   */\n  mload\n    /* \"#utility.yul\":3606:3628   */\n  swap1\n  pop\n    /* \"#utility.yul\":3536:3635   */\n  swap2\n  swap1\n  pop\n  jump\t// out\n    /* \"#utility.yul\":3641:3821   */\ntag_26:\n    /* \"#utility.yul\":3689:3766   */\n  0x4e487b7100000000000000000000000000000000000000000000000000000000\n    /* \"#utility.yul\":3686:3687   */\n  0x00\n    /* \"#utility.yul\":3679:3767   */\n  mstore\n    /* \"#utility.yul\":3786:3790   */\n  0x22\n    /* \"#utility.yul\":3783:3784   */\n  0x04\n    /* \"#utility.yul\":3776:3791   */\n  mstore\n    /* \"#utility.yul\":3810:3814   */\n  0x24\n    /* \"#utility.yul\":3807:3808   */\n  0x00\n    /* \"#utility.yul\":3800:3815   */\n  revert\n    /* \"#utility.yul\":3827:4147   */\ntag_27:\n    /* \"#utility.yul\":3871:3877   */\n  0x00\n    /* \"#utility.yul\":3908:3909   */\n  0x02\n    /* \"#utility.yul\":3902:3906   */\n  dup3\n    /* \"#utility.yul\":3898:3910   */\n  div\n    /* \"#utility.yul\":3888:3910   */\n  swap1\n  pop\n    /* \"#utility.yul\":3955:3956   */\n  0x01\n    /* \"#utility.yul\":3949:3953   */\n  dup3\n    /* \"#utility.yul\":3945:3957   */\n  and\n    /* \"#utility.yul\":3976:3994   */\n  dup1\n    /* \"#utility.yul\":3966:4047   */\n  tag_89\n  jumpi\n    /* \"#utility.yul\":4032:4036   */\n  0x7f\n    /* \"#utility.yul\":4024:4030   */\n  dup3\n    /* \"#utility.yul\":4020:4037   */\n  and\n    /* \"#utility.yul\":4010:4037   */\n  swap2\n  pop\n    /* \"#utility.yul\":3966:4047   */\ntag_89:\n    /* \"#utility.yul\":4094:4096   */\n  0x20\n    /* \"#utility.yul\":4086:4092   */\n  dup3\n    /* \"#utility.yul\":4083:4097   */\n  lt\n    /* \"#utility.yul\":4063:4081   */\n  dup2\n    /* \"#utility.yul\":4060:4098   */\n  sub\n    /* \"#utility.yul\":4057:4141   */\n  tag_90\n  jumpi\n    /* \"#utility.yul\":4113:4131   */\n  tag_91\n  tag_26\n  jump\t// in\ntag_91:\n    /* \"#utility.yul\":4057:4141   */\ntag_90:\n    /* \"#utility.yul\":3878:4147   */\n  pop\n    /* \"#utility.yul\":3827:4147   */\n  swap2\n  swap1\n  pop\n  jump\t// out\n    /* \"#utility.yul\":4153:4294   */\ntag_28:\n    /* \"#utility.yul\":4202:4206   */\n  0x00\n    /* \"#utility.yul\":4225:4228   */\n  dup2\n    /* \"#utility.yul\":4217:4228   */\n  swap1\n  pop\n    /* \"#utility.yul\":4248:4251   */\n  dup2\n    /* \"#utility.yul\":4245:4246   */\n  0x00\n    /* \"#utility.yul\":4238:4252   */\n  mstore\n    /* \"#utility.yul\":4282:4286   */\n  0x20\n    /* \"#utility.yul\":4279:4280   */\n  0x00\n    /* \"#utility.yul\":4269:4287   */\n  keccak256\n    /* \"#utility.yul\":4261:4287   */\n  swap1\n  pop\n    /* \"#utility.yul\":4153:4294   */\n  swap2\n  swap1\n  pop\n  jump\t// out\n    /* \"#utility.yul\":4300:4393   */\ntag_29:\n    /* \"#utility.yul\":4337:4343   */\n  0x00\n    /* \"#utility.yul\":4384:4386   */\n  0x20\n    /* \"#utility.yul\":4379:4381   */\n  0x1f\n    /* \"#utility.yul\":4372:4377   */\n  dup4\n    /* \"#utility.yul\":4368:4382   */\n  add\n    /* \"#utility.yul\":4364:4387   */\n  div\n    /* \"#utility.yul\":4354:4387   */\n  swap1\n  pop\n    /* \"#utility.yul\":4300:4393   */\n  swap2\n  swap1\n  pop\n  jump\t// out\n    /* \"#utility.yul\":4399:4506   */\ntag_30:\n    /* \"#utility.yul\":4443:4451   */\n  0x00\n    /* \"#utility.yul\":4493:4498   */\n  dup3\n    /* \"#utility.yul\":4487:4491   */\n  dup3\n    /* \"#utility.yul\":4483:4499   */\n  shl\n    /* \"#utility.yul\":4462:4499   */\n  swap1\n  pop\n    /* \"#utility.yul\":4399:4506   */\n  swap3\n  swap2\n  pop\n  pop\n  jump\t// out\n    /* \"#utility.yul\":4512:4905   */\ntag_31:\n    /* \"#utility.yul\":4581:4587   */\n  0x00\n    /* \"#utility.yul\":4631:4632   */\n  0x08\n    /* \"#utility.yul\":4619:4629   */\n  dup4\n    /* \"#utility.yul\":4615:4633   */\n  mul\n    /* \"#utility.yul\":4654:4751   */\n  tag_96\n    /* \"#utility.yul\":4684:4750   */\n  0xffffffffffffffffffffffffffffffffffffffffffffffffffffffffffffffff\n    /* \"#utility.yul\":4673:4682   */\n  dup3\n    /* \"#utility.yul\":4654:4751   */\n  tag_30\n  jump\t// in\ntag_96:\n    /* \"#utility.yul\":4772:4811   */\n  tag_97\n    /* \"#utility.yul\":4802:4810   */\n  dup7\n    /* \"#utility.yul\":4791:4800   */\n  dup4\n    /* \"#utility.yul\":4772:4811   */\n  tag_30\n  jump\t// in\ntag_97:\n    /* \"#utility.yul\":4760:4811   */\n  swap6\n  pop\n    /* \"#utility.yul\":4844:4848   */\n  dup1\n    /* \"#utility.yul\":4840:4849   */\n  not\n    /* \"#utility.yul\":4833:4838   */\n  dup5\n    /* \"#utility.yul\":4829:4850   */\n  and\n    /* \"#utility.yul\":4820:4850   */\n  swap4\n  pop\n    /* \"#utility.yul\":4893:4897   */\n  dup1\n    /* \"#utility.yul\":4883:4891   */\n  dup7\n    /* \"#utility.yul\":4879:4898   */\n  and\n    /* \"#utility.yul\":4872:4877   */\n  dup5\n    /* \"#utility.yul\":4869:4899   */\n  or\n    /* \"#utility.yul\":4859:4899   */\n  swap3\n  pop\n    /* \"#utility.yul\":4588:4905   */\n  pop\n  pop\n    /* \"#utility.yul\":4512:4905   */\n  swap4\n  swap3\n  pop\n  pop\n  pop\n  jump\t// out\n    /* \"#utility.yul\":4911:4988   */\ntag_32:\n    /* \"#utility.yul\":4948:4955   */\n  0x00\n    /* \"#utility.yul\":4977:4982   */\n  dup2\n    /* \"#utility.yul\":4966:4982   */\n  swap1\n  pop\n    /* \"#utility.yul\":4911:4988   */\n  swap2\n  swap1\n  pop\n  jump\t// out\n    /* \"#utility.yul\":4994:5054   */\ntag_33:\n    /* \"#utility.yul\":5022:5025   */\n  0x00\n    /* \"#utility.yul\":5043:5048   */\n  dup2\n    /* \"#utility.yul\":5036:5048   */\n  swap1\n  pop\n    /* \"#utility.yul\":4994:5054   */\n  swap2\n  swap1\n  pop\n  jump\t// out\n    /* \"#utility.yul\":5060:5202   */\ntag_34:\n    /* \"#utility.yul\":5110:5119   */\n  0x00\n    /* \"#utility.yul\":5143:5196   */\n  tag_101\n    /* \"#utility.yul\":5161:5195   */\n  tag_102\n    /* \"#utility.yul\":5170:5194   */\n  tag_103\n    /* \"#utility.yul\":5188:5193   */\n  dup5\n    /* \"#utility.yul\":5170:5194   */\n  tag_32\n  jump\t// in\ntag_103:\n    /* \"#utility.yul\":5161:5195   */\n  tag_33\n  jump\t// in\ntag_102:\n    /* \"#utility.yul\":5143:5196   */\n  tag_32\n  jump\t// in\ntag_101:\n    /* \"#utility.yul\":5130:5196   */\n  swap1\n  pop\n    /* \"#utility.yul\":5060:5202   */\n  swap2\n  swap1\n  pop\n  jump\t// out\n    /* \"#utility.yul\":5208:5283   */\ntag_35:\n    /* \"#utility.yul\":5251:5254   */\n  0x00\n    /* \"#utility.yul\":5272:5277   */\n  dup2\n    /* \"#utility.yul\":5265:5277   */\n  swap1\n  pop\n    /* \"#utility.yul\":5208:5283   */\n  swap2\n  swap1\n  pop\n  jump\t// out\n    /* \"#utility.yul\":5289:5558   */\ntag_36:\n    /* \"#utility.yul\":5399:5438   */\n  tag_106\n    /* \"#utility.yul\":5430:5437   */\n  dup4\n    /* \"#utility.yul\":5399:5438   */\n  tag_34\n  jump\t// in\ntag_106:\n    /* \"#utility.yul\":5460:5551   */\n  tag_107\n    /* \"#utility.yul\":5509:5550   */\n  tag_108\n    /* \"#utility.yul\":5533:5549   */\n  dup3\n    /* \"#utility.yul\":5509:5550   */\n  tag_35\n  jump\t// in\ntag_108:\n    /* \"#utility.yul\":5501:5507   */\n  dup5\n    /* \"#utility.yul\":5494:5498   */\n  dup5\n    /* \"#utility.yul\":5488:5499   */\n  sload\n    /* \"#utility.yul\":5460:5551   */\n  tag_31\n  jump\t// in\ntag_107:\n    /* \"#utility.yul\":5454:5458   */\n  dup3\n    /* \"#utility.yul\":5447:5552   */\n  sstore\n    /* \"#utility.yul\":5365:5558   */\n  pop\n    /* \"#utility.yul\":5289:5558   */\n  pop\n  pop\n  pop\n  jump\t// out\n    /* \"#utility.yul\":5564:5637   */\ntag_37:\n    /* \"#utility.yul\":5609:5612   */\n  0x00\n    /* \"#utility.yul\":5564:5637   */\n  swap1\n  jump\t// out\n    /* \"#utility.yul\":5643:5832   */\ntag_38:\n    /* \"#utility.yul\":5720:5752   */\n  tag_111\n  tag_37\n  jump\t// in\ntag_111:\n    /* \"#utility.yul\":5761:5826   */\n  tag_112\n    /* \"#utility.yul\":5819:5825   */\n  dup2\n    /* \"#utility.yul\":5811:5817   */\n  dup5\n    /* \"#utility.yul\":5805:5809   */\n  dup5\n    /* \"#utility.yul\":5761:5826   */\n  tag_36\n  jump\t// in\ntag_112:\n    /* \"#utility.yul\":5696:5832   */\n  pop\n    /* \"#utility.yul\":5643:5832   */\n  pop\n  pop\n  jump\t// out\n    /* \"#utility.yul\":5838:6024   */\ntag_39:\n    /* \"#utility.yul\":5898:6018   */\ntag_114:\n    /* \"#utility.yul\":5915:5918   */\n  dup2\n    /* \"#utility.yul\":5908:5913   */\n  dup2\n    /* \"#utility.yul\":5905:5919   */\n  lt\n    /* \"#utility.yul\":5898:6018   */\n  iszero\n  tag_116\n  jumpi\n    /* \"#utility.yul\":5969:6008   */\n  tag_117\n    /* \"#utility.yul\":6006:6007   */\n  0x00\n    /* \"#utility.yul\":5999:6004   */\n  dup3\n    /* \"#utility.yul\":5969:6008   */\n  tag_38\n  jump\t// in\ntag_117:\n    /* \"#utility.yul\":5942:5943   */\n  0x01\n    /* \"#utility.yul\":5935:5940   */\n  dup2\n    /* \"#utility.yul\":5931:5944   */\n  add\n    /* \"#utility.yul\":5922:5944   */\n  swap1\n  pop\n    /* \"#utility.yul\":5898:6018   */\n  jump(tag_114)\ntag_116:\n    /* \"#utility.yul\":5838:6024   */\n  pop\n  pop\n  jump\t// out\n    /* \"#utility.yul\":6030:6573   */\ntag_40:\n    /* \"#utility.yul\":6131:6133   */\n  0x1f\n    /* \"#utility.yul\":6126:6129   */\n  dup3\n    /* \"#utility.yul\":6123:6134   */\n  gt\n    /* \"#utility.yul\":6120:6566   */\n  iszero\n  tag_119\n  jumpi\n    /* \"#utility.yul\":6165:6203   */\n  tag_120\n    /* \"#utility.yul\":6197:6202   */\n  dup2\n    /* \"#utility.yul\":6165:6203   */\n  tag_28\n  jump\t// in\ntag_120:\n    /* \"#utility.yul\":6249:6278   */\n  tag_121\n    /* \"#utility.yul\":6267:6277   */\n  dup5\n    /* \"#utility.yul\":6249:6278   */\n  tag_29\n  jump\t// in\ntag_121:\n    /* \"#utility.yul\":6239:6247   */\n  dup2\n    /* \"#utility.yul\":6235:6279   */\n  add\n    /* \"#utility.yul\":6432:6434   */\n  0x20\n    /* \"#utility.yul\":6420:6430   */\n  dup6\n    /* \"#utility.yul\":6417:6435   */\n  lt\n    /* \"#utility.yul\":6414:6463   */\n  iszero\n  tag_122\n  jumpi\n    /* \"#utility.yul\":6453:6461   */\n  dup2\n    /* \"#utility.yul\":6438:6461   */\n  swap1\n  pop\n    /* \"#utility.yul\":6414:6463   */\ntag_122:\n    /* \"#utility.yul\":6476:6556   */\n  tag_123\n    /* \"#utility.yul\":6532:6554   */\n  tag_124\n    /* \"#utility.yul\":6550:6553   */\n  dup6\n    /* \"#utility.yul\":6532:6554   */\n  tag_29\n  jump\t// in\ntag_124:\n    /* \"#utility.yul\":6522:6530   */\n  dup4\n    /* \"#utility.yul\":6518:6555   */\n  add\n    /* \"#utility.yul\":6505:6516   */\n  dup3\n    /* \"#utility.yul\":6476:6556   */\n  tag_39\n  jump\t// in\ntag_123:\n    /* \"#utility.yul\":6135:6566   */\n  pop\n  pop\n    /* \"#utility.yul\":6120:6566   */\ntag_119:\n    /* \"#utility.yul\":6030:6573   */\n  pop\n  pop\n  pop\n  jump\t// out\n    /* \"#utility.yul\":6579:6696   */\ntag_41:\n    /* \"#utility.yul\":6633:6641   */\n  0x00\n    /* \"#utility.yul\":6683:6688   */\n  dup3\n    /* \"#utility.yul\":6677:6681   */\n  dup3\n    /* \"#utility.yul\":6673:6689   */\n  shr\n    /* \"#utility.yul\":6652:6689   */\n  swap1\n  pop\n    /* \"#utility.yul\":6579:6696   */\n  swap3\n  swap2\n  pop\n  pop\n  jump\t// out\n    /* \"#utility.yul\":6702:6871   */\ntag_42:\n    /* \"#utility.yul\":6746:6752   */\n  0x00\n    /* \"#utility.yul\":6779:6830   */\n  tag_127\n    /* \"#utility.yul\":6827:6828   */\n  0x00\n    /* \"#utility.yul\":6823:6829   */\n  not\n    /* \"#utility.yul\":6815:6820   */\n  dup5\n    /* \"#utility.yul\":6812:6813   */\n  0x08\n    /* \"#utility.yul\":6808:6821   */\n  mul\n    /* \"#utility.yul\":6779:6830   */\n  tag_41\n  jump\t// in\ntag_127:\n    /* \"#utility.yul\":6775:6831   */\n  not\n    /* \"#utility.yul\":6860:6864   */\n  dup1\n    /* \"#utility.yul\":6854:6858   */\n  dup4\n    /* \"#utility.yul\":6850:6865   */\n  and\n    /* \"#utility.yul\":6840:6865   */\n  swap2\n  pop\n    /* \"#utility.yul\":6753:6871   */\n  pop\n    /* \"#utility.yul\":6702:6871   */\n  swap3\n  swap2\n  pop\n  pop\n  jump\t// out\n    /* \"#utility.yul\":6876:7171   */\ntag_43:\n    /* \"#utility.yul\":6952:6956   */\n  0x00\n    /* \"#utility.yul\":7098:7127   */\n  tag_129\n    /* \"#utility.yul\":7123:7126   */\n  dup4\n    /* \"#utility.yul\":7117:7121   */\n  dup4\n    /* \"#utility.yul\":7098:7127   */\n  tag_42\n  jump\t// in\ntag_129:\n    /* \"#utility.yul\":7090:7127   */\n  swap2\n  pop\n    /* \"#utility.yul\":7160:7163   */\n  dup3\n    /* \"#utility.yul\":7157:7158   */\n  0x02\n    /* \"#utility.yul\":7153:7164   */\n  mul\n    /* \"#utility.yul\":7147:7151   */\n  dup3\n    /* \"#utility.yul\":7144:7165   */\n  or\n    /* \"#utility.yul\":7136:7165   */\n  swap1\n  pop\n    /* \"#utility.yul\":6876:7171   */\n  swap3\n  swap2\n  pop\n  pop\n  jump\t// out\n    /* \"#utility.yul\":7176:8571   */\ntag_8:\n    /* \"#utility.yul\":7293:7330   */\n  tag_131\n    /* \"#utility.yul\":7326:7329   */\n  dup3\n    /* \"#utility.yul\":7293:7330   */\n  tag_25\n  jump\t// in\ntag_131:\n    /* \"#utility.yul\":7395:7413   */\n  0xffffffffffffffff\n    /* \"#utility.yul\":7387:7393   */\n  dup2\n    /* \"#utility.yul\":7384:7414   */\n  gt\n    /* \"#utility.yul\":7381:7437   */\n  iszero\n  tag_132\n  jumpi\n    /* \"#utility.yul\":7417:7435   */\n  tag_133\n  tag_18\n  jump\t// in\ntag_133:\n    /* \"#utility.yul\":7381:7437   */\ntag_132:\n    /* \"#utility.yul\":7461:7499   */\n  tag_134\n    /* \"#utility.yul\":7493:7497   */\n  dup3\n    /* \"#utility.yul\":7487:7498   */\n  sload\n    /* \"#utility.yul\":7461:7499   */\n  tag_27\n  jump\t// in\ntag_134:\n    /* \"#utility.yul\":7546:7613   */\n  tag_135\n    /* \"#utility.yul\":7606:7612   */\n  dup3\n    /* \"#utility.yul\":7598:7604   */\n  dup3\n    /* \"#utility.yul\":7592:7596   */\n  dup6\n    /* \"#utility.yul\":7546:7613   */\n  tag_40\n  jump\t// in\ntag_135:\n    /* \"#utility.yul\":7640:7641   */\n  0x00\n    /* \"#utility.yul\":7664:7668   */\n  0x20\n    /* \"#utility.yul\":7651:7668   */\n  swap1\n  pop\n    /* \"#utility.yul\":7696:7698   */\n  0x1f\n    /* \"#utility.yul\":7688:7694   */\n  dup4\n    /* \"#utility.yul\":7685:7699   */\n  gt\n    /* \"#utility.yul\":7713:7714   */\n  0x01\n    /* \"#utility.yul\":7708:8326   */\n  dup2\n  eq\n  tag_137\n  jumpi\n    /* \"#utility.yul\":8370:8371   */\n  0x00\n    /* \"#utility.yul\":8387:8393   */\n  dup5\n    /* \"#utility.yul\":8384:8461   */\n  iszero\n  tag_138\n  jumpi\n    /* \"#utility.yul\":8436:8445   */\n  dup3\n    /* \"#utility.yul\":8431:8434   */\n  dup8\n    /* \"#utility.yul\":8427:8446   */\n  add\n    /* \"#utility.yul\":8421:8447   */\n  mload\n    /* \"#utility.yul\":8412:8447   */\n  swap1\n  pop\n    /* \"#utility.yul\":8384:8461   */\ntag_138:\n    /* \"#utility.yul\":8487:8554   */\n  tag_139\n    /* \"#utility.yul\":8547:8553   */\n  dup6\n    /* \"#utility.yul\":8540:8545   */\n  dup3\n    /* \"#utility.yul\":8487:8554   */\n  tag_43\n  jump\t// in\ntag_139:\n    /* \"#utility.yul\":8481:8485   */\n  dup7\n    /* \"#utility.yul\":8474:8555   */\n  sstore\n    /* \"#utility.yul\":8343:8565   */\n  pop\n    /* \"#utility.yul\":7678:8565   */\n  jump(tag_136)\n    /* \"#utility.yul\":7708:8326   */\ntag_137:\n    /* \"#utility.yul\":7760:7764   */\n  0x1f\n    /* \"#utility.yul\":7756:7765   */\n  not\n    /* \"#utility.yul\":7748:7754   */\n  dup5\n    /* \"#utility.yul\":7744:7766   */\n  and\n    /* \"#utility.yul\":7794:7831   */\n  tag_140\n    /* \"#utility.yul\":7826:7830   */\n  dup7\n    /* \"#utility.yul\":7794:7831   */\n  tag_28\n  jump\t// in\ntag_140:\n    /* \"#utility.yul\":7853:7854   */\n  0x00\n    /* \"#utility.yul\":7867:8075   */\ntag_141:\n    /* \"#utility.yul\":7881:7888   */\n  dup3\n    /* \"#utility.yul\":7878:7879   */\n  dup2\n    /* \"#utility.yul\":7875:7889   */\n  lt\n    /* \"#utility.yul\":7867:8075   */\n  iszero\n  tag_143\n  jumpi\n    /* \"#utility.yul\":7960:7969   */\n  dup5\n    /* \"#utility.yul\":7955:7958   */\n  dup10\n    /* \"#utility.yul\":7951:7970   */\n  add\n    /* \"#utility.yul\":7945:7971   */\n  mload\n    /* \"#utility.yul\":7937:7943   */\n  dup3\n    /* \"#utility.yul\":7930:7972   */\n  sstore\n    /* \"#utility.yul\":8011:8012   */\n  0x01\n    /* \"#utility.yul\":8003:8009   */\n  dup3\n    /* \"#utility.yul\":7999:8013   */\n  add\n    /* \"#utility.yul\":7989:8013   */\n  swap2\n  pop\n    /* \"#utility.yul\":8058:8060   */\n  0x20\n    /* \"#utility.yul\":8047:8056   */\n  dup6\n    /* \"#utility.yul\":8043:8061   */\n  add\n    /* \"#utility.yul\":8030:8061   */\n  swap5\n  pop\n    /* \"#utility.yul\":7904:7908   */\n  0x20\n    /* \"#utility.yul\":7901:7902   */\n  dup2\n    /* \"#utility.yul\":7897:7909   */\n  add\n    /* \"#utility.yul\":7892:7909   */\n  swap1\n  pop\n    /* \"#utility.yul\":7867:8075   */\n  jump(tag_141)\ntag_143:\n    /* \"#utility.yul\":8103:8109   */\n  dup7\n    /* \"#utility.yul\":8094:8101   */\n  dup4\n    /* \"#utility.yul\":8091:8110   */\n  lt\n    /* \"#utility.yul\":8088:8267   */\n  iszero\n  tag_144\n  jumpi\n    /* \"#utility.yul\":8161:8170   */\n  dup5\n    /* \"#utility.yul\":8156:8159   */\n  dup10\n    /* \"#utility.yul\":8152:8171   */\n  add\n    /* \"#utility.yul\":8146:8172   */\n  mload\n    /* \"#utility.yul\":8204:8252   */\n  tag_145\n    /* \"#utility.yul\":8246:8250   */\n  0x1f\n    /* \"#utility.yul\":8238:8244   */\n  dup10\n    /* \"#utility.yul\":8234:8251   */\n  and\n    /* \"#utility.yul\":8223:8232   */\n  dup3\n    /* \"#utility.yul\":8204:8252   */\n  tag_42\n  jump\t// in\ntag_145:\n    /* \"#utility.yul\":8196:8202   */\n  dup4\n    /* \"#utility.yul\":8189:8253   */\n  sstore\n    /* \"#utility.yul\":8111:8267   */\n  pop\n    /* \"#utility.yul\":8088:8267   */\ntag_144:\n    /* \"#utility.yul\":8313:8314   */\n  0x01\n    /* \"#utility.yul\":8309:8310   */\n  0x02\n    /* \"#utility.yul\":8301:8307   */\n  dup9\n    /* \"#utility.yul\":8297:8311   */\n  mul\n    /* \"#utility.yul\":8293:8315   */\n  add\n    /* \"#utility.yul\":8287:8291   */\n  dup9\n    /* \"#utility.yul\":8280:8316   */\n  sstore\n    /* \"#utility.yul\":7715:8326   */\n  pop\n  pop\n  pop\n    /* \"#utility.yul\":7678:8565   */\ntag_136:\n  pop\n    /* \"#utility.yul\":7268:8571   */\n  pop\n  pop\n  pop\n    /* \"#utility.yul\":7176:8571   */\n  pop\n  pop\n  jump\t// out\n    /* \"myNFT.sol\":175:3131  contract MyNFT is ERC721 {... */\ntag_11:\n  dataSize(sub_0)\n  dup1\n  dataOffset(sub_0)\n  0x00\n  codecopy\n  0x00\n  return\nstop\n\nsub_0: assembly {\n        /* \"myNFT.sol\":175:3131  contract MyNFT is ERC721 {... */\n      mstore(0x40, 0x80)\n      callvalue\n      dup1\n      iszero\n      tag_1\n      jumpi\n      0x00\n      dup1\n      revert\n    tag_1:\n      pop\n      jumpi(tag_2, lt(calldatasize, 0x04))\n      shr(0xe0, calldataload(0x00))\n      dup1\n      0x6352211e\n      gt\n      tag_19\n      jumpi\n      dup1\n      0xb88d4fde\n      gt\n      tag_20\n      jumpi\n      dup1\n      0xb88d4fde\n      eq\n      tag_15\n      jumpi\n      dup1\n      0xc87b56dd\n      eq\n      tag_16\n      jumpi\n      dup1\n      0xe985e9c5\n      eq\n      tag_17\n      jumpi\n      dup1\n      0xf2cee92b\n      eq\n      tag_18\n      jumpi\n      jump(tag_2)\n    tag_20:\n      dup1\n      0x6352211e\n      eq\n      tag_11\n      jumpi\n      dup1\n      0x70a08231\n      eq\n      tag_12\n      jumpi\n      dup1\n      0x95d89b41\n      eq\n      tag_13\n      jumpi\n      dup1\n      0xa22cb465\n      eq\n      tag_14\n      jumpi\n      jump(tag_2)\n    tag_19:\n      dup1\n      0x162094c4\n      gt\n      tag_21\n      jumpi\n      dup1\n      0x162094c4\n      eq\n      tag_7\n      jumpi\n      dup1\n      0x23b872dd\n      eq\n      tag_8\n      jumpi\n      dup1\n      0x29d6724e\n      eq\n      tag_9\n      jumpi\n      dup1\n      0x42842e0e\n      eq\n      tag_10\n      jumpi\n      jump(tag_2)\n    tag_21:\n      dup1\n      0x01ffc9a7\n      eq\n      tag_3\n      jumpi\n      dup1\n      0x06fdde03\n      eq\n      tag_4\n      jumpi\n      dup1\n      0x081812fc\n      eq\n      tag_5\n      jumpi\n      dup1\n      0x095ea7b3\n      eq\n      tag_6\n      jumpi\n    tag_2:\n      0x00\n      dup1\n      revert\n        /* \"node_modules/@openzeppelin/contracts/token/ERC721/ERC721.sol\":3063:3363  function supportsInterface(bytes4 interfaceId) public view virtual override(ERC165, IERC165) returns (bool) {... */\n    tag_3:\n      tag_22\n      0x04\n      dup1\n      calldatasize\n      sub\n      dup2\n      add\n      swap1\n      tag_23\n      swap2\n      swap1\n      tag_24\n      jump\t// in\n    tag_23:\n      tag_25\n      jump\t// in\n    tag_22:\n      mload(0x40)\n      tag_26\n      swap2\n      swap1\n      tag_27\n      jump\t// in\n    tag_26:\n      mload(0x40)\n      dup1\n      swap2\n      sub\n      swap1\n      return\n        /* \"node_modules/@openzeppelin/contracts/token/ERC721/ERC721.sol\":4208:4297  function name() public view virtual returns (string memory) {... */\n    tag_4:\n      tag_28\n      tag_29\n      jump\t// in\n    tag_28:\n      mload(0x40)\n      tag_30\n      swap2\n      swap1\n      tag_31\n      jump\t// in\n    tag_30:\n      mload(0x40)\n      dup1\n      swap2\n      sub\n      swap1\n      return\n        /* \"node_modules/@openzeppelin/contracts/token/ERC721/ERC721.sol\":6521:6675  function getApproved(uint256 tokenId) public view virtual returns (address) {... */\n    tag_5:\n      tag_32\n      0x04\n      dup1\n      calldatasize\n      sub\n      dup2\n      add\n      swap1\n      tag_33\n      swap2\n      swap1\n      tag_34\n      jump\t// in\n    tag_33:\n      tag_35\n      jump\t// in\n    tag_32:\n      mload(0x40)\n      tag_36\n      swap2\n      swap1\n      tag_37\n      jump\t// in\n    tag_36:\n      mload(0x40)\n      dup1\n      swap2\n      sub\n      swap1\n      return\n        /* \"node_modules/@openzeppelin/contracts/token/ERC721/ERC721.sol\":6347:6460  function approve(address to, uint256 tokenId) public virtual {... */\n    tag_6:\n      tag_38\n      0x04\n      dup1\n      calldatasize\n      sub\n      dup2\n      add\n      swap1\n      tag_39\n      swap2\n      swap1\n      tag_40\n      jump\t// in\n    tag_39:\n      tag_41\n      jump\t// in\n    tag_38:\n      stop\n        /* \"myNFT.sol\":954:1076  function setTokenURI( uint256 _tokenId ,  string memory uri) public { ... */\n    tag_7:\n      tag_42\n      0x04\n      dup1\n      calldatasize\n      sub\n      dup2\n      add\n      swap1\n      tag_43\n      swap2\n      swap1\n      tag_44\n      jump\t// in\n    tag_43:\n      tag_45\n      jump\t// in\n    tag_42:\n      stop\n        /* \"node_modules/@openzeppelin/contracts/token/ERC721/ERC721.sol\":7167:7745  function transferFrom(address from, address to, uint256 tokenId) public virtual {... */\n    tag_8:\n      tag_46\n      0x04\n      dup1\n      calldatasize\n      sub\n      dup2\n      add\n      swap1\n      tag_47\n      swap2\n      swap1\n      tag_48\n      jump\t// in\n    tag_47:\n      tag_49\n      jump\t// in\n    tag_46:\n      stop\n        /* \"myNFT.sol\":2436:3078  function setAppAll(address owner, address operator, bool approved) public {... */\n    tag_9:\n      tag_50\n      0x04\n      dup1\n      calldatasize\n      sub\n      dup2\n      add\n      swap1\n      tag_51\n      swap2\n      swap1\n      tag_52\n      jump\t// in\n    tag_51:\n      tag_53\n      jump\t// in\n    tag_50:\n      stop\n        /* \"node_modules/@openzeppelin/contracts/token/ERC721/ERC721.sol\":7811:7943  function safeTransferFrom(address from, address to, uint256 tokenId) public {... */\n    tag_10:\n      tag_54\n      0x04\n      dup1\n      calldatasize\n      sub\n      dup2\n      add\n      swap1\n      tag_55\n      swap2\n      swap1\n      tag_48\n      jump\t// in\n    tag_55:\n      tag_56\n      jump\t// in\n    tag_54:\n      stop\n        /* \"node_modules/@openzeppelin/contracts/token/ERC721/ERC721.sol\":3995:4113  function ownerOf(uint256 tokenId) public view virtual returns (address) {... */\n    tag_11:\n      tag_57\n      0x04\n      dup1\n      calldatasize\n      sub\n      dup2\n      add\n      swap1\n      tag_58\n      swap2\n      swap1\n      tag_34\n      jump\t// in\n    tag_58:\n      tag_59\n      jump\t// in\n    tag_57:\n      mload(0x40)\n      tag_60\n      swap2\n      swap1\n      tag_37\n      jump\t// in\n    tag_60:\n      mload(0x40)\n      dup1\n      swap2\n      sub\n      swap1\n      return\n        /* \"node_modules/@openzeppelin/contracts/token/ERC721/ERC721.sol\":3551:3759  function balanceOf(address owner) public view virtual returns (uint256) {... */\n    tag_12:\n      tag_61\n      0x04\n      dup1\n      calldatasize\n      sub\n      dup2\n      add\n      swap1\n      tag_62\n      swap2\n      swap1\n      tag_63\n      jump\t// in\n    tag_62:\n      tag_64\n      jump\t// in\n    tag_61:\n      mload(0x40)\n      tag_65\n      swap2\n      swap1\n      tag_66\n      jump\t// in\n    tag_65:\n      mload(0x40)\n      dup1\n      swap2\n      sub\n      swap1\n      return\n        /* \"node_modules/@openzeppelin/contracts/token/ERC721/ERC721.sol\":4361:4454  function symbol() public view virtual returns (string memory) {... */\n    tag_13:\n      tag_67\n      tag_68\n      jump\t// in\n    tag_67:\n      mload(0x40)\n      tag_69\n      swap2\n      swap1\n      tag_31\n      jump\t// in\n    tag_69:\n      mload(0x40)\n      dup1\n      swap2\n      sub\n      swap1\n      return\n        /* \"node_modules/@openzeppelin/contracts/token/ERC721/ERC721.sol\":6742:6886  function setApprovalForAll(address operator, bool approved) public virtual {... */\n    tag_14:\n      tag_70\n      0x04\n      dup1\n      calldatasize\n      sub\n      dup2\n      add\n      swap1\n      tag_71\n      swap2\n      swap1\n      tag_72\n      jump\t// in\n    tag_71:\n      tag_73\n      jump\t// in\n    tag_70:\n      stop\n        /* \"node_modules/@openzeppelin/contracts/token/ERC721/ERC721.sol\":8009:8217  function safeTransferFrom(address from, address to, uint256 tokenId, bytes memory data) public virtual {... */\n    tag_15:\n      tag_74\n      0x04\n      dup1\n      calldatasize\n      sub\n      dup2\n      add\n      swap1\n      tag_75\n      swap2\n      swap1\n      tag_76\n      jump\t// in\n    tag_75:\n      tag_77\n      jump\t// in\n    tag_74:\n      stop\n        /* \"myNFT.sol\":1294:1579  function tokenURI( uint256 _tokenId) public view override returns(string memory){... */\n    tag_16:\n      tag_78\n      0x04\n      dup1\n      calldatasize\n      sub\n      dup2\n      add\n      swap1\n      tag_79\n      swap2\n      swap1\n      tag_34\n      jump\t// in\n    tag_79:\n      tag_80\n      jump\t// in\n    tag_78:\n      mload(0x40)\n      tag_81\n      swap2\n      swap1\n      tag_31\n      jump\t// in\n    tag_81:\n      mload(0x40)\n      dup1\n      swap2\n      sub\n      swap1\n      return\n        /* \"node_modules/@openzeppelin/contracts/token/ERC721/ERC721.sol\":6952:7105  function isApprovedForAll(address owner, address operator) public view virtual returns (bool) {... */\n    tag_17:\n      tag_82\n      0x04\n      dup1\n      calldatasize\n      sub\n      dup2\n      add\n      swap1\n      tag_83\n      swap2\n      swap1\n      tag_84\n      jump\t// in\n    tag_83:\n      tag_85\n      jump\t// in\n    tag_82:\n      mload(0x40)\n      tag_86\n      swap2\n      swap1\n      tag_27\n      jump\t// in\n    tag_86:\n      mload(0x40)\n      dup1\n      swap2\n      sub\n      swap1\n      return\n        /* \"myNFT.sol\":1871:1967  function minting(uint256 _tokenId) public {... */\n    tag_18:\n      tag_87\n      0x04\n      dup1\n      calldatasize\n      sub\n      dup2\n      add\n      swap1\n      tag_88\n      swap2\n      swap1\n      tag_34\n      jump\t// in\n    tag_88:\n      tag_89\n      jump\t// in\n    tag_87:\n      stop\n        /* \"node_modules/@openzeppelin/contracts/token/ERC721/ERC721.sol\":3063:3363  function supportsInterface(bytes4 interfaceId) public view virtual override(ERC165, IERC165) returns (bool) {... */\n    tag_25:\n        /* \"node_modules/@openzeppelin/contracts/token/ERC721/ERC721.sol\":3165:3169  bool */\n      0x00\n        /* \"node_modules/@openzeppelin/contracts/token/ERC721/ERC721.sol\":3215:3240  type(IERC721).interfaceId */\n      0x80ac58cd00000000000000000000000000000000000000000000000000000000\n        /* \"node_modules/@openzeppelin/contracts/token/ERC721/ERC721.sol\":3200:3240  interfaceId == type(IERC721).interfaceId */\n      not(0xffffffffffffffffffffffffffffffffffffffffffffffffffffffff)\n      and\n        /* \"node_modules/@openzeppelin/contracts/token/ERC721/ERC721.sol\":3200:3211  interfaceId */\n      dup3\n        /* \"node_modules/@openzeppelin/contracts/token/ERC721/ERC721.sol\":3200:3240  interfaceId == type(IERC721).interfaceId */\n      not(0xffffffffffffffffffffffffffffffffffffffffffffffffffffffff)\n      and\n      eq\n        /* \"node_modules/@openzeppelin/contracts/token/ERC721/ERC721.sol\":3200:3304  interfaceId == type(IERC721).interfaceId ||... */\n      dup1\n      tag_91\n      jumpi\n      pop\n        /* \"node_modules/@openzeppelin/contracts/token/ERC721/ERC721.sol\":3271:3304  type(IERC721Metadata).interfaceId */\n      0x5b5e139f00000000000000000000000000000000000000000000000000000000\n        /* \"node_modules/@openzeppelin/contracts/token/ERC721/ERC721.sol\":3256:3304  interfaceId == type(IERC721Metadata).interfaceId */\n      not(0xffffffffffffffffffffffffffffffffffffffffffffffffffffffff)\n      and\n        /* \"node_modules/@openzeppelin/contracts/token/ERC721/ERC721.sol\":3256:3267  interfaceId */\n      dup3\n        /* \"node_modules/@openzeppelin/contracts/token/ERC721/ERC721.sol\":3256:3304  interfaceId == type(IERC721Metadata).interfaceId */\n      not(0xffffffffffffffffffffffffffffffffffffffffffffffffffffffff)\n      and\n      eq\n        /* \"node_modules/@openzeppelin/contracts/token/ERC721/ERC721.sol\":3200:3304  interfaceId == type(IERC721).interfaceId ||... */\n    tag_91:\n        /* \"node_modules/@openzeppelin/contracts/token/ERC721/ERC721.sol\":3200:3356  interfaceId == type(IERC721).interfaceId ||... */\n      dup1\n      tag_92\n      jumpi\n      pop\n        /* \"node_modules/@openzeppelin/contracts/token/ERC721/ERC721.sol\":3320:3356  super.supportsInterface(interfaceId) */\n      tag_93\n        /* \"node_modules/@openzeppelin/contracts/token/ERC721/ERC721.sol\":3344:3355  interfaceId */\n      dup3\n        /* \"node_modules/@openzeppelin/contracts/token/ERC721/ERC721.sol\":3320:3343  super.supportsInterface */\n      tag_94\n        /* \"node_modules/@openzeppelin/contracts/token/ERC721/ERC721.sol\":3320:3356  super.supportsInterface(interfaceId) */\n      jump\t// in\n    tag_93:\n        /* \"node_modules/@openzeppelin/contracts/token/ERC721/ERC721.sol\":3200:3356  interfaceId == type(IERC721).interfaceId ||... */\n    tag_92:\n        /* \"node_modules/@openzeppelin/contracts/token/ERC721/ERC721.sol\":3181:3356  return... */\n      swap1\n      pop\n        /* \"node_modules/@openzeppelin/contracts/token/ERC721/ERC721.sol\":3063:3363  function supportsInterface(bytes4 interfaceId) public view virtual override(ERC165, IERC165) returns (bool) {... */\n      swap2\n      swap1\n      pop\n      jump\t// out\n        /* \"node_modules/@openzeppelin/contracts/token/ERC721/ERC721.sol\":4208:4297  function name() public view virtual returns (string memory) {... */\n    tag_29:\n        /* \"node_modules/@openzeppelin/contracts/token/ERC721/ERC721.sol\":4253:4266  string memory */\n      0x60\n        /* \"node_modules/@openzeppelin/contracts/token/ERC721/ERC721.sol\":4285:4290  _name */\n      0x00\n        /* \"node_modules/@openzeppelin/contracts/token/ERC721/ERC721.sol\":4278:4290  return _name */\n      dup1\n      sload\n      tag_96\n      swap1\n      tag_97\n      jump\t// in\n    tag_96:\n      dup1\n      0x1f\n      add\n      0x20\n      dup1\n      swap2\n      div\n      mul\n      0x20\n      add\n      mload(0x40)\n      swap1\n      dup2\n      add\n      0x40\n      mstore\n      dup1\n      swap3\n      swap2\n      swap1\n      dup2\n      dup2\n      mstore\n      0x20\n      add\n      dup3\n      dup1\n      sload\n      tag_98\n      swap1\n      tag_97\n      jump\t// in\n    tag_98:\n      dup1\n      iszero\n      tag_99\n      jumpi\n      dup1\n      0x1f\n      lt\n      tag_100\n      jumpi\n      0x0100\n      dup1\n      dup4\n      sload\n      div\n      mul\n      dup4\n      mstore\n      swap2\n      0x20\n      add\n      swap2\n      jump(tag_99)\n    tag_100:\n      dup3\n      add\n      swap2\n      swap1\n      0x00\n      mstore\n      keccak256(0x00, 0x20)\n      swap1\n    tag_101:\n      dup2\n      sload\n      dup2\n      mstore\n      swap1\n      0x01\n      add\n      swap1\n      0x20\n      add\n      dup1\n      dup4\n      gt\n      tag_101\n      jumpi\n      dup3\n      swap1\n      sub\n      0x1f\n      and\n      dup3\n      add\n      swap2\n    tag_99:\n      pop\n      pop\n      pop\n      pop\n      pop\n      swap1\n      pop\n        /* \"node_modules/@openzeppelin/contracts/token/ERC721/ERC721.sol\":4208:4297  function name() public view virtual returns (string memory) {... */\n      swap1\n      jump\t// out\n        /* \"node_modules/@openzeppelin/contracts/token/ERC721/ERC721.sol\":6521:6675  function getApproved(uint256 tokenId) public view virtual returns (address) {... */\n    tag_35:\n        /* \"node_modules/@openzeppelin/contracts/token/ERC721/ERC721.sol\":6588:6595  address */\n      0x00\n        /* \"node_modules/@openzeppelin/contracts/token/ERC721/ERC721.sol\":6607:6629  _requireOwned(tokenId) */\n      tag_103\n        /* \"node_modules/@openzeppelin/contracts/token/ERC721/ERC721.sol\":6621:6628  tokenId */\n      dup3\n        /* \"node_modules/@openzeppelin/contracts/token/ERC721/ERC721.sol\":6607:6620  _requireOwned */\n      tag_104\n        /* \"node_modules/@openzeppelin/contracts/token/ERC721/ERC721.sol\":6607:6629  _requireOwned(tokenId) */\n      jump\t// in\n    tag_103:\n      pop\n        /* \"node_modules/@openzeppelin/contracts/token/ERC721/ERC721.sol\":6647:6668  _getApproved(tokenId) */\n      tag_105\n        /* \"node_modules/@openzeppelin/contracts/token/ERC721/ERC721.sol\":6660:6667  tokenId */\n      dup3\n        /* \"node_modules/@openzeppelin/contracts/token/ERC721/ERC721.sol\":6647:6659  _getApproved */\n      tag_106\n        /* \"node_modules/@openzeppelin/contracts/token/ERC721/ERC721.sol\":6647:6668  _getApproved(tokenId) */\n      jump\t// in\n    tag_105:\n        /* \"node_modules/@openzeppelin/contracts/token/ERC721/ERC721.sol\":6640:6668  return _getApproved(tokenId) */\n      swap1\n      pop\n        /* \"node_modules/@openzeppelin/contracts/token/ERC721/ERC721.sol\":6521:6675  function getApproved(uint256 tokenId) public view virtual returns (address) {... */\n      swap2\n      swap1\n      pop\n      jump\t// out\n        /* \"node_modules/@openzeppelin/contracts/token/ERC721/ERC721.sol\":6347:6460  function approve(address to, uint256 tokenId) public virtual {... */\n    tag_41:\n        /* \"node_modules/@openzeppelin/contracts/token/ERC721/ERC721.sol\":6418:6453  _approve(to, tokenId, _msgSender()) */\n      tag_108\n        /* \"node_modules/@openzeppelin/contracts/token/ERC721/ERC721.sol\":6427:6429  to */\n      dup3\n        /* \"node_modules/@openzeppelin/contracts/token/ERC721/ERC721.sol\":6431:6438  tokenId */\n      dup3\n        /* \"node_modules/@openzeppelin/contracts/token/ERC721/ERC721.sol\":6440:6452  _msgSender() */\n      tag_109\n        /* \"node_modules/@openzeppelin/contracts/token/ERC721/ERC721.sol\":6440:6450  _msgSender */\n      tag_110\n        /* \"node_modules/@openzeppelin/contracts/token/ERC721/ERC721.sol\":6440:6452  _msgSender() */\n      jump\t// in\n    tag_109:\n        /* \"node_modules/@openzeppelin/contracts/token/ERC721/ERC721.sol\":6418:6426  _approve */\n      tag_111\n        /* \"node_modules/@openzeppelin/contracts/token/ERC721/ERC721.sol\":6418:6453  _approve(to, tokenId, _msgSender()) */\n      jump\t// in\n    tag_108:\n        /* \"node_modules/@openzeppelin/contracts/token/ERC721/ERC721.sol\":6347:6460  function approve(address to, uint256 tokenId) public virtual {... */\n      pop\n      pop\n      jump\t// out\n        /* \"myNFT.sol\":954:1076  function setTokenURI( uint256 _tokenId ,  string memory uri) public { ... */\n    tag_45:\n        /* \"myNFT.sol\":1061:1064  uri */\n      dup1\n        /* \"myNFT.sol\":1038:1048  _tokenURIs */\n      0x06\n        /* \"myNFT.sol\":1038:1058  _tokenURIs[_tokenId] */\n      0x00\n        /* \"myNFT.sol\":1049:1057  _tokenId */\n      dup5\n        /* \"myNFT.sol\":1038:1058  _tokenURIs[_tokenId] */\n      dup2\n      mstore\n      0x20\n      add\n      swap1\n      dup2\n      mstore\n      0x20\n      add\n      0x00\n      keccak256\n        /* \"myNFT.sol\":1038:1064  _tokenURIs[_tokenId] = uri */\n      swap1\n      dup2\n      tag_113\n      swap2\n      swap1\n      tag_114\n      jump\t// in\n    tag_113:\n      pop\n        /* \"myNFT.sol\":954:1076  function setTokenURI( uint256 _tokenId ,  string memory uri) public { ... */\n      pop\n      pop\n      jump\t// out\n        /* \"node_modules/@openzeppelin/contracts/token/ERC721/ERC721.sol\":7167:7745  function transferFrom(address from, address to, uint256 tokenId) public virtual {... */\n    tag_49:\n        /* \"node_modules/@openzeppelin/contracts/token/ERC721/ERC721.sol\":7275:7276  0 */\n      0x00\n        /* \"node_modules/@openzeppelin/contracts/token/ERC721/ERC721.sol\":7261:7277  to == address(0) */\n      0xffffffffffffffffffffffffffffffffffffffff\n      and\n        /* \"node_modules/@openzeppelin/contracts/token/ERC721/ERC721.sol\":7261:7263  to */\n      dup3\n        /* \"node_modules/@openzeppelin/contracts/token/ERC721/ERC721.sol\":7261:7277  to == address(0) */\n      0xffffffffffffffffffffffffffffffffffffffff\n      and\n      sub\n        /* \"node_modules/@openzeppelin/contracts/token/ERC721/ERC721.sol\":7257:7344  if (to == address(0)) {... */\n      tag_116\n      jumpi\n        /* \"node_modules/@openzeppelin/contracts/token/ERC721/ERC721.sol\":7330:7331  0 */\n      0x00\n        /* \"node_modules/@openzeppelin/contracts/token/ERC721/ERC721.sol\":7300:7333  ERC721InvalidReceiver(address(0)) */\n      mload(0x40)\n      0x64a0ae9200000000000000000000000000000000000000000000000000000000\n      dup2\n      mstore\n      0x04\n      add\n      tag_117\n      swap2\n      swap1\n      tag_37\n      jump\t// in\n    tag_117:\n      mload(0x40)\n      dup1\n      swap2\n      sub\n      swap1\n      revert\n        /* \"node_modules/@openzeppelin/contracts/token/ERC721/ERC721.sol\":7257:7344  if (to == address(0)) {... */\n    tag_116:\n        /* \"node_modules/@openzeppelin/contracts/token/ERC721/ERC721.sol\":7562:7583  address previousOwner */\n      0x00\n        /* \"node_modules/@openzeppelin/contracts/token/ERC721/ERC721.sol\":7586:7620  _update(to, tokenId, _msgSender()) */\n      tag_118\n        /* \"node_modules/@openzeppelin/contracts/token/ERC721/ERC721.sol\":7594:7596  to */\n      dup4\n        /* \"node_modules/@openzeppelin/contracts/token/ERC721/ERC721.sol\":7598:7605  tokenId */\n      dup4\n        /* \"node_modules/@openzeppelin/contracts/token/ERC721/ERC721.sol\":7607:7619  _msgSender() */\n      tag_119\n        /* \"node_modules/@openzeppelin/contracts/token/ERC721/ERC721.sol\":7607:7617  _msgSender */\n      tag_110\n        /* \"node_modules/@openzeppelin/contracts/token/ERC721/ERC721.sol\":7607:7619  _msgSender() */\n      jump\t// in\n    tag_119:\n        /* \"node_modules/@openzeppelin/contracts/token/ERC721/ERC721.sol\":7586:7593  _update */\n      tag_120\n        /* \"node_modules/@openzeppelin/contracts/token/ERC721/ERC721.sol\":7586:7620  _update(to, tokenId, _msgSender()) */\n      jump\t// in\n    tag_118:\n        /* \"node_modules/@openzeppelin/contracts/token/ERC721/ERC721.sol\":7562:7620  address previousOwner = _update(to, tokenId, _msgSender()) */\n      swap1\n      pop\n        /* \"node_modules/@openzeppelin/contracts/token/ERC721/ERC721.sol\":7651:7655  from */\n      dup4\n        /* \"node_modules/@openzeppelin/contracts/token/ERC721/ERC721.sol\":7634:7655  previousOwner != from */\n      0xffffffffffffffffffffffffffffffffffffffff\n      and\n        /* \"node_modules/@openzeppelin/contracts/token/ERC721/ERC721.sol\":7634:7647  previousOwner */\n      dup2\n        /* \"node_modules/@openzeppelin/contracts/token/ERC721/ERC721.sol\":7634:7655  previousOwner != from */\n      0xffffffffffffffffffffffffffffffffffffffff\n      and\n      eq\n        /* \"node_modules/@openzeppelin/contracts/token/ERC721/ERC721.sol\":7630:7739  if (previousOwner != from) {... */\n      tag_121\n      jumpi\n        /* \"node_modules/@openzeppelin/contracts/token/ERC721/ERC721.sol\":7699:7703  from */\n      dup4\n        /* \"node_modules/@openzeppelin/contracts/token/ERC721/ERC721.sol\":7705:7712  tokenId */\n      dup3\n        /* \"node_modules/@openzeppelin/contracts/token/ERC721/ERC721.sol\":7714:7727  previousOwner */\n      dup3\n        /* \"node_modules/@openzeppelin/contracts/token/ERC721/ERC721.sol\":7678:7728  ERC721IncorrectOwner(from, tokenId, previousOwner) */\n      mload(0x40)\n      0x64283d7b00000000000000000000000000000000000000000000000000000000\n      dup2\n      mstore\n      0x04\n      add\n      tag_122\n      swap4\n      swap3\n      swap2\n      swap1\n      tag_123\n      jump\t// in\n    tag_122:\n      mload(0x40)\n      dup1\n      swap2\n      sub\n      swap1\n      revert\n        /* \"node_modules/@openzeppelin/contracts/token/ERC721/ERC721.sol\":7630:7739  if (previousOwner != from) {... */\n    tag_121:\n        /* \"node_modules/@openzeppelin/contracts/token/ERC721/ERC721.sol\":7247:7745  {... */\n      pop\n        /* \"node_modules/@openzeppelin/contracts/token/ERC721/ERC721.sol\":7167:7745  function transferFrom(address from, address to, uint256 tokenId) public virtual {... */\n      pop\n      pop\n      pop\n      jump\t// out\n        /* \"myNFT.sol\":2436:3078  function setAppAll(address owner, address operator, bool approved) public {... */\n    tag_53:\n        /* \"myNFT.sol\":2521:2566  _setApprovalForAll(owner, operator, approved) */\n      tag_125\n        /* \"myNFT.sol\":2540:2545  owner */\n      dup4\n        /* \"myNFT.sol\":2547:2555  operator */\n      dup4\n        /* \"myNFT.sol\":2557:2565  approved */\n      dup4\n        /* \"myNFT.sol\":2521:2539  _setApprovalForAll */\n      tag_126\n        /* \"myNFT.sol\":2521:2566  _setApprovalForAll(owner, operator, approved) */\n      jump\t// in\n    tag_125:\n        /* \"myNFT.sol\":2436:3078  function setAppAll(address owner, address operator, bool approved) public {... */\n      pop\n      pop\n      pop\n      jump\t// out\n        /* \"node_modules/@openzeppelin/contracts/token/ERC721/ERC721.sol\":7811:7943  function safeTransferFrom(address from, address to, uint256 tokenId) public {... */\n    tag_56:\n        /* \"node_modules/@openzeppelin/contracts/token/ERC721/ERC721.sol\":7897:7936  safeTransferFrom(from, to, tokenId, \"\") */\n      tag_128\n        /* \"node_modules/@openzeppelin/contracts/token/ERC721/ERC721.sol\":7914:7918  from */\n      dup4\n        /* \"node_modules/@openzeppelin/contracts/token/ERC721/ERC721.sol\":7920:7922  to */\n      dup4\n        /* \"node_modules/@openzeppelin/contracts/token/ERC721/ERC721.sol\":7924:7931  tokenId */\n      dup4\n        /* \"node_modules/@openzeppelin/contracts/token/ERC721/ERC721.sol\":7897:7936  safeTransferFrom(from, to, tokenId, \"\") */\n      mload(0x40)\n      dup1\n      0x20\n      add\n      0x40\n      mstore\n      dup1\n      0x00\n      dup2\n      mstore\n      pop\n        /* \"node_modules/@openzeppelin/contracts/token/ERC721/ERC721.sol\":7897:7913  safeTransferFrom */\n      tag_77\n        /* \"node_modules/@openzeppelin/contracts/token/ERC721/ERC721.sol\":7897:7936  safeTransferFrom(from, to, tokenId, \"\") */\n      jump\t// in\n    tag_128:\n        /* \"node_modules/@openzeppelin/contracts/token/ERC721/ERC721.sol\":7811:7943  function safeTransferFrom(address from, address to, uint256 tokenId) public {... */\n      pop\n      pop\n      pop\n      jump\t// out\n        /* \"node_modules/@openzeppelin/contracts/token/ERC721/ERC721.sol\":3995:4113  function ownerOf(uint256 tokenId) public view virtual returns (address) {... */\n    tag_59:\n        /* \"node_modules/@openzeppelin/contracts/token/ERC721/ERC721.sol\":4058:4065  address */\n      0x00\n        /* \"node_modules/@openzeppelin/contracts/token/ERC721/ERC721.sol\":4084:4106  _requireOwned(tokenId) */\n      tag_130\n        /* \"node_modules/@openzeppelin/contracts/token/ERC721/ERC721.sol\":4098:4105  tokenId */\n      dup3\n        /* \"node_modules/@openzeppelin/contracts/token/ERC721/ERC721.sol\":4084:4097  _requireOwned */\n      tag_104\n        /* \"node_modules/@openzeppelin/contracts/token/ERC721/ERC721.sol\":4084:4106  _requireOwned(tokenId) */\n      jump\t// in\n    tag_130:\n        /* \"node_modules/@openzeppelin/contracts/token/ERC721/ERC721.sol\":4077:4106  return _requireOwned(tokenId) */\n      swap1\n      pop\n        /* \"node_modules/@openzeppelin/contracts/token/ERC721/ERC721.sol\":3995:4113  function ownerOf(uint256 tokenId) public view virtual returns (address) {... */\n      swap2\n      swap1\n      pop\n      jump\t// out\n        /* \"node_modules/@openzeppelin/contracts/token/ERC721/ERC721.sol\":3551:3759  function balanceOf(address owner) public view virtual returns (uint256) {... */\n    tag_64:\n        /* \"node_modules/@openzeppelin/contracts/token/ERC721/ERC721.sol\":3614:3621  uint256 */\n      0x00\n        /* \"node_modules/@openzeppelin/contracts/token/ERC721/ERC721.sol\":3654:3655  0 */\n      dup1\n        /* \"node_modules/@openzeppelin/contracts/token/ERC721/ERC721.sol\":3637:3656  owner == address(0) */\n      0xffffffffffffffffffffffffffffffffffffffff\n      and\n        /* \"node_modules/@openzeppelin/contracts/token/ERC721/ERC721.sol\":3637:3642  owner */\n      dup3\n        /* \"node_modules/@openzeppelin/contracts/token/ERC721/ERC721.sol\":3637:3656  owner == address(0) */\n      0xffffffffffffffffffffffffffffffffffffffff\n      and\n      sub\n        /* \"node_modules/@openzeppelin/contracts/token/ERC721/ERC721.sol\":3633:3720  if (owner == address(0)) {... */\n      tag_132\n      jumpi\n        /* \"node_modules/@openzeppelin/contracts/token/ERC721/ERC721.sol\":3706:3707  0 */\n      0x00\n        /* \"node_modules/@openzeppelin/contracts/token/ERC721/ERC721.sol\":3679:3709  ERC721InvalidOwner(address(0)) */\n      mload(0x40)\n      0x89c62b6400000000000000000000000000000000000000000000000000000000\n      dup2\n      mstore\n      0x04\n      add\n      tag_133\n      swap2\n      swap1\n      tag_37\n      jump\t// in\n    tag_133:\n      mload(0x40)\n      dup1\n      swap2\n      sub\n      swap1\n      revert\n        /* \"node_modules/@openzeppelin/contracts/token/ERC721/ERC721.sol\":3633:3720  if (owner == address(0)) {... */\n    tag_132:\n        /* \"node_modules/@openzeppelin/contracts/token/ERC721/ERC721.sol\":3736:3745  _balances */\n      0x03\n        /* \"node_modules/@openzeppelin/contracts/token/ERC721/ERC721.sol\":3736:3752  _balances[owner] */\n      0x00\n        /* \"node_modules/@openzeppelin/contracts/token/ERC721/ERC721.sol\":3746:3751  owner */\n      dup4\n        /* \"node_modules/@openzeppelin/contracts/token/ERC721/ERC721.sol\":3736:3752  _balances[owner] */\n      0xffffffffffffffffffffffffffffffffffffffff\n      and\n      0xffffffffffffffffffffffffffffffffffffffff\n      and\n      dup2\n      mstore\n      0x20\n      add\n      swap1\n      dup2\n      mstore\n      0x20\n      add\n      0x00\n      keccak256\n      sload\n        /* \"node_modules/@openzeppelin/contracts/token/ERC721/ERC721.sol\":3729:3752  return _balances[owner] */\n      swap1\n      pop\n        /* \"node_modules/@openzeppelin/contracts/token/ERC721/ERC721.sol\":3551:3759  function balanceOf(address owner) public view virtual returns (uint256) {... */\n      swap2\n      swap1\n      pop\n      jump\t// out\n        /* \"node_modules/@openzeppelin/contracts/token/ERC721/ERC721.sol\":4361:4454  function symbol() public view virtual returns (string memory) {... */\n    tag_68:\n        /* \"node_modules/@openzeppelin/contracts/token/ERC721/ERC721.sol\":4408:4421  string memory */\n      0x60\n        /* \"node_modules/@openzeppelin/contracts/token/ERC721/ERC721.sol\":4440:4447  _symbol */\n      0x01\n        /* \"node_modules/@openzeppelin/contracts/token/ERC721/ERC721.sol\":4433:4447  return _symbol */\n      dup1\n      sload\n      tag_135\n      swap1\n      tag_97\n      jump\t// in\n    tag_135:\n      dup1\n      0x1f\n      add\n      0x20\n      dup1\n      swap2\n      div\n      mul\n      0x20\n      add\n      mload(0x40)\n      swap1\n      dup2\n      add\n      0x40\n      mstore\n      dup1\n      swap3\n      swap2\n      swap1\n      dup2\n      dup2\n      mstore\n      0x20\n      add\n      dup3\n      dup1\n      sload\n      tag_136\n      swap1\n      tag_97\n      jump\t// in\n    tag_136:\n      dup1\n      iszero\n      tag_137\n      jumpi\n      dup1\n      0x1f\n      lt\n      tag_138\n      jumpi\n      0x0100\n      dup1\n      dup4\n      sload\n      div\n      mul\n      dup4\n      mstore\n      swap2\n      0x20\n      add\n      swap2\n      jump(tag_137)\n    tag_138:\n      dup3\n      add\n      swap2\n      swap1\n      0x00\n      mstore\n      keccak256(0x00, 0x20)\n      swap1\n    tag_139:\n      dup2\n      sload\n      dup2\n      mstore\n      swap1\n      0x01\n      add\n      swap1\n      0x20\n      add\n      dup1\n      dup4\n      gt\n      tag_139\n      jumpi\n      dup3\n      swap1\n      sub\n      0x1f\n      and\n      dup3\n      add\n      swap2\n    tag_137:\n      pop\n      pop\n      pop\n      pop\n      pop\n      swap1\n      pop\n        /* \"node_modules/@openzeppelin/contracts/token/ERC721/ERC721.sol\":4361:4454  function symbol() public view virtual returns (string memory) {... */\n      swap1\n      jump\t// out\n        /* \"node_modules/@openzeppelin/contracts/token/ERC721/ERC721.sol\":6742:6886  function setApprovalForAll(address operator, bool approved) public virtual {... */\n    tag_73:\n        /* \"node_modules/@openzeppelin/contracts/token/ERC721/ERC721.sol\":6827:6879  _setApprovalForAll(_msgSender(), operator, approved) */\n      tag_141\n        /* \"node_modules/@openzeppelin/contracts/token/ERC721/ERC721.sol\":6846:6858  _msgSender() */\n      tag_142\n        /* \"node_modules/@openzeppelin/contracts/token/ERC721/ERC721.sol\":6846:6856  _msgSender */\n      tag_110\n        /* \"node_modules/@openzeppelin/contracts/token/ERC721/ERC721.sol\":6846:6858  _msgSender() */\n      jump\t// in\n    tag_142:\n        /* \"node_modules/@openzeppelin/contracts/token/ERC721/ERC721.sol\":6860:6868  operator */\n      dup4\n        /* \"node_modules/@openzeppelin/contracts/token/ERC721/ERC721.sol\":6870:6878  approved */\n      dup4\n        /* \"node_modules/@openzeppelin/contracts/token/ERC721/ERC721.sol\":6827:6845  _setApprovalForAll */\n      tag_126\n        /* \"node_modules/@openzeppelin/contracts/token/ERC721/ERC721.sol\":6827:6879  _setApprovalForAll(_msgSender(), operator, approved) */\n      jump\t// in\n    tag_141:\n        /* \"node_modules/@openzeppelin/contracts/token/ERC721/ERC721.sol\":6742:6886  function setApprovalForAll(address operator, bool approved) public virtual {... */\n      pop\n      pop\n      jump\t// out\n        /* \"node_modules/@openzeppelin/contracts/token/ERC721/ERC721.sol\":8009:8217  function safeTransferFrom(address from, address to, uint256 tokenId, bytes memory data) public virtual {... */\n    tag_77:\n        /* \"node_modules/@openzeppelin/contracts/token/ERC721/ERC721.sol\":8122:8153  transferFrom(from, to, tokenId) */\n      tag_144\n        /* \"node_modules/@openzeppelin/contracts/token/ERC721/ERC721.sol\":8135:8139  from */\n      dup5\n        /* \"node_modules/@openzeppelin/contracts/token/ERC721/ERC721.sol\":8141:8143  to */\n      dup5\n        /* \"node_modules/@openzeppelin/contracts/token/ERC721/ERC721.sol\":8145:8152  tokenId */\n      dup5\n        /* \"node_modules/@openzeppelin/contracts/token/ERC721/ERC721.sol\":8122:8134  transferFrom */\n      tag_49\n        /* \"node_modules/@openzeppelin/contracts/token/ERC721/ERC721.sol\":8122:8153  transferFrom(from, to, tokenId) */\n      jump\t// in\n    tag_144:\n        /* \"node_modules/@openzeppelin/contracts/token/ERC721/ERC721.sol\":8163:8210  _checkOnERC721Received(from, to, tokenId, data) */\n      tag_145\n        /* \"node_modules/@openzeppelin/contracts/token/ERC721/ERC721.sol\":8186:8190  from */\n      dup5\n        /* \"node_modules/@openzeppelin/contracts/token/ERC721/ERC721.sol\":8192:8194  to */\n      dup5\n        /* \"node_modules/@openzeppelin/contracts/token/ERC721/ERC721.sol\":8196:8203  tokenId */\n      dup5\n        /* \"node_modules/@openzeppelin/contracts/token/ERC721/ERC721.sol\":8205:8209  data */\n      dup5\n        /* \"node_modules/@openzeppelin/contracts/token/ERC721/ERC721.sol\":8163:8185  _checkOnERC721Received */\n      tag_146\n        /* \"node_modules/@openzeppelin/contracts/token/ERC721/ERC721.sol\":8163:8210  _checkOnERC721Received(from, to, tokenId, data) */\n      jump\t// in\n    tag_145:\n        /* \"node_modules/@openzeppelin/contracts/token/ERC721/ERC721.sol\":8009:8217  function safeTransferFrom(address from, address to, uint256 tokenId, bytes memory data) public virtual {... */\n      pop\n      pop\n      pop\n      pop\n      jump\t// out\n        /* \"myNFT.sol\":1294:1579  function tokenURI( uint256 _tokenId) public view override returns(string memory){... */\n    tag_80:\n        /* \"myNFT.sol\":1360:1373  string memory */\n      0x60\n        /* \"myNFT.sol\":1396:1406  _tokenURIs */\n      0x06\n        /* \"myNFT.sol\":1396:1416  _tokenURIs[_tokenId] */\n      0x00\n        /* \"myNFT.sol\":1407:1415  _tokenId */\n      dup4\n        /* \"myNFT.sol\":1396:1416  _tokenURIs[_tokenId] */\n      dup2\n      mstore\n      0x20\n      add\n      swap1\n      dup2\n      mstore\n      0x20\n      add\n      0x00\n      keccak256\n        /* \"myNFT.sol\":1389:1416  return _tokenURIs[_tokenId] */\n      dup1\n      sload\n      tag_148\n      swap1\n      tag_97\n      jump\t// in\n    tag_148:\n      dup1\n      0x1f\n      add\n      0x20\n      dup1\n      swap2\n      div\n      mul\n      0x20\n      add\n      mload(0x40)\n      swap1\n      dup2\n      add\n      0x40\n      mstore\n      dup1\n      swap3\n      swap2\n      swap1\n      dup2\n      dup2\n      mstore\n      0x20\n      add\n      dup3\n      dup1\n      sload\n      tag_149\n      swap1\n      tag_97\n      jump\t// in\n    tag_149:\n      dup1\n      iszero\n      tag_150\n      jumpi\n      dup1\n      0x1f\n      lt\n      tag_151\n      jumpi\n      0x0100\n      dup1\n      dup4\n      sload\n      div\n      mul\n      dup4\n      mstore\n      swap2\n      0x20\n      add\n      swap2\n      jump(tag_150)\n    tag_151:\n      dup3\n      add\n      swap2\n      swap1\n      0x00\n      mstore\n      keccak256(0x00, 0x20)\n      swap1\n    tag_152:\n      dup2\n      sload\n      dup2\n      mstore\n      swap1\n      0x01\n      add\n      swap1\n      0x20\n      add\n      dup1\n      dup4\n      gt\n      tag_152\n      jumpi\n      dup3\n      swap1\n      sub\n      0x1f\n      and\n      dup3\n      add\n      swap2\n    tag_150:\n      pop\n      pop\n      pop\n      pop\n      pop\n      swap1\n      pop\n        /* \"myNFT.sol\":1294:1579  function tokenURI( uint256 _tokenId) public view override returns(string memory){... */\n      swap2\n      swap1\n      pop\n      jump\t// out\n        /* \"node_modules/@openzeppelin/contracts/token/ERC721/ERC721.sol\":6952:7105  function isApprovedForAll(address owner, address operator) public view virtual returns (bool) {... */\n    tag_85:\n        /* \"node_modules/@openzeppelin/contracts/token/ERC721/ERC721.sol\":7040:7044  bool */\n      0x00\n        /* \"node_modules/@openzeppelin/contracts/token/ERC721/ERC721.sol\":7063:7081  _operatorApprovals */\n      0x05\n        /* \"node_modules/@openzeppelin/contracts/token/ERC721/ERC721.sol\":7063:7088  _operatorApprovals[owner] */\n      0x00\n        /* \"node_modules/@openzeppelin/contracts/token/ERC721/ERC721.sol\":7082:7087  owner */\n      dup5\n        /* \"node_modules/@openzeppelin/contracts/token/ERC721/ERC721.sol\":7063:7088  _operatorApprovals[owner] */\n      0xffffffffffffffffffffffffffffffffffffffff\n      and\n      0xffffffffffffffffffffffffffffffffffffffff\n      and\n      dup2\n      mstore\n      0x20\n      add\n      swap1\n      dup2\n      mstore\n      0x20\n      add\n      0x00\n      keccak256\n        /* \"node_modules/@openzeppelin/contracts/token/ERC721/ERC721.sol\":7063:7098  _operatorApprovals[owner][operator] */\n      0x00\n        /* \"node_modules/@openzeppelin/contracts/token/ERC721/ERC721.sol\":7089:7097  operator */\n      dup4\n        /* \"node_modules/@openzeppelin/contracts/token/ERC721/ERC721.sol\":7063:7098  _operatorApprovals[owner][operator] */\n      0xffffffffffffffffffffffffffffffffffffffff\n      and\n      0xffffffffffffffffffffffffffffffffffffffff\n      and\n      dup2\n      mstore\n      0x20\n      add\n      swap1\n      dup2\n      mstore\n      0x20\n      add\n      0x00\n      keccak256\n      0x00\n      swap1\n      sload\n      swap1\n      0x0100\n      exp\n      swap1\n      div\n      0xff\n      and\n        /* \"node_modules/@openzeppelin/contracts/token/ERC721/ERC721.sol\":7056:7098  return _operatorApprovals[owner][operator] */\n      swap1\n      pop\n        /* \"node_modules/@openzeppelin/contracts/token/ERC721/ERC721.sol\":6952:7105  function isApprovedForAll(address owner, address operator) public view virtual returns (bool) {... */\n      swap3\n      swap2\n      pop\n      pop\n      jump\t// out\n        /* \"myNFT.sol\":1871:1967  function minting(uint256 _tokenId) public {... */\n    tag_89:\n        /* \"myNFT.sol\":1928:1955  _mint(msg.sender, _tokenId) */\n      tag_155\n        /* \"myNFT.sol\":1934:1944  msg.sender */\n      caller\n        /* \"myNFT.sol\":1946:1954  _tokenId */\n      dup3\n        /* \"myNFT.sol\":1928:1933  _mint */\n      tag_156\n        /* \"myNFT.sol\":1928:1955  _mint(msg.sender, _tokenId) */\n      jump\t// in\n    tag_155:\n        /* \"myNFT.sol\":1871:1967  function minting(uint256 _tokenId) public {... */\n      pop\n      jump\t// out\n        /* \"node_modules/@openzeppelin/contracts/utils/introspection/ERC165.sol\":762:908  function supportsInterface(bytes4 interfaceId) public view virtual returns (bool) {... */\n    tag_94:\n        /* \"node_modules/@openzeppelin/contracts/utils/introspection/ERC165.sol\":838:842  bool */\n      0x00\n        /* \"node_modules/@openzeppelin/contracts/utils/introspection/ERC165.sol\":876:901  type(IERC165).interfaceId */\n      0x01ffc9a700000000000000000000000000000000000000000000000000000000\n        /* \"node_modules/@openzeppelin/contracts/utils/introspection/ERC165.sol\":861:901  interfaceId == type(IERC165).interfaceId */\n      not(0xffffffffffffffffffffffffffffffffffffffffffffffffffffffff)\n      and\n        /* \"node_modules/@openzeppelin/contracts/utils/introspection/ERC165.sol\":861:872  interfaceId */\n      dup3\n        /* \"node_modules/@openzeppelin/contracts/utils/introspection/ERC165.sol\":861:901  interfaceId == type(IERC165).interfaceId */\n      not(0xffffffffffffffffffffffffffffffffffffffffffffffffffffffff)\n      and\n      eq\n        /* \"node_modules/@openzeppelin/contracts/utils/introspection/ERC165.sol\":854:901  return interfaceId == type(IERC165).interfaceId */\n      swap1\n      pop\n        /* \"node_modules/@openzeppelin/contracts/utils/introspection/ERC165.sol\":762:908  function supportsInterface(bytes4 interfaceId) public view virtual returns (bool) {... */\n      swap2\n      swap1\n      pop\n      jump\t// out\n        /* \"node_modules/@openzeppelin/contracts/token/ERC721/ERC721.sol\":19162:19403  function _requireOwned(uint256 tokenId) internal view returns (address) {... */\n    tag_104:\n        /* \"node_modules/@openzeppelin/contracts/token/ERC721/ERC721.sol\":19225:19232  address */\n      0x00\n        /* \"node_modules/@openzeppelin/contracts/token/ERC721/ERC721.sol\":19244:19257  address owner */\n      dup1\n        /* \"node_modules/@openzeppelin/contracts/token/ERC721/ERC721.sol\":19260:19277  _ownerOf(tokenId) */\n      tag_159\n        /* \"node_modules/@openzeppelin/contracts/token/ERC721/ERC721.sol\":19269:19276  tokenId */\n      dup4\n        /* \"node_modules/@openzeppelin/contracts/token/ERC721/ERC721.sol\":19260:19268  _ownerOf */\n      tag_160\n        /* \"node_modules/@openzeppelin/contracts/token/ERC721/ERC721.sol\":19260:19277  _ownerOf(tokenId) */\n      jump\t// in\n    tag_159:\n        /* \"node_modules/@openzeppelin/contracts/token/ERC721/ERC721.sol\":19244:19277  address owner = _ownerOf(tokenId) */\n      swap1\n      pop\n        /* \"node_modules/@openzeppelin/contracts/token/ERC721/ERC721.sol\":19308:19309  0 */\n      0x00\n        /* \"node_modules/@openzeppelin/contracts/token/ERC721/ERC721.sol\":19291:19310  owner == address(0) */\n      0xffffffffffffffffffffffffffffffffffffffff\n      and\n        /* \"node_modules/@openzeppelin/contracts/token/ERC721/ERC721.sol\":19291:19296  owner */\n      dup2\n        /* \"node_modules/@openzeppelin/contracts/token/ERC721/ERC721.sol\":19291:19310  owner == address(0) */\n      0xffffffffffffffffffffffffffffffffffffffff\n      and\n      sub\n        /* \"node_modules/@openzeppelin/contracts/token/ERC721/ERC721.sol\":19287:19375  if (owner == address(0)) {... */\n      tag_161\n      jumpi\n        /* \"node_modules/@openzeppelin/contracts/token/ERC721/ERC721.sol\":19356:19363  tokenId */\n      dup3\n        /* \"node_modules/@openzeppelin/contracts/token/ERC721/ERC721.sol\":19333:19364  ERC721NonexistentToken(tokenId) */\n      mload(0x40)\n      0x7e27328900000000000000000000000000000000000000000000000000000000\n      dup2\n      mstore\n      0x04\n      add\n      tag_162\n      swap2\n      swap1\n      tag_66\n      jump\t// in\n    tag_162:\n      mload(0x40)\n      dup1\n      swap2\n      sub\n      swap1\n      revert\n        /* \"node_modules/@openzeppelin/contracts/token/ERC721/ERC721.sol\":19287:19375  if (owner == address(0)) {... */\n    tag_161:\n        /* \"node_modules/@openzeppelin/contracts/token/ERC721/ERC721.sol\":19391:19396  owner */\n      dup1\n        /* \"node_modules/@openzeppelin/contracts/token/ERC721/ERC721.sol\":19384:19396  return owner */\n      swap2\n      pop\n      pop\n        /* \"node_modules/@openzeppelin/contracts/token/ERC721/ERC721.sol\":19162:19403  function _requireOwned(uint256 tokenId) internal view returns (address) {... */\n      swap2\n      swap1\n      pop\n      jump\t// out\n        /* \"node_modules/@openzeppelin/contracts/token/ERC721/ERC721.sol\":8962:9089  function _getApproved(uint256 tokenId) internal view virtual returns (address) {... */\n    tag_106:\n        /* \"node_modules/@openzeppelin/contracts/token/ERC721/ERC721.sol\":9032:9039  address */\n      0x00\n        /* \"node_modules/@openzeppelin/contracts/token/ERC721/ERC721.sol\":9058:9073  _tokenApprovals */\n      0x04\n        /* \"node_modules/@openzeppelin/contracts/token/ERC721/ERC721.sol\":9058:9082  _tokenApprovals[tokenId] */\n      0x00\n        /* \"node_modules/@openzeppelin/contracts/token/ERC721/ERC721.sol\":9074:9081  tokenId */\n      dup4\n        /* \"node_modules/@openzeppelin/contracts/token/ERC721/ERC721.sol\":9058:9082  _tokenApprovals[tokenId] */\n      dup2\n      mstore\n      0x20\n      add\n      swap1\n      dup2\n      mstore\n      0x20\n      add\n      0x00\n      keccak256\n      0x00\n      swap1\n      sload\n      swap1\n      0x0100\n      exp\n      swap1\n      div\n      0xffffffffffffffffffffffffffffffffffffffff\n      and\n        /* \"node_modules/@openzeppelin/contracts/token/ERC721/ERC721.sol\":9051:9082  return _tokenApprovals[tokenId] */\n      swap1\n      pop\n        /* \"node_modules/@openzeppelin/contracts/token/ERC721/ERC721.sol\":8962:9089  function _getApproved(uint256 tokenId) internal view virtual returns (address) {... */\n      swap2\n      swap1\n      pop\n      jump\t// out\n        /* \"node_modules/@openzeppelin/contracts/utils/Context.sol\":656:752  function _msgSender() internal view virtual returns (address) {... */\n    tag_110:\n        /* \"node_modules/@openzeppelin/contracts/utils/Context.sol\":709:716  address */\n      0x00\n        /* \"node_modules/@openzeppelin/contracts/utils/Context.sol\":735:745  msg.sender */\n      caller\n        /* \"node_modules/@openzeppelin/contracts/utils/Context.sol\":728:745  return msg.sender */\n      swap1\n      pop\n        /* \"node_modules/@openzeppelin/contracts/utils/Context.sol\":656:752  function _msgSender() internal view virtual returns (address) {... */\n      swap1\n      jump\t// out\n        /* \"node_modules/@openzeppelin/contracts/token/ERC721/ERC721.sol\":17442:17562  function _approve(address to, uint256 tokenId, address auth) internal {... */\n    tag_111:\n        /* \"node_modules/@openzeppelin/contracts/token/ERC721/ERC721.sol\":17522:17555  _approve(to, tokenId, auth, true) */\n      tag_166\n        /* \"node_modules/@openzeppelin/contracts/token/ERC721/ERC721.sol\":17531:17533  to */\n      dup4\n        /* \"node_modules/@openzeppelin/contracts/token/ERC721/ERC721.sol\":17535:17542  tokenId */\n      dup4\n        /* \"node_modules/@openzeppelin/contracts/token/ERC721/ERC721.sol\":17544:17548  auth */\n      dup4\n        /* \"node_modules/@openzeppelin/contracts/token/ERC721/ERC721.sol\":17550:17554  true */\n      0x01\n        /* \"node_modules/@openzeppelin/contracts/token/ERC721/ERC721.sol\":17522:17530  _approve */\n      tag_167\n        /* \"node_modules/@openzeppelin/contracts/token/ERC721/ERC721.sol\":17522:17555  _approve(to, tokenId, auth, true) */\n      jump\t// in\n    tag_166:\n        /* \"node_modules/@openzeppelin/contracts/token/ERC721/ERC721.sol\":17442:17562  function _approve(address to, uint256 tokenId, address auth) internal {... */\n      pop\n      pop\n      pop\n      jump\t// out\n        /* \"node_modules/@openzeppelin/contracts/token/ERC721/ERC721.sol\":11862:12657  function _update(address to, uint256 tokenId, address auth) internal virtual returns (address) {... */\n    tag_120:\n        /* \"node_modules/@openzeppelin/contracts/token/ERC721/ERC721.sol\":11948:11955  address */\n      0x00\n        /* \"node_modules/@openzeppelin/contracts/token/ERC721/ERC721.sol\":11967:11979  address from */\n      dup1\n        /* \"node_modules/@openzeppelin/contracts/token/ERC721/ERC721.sol\":11982:11999  _ownerOf(tokenId) */\n      tag_169\n        /* \"node_modules/@openzeppelin/contracts/token/ERC721/ERC721.sol\":11991:11998  tokenId */\n      dup5\n        /* \"node_modules/@openzeppelin/contracts/token/ERC721/ERC721.sol\":11982:11990  _ownerOf */\n      tag_160\n        /* \"node_modules/@openzeppelin/contracts/token/ERC721/ERC721.sol\":11982:11999  _ownerOf(tokenId) */\n      jump\t// in\n    tag_169:\n        /* \"node_modules/@openzeppelin/contracts/token/ERC721/ERC721.sol\":11967:11999  address from = _ownerOf(tokenId) */\n      swap1\n      pop\n        /* \"node_modules/@openzeppelin/contracts/token/ERC721/ERC721.sol\":12075:12076  0 */\n      0x00\n        /* \"node_modules/@openzeppelin/contracts/token/ERC721/ERC721.sol\":12059:12077  auth != address(0) */\n      0xffffffffffffffffffffffffffffffffffffffff\n      and\n        /* \"node_modules/@openzeppelin/contracts/token/ERC721/ERC721.sol\":12059:12063  auth */\n      dup4\n        /* \"node_modules/@openzeppelin/contracts/token/ERC721/ERC721.sol\":12059:12077  auth != address(0) */\n      0xffffffffffffffffffffffffffffffffffffffff\n      and\n      eq\n        /* \"node_modules/@openzeppelin/contracts/token/ERC721/ERC721.sol\":12055:12141  if (auth != address(0)) {... */\n      tag_170\n      jumpi\n        /* \"node_modules/@openzeppelin/contracts/token/ERC721/ERC721.sol\":12093:12130  _checkAuthorized(from, auth, tokenId) */\n      tag_171\n        /* \"node_modules/@openzeppelin/contracts/token/ERC721/ERC721.sol\":12110:12114  from */\n      dup2\n        /* \"node_modules/@openzeppelin/contracts/token/ERC721/ERC721.sol\":12116:12120  auth */\n      dup5\n        /* \"node_modules/@openzeppelin/contracts/token/ERC721/ERC721.sol\":12122:12129  tokenId */\n      dup7\n        /* \"node_modules/@openzeppelin/contracts/token/ERC721/ERC721.sol\":12093:12109  _checkAuthorized */\n      tag_172\n        /* \"node_modules/@openzeppelin/contracts/token/ERC721/ERC721.sol\":12093:12130  _checkAuthorized(from, auth, tokenId) */\n      jump\t// in\n    tag_171:\n        /* \"node_modules/@openzeppelin/contracts/token/ERC721/ERC721.sol\":12055:12141  if (auth != address(0)) {... */\n    tag_170:\n        /* \"node_modules/@openzeppelin/contracts/token/ERC721/ERC721.sol\":12201:12202  0 */\n      0x00\n        /* \"node_modules/@openzeppelin/contracts/token/ERC721/ERC721.sol\":12185:12203  from != address(0) */\n      0xffffffffffffffffffffffffffffffffffffffff\n      and\n        /* \"node_modules/@openzeppelin/contracts/token/ERC721/ERC721.sol\":12185:12189  from */\n      dup2\n        /* \"node_modules/@openzeppelin/contracts/token/ERC721/ERC721.sol\":12185:12203  from != address(0) */\n      0xffffffffffffffffffffffffffffffffffffffff\n      and\n      eq\n        /* \"node_modules/@openzeppelin/contracts/token/ERC721/ERC721.sol\":12181:12437  if (from != address(0)) {... */\n      tag_173\n      jumpi\n        /* \"node_modules/@openzeppelin/contracts/token/ERC721/ERC721.sol\":12301:12349  _approve(address(0), tokenId, address(0), false) */\n      tag_174\n        /* \"node_modules/@openzeppelin/contracts/token/ERC721/ERC721.sol\":12318:12319  0 */\n      0x00\n        /* \"node_modules/@openzeppelin/contracts/token/ERC721/ERC721.sol\":12322:12329  tokenId */\n      dup6\n        /* \"node_modules/@openzeppelin/contracts/token/ERC721/ERC721.sol\":12339:12340  0 */\n      0x00\n        /* \"node_modules/@openzeppelin/contracts/token/ERC721/ERC721.sol\":12343:12348  false */\n      dup1\n        /* \"node_modules/@openzeppelin/contracts/token/ERC721/ERC721.sol\":12301:12309  _approve */\n      tag_167\n        /* \"node_modules/@openzeppelin/contracts/token/ERC721/ERC721.sol\":12301:12349  _approve(address(0), tokenId, address(0), false) */\n      jump\t// in\n    tag_174:\n        /* \"node_modules/@openzeppelin/contracts/token/ERC721/ERC721.sol\":12411:12412  1 */\n      0x01\n        /* \"node_modules/@openzeppelin/contracts/token/ERC721/ERC721.sol\":12392:12401  _balances */\n      0x03\n        /* \"node_modules/@openzeppelin/contracts/token/ERC721/ERC721.sol\":12392:12407  _balances[from] */\n      0x00\n        /* \"node_modules/@openzeppelin/contracts/token/ERC721/ERC721.sol\":12402:12406  from */\n      dup4\n        /* \"node_modules/@openzeppelin/contracts/token/ERC721/ERC721.sol\":12392:12407  _balances[from] */\n      0xffffffffffffffffffffffffffffffffffffffff\n      and\n      0xffffffffffffffffffffffffffffffffffffffff\n      and\n      dup2\n      mstore\n      0x20\n      add\n      swap1\n      dup2\n      mstore\n      0x20\n      add\n      0x00\n      keccak256\n      0x00\n        /* \"node_modules/@openzeppelin/contracts/token/ERC721/ERC721.sol\":12392:12412  _balances[from] -= 1 */\n      dup3\n      dup3\n      sload\n      sub\n      swap3\n      pop\n      pop\n      dup2\n      swap1\n      sstore\n      pop\n        /* \"node_modules/@openzeppelin/contracts/token/ERC721/ERC721.sol\":12181:12437  if (from != address(0)) {... */\n    tag_173:\n        /* \"node_modules/@openzeppelin/contracts/token/ERC721/ERC721.sol\":12465:12466  0 */\n      0x00\n        /* \"node_modules/@openzeppelin/contracts/token/ERC721/ERC721.sol\":12451:12467  to != address(0) */\n      0xffffffffffffffffffffffffffffffffffffffff\n      and\n        /* \"node_modules/@openzeppelin/contracts/token/ERC721/ERC721.sol\":12451:12453  to */\n      dup6\n        /* \"node_modules/@openzeppelin/contracts/token/ERC721/ERC721.sol\":12451:12467  to != address(0) */\n      0xffffffffffffffffffffffffffffffffffffffff\n      and\n      eq\n        /* \"node_modules/@openzeppelin/contracts/token/ERC721/ERC721.sol\":12447:12554  if (to != address(0)) {... */\n      tag_175\n      jumpi\n        /* \"node_modules/@openzeppelin/contracts/token/ERC721/ERC721.sol\":12528:12529  1 */\n      0x01\n        /* \"node_modules/@openzeppelin/contracts/token/ERC721/ERC721.sol\":12511:12520  _balances */\n      0x03\n        /* \"node_modules/@openzeppelin/contracts/token/ERC721/ERC721.sol\":12511:12524  _balances[to] */\n      0x00\n        /* \"node_modules/@openzeppelin/contracts/token/ERC721/ERC721.sol\":12521:12523  to */\n      dup8\n        /* \"node_modules/@openzeppelin/contracts/token/ERC721/ERC721.sol\":12511:12524  _balances[to] */\n      0xffffffffffffffffffffffffffffffffffffffff\n      and\n      0xffffffffffffffffffffffffffffffffffffffff\n      and\n      dup2\n      mstore\n      0x20\n      add\n      swap1\n      dup2\n      mstore\n      0x20\n      add\n      0x00\n      keccak256\n      0x00\n        /* \"node_modules/@openzeppelin/contracts/token/ERC721/ERC721.sol\":12511:12529  _balances[to] += 1 */\n      dup3\n      dup3\n      sload\n      add\n      swap3\n      pop\n      pop\n      dup2\n      swap1\n      sstore\n      pop\n        /* \"node_modules/@openzeppelin/contracts/token/ERC721/ERC721.sol\":12447:12554  if (to != address(0)) {... */\n    tag_175:\n        /* \"node_modules/@openzeppelin/contracts/token/ERC721/ERC721.sol\":12583:12585  to */\n      dup5\n        /* \"node_modules/@openzeppelin/contracts/token/ERC721/ERC721.sol\":12564:12571  _owners */\n      0x02\n        /* \"node_modules/@openzeppelin/contracts/token/ERC721/ERC721.sol\":12564:12580  _owners[tokenId] */\n      0x00\n        /* \"node_modules/@openzeppelin/contracts/token/ERC721/ERC721.sol\":12572:12579  tokenId */\n      dup7\n        /* \"node_modules/@openzeppelin/contracts/token/ERC721/ERC721.sol\":12564:12580  _owners[tokenId] */\n      dup2\n      mstore\n      0x20\n      add\n      swap1\n      dup2\n      mstore\n      0x20\n      add\n      0x00\n      keccak256\n      0x00\n        /* \"node_modules/@openzeppelin/contracts/token/ERC721/ERC721.sol\":12564:12585  _owners[tokenId] = to */\n      0x0100\n      exp\n      dup2\n      sload\n      dup2\n      0xffffffffffffffffffffffffffffffffffffffff\n      mul\n      not\n      and\n      swap1\n      dup4\n      0xffffffffffffffffffffffffffffffffffffffff\n      and\n      mul\n      or\n      swap1\n      sstore\n      pop\n        /* \"node_modules/@openzeppelin/contracts/token/ERC721/ERC721.sol\":12620:12627  tokenId */\n      dup4\n        /* \"node_modules/@openzeppelin/contracts/token/ERC721/ERC721.sol\":12616:12618  to */\n      dup6\n        /* \"node_modules/@openzeppelin/contracts/token/ERC721/ERC721.sol\":12601:12628  Transfer(from, to, tokenId) */\n      0xffffffffffffffffffffffffffffffffffffffff\n      and\n        /* \"node_modules/@openzeppelin/contracts/token/ERC721/ERC721.sol\":12610:12614  from */\n      dup3\n        /* \"node_modules/@openzeppelin/contracts/token/ERC721/ERC721.sol\":12601:12628  Transfer(from, to, tokenId) */\n      0xffffffffffffffffffffffffffffffffffffffff\n      and\n      0xddf252ad1be2c89b69c2b068fc378daa952ba7f163c4a11628f55a4df523b3ef\n      mload(0x40)\n      mload(0x40)\n      dup1\n      swap2\n      sub\n      swap1\n      log4\n        /* \"node_modules/@openzeppelin/contracts/token/ERC721/ERC721.sol\":12646:12650  from */\n      dup1\n        /* \"node_modules/@openzeppelin/contracts/token/ERC721/ERC721.sol\":12639:12650  return from */\n      swap2\n      pop\n      pop\n        /* \"node_modules/@openzeppelin/contracts/token/ERC721/ERC721.sol\":11862:12657  function _update(address to, uint256 tokenId, address auth) internal virtual returns (address) {... */\n      swap4\n      swap3\n      pop\n      pop\n      pop\n      jump\t// out\n        /* \"node_modules/@openzeppelin/contracts/token/ERC721/ERC721.sol\":18615:18927  function _setApprovalForAll(address owner, address operator, bool approved) internal virtual {... */\n    tag_126:\n        /* \"node_modules/@openzeppelin/contracts/token/ERC721/ERC721.sol\":18742:18743  0 */\n      0x00\n        /* \"node_modules/@openzeppelin/contracts/token/ERC721/ERC721.sol\":18722:18744  operator == address(0) */\n      0xffffffffffffffffffffffffffffffffffffffff\n      and\n        /* \"node_modules/@openzeppelin/contracts/token/ERC721/ERC721.sol\":18722:18730  operator */\n      dup3\n        /* \"node_modules/@openzeppelin/contracts/token/ERC721/ERC721.sol\":18722:18744  operator == address(0) */\n      0xffffffffffffffffffffffffffffffffffffffff\n      and\n      sub\n        /* \"node_modules/@openzeppelin/contracts/token/ERC721/ERC721.sol\":18718:18809  if (operator == address(0)) {... */\n      tag_177\n      jumpi\n        /* \"node_modules/@openzeppelin/contracts/token/ERC721/ERC721.sol\":18789:18797  operator */\n      dup2\n        /* \"node_modules/@openzeppelin/contracts/token/ERC721/ERC721.sol\":18767:18798  ERC721InvalidOperator(operator) */\n      mload(0x40)\n      0x5b08ba1800000000000000000000000000000000000000000000000000000000\n      dup2\n      mstore\n      0x04\n      add\n      tag_178\n      swap2\n      swap1\n      tag_37\n      jump\t// in\n    tag_178:\n      mload(0x40)\n      dup1\n      swap2\n      sub\n      swap1\n      revert\n        /* \"node_modules/@openzeppelin/contracts/token/ERC721/ERC721.sol\":18718:18809  if (operator == address(0)) {... */\n    tag_177:\n        /* \"node_modules/@openzeppelin/contracts/token/ERC721/ERC721.sol\":18856:18864  approved */\n      dup1\n        /* \"node_modules/@openzeppelin/contracts/token/ERC721/ERC721.sol\":18818:18836  _operatorApprovals */\n      0x05\n        /* \"node_modules/@openzeppelin/contracts/token/ERC721/ERC721.sol\":18818:18843  _operatorApprovals[owner] */\n      0x00\n        /* \"node_modules/@openzeppelin/contracts/token/ERC721/ERC721.sol\":18837:18842  owner */\n      dup6\n        /* \"node_modules/@openzeppelin/contracts/token/ERC721/ERC721.sol\":18818:18843  _operatorApprovals[owner] */\n      0xffffffffffffffffffffffffffffffffffffffff\n      and\n      0xffffffffffffffffffffffffffffffffffffffff\n      and\n      dup2\n      mstore\n      0x20\n      add\n      swap1\n      dup2\n      mstore\n      0x20\n      add\n      0x00\n      keccak256\n        /* \"node_modules/@openzeppelin/contracts/token/ERC721/ERC721.sol\":18818:18853  _operatorApprovals[owner][operator] */\n      0x00\n        /* \"node_modules/@openzeppelin/contracts/token/ERC721/ERC721.sol\":18844:18852  operator */\n      dup5\n        /* \"node_modules/@openzeppelin/contracts/token/ERC721/ERC721.sol\":18818:18853  _operatorApprovals[owner][operator] */\n      0xffffffffffffffffffffffffffffffffffffffff\n      and\n      0xffffffffffffffffffffffffffffffffffffffff\n      and\n      dup2\n      mstore\n      0x20\n      add\n      swap1\n      dup2\n      mstore\n      0x20\n      add\n      0x00\n      keccak256\n      0x00\n        /* \"node_modules/@openzeppelin/contracts/token/ERC721/ERC721.sol\":18818:18864  _operatorApprovals[owner][operator] = approved */\n      0x0100\n      exp\n      dup2\n      sload\n      dup2\n      0xff\n      mul\n      not\n      and\n      swap1\n      dup4\n      iszero\n      iszero\n      mul\n      or\n      swap1\n      sstore\n      pop\n        /* \"node_modules/@openzeppelin/contracts/token/ERC721/ERC721.sol\":18901:18909  operator */\n      dup2\n        /* \"node_modules/@openzeppelin/contracts/token/ERC721/ERC721.sol\":18879:18920  ApprovalForAll(owner, operator, approved) */\n      0xffffffffffffffffffffffffffffffffffffffff\n      and\n        /* \"node_modules/@openzeppelin/contracts/token/ERC721/ERC721.sol\":18894:18899  owner */\n      dup4\n        /* \"node_modules/@openzeppelin/contracts/token/ERC721/ERC721.sol\":18879:18920  ApprovalForAll(owner, operator, approved) */\n      0xffffffffffffffffffffffffffffffffffffffff\n      and\n      0x17307eab39ab6107e8899845ad3d59bd9653f200f220920489ca2b5937696c31\n        /* \"node_modules/@openzeppelin/contracts/token/ERC721/ERC721.sol\":18911:18919  approved */\n      dup4\n        /* \"node_modules/@openzeppelin/contracts/token/ERC721/ERC721.sol\":18879:18920  ApprovalForAll(owner, operator, approved) */\n      mload(0x40)\n      tag_179\n      swap2\n      swap1\n      tag_27\n      jump\t// in\n    tag_179:\n      mload(0x40)\n      dup1\n      swap2\n      sub\n      swap1\n      log3\n        /* \"node_modules/@openzeppelin/contracts/token/ERC721/ERC721.sol\":18615:18927  function _setApprovalForAll(address owner, address operator, bool approved) internal virtual {... */\n      pop\n      pop\n      pop\n      jump\t// out\n        /* \"node_modules/@openzeppelin/contracts/token/ERC721/ERC721.sol\":19942:20724  function _checkOnERC721Received(address from, address to, uint256 tokenId, bytes memory data) private {... */\n    tag_146:\n        /* \"node_modules/@openzeppelin/contracts/token/ERC721/ERC721.sol\":20075:20076  0 */\n      0x00\n        /* \"node_modules/@openzeppelin/contracts/token/ERC721/ERC721.sol\":20058:20060  to */\n      dup4\n        /* \"node_modules/@openzeppelin/contracts/token/ERC721/ERC721.sol\":20058:20072  to.code.length */\n      0xffffffffffffffffffffffffffffffffffffffff\n      and\n      extcodesize\n        /* \"node_modules/@openzeppelin/contracts/token/ERC721/ERC721.sol\":20058:20076  to.code.length > 0 */\n      gt\n        /* \"node_modules/@openzeppelin/contracts/token/ERC721/ERC721.sol\":20054:20718  if (to.code.length > 0) {... */\n      iszero\n      tag_181\n      jumpi\n        /* \"node_modules/@openzeppelin/contracts/token/ERC721/ERC721.sol\":20112:20114  to */\n      dup3\n        /* \"node_modules/@openzeppelin/contracts/token/ERC721/ERC721.sol\":20096:20132  IERC721Receiver(to).onERC721Received */\n      0xffffffffffffffffffffffffffffffffffffffff\n      and\n      0x150b7a02\n        /* \"node_modules/@openzeppelin/contracts/token/ERC721/ERC721.sol\":20133:20145  _msgSender() */\n      tag_182\n        /* \"node_modules/@openzeppelin/contracts/token/ERC721/ERC721.sol\":20133:20143  _msgSender */\n      tag_110\n        /* \"node_modules/@openzeppelin/contracts/token/ERC721/ERC721.sol\":20133:20145  _msgSender() */\n      jump\t// in\n    tag_182:\n        /* \"node_modules/@openzeppelin/contracts/token/ERC721/ERC721.sol\":20147:20151  from */\n      dup7\n        /* \"node_modules/@openzeppelin/contracts/token/ERC721/ERC721.sol\":20153:20160  tokenId */\n      dup6\n        /* \"node_modules/@openzeppelin/contracts/token/ERC721/ERC721.sol\":20162:20166  data */\n      dup6\n        /* \"node_modules/@openzeppelin/contracts/token/ERC721/ERC721.sol\":20096:20167  IERC721Receiver(to).onERC721Received(_msgSender(), from, tokenId, data) */\n      mload(0x40)\n      dup6\n      0xffffffff\n      and\n      0xe0\n      shl\n      dup2\n      mstore\n      0x04\n      add\n      tag_183\n      swap5\n      swap4\n      swap3\n      swap2\n      swap1\n      tag_184\n      jump\t// in\n    tag_183:\n      0x20\n      mload(0x40)\n      dup1\n      dup4\n      sub\n      dup2\n      0x00\n      dup8\n      gas\n      call\n      swap3\n      pop\n      pop\n      pop\n      dup1\n      iszero\n      tag_185\n      jumpi\n      pop\n      mload(0x40)\n      returndatasize\n      not(0x1f)\n      0x1f\n      dup3\n      add\n      and\n      dup3\n      add\n      dup1\n      0x40\n      mstore\n      pop\n      dup2\n      add\n      swap1\n      tag_186\n      swap2\n      swap1\n      tag_187\n      jump\t// in\n    tag_186:\n      0x01\n    tag_185:\n        /* \"node_modules/@openzeppelin/contracts/token/ERC721/ERC721.sol\":20092:20708  try IERC721Receiver(to).onERC721Received(_msgSender(), from, tokenId, data) returns (bytes4 retval) {... */\n      tag_188\n      jumpi\n      returndatasize\n      dup1\n      0x00\n      dup2\n      eq\n      tag_193\n      jumpi\n      mload(0x40)\n      swap2\n      pop\n      and(add(returndatasize, 0x3f), not(0x1f))\n      dup3\n      add\n      0x40\n      mstore\n      returndatasize\n      dup3\n      mstore\n      returndatasize\n      0x00\n      0x20\n      dup5\n      add\n      returndatacopy\n      jump(tag_192)\n    tag_193:\n      0x60\n      swap2\n      pop\n    tag_192:\n      pop\n        /* \"node_modules/@openzeppelin/contracts/token/ERC721/ERC721.sol\":20422:20423  0 */\n      0x00\n        /* \"node_modules/@openzeppelin/contracts/token/ERC721/ERC721.sol\":20405:20411  reason */\n      dup2\n        /* \"node_modules/@openzeppelin/contracts/token/ERC721/ERC721.sol\":20405:20418  reason.length */\n      mload\n        /* \"node_modules/@openzeppelin/contracts/token/ERC721/ERC721.sol\":20405:20423  reason.length == 0 */\n      sub\n        /* \"node_modules/@openzeppelin/contracts/token/ERC721/ERC721.sol\":20401:20694  if (reason.length == 0) {... */\n      tag_194\n      jumpi\n        /* \"node_modules/@openzeppelin/contracts/token/ERC721/ERC721.sol\":20476:20478  to */\n      dup4\n        /* \"node_modules/@openzeppelin/contracts/token/ERC721/ERC721.sol\":20454:20479  ERC721InvalidReceiver(to) */\n      mload(0x40)\n      0x64a0ae9200000000000000000000000000000000000000000000000000000000\n      dup2\n      mstore\n      0x04\n      add\n      tag_195\n      swap2\n      swap1\n      tag_37\n      jump\t// in\n    tag_195:\n      mload(0x40)\n      dup1\n      swap2\n      sub\n      swap1\n      revert\n        /* \"node_modules/@openzeppelin/contracts/token/ERC721/ERC721.sol\":20401:20694  if (reason.length == 0) {... */\n    tag_194:\n        /* \"node_modules/@openzeppelin/contracts/token/ERC721/ERC721.sol\":20646:20652  reason */\n      dup1\n        /* \"node_modules/@openzeppelin/contracts/token/ERC721/ERC721.sol\":20640:20653  mload(reason) */\n      mload\n        /* \"node_modules/@openzeppelin/contracts/token/ERC721/ERC721.sol\":20631:20637  reason */\n      dup2\n        /* \"node_modules/@openzeppelin/contracts/token/ERC721/ERC721.sol\":20627:20629  32 */\n      0x20\n        /* \"node_modules/@openzeppelin/contracts/token/ERC721/ERC721.sol\":20623:20638  add(32, reason) */\n      add\n        /* \"node_modules/@openzeppelin/contracts/token/ERC721/ERC721.sol\":20616:20654  revert(add(32, reason), mload(reason)) */\n      revert\n        /* \"node_modules/@openzeppelin/contracts/token/ERC721/ERC721.sol\":20092:20708  try IERC721Receiver(to).onERC721Received(_msgSender(), from, tokenId, data) returns (bytes4 retval) {... */\n    tag_188:\n        /* \"node_modules/@openzeppelin/contracts/token/ERC721/ERC721.sol\":20224:20265  IERC721Receiver.onERC721Received.selector */\n      shl(0xe0, 0x150b7a02)\n        /* \"node_modules/@openzeppelin/contracts/token/ERC721/ERC721.sol\":20214:20265  retval != IERC721Receiver.onERC721Received.selector */\n      not(0xffffffffffffffffffffffffffffffffffffffffffffffffffffffff)\n      and\n        /* \"node_modules/@openzeppelin/contracts/token/ERC721/ERC721.sol\":20214:20220  retval */\n      dup2\n        /* \"node_modules/@openzeppelin/contracts/token/ERC721/ERC721.sol\":20214:20265  retval != IERC721Receiver.onERC721Received.selector */\n      not(0xffffffffffffffffffffffffffffffffffffffffffffffffffffffff)\n      and\n      eq\n        /* \"node_modules/@openzeppelin/contracts/token/ERC721/ERC721.sol\":20210:20340  if (retval != IERC721Receiver.onERC721Received.selector) {... */\n      tag_198\n      jumpi\n        /* \"node_modules/@openzeppelin/contracts/token/ERC721/ERC721.sol\":20318:20320  to */\n      dup4\n        /* \"node_modules/@openzeppelin/contracts/token/ERC721/ERC721.sol\":20296:20321  ERC721InvalidReceiver(to) */\n      mload(0x40)\n      0x64a0ae9200000000000000000000000000000000000000000000000000000000\n      dup2\n      mstore\n      0x04\n      add\n      tag_199\n      swap2\n      swap1\n      tag_37\n      jump\t// in\n    tag_199:\n      mload(0x40)\n      dup1\n      swap2\n      sub\n      swap1\n      revert\n        /* \"node_modules/@openzeppelin/contracts/token/ERC721/ERC721.sol\":20210:20340  if (retval != IERC721Receiver.onERC721Received.selector) {... */\n    tag_198:\n        /* \"node_modules/@openzeppelin/contracts/token/ERC721/ERC721.sol\":20168:20354  returns (bytes4 retval) {... */\n      pop\n        /* \"node_modules/@openzeppelin/contracts/token/ERC721/ERC721.sol\":20054:20718  if (to.code.length > 0) {... */\n    tag_181:\n        /* \"node_modules/@openzeppelin/contracts/token/ERC721/ERC721.sol\":19942:20724  function _checkOnERC721Received(address from, address to, uint256 tokenId, bytes memory data) private {... */\n      pop\n      pop\n      pop\n      pop\n      jump\t// out\n        /* \"node_modules/@openzeppelin/contracts/token/ERC721/ERC721.sol\":12979:13306  function _mint(address to, uint256 tokenId) internal {... */\n    tag_156:\n        /* \"node_modules/@openzeppelin/contracts/token/ERC721/ERC721.sol\":13060:13061  0 */\n      0x00\n        /* \"node_modules/@openzeppelin/contracts/token/ERC721/ERC721.sol\":13046:13062  to == address(0) */\n      0xffffffffffffffffffffffffffffffffffffffff\n      and\n        /* \"node_modules/@openzeppelin/contracts/token/ERC721/ERC721.sol\":13046:13048  to */\n      dup3\n        /* \"node_modules/@openzeppelin/contracts/token/ERC721/ERC721.sol\":13046:13062  to == address(0) */\n      0xffffffffffffffffffffffffffffffffffffffff\n      and\n      sub\n        /* \"node_modules/@openzeppelin/contracts/token/ERC721/ERC721.sol\":13042:13129  if (to == address(0)) {... */\n      tag_201\n      jumpi\n        /* \"node_modules/@openzeppelin/contracts/token/ERC721/ERC721.sol\":13115:13116  0 */\n      0x00\n        /* \"node_modules/@openzeppelin/contracts/token/ERC721/ERC721.sol\":13085:13118  ERC721InvalidReceiver(address(0)) */\n      mload(0x40)\n      0x64a0ae9200000000000000000000000000000000000000000000000000000000\n      dup2\n      mstore\n      0x04\n      add\n      tag_202\n      swap2\n      swap1\n      tag_37\n      jump\t// in\n    tag_202:\n      mload(0x40)\n      dup1\n      swap2\n      sub\n      swap1\n      revert\n        /* \"node_modules/@openzeppelin/contracts/token/ERC721/ERC721.sol\":13042:13129  if (to == address(0)) {... */\n    tag_201:\n        /* \"node_modules/@openzeppelin/contracts/token/ERC721/ERC721.sol\":13138:13159  address previousOwner */\n      0x00\n        /* \"node_modules/@openzeppelin/contracts/token/ERC721/ERC721.sol\":13162:13194  _update(to, tokenId, address(0)) */\n      tag_203\n        /* \"node_modules/@openzeppelin/contracts/token/ERC721/ERC721.sol\":13170:13172  to */\n      dup4\n        /* \"node_modules/@openzeppelin/contracts/token/ERC721/ERC721.sol\":13174:13181  tokenId */\n      dup4\n        /* \"node_modules/@openzeppelin/contracts/token/ERC721/ERC721.sol\":13191:13192  0 */\n      0x00\n        /* \"node_modules/@openzeppelin/contracts/token/ERC721/ERC721.sol\":13162:13169  _update */\n      tag_120\n        /* \"node_modules/@openzeppelin/contracts/token/ERC721/ERC721.sol\":13162:13194  _update(to, tokenId, address(0)) */\n      jump\t// in\n    tag_203:\n        /* \"node_modules/@openzeppelin/contracts/token/ERC721/ERC721.sol\":13138:13194  address previousOwner = _update(to, tokenId, address(0)) */\n      swap1\n      pop\n        /* \"node_modules/@openzeppelin/contracts/token/ERC721/ERC721.sol\":13233:13234  0 */\n      0x00\n        /* \"node_modules/@openzeppelin/contracts/token/ERC721/ERC721.sol\":13208:13235  previousOwner != address(0) */\n      0xffffffffffffffffffffffffffffffffffffffff\n      and\n        /* \"node_modules/@openzeppelin/contracts/token/ERC721/ERC721.sol\":13208:13221  previousOwner */\n      dup2\n        /* \"node_modules/@openzeppelin/contracts/token/ERC721/ERC721.sol\":13208:13235  previousOwner != address(0) */\n      0xffffffffffffffffffffffffffffffffffffffff\n      and\n      eq\n        /* \"node_modules/@openzeppelin/contracts/token/ERC721/ERC721.sol\":13204:13300  if (previousOwner != address(0)) {... */\n      tag_204\n      jumpi\n        /* \"node_modules/@openzeppelin/contracts/token/ERC721/ERC721.sol\":13286:13287  0 */\n      0x00\n        /* \"node_modules/@openzeppelin/contracts/token/ERC721/ERC721.sol\":13258:13289  ERC721InvalidSender(address(0)) */\n      mload(0x40)\n      0x73c6ac6e00000000000000000000000000000000000000000000000000000000\n      dup2\n      mstore\n      0x04\n      add\n      tag_205\n      swap2\n      swap1\n      tag_37\n      jump\t// in\n    tag_205:\n      mload(0x40)\n      dup1\n      swap2\n      sub\n      swap1\n      revert\n        /* \"node_modules/@openzeppelin/contracts/token/ERC721/ERC721.sol\":13204:13300  if (previousOwner != address(0)) {... */\n    tag_204:\n        /* \"node_modules/@openzeppelin/contracts/token/ERC721/ERC721.sol\":13032:13306  {... */\n      pop\n        /* \"node_modules/@openzeppelin/contracts/token/ERC721/ERC721.sol\":12979:13306  function _mint(address to, uint256 tokenId) internal {... */\n      pop\n      pop\n      jump\t// out\n        /* \"node_modules/@openzeppelin/contracts/token/ERC721/ERC721.sol\":8731:8846  function _ownerOf(uint256 tokenId) internal view virtual returns (address) {... */\n    tag_160:\n        /* \"node_modules/@openzeppelin/contracts/token/ERC721/ERC721.sol\":8797:8804  address */\n      0x00\n        /* \"node_modules/@openzeppelin/contracts/token/ERC721/ERC721.sol\":8823:8830  _owners */\n      0x02\n        /* \"node_modules/@openzeppelin/contracts/token/ERC721/ERC721.sol\":8823:8839  _owners[tokenId] */\n      0x00\n        /* \"node_modules/@openzeppelin/contracts/token/ERC721/ERC721.sol\":8831:8838  tokenId */\n      dup4\n        /* \"node_modules/@openzeppelin/contracts/token/ERC721/ERC721.sol\":8823:8839  _owners[tokenId] */\n      dup2\n      mstore\n      0x20\n      add\n      swap1\n      dup2\n      mstore\n      0x20\n      add\n      0x00\n      keccak256\n      0x00\n      swap1\n      sload\n      swap1\n      0x0100\n      exp\n      swap1\n      div\n      0xffffffffffffffffffffffffffffffffffffffff\n      and\n        /* \"node_modules/@openzeppelin/contracts/token/ERC721/ERC721.sol\":8816:8839  return _owners[tokenId] */\n      swap1\n      pop\n        /* \"node_modules/@openzeppelin/contracts/token/ERC721/ERC721.sol\":8731:8846  function _ownerOf(uint256 tokenId) internal view virtual returns (address) {... */\n      swap2\n      swap1\n      pop\n      jump\t// out\n        /* \"node_modules/@openzeppelin/contracts/token/ERC721/ERC721.sol\":17744:18406  function _approve(address to, uint256 tokenId, address auth, bool emitEvent) internal virtual {... */\n    tag_167:\n        /* \"node_modules/@openzeppelin/contracts/token/ERC721/ERC721.sol\":17904:17913  emitEvent */\n      dup1\n        /* \"node_modules/@openzeppelin/contracts/token/ERC721/ERC721.sol\":17904:17935  emitEvent || auth != address(0) */\n      dup1\n      tag_208\n      jumpi\n      pop\n        /* \"node_modules/@openzeppelin/contracts/token/ERC721/ERC721.sol\":17933:17934  0 */\n      0x00\n        /* \"node_modules/@openzeppelin/contracts/token/ERC721/ERC721.sol\":17917:17935  auth != address(0) */\n      0xffffffffffffffffffffffffffffffffffffffff\n      and\n        /* \"node_modules/@openzeppelin/contracts/token/ERC721/ERC721.sol\":17917:17921  auth */\n      dup3\n        /* \"node_modules/@openzeppelin/contracts/token/ERC721/ERC721.sol\":17917:17935  auth != address(0) */\n      0xffffffffffffffffffffffffffffffffffffffff\n      and\n      eq\n      iszero\n        /* \"node_modules/@openzeppelin/contracts/token/ERC721/ERC721.sol\":17904:17935  emitEvent || auth != address(0) */\n    tag_208:\n        /* \"node_modules/@openzeppelin/contracts/token/ERC721/ERC721.sol\":17900:18360  if (emitEvent || auth != address(0)) {... */\n      iszero\n      tag_209\n      jumpi\n        /* \"node_modules/@openzeppelin/contracts/token/ERC721/ERC721.sol\":17951:17964  address owner */\n      0x00\n        /* \"node_modules/@openzeppelin/contracts/token/ERC721/ERC721.sol\":17967:17989  _requireOwned(tokenId) */\n      tag_210\n        /* \"node_modules/@openzeppelin/contracts/token/ERC721/ERC721.sol\":17981:17988  tokenId */\n      dup5\n        /* \"node_modules/@openzeppelin/contracts/token/ERC721/ERC721.sol\":17967:17980  _requireOwned */\n      tag_104\n        /* \"node_modules/@openzeppelin/contracts/token/ERC721/ERC721.sol\":17967:17989  _requireOwned(tokenId) */\n      jump\t// in\n    tag_210:\n        /* \"node_modules/@openzeppelin/contracts/token/ERC721/ERC721.sol\":17951:17989  address owner = _requireOwned(tokenId) */\n      swap1\n      pop\n        /* \"node_modules/@openzeppelin/contracts/token/ERC721/ERC721.sol\":18133:18134  0 */\n      0x00\n        /* \"node_modules/@openzeppelin/contracts/token/ERC721/ERC721.sol\":18117:18135  auth != address(0) */\n      0xffffffffffffffffffffffffffffffffffffffff\n      and\n        /* \"node_modules/@openzeppelin/contracts/token/ERC721/ERC721.sol\":18117:18121  auth */\n      dup4\n        /* \"node_modules/@openzeppelin/contracts/token/ERC721/ERC721.sol\":18117:18135  auth != address(0) */\n      0xffffffffffffffffffffffffffffffffffffffff\n      and\n      eq\n      iszero\n        /* \"node_modules/@openzeppelin/contracts/token/ERC721/ERC721.sol\":18117:18152  auth != address(0) && owner != auth */\n      dup1\n      iszero\n      tag_211\n      jumpi\n      pop\n        /* \"node_modules/@openzeppelin/contracts/token/ERC721/ERC721.sol\":18148:18152  auth */\n      dup3\n        /* \"node_modules/@openzeppelin/contracts/token/ERC721/ERC721.sol\":18139:18152  owner != auth */\n      0xffffffffffffffffffffffffffffffffffffffff\n      and\n        /* \"node_modules/@openzeppelin/contracts/token/ERC721/ERC721.sol\":18139:18144  owner */\n      dup2\n        /* \"node_modules/@openzeppelin/contracts/token/ERC721/ERC721.sol\":18139:18152  owner != auth */\n      0xffffffffffffffffffffffffffffffffffffffff\n      and\n      eq\n      iszero\n        /* \"node_modules/@openzeppelin/contracts/token/ERC721/ERC721.sol\":18117:18152  auth != address(0) && owner != auth */\n    tag_211:\n        /* \"node_modules/@openzeppelin/contracts/token/ERC721/ERC721.sol\":18117:18186  auth != address(0) && owner != auth && !isApprovedForAll(owner, auth) */\n      dup1\n      iszero\n      tag_212\n      jumpi\n      pop\n        /* \"node_modules/@openzeppelin/contracts/token/ERC721/ERC721.sol\":18157:18186  isApprovedForAll(owner, auth) */\n      tag_213\n        /* \"node_modules/@openzeppelin/contracts/token/ERC721/ERC721.sol\":18174:18179  owner */\n      dup2\n        /* \"node_modules/@openzeppelin/contracts/token/ERC721/ERC721.sol\":18181:18185  auth */\n      dup5\n        /* \"node_modules/@openzeppelin/contracts/token/ERC721/ERC721.sol\":18157:18173  isApprovedForAll */\n      tag_85\n        /* \"node_modules/@openzeppelin/contracts/token/ERC721/ERC721.sol\":18157:18186  isApprovedForAll(owner, auth) */\n      jump\t// in\n    tag_213:\n        /* \"node_modules/@openzeppelin/contracts/token/ERC721/ERC721.sol\":18156:18186  !isApprovedForAll(owner, auth) */\n      iszero\n        /* \"node_modules/@openzeppelin/contracts/token/ERC721/ERC721.sol\":18117:18186  auth != address(0) && owner != auth && !isApprovedForAll(owner, auth) */\n    tag_212:\n        /* \"node_modules/@openzeppelin/contracts/token/ERC721/ERC721.sol\":18113:18255  if (auth != address(0) && owner != auth && !isApprovedForAll(owner, auth)) {... */\n      iszero\n      tag_214\n      jumpi\n        /* \"node_modules/@openzeppelin/contracts/token/ERC721/ERC721.sol\":18235:18239  auth */\n      dup3\n        /* \"node_modules/@openzeppelin/contracts/token/ERC721/ERC721.sol\":18213:18240  ERC721InvalidApprover(auth) */\n      mload(0x40)\n      0xa9fbf51f00000000000000000000000000000000000000000000000000000000\n      dup2\n      mstore\n      0x04\n      add\n      tag_215\n      swap2\n      swap1\n      tag_37\n      jump\t// in\n    tag_215:\n      mload(0x40)\n      dup1\n      swap2\n      sub\n      swap1\n      revert\n        /* \"node_modules/@openzeppelin/contracts/token/ERC721/ERC721.sol\":18113:18255  if (auth != address(0) && owner != auth && !isApprovedForAll(owner, auth)) {... */\n    tag_214:\n        /* \"node_modules/@openzeppelin/contracts/token/ERC721/ERC721.sol\":18273:18282  emitEvent */\n      dup2\n        /* \"node_modules/@openzeppelin/contracts/token/ERC721/ERC721.sol\":18269:18350  if (emitEvent) {... */\n      iszero\n      tag_216\n      jumpi\n        /* \"node_modules/@openzeppelin/contracts/token/ERC721/ERC721.sol\":18327:18334  tokenId */\n      dup4\n        /* \"node_modules/@openzeppelin/contracts/token/ERC721/ERC721.sol\":18323:18325  to */\n      dup6\n        /* \"node_modules/@openzeppelin/contracts/token/ERC721/ERC721.sol\":18307:18335  Approval(owner, to, tokenId) */\n      0xffffffffffffffffffffffffffffffffffffffff\n      and\n        /* \"node_modules/@openzeppelin/contracts/token/ERC721/ERC721.sol\":18316:18321  owner */\n      dup3\n        /* \"node_modules/@openzeppelin/contracts/token/ERC721/ERC721.sol\":18307:18335  Approval(owner, to, tokenId) */\n      0xffffffffffffffffffffffffffffffffffffffff\n      and\n      0x8c5be1e5ebec7d5bd14f71427d1e84f3dd0314c0f7b2291e5b200ac8c7c3b925\n      mload(0x40)\n      mload(0x40)\n      dup1\n      swap2\n      sub\n      swap1\n      log4\n        /* \"node_modules/@openzeppelin/contracts/token/ERC721/ERC721.sol\":18269:18350  if (emitEvent) {... */\n    tag_216:\n        /* \"node_modules/@openzeppelin/contracts/token/ERC721/ERC721.sol\":17937:18360  {... */\n      pop\n        /* \"node_modules/@openzeppelin/contracts/token/ERC721/ERC721.sol\":17900:18360  if (emitEvent || auth != address(0)) {... */\n    tag_209:\n        /* \"node_modules/@openzeppelin/contracts/token/ERC721/ERC721.sol\":18397:18399  to */\n      dup4\n        /* \"node_modules/@openzeppelin/contracts/token/ERC721/ERC721.sol\":18370:18385  _tokenApprovals */\n      0x04\n        /* \"node_modules/@openzeppelin/contracts/token/ERC721/ERC721.sol\":18370:18394  _tokenApprovals[tokenId] */\n      0x00\n        /* \"node_modules/@openzeppelin/contracts/token/ERC721/ERC721.sol\":18386:18393  tokenId */\n      dup6\n        /* \"node_modules/@openzeppelin/contracts/token/ERC721/ERC721.sol\":18370:18394  _tokenApprovals[tokenId] */\n      dup2\n      mstore\n      0x20\n      add\n      swap1\n      dup2\n      mstore\n      0x20\n      add\n      0x00\n      keccak256\n      0x00\n        /* \"node_modules/@openzeppelin/contracts/token/ERC721/ERC721.sol\":18370:18399  _tokenApprovals[tokenId] = to */\n      0x0100\n      exp\n      dup2\n      sload\n      dup2\n      0xffffffffffffffffffffffffffffffffffffffff\n      mul\n      not\n      and\n      swap1\n      dup4\n      0xffffffffffffffffffffffffffffffffffffffff\n      and\n      mul\n      or\n      swap1\n      sstore\n      pop\n        /* \"node_modules/@openzeppelin/contracts/token/ERC721/ERC721.sol\":17744:18406  function _approve(address to, uint256 tokenId, address auth, bool emitEvent) internal virtual {... */\n      pop\n      pop\n      pop\n      pop\n      jump\t// out\n        /* \"node_modules/@openzeppelin/contracts/token/ERC721/ERC721.sol\":10106:10474  function _checkAuthorized(address owner, address spender, uint256 tokenId) internal view virtual {... */\n    tag_172:\n        /* \"node_modules/@openzeppelin/contracts/token/ERC721/ERC721.sol\":10218:10256  _isAuthorized(owner, spender, tokenId) */\n      tag_218\n        /* \"node_modules/@openzeppelin/contracts/token/ERC721/ERC721.sol\":10232:10237  owner */\n      dup4\n        /* \"node_modules/@openzeppelin/contracts/token/ERC721/ERC721.sol\":10239:10246  spender */\n      dup4\n        /* \"node_modules/@openzeppelin/contracts/token/ERC721/ERC721.sol\":10248:10255  tokenId */\n      dup4\n        /* \"node_modules/@openzeppelin/contracts/token/ERC721/ERC721.sol\":10218:10231  _isAuthorized */\n      tag_219\n        /* \"node_modules/@openzeppelin/contracts/token/ERC721/ERC721.sol\":10218:10256  _isAuthorized(owner, spender, tokenId) */\n      jump\t// in\n    tag_218:\n        /* \"node_modules/@openzeppelin/contracts/token/ERC721/ERC721.sol\":10213:10468  if (!_isAuthorized(owner, spender, tokenId)) {... */\n      tag_220\n      jumpi\n        /* \"node_modules/@openzeppelin/contracts/token/ERC721/ERC721.sol\":10293:10294  0 */\n      0x00\n        /* \"node_modules/@openzeppelin/contracts/token/ERC721/ERC721.sol\":10276:10295  owner == address(0) */\n      0xffffffffffffffffffffffffffffffffffffffff\n      and\n        /* \"node_modules/@openzeppelin/contracts/token/ERC721/ERC721.sol\":10276:10281  owner */\n      dup4\n        /* \"node_modules/@openzeppelin/contracts/token/ERC721/ERC721.sol\":10276:10295  owner == address(0) */\n      0xffffffffffffffffffffffffffffffffffffffff\n      and\n      sub\n        /* \"node_modules/@openzeppelin/contracts/token/ERC721/ERC721.sol\":10272:10458  if (owner == address(0)) {... */\n      tag_221\n      jumpi\n        /* \"node_modules/@openzeppelin/contracts/token/ERC721/ERC721.sol\":10345:10352  tokenId */\n      dup1\n        /* \"node_modules/@openzeppelin/contracts/token/ERC721/ERC721.sol\":10322:10353  ERC721NonexistentToken(tokenId) */\n      mload(0x40)\n      0x7e27328900000000000000000000000000000000000000000000000000000000\n      dup2\n      mstore\n      0x04\n      add\n      tag_222\n      swap2\n      swap1\n      tag_66\n      jump\t// in\n    tag_222:\n      mload(0x40)\n      dup1\n      swap2\n      sub\n      swap1\n      revert\n        /* \"node_modules/@openzeppelin/contracts/token/ERC721/ERC721.sol\":10272:10458  if (owner == address(0)) {... */\n    tag_221:\n        /* \"node_modules/@openzeppelin/contracts/token/ERC721/ERC721.sol\":10426:10433  spender */\n      dup2\n        /* \"node_modules/@openzeppelin/contracts/token/ERC721/ERC721.sol\":10435:10442  tokenId */\n      dup2\n        /* \"node_modules/@openzeppelin/contracts/token/ERC721/ERC721.sol\":10399:10443  ERC721InsufficientApproval(spender, tokenId) */\n      mload(0x40)\n      0x177e802f00000000000000000000000000000000000000000000000000000000\n      dup2\n      mstore\n      0x04\n      add\n      tag_224\n      swap3\n      swap2\n      swap1\n      tag_225\n      jump\t// in\n    tag_224:\n      mload(0x40)\n      dup1\n      swap2\n      sub\n      swap1\n      revert\n        /* \"node_modules/@openzeppelin/contracts/token/ERC721/ERC721.sol\":10213:10468  if (!_isAuthorized(owner, spender, tokenId)) {... */\n    tag_220:\n        /* \"node_modules/@openzeppelin/contracts/token/ERC721/ERC721.sol\":10106:10474  function _checkAuthorized(address owner, address spender, uint256 tokenId) internal view virtual {... */\n      pop\n      pop\n      pop\n      jump\t// out\n        /* \"node_modules/@openzeppelin/contracts/token/ERC721/ERC721.sol\":9400:9672  function _isAuthorized(address owner, address spender, uint256 tokenId) internal view virtual returns (bool) {... */\n    tag_219:\n        /* \"node_modules/@openzeppelin/contracts/token/ERC721/ERC721.sol\":9503:9507  bool */\n      0x00\n        /* \"node_modules/@openzeppelin/contracts/token/ERC721/ERC721.sol\":9557:9558  0 */\n      dup1\n        /* \"node_modules/@openzeppelin/contracts/token/ERC721/ERC721.sol\":9538:9559  spender != address(0) */\n      0xffffffffffffffffffffffffffffffffffffffff\n      and\n        /* \"node_modules/@openzeppelin/contracts/token/ERC721/ERC721.sol\":9538:9545  spender */\n      dup4\n        /* \"node_modules/@openzeppelin/contracts/token/ERC721/ERC721.sol\":9538:9559  spender != address(0) */\n      0xffffffffffffffffffffffffffffffffffffffff\n      and\n      eq\n      iszero\n        /* \"node_modules/@openzeppelin/contracts/token/ERC721/ERC721.sol\":9538:9665  spender != address(0) &&... */\n      dup1\n      iszero\n      tag_227\n      jumpi\n      pop\n        /* \"node_modules/@openzeppelin/contracts/token/ERC721/ERC721.sol\":9585:9592  spender */\n      dup3\n        /* \"node_modules/@openzeppelin/contracts/token/ERC721/ERC721.sol\":9576:9592  owner == spender */\n      0xffffffffffffffffffffffffffffffffffffffff\n      and\n        /* \"node_modules/@openzeppelin/contracts/token/ERC721/ERC721.sol\":9576:9581  owner */\n      dup5\n        /* \"node_modules/@openzeppelin/contracts/token/ERC721/ERC721.sol\":9576:9592  owner == spender */\n      0xffffffffffffffffffffffffffffffffffffffff\n      and\n      eq\n        /* \"node_modules/@openzeppelin/contracts/token/ERC721/ERC721.sol\":9576:9628  owner == spender || isApprovedForAll(owner, spender) */\n      dup1\n      tag_228\n      jumpi\n      pop\n        /* \"node_modules/@openzeppelin/contracts/token/ERC721/ERC721.sol\":9596:9628  isApprovedForAll(owner, spender) */\n      tag_229\n        /* \"node_modules/@openzeppelin/contracts/token/ERC721/ERC721.sol\":9613:9618  owner */\n      dup5\n        /* \"node_modules/@openzeppelin/contracts/token/ERC721/ERC721.sol\":9620:9627  spender */\n      dup5\n        /* \"node_modules/@openzeppelin/contracts/token/ERC721/ERC721.sol\":9596:9612  isApprovedForAll */\n      tag_85\n        /* \"node_modules/@openzeppelin/contracts/token/ERC721/ERC721.sol\":9596:9628  isApprovedForAll(owner, spender) */\n      jump\t// in\n    tag_229:\n        /* \"node_modules/@openzeppelin/contracts/token/ERC721/ERC721.sol\":9576:9628  owner == spender || isApprovedForAll(owner, spender) */\n    tag_228:\n        /* \"node_modules/@openzeppelin/contracts/token/ERC721/ERC721.sol\":9576:9664  owner == spender || isApprovedForAll(owner, spender) || _getApproved(tokenId) == spender */\n      dup1\n      tag_230\n      jumpi\n      pop\n        /* \"node_modules/@openzeppelin/contracts/token/ERC721/ERC721.sol\":9657:9664  spender */\n      dup3\n        /* \"node_modules/@openzeppelin/contracts/token/ERC721/ERC721.sol\":9632:9664  _getApproved(tokenId) == spender */\n      0xffffffffffffffffffffffffffffffffffffffff\n      and\n        /* \"node_modules/@openzeppelin/contracts/token/ERC721/ERC721.sol\":9632:9653  _getApproved(tokenId) */\n      tag_231\n        /* \"node_modules/@openzeppelin/contracts/token/ERC721/ERC721.sol\":9645:9652  tokenId */\n      dup4\n        /* \"node_modules/@openzeppelin/contracts/token/ERC721/ERC721.sol\":9632:9644  _getApproved */\n      tag_106\n        /* \"node_modules/@openzeppelin/contracts/token/ERC721/ERC721.sol\":9632:9653  _getApproved(tokenId) */\n      jump\t// in\n    tag_231:\n        /* \"node_modules/@openzeppelin/contracts/token/ERC721/ERC721.sol\":9632:9664  _getApproved(tokenId) == spender */\n      0xffffffffffffffffffffffffffffffffffffffff\n      and\n      eq\n        /* \"node_modules/@openzeppelin/contracts/token/ERC721/ERC721.sol\":9576:9664  owner == spender || isApprovedForAll(owner, spender) || _getApproved(tokenId) == spender */\n    tag_230:\n        /* \"node_modules/@openzeppelin/contracts/token/ERC721/ERC721.sol\":9538:9665  spender != address(0) &&... */\n    tag_227:\n        /* \"node_modules/@openzeppelin/contracts/token/ERC721/ERC721.sol\":9519:9665  return... */\n      swap1\n      pop\n        /* \"node_modules/@openzeppelin/contracts/token/ERC721/ERC721.sol\":9400:9672  function _isAuthorized(address owner, address spender, uint256 tokenId) internal view virtual returns (bool) {... */\n      swap4\n      swap3\n      pop\n      pop\n      pop\n      jump\t// out\n        /* \"#utility.yul\":7:82   */\n    tag_232:\n        /* \"#utility.yul\":40:46   */\n      0x00\n        /* \"#utility.yul\":73:75   */\n      0x40\n        /* \"#utility.yul\":67:76   */\n      mload\n        /* \"#utility.yul\":57:76   */\n      swap1\n      pop\n        /* \"#utility.yul\":7:82   */\n      swap1\n      jump\t// out\n        /* \"#utility.yul\":88:205   */\n    tag_233:\n        /* \"#utility.yul\":197:198   */\n      0x00\n        /* \"#utility.yul\":194:195   */\n      dup1\n        /* \"#utility.yul\":187:199   */\n      revert\n        /* \"#utility.yul\":211:328   */\n    tag_234:\n        /* \"#utility.yul\":320:321   */\n      0x00\n        /* \"#utility.yul\":317:318   */\n      dup1\n        /* \"#utility.yul\":310:322   */\n      revert\n        /* \"#utility.yul\":334:483   */\n    tag_235:\n        /* \"#utility.yul\":370:377   */\n      0x00\n        /* \"#utility.yul\":410:476   */\n      0xffffffff00000000000000000000000000000000000000000000000000000000\n        /* \"#utility.yul\":403:408   */\n      dup3\n        /* \"#utility.yul\":399:477   */\n      and\n        /* \"#utility.yul\":388:477   */\n      swap1\n      pop\n        /* \"#utility.yul\":334:483   */\n      swap2\n      swap1\n      pop\n      jump\t// out\n        /* \"#utility.yul\":489:609   */\n    tag_236:\n        /* \"#utility.yul\":561:584   */\n      tag_294\n        /* \"#utility.yul\":578:583   */\n      dup2\n        /* \"#utility.yul\":561:584   */\n      tag_235\n      jump\t// in\n    tag_294:\n        /* \"#utility.yul\":554:559   */\n      dup2\n        /* \"#utility.yul\":551:585   */\n      eq\n        /* \"#utility.yul\":541:603   */\n      tag_295\n      jumpi\n        /* \"#utility.yul\":599:600   */\n      0x00\n        /* \"#utility.yul\":596:597   */\n      dup1\n        /* \"#utility.yul\":589:601   */\n      revert\n        /* \"#utility.yul\":541:603   */\n    tag_295:\n        /* \"#utility.yul\":489:609   */\n      pop\n      jump\t// out\n        /* \"#utility.yul\":615:752   */\n    tag_237:\n        /* \"#utility.yul\":660:665   */\n      0x00\n        /* \"#utility.yul\":698:704   */\n      dup2\n        /* \"#utility.yul\":685:705   */\n      calldataload\n        /* \"#utility.yul\":676:705   */\n      swap1\n      pop\n        /* \"#utility.yul\":714:746   */\n      tag_297\n        /* \"#utility.yul\":740:745   */\n      dup2\n        /* \"#utility.yul\":714:746   */\n      tag_236\n      jump\t// in\n    tag_297:\n        /* \"#utility.yul\":615:752   */\n      swap3\n      swap2\n      pop\n      pop\n      jump\t// out\n        /* \"#utility.yul\":758:1085   */\n    tag_24:\n        /* \"#utility.yul\":816:822   */\n      0x00\n        /* \"#utility.yul\":865:867   */\n      0x20\n        /* \"#utility.yul\":853:862   */\n      dup3\n        /* \"#utility.yul\":844:851   */\n      dup5\n        /* \"#utility.yul\":840:863   */\n      sub\n        /* \"#utility.yul\":836:868   */\n      slt\n        /* \"#utility.yul\":833:952   */\n      iszero\n      tag_299\n      jumpi\n        /* \"#utility.yul\":871:950   */\n      tag_300\n      tag_233\n      jump\t// in\n    tag_300:\n        /* \"#utility.yul\":833:952   */\n    tag_299:\n        /* \"#utility.yul\":991:992   */\n      0x00\n        /* \"#utility.yul\":1016:1068   */\n      tag_301\n        /* \"#utility.yul\":1060:1067   */\n      dup5\n        /* \"#utility.yul\":1051:1057   */\n      dup3\n        /* \"#utility.yul\":1040:1049   */\n      dup6\n        /* \"#utility.yul\":1036:1058   */\n      add\n        /* \"#utility.yul\":1016:1068   */\n      tag_237\n      jump\t// in\n    tag_301:\n        /* \"#utility.yul\":1006:1068   */\n      swap2\n      pop\n        /* \"#utility.yul\":962:1078   */\n      pop\n        /* \"#utility.yul\":758:1085   */\n      swap3\n      swap2\n      pop\n      pop\n      jump\t// out\n        /* \"#utility.yul\":1091:1181   */\n    tag_238:\n        /* \"#utility.yul\":1125:1132   */\n      0x00\n        /* \"#utility.yul\":1168:1173   */\n      dup2\n        /* \"#utility.yul\":1161:1174   */\n      iszero\n        /* \"#utility.yul\":1154:1175   */\n      iszero\n        /* \"#utility.yul\":1143:1175   */\n      swap1\n      pop\n        /* \"#utility.yul\":1091:1181   */\n      swap2\n      swap1\n      pop\n      jump\t// out\n        /* \"#utility.yul\":1187:1296   */\n    tag_239:\n        /* \"#utility.yul\":1268:1289   */\n      tag_304\n        /* \"#utility.yul\":1283:1288   */\n      dup2\n        /* \"#utility.yul\":1268:1289   */\n      tag_238\n      jump\t// in\n    tag_304:\n        /* \"#utility.yul\":1263:1266   */\n      dup3\n        /* \"#utility.yul\":1256:1290   */\n      mstore\n        /* \"#utility.yul\":1187:1296   */\n      pop\n      pop\n      jump\t// out\n        /* \"#utility.yul\":1302:1512   */\n    tag_27:\n        /* \"#utility.yul\":1389:1393   */\n      0x00\n        /* \"#utility.yul\":1427:1429   */\n      0x20\n        /* \"#utility.yul\":1416:1425   */\n      dup3\n        /* \"#utility.yul\":1412:1430   */\n      add\n        /* \"#utility.yul\":1404:1430   */\n      swap1\n      pop\n        /* \"#utility.yul\":1440:1505   */\n      tag_306\n        /* \"#utility.yul\":1502:1503   */\n      0x00\n        /* \"#utility.yul\":1491:1500   */\n      dup4\n        /* \"#utility.yul\":1487:1504   */\n      add\n        /* \"#utility.yul\":1478:1484   */\n      dup5\n        /* \"#utility.yul\":1440:1505   */\n      tag_239\n      jump\t// in\n    tag_306:\n        /* \"#utility.yul\":1302:1512   */\n      swap3\n      swap2\n      pop\n      pop\n      jump\t// out\n        /* \"#utility.yul\":1518:1617   */\n    tag_240:\n        /* \"#utility.yul\":1570:1576   */\n      0x00\n        /* \"#utility.yul\":1604:1609   */\n      dup2\n        /* \"#utility.yul\":1598:1610   */\n      mload\n        /* \"#utility.yul\":1588:1610   */\n      swap1\n      pop\n        /* \"#utility.yul\":1518:1617   */\n      swap2\n      swap1\n      pop\n      jump\t// out\n        /* \"#utility.yul\":1623:1792   */\n    tag_241:\n        /* \"#utility.yul\":1707:1718   */\n      0x00\n        /* \"#utility.yul\":1741:1747   */\n      dup3\n        /* \"#utility.yul\":1736:1739   */\n      dup3\n        /* \"#utility.yul\":1729:1748   */\n      mstore\n        /* \"#utility.yul\":1781:1785   */\n      0x20\n        /* \"#utility.yul\":1776:1779   */\n      dup3\n        /* \"#utility.yul\":1772:1786   */\n      add\n        /* \"#utility.yul\":1757:1786   */\n      swap1\n      pop\n        /* \"#utility.yul\":1623:1792   */\n      swap3\n      swap2\n      pop\n      pop\n      jump\t// out\n        /* \"#utility.yul\":1798:2044   */\n    tag_242:\n        /* \"#utility.yul\":1879:1880   */\n      0x00\n        /* \"#utility.yul\":1889:2002   */\n    tag_310:\n        /* \"#utility.yul\":1903:1909   */\n      dup4\n        /* \"#utility.yul\":1900:1901   */\n      dup2\n        /* \"#utility.yul\":1897:1910   */\n      lt\n        /* \"#utility.yul\":1889:2002   */\n      iszero\n      tag_312\n      jumpi\n        /* \"#utility.yul\":1988:1989   */\n      dup1\n        /* \"#utility.yul\":1983:1986   */\n      dup3\n        /* \"#utility.yul\":1979:1990   */\n      add\n        /* \"#utility.yul\":1973:1991   */\n      mload\n        /* \"#utility.yul\":1969:1970   */\n      dup2\n        /* \"#utility.yul\":1964:1967   */\n      dup5\n        /* \"#utility.yul\":1960:1971   */\n      add\n        /* \"#utility.yul\":1953:1992   */\n      mstore\n        /* \"#utility.yul\":1925:1927   */\n      0x20\n        /* \"#utility.yul\":1922:1923   */\n      dup2\n        /* \"#utility.yul\":1918:1928   */\n      add\n        /* \"#utility.yul\":1913:1928   */\n      swap1\n      pop\n        /* \"#utility.yul\":1889:2002   */\n      jump(tag_310)\n    tag_312:\n        /* \"#utility.yul\":2036:2037   */\n      0x00\n        /* \"#utility.yul\":2027:2033   */\n      dup5\n        /* \"#utility.yul\":2022:2025   */\n      dup5\n        /* \"#utility.yul\":2018:2034   */\n      add\n        /* \"#utility.yul\":2011:2038   */\n      mstore\n        /* \"#utility.yul\":1860:2044   */\n      pop\n        /* \"#utility.yul\":1798:2044   */\n      pop\n      pop\n      pop\n      jump\t// out\n        /* \"#utility.yul\":2050:2152   */\n    tag_243:\n        /* \"#utility.yul\":2091:2097   */\n      0x00\n        /* \"#utility.yul\":2142:2144   */\n      0x1f\n        /* \"#utility.yul\":2138:2145   */\n      not\n        /* \"#utility.yul\":2133:2135   */\n      0x1f\n        /* \"#utility.yul\":2126:2131   */\n      dup4\n        /* \"#utility.yul\":2122:2136   */\n      add\n        /* \"#utility.yul\":2118:2146   */\n      and\n        /* \"#utility.yul\":2108:2146   */\n      swap1\n      pop\n        /* \"#utility.yul\":2050:2152   */\n      swap2\n      swap1\n      pop\n      jump\t// out\n        /* \"#utility.yul\":2158:2535   */\n    tag_244:\n        /* \"#utility.yul\":2246:2249   */\n      0x00\n        /* \"#utility.yul\":2274:2313   */\n      tag_315\n        /* \"#utility.yul\":2307:2312   */\n      dup3\n        /* \"#utility.yul\":2274:2313   */\n      tag_240\n      jump\t// in\n    tag_315:\n        /* \"#utility.yul\":2329:2400   */\n      tag_316\n        /* \"#utility.yul\":2393:2399   */\n      dup2\n        /* \"#utility.yul\":2388:2391   */\n      dup6\n        /* \"#utility.yul\":2329:2400   */\n      tag_241\n      jump\t// in\n    tag_316:\n        /* \"#utility.yul\":2322:2400   */\n      swap4\n      pop\n        /* \"#utility.yul\":2409:2474   */\n      tag_317\n        /* \"#utility.yul\":2467:2473   */\n      dup2\n        /* \"#utility.yul\":2462:2465   */\n      dup6\n        /* \"#utility.yul\":2455:2459   */\n      0x20\n        /* \"#utility.yul\":2448:2453   */\n      dup7\n        /* \"#utility.yul\":2444:2460   */\n      add\n        /* \"#utility.yul\":2409:2474   */\n      tag_242\n      jump\t// in\n    tag_317:\n        /* \"#utility.yul\":2499:2528   */\n      tag_318\n        /* \"#utility.yul\":2521:2527   */\n      dup2\n        /* \"#utility.yul\":2499:2528   */\n      tag_243\n      jump\t// in\n    tag_318:\n        /* \"#utility.yul\":2494:2497   */\n      dup5\n        /* \"#utility.yul\":2490:2529   */\n      add\n        /* \"#utility.yul\":2483:2529   */\n      swap2\n      pop\n        /* \"#utility.yul\":2250:2535   */\n      pop\n        /* \"#utility.yul\":2158:2535   */\n      swap3\n      swap2\n      pop\n      pop\n      jump\t// out\n        /* \"#utility.yul\":2541:2854   */\n    tag_31:\n        /* \"#utility.yul\":2654:2658   */\n      0x00\n        /* \"#utility.yul\":2692:2694   */\n      0x20\n        /* \"#utility.yul\":2681:2690   */\n      dup3\n        /* \"#utility.yul\":2677:2695   */\n      add\n        /* \"#utility.yul\":2669:2695   */\n      swap1\n      pop\n        /* \"#utility.yul\":2741:2750   */\n      dup2\n        /* \"#utility.yul\":2735:2739   */\n      dup2\n        /* \"#utility.yul\":2731:2751   */\n      sub\n        /* \"#utility.yul\":2727:2728   */\n      0x00\n        /* \"#utility.yul\":2716:2725   */\n      dup4\n        /* \"#utility.yul\":2712:2729   */\n      add\n        /* \"#utility.yul\":2705:2752   */\n      mstore\n        /* \"#utility.yul\":2769:2847   */\n      tag_320\n        /* \"#utility.yul\":2842:2846   */\n      dup2\n        /* \"#utility.yul\":2833:2839   */\n      dup5\n        /* \"#utility.yul\":2769:2847   */\n      tag_244\n      jump\t// in\n    tag_320:\n        /* \"#utility.yul\":2761:2847   */\n      swap1\n      pop\n        /* \"#utility.yul\":2541:2854   */\n      swap3\n      swap2\n      pop\n      pop\n      jump\t// out\n        /* \"#utility.yul\":2860:2937   */\n    tag_245:\n        /* \"#utility.yul\":2897:2904   */\n      0x00\n        /* \"#utility.yul\":2926:2931   */\n      dup2\n        /* \"#utility.yul\":2915:2931   */\n      swap1\n      pop\n        /* \"#utility.yul\":2860:2937   */\n      swap2\n      swap1\n      pop\n      jump\t// out\n        /* \"#utility.yul\":2943:3065   */\n    tag_246:\n        /* \"#utility.yul\":3016:3040   */\n      tag_323\n        /* \"#utility.yul\":3034:3039   */\n      dup2\n        /* \"#utility.yul\":3016:3040   */\n      tag_245\n      jump\t// in\n    tag_323:\n        /* \"#utility.yul\":3009:3014   */\n      dup2\n        /* \"#utility.yul\":3006:3041   */\n      eq\n        /* \"#utility.yul\":2996:3059   */\n      tag_324\n      jumpi\n        /* \"#utility.yul\":3055:3056   */\n      0x00\n        /* \"#utility.yul\":3052:3053   */\n      dup1\n        /* \"#utility.yul\":3045:3057   */\n      revert\n        /* \"#utility.yul\":2996:3059   */\n    tag_324:\n        /* \"#utility.yul\":2943:3065   */\n      pop\n      jump\t// out\n        /* \"#utility.yul\":3071:3210   */\n    tag_247:\n        /* \"#utility.yul\":3117:3122   */\n      0x00\n        /* \"#utility.yul\":3155:3161   */\n      dup2\n        /* \"#utility.yul\":3142:3162   */\n      calldataload\n        /* \"#utility.yul\":3133:3162   */\n      swap1\n      pop\n        /* \"#utility.yul\":3171:3204   */\n      tag_326\n        /* \"#utility.yul\":3198:3203   */\n      dup2\n        /* \"#utility.yul\":3171:3204   */\n      tag_246\n      jump\t// in\n    tag_326:\n        /* \"#utility.yul\":3071:3210   */\n      swap3\n      swap2\n      pop\n      pop\n      jump\t// out\n        /* \"#utility.yul\":3216:3545   */\n    tag_34:\n        /* \"#utility.yul\":3275:3281   */\n      0x00\n        /* \"#utility.yul\":3324:3326   */\n      0x20\n        /* \"#utility.yul\":3312:3321   */\n      dup3\n        /* \"#utility.yul\":3303:3310   */\n      dup5\n        /* \"#utility.yul\":3299:3322   */\n      sub\n        /* \"#utility.yul\":3295:3327   */\n      slt\n        /* \"#utility.yul\":3292:3411   */\n      iszero\n      tag_328\n      jumpi\n        /* \"#utility.yul\":3330:3409   */\n      tag_329\n      tag_233\n      jump\t// in\n    tag_329:\n        /* \"#utility.yul\":3292:3411   */\n    tag_328:\n        /* \"#utility.yul\":3450:3451   */\n      0x00\n        /* \"#utility.yul\":3475:3528   */\n      tag_330\n        /* \"#utility.yul\":3520:3527   */\n      dup5\n        /* \"#utility.yul\":3511:3517   */\n      dup3\n        /* \"#utility.yul\":3500:3509   */\n      dup6\n        /* \"#utility.yul\":3496:3518   */\n      add\n        /* \"#utility.yul\":3475:3528   */\n      tag_247\n      jump\t// in\n    tag_330:\n        /* \"#utility.yul\":3465:3528   */\n      swap2\n      pop\n        /* \"#utility.yul\":3421:3538   */\n      pop\n        /* \"#utility.yul\":3216:3545   */\n      swap3\n      swap2\n      pop\n      pop\n      jump\t// out\n        /* \"#utility.yul\":3551:3677   */\n    tag_248:\n        /* \"#utility.yul\":3588:3595   */\n      0x00\n        /* \"#utility.yul\":3628:3670   */\n      0xffffffffffffffffffffffffffffffffffffffff\n        /* \"#utility.yul\":3621:3626   */\n      dup3\n        /* \"#utility.yul\":3617:3671   */\n      and\n        /* \"#utility.yul\":3606:3671   */\n      swap1\n      pop\n        /* \"#utility.yul\":3551:3677   */\n      swap2\n      swap1\n      pop\n      jump\t// out\n        /* \"#utility.yul\":3683:3779   */\n    tag_249:\n        /* \"#utility.yul\":3720:3727   */\n      0x00\n        /* \"#utility.yul\":3749:3773   */\n      tag_333\n        /* \"#utility.yul\":3767:3772   */\n      dup3\n        /* \"#utility.yul\":3749:3773   */\n      tag_248\n      jump\t// in\n    tag_333:\n        /* \"#utility.yul\":3738:3773   */\n      swap1\n      pop\n        /* \"#utility.yul\":3683:3779   */\n      swap2\n      swap1\n      pop\n      jump\t// out\n        /* \"#utility.yul\":3785:3903   */\n    tag_250:\n        /* \"#utility.yul\":3872:3896   */\n      tag_335\n        /* \"#utility.yul\":3890:3895   */\n      dup2\n        /* \"#utility.yul\":3872:3896   */\n      tag_249\n      jump\t// in\n    tag_335:\n        /* \"#utility.yul\":3867:3870   */\n      dup3\n        /* \"#utility.yul\":3860:3897   */\n      mstore\n        /* \"#utility.yul\":3785:3903   */\n      pop\n      pop\n      jump\t// out\n        /* \"#utility.yul\":3909:4131   */\n    tag_37:\n        /* \"#utility.yul\":4002:4006   */\n      0x00\n        /* \"#utility.yul\":4040:4042   */\n      0x20\n        /* \"#utility.yul\":4029:4038   */\n      dup3\n        /* \"#utility.yul\":4025:4043   */\n      add\n        /* \"#utility.yul\":4017:4043   */\n      swap1\n      pop\n        /* \"#utility.yul\":4053:4124   */\n      tag_337\n        /* \"#utility.yul\":4121:4122   */\n      0x00\n        /* \"#utility.yul\":4110:4119   */\n      dup4\n        /* \"#utility.yul\":4106:4123   */\n      add\n        /* \"#utility.yul\":4097:4103   */\n      dup5\n        /* \"#utility.yul\":4053:4124   */\n      tag_250\n      jump\t// in\n    tag_337:\n        /* \"#utility.yul\":3909:4131   */\n      swap3\n      swap2\n      pop\n      pop\n      jump\t// out\n        /* \"#utility.yul\":4137:4259   */\n    tag_251:\n        /* \"#utility.yul\":4210:4234   */\n      tag_339\n        /* \"#utility.yul\":4228:4233   */\n      dup2\n        /* \"#utility.yul\":4210:4234   */\n      tag_249\n      jump\t// in\n    tag_339:\n        /* \"#utility.yul\":4203:4208   */\n      dup2\n        /* \"#utility.yul\":4200:4235   */\n      eq\n        /* \"#utility.yul\":4190:4253   */\n      tag_340\n      jumpi\n        /* \"#utility.yul\":4249:4250   */\n      0x00\n        /* \"#utility.yul\":4246:4247   */\n      dup1\n        /* \"#utility.yul\":4239:4251   */\n      revert\n        /* \"#utility.yul\":4190:4253   */\n    tag_340:\n        /* \"#utility.yul\":4137:4259   */\n      pop\n      jump\t// out\n        /* \"#utility.yul\":4265:4404   */\n    tag_252:\n        /* \"#utility.yul\":4311:4316   */\n      0x00\n        /* \"#utility.yul\":4349:4355   */\n      dup2\n        /* \"#utility.yul\":4336:4356   */\n      calldataload\n        /* \"#utility.yul\":4327:4356   */\n      swap1\n      pop\n        /* \"#utility.yul\":4365:4398   */\n      tag_342\n        /* \"#utility.yul\":4392:4397   */\n      dup2\n        /* \"#utility.yul\":4365:4398   */\n      tag_251\n      jump\t// in\n    tag_342:\n        /* \"#utility.yul\":4265:4404   */\n      swap3\n      swap2\n      pop\n      pop\n      jump\t// out\n        /* \"#utility.yul\":4410:4884   */\n    tag_40:\n        /* \"#utility.yul\":4478:4484   */\n      0x00\n        /* \"#utility.yul\":4486:4492   */\n      dup1\n        /* \"#utility.yul\":4535:4537   */\n      0x40\n        /* \"#utility.yul\":4523:4532   */\n      dup4\n        /* \"#utility.yul\":4514:4521   */\n      dup6\n        /* \"#utility.yul\":4510:4533   */\n      sub\n        /* \"#utility.yul\":4506:4538   */\n      slt\n        /* \"#utility.yul\":4503:4622   */\n      iszero\n      tag_344\n      jumpi\n        /* \"#utility.yul\":4541:4620   */\n      tag_345\n      tag_233\n      jump\t// in\n    tag_345:\n        /* \"#utility.yul\":4503:4622   */\n    tag_344:\n        /* \"#utility.yul\":4661:4662   */\n      0x00\n        /* \"#utility.yul\":4686:4739   */\n      tag_346\n        /* \"#utility.yul\":4731:4738   */\n      dup6\n        /* \"#utility.yul\":4722:4728   */\n      dup3\n        /* \"#utility.yul\":4711:4720   */\n      dup7\n        /* \"#utility.yul\":4707:4729   */\n      add\n        /* \"#utility.yul\":4686:4739   */\n      tag_252\n      jump\t// in\n    tag_346:\n        /* \"#utility.yul\":4676:4739   */\n      swap3\n      pop\n        /* \"#utility.yul\":4632:4749   */\n      pop\n        /* \"#utility.yul\":4788:4790   */\n      0x20\n        /* \"#utility.yul\":4814:4867   */\n      tag_347\n        /* \"#utility.yul\":4859:4866   */\n      dup6\n        /* \"#utility.yul\":4850:4856   */\n      dup3\n        /* \"#utility.yul\":4839:4848   */\n      dup7\n        /* \"#utility.yul\":4835:4857   */\n      add\n        /* \"#utility.yul\":4814:4867   */\n      tag_247\n      jump\t// in\n    tag_347:\n        /* \"#utility.yul\":4804:4867   */\n      swap2\n      pop\n        /* \"#utility.yul\":4759:4877   */\n      pop\n        /* \"#utility.yul\":4410:4884   */\n      swap3\n      pop\n      swap3\n      swap1\n      pop\n      jump\t// out\n        /* \"#utility.yul\":4890:5007   */\n    tag_253:\n        /* \"#utility.yul\":4999:5000   */\n      0x00\n        /* \"#utility.yul\":4996:4997   */\n      dup1\n        /* \"#utility.yul\":4989:5001   */\n      revert\n        /* \"#utility.yul\":5013:5130   */\n    tag_254:\n        /* \"#utility.yul\":5122:5123   */\n      0x00\n        /* \"#utility.yul\":5119:5120   */\n      dup1\n        /* \"#utility.yul\":5112:5124   */\n      revert\n        /* \"#utility.yul\":5136:5316   */\n    tag_255:\n        /* \"#utility.yul\":5184:5261   */\n      0x4e487b7100000000000000000000000000000000000000000000000000000000\n        /* \"#utility.yul\":5181:5182   */\n      0x00\n        /* \"#utility.yul\":5174:5262   */\n      mstore\n        /* \"#utility.yul\":5281:5285   */\n      0x41\n        /* \"#utility.yul\":5278:5279   */\n      0x04\n        /* \"#utility.yul\":5271:5286   */\n      mstore\n        /* \"#utility.yul\":5305:5309   */\n      0x24\n        /* \"#utility.yul\":5302:5303   */\n      0x00\n        /* \"#utility.yul\":5295:5310   */\n      revert\n        /* \"#utility.yul\":5322:5603   */\n    tag_256:\n        /* \"#utility.yul\":5405:5432   */\n      tag_352\n        /* \"#utility.yul\":5427:5431   */\n      dup3\n        /* \"#utility.yul\":5405:5432   */\n      tag_243\n      jump\t// in\n    tag_352:\n        /* \"#utility.yul\":5397:5403   */\n      dup2\n        /* \"#utility.yul\":5393:5433   */\n      add\n        /* \"#utility.yul\":5535:5541   */\n      dup2\n        /* \"#utility.yul\":5523:5533   */\n      dup2\n        /* \"#utility.yul\":5520:5542   */\n      lt\n        /* \"#utility.yul\":5499:5517   */\n      0xffffffffffffffff\n        /* \"#utility.yul\":5487:5497   */\n      dup3\n        /* \"#utility.yul\":5484:5518   */\n      gt\n        /* \"#utility.yul\":5481:5543   */\n      or\n        /* \"#utility.yul\":5478:5566   */\n      iszero\n      tag_353\n      jumpi\n        /* \"#utility.yul\":5546:5564   */\n      tag_354\n      tag_255\n      jump\t// in\n    tag_354:\n        /* \"#utility.yul\":5478:5566   */\n    tag_353:\n        /* \"#utility.yul\":5586:5596   */\n      dup1\n        /* \"#utility.yul\":5582:5584   */\n      0x40\n        /* \"#utility.yul\":5575:5597   */\n      mstore\n        /* \"#utility.yul\":5365:5603   */\n      pop\n        /* \"#utility.yul\":5322:5603   */\n      pop\n      pop\n      jump\t// out\n        /* \"#utility.yul\":5609:5738   */\n    tag_257:\n        /* \"#utility.yul\":5643:5649   */\n      0x00\n        /* \"#utility.yul\":5670:5690   */\n      tag_356\n      tag_232\n      jump\t// in\n    tag_356:\n        /* \"#utility.yul\":5660:5690   */\n      swap1\n      pop\n        /* \"#utility.yul\":5699:5732   */\n      tag_357\n        /* \"#utility.yul\":5727:5731   */\n      dup3\n        /* \"#utility.yul\":5719:5725   */\n      dup3\n        /* \"#utility.yul\":5699:5732   */\n      tag_256\n      jump\t// in\n    tag_357:\n        /* \"#utility.yul\":5609:5738   */\n      swap2\n      swap1\n      pop\n      jump\t// out\n        /* \"#utility.yul\":5744:6052   */\n    tag_258:\n        /* \"#utility.yul\":5806:5810   */\n      0x00\n        /* \"#utility.yul\":5896:5914   */\n      0xffffffffffffffff\n        /* \"#utility.yul\":5888:5894   */\n      dup3\n        /* \"#utility.yul\":5885:5915   */\n      gt\n        /* \"#utility.yul\":5882:5938   */\n      iszero\n      tag_359\n      jumpi\n        /* \"#utility.yul\":5918:5936   */\n      tag_360\n      tag_255\n      jump\t// in\n    tag_360:\n        /* \"#utility.yul\":5882:5938   */\n    tag_359:\n        /* \"#utility.yul\":5956:5985   */\n      tag_361\n        /* \"#utility.yul\":5978:5984   */\n      dup3\n        /* \"#utility.yul\":5956:5985   */\n      tag_243\n      jump\t// in\n    tag_361:\n        /* \"#utility.yul\":5948:5985   */\n      swap1\n      pop\n        /* \"#utility.yul\":6040:6044   */\n      0x20\n        /* \"#utility.yul\":6034:6038   */\n      dup2\n        /* \"#utility.yul\":6030:6045   */\n      add\n        /* \"#utility.yul\":6022:6045   */\n      swap1\n      pop\n        /* \"#utility.yul\":5744:6052   */\n      swap2\n      swap1\n      pop\n      jump\t// out\n        /* \"#utility.yul\":6058:6204   */\n    tag_259:\n        /* \"#utility.yul\":6155:6161   */\n      dup3\n        /* \"#utility.yul\":6150:6153   */\n      dup2\n        /* \"#utility.yul\":6145:6148   */\n      dup4\n        /* \"#utility.yul\":6132:6162   */\n      calldatacopy\n        /* \"#utility.yul\":6196:6197   */\n      0x00\n        /* \"#utility.yul\":6187:6193   */\n      dup4\n        /* \"#utility.yul\":6182:6185   */\n      dup4\n        /* \"#utility.yul\":6178:6194   */\n      add\n        /* \"#utility.yul\":6171:6198   */\n      mstore\n        /* \"#utility.yul\":6058:6204   */\n      pop\n      pop\n      pop\n      jump\t// out\n        /* \"#utility.yul\":6210:6635   */\n    tag_260:\n        /* \"#utility.yul\":6288:6293   */\n      0x00\n        /* \"#utility.yul\":6313:6379   */\n      tag_364\n        /* \"#utility.yul\":6329:6378   */\n      tag_365\n        /* \"#utility.yul\":6371:6377   */\n      dup5\n        /* \"#utility.yul\":6329:6378   */\n      tag_258\n      jump\t// in\n    tag_365:\n        /* \"#utility.yul\":6313:6379   */\n      tag_257\n      jump\t// in\n    tag_364:\n        /* \"#utility.yul\":6304:6379   */\n      swap1\n      pop\n        /* \"#utility.yul\":6402:6408   */\n      dup3\n        /* \"#utility.yul\":6395:6400   */\n      dup2\n        /* \"#utility.yul\":6388:6409   */\n      mstore\n        /* \"#utility.yul\":6440:6444   */\n      0x20\n        /* \"#utility.yul\":6433:6438   */\n      dup2\n        /* \"#utility.yul\":6429:6445   */\n      add\n        /* \"#utility.yul\":6478:6481   */\n      dup5\n        /* \"#utility.yul\":6469:6475   */\n      dup5\n        /* \"#utility.yul\":6464:6467   */\n      dup5\n        /* \"#utility.yul\":6460:6476   */\n      add\n        /* \"#utility.yul\":6457:6482   */\n      gt\n        /* \"#utility.yul\":6454:6566   */\n      iszero\n      tag_366\n      jumpi\n        /* \"#utility.yul\":6485:6564   */\n      tag_367\n      tag_254\n      jump\t// in\n    tag_367:\n        /* \"#utility.yul\":6454:6566   */\n    tag_366:\n        /* \"#utility.yul\":6575:6629   */\n      tag_368\n        /* \"#utility.yul\":6622:6628   */\n      dup5\n        /* \"#utility.yul\":6617:6620   */\n      dup3\n        /* \"#utility.yul\":6612:6615   */\n      dup6\n        /* \"#utility.yul\":6575:6629   */\n      tag_259\n      jump\t// in\n    tag_368:\n        /* \"#utility.yul\":6294:6635   */\n      pop\n        /* \"#utility.yul\":6210:6635   */\n      swap4\n      swap3\n      pop\n      pop\n      pop\n      jump\t// out\n        /* \"#utility.yul\":6655:6995   */\n    tag_261:\n        /* \"#utility.yul\":6711:6716   */\n      0x00\n        /* \"#utility.yul\":6760:6763   */\n      dup3\n        /* \"#utility.yul\":6753:6757   */\n      0x1f\n        /* \"#utility.yul\":6745:6751   */\n      dup4\n        /* \"#utility.yul\":6741:6758   */\n      add\n        /* \"#utility.yul\":6737:6764   */\n      slt\n        /* \"#utility.yul\":6727:6849   */\n      tag_370\n      jumpi\n        /* \"#utility.yul\":6768:6847   */\n      tag_371\n      tag_253\n      jump\t// in\n    tag_371:\n        /* \"#utility.yul\":6727:6849   */\n    tag_370:\n        /* \"#utility.yul\":6885:6891   */\n      dup2\n        /* \"#utility.yul\":6872:6892   */\n      calldataload\n        /* \"#utility.yul\":6910:6989   */\n      tag_372\n        /* \"#utility.yul\":6985:6988   */\n      dup5\n        /* \"#utility.yul\":6977:6983   */\n      dup3\n        /* \"#utility.yul\":6970:6974   */\n      0x20\n        /* \"#utility.yul\":6962:6968   */\n      dup7\n        /* \"#utility.yul\":6958:6975   */\n      add\n        /* \"#utility.yul\":6910:6989   */\n      tag_260\n      jump\t// in\n    tag_372:\n        /* \"#utility.yul\":6901:6989   */\n      swap2\n      pop\n        /* \"#utility.yul\":6717:6995   */\n      pop\n        /* \"#utility.yul\":6655:6995   */\n      swap3\n      swap2\n      pop\n      pop\n      jump\t// out\n        /* \"#utility.yul\":7001:7655   */\n    tag_44:\n        /* \"#utility.yul\":7079:7085   */\n      0x00\n        /* \"#utility.yul\":7087:7093   */\n      dup1\n        /* \"#utility.yul\":7136:7138   */\n      0x40\n        /* \"#utility.yul\":7124:7133   */\n      dup4\n        /* \"#utility.yul\":7115:7122   */\n      dup6\n        /* \"#utility.yul\":7111:7134   */\n      sub\n        /* \"#utility.yul\":7107:7139   */\n      slt\n        /* \"#utility.yul\":7104:7223   */\n      iszero\n      tag_374\n      jumpi\n        /* \"#utility.yul\":7142:7221   */\n      tag_375\n      tag_233\n      jump\t// in\n    tag_375:\n        /* \"#utility.yul\":7104:7223   */\n    tag_374:\n        /* \"#utility.yul\":7262:7263   */\n      0x00\n        /* \"#utility.yul\":7287:7340   */\n      tag_376\n        /* \"#utility.yul\":7332:7339   */\n      dup6\n        /* \"#utility.yul\":7323:7329   */\n      dup3\n        /* \"#utility.yul\":7312:7321   */\n      dup7\n        /* \"#utility.yul\":7308:7330   */\n      add\n        /* \"#utility.yul\":7287:7340   */\n      tag_247\n      jump\t// in\n    tag_376:\n        /* \"#utility.yul\":7277:7340   */\n      swap3\n      pop\n        /* \"#utility.yul\":7233:7350   */\n      pop\n        /* \"#utility.yul\":7417:7419   */\n      0x20\n        /* \"#utility.yul\":7406:7415   */\n      dup4\n        /* \"#utility.yul\":7402:7420   */\n      add\n        /* \"#utility.yul\":7389:7421   */\n      calldataload\n        /* \"#utility.yul\":7448:7466   */\n      0xffffffffffffffff\n        /* \"#utility.yul\":7440:7446   */\n      dup2\n        /* \"#utility.yul\":7437:7467   */\n      gt\n        /* \"#utility.yul\":7434:7551   */\n      iszero\n      tag_377\n      jumpi\n        /* \"#utility.yul\":7470:7549   */\n      tag_378\n      tag_234\n      jump\t// in\n    tag_378:\n        /* \"#utility.yul\":7434:7551   */\n    tag_377:\n        /* \"#utility.yul\":7575:7638   */\n      tag_379\n        /* \"#utility.yul\":7630:7637   */\n      dup6\n        /* \"#utility.yul\":7621:7627   */\n      dup3\n        /* \"#utility.yul\":7610:7619   */\n      dup7\n        /* \"#utility.yul\":7606:7628   */\n      add\n        /* \"#utility.yul\":7575:7638   */\n      tag_261\n      jump\t// in\n    tag_379:\n        /* \"#utility.yul\":7565:7638   */\n      swap2\n      pop\n        /* \"#utility.yul\":7360:7648   */\n      pop\n        /* \"#utility.yul\":7001:7655   */\n      swap3\n      pop\n      swap3\n      swap1\n      pop\n      jump\t// out\n        /* \"#utility.yul\":7661:8280   */\n    tag_48:\n        /* \"#utility.yul\":7738:7744   */\n      0x00\n        /* \"#utility.yul\":7746:7752   */\n      dup1\n        /* \"#utility.yul\":7754:7760   */\n      0x00\n        /* \"#utility.yul\":7803:7805   */\n      0x60\n        /* \"#utility.yul\":7791:7800   */\n      dup5\n        /* \"#utility.yul\":7782:7789   */\n      dup7\n        /* \"#utility.yul\":7778:7801   */\n      sub\n        /* \"#utility.yul\":7774:7806   */\n      slt\n        /* \"#utility.yul\":7771:7890   */\n      iszero\n      tag_381\n      jumpi\n        /* \"#utility.yul\":7809:7888   */\n      tag_382\n      tag_233\n      jump\t// in\n    tag_382:\n        /* \"#utility.yul\":7771:7890   */\n    tag_381:\n        /* \"#utility.yul\":7929:7930   */\n      0x00\n        /* \"#utility.yul\":7954:8007   */\n      tag_383\n        /* \"#utility.yul\":7999:8006   */\n      dup7\n        /* \"#utility.yul\":7990:7996   */\n      dup3\n        /* \"#utility.yul\":7979:7988   */\n      dup8\n        /* \"#utility.yul\":7975:7997   */\n      add\n        /* \"#utility.yul\":7954:8007   */\n      tag_252\n      jump\t// in\n    tag_383:\n        /* \"#utility.yul\":7944:8007   */\n      swap4\n      pop\n        /* \"#utility.yul\":7900:8017   */\n      pop\n        /* \"#utility.yul\":8056:8058   */\n      0x20\n        /* \"#utility.yul\":8082:8135   */\n      tag_384\n        /* \"#utility.yul\":8127:8134   */\n      dup7\n        /* \"#utility.yul\":8118:8124   */\n      dup3\n        /* \"#utility.yul\":8107:8116   */\n      dup8\n        /* \"#utility.yul\":8103:8125   */\n      add\n        /* \"#utility.yul\":8082:8135   */\n      tag_252\n      jump\t// in\n    tag_384:\n        /* \"#utility.yul\":8072:8135   */\n      swap3\n      pop\n        /* \"#utility.yul\":8027:8145   */\n      pop\n        /* \"#utility.yul\":8184:8186   */\n      0x40\n        /* \"#utility.yul\":8210:8263   */\n      tag_385\n        /* \"#utility.yul\":8255:8262   */\n      dup7\n        /* \"#utility.yul\":8246:8252   */\n      dup3\n        /* \"#utility.yul\":8235:8244   */\n      dup8\n        /* \"#utility.yul\":8231:8253   */\n      add\n        /* \"#utility.yul\":8210:8263   */\n      tag_247\n      jump\t// in\n    tag_385:\n        /* \"#utility.yul\":8200:8263   */\n      swap2\n      pop\n        /* \"#utility.yul\":8155:8273   */\n      pop\n        /* \"#utility.yul\":7661:8280   */\n      swap3\n      pop\n      swap3\n      pop\n      swap3\n      jump\t// out\n        /* \"#utility.yul\":8286:8402   */\n    tag_262:\n        /* \"#utility.yul\":8356:8377   */\n      tag_387\n        /* \"#utility.yul\":8371:8376   */\n      dup2\n        /* \"#utility.yul\":8356:8377   */\n      tag_238\n      jump\t// in\n    tag_387:\n        /* \"#utility.yul\":8349:8354   */\n      dup2\n        /* \"#utility.yul\":8346:8378   */\n      eq\n        /* \"#utility.yul\":8336:8396   */\n      tag_388\n      jumpi\n        /* \"#utility.yul\":8392:8393   */\n      0x00\n        /* \"#utility.yul\":8389:8390   */\n      dup1\n        /* \"#utility.yul\":8382:8394   */\n      revert\n        /* \"#utility.yul\":8336:8396   */\n    tag_388:\n        /* \"#utility.yul\":8286:8402   */\n      pop\n      jump\t// out\n        /* \"#utility.yul\":8408:8541   */\n    tag_263:\n        /* \"#utility.yul\":8451:8456   */\n      0x00\n        /* \"#utility.yul\":8489:8495   */\n      dup2\n        /* \"#utility.yul\":8476:8496   */\n      calldataload\n        /* \"#utility.yul\":8467:8496   */\n      swap1\n      pop\n        /* \"#utility.yul\":8505:8535   */\n      tag_390\n        /* \"#utility.yul\":8529:8534   */\n      dup2\n        /* \"#utility.yul\":8505:8535   */\n      tag_262\n      jump\t// in\n    tag_390:\n        /* \"#utility.yul\":8408:8541   */\n      swap3\n      swap2\n      pop\n      pop\n      jump\t// out\n        /* \"#utility.yul\":8547:9160   */\n    tag_52:\n        /* \"#utility.yul\":8621:8627   */\n      0x00\n        /* \"#utility.yul\":8629:8635   */\n      dup1\n        /* \"#utility.yul\":8637:8643   */\n      0x00\n        /* \"#utility.yul\":8686:8688   */\n      0x60\n        /* \"#utility.yul\":8674:8683   */\n      dup5\n        /* \"#utility.yul\":8665:8672   */\n      dup7\n        /* \"#utility.yul\":8661:8684   */\n      sub\n        /* \"#utility.yul\":8657:8689   */\n      slt\n        /* \"#utility.yul\":8654:8773   */\n      iszero\n      tag_392\n      jumpi\n        /* \"#utility.yul\":8692:8771   */\n      tag_393\n      tag_233\n      jump\t// in\n    tag_393:\n        /* \"#utility.yul\":8654:8773   */\n    tag_392:\n        /* \"#utility.yul\":8812:8813   */\n      0x00\n        /* \"#utility.yul\":8837:8890   */\n      tag_394\n        /* \"#utility.yul\":8882:8889   */\n      dup7\n        /* \"#utility.yul\":8873:8879   */\n      dup3\n        /* \"#utility.yul\":8862:8871   */\n      dup8\n        /* \"#utility.yul\":8858:8880   */\n      add\n        /* \"#utility.yul\":8837:8890   */\n      tag_252\n      jump\t// in\n    tag_394:\n        /* \"#utility.yul\":8827:8890   */\n      swap4\n      pop\n        /* \"#utility.yul\":8783:8900   */\n      pop\n        /* \"#utility.yul\":8939:8941   */\n      0x20\n        /* \"#utility.yul\":8965:9018   */\n      tag_395\n        /* \"#utility.yul\":9010:9017   */\n      dup7\n        /* \"#utility.yul\":9001:9007   */\n      dup3\n        /* \"#utility.yul\":8990:8999   */\n      dup8\n        /* \"#utility.yul\":8986:9008   */\n      add\n        /* \"#utility.yul\":8965:9018   */\n      tag_252\n      jump\t// in\n    tag_395:\n        /* \"#utility.yul\":8955:9018   */\n      swap3\n      pop\n        /* \"#utility.yul\":8910:9028   */\n      pop\n        /* \"#utility.yul\":9067:9069   */\n      0x40\n        /* \"#utility.yul\":9093:9143   */\n      tag_396\n        /* \"#utility.yul\":9135:9142   */\n      dup7\n        /* \"#utility.yul\":9126:9132   */\n      dup3\n        /* \"#utility.yul\":9115:9124   */\n      dup8\n        /* \"#utility.yul\":9111:9133   */\n      add\n        /* \"#utility.yul\":9093:9143   */\n      tag_263\n      jump\t// in\n    tag_396:\n        /* \"#utility.yul\":9083:9143   */\n      swap2\n      pop\n        /* \"#utility.yul\":9038:9153   */\n      pop\n        /* \"#utility.yul\":8547:9160   */\n      swap3\n      pop\n      swap3\n      pop\n      swap3\n      jump\t// out\n        /* \"#utility.yul\":9166:9495   */\n    tag_63:\n        /* \"#utility.yul\":9225:9231   */\n      0x00\n        /* \"#utility.yul\":9274:9276   */\n      0x20\n        /* \"#utility.yul\":9262:9271   */\n      dup3\n        /* \"#utility.yul\":9253:9260   */\n      dup5\n        /* \"#utility.yul\":9249:9272   */\n      sub\n        /* \"#utility.yul\":9245:9277   */\n      slt\n        /* \"#utility.yul\":9242:9361   */\n      iszero\n      tag_398\n      jumpi\n        /* \"#utility.yul\":9280:9359   */\n      tag_399\n      tag_233\n      jump\t// in\n    tag_399:\n        /* \"#utility.yul\":9242:9361   */\n    tag_398:\n        /* \"#utility.yul\":9400:9401   */\n      0x00\n        /* \"#utility.yul\":9425:9478   */\n      tag_400\n        /* \"#utility.yul\":9470:9477   */\n      dup5\n        /* \"#utility.yul\":9461:9467   */\n      dup3\n        /* \"#utility.yul\":9450:9459   */\n      dup6\n        /* \"#utility.yul\":9446:9468   */\n      add\n        /* \"#utility.yul\":9425:9478   */\n      tag_252\n      jump\t// in\n    tag_400:\n        /* \"#utility.yul\":9415:9478   */\n      swap2\n      pop\n        /* \"#utility.yul\":9371:9488   */\n      pop\n        /* \"#utility.yul\":9166:9495   */\n      swap3\n      swap2\n      pop\n      pop\n      jump\t// out\n        /* \"#utility.yul\":9501:9619   */\n    tag_264:\n        /* \"#utility.yul\":9588:9612   */\n      tag_402\n        /* \"#utility.yul\":9606:9611   */\n      dup2\n        /* \"#utility.yul\":9588:9612   */\n      tag_245\n      jump\t// in\n    tag_402:\n        /* \"#utility.yul\":9583:9586   */\n      dup3\n        /* \"#utility.yul\":9576:9613   */\n      mstore\n        /* \"#utility.yul\":9501:9619   */\n      pop\n      pop\n      jump\t// out\n        /* \"#utility.yul\":9625:9847   */\n    tag_66:\n        /* \"#utility.yul\":9718:9722   */\n      0x00\n        /* \"#utility.yul\":9756:9758   */\n      0x20\n        /* \"#utility.yul\":9745:9754   */\n      dup3\n        /* \"#utility.yul\":9741:9759   */\n      add\n        /* \"#utility.yul\":9733:9759   */\n      swap1\n      pop\n        /* \"#utility.yul\":9769:9840   */\n      tag_404\n        /* \"#utility.yul\":9837:9838   */\n      0x00\n        /* \"#utility.yul\":9826:9835   */\n      dup4\n        /* \"#utility.yul\":9822:9839   */\n      add\n        /* \"#utility.yul\":9813:9819   */\n      dup5\n        /* \"#utility.yul\":9769:9840   */\n      tag_264\n      jump\t// in\n    tag_404:\n        /* \"#utility.yul\":9625:9847   */\n      swap3\n      swap2\n      pop\n      pop\n      jump\t// out\n        /* \"#utility.yul\":9853:10321   */\n    tag_72:\n        /* \"#utility.yul\":9918:9924   */\n      0x00\n        /* \"#utility.yul\":9926:9932   */\n      dup1\n        /* \"#utility.yul\":9975:9977   */\n      0x40\n        /* \"#utility.yul\":9963:9972   */\n      dup4\n        /* \"#utility.yul\":9954:9961   */\n      dup6\n        /* \"#utility.yul\":9950:9973   */\n      sub\n        /* \"#utility.yul\":9946:9978   */\n      slt\n        /* \"#utility.yul\":9943:10062   */\n      iszero\n      tag_406\n      jumpi\n        /* \"#utility.yul\":9981:10060   */\n      tag_407\n      tag_233\n      jump\t// in\n    tag_407:\n        /* \"#utility.yul\":9943:10062   */\n    tag_406:\n        /* \"#utility.yul\":10101:10102   */\n      0x00\n        /* \"#utility.yul\":10126:10179   */\n      tag_408\n        /* \"#utility.yul\":10171:10178   */\n      dup6\n        /* \"#utility.yul\":10162:10168   */\n      dup3\n        /* \"#utility.yul\":10151:10160   */\n      dup7\n        /* \"#utility.yul\":10147:10169   */\n      add\n        /* \"#utility.yul\":10126:10179   */\n      tag_252\n      jump\t// in\n    tag_408:\n        /* \"#utility.yul\":10116:10179   */\n      swap3\n      pop\n        /* \"#utility.yul\":10072:10189   */\n      pop\n        /* \"#utility.yul\":10228:10230   */\n      0x20\n        /* \"#utility.yul\":10254:10304   */\n      tag_409\n        /* \"#utility.yul\":10296:10303   */\n      dup6\n        /* \"#utility.yul\":10287:10293   */\n      dup3\n        /* \"#utility.yul\":10276:10285   */\n      dup7\n        /* \"#utility.yul\":10272:10294   */\n      add\n        /* \"#utility.yul\":10254:10304   */\n      tag_263\n      jump\t// in\n    tag_409:\n        /* \"#utility.yul\":10244:10304   */\n      swap2\n      pop\n        /* \"#utility.yul\":10199:10314   */\n      pop\n        /* \"#utility.yul\":9853:10321   */\n      swap3\n      pop\n      swap3\n      swap1\n      pop\n      jump\t// out\n        /* \"#utility.yul\":10327:10634   */\n    tag_265:\n        /* \"#utility.yul\":10388:10392   */\n      0x00\n        /* \"#utility.yul\":10478:10496   */\n      0xffffffffffffffff\n        /* \"#utility.yul\":10470:10476   */\n      dup3\n        /* \"#utility.yul\":10467:10497   */\n      gt\n        /* \"#utility.yul\":10464:10520   */\n      iszero\n      tag_411\n      jumpi\n        /* \"#utility.yul\":10500:10518   */\n      tag_412\n      tag_255\n      jump\t// in\n    tag_412:\n        /* \"#utility.yul\":10464:10520   */\n    tag_411:\n        /* \"#utility.yul\":10538:10567   */\n      tag_413\n        /* \"#utility.yul\":10560:10566   */\n      dup3\n        /* \"#utility.yul\":10538:10567   */\n      tag_243\n      jump\t// in\n    tag_413:\n        /* \"#utility.yul\":10530:10567   */\n      swap1\n      pop\n        /* \"#utility.yul\":10622:10626   */\n      0x20\n        /* \"#utility.yul\":10616:10620   */\n      dup2\n        /* \"#utility.yul\":10612:10627   */\n      add\n        /* \"#utility.yul\":10604:10627   */\n      swap1\n      pop\n        /* \"#utility.yul\":10327:10634   */\n      swap2\n      swap1\n      pop\n      jump\t// out\n        /* \"#utility.yul\":10640:11063   */\n    tag_266:\n        /* \"#utility.yul\":10717:10722   */\n      0x00\n        /* \"#utility.yul\":10742:10807   */\n      tag_415\n        /* \"#utility.yul\":10758:10806   */\n      tag_416\n        /* \"#utility.yul\":10799:10805   */\n      dup5\n        /* \"#utility.yul\":10758:10806   */\n      tag_265\n      jump\t// in\n    tag_416:\n        /* \"#utility.yul\":10742:10807   */\n      tag_257\n      jump\t// in\n    tag_415:\n        /* \"#utility.yul\":10733:10807   */\n      swap1\n      pop\n        /* \"#utility.yul\":10830:10836   */\n      dup3\n        /* \"#utility.yul\":10823:10828   */\n      dup2\n        /* \"#utility.yul\":10816:10837   */\n      mstore\n        /* \"#utility.yul\":10868:10872   */\n      0x20\n        /* \"#utility.yul\":10861:10866   */\n      dup2\n        /* \"#utility.yul\":10857:10873   */\n      add\n        /* \"#utility.yul\":10906:10909   */\n      dup5\n        /* \"#utility.yul\":10897:10903   */\n      dup5\n        /* \"#utility.yul\":10892:10895   */\n      dup5\n        /* \"#utility.yul\":10888:10904   */\n      add\n        /* \"#utility.yul\":10885:10910   */\n      gt\n        /* \"#utility.yul\":10882:10994   */\n      iszero\n      tag_417\n      jumpi\n        /* \"#utility.yul\":10913:10992   */\n      tag_418\n      tag_254\n      jump\t// in\n    tag_418:\n        /* \"#utility.yul\":10882:10994   */\n    tag_417:\n        /* \"#utility.yul\":11003:11057   */\n      tag_419\n        /* \"#utility.yul\":11050:11056   */\n      dup5\n        /* \"#utility.yul\":11045:11048   */\n      dup3\n        /* \"#utility.yul\":11040:11043   */\n      dup6\n        /* \"#utility.yul\":11003:11057   */\n      tag_259\n      jump\t// in\n    tag_419:\n        /* \"#utility.yul\":10723:11063   */\n      pop\n        /* \"#utility.yul\":10640:11063   */\n      swap4\n      swap3\n      pop\n      pop\n      pop\n      jump\t// out\n        /* \"#utility.yul\":11082:11420   */\n    tag_267:\n        /* \"#utility.yul\":11137:11142   */\n      0x00\n        /* \"#utility.yul\":11186:11189   */\n      dup3\n        /* \"#utility.yul\":11179:11183   */\n      0x1f\n        /* \"#utility.yul\":11171:11177   */\n      dup4\n        /* \"#utility.yul\":11167:11184   */\n      add\n        /* \"#utility.yul\":11163:11190   */\n      slt\n        /* \"#utility.yul\":11153:11275   */\n      tag_421\n      jumpi\n        /* \"#utility.yul\":11194:11273   */\n      tag_422\n      tag_253\n      jump\t// in\n    tag_422:\n        /* \"#utility.yul\":11153:11275   */\n    tag_421:\n        /* \"#utility.yul\":11311:11317   */\n      dup2\n        /* \"#utility.yul\":11298:11318   */\n      calldataload\n        /* \"#utility.yul\":11336:11414   */\n      tag_423\n        /* \"#utility.yul\":11410:11413   */\n      dup5\n        /* \"#utility.yul\":11402:11408   */\n      dup3\n        /* \"#utility.yul\":11395:11399   */\n      0x20\n        /* \"#utility.yul\":11387:11393   */\n      dup7\n        /* \"#utility.yul\":11383:11400   */\n      add\n        /* \"#utility.yul\":11336:11414   */\n      tag_266\n      jump\t// in\n    tag_423:\n        /* \"#utility.yul\":11327:11414   */\n      swap2\n      pop\n        /* \"#utility.yul\":11143:11420   */\n      pop\n        /* \"#utility.yul\":11082:11420   */\n      swap3\n      swap2\n      pop\n      pop\n      jump\t// out\n        /* \"#utility.yul\":11426:12369   */\n    tag_76:\n        /* \"#utility.yul\":11521:11527   */\n      0x00\n        /* \"#utility.yul\":11529:11535   */\n      dup1\n        /* \"#utility.yul\":11537:11543   */\n      0x00\n        /* \"#utility.yul\":11545:11551   */\n      dup1\n        /* \"#utility.yul\":11594:11597   */\n      0x80\n        /* \"#utility.yul\":11582:11591   */\n      dup6\n        /* \"#utility.yul\":11573:11580   */\n      dup8\n        /* \"#utility.yul\":11569:11592   */\n      sub\n        /* \"#utility.yul\":11565:11598   */\n      slt\n        /* \"#utility.yul\":11562:11682   */\n      iszero\n      tag_425\n      jumpi\n        /* \"#utility.yul\":11601:11680   */\n      tag_426\n      tag_233\n      jump\t// in\n    tag_426:\n        /* \"#utility.yul\":11562:11682   */\n    tag_425:\n        /* \"#utility.yul\":11721:11722   */\n      0x00\n        /* \"#utility.yul\":11746:11799   */\n      tag_427\n        /* \"#utility.yul\":11791:11798   */\n      dup8\n        /* \"#utility.yul\":11782:11788   */\n      dup3\n        /* \"#utility.yul\":11771:11780   */\n      dup9\n        /* \"#utility.yul\":11767:11789   */\n      add\n        /* \"#utility.yul\":11746:11799   */\n      tag_252\n      jump\t// in\n    tag_427:\n        /* \"#utility.yul\":11736:11799   */\n      swap5\n      pop\n        /* \"#utility.yul\":11692:11809   */\n      pop\n        /* \"#utility.yul\":11848:11850   */\n      0x20\n        /* \"#utility.yul\":11874:11927   */\n      tag_428\n        /* \"#utility.yul\":11919:11926   */\n      dup8\n        /* \"#utility.yul\":11910:11916   */\n      dup3\n        /* \"#utility.yul\":11899:11908   */\n      dup9\n        /* \"#utility.yul\":11895:11917   */\n      add\n        /* \"#utility.yul\":11874:11927   */\n      tag_252\n      jump\t// in\n    tag_428:\n        /* \"#utility.yul\":11864:11927   */\n      swap4\n      pop\n        /* \"#utility.yul\":11819:11937   */\n      pop\n        /* \"#utility.yul\":11976:11978   */\n      0x40\n        /* \"#utility.yul\":12002:12055   */\n      tag_429\n        /* \"#utility.yul\":12047:12054   */\n      dup8\n        /* \"#utility.yul\":12038:12044   */\n      dup3\n        /* \"#utility.yul\":12027:12036   */\n      dup9\n        /* \"#utility.yul\":12023:12045   */\n      add\n        /* \"#utility.yul\":12002:12055   */\n      tag_247\n      jump\t// in\n    tag_429:\n        /* \"#utility.yul\":11992:12055   */\n      swap3\n      pop\n        /* \"#utility.yul\":11947:12065   */\n      pop\n        /* \"#utility.yul\":12132:12134   */\n      0x60\n        /* \"#utility.yul\":12121:12130   */\n      dup6\n        /* \"#utility.yul\":12117:12135   */\n      add\n        /* \"#utility.yul\":12104:12136   */\n      calldataload\n        /* \"#utility.yul\":12163:12181   */\n      0xffffffffffffffff\n        /* \"#utility.yul\":12155:12161   */\n      dup2\n        /* \"#utility.yul\":12152:12182   */\n      gt\n        /* \"#utility.yul\":12149:12266   */\n      iszero\n      tag_430\n      jumpi\n        /* \"#utility.yul\":12185:12264   */\n      tag_431\n      tag_234\n      jump\t// in\n    tag_431:\n        /* \"#utility.yul\":12149:12266   */\n    tag_430:\n        /* \"#utility.yul\":12290:12352   */\n      tag_432\n        /* \"#utility.yul\":12344:12351   */\n      dup8\n        /* \"#utility.yul\":12335:12341   */\n      dup3\n        /* \"#utility.yul\":12324:12333   */\n      dup9\n        /* \"#utility.yul\":12320:12342   */\n      add\n        /* \"#utility.yul\":12290:12352   */\n      tag_267\n      jump\t// in\n    tag_432:\n        /* \"#utility.yul\":12280:12352   */\n      swap2\n      pop\n        /* \"#utility.yul\":12075:12362   */\n      pop\n        /* \"#utility.yul\":11426:12369   */\n      swap3\n      swap6\n      swap2\n      swap5\n      pop\n      swap3\n      pop\n      jump\t// out\n        /* \"#utility.yul\":12375:12849   */\n    tag_84:\n        /* \"#utility.yul\":12443:12449   */\n      0x00\n        /* \"#utility.yul\":12451:12457   */\n      dup1\n        /* \"#utility.yul\":12500:12502   */\n      0x40\n        /* \"#utility.yul\":12488:12497   */\n      dup4\n        /* \"#utility.yul\":12479:12486   */\n      dup6\n        /* \"#utility.yul\":12475:12498   */\n      sub\n        /* \"#utility.yul\":12471:12503   */\n      slt\n        /* \"#utility.yul\":12468:12587   */\n      iszero\n      tag_434\n      jumpi\n        /* \"#utility.yul\":12506:12585   */\n      tag_435\n      tag_233\n      jump\t// in\n    tag_435:\n        /* \"#utility.yul\":12468:12587   */\n    tag_434:\n        /* \"#utility.yul\":12626:12627   */\n      0x00\n        /* \"#utility.yul\":12651:12704   */\n      tag_436\n        /* \"#utility.yul\":12696:12703   */\n      dup6\n        /* \"#utility.yul\":12687:12693   */\n      dup3\n        /* \"#utility.yul\":12676:12685   */\n      dup7\n        /* \"#utility.yul\":12672:12694   */\n      add\n        /* \"#utility.yul\":12651:12704   */\n      tag_252\n      jump\t// in\n    tag_436:\n        /* \"#utility.yul\":12641:12704   */\n      swap3\n      pop\n        /* \"#utility.yul\":12597:12714   */\n      pop\n        /* \"#utility.yul\":12753:12755   */\n      0x20\n        /* \"#utility.yul\":12779:12832   */\n      tag_437\n        /* \"#utility.yul\":12824:12831   */\n      dup6\n        /* \"#utility.yul\":12815:12821   */\n      dup3\n        /* \"#utility.yul\":12804:12813   */\n      dup7\n        /* \"#utility.yul\":12800:12822   */\n      add\n        /* \"#utility.yul\":12779:12832   */\n      tag_252\n      jump\t// in\n    tag_437:\n        /* \"#utility.yul\":12769:12832   */\n      swap2\n      pop\n        /* \"#utility.yul\":12724:12842   */\n      pop\n        /* \"#utility.yul\":12375:12849   */\n      swap3\n      pop\n      swap3\n      swap1\n      pop\n      jump\t// out\n        /* \"#utility.yul\":12855:13035   */\n    tag_268:\n        /* \"#utility.yul\":12903:12980   */\n      0x4e487b7100000000000000000000000000000000000000000000000000000000\n        /* \"#utility.yul\":12900:12901   */\n      0x00\n        /* \"#utility.yul\":12893:12981   */\n      mstore\n        /* \"#utility.yul\":13000:13004   */\n      0x22\n        /* \"#utility.yul\":12997:12998   */\n      0x04\n        /* \"#utility.yul\":12990:13005   */\n      mstore\n        /* \"#utility.yul\":13024:13028   */\n      0x24\n        /* \"#utility.yul\":13021:13022   */\n      0x00\n        /* \"#utility.yul\":13014:13029   */\n      revert\n        /* \"#utility.yul\":13041:13361   */\n    tag_97:\n        /* \"#utility.yul\":13085:13091   */\n      0x00\n        /* \"#utility.yul\":13122:13123   */\n      0x02\n        /* \"#utility.yul\":13116:13120   */\n      dup3\n        /* \"#utility.yul\":13112:13124   */\n      div\n        /* \"#utility.yul\":13102:13124   */\n      swap1\n      pop\n        /* \"#utility.yul\":13169:13170   */\n      0x01\n        /* \"#utility.yul\":13163:13167   */\n      dup3\n        /* \"#utility.yul\":13159:13171   */\n      and\n        /* \"#utility.yul\":13190:13208   */\n      dup1\n        /* \"#utility.yul\":13180:13261   */\n      tag_440\n      jumpi\n        /* \"#utility.yul\":13246:13250   */\n      0x7f\n        /* \"#utility.yul\":13238:13244   */\n      dup3\n        /* \"#utility.yul\":13234:13251   */\n      and\n        /* \"#utility.yul\":13224:13251   */\n      swap2\n      pop\n        /* \"#utility.yul\":13180:13261   */\n    tag_440:\n        /* \"#utility.yul\":13308:13310   */\n      0x20\n        /* \"#utility.yul\":13300:13306   */\n      dup3\n        /* \"#utility.yul\":13297:13311   */\n      lt\n        /* \"#utility.yul\":13277:13295   */\n      dup2\n        /* \"#utility.yul\":13274:13312   */\n      sub\n        /* \"#utility.yul\":13271:13355   */\n      tag_441\n      jumpi\n        /* \"#utility.yul\":13327:13345   */\n      tag_442\n      tag_268\n      jump\t// in\n    tag_442:\n        /* \"#utility.yul\":13271:13355   */\n    tag_441:\n        /* \"#utility.yul\":13092:13361   */\n      pop\n        /* \"#utility.yul\":13041:13361   */\n      swap2\n      swap1\n      pop\n      jump\t// out\n        /* \"#utility.yul\":13367:13508   */\n    tag_269:\n        /* \"#utility.yul\":13416:13420   */\n      0x00\n        /* \"#utility.yul\":13439:13442   */\n      dup2\n        /* \"#utility.yul\":13431:13442   */\n      swap1\n      pop\n        /* \"#utility.yul\":13462:13465   */\n      dup2\n        /* \"#utility.yul\":13459:13460   */\n      0x00\n        /* \"#utility.yul\":13452:13466   */\n      mstore\n        /* \"#utility.yul\":13496:13500   */\n      0x20\n        /* \"#utility.yul\":13493:13494   */\n      0x00\n        /* \"#utility.yul\":13483:13501   */\n      keccak256\n        /* \"#utility.yul\":13475:13501   */\n      swap1\n      pop\n        /* \"#utility.yul\":13367:13508   */\n      swap2\n      swap1\n      pop\n      jump\t// out\n        /* \"#utility.yul\":13514:13607   */\n    tag_270:\n        /* \"#utility.yul\":13551:13557   */\n      0x00\n        /* \"#utility.yul\":13598:13600   */\n      0x20\n        /* \"#utility.yul\":13593:13595   */\n      0x1f\n        /* \"#utility.yul\":13586:13591   */\n      dup4\n        /* \"#utility.yul\":13582:13596   */\n      add\n        /* \"#utility.yul\":13578:13601   */\n      div\n        /* \"#utility.yul\":13568:13601   */\n      swap1\n      pop\n        /* \"#utility.yul\":13514:13607   */\n      swap2\n      swap1\n      pop\n      jump\t// out\n        /* \"#utility.yul\":13613:13720   */\n    tag_271:\n        /* \"#utility.yul\":13657:13665   */\n      0x00\n        /* \"#utility.yul\":13707:13712   */\n      dup3\n        /* \"#utility.yul\":13701:13705   */\n      dup3\n        /* \"#utility.yul\":13697:13713   */\n      shl\n        /* \"#utility.yul\":13676:13713   */\n      swap1\n      pop\n        /* \"#utility.yul\":13613:13720   */\n      swap3\n      swap2\n      pop\n      pop\n      jump\t// out\n        /* \"#utility.yul\":13726:14119   */\n    tag_272:\n        /* \"#utility.yul\":13795:13801   */\n      0x00\n        /* \"#utility.yul\":13845:13846   */\n      0x08\n        /* \"#utility.yul\":13833:13843   */\n      dup4\n        /* \"#utility.yul\":13829:13847   */\n      mul\n        /* \"#utility.yul\":13868:13965   */\n      tag_447\n        /* \"#utility.yul\":13898:13964   */\n      0xffffffffffffffffffffffffffffffffffffffffffffffffffffffffffffffff\n        /* \"#utility.yul\":13887:13896   */\n      dup3\n        /* \"#utility.yul\":13868:13965   */\n      tag_271\n      jump\t// in\n    tag_447:\n        /* \"#utility.yul\":13986:14025   */\n      tag_448\n        /* \"#utility.yul\":14016:14024   */\n      dup7\n        /* \"#utility.yul\":14005:14014   */\n      dup4\n        /* \"#utility.yul\":13986:14025   */\n      tag_271\n      jump\t// in\n    tag_448:\n        /* \"#utility.yul\":13974:14025   */\n      swap6\n      pop\n        /* \"#utility.yul\":14058:14062   */\n      dup1\n        /* \"#utility.yul\":14054:14063   */\n      not\n        /* \"#utility.yul\":14047:14052   */\n      dup5\n        /* \"#utility.yul\":14043:14064   */\n      and\n        /* \"#utility.yul\":14034:14064   */\n      swap4\n      pop\n        /* \"#utility.yul\":14107:14111   */\n      dup1\n        /* \"#utility.yul\":14097:14105   */\n      dup7\n        /* \"#utility.yul\":14093:14112   */\n      and\n        /* \"#utility.yul\":14086:14091   */\n      dup5\n        /* \"#utility.yul\":14083:14113   */\n      or\n        /* \"#utility.yul\":14073:14113   */\n      swap3\n      pop\n        /* \"#utility.yul\":13802:14119   */\n      pop\n      pop\n        /* \"#utility.yul\":13726:14119   */\n      swap4\n      swap3\n      pop\n      pop\n      pop\n      jump\t// out\n        /* \"#utility.yul\":14125:14185   */\n    tag_273:\n        /* \"#utility.yul\":14153:14156   */\n      0x00\n        /* \"#utility.yul\":14174:14179   */\n      dup2\n        /* \"#utility.yul\":14167:14179   */\n      swap1\n      pop\n        /* \"#utility.yul\":14125:14185   */\n      swap2\n      swap1\n      pop\n      jump\t// out\n        /* \"#utility.yul\":14191:14333   */\n    tag_274:\n        /* \"#utility.yul\":14241:14250   */\n      0x00\n        /* \"#utility.yul\":14274:14327   */\n      tag_451\n        /* \"#utility.yul\":14292:14326   */\n      tag_452\n        /* \"#utility.yul\":14301:14325   */\n      tag_453\n        /* \"#utility.yul\":14319:14324   */\n      dup5\n        /* \"#utility.yul\":14301:14325   */\n      tag_245\n      jump\t// in\n    tag_453:\n        /* \"#utility.yul\":14292:14326   */\n      tag_273\n      jump\t// in\n    tag_452:\n        /* \"#utility.yul\":14274:14327   */\n      tag_245\n      jump\t// in\n    tag_451:\n        /* \"#utility.yul\":14261:14327   */\n      swap1\n      pop\n        /* \"#utility.yul\":14191:14333   */\n      swap2\n      swap1\n      pop\n      jump\t// out\n        /* \"#utility.yul\":14339:14414   */\n    tag_275:\n        /* \"#utility.yul\":14382:14385   */\n      0x00\n        /* \"#utility.yul\":14403:14408   */\n      dup2\n        /* \"#utility.yul\":14396:14408   */\n      swap1\n      pop\n        /* \"#utility.yul\":14339:14414   */\n      swap2\n      swap1\n      pop\n      jump\t// out\n        /* \"#utility.yul\":14420:14689   */\n    tag_276:\n        /* \"#utility.yul\":14530:14569   */\n      tag_456\n        /* \"#utility.yul\":14561:14568   */\n      dup4\n        /* \"#utility.yul\":14530:14569   */\n      tag_274\n      jump\t// in\n    tag_456:\n        /* \"#utility.yul\":14591:14682   */\n      tag_457\n        /* \"#utility.yul\":14640:14681   */\n      tag_458\n        /* \"#utility.yul\":14664:14680   */\n      dup3\n        /* \"#utility.yul\":14640:14681   */\n      tag_275\n      jump\t// in\n    tag_458:\n        /* \"#utility.yul\":14632:14638   */\n      dup5\n        /* \"#utility.yul\":14625:14629   */\n      dup5\n        /* \"#utility.yul\":14619:14630   */\n      sload\n        /* \"#utility.yul\":14591:14682   */\n      tag_272\n      jump\t// in\n    tag_457:\n        /* \"#utility.yul\":14585:14589   */\n      dup3\n        /* \"#utility.yul\":14578:14683   */\n      sstore\n        /* \"#utility.yul\":14496:14689   */\n      pop\n        /* \"#utility.yul\":14420:14689   */\n      pop\n      pop\n      pop\n      jump\t// out\n        /* \"#utility.yul\":14695:14768   */\n    tag_277:\n        /* \"#utility.yul\":14740:14743   */\n      0x00\n        /* \"#utility.yul\":14695:14768   */\n      swap1\n      jump\t// out\n        /* \"#utility.yul\":14774:14963   */\n    tag_278:\n        /* \"#utility.yul\":14851:14883   */\n      tag_461\n      tag_277\n      jump\t// in\n    tag_461:\n        /* \"#utility.yul\":14892:14957   */\n      tag_462\n        /* \"#utility.yul\":14950:14956   */\n      dup2\n        /* \"#utility.yul\":14942:14948   */\n      dup5\n        /* \"#utility.yul\":14936:14940   */\n      dup5\n        /* \"#utility.yul\":14892:14957   */\n      tag_276\n      jump\t// in\n    tag_462:\n        /* \"#utility.yul\":14827:14963   */\n      pop\n        /* \"#utility.yul\":14774:14963   */\n      pop\n      pop\n      jump\t// out\n        /* \"#utility.yul\":14969:15155   */\n    tag_279:\n        /* \"#utility.yul\":15029:15149   */\n    tag_464:\n        /* \"#utility.yul\":15046:15049   */\n      dup2\n        /* \"#utility.yul\":15039:15044   */\n      dup2\n        /* \"#utility.yul\":15036:15050   */\n      lt\n        /* \"#utility.yul\":15029:15149   */\n      iszero\n      tag_466\n      jumpi\n        /* \"#utility.yul\":15100:15139   */\n      tag_467\n        /* \"#utility.yul\":15137:15138   */\n      0x00\n        /* \"#utility.yul\":15130:15135   */\n      dup3\n        /* \"#utility.yul\":15100:15139   */\n      tag_278\n      jump\t// in\n    tag_467:\n        /* \"#utility.yul\":15073:15074   */\n      0x01\n        /* \"#utility.yul\":15066:15071   */\n      dup2\n        /* \"#utility.yul\":15062:15075   */\n      add\n        /* \"#utility.yul\":15053:15075   */\n      swap1\n      pop\n        /* \"#utility.yul\":15029:15149   */\n      jump(tag_464)\n    tag_466:\n        /* \"#utility.yul\":14969:15155   */\n      pop\n      pop\n      jump\t// out\n        /* \"#utility.yul\":15161:15704   */\n    tag_280:\n        /* \"#utility.yul\":15262:15264   */\n      0x1f\n        /* \"#utility.yul\":15257:15260   */\n      dup3\n        /* \"#utility.yul\":15254:15265   */\n      gt\n        /* \"#utility.yul\":15251:15697   */\n      iszero\n      tag_469\n      jumpi\n        /* \"#utility.yul\":15296:15334   */\n      tag_470\n        /* \"#utility.yul\":15328:15333   */\n      dup2\n        /* \"#utility.yul\":15296:15334   */\n      tag_269\n      jump\t// in\n    tag_470:\n        /* \"#utility.yul\":15380:15409   */\n      tag_471\n        /* \"#utility.yul\":15398:15408   */\n      dup5\n        /* \"#utility.yul\":15380:15409   */\n      tag_270\n      jump\t// in\n    tag_471:\n        /* \"#utility.yul\":15370:15378   */\n      dup2\n        /* \"#utility.yul\":15366:15410   */\n      add\n        /* \"#utility.yul\":15563:15565   */\n      0x20\n        /* \"#utility.yul\":15551:15561   */\n      dup6\n        /* \"#utility.yul\":15548:15566   */\n      lt\n        /* \"#utility.yul\":15545:15594   */\n      iszero\n      tag_472\n      jumpi\n        /* \"#utility.yul\":15584:15592   */\n      dup2\n        /* \"#utility.yul\":15569:15592   */\n      swap1\n      pop\n        /* \"#utility.yul\":15545:15594   */\n    tag_472:\n        /* \"#utility.yul\":15607:15687   */\n      tag_473\n        /* \"#utility.yul\":15663:15685   */\n      tag_474\n        /* \"#utility.yul\":15681:15684   */\n      dup6\n        /* \"#utility.yul\":15663:15685   */\n      tag_270\n      jump\t// in\n    tag_474:\n        /* \"#utility.yul\":15653:15661   */\n      dup4\n        /* \"#utility.yul\":15649:15686   */\n      add\n        /* \"#utility.yul\":15636:15647   */\n      dup3\n        /* \"#utility.yul\":15607:15687   */\n      tag_279\n      jump\t// in\n    tag_473:\n        /* \"#utility.yul\":15266:15697   */\n      pop\n      pop\n        /* \"#utility.yul\":15251:15697   */\n    tag_469:\n        /* \"#utility.yul\":15161:15704   */\n      pop\n      pop\n      pop\n      jump\t// out\n        /* \"#utility.yul\":15710:15827   */\n    tag_281:\n        /* \"#utility.yul\":15764:15772   */\n      0x00\n        /* \"#utility.yul\":15814:15819   */\n      dup3\n        /* \"#utility.yul\":15808:15812   */\n      dup3\n        /* \"#utility.yul\":15804:15820   */\n      shr\n        /* \"#utility.yul\":15783:15820   */\n      swap1\n      pop\n        /* \"#utility.yul\":15710:15827   */\n      swap3\n      swap2\n      pop\n      pop\n      jump\t// out\n        /* \"#utility.yul\":15833:16002   */\n    tag_282:\n        /* \"#utility.yul\":15877:15883   */\n      0x00\n        /* \"#utility.yul\":15910:15961   */\n      tag_477\n        /* \"#utility.yul\":15958:15959   */\n      0x00\n        /* \"#utility.yul\":15954:15960   */\n      not\n        /* \"#utility.yul\":15946:15951   */\n      dup5\n        /* \"#utility.yul\":15943:15944   */\n      0x08\n        /* \"#utility.yul\":15939:15952   */\n      mul\n        /* \"#utility.yul\":15910:15961   */\n      tag_281\n      jump\t// in\n    tag_477:\n        /* \"#utility.yul\":15906:15962   */\n      not\n        /* \"#utility.yul\":15991:15995   */\n      dup1\n        /* \"#utility.yul\":15985:15989   */\n      dup4\n        /* \"#utility.yul\":15981:15996   */\n      and\n        /* \"#utility.yul\":15971:15996   */\n      swap2\n      pop\n        /* \"#utility.yul\":15884:16002   */\n      pop\n        /* \"#utility.yul\":15833:16002   */\n      swap3\n      swap2\n      pop\n      pop\n      jump\t// out\n        /* \"#utility.yul\":16007:16302   */\n    tag_283:\n        /* \"#utility.yul\":16083:16087   */\n      0x00\n        /* \"#utility.yul\":16229:16258   */\n      tag_479\n        /* \"#utility.yul\":16254:16257   */\n      dup4\n        /* \"#utility.yul\":16248:16252   */\n      dup4\n        /* \"#utility.yul\":16229:16258   */\n      tag_282\n      jump\t// in\n    tag_479:\n        /* \"#utility.yul\":16221:16258   */\n      swap2\n      pop\n        /* \"#utility.yul\":16291:16294   */\n      dup3\n        /* \"#utility.yul\":16288:16289   */\n      0x02\n        /* \"#utility.yul\":16284:16295   */\n      mul\n        /* \"#utility.yul\":16278:16282   */\n      dup3\n        /* \"#utility.yul\":16275:16296   */\n      or\n        /* \"#utility.yul\":16267:16296   */\n      swap1\n      pop\n        /* \"#utility.yul\":16007:16302   */\n      swap3\n      swap2\n      pop\n      pop\n      jump\t// out\n        /* \"#utility.yul\":16307:17702   */\n    tag_114:\n        /* \"#utility.yul\":16424:16461   */\n      tag_481\n        /* \"#utility.yul\":16457:16460   */\n      dup3\n        /* \"#utility.yul\":16424:16461   */\n      tag_240\n      jump\t// in\n    tag_481:\n        /* \"#utility.yul\":16526:16544   */\n      0xffffffffffffffff\n        /* \"#utility.yul\":16518:16524   */\n      dup2\n        /* \"#utility.yul\":16515:16545   */\n      gt\n        /* \"#utility.yul\":16512:16568   */\n      iszero\n      tag_482\n      jumpi\n        /* \"#utility.yul\":16548:16566   */\n      tag_483\n      tag_255\n      jump\t// in\n    tag_483:\n        /* \"#utility.yul\":16512:16568   */\n    tag_482:\n        /* \"#utility.yul\":16592:16630   */\n      tag_484\n        /* \"#utility.yul\":16624:16628   */\n      dup3\n        /* \"#utility.yul\":16618:16629   */\n      sload\n        /* \"#utility.yul\":16592:16630   */\n      tag_97\n      jump\t// in\n    tag_484:\n        /* \"#utility.yul\":16677:16744   */\n      tag_485\n        /* \"#utility.yul\":16737:16743   */\n      dup3\n        /* \"#utility.yul\":16729:16735   */\n      dup3\n        /* \"#utility.yul\":16723:16727   */\n      dup6\n        /* \"#utility.yul\":16677:16744   */\n      tag_280\n      jump\t// in\n    tag_485:\n        /* \"#utility.yul\":16771:16772   */\n      0x00\n        /* \"#utility.yul\":16795:16799   */\n      0x20\n        /* \"#utility.yul\":16782:16799   */\n      swap1\n      pop\n        /* \"#utility.yul\":16827:16829   */\n      0x1f\n        /* \"#utility.yul\":16819:16825   */\n      dup4\n        /* \"#utility.yul\":16816:16830   */\n      gt\n        /* \"#utility.yul\":16844:16845   */\n      0x01\n        /* \"#utility.yul\":16839:17457   */\n      dup2\n      eq\n      tag_487\n      jumpi\n        /* \"#utility.yul\":17501:17502   */\n      0x00\n        /* \"#utility.yul\":17518:17524   */\n      dup5\n        /* \"#utility.yul\":17515:17592   */\n      iszero\n      tag_488\n      jumpi\n        /* \"#utility.yul\":17567:17576   */\n      dup3\n        /* \"#utility.yul\":17562:17565   */\n      dup8\n        /* \"#utility.yul\":17558:17577   */\n      add\n        /* \"#utility.yul\":17552:17578   */\n      mload\n        /* \"#utility.yul\":17543:17578   */\n      swap1\n      pop\n        /* \"#utility.yul\":17515:17592   */\n    tag_488:\n        /* \"#utility.yul\":17618:17685   */\n      tag_489\n        /* \"#utility.yul\":17678:17684   */\n      dup6\n        /* \"#utility.yul\":17671:17676   */\n      dup3\n        /* \"#utility.yul\":17618:17685   */\n      tag_283\n      jump\t// in\n    tag_489:\n        /* \"#utility.yul\":17612:17616   */\n      dup7\n        /* \"#utility.yul\":17605:17686   */\n      sstore\n        /* \"#utility.yul\":17474:17696   */\n      pop\n        /* \"#utility.yul\":16809:17696   */\n      jump(tag_486)\n        /* \"#utility.yul\":16839:17457   */\n    tag_487:\n        /* \"#utility.yul\":16891:16895   */\n      0x1f\n        /* \"#utility.yul\":16887:16896   */\n      not\n        /* \"#utility.yul\":16879:16885   */\n      dup5\n        /* \"#utility.yul\":16875:16897   */\n      and\n        /* \"#utility.yul\":16925:16962   */\n      tag_490\n        /* \"#utility.yul\":16957:16961   */\n      dup7\n        /* \"#utility.yul\":16925:16962   */\n      tag_269\n      jump\t// in\n    tag_490:\n        /* \"#utility.yul\":16984:16985   */\n      0x00\n        /* \"#utility.yul\":16998:17206   */\n    tag_491:\n        /* \"#utility.yul\":17012:17019   */\n      dup3\n        /* \"#utility.yul\":17009:17010   */\n      dup2\n        /* \"#utility.yul\":17006:17020   */\n      lt\n        /* \"#utility.yul\":16998:17206   */\n      iszero\n      tag_493\n      jumpi\n        /* \"#utility.yul\":17091:17100   */\n      dup5\n        /* \"#utility.yul\":17086:17089   */\n      dup10\n        /* \"#utility.yul\":17082:17101   */\n      add\n        /* \"#utility.yul\":17076:17102   */\n      mload\n        /* \"#utility.yul\":17068:17074   */\n      dup3\n        /* \"#utility.yul\":17061:17103   */\n      sstore\n        /* \"#utility.yul\":17142:17143   */\n      0x01\n        /* \"#utility.yul\":17134:17140   */\n      dup3\n        /* \"#utility.yul\":17130:17144   */\n      add\n        /* \"#utility.yul\":17120:17144   */\n      swap2\n      pop\n        /* \"#utility.yul\":17189:17191   */\n      0x20\n        /* \"#utility.yul\":17178:17187   */\n      dup6\n        /* \"#utility.yul\":17174:17192   */\n      add\n        /* \"#utility.yul\":17161:17192   */\n      swap5\n      pop\n        /* \"#utility.yul\":17035:17039   */\n      0x20\n        /* \"#utility.yul\":17032:17033   */\n      dup2\n        /* \"#utility.yul\":17028:17040   */\n      add\n        /* \"#utility.yul\":17023:17040   */\n      swap1\n      pop\n        /* \"#utility.yul\":16998:17206   */\n      jump(tag_491)\n    tag_493:\n        /* \"#utility.yul\":17234:17240   */\n      dup7\n        /* \"#utility.yul\":17225:17232   */\n      dup4\n        /* \"#utility.yul\":17222:17241   */\n      lt\n        /* \"#utility.yul\":17219:17398   */\n      iszero\n      tag_494\n      jumpi\n        /* \"#utility.yul\":17292:17301   */\n      dup5\n        /* \"#utility.yul\":17287:17290   */\n      dup10\n        /* \"#utility.yul\":17283:17302   */\n      add\n        /* \"#utility.yul\":17277:17303   */\n      mload\n        /* \"#utility.yul\":17335:17383   */\n      tag_495\n        /* \"#utility.yul\":17377:17381   */\n      0x1f\n        /* \"#utility.yul\":17369:17375   */\n      dup10\n        /* \"#utility.yul\":17365:17382   */\n      and\n        /* \"#utility.yul\":17354:17363   */\n      dup3\n        /* \"#utility.yul\":17335:17383   */\n      tag_282\n      jump\t// in\n    tag_495:\n        /* \"#utility.yul\":17327:17333   */\n      dup4\n        /* \"#utility.yul\":17320:17384   */\n      sstore\n        /* \"#utility.yul\":17242:17398   */\n      pop\n        /* \"#utility.yul\":17219:17398   */\n    tag_494:\n        /* \"#utility.yul\":17444:17445   */\n      0x01\n        /* \"#utility.yul\":17440:17441   */\n      0x02\n        /* \"#utility.yul\":17432:17438   */\n      dup9\n        /* \"#utility.yul\":17428:17442   */\n      mul\n        /* \"#utility.yul\":17424:17446   */\n      add\n        /* \"#utility.yul\":17418:17422   */\n      dup9\n        /* \"#utility.yul\":17411:17447   */\n      sstore\n        /* \"#utility.yul\":16846:17457   */\n      pop\n      pop\n      pop\n        /* \"#utility.yul\":16809:17696   */\n    tag_486:\n      pop\n        /* \"#utility.yul\":16399:17702   */\n      pop\n      pop\n      pop\n        /* \"#utility.yul\":16307:17702   */\n      pop\n      pop\n      jump\t// out\n        /* \"#utility.yul\":17708:18150   */\n    tag_123:\n        /* \"#utility.yul\":17857:17861   */\n      0x00\n        /* \"#utility.yul\":17895:17897   */\n      0x60\n        /* \"#utility.yul\":17884:17893   */\n      dup3\n        /* \"#utility.yul\":17880:17898   */\n      add\n        /* \"#utility.yul\":17872:17898   */\n      swap1\n      pop\n        /* \"#utility.yul\":17908:17979   */\n      tag_497\n        /* \"#utility.yul\":17976:17977   */\n      0x00\n        /* \"#utility.yul\":17965:17974   */\n      dup4\n        /* \"#utility.yul\":17961:17978   */\n      add\n        /* \"#utility.yul\":17952:17958   */\n      dup7\n        /* \"#utility.yul\":17908:17979   */\n      tag_250\n      jump\t// in\n    tag_497:\n        /* \"#utility.yul\":17989:18061   */\n      tag_498\n        /* \"#utility.yul\":18057:18059   */\n      0x20\n        /* \"#utility.yul\":18046:18055   */\n      dup4\n        /* \"#utility.yul\":18042:18060   */\n      add\n        /* \"#utility.yul\":18033:18039   */\n      dup6\n        /* \"#utility.yul\":17989:18061   */\n      tag_264\n      jump\t// in\n    tag_498:\n        /* \"#utility.yul\":18071:18143   */\n      tag_499\n        /* \"#utility.yul\":18139:18141   */\n      0x40\n        /* \"#utility.yul\":18128:18137   */\n      dup4\n        /* \"#utility.yul\":18124:18142   */\n      add\n        /* \"#utility.yul\":18115:18121   */\n      dup5\n        /* \"#utility.yul\":18071:18143   */\n      tag_250\n      jump\t// in\n    tag_499:\n        /* \"#utility.yul\":17708:18150   */\n      swap5\n      swap4\n      pop\n      pop\n      pop\n      pop\n      jump\t// out\n        /* \"#utility.yul\":18156:18254   */\n    tag_284:\n        /* \"#utility.yul\":18207:18213   */\n      0x00\n        /* \"#utility.yul\":18241:18246   */\n      dup2\n        /* \"#utility.yul\":18235:18247   */\n      mload\n        /* \"#utility.yul\":18225:18247   */\n      swap1\n      pop\n        /* \"#utility.yul\":18156:18254   */\n      swap2\n      swap1\n      pop\n      jump\t// out\n        /* \"#utility.yul\":18260:18428   */\n    tag_285:\n        /* \"#utility.yul\":18343:18354   */\n      0x00\n        /* \"#utility.yul\":18377:18383   */\n      dup3\n        /* \"#utility.yul\":18372:18375   */\n      dup3\n        /* \"#utility.yul\":18365:18384   */\n      mstore\n        /* \"#utility.yul\":18417:18421   */\n      0x20\n        /* \"#utility.yul\":18412:18415   */\n      dup3\n        /* \"#utility.yul\":18408:18422   */\n      add\n        /* \"#utility.yul\":18393:18422   */\n      swap1\n      pop\n        /* \"#utility.yul\":18260:18428   */\n      swap3\n      swap2\n      pop\n      pop\n      jump\t// out\n        /* \"#utility.yul\":18434:18807   */\n    tag_286:\n        /* \"#utility.yul\":18520:18523   */\n      0x00\n        /* \"#utility.yul\":18548:18586   */\n      tag_503\n        /* \"#utility.yul\":18580:18585   */\n      dup3\n        /* \"#utility.yul\":18548:18586   */\n      tag_284\n      jump\t// in\n    tag_503:\n        /* \"#utility.yul\":18602:18672   */\n      tag_504\n        /* \"#utility.yul\":18665:18671   */\n      dup2\n        /* \"#utility.yul\":18660:18663   */\n      dup6\n        /* \"#utility.yul\":18602:18672   */\n      tag_285\n      jump\t// in\n    tag_504:\n        /* \"#utility.yul\":18595:18672   */\n      swap4\n      pop\n        /* \"#utility.yul\":18681:18746   */\n      tag_505\n        /* \"#utility.yul\":18739:18745   */\n      dup2\n        /* \"#utility.yul\":18734:18737   */\n      dup6\n        /* \"#utility.yul\":18727:18731   */\n      0x20\n        /* \"#utility.yul\":18720:18725   */\n      dup7\n        /* \"#utility.yul\":18716:18732   */\n      add\n        /* \"#utility.yul\":18681:18746   */\n      tag_242\n      jump\t// in\n    tag_505:\n        /* \"#utility.yul\":18771:18800   */\n      tag_506\n        /* \"#utility.yul\":18793:18799   */\n      dup2\n        /* \"#utility.yul\":18771:18800   */\n      tag_243\n      jump\t// in\n    tag_506:\n        /* \"#utility.yul\":18766:18769   */\n      dup5\n        /* \"#utility.yul\":18762:18801   */\n      add\n        /* \"#utility.yul\":18755:18801   */\n      swap2\n      pop\n        /* \"#utility.yul\":18524:18807   */\n      pop\n        /* \"#utility.yul\":18434:18807   */\n      swap3\n      swap2\n      pop\n      pop\n      jump\t// out\n        /* \"#utility.yul\":18813:19453   */\n    tag_184:\n        /* \"#utility.yul\":19008:19012   */\n      0x00\n        /* \"#utility.yul\":19046:19049   */\n      0x80\n        /* \"#utility.yul\":19035:19044   */\n      dup3\n        /* \"#utility.yul\":19031:19050   */\n      add\n        /* \"#utility.yul\":19023:19050   */\n      swap1\n      pop\n        /* \"#utility.yul\":19060:19131   */\n      tag_508\n        /* \"#utility.yul\":19128:19129   */\n      0x00\n        /* \"#utility.yul\":19117:19126   */\n      dup4\n        /* \"#utility.yul\":19113:19130   */\n      add\n        /* \"#utility.yul\":19104:19110   */\n      dup8\n        /* \"#utility.yul\":19060:19131   */\n      tag_250\n      jump\t// in\n    tag_508:\n        /* \"#utility.yul\":19141:19213   */\n      tag_509\n        /* \"#utility.yul\":19209:19211   */\n      0x20\n        /* \"#utility.yul\":19198:19207   */\n      dup4\n        /* \"#utility.yul\":19194:19212   */\n      add\n        /* \"#utility.yul\":19185:19191   */\n      dup7\n        /* \"#utility.yul\":19141:19213   */\n      tag_250\n      jump\t// in\n    tag_509:\n        /* \"#utility.yul\":19223:19295   */\n      tag_510\n        /* \"#utility.yul\":19291:19293   */\n      0x40\n        /* \"#utility.yul\":19280:19289   */\n      dup4\n        /* \"#utility.yul\":19276:19294   */\n      add\n        /* \"#utility.yul\":19267:19273   */\n      dup6\n        /* \"#utility.yul\":19223:19295   */\n      tag_264\n      jump\t// in\n    tag_510:\n        /* \"#utility.yul\":19342:19351   */\n      dup2\n        /* \"#utility.yul\":19336:19340   */\n      dup2\n        /* \"#utility.yul\":19332:19352   */\n      sub\n        /* \"#utility.yul\":19327:19329   */\n      0x60\n        /* \"#utility.yul\":19316:19325   */\n      dup4\n        /* \"#utility.yul\":19312:19330   */\n      add\n        /* \"#utility.yul\":19305:19353   */\n      mstore\n        /* \"#utility.yul\":19370:19446   */\n      tag_511\n        /* \"#utility.yul\":19441:19445   */\n      dup2\n        /* \"#utility.yul\":19432:19438   */\n      dup5\n        /* \"#utility.yul\":19370:19446   */\n      tag_286\n      jump\t// in\n    tag_511:\n        /* \"#utility.yul\":19362:19446   */\n      swap1\n      pop\n        /* \"#utility.yul\":18813:19453   */\n      swap6\n      swap5\n      pop\n      pop\n      pop\n      pop\n      pop\n      jump\t// out\n        /* \"#utility.yul\":19459:19600   */\n    tag_287:\n        /* \"#utility.yul\":19515:19520   */\n      0x00\n        /* \"#utility.yul\":19546:19552   */\n      dup2\n        /* \"#utility.yul\":19540:19553   */\n      mload\n        /* \"#utility.yul\":19531:19553   */\n      swap1\n      pop\n        /* \"#utility.yul\":19562:19594   */\n      tag_513\n        /* \"#utility.yul\":19588:19593   */\n      dup2\n        /* \"#utility.yul\":19562:19594   */\n      tag_236\n      jump\t// in\n    tag_513:\n        /* \"#utility.yul\":19459:19600   */\n      swap3\n      swap2\n      pop\n      pop\n      jump\t// out\n        /* \"#utility.yul\":19606:19955   */\n    tag_187:\n        /* \"#utility.yul\":19675:19681   */\n      0x00\n        /* \"#utility.yul\":19724:19726   */\n      0x20\n        /* \"#utility.yul\":19712:19721   */\n      dup3\n        /* \"#utility.yul\":19703:19710   */\n      dup5\n        /* \"#utility.yul\":19699:19722   */\n      sub\n        /* \"#utility.yul\":19695:19727   */\n      slt\n        /* \"#utility.yul\":19692:19811   */\n      iszero\n      tag_515\n      jumpi\n        /* \"#utility.yul\":19730:19809   */\n      tag_516\n      tag_233\n      jump\t// in\n    tag_516:\n        /* \"#utility.yul\":19692:19811   */\n    tag_515:\n        /* \"#utility.yul\":19850:19851   */\n      0x00\n        /* \"#utility.yul\":19875:19938   */\n      tag_517\n        /* \"#utility.yul\":19930:19937   */\n      dup5\n        /* \"#utility.yul\":19921:19927   */\n      dup3\n        /* \"#utility.yul\":19910:19919   */\n      dup6\n        /* \"#utility.yul\":19906:19928   */\n      add\n        /* \"#utility.yul\":19875:19938   */\n      tag_287\n      jump\t// in\n    tag_517:\n        /* \"#utility.yul\":19865:19938   */\n      swap2\n      pop\n        /* \"#utility.yul\":19821:19948   */\n      pop\n        /* \"#utility.yul\":19606:19955   */\n      swap3\n      swap2\n      pop\n      pop\n      jump\t// out\n        /* \"#utility.yul\":19961:20293   */\n    tag_225:\n        /* \"#utility.yul\":20082:20086   */\n      0x00\n        /* \"#utility.yul\":20120:20122   */\n      0x40\n        /* \"#utility.yul\":20109:20118   */\n      dup3\n        /* \"#utility.yul\":20105:20123   */\n      add\n        /* \"#utility.yul\":20097:20123   */\n      swap1\n      pop\n        /* \"#utility.yul\":20133:20204   */\n      tag_519\n        /* \"#utility.yul\":20201:20202   */\n      0x00\n        /* \"#utility.yul\":20190:20199   */\n      dup4\n        /* \"#utility.yul\":20186:20203   */\n      add\n        /* \"#utility.yul\":20177:20183   */\n      dup6\n        /* \"#utility.yul\":20133:20204   */\n      tag_250\n      jump\t// in\n    tag_519:\n        /* \"#utility.yul\":20214:20286   */\n      tag_520\n        /* \"#utility.yul\":20282:20284   */\n      0x20\n        /* \"#utility.yul\":20271:20280   */\n      dup4\n        /* \"#utility.yul\":20267:20285   */\n      add\n        /* \"#utility.yul\":20258:20264   */\n      dup5\n        /* \"#utility.yul\":20214:20286   */\n      tag_264\n      jump\t// in\n    tag_520:\n        /* \"#utility.yul\":19961:20293   */\n      swap4\n      swap3\n      pop\n      pop\n      pop\n      jump\t// out\n\n    auxdata: 0xa2646970667358221220de6b8e5e212c4d4fd8da0b2d1831f706ef4bc888c43520d908a891618ffb32ec64736f6c63430008140033\n}\n",
				"bytecode": {
					"linkReferences": {},
					"object": "608060405234801562000010575f80fd5b5060405162002460380380620024608339818101604052810190620000369190620001ea565b8181815f9081620000489190620004a4565b5080600190816200005a9190620004a4565b505050505062000588565b5f604051905090565b5f80fd5b5f80fd5b5f80fd5b5f80fd5b5f601f19601f8301169050919050565b7f4e487b71000000000000000000000000000000000000000000000000000000005f52604160045260245ffd5b620000c6826200007e565b810181811067ffffffffffffffff82111715620000e857620000e76200008e565b5b80604052505050565b5f620000fc62000065565b90506200010a8282620000bb565b919050565b5f67ffffffffffffffff8211156200012c576200012b6200008e565b5b62000137826200007e565b9050602081019050919050565b5f5b838110156200016357808201518184015260208101905062000146565b5f8484015250505050565b5f620001846200017e846200010f565b620000f1565b905082815260208101848484011115620001a357620001a26200007a565b5b620001b084828562000144565b509392505050565b5f82601f830112620001cf57620001ce62000076565b5b8151620001e18482602086016200016e565b91505092915050565b5f80604083850312156200020357620002026200006e565b5b5f83015167ffffffffffffffff81111562000223576200022262000072565b5b6200023185828601620001b8565b925050602083015167ffffffffffffffff81111562000255576200025462000072565b5b6200026385828601620001b8565b9150509250929050565b5f81519050919050565b7f4e487b71000000000000000000000000000000000000000000000000000000005f52602260045260245ffd5b5f6002820490506001821680620002bc57607f821691505b602082108103620002d257620002d162000277565b5b50919050565b5f819050815f5260205f209050919050565b5f6020601f8301049050919050565b5f82821b905092915050565b5f60088302620003367fffffffffffffffffffffffffffffffffffffffffffffffffffffffffffffffff82620002f9565b620003428683620002f9565b95508019841693508086168417925050509392505050565b5f819050919050565b5f819050919050565b5f6200038c6200038662000380846200035a565b62000363565b6200035a565b9050919050565b5f819050919050565b620003a7836200036c565b620003bf620003b68262000393565b84845462000305565b825550505050565b5f90565b620003d5620003c7565b620003e28184846200039c565b505050565b5b818110156200040957620003fd5f82620003cb565b600181019050620003e8565b5050565b601f82111562000458576200042281620002d8565b6200042d84620002ea565b810160208510156200043d578190505b620004556200044c85620002ea565b830182620003e7565b50505b505050565b5f82821c905092915050565b5f6200047a5f19846008026200045d565b1980831691505092915050565b5f62000494838362000469565b9150826002028217905092915050565b620004af826200026d565b67ffffffffffffffff811115620004cb57620004ca6200008e565b5b620004d78254620002a4565b620004e48282856200040d565b5f60209050601f8311600181146200051a575f841562000505578287015190505b62000511858262000487565b86555062000580565b601f1984166200052a86620002d8565b5f5b8281101562000553578489015182556001820191506020850194506020810190506200052c565b868310156200057357848901516200056f601f89168262000469565b8355505b6001600288020188555050505b505050505050565b611eca80620005965f395ff3fe608060405234801561000f575f80fd5b50600436106100fe575f3560e01c80636352211e11610095578063b88d4fde11610064578063b88d4fde146102a6578063c87b56dd146102c2578063e985e9c5146102f2578063f2cee92b14610322576100fe565b80636352211e1461020c57806370a082311461023c57806395d89b411461026c578063a22cb4651461028a576100fe565b8063162094c4116100d1578063162094c41461019c57806323b872dd146101b857806329d6724e146101d457806342842e0e146101f0576100fe565b806301ffc9a71461010257806306fdde0314610132578063081812fc14610150578063095ea7b314610180575b5f80fd5b61011c60048036038101906101179190611431565b61033e565b6040516101299190611476565b60405180910390f35b61013a61041f565b6040516101479190611519565b60405180910390f35b61016a6004803603810190610165919061156c565b6104ae565b60405161017791906115d6565b60405180910390f35b61019a60048036038101906101959190611619565b6104c9565b005b6101b660048036038101906101b19190611783565b6104df565b005b6101d260048036038101906101cd91906117dd565b610502565b005b6101ee60048036038101906101e99190611857565b610601565b005b61020a600480360381019061020591906117dd565b610611565b005b6102266004803603810190610221919061156c565b610630565b60405161023391906115d6565b60405180910390f35b610256600480360381019061025191906118a7565b610641565b60405161026391906118e1565b60405180910390f35b6102746106f7565b6040516102819190611519565b60405180910390f35b6102a4600480360381019061029f91906118fa565b610787565b005b6102c060048036038101906102bb91906119d6565b61079d565b005b6102dc60048036038101906102d7919061156c565b6107ba565b6040516102e99190611519565b60405180910390f35b61030c60048036038101906103079190611a56565b61085b565b6040516103199190611476565b60405180910390f35b61033c6004803603810190610337919061156c565b6108e9565b005b5f7f80ac58cd000000000000000000000000000000000000000000000000000000007bffffffffffffffffffffffffffffffffffffffffffffffffffffffff1916827bffffffffffffffffffffffffffffffffffffffffffffffffffffffff1916148061040857507f5b5e139f000000000000000000000000000000000000000000000000000000007bffffffffffffffffffffffffffffffffffffffffffffffffffffffff1916827bffffffffffffffffffffffffffffffffffffffffffffffffffffffff1916145b806104185750610417826108f6565b5b9050919050565b60605f805461042d90611ac1565b80601f016020809104026020016040519081016040528092919081815260200182805461045990611ac1565b80156104a45780601f1061047b576101008083540402835291602001916104a4565b820191905f5260205f20905b81548152906001019060200180831161048757829003601f168201915b5050505050905090565b5f6104b88261095f565b506104c2826109e5565b9050919050565b6104db82826104d6610a1e565b610a25565b5050565b8060065f8481526020019081526020015f2090816104fd9190611c8e565b505050565b5f73ffffffffffffffffffffffffffffffffffffffff168273ffffffffffffffffffffffffffffffffffffffff1603610572575f6040517f64a0ae9200000000000000000000000000000000000000000000000000000000815260040161056991906115d6565b60405180910390fd5b5f6105858383610580610a1e565b610a37565b90508373ffffffffffffffffffffffffffffffffffffffff168173ffffffffffffffffffffffffffffffffffffffff16146105fb578382826040517f64283d7b0000000000000000000000000000000000000000000000000000000081526004016105f293929190611d5d565b60405180910390fd5b50505050565b61060c838383610c42565b505050565b61062b83838360405180602001604052805f81525061079d565b505050565b5f61063a8261095f565b9050919050565b5f8073ffffffffffffffffffffffffffffffffffffffff168273ffffffffffffffffffffffffffffffffffffffff16036106b2575f6040517f89c62b640000000000000000000000000000000000000000000000000000000081526004016106a991906115d6565b60405180910390fd5b60035f8373ffffffffffffffffffffffffffffffffffffffff1673ffffffffffffffffffffffffffffffffffffffff1681526020019081526020015f20549050919050565b60606001805461070690611ac1565b80601f016020809104026020016040519081016040528092919081815260200182805461073290611ac1565b801561077d5780601f106107545761010080835404028352916020019161077d565b820191905f5260205f20905b81548152906001019060200180831161076057829003601f168201915b5050505050905090565b610799610792610a1e565b8383610c42565b5050565b6107a8848484610502565b6107b484848484610dab565b50505050565b606060065f8381526020019081526020015f2080546107d890611ac1565b80601f016020809104026020016040519081016040528092919081815260200182805461080490611ac1565b801561084f5780601f106108265761010080835404028352916020019161084f565b820191905f5260205f20905b81548152906001019060200180831161083257829003601f168201915b50505050509050919050565b5f60055f8473ffffffffffffffffffffffffffffffffffffffff1673ffffffffffffffffffffffffffffffffffffffff1681526020019081526020015f205f8373ffffffffffffffffffffffffffffffffffffffff1673ffffffffffffffffffffffffffffffffffffffff1681526020019081526020015f205f9054906101000a900460ff16905092915050565b6108f33382610f5d565b50565b5f7f01ffc9a7000000000000000000000000000000000000000000000000000000007bffffffffffffffffffffffffffffffffffffffffffffffffffffffff1916827bffffffffffffffffffffffffffffffffffffffffffffffffffffffff1916149050919050565b5f8061096a83611050565b90505f73ffffffffffffffffffffffffffffffffffffffff168173ffffffffffffffffffffffffffffffffffffffff16036109dc57826040517f7e2732890000000000000000000000000000000000000000000000000000000081526004016109d391906118e1565b60405180910390fd5b80915050919050565b5f60045f8381526020019081526020015f205f9054906101000a900473ffffffffffffffffffffffffffffffffffffffff169050919050565b5f33905090565b610a328383836001611089565b505050565b5f80610a4284611050565b90505f73ffffffffffffffffffffffffffffffffffffffff168373ffffffffffffffffffffffffffffffffffffffff1614610a8357610a82818486611248565b5b5f73ffffffffffffffffffffffffffffffffffffffff168173ffffffffffffffffffffffffffffffffffffffff1614610b0e57610ac25f855f80611089565b600160035f8373ffffffffffffffffffffffffffffffffffffffff1673ffffffffffffffffffffffffffffffffffffffff1681526020019081526020015f205f82825403925050819055505b5f73ffffffffffffffffffffffffffffffffffffffff168573ffffffffffffffffffffffffffffffffffffffff1614610b8d57600160035f8773ffffffffffffffffffffffffffffffffffffffff1673ffffffffffffffffffffffffffffffffffffffff1681526020019081526020015f205f82825401925050819055505b8460025f8681526020019081526020015f205f6101000a81548173ffffffffffffffffffffffffffffffffffffffff021916908373ffffffffffffffffffffffffffffffffffffffff160217905550838573ffffffffffffffffffffffffffffffffffffffff168273ffffffffffffffffffffffffffffffffffffffff167fddf252ad1be2c89b69c2b068fc378daa952ba7f163c4a11628f55a4df523b3ef60405160405180910390a4809150509392505050565b5f73ffffffffffffffffffffffffffffffffffffffff168273ffffffffffffffffffffffffffffffffffffffff1603610cb257816040517f5b08ba18000000000000000000000000000000000000000000000000000000008152600401610ca991906115d6565b60405180910390fd5b8060055f8573ffffffffffffffffffffffffffffffffffffffff1673ffffffffffffffffffffffffffffffffffffffff1681526020019081526020015f205f8473ffffffffffffffffffffffffffffffffffffffff1673ffffffffffffffffffffffffffffffffffffffff1681526020019081526020015f205f6101000a81548160ff0219169083151502179055508173ffffffffffffffffffffffffffffffffffffffff168373ffffffffffffffffffffffffffffffffffffffff167f17307eab39ab6107e8899845ad3d59bd9653f200f220920489ca2b5937696c3183604051610d9e9190611476565b60405180910390a3505050565b5f8373ffffffffffffffffffffffffffffffffffffffff163b1115610f57578273ffffffffffffffffffffffffffffffffffffffff1663150b7a02610dee610a1e565b8685856040518563ffffffff1660e01b8152600401610e109493929190611de4565b6020604051808303815f875af1925050508015610e4b57506040513d601f19601f82011682018060405250810190610e489190611e42565b60015b610ecc573d805f8114610e79576040519150601f19603f3d011682016040523d82523d5f602084013e610e7e565b606091505b505f815103610ec457836040517f64a0ae92000000000000000000000000000000000000000000000000000000008152600401610ebb91906115d6565b60405180910390fd5b805181602001fd5b63150b7a0260e01b7bffffffffffffffffffffffffffffffffffffffffffffffffffffffff1916817bffffffffffffffffffffffffffffffffffffffffffffffffffffffff191614610f5557836040517f64a0ae92000000000000000000000000000000000000000000000000000000008152600401610f4c91906115d6565b60405180910390fd5b505b50505050565b5f73ffffffffffffffffffffffffffffffffffffffff168273ffffffffffffffffffffffffffffffffffffffff1603610fcd575f6040517f64a0ae92000000000000000000000000000000000000000000000000000000008152600401610fc491906115d6565b60405180910390fd5b5f610fd983835f610a37565b90505f73ffffffffffffffffffffffffffffffffffffffff168173ffffffffffffffffffffffffffffffffffffffff161461104b575f6040517f73c6ac6e00000000000000000000000000000000000000000000000000000000815260040161104291906115d6565b60405180910390fd5b505050565b5f60025f8381526020019081526020015f205f9054906101000a900473ffffffffffffffffffffffffffffffffffffffff169050919050565b80806110c157505f73ffffffffffffffffffffffffffffffffffffffff168273ffffffffffffffffffffffffffffffffffffffff1614155b156111f3575f6110d08461095f565b90505f73ffffffffffffffffffffffffffffffffffffffff168373ffffffffffffffffffffffffffffffffffffffff161415801561113a57508273ffffffffffffffffffffffffffffffffffffffff168173ffffffffffffffffffffffffffffffffffffffff1614155b801561114d575061114b818461085b565b155b1561118f57826040517fa9fbf51f00000000000000000000000000000000000000000000000000000000815260040161118691906115d6565b60405180910390fd5b81156111f157838573ffffffffffffffffffffffffffffffffffffffff168273ffffffffffffffffffffffffffffffffffffffff167f8c5be1e5ebec7d5bd14f71427d1e84f3dd0314c0f7b2291e5b200ac8c7c3b92560405160405180910390a45b505b8360045f8581526020019081526020015f205f6101000a81548173ffffffffffffffffffffffffffffffffffffffff021916908373ffffffffffffffffffffffffffffffffffffffff16021790555050505050565b61125383838361130b565b611306575f73ffffffffffffffffffffffffffffffffffffffff168373ffffffffffffffffffffffffffffffffffffffff16036112c757806040517f7e2732890000000000000000000000000000000000000000000000000000000081526004016112be91906118e1565b60405180910390fd5b81816040517f177e802f0000000000000000000000000000000000000000000000000000000081526004016112fd929190611e6d565b60405180910390fd5b505050565b5f8073ffffffffffffffffffffffffffffffffffffffff168373ffffffffffffffffffffffffffffffffffffffff16141580156113c257508273ffffffffffffffffffffffffffffffffffffffff168473ffffffffffffffffffffffffffffffffffffffff1614806113835750611382848461085b565b5b806113c157508273ffffffffffffffffffffffffffffffffffffffff166113a9836109e5565b73ffffffffffffffffffffffffffffffffffffffff16145b5b90509392505050565b5f604051905090565b5f80fd5b5f80fd5b5f7fffffffff0000000000000000000000000000000000000000000000000000000082169050919050565b611410816113dc565b811461141a575f80fd5b50565b5f8135905061142b81611407565b92915050565b5f60208284031215611446576114456113d4565b5b5f6114538482850161141d565b91505092915050565b5f8115159050919050565b6114708161145c565b82525050565b5f6020820190506114895f830184611467565b92915050565b5f81519050919050565b5f82825260208201905092915050565b5f5b838110156114c65780820151818401526020810190506114ab565b5f8484015250505050565b5f601f19601f8301169050919050565b5f6114eb8261148f565b6114f58185611499565b93506115058185602086016114a9565b61150e816114d1565b840191505092915050565b5f6020820190508181035f83015261153181846114e1565b905092915050565b5f819050919050565b61154b81611539565b8114611555575f80fd5b50565b5f8135905061156681611542565b92915050565b5f60208284031215611581576115806113d4565b5b5f61158e84828501611558565b91505092915050565b5f73ffffffffffffffffffffffffffffffffffffffff82169050919050565b5f6115c082611597565b9050919050565b6115d0816115b6565b82525050565b5f6020820190506115e95f8301846115c7565b92915050565b6115f8816115b6565b8114611602575f80fd5b50565b5f81359050611613816115ef565b92915050565b5f806040838503121561162f5761162e6113d4565b5b5f61163c85828601611605565b925050602061164d85828601611558565b9150509250929050565b5f80fd5b5f80fd5b7f4e487b71000000000000000000000000000000000000000000000000000000005f52604160045260245ffd5b611695826114d1565b810181811067ffffffffffffffff821117156116b4576116b361165f565b5b80604052505050565b5f6116c66113cb565b90506116d2828261168c565b919050565b5f67ffffffffffffffff8211156116f1576116f061165f565b5b6116fa826114d1565b9050602081019050919050565b828183375f83830152505050565b5f611727611722846116d7565b6116bd565b9050828152602081018484840111156117435761174261165b565b5b61174e848285611707565b509392505050565b5f82601f83011261176a57611769611657565b5b813561177a848260208601611715565b91505092915050565b5f8060408385031215611799576117986113d4565b5b5f6117a685828601611558565b925050602083013567ffffffffffffffff8111156117c7576117c66113d8565b5b6117d385828601611756565b9150509250929050565b5f805f606084860312156117f4576117f36113d4565b5b5f61180186828701611605565b935050602061181286828701611605565b925050604061182386828701611558565b9150509250925092565b6118368161145c565b8114611840575f80fd5b50565b5f813590506118518161182d565b92915050565b5f805f6060848603121561186e5761186d6113d4565b5b5f61187b86828701611605565b935050602061188c86828701611605565b925050604061189d86828701611843565b9150509250925092565b5f602082840312156118bc576118bb6113d4565b5b5f6118c984828501611605565b91505092915050565b6118db81611539565b82525050565b5f6020820190506118f45f8301846118d2565b92915050565b5f80604083850312156119105761190f6113d4565b5b5f61191d85828601611605565b925050602061192e85828601611843565b9150509250929050565b5f67ffffffffffffffff8211156119525761195161165f565b5b61195b826114d1565b9050602081019050919050565b5f61197a61197584611938565b6116bd565b9050828152602081018484840111156119965761199561165b565b5b6119a1848285611707565b509392505050565b5f82601f8301126119bd576119bc611657565b5b81356119cd848260208601611968565b91505092915050565b5f805f80608085870312156119ee576119ed6113d4565b5b5f6119fb87828801611605565b9450506020611a0c87828801611605565b9350506040611a1d87828801611558565b925050606085013567ffffffffffffffff811115611a3e57611a3d6113d8565b5b611a4a878288016119a9565b91505092959194509250565b5f8060408385031215611a6c57611a6b6113d4565b5b5f611a7985828601611605565b9250506020611a8a85828601611605565b9150509250929050565b7f4e487b71000000000000000000000000000000000000000000000000000000005f52602260045260245ffd5b5f6002820490506001821680611ad857607f821691505b602082108103611aeb57611aea611a94565b5b50919050565b5f819050815f5260205f209050919050565b5f6020601f8301049050919050565b5f82821b905092915050565b5f60088302611b4d7fffffffffffffffffffffffffffffffffffffffffffffffffffffffffffffffff82611b12565b611b578683611b12565b95508019841693508086168417925050509392505050565b5f819050919050565b5f611b92611b8d611b8884611539565b611b6f565b611539565b9050919050565b5f819050919050565b611bab83611b78565b611bbf611bb782611b99565b848454611b1e565b825550505050565b5f90565b611bd3611bc7565b611bde818484611ba2565b505050565b5b81811015611c0157611bf65f82611bcb565b600181019050611be4565b5050565b601f821115611c4657611c1781611af1565b611c2084611b03565b81016020851015611c2f578190505b611c43611c3b85611b03565b830182611be3565b50505b505050565b5f82821c905092915050565b5f611c665f1984600802611c4b565b1980831691505092915050565b5f611c7e8383611c57565b9150826002028217905092915050565b611c978261148f565b67ffffffffffffffff811115611cb057611caf61165f565b5b611cba8254611ac1565b611cc5828285611c05565b5f60209050601f831160018114611cf6575f8415611ce4578287015190505b611cee8582611c73565b865550611d55565b601f198416611d0486611af1565b5f5b82811015611d2b57848901518255600182019150602085019450602081019050611d06565b86831015611d485784890151611d44601f891682611c57565b8355505b6001600288020188555050505b505050505050565b5f606082019050611d705f8301866115c7565b611d7d60208301856118d2565b611d8a60408301846115c7565b949350505050565b5f81519050919050565b5f82825260208201905092915050565b5f611db682611d92565b611dc08185611d9c565b9350611dd08185602086016114a9565b611dd9816114d1565b840191505092915050565b5f608082019050611df75f8301876115c7565b611e0460208301866115c7565b611e1160408301856118d2565b8181036060830152611e238184611dac565b905095945050505050565b5f81519050611e3c81611407565b92915050565b5f60208284031215611e5757611e566113d4565b5b5f611e6484828501611e2e565b91505092915050565b5f604082019050611e805f8301856115c7565b611e8d60208301846118d2565b939250505056fea2646970667358221220de6b8e5e212c4d4fd8da0b2d1831f706ef4bc888c43520d908a891618ffb32ec64736f6c63430008140033",
					"opcodes": "PUSH1 0x80 PUSH1 0x40 MSTORE CALLVALUE DUP1 ISZERO PUSH3 0x10 JUMPI PUSH0 DUP1 REVERT JUMPDEST POP PUSH1 0x40 MLOAD PUSH3 0x2460 CODESIZE SUB DUP1 PUSH3 0x2460 DUP4 CODECOPY DUP2 DUP2 ADD PUSH1 0x40 MSTORE DUP2 ADD SWAP1 PUSH3 0x36 SWAP2 SWAP1 PUSH3 0x1EA JUMP JUMPDEST DUP2 DUP2 DUP2 PUSH0 SWAP1 DUP2 PUSH3 0x48 SWAP2 SWAP1 PUSH3 0x4A4 JUMP JUMPDEST POP DUP1 PUSH1 0x1 SWAP1 DUP2 PUSH3 0x5A SWAP2 SWAP1 PUSH3 0x4A4 JUMP JUMPDEST POP POP POP POP POP PUSH3 0x588 JUMP JUMPDEST PUSH0 PUSH1 0x40 MLOAD SWAP1 POP SWAP1 JUMP JUMPDEST PUSH0 DUP1 REVERT JUMPDEST PUSH0 DUP1 REVERT JUMPDEST PUSH0 DUP1 REVERT JUMPDEST PUSH0 DUP1 REVERT JUMPDEST PUSH0 PUSH1 0x1F NOT PUSH1 0x1F DUP4 ADD AND SWAP1 POP SWAP2 SWAP1 POP JUMP JUMPDEST PUSH32 0x4E487B7100000000000000000000000000000000000000000000000000000000 PUSH0 MSTORE PUSH1 0x41 PUSH1 0x4 MSTORE PUSH1 0x24 PUSH0 REVERT JUMPDEST PUSH3 0xC6 DUP3 PUSH3 0x7E JUMP JUMPDEST DUP2 ADD DUP2 DUP2 LT PUSH8 0xFFFFFFFFFFFFFFFF DUP3 GT OR ISZERO PUSH3 0xE8 JUMPI PUSH3 0xE7 PUSH3 0x8E JUMP JUMPDEST JUMPDEST DUP1 PUSH1 0x40 MSTORE POP POP POP JUMP JUMPDEST PUSH0 PUSH3 0xFC PUSH3 0x65 JUMP JUMPDEST SWAP1 POP PUSH3 0x10A DUP3 DUP3 PUSH3 0xBB JUMP JUMPDEST SWAP2 SWAP1 POP JUMP JUMPDEST PUSH0 PUSH8 0xFFFFFFFFFFFFFFFF DUP3 GT ISZERO PUSH3 0x12C JUMPI PUSH3 0x12B PUSH3 0x8E JUMP JUMPDEST JUMPDEST PUSH3 0x137 DUP3 PUSH3 0x7E JUMP JUMPDEST SWAP1 POP PUSH1 0x20 DUP2 ADD SWAP1 POP SWAP2 SWAP1 POP JUMP JUMPDEST PUSH0 JUMPDEST DUP4 DUP2 LT ISZERO PUSH3 0x163 JUMPI DUP1 DUP3 ADD MLOAD DUP2 DUP5 ADD MSTORE PUSH1 0x20 DUP2 ADD SWAP1 POP PUSH3 0x146 JUMP JUMPDEST PUSH0 DUP5 DUP5 ADD MSTORE POP POP POP POP JUMP JUMPDEST PUSH0 PUSH3 0x184 PUSH3 0x17E DUP5 PUSH3 0x10F JUMP JUMPDEST PUSH3 0xF1 JUMP JUMPDEST SWAP1 POP DUP3 DUP2 MSTORE PUSH1 0x20 DUP2 ADD DUP5 DUP5 DUP5 ADD GT ISZERO PUSH3 0x1A3 JUMPI PUSH3 0x1A2 PUSH3 0x7A JUMP JUMPDEST JUMPDEST PUSH3 0x1B0 DUP5 DUP3 DUP6 PUSH3 0x144 JUMP JUMPDEST POP SWAP4 SWAP3 POP POP POP JUMP JUMPDEST PUSH0 DUP3 PUSH1 0x1F DUP4 ADD SLT PUSH3 0x1CF JUMPI PUSH3 0x1CE PUSH3 0x76 JUMP JUMPDEST JUMPDEST DUP2 MLOAD PUSH3 0x1E1 DUP5 DUP3 PUSH1 0x20 DUP7 ADD PUSH3 0x16E JUMP JUMPDEST SWAP2 POP POP SWAP3 SWAP2 POP POP JUMP JUMPDEST PUSH0 DUP1 PUSH1 0x40 DUP4 DUP6 SUB SLT ISZERO PUSH3 0x203 JUMPI PUSH3 0x202 PUSH3 0x6E JUMP JUMPDEST JUMPDEST PUSH0 DUP4 ADD MLOAD PUSH8 0xFFFFFFFFFFFFFFFF DUP2 GT ISZERO PUSH3 0x223 JUMPI PUSH3 0x222 PUSH3 0x72 JUMP JUMPDEST JUMPDEST PUSH3 0x231 DUP6 DUP3 DUP7 ADD PUSH3 0x1B8 JUMP JUMPDEST SWAP3 POP POP PUSH1 0x20 DUP4 ADD MLOAD PUSH8 0xFFFFFFFFFFFFFFFF DUP2 GT ISZERO PUSH3 0x255 JUMPI PUSH3 0x254 PUSH3 0x72 JUMP JUMPDEST JUMPDEST PUSH3 0x263 DUP6 DUP3 DUP7 ADD PUSH3 0x1B8 JUMP JUMPDEST SWAP2 POP POP SWAP3 POP SWAP3 SWAP1 POP JUMP JUMPDEST PUSH0 DUP2 MLOAD SWAP1 POP SWAP2 SWAP1 POP JUMP JUMPDEST PUSH32 0x4E487B7100000000000000000000000000000000000000000000000000000000 PUSH0 MSTORE PUSH1 0x22 PUSH1 0x4 MSTORE PUSH1 0x24 PUSH0 REVERT JUMPDEST PUSH0 PUSH1 0x2 DUP3 DIV SWAP1 POP PUSH1 0x1 DUP3 AND DUP1 PUSH3 0x2BC JUMPI PUSH1 0x7F DUP3 AND SWAP2 POP JUMPDEST PUSH1 0x20 DUP3 LT DUP2 SUB PUSH3 0x2D2 JUMPI PUSH3 0x2D1 PUSH3 0x277 JUMP JUMPDEST JUMPDEST POP SWAP2 SWAP1 POP JUMP JUMPDEST PUSH0 DUP2 SWAP1 POP DUP2 PUSH0 MSTORE PUSH1 0x20 PUSH0 KECCAK256 SWAP1 POP SWAP2 SWAP1 POP JUMP JUMPDEST PUSH0 PUSH1 0x20 PUSH1 0x1F DUP4 ADD DIV SWAP1 POP SWAP2 SWAP1 POP JUMP JUMPDEST PUSH0 DUP3 DUP3 SHL SWAP1 POP SWAP3 SWAP2 POP POP JUMP JUMPDEST PUSH0 PUSH1 0x8 DUP4 MUL PUSH3 0x336 PUSH32 0xFFFFFFFFFFFFFFFFFFFFFFFFFFFFFFFFFFFFFFFFFFFFFFFFFFFFFFFFFFFFFFFF DUP3 PUSH3 0x2F9 JUMP JUMPDEST PUSH3 0x342 DUP7 DUP4 PUSH3 0x2F9 JUMP JUMPDEST SWAP6 POP DUP1 NOT DUP5 AND SWAP4 POP DUP1 DUP7 AND DUP5 OR SWAP3 POP POP POP SWAP4 SWAP3 POP POP POP JUMP JUMPDEST PUSH0 DUP2 SWAP1 POP SWAP2 SWAP1 POP JUMP JUMPDEST PUSH0 DUP2 SWAP1 POP SWAP2 SWAP1 POP JUMP JUMPDEST PUSH0 PUSH3 0x38C PUSH3 0x386 PUSH3 0x380 DUP5 PUSH3 0x35A JUMP JUMPDEST PUSH3 0x363 JUMP JUMPDEST PUSH3 0x35A JUMP JUMPDEST SWAP1 POP SWAP2 SWAP1 POP JUMP JUMPDEST PUSH0 DUP2 SWAP1 POP SWAP2 SWAP1 POP JUMP JUMPDEST PUSH3 0x3A7 DUP4 PUSH3 0x36C JUMP JUMPDEST PUSH3 0x3BF PUSH3 0x3B6 DUP3 PUSH3 0x393 JUMP JUMPDEST DUP5 DUP5 SLOAD PUSH3 0x305 JUMP JUMPDEST DUP3 SSTORE POP POP POP POP JUMP JUMPDEST PUSH0 SWAP1 JUMP JUMPDEST PUSH3 0x3D5 PUSH3 0x3C7 JUMP JUMPDEST PUSH3 0x3E2 DUP2 DUP5 DUP5 PUSH3 0x39C JUMP JUMPDEST POP POP POP JUMP JUMPDEST JUMPDEST DUP2 DUP2 LT ISZERO PUSH3 0x409 JUMPI PUSH3 0x3FD PUSH0 DUP3 PUSH3 0x3CB JUMP JUMPDEST PUSH1 0x1 DUP2 ADD SWAP1 POP PUSH3 0x3E8 JUMP JUMPDEST POP POP JUMP JUMPDEST PUSH1 0x1F DUP3 GT ISZERO PUSH3 0x458 JUMPI PUSH3 0x422 DUP2 PUSH3 0x2D8 JUMP JUMPDEST PUSH3 0x42D DUP5 PUSH3 0x2EA JUMP JUMPDEST DUP2 ADD PUSH1 0x20 DUP6 LT ISZERO PUSH3 0x43D JUMPI DUP2 SWAP1 POP JUMPDEST PUSH3 0x455 PUSH3 0x44C DUP6 PUSH3 0x2EA JUMP JUMPDEST DUP4 ADD DUP3 PUSH3 0x3E7 JUMP JUMPDEST POP POP JUMPDEST POP POP POP JUMP JUMPDEST PUSH0 DUP3 DUP3 SHR SWAP1 POP SWAP3 SWAP2 POP POP JUMP JUMPDEST PUSH0 PUSH3 0x47A PUSH0 NOT DUP5 PUSH1 0x8 MUL PUSH3 0x45D JUMP JUMPDEST NOT DUP1 DUP4 AND SWAP2 POP POP SWAP3 SWAP2 POP POP JUMP JUMPDEST PUSH0 PUSH3 0x494 DUP4 DUP4 PUSH3 0x469 JUMP JUMPDEST SWAP2 POP DUP3 PUSH1 0x2 MUL DUP3 OR SWAP1 POP SWAP3 SWAP2 POP POP JUMP JUMPDEST PUSH3 0x4AF DUP3 PUSH3 0x26D JUMP JUMPDEST PUSH8 0xFFFFFFFFFFFFFFFF DUP2 GT ISZERO PUSH3 0x4CB JUMPI PUSH3 0x4CA PUSH3 0x8E JUMP JUMPDEST JUMPDEST PUSH3 0x4D7 DUP3 SLOAD PUSH3 0x2A4 JUMP JUMPDEST PUSH3 0x4E4 DUP3 DUP3 DUP6 PUSH3 0x40D JUMP JUMPDEST PUSH0 PUSH1 0x20 SWAP1 POP PUSH1 0x1F DUP4 GT PUSH1 0x1 DUP2 EQ PUSH3 0x51A JUMPI PUSH0 DUP5 ISZERO PUSH3 0x505 JUMPI DUP3 DUP8 ADD MLOAD SWAP1 POP JUMPDEST PUSH3 0x511 DUP6 DUP3 PUSH3 0x487 JUMP JUMPDEST DUP7 SSTORE POP PUSH3 0x580 JUMP JUMPDEST PUSH1 0x1F NOT DUP5 AND PUSH3 0x52A DUP7 PUSH3 0x2D8 JUMP JUMPDEST PUSH0 JUMPDEST DUP3 DUP2 LT ISZERO PUSH3 0x553 JUMPI DUP5 DUP10 ADD MLOAD DUP3 SSTORE PUSH1 0x1 DUP3 ADD SWAP2 POP PUSH1 0x20 DUP6 ADD SWAP5 POP PUSH1 0x20 DUP2 ADD SWAP1 POP PUSH3 0x52C JUMP JUMPDEST DUP7 DUP4 LT ISZERO PUSH3 0x573 JUMPI DUP5 DUP10 ADD MLOAD PUSH3 0x56F PUSH1 0x1F DUP10 AND DUP3 PUSH3 0x469 JUMP JUMPDEST DUP4 SSTORE POP JUMPDEST PUSH1 0x1 PUSH1 0x2 DUP9 MUL ADD DUP9 SSTORE POP POP POP JUMPDEST POP POP POP POP POP POP JUMP JUMPDEST PUSH2 0x1ECA DUP1 PUSH3 0x596 PUSH0 CODECOPY PUSH0 RETURN INVALID PUSH1 0x80 PUSH1 0x40 MSTORE CALLVALUE DUP1 ISZERO PUSH2 0xF JUMPI PUSH0 DUP1 REVERT JUMPDEST POP PUSH1 0x4 CALLDATASIZE LT PUSH2 0xFE JUMPI PUSH0 CALLDATALOAD PUSH1 0xE0 SHR DUP1 PUSH4 0x6352211E GT PUSH2 0x95 JUMPI DUP1 PUSH4 0xB88D4FDE GT PUSH2 0x64 JUMPI DUP1 PUSH4 0xB88D4FDE EQ PUSH2 0x2A6 JUMPI DUP1 PUSH4 0xC87B56DD EQ PUSH2 0x2C2 JUMPI DUP1 PUSH4 0xE985E9C5 EQ PUSH2 0x2F2 JUMPI DUP1 PUSH4 0xF2CEE92B EQ PUSH2 0x322 JUMPI PUSH2 0xFE JUMP JUMPDEST DUP1 PUSH4 0x6352211E EQ PUSH2 0x20C JUMPI DUP1 PUSH4 0x70A08231 EQ PUSH2 0x23C JUMPI DUP1 PUSH4 0x95D89B41 EQ PUSH2 0x26C JUMPI DUP1 PUSH4 0xA22CB465 EQ PUSH2 0x28A JUMPI PUSH2 0xFE JUMP JUMPDEST DUP1 PUSH4 0x162094C4 GT PUSH2 0xD1 JUMPI DUP1 PUSH4 0x162094C4 EQ PUSH2 0x19C JUMPI DUP1 PUSH4 0x23B872DD EQ PUSH2 0x1B8 JUMPI DUP1 PUSH4 0x29D6724E EQ PUSH2 0x1D4 JUMPI DUP1 PUSH4 0x42842E0E EQ PUSH2 0x1F0 JUMPI PUSH2 0xFE JUMP JUMPDEST DUP1 PUSH4 0x1FFC9A7 EQ PUSH2 0x102 JUMPI DUP1 PUSH4 0x6FDDE03 EQ PUSH2 0x132 JUMPI DUP1 PUSH4 0x81812FC EQ PUSH2 0x150 JUMPI DUP1 PUSH4 0x95EA7B3 EQ PUSH2 0x180 JUMPI JUMPDEST PUSH0 DUP1 REVERT JUMPDEST PUSH2 0x11C PUSH1 0x4 DUP1 CALLDATASIZE SUB DUP2 ADD SWAP1 PUSH2 0x117 SWAP2 SWAP1 PUSH2 0x1431 JUMP JUMPDEST PUSH2 0x33E JUMP JUMPDEST PUSH1 0x40 MLOAD PUSH2 0x129 SWAP2 SWAP1 PUSH2 0x1476 JUMP JUMPDEST PUSH1 0x40 MLOAD DUP1 SWAP2 SUB SWAP1 RETURN JUMPDEST PUSH2 0x13A PUSH2 0x41F JUMP JUMPDEST PUSH1 0x40 MLOAD PUSH2 0x147 SWAP2 SWAP1 PUSH2 0x1519 JUMP JUMPDEST PUSH1 0x40 MLOAD DUP1 SWAP2 SUB SWAP1 RETURN JUMPDEST PUSH2 0x16A PUSH1 0x4 DUP1 CALLDATASIZE SUB DUP2 ADD SWAP1 PUSH2 0x165 SWAP2 SWAP1 PUSH2 0x156C JUMP JUMPDEST PUSH2 0x4AE JUMP JUMPDEST PUSH1 0x40 MLOAD PUSH2 0x177 SWAP2 SWAP1 PUSH2 0x15D6 JUMP JUMPDEST PUSH1 0x40 MLOAD DUP1 SWAP2 SUB SWAP1 RETURN JUMPDEST PUSH2 0x19A PUSH1 0x4 DUP1 CALLDATASIZE SUB DUP2 ADD SWAP1 PUSH2 0x195 SWAP2 SWAP1 PUSH2 0x1619 JUMP JUMPDEST PUSH2 0x4C9 JUMP JUMPDEST STOP JUMPDEST PUSH2 0x1B6 PUSH1 0x4 DUP1 CALLDATASIZE SUB DUP2 ADD SWAP1 PUSH2 0x1B1 SWAP2 SWAP1 PUSH2 0x1783 JUMP JUMPDEST PUSH2 0x4DF JUMP JUMPDEST STOP JUMPDEST PUSH2 0x1D2 PUSH1 0x4 DUP1 CALLDATASIZE SUB DUP2 ADD SWAP1 PUSH2 0x1CD SWAP2 SWAP1 PUSH2 0x17DD JUMP JUMPDEST PUSH2 0x502 JUMP JUMPDEST STOP JUMPDEST PUSH2 0x1EE PUSH1 0x4 DUP1 CALLDATASIZE SUB DUP2 ADD SWAP1 PUSH2 0x1E9 SWAP2 SWAP1 PUSH2 0x1857 JUMP JUMPDEST PUSH2 0x601 JUMP JUMPDEST STOP JUMPDEST PUSH2 0x20A PUSH1 0x4 DUP1 CALLDATASIZE SUB DUP2 ADD SWAP1 PUSH2 0x205 SWAP2 SWAP1 PUSH2 0x17DD JUMP JUMPDEST PUSH2 0x611 JUMP JUMPDEST STOP JUMPDEST PUSH2 0x226 PUSH1 0x4 DUP1 CALLDATASIZE SUB DUP2 ADD SWAP1 PUSH2 0x221 SWAP2 SWAP1 PUSH2 0x156C JUMP JUMPDEST PUSH2 0x630 JUMP JUMPDEST PUSH1 0x40 MLOAD PUSH2 0x233 SWAP2 SWAP1 PUSH2 0x15D6 JUMP JUMPDEST PUSH1 0x40 MLOAD DUP1 SWAP2 SUB SWAP1 RETURN JUMPDEST PUSH2 0x256 PUSH1 0x4 DUP1 CALLDATASIZE SUB DUP2 ADD SWAP1 PUSH2 0x251 SWAP2 SWAP1 PUSH2 0x18A7 JUMP JUMPDEST PUSH2 0x641 JUMP JUMPDEST PUSH1 0x40 MLOAD PUSH2 0x263 SWAP2 SWAP1 PUSH2 0x18E1 JUMP JUMPDEST PUSH1 0x40 MLOAD DUP1 SWAP2 SUB SWAP1 RETURN JUMPDEST PUSH2 0x274 PUSH2 0x6F7 JUMP JUMPDEST PUSH1 0x40 MLOAD PUSH2 0x281 SWAP2 SWAP1 PUSH2 0x1519 JUMP JUMPDEST PUSH1 0x40 MLOAD DUP1 SWAP2 SUB SWAP1 RETURN JUMPDEST PUSH2 0x2A4 PUSH1 0x4 DUP1 CALLDATASIZE SUB DUP2 ADD SWAP1 PUSH2 0x29F SWAP2 SWAP1 PUSH2 0x18FA JUMP JUMPDEST PUSH2 0x787 JUMP JUMPDEST STOP JUMPDEST PUSH2 0x2C0 PUSH1 0x4 DUP1 CALLDATASIZE SUB DUP2 ADD SWAP1 PUSH2 0x2BB SWAP2 SWAP1 PUSH2 0x19D6 JUMP JUMPDEST PUSH2 0x79D JUMP JUMPDEST STOP JUMPDEST PUSH2 0x2DC PUSH1 0x4 DUP1 CALLDATASIZE SUB DUP2 ADD SWAP1 PUSH2 0x2D7 SWAP2 SWAP1 PUSH2 0x156C JUMP JUMPDEST PUSH2 0x7BA JUMP JUMPDEST PUSH1 0x40 MLOAD PUSH2 0x2E9 SWAP2 SWAP1 PUSH2 0x1519 JUMP JUMPDEST PUSH1 0x40 MLOAD DUP1 SWAP2 SUB SWAP1 RETURN JUMPDEST PUSH2 0x30C PUSH1 0x4 DUP1 CALLDATASIZE SUB DUP2 ADD SWAP1 PUSH2 0x307 SWAP2 SWAP1 PUSH2 0x1A56 JUMP JUMPDEST PUSH2 0x85B JUMP JUMPDEST PUSH1 0x40 MLOAD PUSH2 0x319 SWAP2 SWAP1 PUSH2 0x1476 JUMP JUMPDEST PUSH1 0x40 MLOAD DUP1 SWAP2 SUB SWAP1 RETURN JUMPDEST PUSH2 0x33C PUSH1 0x4 DUP1 CALLDATASIZE SUB DUP2 ADD SWAP1 PUSH2 0x337 SWAP2 SWAP1 PUSH2 0x156C JUMP JUMPDEST PUSH2 0x8E9 JUMP JUMPDEST STOP JUMPDEST PUSH0 PUSH32 0x80AC58CD00000000000000000000000000000000000000000000000000000000 PUSH28 0xFFFFFFFFFFFFFFFFFFFFFFFFFFFFFFFFFFFFFFFFFFFFFFFFFFFFFFFF NOT AND DUP3 PUSH28 0xFFFFFFFFFFFFFFFFFFFFFFFFFFFFFFFFFFFFFFFFFFFFFFFFFFFFFFFF NOT AND EQ DUP1 PUSH2 0x408 JUMPI POP PUSH32 0x5B5E139F00000000000000000000000000000000000000000000000000000000 PUSH28 0xFFFFFFFFFFFFFFFFFFFFFFFFFFFFFFFFFFFFFFFFFFFFFFFFFFFFFFFF NOT AND DUP3 PUSH28 0xFFFFFFFFFFFFFFFFFFFFFFFFFFFFFFFFFFFFFFFFFFFFFFFFFFFFFFFF NOT AND EQ JUMPDEST DUP1 PUSH2 0x418 JUMPI POP PUSH2 0x417 DUP3 PUSH2 0x8F6 JUMP JUMPDEST JUMPDEST SWAP1 POP SWAP2 SWAP1 POP JUMP JUMPDEST PUSH1 0x60 PUSH0 DUP1 SLOAD PUSH2 0x42D SWAP1 PUSH2 0x1AC1 JUMP JUMPDEST DUP1 PUSH1 0x1F ADD PUSH1 0x20 DUP1 SWAP2 DIV MUL PUSH1 0x20 ADD PUSH1 0x40 MLOAD SWAP1 DUP2 ADD PUSH1 0x40 MSTORE DUP1 SWAP3 SWAP2 SWAP1 DUP2 DUP2 MSTORE PUSH1 0x20 ADD DUP3 DUP1 SLOAD PUSH2 0x459 SWAP1 PUSH2 0x1AC1 JUMP JUMPDEST DUP1 ISZERO PUSH2 0x4A4 JUMPI DUP1 PUSH1 0x1F LT PUSH2 0x47B JUMPI PUSH2 0x100 DUP1 DUP4 SLOAD DIV MUL DUP4 MSTORE SWAP2 PUSH1 0x20 ADD SWAP2 PUSH2 0x4A4 JUMP JUMPDEST DUP3 ADD SWAP2 SWAP1 PUSH0 MSTORE PUSH1 0x20 PUSH0 KECCAK256 SWAP1 JUMPDEST DUP2 SLOAD DUP2 MSTORE SWAP1 PUSH1 0x1 ADD SWAP1 PUSH1 0x20 ADD DUP1 DUP4 GT PUSH2 0x487 JUMPI DUP3 SWAP1 SUB PUSH1 0x1F AND DUP3 ADD SWAP2 JUMPDEST POP POP POP POP POP SWAP1 POP SWAP1 JUMP JUMPDEST PUSH0 PUSH2 0x4B8 DUP3 PUSH2 0x95F JUMP JUMPDEST POP PUSH2 0x4C2 DUP3 PUSH2 0x9E5 JUMP JUMPDEST SWAP1 POP SWAP2 SWAP1 POP JUMP JUMPDEST PUSH2 0x4DB DUP3 DUP3 PUSH2 0x4D6 PUSH2 0xA1E JUMP JUMPDEST PUSH2 0xA25 JUMP JUMPDEST POP POP JUMP JUMPDEST DUP1 PUSH1 0x6 PUSH0 DUP5 DUP2 MSTORE PUSH1 0x20 ADD SWAP1 DUP2 MSTORE PUSH1 0x20 ADD PUSH0 KECCAK256 SWAP1 DUP2 PUSH2 0x4FD SWAP2 SWAP1 PUSH2 0x1C8E JUMP JUMPDEST POP POP POP JUMP JUMPDEST PUSH0 PUSH20 0xFFFFFFFFFFFFFFFFFFFFFFFFFFFFFFFFFFFFFFFF AND DUP3 PUSH20 0xFFFFFFFFFFFFFFFFFFFFFFFFFFFFFFFFFFFFFFFF AND SUB PUSH2 0x572 JUMPI PUSH0 PUSH1 0x40 MLOAD PUSH32 0x64A0AE9200000000000000000000000000000000000000000000000000000000 DUP2 MSTORE PUSH1 0x4 ADD PUSH2 0x569 SWAP2 SWAP1 PUSH2 0x15D6 JUMP JUMPDEST PUSH1 0x40 MLOAD DUP1 SWAP2 SUB SWAP1 REVERT JUMPDEST PUSH0 PUSH2 0x585 DUP4 DUP4 PUSH2 0x580 PUSH2 0xA1E JUMP JUMPDEST PUSH2 0xA37 JUMP JUMPDEST SWAP1 POP DUP4 PUSH20 0xFFFFFFFFFFFFFFFFFFFFFFFFFFFFFFFFFFFFFFFF AND DUP2 PUSH20 0xFFFFFFFFFFFFFFFFFFFFFFFFFFFFFFFFFFFFFFFF AND EQ PUSH2 0x5FB JUMPI DUP4 DUP3 DUP3 PUSH1 0x40 MLOAD PUSH32 0x64283D7B00000000000000000000000000000000000000000000000000000000 DUP2 MSTORE PUSH1 0x4 ADD PUSH2 0x5F2 SWAP4 SWAP3 SWAP2 SWAP1 PUSH2 0x1D5D JUMP JUMPDEST PUSH1 0x40 MLOAD DUP1 SWAP2 SUB SWAP1 REVERT JUMPDEST POP POP POP POP JUMP JUMPDEST PUSH2 0x60C DUP4 DUP4 DUP4 PUSH2 0xC42 JUMP JUMPDEST POP POP POP JUMP JUMPDEST PUSH2 0x62B DUP4 DUP4 DUP4 PUSH1 0x40 MLOAD DUP1 PUSH1 0x20 ADD PUSH1 0x40 MSTORE DUP1 PUSH0 DUP2 MSTORE POP PUSH2 0x79D JUMP JUMPDEST POP POP POP JUMP JUMPDEST PUSH0 PUSH2 0x63A DUP3 PUSH2 0x95F JUMP JUMPDEST SWAP1 POP SWAP2 SWAP1 POP JUMP JUMPDEST PUSH0 DUP1 PUSH20 0xFFFFFFFFFFFFFFFFFFFFFFFFFFFFFFFFFFFFFFFF AND DUP3 PUSH20 0xFFFFFFFFFFFFFFFFFFFFFFFFFFFFFFFFFFFFFFFF AND SUB PUSH2 0x6B2 JUMPI PUSH0 PUSH1 0x40 MLOAD PUSH32 0x89C62B6400000000000000000000000000000000000000000000000000000000 DUP2 MSTORE PUSH1 0x4 ADD PUSH2 0x6A9 SWAP2 SWAP1 PUSH2 0x15D6 JUMP JUMPDEST PUSH1 0x40 MLOAD DUP1 SWAP2 SUB SWAP1 REVERT JUMPDEST PUSH1 0x3 PUSH0 DUP4 PUSH20 0xFFFFFFFFFFFFFFFFFFFFFFFFFFFFFFFFFFFFFFFF AND PUSH20 0xFFFFFFFFFFFFFFFFFFFFFFFFFFFFFFFFFFFFFFFF AND DUP2 MSTORE PUSH1 0x20 ADD SWAP1 DUP2 MSTORE PUSH1 0x20 ADD PUSH0 KECCAK256 SLOAD SWAP1 POP SWAP2 SWAP1 POP JUMP JUMPDEST PUSH1 0x60 PUSH1 0x1 DUP1 SLOAD PUSH2 0x706 SWAP1 PUSH2 0x1AC1 JUMP JUMPDEST DUP1 PUSH1 0x1F ADD PUSH1 0x20 DUP1 SWAP2 DIV MUL PUSH1 0x20 ADD PUSH1 0x40 MLOAD SWAP1 DUP2 ADD PUSH1 0x40 MSTORE DUP1 SWAP3 SWAP2 SWAP1 DUP2 DUP2 MSTORE PUSH1 0x20 ADD DUP3 DUP1 SLOAD PUSH2 0x732 SWAP1 PUSH2 0x1AC1 JUMP JUMPDEST DUP1 ISZERO PUSH2 0x77D JUMPI DUP1 PUSH1 0x1F LT PUSH2 0x754 JUMPI PUSH2 0x100 DUP1 DUP4 SLOAD DIV MUL DUP4 MSTORE SWAP2 PUSH1 0x20 ADD SWAP2 PUSH2 0x77D JUMP JUMPDEST DUP3 ADD SWAP2 SWAP1 PUSH0 MSTORE PUSH1 0x20 PUSH0 KECCAK256 SWAP1 JUMPDEST DUP2 SLOAD DUP2 MSTORE SWAP1 PUSH1 0x1 ADD SWAP1 PUSH1 0x20 ADD DUP1 DUP4 GT PUSH2 0x760 JUMPI DUP3 SWAP1 SUB PUSH1 0x1F AND DUP3 ADD SWAP2 JUMPDEST POP POP POP POP POP SWAP1 POP SWAP1 JUMP JUMPDEST PUSH2 0x799 PUSH2 0x792 PUSH2 0xA1E JUMP JUMPDEST DUP4 DUP4 PUSH2 0xC42 JUMP JUMPDEST POP POP JUMP JUMPDEST PUSH2 0x7A8 DUP5 DUP5 DUP5 PUSH2 0x502 JUMP JUMPDEST PUSH2 0x7B4 DUP5 DUP5 DUP5 DUP5 PUSH2 0xDAB JUMP JUMPDEST POP POP POP POP JUMP JUMPDEST PUSH1 0x60 PUSH1 0x6 PUSH0 DUP4 DUP2 MSTORE PUSH1 0x20 ADD SWAP1 DUP2 MSTORE PUSH1 0x20 ADD PUSH0 KECCAK256 DUP1 SLOAD PUSH2 0x7D8 SWAP1 PUSH2 0x1AC1 JUMP JUMPDEST DUP1 PUSH1 0x1F ADD PUSH1 0x20 DUP1 SWAP2 DIV MUL PUSH1 0x20 ADD PUSH1 0x40 MLOAD SWAP1 DUP2 ADD PUSH1 0x40 MSTORE DUP1 SWAP3 SWAP2 SWAP1 DUP2 DUP2 MSTORE PUSH1 0x20 ADD DUP3 DUP1 SLOAD PUSH2 0x804 SWAP1 PUSH2 0x1AC1 JUMP JUMPDEST DUP1 ISZERO PUSH2 0x84F JUMPI DUP1 PUSH1 0x1F LT PUSH2 0x826 JUMPI PUSH2 0x100 DUP1 DUP4 SLOAD DIV MUL DUP4 MSTORE SWAP2 PUSH1 0x20 ADD SWAP2 PUSH2 0x84F JUMP JUMPDEST DUP3 ADD SWAP2 SWAP1 PUSH0 MSTORE PUSH1 0x20 PUSH0 KECCAK256 SWAP1 JUMPDEST DUP2 SLOAD DUP2 MSTORE SWAP1 PUSH1 0x1 ADD SWAP1 PUSH1 0x20 ADD DUP1 DUP4 GT PUSH2 0x832 JUMPI DUP3 SWAP1 SUB PUSH1 0x1F AND DUP3 ADD SWAP2 JUMPDEST POP POP POP POP POP SWAP1 POP SWAP2 SWAP1 POP JUMP JUMPDEST PUSH0 PUSH1 0x5 PUSH0 DUP5 PUSH20 0xFFFFFFFFFFFFFFFFFFFFFFFFFFFFFFFFFFFFFFFF AND PUSH20 0xFFFFFFFFFFFFFFFFFFFFFFFFFFFFFFFFFFFFFFFF AND DUP2 MSTORE PUSH1 0x20 ADD SWAP1 DUP2 MSTORE PUSH1 0x20 ADD PUSH0 KECCAK256 PUSH0 DUP4 PUSH20 0xFFFFFFFFFFFFFFFFFFFFFFFFFFFFFFFFFFFFFFFF AND PUSH20 0xFFFFFFFFFFFFFFFFFFFFFFFFFFFFFFFFFFFFFFFF AND DUP2 MSTORE PUSH1 0x20 ADD SWAP1 DUP2 MSTORE PUSH1 0x20 ADD PUSH0 KECCAK256 PUSH0 SWAP1 SLOAD SWAP1 PUSH2 0x100 EXP SWAP1 DIV PUSH1 0xFF AND SWAP1 POP SWAP3 SWAP2 POP POP JUMP JUMPDEST PUSH2 0x8F3 CALLER DUP3 PUSH2 0xF5D JUMP JUMPDEST POP JUMP JUMPDEST PUSH0 PUSH32 0x1FFC9A700000000000000000000000000000000000000000000000000000000 PUSH28 0xFFFFFFFFFFFFFFFFFFFFFFFFFFFFFFFFFFFFFFFFFFFFFFFFFFFFFFFF NOT AND DUP3 PUSH28 0xFFFFFFFFFFFFFFFFFFFFFFFFFFFFFFFFFFFFFFFFFFFFFFFFFFFFFFFF NOT AND EQ SWAP1 POP SWAP2 SWAP1 POP JUMP JUMPDEST PUSH0 DUP1 PUSH2 0x96A DUP4 PUSH2 0x1050 JUMP JUMPDEST SWAP1 POP PUSH0 PUSH20 0xFFFFFFFFFFFFFFFFFFFFFFFFFFFFFFFFFFFFFFFF AND DUP2 PUSH20 0xFFFFFFFFFFFFFFFFFFFFFFFFFFFFFFFFFFFFFFFF AND SUB PUSH2 0x9DC JUMPI DUP3 PUSH1 0x40 MLOAD PUSH32 0x7E27328900000000000000000000000000000000000000000000000000000000 DUP2 MSTORE PUSH1 0x4 ADD PUSH2 0x9D3 SWAP2 SWAP1 PUSH2 0x18E1 JUMP JUMPDEST PUSH1 0x40 MLOAD DUP1 SWAP2 SUB SWAP1 REVERT JUMPDEST DUP1 SWAP2 POP POP SWAP2 SWAP1 POP JUMP JUMPDEST PUSH0 PUSH1 0x4 PUSH0 DUP4 DUP2 MSTORE PUSH1 0x20 ADD SWAP1 DUP2 MSTORE PUSH1 0x20 ADD PUSH0 KECCAK256 PUSH0 SWAP1 SLOAD SWAP1 PUSH2 0x100 EXP SWAP1 DIV PUSH20 0xFFFFFFFFFFFFFFFFFFFFFFFFFFFFFFFFFFFFFFFF AND SWAP1 POP SWAP2 SWAP1 POP JUMP JUMPDEST PUSH0 CALLER SWAP1 POP SWAP1 JUMP JUMPDEST PUSH2 0xA32 DUP4 DUP4 DUP4 PUSH1 0x1 PUSH2 0x1089 JUMP JUMPDEST POP POP POP JUMP JUMPDEST PUSH0 DUP1 PUSH2 0xA42 DUP5 PUSH2 0x1050 JUMP JUMPDEST SWAP1 POP PUSH0 PUSH20 0xFFFFFFFFFFFFFFFFFFFFFFFFFFFFFFFFFFFFFFFF AND DUP4 PUSH20 0xFFFFFFFFFFFFFFFFFFFFFFFFFFFFFFFFFFFFFFFF AND EQ PUSH2 0xA83 JUMPI PUSH2 0xA82 DUP2 DUP5 DUP7 PUSH2 0x1248 JUMP JUMPDEST JUMPDEST PUSH0 PUSH20 0xFFFFFFFFFFFFFFFFFFFFFFFFFFFFFFFFFFFFFFFF AND DUP2 PUSH20 0xFFFFFFFFFFFFFFFFFFFFFFFFFFFFFFFFFFFFFFFF AND EQ PUSH2 0xB0E JUMPI PUSH2 0xAC2 PUSH0 DUP6 PUSH0 DUP1 PUSH2 0x1089 JUMP JUMPDEST PUSH1 0x1 PUSH1 0x3 PUSH0 DUP4 PUSH20 0xFFFFFFFFFFFFFFFFFFFFFFFFFFFFFFFFFFFFFFFF AND PUSH20 0xFFFFFFFFFFFFFFFFFFFFFFFFFFFFFFFFFFFFFFFF AND DUP2 MSTORE PUSH1 0x20 ADD SWAP1 DUP2 MSTORE PUSH1 0x20 ADD PUSH0 KECCAK256 PUSH0 DUP3 DUP3 SLOAD SUB SWAP3 POP POP DUP2 SWAP1 SSTORE POP JUMPDEST PUSH0 PUSH20 0xFFFFFFFFFFFFFFFFFFFFFFFFFFFFFFFFFFFFFFFF AND DUP6 PUSH20 0xFFFFFFFFFFFFFFFFFFFFFFFFFFFFFFFFFFFFFFFF AND EQ PUSH2 0xB8D JUMPI PUSH1 0x1 PUSH1 0x3 PUSH0 DUP8 PUSH20 0xFFFFFFFFFFFFFFFFFFFFFFFFFFFFFFFFFFFFFFFF AND PUSH20 0xFFFFFFFFFFFFFFFFFFFFFFFFFFFFFFFFFFFFFFFF AND DUP2 MSTORE PUSH1 0x20 ADD SWAP1 DUP2 MSTORE PUSH1 0x20 ADD PUSH0 KECCAK256 PUSH0 DUP3 DUP3 SLOAD ADD SWAP3 POP POP DUP2 SWAP1 SSTORE POP JUMPDEST DUP5 PUSH1 0x2 PUSH0 DUP7 DUP2 MSTORE PUSH1 0x20 ADD SWAP1 DUP2 MSTORE PUSH1 0x20 ADD PUSH0 KECCAK256 PUSH0 PUSH2 0x100 EXP DUP2 SLOAD DUP2 PUSH20 0xFFFFFFFFFFFFFFFFFFFFFFFFFFFFFFFFFFFFFFFF MUL NOT AND SWAP1 DUP4 PUSH20 0xFFFFFFFFFFFFFFFFFFFFFFFFFFFFFFFFFFFFFFFF AND MUL OR SWAP1 SSTORE POP DUP4 DUP6 PUSH20 0xFFFFFFFFFFFFFFFFFFFFFFFFFFFFFFFFFFFFFFFF AND DUP3 PUSH20 0xFFFFFFFFFFFFFFFFFFFFFFFFFFFFFFFFFFFFFFFF AND PUSH32 0xDDF252AD1BE2C89B69C2B068FC378DAA952BA7F163C4A11628F55A4DF523B3EF PUSH1 0x40 MLOAD PUSH1 0x40 MLOAD DUP1 SWAP2 SUB SWAP1 LOG4 DUP1 SWAP2 POP POP SWAP4 SWAP3 POP POP POP JUMP JUMPDEST PUSH0 PUSH20 0xFFFFFFFFFFFFFFFFFFFFFFFFFFFFFFFFFFFFFFFF AND DUP3 PUSH20 0xFFFFFFFFFFFFFFFFFFFFFFFFFFFFFFFFFFFFFFFF AND SUB PUSH2 0xCB2 JUMPI DUP2 PUSH1 0x40 MLOAD PUSH32 0x5B08BA1800000000000000000000000000000000000000000000000000000000 DUP2 MSTORE PUSH1 0x4 ADD PUSH2 0xCA9 SWAP2 SWAP1 PUSH2 0x15D6 JUMP JUMPDEST PUSH1 0x40 MLOAD DUP1 SWAP2 SUB SWAP1 REVERT JUMPDEST DUP1 PUSH1 0x5 PUSH0 DUP6 PUSH20 0xFFFFFFFFFFFFFFFFFFFFFFFFFFFFFFFFFFFFFFFF AND PUSH20 0xFFFFFFFFFFFFFFFFFFFFFFFFFFFFFFFFFFFFFFFF AND DUP2 MSTORE PUSH1 0x20 ADD SWAP1 DUP2 MSTORE PUSH1 0x20 ADD PUSH0 KECCAK256 PUSH0 DUP5 PUSH20 0xFFFFFFFFFFFFFFFFFFFFFFFFFFFFFFFFFFFFFFFF AND PUSH20 0xFFFFFFFFFFFFFFFFFFFFFFFFFFFFFFFFFFFFFFFF AND DUP2 MSTORE PUSH1 0x20 ADD SWAP1 DUP2 MSTORE PUSH1 0x20 ADD PUSH0 KECCAK256 PUSH0 PUSH2 0x100 EXP DUP2 SLOAD DUP2 PUSH1 0xFF MUL NOT AND SWAP1 DUP4 ISZERO ISZERO MUL OR SWAP1 SSTORE POP DUP2 PUSH20 0xFFFFFFFFFFFFFFFFFFFFFFFFFFFFFFFFFFFFFFFF AND DUP4 PUSH20 0xFFFFFFFFFFFFFFFFFFFFFFFFFFFFFFFFFFFFFFFF AND PUSH32 0x17307EAB39AB6107E8899845AD3D59BD9653F200F220920489CA2B5937696C31 DUP4 PUSH1 0x40 MLOAD PUSH2 0xD9E SWAP2 SWAP1 PUSH2 0x1476 JUMP JUMPDEST PUSH1 0x40 MLOAD DUP1 SWAP2 SUB SWAP1 LOG3 POP POP POP JUMP JUMPDEST PUSH0 DUP4 PUSH20 0xFFFFFFFFFFFFFFFFFFFFFFFFFFFFFFFFFFFFFFFF AND EXTCODESIZE GT ISZERO PUSH2 0xF57 JUMPI DUP3 PUSH20 0xFFFFFFFFFFFFFFFFFFFFFFFFFFFFFFFFFFFFFFFF AND PUSH4 0x150B7A02 PUSH2 0xDEE PUSH2 0xA1E JUMP JUMPDEST DUP7 DUP6 DUP6 PUSH1 0x40 MLOAD DUP6 PUSH4 0xFFFFFFFF AND PUSH1 0xE0 SHL DUP2 MSTORE PUSH1 0x4 ADD PUSH2 0xE10 SWAP5 SWAP4 SWAP3 SWAP2 SWAP1 PUSH2 0x1DE4 JUMP JUMPDEST PUSH1 0x20 PUSH1 0x40 MLOAD DUP1 DUP4 SUB DUP2 PUSH0 DUP8 GAS CALL SWAP3 POP POP POP DUP1 ISZERO PUSH2 0xE4B JUMPI POP PUSH1 0x40 MLOAD RETURNDATASIZE PUSH1 0x1F NOT PUSH1 0x1F DUP3 ADD AND DUP3 ADD DUP1 PUSH1 0x40 MSTORE POP DUP2 ADD SWAP1 PUSH2 0xE48 SWAP2 SWAP1 PUSH2 0x1E42 JUMP JUMPDEST PUSH1 0x1 JUMPDEST PUSH2 0xECC JUMPI RETURNDATASIZE DUP1 PUSH0 DUP2 EQ PUSH2 0xE79 JUMPI PUSH1 0x40 MLOAD SWAP2 POP PUSH1 0x1F NOT PUSH1 0x3F RETURNDATASIZE ADD AND DUP3 ADD PUSH1 0x40 MSTORE RETURNDATASIZE DUP3 MSTORE RETURNDATASIZE PUSH0 PUSH1 0x20 DUP5 ADD RETURNDATACOPY PUSH2 0xE7E JUMP JUMPDEST PUSH1 0x60 SWAP2 POP JUMPDEST POP PUSH0 DUP2 MLOAD SUB PUSH2 0xEC4 JUMPI DUP4 PUSH1 0x40 MLOAD PUSH32 0x64A0AE9200000000000000000000000000000000000000000000000000000000 DUP2 MSTORE PUSH1 0x4 ADD PUSH2 0xEBB SWAP2 SWAP1 PUSH2 0x15D6 JUMP JUMPDEST PUSH1 0x40 MLOAD DUP1 SWAP2 SUB SWAP1 REVERT JUMPDEST DUP1 MLOAD DUP2 PUSH1 0x20 ADD REVERT JUMPDEST PUSH4 0x150B7A02 PUSH1 0xE0 SHL PUSH28 0xFFFFFFFFFFFFFFFFFFFFFFFFFFFFFFFFFFFFFFFFFFFFFFFFFFFFFFFF NOT AND DUP2 PUSH28 0xFFFFFFFFFFFFFFFFFFFFFFFFFFFFFFFFFFFFFFFFFFFFFFFFFFFFFFFF NOT AND EQ PUSH2 0xF55 JUMPI DUP4 PUSH1 0x40 MLOAD PUSH32 0x64A0AE9200000000000000000000000000000000000000000000000000000000 DUP2 MSTORE PUSH1 0x4 ADD PUSH2 0xF4C SWAP2 SWAP1 PUSH2 0x15D6 JUMP JUMPDEST PUSH1 0x40 MLOAD DUP1 SWAP2 SUB SWAP1 REVERT JUMPDEST POP JUMPDEST POP POP POP POP JUMP JUMPDEST PUSH0 PUSH20 0xFFFFFFFFFFFFFFFFFFFFFFFFFFFFFFFFFFFFFFFF AND DUP3 PUSH20 0xFFFFFFFFFFFFFFFFFFFFFFFFFFFFFFFFFFFFFFFF AND SUB PUSH2 0xFCD JUMPI PUSH0 PUSH1 0x40 MLOAD PUSH32 0x64A0AE9200000000000000000000000000000000000000000000000000000000 DUP2 MSTORE PUSH1 0x4 ADD PUSH2 0xFC4 SWAP2 SWAP1 PUSH2 0x15D6 JUMP JUMPDEST PUSH1 0x40 MLOAD DUP1 SWAP2 SUB SWAP1 REVERT JUMPDEST PUSH0 PUSH2 0xFD9 DUP4 DUP4 PUSH0 PUSH2 0xA37 JUMP JUMPDEST SWAP1 POP PUSH0 PUSH20 0xFFFFFFFFFFFFFFFFFFFFFFFFFFFFFFFFFFFFFFFF AND DUP2 PUSH20 0xFFFFFFFFFFFFFFFFFFFFFFFFFFFFFFFFFFFFFFFF AND EQ PUSH2 0x104B JUMPI PUSH0 PUSH1 0x40 MLOAD PUSH32 0x73C6AC6E00000000000000000000000000000000000000000000000000000000 DUP2 MSTORE PUSH1 0x4 ADD PUSH2 0x1042 SWAP2 SWAP1 PUSH2 0x15D6 JUMP JUMPDEST PUSH1 0x40 MLOAD DUP1 SWAP2 SUB SWAP1 REVERT JUMPDEST POP POP POP JUMP JUMPDEST PUSH0 PUSH1 0x2 PUSH0 DUP4 DUP2 MSTORE PUSH1 0x20 ADD SWAP1 DUP2 MSTORE PUSH1 0x20 ADD PUSH0 KECCAK256 PUSH0 SWAP1 SLOAD SWAP1 PUSH2 0x100 EXP SWAP1 DIV PUSH20 0xFFFFFFFFFFFFFFFFFFFFFFFFFFFFFFFFFFFFFFFF AND SWAP1 POP SWAP2 SWAP1 POP JUMP JUMPDEST DUP1 DUP1 PUSH2 0x10C1 JUMPI POP PUSH0 PUSH20 0xFFFFFFFFFFFFFFFFFFFFFFFFFFFFFFFFFFFFFFFF AND DUP3 PUSH20 0xFFFFFFFFFFFFFFFFFFFFFFFFFFFFFFFFFFFFFFFF AND EQ ISZERO JUMPDEST ISZERO PUSH2 0x11F3 JUMPI PUSH0 PUSH2 0x10D0 DUP5 PUSH2 0x95F JUMP JUMPDEST SWAP1 POP PUSH0 PUSH20 0xFFFFFFFFFFFFFFFFFFFFFFFFFFFFFFFFFFFFFFFF AND DUP4 PUSH20 0xFFFFFFFFFFFFFFFFFFFFFFFFFFFFFFFFFFFFFFFF AND EQ ISZERO DUP1 ISZERO PUSH2 0x113A JUMPI POP DUP3 PUSH20 0xFFFFFFFFFFFFFFFFFFFFFFFFFFFFFFFFFFFFFFFF AND DUP2 PUSH20 0xFFFFFFFFFFFFFFFFFFFFFFFFFFFFFFFFFFFFFFFF AND EQ ISZERO JUMPDEST DUP1 ISZERO PUSH2 0x114D JUMPI POP PUSH2 0x114B DUP2 DUP5 PUSH2 0x85B JUMP JUMPDEST ISZERO JUMPDEST ISZERO PUSH2 0x118F JUMPI DUP3 PUSH1 0x40 MLOAD PUSH32 0xA9FBF51F00000000000000000000000000000000000000000000000000000000 DUP2 MSTORE PUSH1 0x4 ADD PUSH2 0x1186 SWAP2 SWAP1 PUSH2 0x15D6 JUMP JUMPDEST PUSH1 0x40 MLOAD DUP1 SWAP2 SUB SWAP1 REVERT JUMPDEST DUP2 ISZERO PUSH2 0x11F1 JUMPI DUP4 DUP6 PUSH20 0xFFFFFFFFFFFFFFFFFFFFFFFFFFFFFFFFFFFFFFFF AND DUP3 PUSH20 0xFFFFFFFFFFFFFFFFFFFFFFFFFFFFFFFFFFFFFFFF AND PUSH32 0x8C5BE1E5EBEC7D5BD14F71427D1E84F3DD0314C0F7B2291E5B200AC8C7C3B925 PUSH1 0x40 MLOAD PUSH1 0x40 MLOAD DUP1 SWAP2 SUB SWAP1 LOG4 JUMPDEST POP JUMPDEST DUP4 PUSH1 0x4 PUSH0 DUP6 DUP2 MSTORE PUSH1 0x20 ADD SWAP1 DUP2 MSTORE PUSH1 0x20 ADD PUSH0 KECCAK256 PUSH0 PUSH2 0x100 EXP DUP2 SLOAD DUP2 PUSH20 0xFFFFFFFFFFFFFFFFFFFFFFFFFFFFFFFFFFFFFFFF MUL NOT AND SWAP1 DUP4 PUSH20 0xFFFFFFFFFFFFFFFFFFFFFFFFFFFFFFFFFFFFFFFF AND MUL OR SWAP1 SSTORE POP POP POP POP POP JUMP JUMPDEST PUSH2 0x1253 DUP4 DUP4 DUP4 PUSH2 0x130B JUMP JUMPDEST PUSH2 0x1306 JUMPI PUSH0 PUSH20 0xFFFFFFFFFFFFFFFFFFFFFFFFFFFFFFFFFFFFFFFF AND DUP4 PUSH20 0xFFFFFFFFFFFFFFFFFFFFFFFFFFFFFFFFFFFFFFFF AND SUB PUSH2 0x12C7 JUMPI DUP1 PUSH1 0x40 MLOAD PUSH32 0x7E27328900000000000000000000000000000000000000000000000000000000 DUP2 MSTORE PUSH1 0x4 ADD PUSH2 0x12BE SWAP2 SWAP1 PUSH2 0x18E1 JUMP JUMPDEST PUSH1 0x40 MLOAD DUP1 SWAP2 SUB SWAP1 REVERT JUMPDEST DUP2 DUP2 PUSH1 0x40 MLOAD PUSH32 0x177E802F00000000000000000000000000000000000000000000000000000000 DUP2 MSTORE PUSH1 0x4 ADD PUSH2 0x12FD SWAP3 SWAP2 SWAP1 PUSH2 0x1E6D JUMP JUMPDEST PUSH1 0x40 MLOAD DUP1 SWAP2 SUB SWAP1 REVERT JUMPDEST POP POP POP JUMP JUMPDEST PUSH0 DUP1 PUSH20 0xFFFFFFFFFFFFFFFFFFFFFFFFFFFFFFFFFFFFFFFF AND DUP4 PUSH20 0xFFFFFFFFFFFFFFFFFFFFFFFFFFFFFFFFFFFFFFFF AND EQ ISZERO DUP1 ISZERO PUSH2 0x13C2 JUMPI POP DUP3 PUSH20 0xFFFFFFFFFFFFFFFFFFFFFFFFFFFFFFFFFFFFFFFF AND DUP5 PUSH20 0xFFFFFFFFFFFFFFFFFFFFFFFFFFFFFFFFFFFFFFFF AND EQ DUP1 PUSH2 0x1383 JUMPI POP PUSH2 0x1382 DUP5 DUP5 PUSH2 0x85B JUMP JUMPDEST JUMPDEST DUP1 PUSH2 0x13C1 JUMPI POP DUP3 PUSH20 0xFFFFFFFFFFFFFFFFFFFFFFFFFFFFFFFFFFFFFFFF AND PUSH2 0x13A9 DUP4 PUSH2 0x9E5 JUMP JUMPDEST PUSH20 0xFFFFFFFFFFFFFFFFFFFFFFFFFFFFFFFFFFFFFFFF AND EQ JUMPDEST JUMPDEST SWAP1 POP SWAP4 SWAP3 POP POP POP JUMP JUMPDEST PUSH0 PUSH1 0x40 MLOAD SWAP1 POP SWAP1 JUMP JUMPDEST PUSH0 DUP1 REVERT JUMPDEST PUSH0 DUP1 REVERT JUMPDEST PUSH0 PUSH32 0xFFFFFFFF00000000000000000000000000000000000000000000000000000000 DUP3 AND SWAP1 POP SWAP2 SWAP1 POP JUMP JUMPDEST PUSH2 0x1410 DUP2 PUSH2 0x13DC JUMP JUMPDEST DUP2 EQ PUSH2 0x141A JUMPI PUSH0 DUP1 REVERT JUMPDEST POP JUMP JUMPDEST PUSH0 DUP2 CALLDATALOAD SWAP1 POP PUSH2 0x142B DUP2 PUSH2 0x1407 JUMP JUMPDEST SWAP3 SWAP2 POP POP JUMP JUMPDEST PUSH0 PUSH1 0x20 DUP3 DUP5 SUB SLT ISZERO PUSH2 0x1446 JUMPI PUSH2 0x1445 PUSH2 0x13D4 JUMP JUMPDEST JUMPDEST PUSH0 PUSH2 0x1453 DUP5 DUP3 DUP6 ADD PUSH2 0x141D JUMP JUMPDEST SWAP2 POP POP SWAP3 SWAP2 POP POP JUMP JUMPDEST PUSH0 DUP2 ISZERO ISZERO SWAP1 POP SWAP2 SWAP1 POP JUMP JUMPDEST PUSH2 0x1470 DUP2 PUSH2 0x145C JUMP JUMPDEST DUP3 MSTORE POP POP JUMP JUMPDEST PUSH0 PUSH1 0x20 DUP3 ADD SWAP1 POP PUSH2 0x1489 PUSH0 DUP4 ADD DUP5 PUSH2 0x1467 JUMP JUMPDEST SWAP3 SWAP2 POP POP JUMP JUMPDEST PUSH0 DUP2 MLOAD SWAP1 POP SWAP2 SWAP1 POP JUMP JUMPDEST PUSH0 DUP3 DUP3 MSTORE PUSH1 0x20 DUP3 ADD SWAP1 POP SWAP3 SWAP2 POP POP JUMP JUMPDEST PUSH0 JUMPDEST DUP4 DUP2 LT ISZERO PUSH2 0x14C6 JUMPI DUP1 DUP3 ADD MLOAD DUP2 DUP5 ADD MSTORE PUSH1 0x20 DUP2 ADD SWAP1 POP PUSH2 0x14AB JUMP JUMPDEST PUSH0 DUP5 DUP5 ADD MSTORE POP POP POP POP JUMP JUMPDEST PUSH0 PUSH1 0x1F NOT PUSH1 0x1F DUP4 ADD AND SWAP1 POP SWAP2 SWAP1 POP JUMP JUMPDEST PUSH0 PUSH2 0x14EB DUP3 PUSH2 0x148F JUMP JUMPDEST PUSH2 0x14F5 DUP2 DUP6 PUSH2 0x1499 JUMP JUMPDEST SWAP4 POP PUSH2 0x1505 DUP2 DUP6 PUSH1 0x20 DUP7 ADD PUSH2 0x14A9 JUMP JUMPDEST PUSH2 0x150E DUP2 PUSH2 0x14D1 JUMP JUMPDEST DUP5 ADD SWAP2 POP POP SWAP3 SWAP2 POP POP JUMP JUMPDEST PUSH0 PUSH1 0x20 DUP3 ADD SWAP1 POP DUP2 DUP2 SUB PUSH0 DUP4 ADD MSTORE PUSH2 0x1531 DUP2 DUP5 PUSH2 0x14E1 JUMP JUMPDEST SWAP1 POP SWAP3 SWAP2 POP POP JUMP JUMPDEST PUSH0 DUP2 SWAP1 POP SWAP2 SWAP1 POP JUMP JUMPDEST PUSH2 0x154B DUP2 PUSH2 0x1539 JUMP JUMPDEST DUP2 EQ PUSH2 0x1555 JUMPI PUSH0 DUP1 REVERT JUMPDEST POP JUMP JUMPDEST PUSH0 DUP2 CALLDATALOAD SWAP1 POP PUSH2 0x1566 DUP2 PUSH2 0x1542 JUMP JUMPDEST SWAP3 SWAP2 POP POP JUMP JUMPDEST PUSH0 PUSH1 0x20 DUP3 DUP5 SUB SLT ISZERO PUSH2 0x1581 JUMPI PUSH2 0x1580 PUSH2 0x13D4 JUMP JUMPDEST JUMPDEST PUSH0 PUSH2 0x158E DUP5 DUP3 DUP6 ADD PUSH2 0x1558 JUMP JUMPDEST SWAP2 POP POP SWAP3 SWAP2 POP POP JUMP JUMPDEST PUSH0 PUSH20 0xFFFFFFFFFFFFFFFFFFFFFFFFFFFFFFFFFFFFFFFF DUP3 AND SWAP1 POP SWAP2 SWAP1 POP JUMP JUMPDEST PUSH0 PUSH2 0x15C0 DUP3 PUSH2 0x1597 JUMP JUMPDEST SWAP1 POP SWAP2 SWAP1 POP JUMP JUMPDEST PUSH2 0x15D0 DUP2 PUSH2 0x15B6 JUMP JUMPDEST DUP3 MSTORE POP POP JUMP JUMPDEST PUSH0 PUSH1 0x20 DUP3 ADD SWAP1 POP PUSH2 0x15E9 PUSH0 DUP4 ADD DUP5 PUSH2 0x15C7 JUMP JUMPDEST SWAP3 SWAP2 POP POP JUMP JUMPDEST PUSH2 0x15F8 DUP2 PUSH2 0x15B6 JUMP JUMPDEST DUP2 EQ PUSH2 0x1602 JUMPI PUSH0 DUP1 REVERT JUMPDEST POP JUMP JUMPDEST PUSH0 DUP2 CALLDATALOAD SWAP1 POP PUSH2 0x1613 DUP2 PUSH2 0x15EF JUMP JUMPDEST SWAP3 SWAP2 POP POP JUMP JUMPDEST PUSH0 DUP1 PUSH1 0x40 DUP4 DUP6 SUB SLT ISZERO PUSH2 0x162F JUMPI PUSH2 0x162E PUSH2 0x13D4 JUMP JUMPDEST JUMPDEST PUSH0 PUSH2 0x163C DUP6 DUP3 DUP7 ADD PUSH2 0x1605 JUMP JUMPDEST SWAP3 POP POP PUSH1 0x20 PUSH2 0x164D DUP6 DUP3 DUP7 ADD PUSH2 0x1558 JUMP JUMPDEST SWAP2 POP POP SWAP3 POP SWAP3 SWAP1 POP JUMP JUMPDEST PUSH0 DUP1 REVERT JUMPDEST PUSH0 DUP1 REVERT JUMPDEST PUSH32 0x4E487B7100000000000000000000000000000000000000000000000000000000 PUSH0 MSTORE PUSH1 0x41 PUSH1 0x4 MSTORE PUSH1 0x24 PUSH0 REVERT JUMPDEST PUSH2 0x1695 DUP3 PUSH2 0x14D1 JUMP JUMPDEST DUP2 ADD DUP2 DUP2 LT PUSH8 0xFFFFFFFFFFFFFFFF DUP3 GT OR ISZERO PUSH2 0x16B4 JUMPI PUSH2 0x16B3 PUSH2 0x165F JUMP JUMPDEST JUMPDEST DUP1 PUSH1 0x40 MSTORE POP POP POP JUMP JUMPDEST PUSH0 PUSH2 0x16C6 PUSH2 0x13CB JUMP JUMPDEST SWAP1 POP PUSH2 0x16D2 DUP3 DUP3 PUSH2 0x168C JUMP JUMPDEST SWAP2 SWAP1 POP JUMP JUMPDEST PUSH0 PUSH8 0xFFFFFFFFFFFFFFFF DUP3 GT ISZERO PUSH2 0x16F1 JUMPI PUSH2 0x16F0 PUSH2 0x165F JUMP JUMPDEST JUMPDEST PUSH2 0x16FA DUP3 PUSH2 0x14D1 JUMP JUMPDEST SWAP1 POP PUSH1 0x20 DUP2 ADD SWAP1 POP SWAP2 SWAP1 POP JUMP JUMPDEST DUP3 DUP2 DUP4 CALLDATACOPY PUSH0 DUP4 DUP4 ADD MSTORE POP POP POP JUMP JUMPDEST PUSH0 PUSH2 0x1727 PUSH2 0x1722 DUP5 PUSH2 0x16D7 JUMP JUMPDEST PUSH2 0x16BD JUMP JUMPDEST SWAP1 POP DUP3 DUP2 MSTORE PUSH1 0x20 DUP2 ADD DUP5 DUP5 DUP5 ADD GT ISZERO PUSH2 0x1743 JUMPI PUSH2 0x1742 PUSH2 0x165B JUMP JUMPDEST JUMPDEST PUSH2 0x174E DUP5 DUP3 DUP6 PUSH2 0x1707 JUMP JUMPDEST POP SWAP4 SWAP3 POP POP POP JUMP JUMPDEST PUSH0 DUP3 PUSH1 0x1F DUP4 ADD SLT PUSH2 0x176A JUMPI PUSH2 0x1769 PUSH2 0x1657 JUMP JUMPDEST JUMPDEST DUP2 CALLDATALOAD PUSH2 0x177A DUP5 DUP3 PUSH1 0x20 DUP7 ADD PUSH2 0x1715 JUMP JUMPDEST SWAP2 POP POP SWAP3 SWAP2 POP POP JUMP JUMPDEST PUSH0 DUP1 PUSH1 0x40 DUP4 DUP6 SUB SLT ISZERO PUSH2 0x1799 JUMPI PUSH2 0x1798 PUSH2 0x13D4 JUMP JUMPDEST JUMPDEST PUSH0 PUSH2 0x17A6 DUP6 DUP3 DUP7 ADD PUSH2 0x1558 JUMP JUMPDEST SWAP3 POP POP PUSH1 0x20 DUP4 ADD CALLDATALOAD PUSH8 0xFFFFFFFFFFFFFFFF DUP2 GT ISZERO PUSH2 0x17C7 JUMPI PUSH2 0x17C6 PUSH2 0x13D8 JUMP JUMPDEST JUMPDEST PUSH2 0x17D3 DUP6 DUP3 DUP7 ADD PUSH2 0x1756 JUMP JUMPDEST SWAP2 POP POP SWAP3 POP SWAP3 SWAP1 POP JUMP JUMPDEST PUSH0 DUP1 PUSH0 PUSH1 0x60 DUP5 DUP7 SUB SLT ISZERO PUSH2 0x17F4 JUMPI PUSH2 0x17F3 PUSH2 0x13D4 JUMP JUMPDEST JUMPDEST PUSH0 PUSH2 0x1801 DUP7 DUP3 DUP8 ADD PUSH2 0x1605 JUMP JUMPDEST SWAP4 POP POP PUSH1 0x20 PUSH2 0x1812 DUP7 DUP3 DUP8 ADD PUSH2 0x1605 JUMP JUMPDEST SWAP3 POP POP PUSH1 0x40 PUSH2 0x1823 DUP7 DUP3 DUP8 ADD PUSH2 0x1558 JUMP JUMPDEST SWAP2 POP POP SWAP3 POP SWAP3 POP SWAP3 JUMP JUMPDEST PUSH2 0x1836 DUP2 PUSH2 0x145C JUMP JUMPDEST DUP2 EQ PUSH2 0x1840 JUMPI PUSH0 DUP1 REVERT JUMPDEST POP JUMP JUMPDEST PUSH0 DUP2 CALLDATALOAD SWAP1 POP PUSH2 0x1851 DUP2 PUSH2 0x182D JUMP JUMPDEST SWAP3 SWAP2 POP POP JUMP JUMPDEST PUSH0 DUP1 PUSH0 PUSH1 0x60 DUP5 DUP7 SUB SLT ISZERO PUSH2 0x186E JUMPI PUSH2 0x186D PUSH2 0x13D4 JUMP JUMPDEST JUMPDEST PUSH0 PUSH2 0x187B DUP7 DUP3 DUP8 ADD PUSH2 0x1605 JUMP JUMPDEST SWAP4 POP POP PUSH1 0x20 PUSH2 0x188C DUP7 DUP3 DUP8 ADD PUSH2 0x1605 JUMP JUMPDEST SWAP3 POP POP PUSH1 0x40 PUSH2 0x189D DUP7 DUP3 DUP8 ADD PUSH2 0x1843 JUMP JUMPDEST SWAP2 POP POP SWAP3 POP SWAP3 POP SWAP3 JUMP JUMPDEST PUSH0 PUSH1 0x20 DUP3 DUP5 SUB SLT ISZERO PUSH2 0x18BC JUMPI PUSH2 0x18BB PUSH2 0x13D4 JUMP JUMPDEST JUMPDEST PUSH0 PUSH2 0x18C9 DUP5 DUP3 DUP6 ADD PUSH2 0x1605 JUMP JUMPDEST SWAP2 POP POP SWAP3 SWAP2 POP POP JUMP JUMPDEST PUSH2 0x18DB DUP2 PUSH2 0x1539 JUMP JUMPDEST DUP3 MSTORE POP POP JUMP JUMPDEST PUSH0 PUSH1 0x20 DUP3 ADD SWAP1 POP PUSH2 0x18F4 PUSH0 DUP4 ADD DUP5 PUSH2 0x18D2 JUMP JUMPDEST SWAP3 SWAP2 POP POP JUMP JUMPDEST PUSH0 DUP1 PUSH1 0x40 DUP4 DUP6 SUB SLT ISZERO PUSH2 0x1910 JUMPI PUSH2 0x190F PUSH2 0x13D4 JUMP JUMPDEST JUMPDEST PUSH0 PUSH2 0x191D DUP6 DUP3 DUP7 ADD PUSH2 0x1605 JUMP JUMPDEST SWAP3 POP POP PUSH1 0x20 PUSH2 0x192E DUP6 DUP3 DUP7 ADD PUSH2 0x1843 JUMP JUMPDEST SWAP2 POP POP SWAP3 POP SWAP3 SWAP1 POP JUMP JUMPDEST PUSH0 PUSH8 0xFFFFFFFFFFFFFFFF DUP3 GT ISZERO PUSH2 0x1952 JUMPI PUSH2 0x1951 PUSH2 0x165F JUMP JUMPDEST JUMPDEST PUSH2 0x195B DUP3 PUSH2 0x14D1 JUMP JUMPDEST SWAP1 POP PUSH1 0x20 DUP2 ADD SWAP1 POP SWAP2 SWAP1 POP JUMP JUMPDEST PUSH0 PUSH2 0x197A PUSH2 0x1975 DUP5 PUSH2 0x1938 JUMP JUMPDEST PUSH2 0x16BD JUMP JUMPDEST SWAP1 POP DUP3 DUP2 MSTORE PUSH1 0x20 DUP2 ADD DUP5 DUP5 DUP5 ADD GT ISZERO PUSH2 0x1996 JUMPI PUSH2 0x1995 PUSH2 0x165B JUMP JUMPDEST JUMPDEST PUSH2 0x19A1 DUP5 DUP3 DUP6 PUSH2 0x1707 JUMP JUMPDEST POP SWAP4 SWAP3 POP POP POP JUMP JUMPDEST PUSH0 DUP3 PUSH1 0x1F DUP4 ADD SLT PUSH2 0x19BD JUMPI PUSH2 0x19BC PUSH2 0x1657 JUMP JUMPDEST JUMPDEST DUP2 CALLDATALOAD PUSH2 0x19CD DUP5 DUP3 PUSH1 0x20 DUP7 ADD PUSH2 0x1968 JUMP JUMPDEST SWAP2 POP POP SWAP3 SWAP2 POP POP JUMP JUMPDEST PUSH0 DUP1 PUSH0 DUP1 PUSH1 0x80 DUP6 DUP8 SUB SLT ISZERO PUSH2 0x19EE JUMPI PUSH2 0x19ED PUSH2 0x13D4 JUMP JUMPDEST JUMPDEST PUSH0 PUSH2 0x19FB DUP8 DUP3 DUP9 ADD PUSH2 0x1605 JUMP JUMPDEST SWAP5 POP POP PUSH1 0x20 PUSH2 0x1A0C DUP8 DUP3 DUP9 ADD PUSH2 0x1605 JUMP JUMPDEST SWAP4 POP POP PUSH1 0x40 PUSH2 0x1A1D DUP8 DUP3 DUP9 ADD PUSH2 0x1558 JUMP JUMPDEST SWAP3 POP POP PUSH1 0x60 DUP6 ADD CALLDATALOAD PUSH8 0xFFFFFFFFFFFFFFFF DUP2 GT ISZERO PUSH2 0x1A3E JUMPI PUSH2 0x1A3D PUSH2 0x13D8 JUMP JUMPDEST JUMPDEST PUSH2 0x1A4A DUP8 DUP3 DUP9 ADD PUSH2 0x19A9 JUMP JUMPDEST SWAP2 POP POP SWAP3 SWAP6 SWAP2 SWAP5 POP SWAP3 POP JUMP JUMPDEST PUSH0 DUP1 PUSH1 0x40 DUP4 DUP6 SUB SLT ISZERO PUSH2 0x1A6C JUMPI PUSH2 0x1A6B PUSH2 0x13D4 JUMP JUMPDEST JUMPDEST PUSH0 PUSH2 0x1A79 DUP6 DUP3 DUP7 ADD PUSH2 0x1605 JUMP JUMPDEST SWAP3 POP POP PUSH1 0x20 PUSH2 0x1A8A DUP6 DUP3 DUP7 ADD PUSH2 0x1605 JUMP JUMPDEST SWAP2 POP POP SWAP3 POP SWAP3 SWAP1 POP JUMP JUMPDEST PUSH32 0x4E487B7100000000000000000000000000000000000000000000000000000000 PUSH0 MSTORE PUSH1 0x22 PUSH1 0x4 MSTORE PUSH1 0x24 PUSH0 REVERT JUMPDEST PUSH0 PUSH1 0x2 DUP3 DIV SWAP1 POP PUSH1 0x1 DUP3 AND DUP1 PUSH2 0x1AD8 JUMPI PUSH1 0x7F DUP3 AND SWAP2 POP JUMPDEST PUSH1 0x20 DUP3 LT DUP2 SUB PUSH2 0x1AEB JUMPI PUSH2 0x1AEA PUSH2 0x1A94 JUMP JUMPDEST JUMPDEST POP SWAP2 SWAP1 POP JUMP JUMPDEST PUSH0 DUP2 SWAP1 POP DUP2 PUSH0 MSTORE PUSH1 0x20 PUSH0 KECCAK256 SWAP1 POP SWAP2 SWAP1 POP JUMP JUMPDEST PUSH0 PUSH1 0x20 PUSH1 0x1F DUP4 ADD DIV SWAP1 POP SWAP2 SWAP1 POP JUMP JUMPDEST PUSH0 DUP3 DUP3 SHL SWAP1 POP SWAP3 SWAP2 POP POP JUMP JUMPDEST PUSH0 PUSH1 0x8 DUP4 MUL PUSH2 0x1B4D PUSH32 0xFFFFFFFFFFFFFFFFFFFFFFFFFFFFFFFFFFFFFFFFFFFFFFFFFFFFFFFFFFFFFFFF DUP3 PUSH2 0x1B12 JUMP JUMPDEST PUSH2 0x1B57 DUP7 DUP4 PUSH2 0x1B12 JUMP JUMPDEST SWAP6 POP DUP1 NOT DUP5 AND SWAP4 POP DUP1 DUP7 AND DUP5 OR SWAP3 POP POP POP SWAP4 SWAP3 POP POP POP JUMP JUMPDEST PUSH0 DUP2 SWAP1 POP SWAP2 SWAP1 POP JUMP JUMPDEST PUSH0 PUSH2 0x1B92 PUSH2 0x1B8D PUSH2 0x1B88 DUP5 PUSH2 0x1539 JUMP JUMPDEST PUSH2 0x1B6F JUMP JUMPDEST PUSH2 0x1539 JUMP JUMPDEST SWAP1 POP SWAP2 SWAP1 POP JUMP JUMPDEST PUSH0 DUP2 SWAP1 POP SWAP2 SWAP1 POP JUMP JUMPDEST PUSH2 0x1BAB DUP4 PUSH2 0x1B78 JUMP JUMPDEST PUSH2 0x1BBF PUSH2 0x1BB7 DUP3 PUSH2 0x1B99 JUMP JUMPDEST DUP5 DUP5 SLOAD PUSH2 0x1B1E JUMP JUMPDEST DUP3 SSTORE POP POP POP POP JUMP JUMPDEST PUSH0 SWAP1 JUMP JUMPDEST PUSH2 0x1BD3 PUSH2 0x1BC7 JUMP JUMPDEST PUSH2 0x1BDE DUP2 DUP5 DUP5 PUSH2 0x1BA2 JUMP JUMPDEST POP POP POP JUMP JUMPDEST JUMPDEST DUP2 DUP2 LT ISZERO PUSH2 0x1C01 JUMPI PUSH2 0x1BF6 PUSH0 DUP3 PUSH2 0x1BCB JUMP JUMPDEST PUSH1 0x1 DUP2 ADD SWAP1 POP PUSH2 0x1BE4 JUMP JUMPDEST POP POP JUMP JUMPDEST PUSH1 0x1F DUP3 GT ISZERO PUSH2 0x1C46 JUMPI PUSH2 0x1C17 DUP2 PUSH2 0x1AF1 JUMP JUMPDEST PUSH2 0x1C20 DUP5 PUSH2 0x1B03 JUMP JUMPDEST DUP2 ADD PUSH1 0x20 DUP6 LT ISZERO PUSH2 0x1C2F JUMPI DUP2 SWAP1 POP JUMPDEST PUSH2 0x1C43 PUSH2 0x1C3B DUP6 PUSH2 0x1B03 JUMP JUMPDEST DUP4 ADD DUP3 PUSH2 0x1BE3 JUMP JUMPDEST POP POP JUMPDEST POP POP POP JUMP JUMPDEST PUSH0 DUP3 DUP3 SHR SWAP1 POP SWAP3 SWAP2 POP POP JUMP JUMPDEST PUSH0 PUSH2 0x1C66 PUSH0 NOT DUP5 PUSH1 0x8 MUL PUSH2 0x1C4B JUMP JUMPDEST NOT DUP1 DUP4 AND SWAP2 POP POP SWAP3 SWAP2 POP POP JUMP JUMPDEST PUSH0 PUSH2 0x1C7E DUP4 DUP4 PUSH2 0x1C57 JUMP JUMPDEST SWAP2 POP DUP3 PUSH1 0x2 MUL DUP3 OR SWAP1 POP SWAP3 SWAP2 POP POP JUMP JUMPDEST PUSH2 0x1C97 DUP3 PUSH2 0x148F JUMP JUMPDEST PUSH8 0xFFFFFFFFFFFFFFFF DUP2 GT ISZERO PUSH2 0x1CB0 JUMPI PUSH2 0x1CAF PUSH2 0x165F JUMP JUMPDEST JUMPDEST PUSH2 0x1CBA DUP3 SLOAD PUSH2 0x1AC1 JUMP JUMPDEST PUSH2 0x1CC5 DUP3 DUP3 DUP6 PUSH2 0x1C05 JUMP JUMPDEST PUSH0 PUSH1 0x20 SWAP1 POP PUSH1 0x1F DUP4 GT PUSH1 0x1 DUP2 EQ PUSH2 0x1CF6 JUMPI PUSH0 DUP5 ISZERO PUSH2 0x1CE4 JUMPI DUP3 DUP8 ADD MLOAD SWAP1 POP JUMPDEST PUSH2 0x1CEE DUP6 DUP3 PUSH2 0x1C73 JUMP JUMPDEST DUP7 SSTORE POP PUSH2 0x1D55 JUMP JUMPDEST PUSH1 0x1F NOT DUP5 AND PUSH2 0x1D04 DUP7 PUSH2 0x1AF1 JUMP JUMPDEST PUSH0 JUMPDEST DUP3 DUP2 LT ISZERO PUSH2 0x1D2B JUMPI DUP5 DUP10 ADD MLOAD DUP3 SSTORE PUSH1 0x1 DUP3 ADD SWAP2 POP PUSH1 0x20 DUP6 ADD SWAP5 POP PUSH1 0x20 DUP2 ADD SWAP1 POP PUSH2 0x1D06 JUMP JUMPDEST DUP7 DUP4 LT ISZERO PUSH2 0x1D48 JUMPI DUP5 DUP10 ADD MLOAD PUSH2 0x1D44 PUSH1 0x1F DUP10 AND DUP3 PUSH2 0x1C57 JUMP JUMPDEST DUP4 SSTORE POP JUMPDEST PUSH1 0x1 PUSH1 0x2 DUP9 MUL ADD DUP9 SSTORE POP POP POP JUMPDEST POP POP POP POP POP POP JUMP JUMPDEST PUSH0 PUSH1 0x60 DUP3 ADD SWAP1 POP PUSH2 0x1D70 PUSH0 DUP4 ADD DUP7 PUSH2 0x15C7 JUMP JUMPDEST PUSH2 0x1D7D PUSH1 0x20 DUP4 ADD DUP6 PUSH2 0x18D2 JUMP JUMPDEST PUSH2 0x1D8A PUSH1 0x40 DUP4 ADD DUP5 PUSH2 0x15C7 JUMP JUMPDEST SWAP5 SWAP4 POP POP POP POP JUMP JUMPDEST PUSH0 DUP2 MLOAD SWAP1 POP SWAP2 SWAP1 POP JUMP JUMPDEST PUSH0 DUP3 DUP3 MSTORE PUSH1 0x20 DUP3 ADD SWAP1 POP SWAP3 SWAP2 POP POP JUMP JUMPDEST PUSH0 PUSH2 0x1DB6 DUP3 PUSH2 0x1D92 JUMP JUMPDEST PUSH2 0x1DC0 DUP2 DUP6 PUSH2 0x1D9C JUMP JUMPDEST SWAP4 POP PUSH2 0x1DD0 DUP2 DUP6 PUSH1 0x20 DUP7 ADD PUSH2 0x14A9 JUMP JUMPDEST PUSH2 0x1DD9 DUP2 PUSH2 0x14D1 JUMP JUMPDEST DUP5 ADD SWAP2 POP POP SWAP3 SWAP2 POP POP JUMP JUMPDEST PUSH0 PUSH1 0x80 DUP3 ADD SWAP1 POP PUSH2 0x1DF7 PUSH0 DUP4 ADD DUP8 PUSH2 0x15C7 JUMP JUMPDEST PUSH2 0x1E04 PUSH1 0x20 DUP4 ADD DUP7 PUSH2 0x15C7 JUMP JUMPDEST PUSH2 0x1E11 PUSH1 0x40 DUP4 ADD DUP6 PUSH2 0x18D2 JUMP JUMPDEST DUP2 DUP2 SUB PUSH1 0x60 DUP4 ADD MSTORE PUSH2 0x1E23 DUP2 DUP5 PUSH2 0x1DAC JUMP JUMPDEST SWAP1 POP SWAP6 SWAP5 POP POP POP POP POP JUMP JUMPDEST PUSH0 DUP2 MLOAD SWAP1 POP PUSH2 0x1E3C DUP2 PUSH2 0x1407 JUMP JUMPDEST SWAP3 SWAP2 POP POP JUMP JUMPDEST PUSH0 PUSH1 0x20 DUP3 DUP5 SUB SLT ISZERO PUSH2 0x1E57 JUMPI PUSH2 0x1E56 PUSH2 0x13D4 JUMP JUMPDEST JUMPDEST PUSH0 PUSH2 0x1E64 DUP5 DUP3 DUP6 ADD PUSH2 0x1E2E JUMP JUMPDEST SWAP2 POP POP SWAP3 SWAP2 POP POP JUMP JUMPDEST PUSH0 PUSH1 0x40 DUP3 ADD SWAP1 POP PUSH2 0x1E80 PUSH0 DUP4 ADD DUP6 PUSH2 0x15C7 JUMP JUMPDEST PUSH2 0x1E8D PUSH1 0x20 DUP4 ADD DUP5 PUSH2 0x18D2 JUMP JUMPDEST SWAP4 SWAP3 POP POP POP JUMP INVALID LOG2 PUSH5 0x6970667358 0x22 SLT KECCAK256 0xDE PUSH12 0x8E5E212C4D4FD8DA0B2D1831 0xF7 MOD 0xEF 0x4B 0xC8 DUP9 0xC4 CALLDATALOAD KECCAK256 0xD9 ADDMOD 0xA8 SWAP2 PUSH2 0x8FFB ORIGIN 0xEC PUSH5 0x736F6C6343 STOP ADDMOD EQ STOP CALLER "
				},
				"gasEstimates": {
					"creation": {
						"codeDepositCost": "1576400",
						"executionCost": "infinite",
						"totalCost": "infinite"
					},
					"external": {
						"approve(address,uint256)": "infinite",
						"balanceOf(address)": "infinite",
						"getApproved(uint256)": "infinite",
						"isApprovedForAll(address,address)": "infinite",
						"minting(uint256)": "102589",
						"name()": "infinite",
						"ownerOf(uint256)": "infinite",
						"safeTransferFrom(address,address,uint256)": "infinite",
						"safeTransferFrom(address,address,uint256,bytes)": "infinite",
						"setAppAll(address,address,bool)": "infinite",
						"setApprovalForAll(address,bool)": "infinite",
						"setTokenURI(uint256,string)": "infinite",
						"supportsInterface(bytes4)": "787",
						"symbol()": "infinite",
						"tokenURI(uint256)": "infinite",
						"transferFrom(address,address,uint256)": "infinite"
					},
					"internal": {
						"_baseURI()": "infinite"
					}
				},
				"methodIdentifiers": {
					"approve(address,uint256)": "095ea7b3",
					"balanceOf(address)": "70a08231",
					"getApproved(uint256)": "081812fc",
					"isApprovedForAll(address,address)": "e985e9c5",
					"minting(uint256)": "f2cee92b",
					"name()": "06fdde03",
					"ownerOf(uint256)": "6352211e",
					"safeTransferFrom(address,address,uint256)": "42842e0e",
					"safeTransferFrom(address,address,uint256,bytes)": "b88d4fde",
					"setAppAll(address,address,bool)": "29d6724e",
					"setApprovalForAll(address,bool)": "a22cb465",
					"setTokenURI(uint256,string)": "162094c4",
					"supportsInterface(bytes4)": "01ffc9a7",
					"symbol()": "95d89b41",
					"tokenURI(uint256)": "c87b56dd",
					"transferFrom(address,address,uint256)": "23b872dd"
				}
			},
			"storageLayout": {
				"storage": [
					{
						"astId": 255,
						"contract": "myNFT.sol:MyNFT",
						"label": "_name",
						"offset": 0,
						"slot": "0",
						"type": "t_string_storage"
					},
					{
						"astId": 257,
						"contract": "myNFT.sol:MyNFT",
						"label": "_symbol",
						"offset": 0,
						"slot": "1",
						"type": "t_string_storage"
					},
					{
						"astId": 261,
						"contract": "myNFT.sol:MyNFT",
						"label": "_owners",
						"offset": 0,
						"slot": "2",
						"type": "t_mapping(t_uint256,t_address)"
					},
					{
						"astId": 265,
						"contract": "myNFT.sol:MyNFT",
						"label": "_balances",
						"offset": 0,
						"slot": "3",
						"type": "t_mapping(t_address,t_uint256)"
					},
					{
						"astId": 269,
						"contract": "myNFT.sol:MyNFT",
						"label": "_tokenApprovals",
						"offset": 0,
						"slot": "4",
						"type": "t_mapping(t_uint256,t_address)"
					},
					{
						"astId": 275,
						"contract": "myNFT.sol:MyNFT",
						"label": "_operatorApprovals",
						"offset": 0,
						"slot": "5",
						"type": "t_mapping(t_address,t_mapping(t_address,t_bool))"
					},
					{
						"astId": 20,
						"contract": "myNFT.sol:MyNFT",
						"label": "_tokenURIs",
						"offset": 0,
						"slot": "6",
						"type": "t_mapping(t_uint256,t_string_storage)"
					}
				],
				"types": {
					"t_address": {
						"encoding": "inplace",
						"label": "address",
						"numberOfBytes": "20"
					},
					"t_bool": {
						"encoding": "inplace",
						"label": "bool",
						"numberOfBytes": "1"
					},
					"t_mapping(t_address,t_bool)": {
						"encoding": "mapping",
						"key": "t_address",
						"label": "mapping(address => bool)",
						"numberOfBytes": "32",
						"value": "t_bool"
					},
					"t_mapping(t_address,t_mapping(t_address,t_bool))": {
						"encoding": "mapping",
						"key": "t_address",
						"label": "mapping(address => mapping(address => bool))",
						"numberOfBytes": "32",
						"value": "t_mapping(t_address,t_bool)"
					},
					"t_mapping(t_address,t_uint256)": {
						"encoding": "mapping",
						"key": "t_address",
						"label": "mapping(address => uint256)",
						"numberOfBytes": "32",
						"value": "t_uint256"
					},
					"t_mapping(t_uint256,t_address)": {
						"encoding": "mapping",
						"key": "t_uint256",
						"label": "mapping(uint256 => address)",
						"numberOfBytes": "32",
						"value": "t_address"
					},
					"t_mapping(t_uint256,t_string_storage)": {
						"encoding": "mapping",
						"key": "t_uint256",
						"label": "mapping(uint256 => string)",
						"numberOfBytes": "32",
						"value": "t_string_storage"
					},
					"t_string_storage": {
						"encoding": "bytes",
						"label": "string",
						"numberOfBytes": "32"
					},
					"t_uint256": {
						"encoding": "inplace",
						"label": "uint256",
						"numberOfBytes": "32"
					}
				}
			},
			"userdoc": {
				"kind": "user",
				"methods": {},
				"version": 1
			}
		}
	}
}