{
	"myNFT.sol": {
		"MyNFT": {
			"abi": [
				{
					"inputs": [
						{
							"internalType": "string",
							"name": "_name",
							"type": "string"
						},
						{
							"internalType": "string",
							"name": "_symbol",
							"type": "string"
						}
					],
					"stateMutability": "nonpayable",
					"type": "constructor"
				},
				{
					"inputs": [
						{
							"internalType": "address",
							"name": "sender",
							"type": "address"
						},
						{
							"internalType": "uint256",
							"name": "tokenId",
							"type": "uint256"
						},
						{
							"internalType": "address",
							"name": "owner",
							"type": "address"
						}
					],
					"name": "ERC721IncorrectOwner",
					"type": "error"
				},
				{
					"inputs": [
						{
							"internalType": "address",
							"name": "operator",
							"type": "address"
						},
						{
							"internalType": "uint256",
							"name": "tokenId",
							"type": "uint256"
						}
					],
					"name": "ERC721InsufficientApproval",
					"type": "error"
				},
				{
					"inputs": [
						{
							"internalType": "address",
							"name": "approver",
							"type": "address"
						}
					],
					"name": "ERC721InvalidApprover",
					"type": "error"
				},
				{
					"inputs": [
						{
							"internalType": "address",
							"name": "operator",
							"type": "address"
						}
					],
					"name": "ERC721InvalidOperator",
					"type": "error"
				},
				{
					"inputs": [
						{
							"internalType": "address",
							"name": "owner",
							"type": "address"
						}
					],
					"name": "ERC721InvalidOwner",
					"type": "error"
				},
				{
					"inputs": [
						{
							"internalType": "address",
							"name": "receiver",
							"type": "address"
						}
					],
					"name": "ERC721InvalidReceiver",
					"type": "error"
				},
				{
					"inputs": [
						{
							"internalType": "address",
							"name": "sender",
							"type": "address"
						}
					],
					"name": "ERC721InvalidSender",
					"type": "error"
				},
				{
					"inputs": [
						{
							"internalType": "uint256",
							"name": "tokenId",
							"type": "uint256"
						}
					],
					"name": "ERC721NonexistentToken",
					"type": "error"
				},
				{
					"anonymous": false,
					"inputs": [
						{
							"indexed": true,
							"internalType": "address",
							"name": "owner",
							"type": "address"
						},
						{
							"indexed": true,
							"internalType": "address",
							"name": "approved",
							"type": "address"
						},
						{
							"indexed": true,
							"internalType": "uint256",
							"name": "tokenId",
							"type": "uint256"
						}
					],
					"name": "Approval",
					"type": "event"
				},
				{
					"anonymous": false,
					"inputs": [
						{
							"indexed": true,
							"internalType": "address",
							"name": "owner",
							"type": "address"
						},
						{
							"indexed": true,
							"internalType": "address",
							"name": "operator",
							"type": "address"
						},
						{
							"indexed": false,
							"internalType": "bool",
							"name": "approved",
							"type": "bool"
						}
					],
					"name": "ApprovalForAll",
					"type": "event"
				},
				{
					"anonymous": false,
					"inputs": [
						{
							"indexed": true,
							"internalType": "address",
							"name": "from",
							"type": "address"
						},
						{
							"indexed": true,
							"internalType": "address",
							"name": "to",
							"type": "address"
						},
						{
							"indexed": true,
							"internalType": "uint256",
							"name": "tokenId",
							"type": "uint256"
						}
					],
					"name": "Transfer",
					"type": "event"
				},
				{
					"inputs": [
						{
							"internalType": "address",
							"name": "to",
							"type": "address"
						},
						{
							"internalType": "uint256",
							"name": "tokenId",
							"type": "uint256"
						}
					],
					"name": "approve",
					"outputs": [],
					"stateMutability": "nonpayable",
					"type": "function"
				},
				{
					"inputs": [
						{
							"internalType": "address",
							"name": "owner",
							"type": "address"
						}
					],
					"name": "balanceOf",
					"outputs": [
						{
							"internalType": "uint256",
							"name": "",
							"type": "uint256"
						}
					],
					"stateMutability": "view",
					"type": "function"
				},
				{
					"inputs": [
						{
							"internalType": "uint256",
							"name": "tokenId",
							"type": "uint256"
						}
					],
					"name": "getApproved",
					"outputs": [
						{
							"internalType": "address",
							"name": "",
							"type": "address"
						}
					],
					"stateMutability": "view",
					"type": "function"
				},
				{
					"inputs": [
						{
							"internalType": "address",
							"name": "owner",
							"type": "address"
						}
					],
					"name": "getOwnerTokenMetaData",
					"outputs": [
						{
							"components": [
								{
									"internalType": "uint256",
									"name": "tokenId",
									"type": "uint256"
								},
								{
									"components": [
										{
											"internalType": "string",
											"name": "tokenURI",
											"type": "string"
										},
										{
											"internalType": "uint256",
											"name": "ranking",
											"type": "uint256"
										}
									],
									"internalType": "struct MyNFT.TokenMetaData",
									"name": "metaData",
									"type": "tuple"
								}
							],
							"internalType": "struct MyNFT.TokenIdMetaDataWrapper[]",
							"name": "",
							"type": "tuple[]"
						}
					],
					"stateMutability": "view",
					"type": "function"
				},
				{
					"inputs": [
						{
							"internalType": "address",
							"name": "owner",
							"type": "address"
						}
					],
					"name": "getOwnerURIs",
					"outputs": [
						{
							"internalType": "string[]",
							"name": "",
							"type": "string[]"
						}
					],
					"stateMutability": "view",
					"type": "function"
				},
				{
					"inputs": [
						{
							"internalType": "uint256",
							"name": "tokenId",
							"type": "uint256"
						}
					],
					"name": "getTokenRanking",
					"outputs": [
						{
							"internalType": "uint256",
							"name": "ranking",
							"type": "uint256"
						}
					],
					"stateMutability": "view",
					"type": "function"
				},
				{
					"inputs": [
						{
							"internalType": "uint256",
							"name": "tokenId",
							"type": "uint256"
						}
					],
					"name": "getTokenURI",
					"outputs": [
						{
							"internalType": "string",
							"name": "",
							"type": "string"
						}
					],
					"stateMutability": "view",
					"type": "function"
				},
				{
					"inputs": [
						{
							"internalType": "address",
							"name": "owner",
							"type": "address"
						},
						{
							"internalType": "address",
							"name": "operator",
							"type": "address"
						}
					],
					"name": "isApprovedForAll",
					"outputs": [
						{
							"internalType": "bool",
							"name": "",
							"type": "bool"
						}
					],
					"stateMutability": "view",
					"type": "function"
				},
				{
					"inputs": [
						{
							"internalType": "string",
							"name": "seed",
							"type": "string"
						}
					],
					"name": "makeRandom",
					"outputs": [
						{
							"internalType": "uint256",
							"name": "",
							"type": "uint256"
						}
					],
					"stateMutability": "pure",
					"type": "function"
				},
				{
					"inputs": [
						{
							"internalType": "string",
							"name": "_tokenURI",
							"type": "string"
						},
						{
							"internalType": "string",
							"name": "seed",
							"type": "string"
						}
					],
					"name": "minting",
					"outputs": [
						{
							"internalType": "string",
							"name": "",
							"type": "string"
						}
					],
					"stateMutability": "nonpayable",
					"type": "function"
				},
				{
					"inputs": [],
					"name": "name",
					"outputs": [
						{
							"internalType": "string",
							"name": "",
							"type": "string"
						}
					],
					"stateMutability": "view",
					"type": "function"
				},
				{
					"inputs": [
						{
							"internalType": "uint256",
							"name": "tokenId",
							"type": "uint256"
						}
					],
					"name": "ownerOf",
					"outputs": [
						{
							"internalType": "address",
							"name": "",
							"type": "address"
						}
					],
					"stateMutability": "view",
					"type": "function"
				},
				{
					"inputs": [
						{
							"internalType": "address",
							"name": "from",
							"type": "address"
						},
						{
							"internalType": "address",
							"name": "to",
							"type": "address"
						},
						{
							"internalType": "uint256",
							"name": "tokenId",
							"type": "uint256"
						}
					],
					"name": "safeTransferFrom",
					"outputs": [],
					"stateMutability": "nonpayable",
					"type": "function"
				},
				{
					"inputs": [
						{
							"internalType": "address",
							"name": "from",
							"type": "address"
						},
						{
							"internalType": "address",
							"name": "to",
							"type": "address"
						},
						{
							"internalType": "uint256",
							"name": "tokenId",
							"type": "uint256"
						},
						{
							"internalType": "bytes",
							"name": "data",
							"type": "bytes"
						}
					],
					"name": "safeTransferFrom",
					"outputs": [],
					"stateMutability": "nonpayable",
					"type": "function"
				},
				{
					"inputs": [
						{
							"internalType": "address",
							"name": "operator",
							"type": "address"
						},
						{
							"internalType": "bool",
							"name": "approved",
							"type": "bool"
						}
					],
					"name": "setApprovalForAll",
					"outputs": [],
					"stateMutability": "nonpayable",
					"type": "function"
				},
				{
					"inputs": [
						{
							"internalType": "bytes4",
							"name": "interfaceId",
							"type": "bytes4"
						}
					],
					"name": "supportsInterface",
					"outputs": [
						{
							"internalType": "bool",
							"name": "",
							"type": "bool"
						}
					],
					"stateMutability": "view",
					"type": "function"
				},
				{
					"inputs": [],
					"name": "symbol",
					"outputs": [
						{
							"internalType": "string",
							"name": "",
							"type": "string"
						}
					],
					"stateMutability": "view",
					"type": "function"
				},
				{
					"inputs": [
						{
							"internalType": "uint256",
							"name": "_tokenId",
							"type": "uint256"
						}
					],
					"name": "tokenURI",
					"outputs": [
						{
							"internalType": "string",
							"name": "",
							"type": "string"
						}
					],
					"stateMutability": "view",
					"type": "function"
				},
				{
					"inputs": [
						{
							"internalType": "address",
							"name": "from",
							"type": "address"
						},
						{
							"internalType": "address",
							"name": "to",
							"type": "address"
						},
						{
							"internalType": "uint256",
							"name": "tokenId",
							"type": "uint256"
						}
					],
					"name": "transferFrom",
					"outputs": [],
					"stateMutability": "nonpayable",
					"type": "function"
				}
			],
			"devdoc": {
				"errors": {
					"ERC721IncorrectOwner(address,uint256,address)": [
						{
							"details": "Indicates an error related to the ownership over a particular token. Used in transfers.",
							"params": {
								"owner": "Address of the current owner of a token.",
								"sender": "Address whose tokens are being transferred.",
								"tokenId": "Identifier number of a token."
							}
						}
					],
					"ERC721InsufficientApproval(address,uint256)": [
						{
							"details": "Indicates a failure with the `operator`â€™s approval. Used in transfers.",
							"params": {
								"operator": "Address that may be allowed to operate on tokens without being their owner.",
								"tokenId": "Identifier number of a token."
							}
						}
					],
					"ERC721InvalidApprover(address)": [
						{
							"details": "Indicates a failure with the `approver` of a token to be approved. Used in approvals.",
							"params": {
								"approver": "Address initiating an approval operation."
							}
						}
					],
					"ERC721InvalidOperator(address)": [
						{
							"details": "Indicates a failure with the `operator` to be approved. Used in approvals.",
							"params": {
								"operator": "Address that may be allowed to operate on tokens without being their owner."
							}
						}
					],
					"ERC721InvalidOwner(address)": [
						{
							"details": "Indicates that an address can't be an owner. For example, `address(0)` is a forbidden owner in EIP-20. Used in balance queries.",
							"params": {
								"owner": "Address of the current owner of a token."
							}
						}
					],
					"ERC721InvalidReceiver(address)": [
						{
							"details": "Indicates a failure with the token `receiver`. Used in transfers.",
							"params": {
								"receiver": "Address to which tokens are being transferred."
							}
						}
					],
					"ERC721InvalidSender(address)": [
						{
							"details": "Indicates a failure with the token `sender`. Used in transfers.",
							"params": {
								"sender": "Address whose tokens are being transferred."
							}
						}
					],
					"ERC721NonexistentToken(uint256)": [
						{
							"details": "Indicates a `tokenId` whose `owner` is the zero address.",
							"params": {
								"tokenId": "Identifier number of a token."
							}
						}
					]
				},
				"events": {
					"Approval(address,address,uint256)": {
						"details": "Emitted when `owner` enables `approved` to manage the `tokenId` token."
					},
					"ApprovalForAll(address,address,bool)": {
						"details": "Emitted when `owner` enables or disables (`approved`) `operator` to manage all of its assets."
					},
					"Transfer(address,address,uint256)": {
						"details": "Emitted when `tokenId` token is transferred from `from` to `to`."
					}
				},
				"kind": "dev",
				"methods": {
					"approve(address,uint256)": {
						"details": "See {IERC721-approve}."
					},
					"balanceOf(address)": {
						"details": "See {IERC721-balanceOf}."
					},
					"getApproved(uint256)": {
						"details": "See {IERC721-getApproved}."
					},
					"isApprovedForAll(address,address)": {
						"details": "See {IERC721-isApprovedForAll}."
					},
					"name()": {
						"details": "See {IERC721Metadata-name}."
					},
					"ownerOf(uint256)": {
						"details": "See {IERC721-ownerOf}."
					},
					"safeTransferFrom(address,address,uint256)": {
						"details": "See {IERC721-safeTransferFrom}."
					},
					"safeTransferFrom(address,address,uint256,bytes)": {
						"details": "See {IERC721-safeTransferFrom}."
					},
					"setApprovalForAll(address,bool)": {
						"details": "See {IERC721-setApprovalForAll}."
					},
					"supportsInterface(bytes4)": {
						"details": "See {IERC165-supportsInterface}."
					},
					"symbol()": {
						"details": "See {IERC721Metadata-symbol}."
					},
					"transferFrom(address,address,uint256)": {
						"details": "See {IERC721-transferFrom}."
					}
				},
				"version": 1
			},
			"evm": {
				"assembly": "    /* \"myNFT.sol\":175:8956  contract MyNFT is ERC721 {... */\n  mstore(0x40, 0x80)\n    /* \"myNFT.sol\":2028:2029  0 */\n  0x00\n    /* \"myNFT.sol\":2006:2029  uint256 totalSupply = 0 */\n  0x07\n  sstore\n    /* \"myNFT.sol\":207:298  constructor( string memory _name, string memory _symbol ) ERC721(_name, _symbol) {... */\n  callvalue\n  dup1\n  iszero\n  tag_1\n  jumpi\n  0x00\n  dup1\n  revert\ntag_1:\n  pop\n  mload(0x40)\n  sub(codesize, bytecodeSize)\n  dup1\n  bytecodeSize\n  dup4\n  codecopy\n  dup2\n  dup2\n  add\n  0x40\n  mstore\n  dup2\n  add\n  swap1\n  tag_2\n  swap2\n  swap1\n  tag_3\n  jump\t// in\ntag_2:\n    /* \"myNFT.sol\":272:277  _name */\n  dup2\n    /* \"myNFT.sol\":279:286  _symbol */\n  dup2\n    /* \"node_modules/@openzeppelin/contracts/token/ERC721/ERC721.sol\":2788:2793  name_ */\n  dup2\n    /* \"node_modules/@openzeppelin/contracts/token/ERC721/ERC721.sol\":2780:2785  _name */\n  0x00\n    /* \"node_modules/@openzeppelin/contracts/token/ERC721/ERC721.sol\":2780:2793  _name = name_ */\n  swap1\n  dup2\n  tag_7\n  swap2\n  swap1\n  tag_8\n  jump\t// in\ntag_7:\n  pop\n    /* \"node_modules/@openzeppelin/contracts/token/ERC721/ERC721.sol\":2813:2820  symbol_ */\n  dup1\n    /* \"node_modules/@openzeppelin/contracts/token/ERC721/ERC721.sol\":2803:2810  _symbol */\n  0x01\n    /* \"node_modules/@openzeppelin/contracts/token/ERC721/ERC721.sol\":2803:2820  _symbol = symbol_ */\n  swap1\n  dup2\n  tag_9\n  swap2\n  swap1\n  tag_8\n  jump\t// in\ntag_9:\n  pop\n    /* \"node_modules/@openzeppelin/contracts/token/ERC721/ERC721.sol\":2714:2827  constructor(string memory name_, string memory symbol_) {... */\n  pop\n  pop\n    /* \"myNFT.sol\":207:298  constructor( string memory _name, string memory _symbol ) ERC721(_name, _symbol) {... */\n  pop\n  pop\n    /* \"myNFT.sol\":175:8956  contract MyNFT is ERC721 {... */\n  jump(tag_11)\n    /* \"#utility.yul\":7:82   */\ntag_12:\n    /* \"#utility.yul\":40:46   */\n  0x00\n    /* \"#utility.yul\":73:75   */\n  0x40\n    /* \"#utility.yul\":67:76   */\n  mload\n    /* \"#utility.yul\":57:76   */\n  swap1\n  pop\n    /* \"#utility.yul\":7:82   */\n  swap1\n  jump\t// out\n    /* \"#utility.yul\":88:205   */\ntag_13:\n    /* \"#utility.yul\":197:198   */\n  0x00\n    /* \"#utility.yul\":194:195   */\n  dup1\n    /* \"#utility.yul\":187:199   */\n  revert\n    /* \"#utility.yul\":211:328   */\ntag_14:\n    /* \"#utility.yul\":320:321   */\n  0x00\n    /* \"#utility.yul\":317:318   */\n  dup1\n    /* \"#utility.yul\":310:322   */\n  revert\n    /* \"#utility.yul\":334:451   */\ntag_15:\n    /* \"#utility.yul\":443:444   */\n  0x00\n    /* \"#utility.yul\":440:441   */\n  dup1\n    /* \"#utility.yul\":433:445   */\n  revert\n    /* \"#utility.yul\":457:574   */\ntag_16:\n    /* \"#utility.yul\":566:567   */\n  0x00\n    /* \"#utility.yul\":563:564   */\n  dup1\n    /* \"#utility.yul\":556:568   */\n  revert\n    /* \"#utility.yul\":580:682   */\ntag_17:\n    /* \"#utility.yul\":621:627   */\n  0x00\n    /* \"#utility.yul\":672:674   */\n  0x1f\n    /* \"#utility.yul\":668:675   */\n  not\n    /* \"#utility.yul\":663:665   */\n  0x1f\n    /* \"#utility.yul\":656:661   */\n  dup4\n    /* \"#utility.yul\":652:666   */\n  add\n    /* \"#utility.yul\":648:676   */\n  and\n    /* \"#utility.yul\":638:676   */\n  swap1\n  pop\n    /* \"#utility.yul\":580:682   */\n  swap2\n  swap1\n  pop\n  jump\t// out\n    /* \"#utility.yul\":688:868   */\ntag_18:\n    /* \"#utility.yul\":736:813   */\n  0x4e487b7100000000000000000000000000000000000000000000000000000000\n    /* \"#utility.yul\":733:734   */\n  0x00\n    /* \"#utility.yul\":726:814   */\n  mstore\n    /* \"#utility.yul\":833:837   */\n  0x41\n    /* \"#utility.yul\":830:831   */\n  0x04\n    /* \"#utility.yul\":823:838   */\n  mstore\n    /* \"#utility.yul\":857:861   */\n  0x24\n    /* \"#utility.yul\":854:855   */\n  0x00\n    /* \"#utility.yul\":847:862   */\n  revert\n    /* \"#utility.yul\":874:1155   */\ntag_19:\n    /* \"#utility.yul\":957:984   */\n  tag_53\n    /* \"#utility.yul\":979:983   */\n  dup3\n    /* \"#utility.yul\":957:984   */\n  tag_17\n  jump\t// in\ntag_53:\n    /* \"#utility.yul\":949:955   */\n  dup2\n    /* \"#utility.yul\":945:985   */\n  add\n    /* \"#utility.yul\":1087:1093   */\n  dup2\n    /* \"#utility.yul\":1075:1085   */\n  dup2\n    /* \"#utility.yul\":1072:1094   */\n  lt\n    /* \"#utility.yul\":1051:1069   */\n  0xffffffffffffffff\n    /* \"#utility.yul\":1039:1049   */\n  dup3\n    /* \"#utility.yul\":1036:1070   */\n  gt\n    /* \"#utility.yul\":1033:1095   */\n  or\n    /* \"#utility.yul\":1030:1118   */\n  iszero\n  tag_54\n  jumpi\n    /* \"#utility.yul\":1098:1116   */\n  tag_55\n  tag_18\n  jump\t// in\ntag_55:\n    /* \"#utility.yul\":1030:1118   */\ntag_54:\n    /* \"#utility.yul\":1138:1148   */\n  dup1\n    /* \"#utility.yul\":1134:1136   */\n  0x40\n    /* \"#utility.yul\":1127:1149   */\n  mstore\n    /* \"#utility.yul\":917:1155   */\n  pop\n    /* \"#utility.yul\":874:1155   */\n  pop\n  pop\n  jump\t// out\n    /* \"#utility.yul\":1161:1290   */\ntag_20:\n    /* \"#utility.yul\":1195:1201   */\n  0x00\n    /* \"#utility.yul\":1222:1242   */\n  tag_57\n  tag_12\n  jump\t// in\ntag_57:\n    /* \"#utility.yul\":1212:1242   */\n  swap1\n  pop\n    /* \"#utility.yul\":1251:1284   */\n  tag_58\n    /* \"#utility.yul\":1279:1283   */\n  dup3\n    /* \"#utility.yul\":1271:1277   */\n  dup3\n    /* \"#utility.yul\":1251:1284   */\n  tag_19\n  jump\t// in\ntag_58:\n    /* \"#utility.yul\":1161:1290   */\n  swap2\n  swap1\n  pop\n  jump\t// out\n    /* \"#utility.yul\":1296:1604   */\ntag_21:\n    /* \"#utility.yul\":1358:1362   */\n  0x00\n    /* \"#utility.yul\":1448:1466   */\n  0xffffffffffffffff\n    /* \"#utility.yul\":1440:1446   */\n  dup3\n    /* \"#utility.yul\":1437:1467   */\n  gt\n    /* \"#utility.yul\":1434:1490   */\n  iszero\n  tag_60\n  jumpi\n    /* \"#utility.yul\":1470:1488   */\n  tag_61\n  tag_18\n  jump\t// in\ntag_61:\n    /* \"#utility.yul\":1434:1490   */\ntag_60:\n    /* \"#utility.yul\":1508:1537   */\n  tag_62\n    /* \"#utility.yul\":1530:1536   */\n  dup3\n    /* \"#utility.yul\":1508:1537   */\n  tag_17\n  jump\t// in\ntag_62:\n    /* \"#utility.yul\":1500:1537   */\n  swap1\n  pop\n    /* \"#utility.yul\":1592:1596   */\n  0x20\n    /* \"#utility.yul\":1586:1590   */\n  dup2\n    /* \"#utility.yul\":1582:1597   */\n  add\n    /* \"#utility.yul\":1574:1597   */\n  swap1\n  pop\n    /* \"#utility.yul\":1296:1604   */\n  swap2\n  swap1\n  pop\n  jump\t// out\n    /* \"#utility.yul\":1610:1856   */\ntag_22:\n    /* \"#utility.yul\":1691:1692   */\n  0x00\n    /* \"#utility.yul\":1701:1814   */\ntag_64:\n    /* \"#utility.yul\":1715:1721   */\n  dup4\n    /* \"#utility.yul\":1712:1713   */\n  dup2\n    /* \"#utility.yul\":1709:1722   */\n  lt\n    /* \"#utility.yul\":1701:1814   */\n  iszero\n  tag_66\n  jumpi\n    /* \"#utility.yul\":1800:1801   */\n  dup1\n    /* \"#utility.yul\":1795:1798   */\n  dup3\n    /* \"#utility.yul\":1791:1802   */\n  add\n    /* \"#utility.yul\":1785:1803   */\n  mload\n    /* \"#utility.yul\":1781:1782   */\n  dup2\n    /* \"#utility.yul\":1776:1779   */\n  dup5\n    /* \"#utility.yul\":1772:1783   */\n  add\n    /* \"#utility.yul\":1765:1804   */\n  mstore\n    /* \"#utility.yul\":1737:1739   */\n  0x20\n    /* \"#utility.yul\":1734:1735   */\n  dup2\n    /* \"#utility.yul\":1730:1740   */\n  add\n    /* \"#utility.yul\":1725:1740   */\n  swap1\n  pop\n    /* \"#utility.yul\":1701:1814   */\n  jump(tag_64)\ntag_66:\n    /* \"#utility.yul\":1848:1849   */\n  0x00\n    /* \"#utility.yul\":1839:1845   */\n  dup5\n    /* \"#utility.yul\":1834:1837   */\n  dup5\n    /* \"#utility.yul\":1830:1846   */\n  add\n    /* \"#utility.yul\":1823:1850   */\n  mstore\n    /* \"#utility.yul\":1672:1856   */\n  pop\n    /* \"#utility.yul\":1610:1856   */\n  pop\n  pop\n  pop\n  jump\t// out\n    /* \"#utility.yul\":1862:2296   */\ntag_23:\n    /* \"#utility.yul\":1951:1956   */\n  0x00\n    /* \"#utility.yul\":1976:2042   */\n  tag_68\n    /* \"#utility.yul\":1992:2041   */\n  tag_69\n    /* \"#utility.yul\":2034:2040   */\n  dup5\n    /* \"#utility.yul\":1992:2041   */\n  tag_21\n  jump\t// in\ntag_69:\n    /* \"#utility.yul\":1976:2042   */\n  tag_20\n  jump\t// in\ntag_68:\n    /* \"#utility.yul\":1967:2042   */\n  swap1\n  pop\n    /* \"#utility.yul\":2065:2071   */\n  dup3\n    /* \"#utility.yul\":2058:2063   */\n  dup2\n    /* \"#utility.yul\":2051:2072   */\n  mstore\n    /* \"#utility.yul\":2103:2107   */\n  0x20\n    /* \"#utility.yul\":2096:2101   */\n  dup2\n    /* \"#utility.yul\":2092:2108   */\n  add\n    /* \"#utility.yul\":2141:2144   */\n  dup5\n    /* \"#utility.yul\":2132:2138   */\n  dup5\n    /* \"#utility.yul\":2127:2130   */\n  dup5\n    /* \"#utility.yul\":2123:2139   */\n  add\n    /* \"#utility.yul\":2120:2145   */\n  gt\n    /* \"#utility.yul\":2117:2229   */\n  iszero\n  tag_70\n  jumpi\n    /* \"#utility.yul\":2148:2227   */\n  tag_71\n  tag_16\n  jump\t// in\ntag_71:\n    /* \"#utility.yul\":2117:2229   */\ntag_70:\n    /* \"#utility.yul\":2238:2290   */\n  tag_72\n    /* \"#utility.yul\":2283:2289   */\n  dup5\n    /* \"#utility.yul\":2278:2281   */\n  dup3\n    /* \"#utility.yul\":2273:2276   */\n  dup6\n    /* \"#utility.yul\":2238:2290   */\n  tag_22\n  jump\t// in\ntag_72:\n    /* \"#utility.yul\":1957:2296   */\n  pop\n    /* \"#utility.yul\":1862:2296   */\n  swap4\n  swap3\n  pop\n  pop\n  pop\n  jump\t// out\n    /* \"#utility.yul\":2316:2671   */\ntag_24:\n    /* \"#utility.yul\":2383:2388   */\n  0x00\n    /* \"#utility.yul\":2432:2435   */\n  dup3\n    /* \"#utility.yul\":2425:2429   */\n  0x1f\n    /* \"#utility.yul\":2417:2423   */\n  dup4\n    /* \"#utility.yul\":2413:2430   */\n  add\n    /* \"#utility.yul\":2409:2436   */\n  slt\n    /* \"#utility.yul\":2399:2521   */\n  tag_74\n  jumpi\n    /* \"#utility.yul\":2440:2519   */\n  tag_75\n  tag_15\n  jump\t// in\ntag_75:\n    /* \"#utility.yul\":2399:2521   */\ntag_74:\n    /* \"#utility.yul\":2550:2556   */\n  dup2\n    /* \"#utility.yul\":2544:2557   */\n  mload\n    /* \"#utility.yul\":2575:2665   */\n  tag_76\n    /* \"#utility.yul\":2661:2664   */\n  dup5\n    /* \"#utility.yul\":2653:2659   */\n  dup3\n    /* \"#utility.yul\":2646:2650   */\n  0x20\n    /* \"#utility.yul\":2638:2644   */\n  dup7\n    /* \"#utility.yul\":2634:2651   */\n  add\n    /* \"#utility.yul\":2575:2665   */\n  tag_23\n  jump\t// in\ntag_76:\n    /* \"#utility.yul\":2566:2665   */\n  swap2\n  pop\n    /* \"#utility.yul\":2389:2671   */\n  pop\n    /* \"#utility.yul\":2316:2671   */\n  swap3\n  swap2\n  pop\n  pop\n  jump\t// out\n    /* \"#utility.yul\":2677:3530   */\ntag_3:\n    /* \"#utility.yul\":2776:2782   */\n  0x00\n    /* \"#utility.yul\":2784:2790   */\n  dup1\n    /* \"#utility.yul\":2833:2835   */\n  0x40\n    /* \"#utility.yul\":2821:2830   */\n  dup4\n    /* \"#utility.yul\":2812:2819   */\n  dup6\n    /* \"#utility.yul\":2808:2831   */\n  sub\n    /* \"#utility.yul\":2804:2836   */\n  slt\n    /* \"#utility.yul\":2801:2920   */\n  iszero\n  tag_78\n  jumpi\n    /* \"#utility.yul\":2839:2918   */\n  tag_79\n  tag_13\n  jump\t// in\ntag_79:\n    /* \"#utility.yul\":2801:2920   */\ntag_78:\n    /* \"#utility.yul\":2980:2981   */\n  0x00\n    /* \"#utility.yul\":2969:2978   */\n  dup4\n    /* \"#utility.yul\":2965:2982   */\n  add\n    /* \"#utility.yul\":2959:2983   */\n  mload\n    /* \"#utility.yul\":3010:3028   */\n  0xffffffffffffffff\n    /* \"#utility.yul\":3002:3008   */\n  dup2\n    /* \"#utility.yul\":2999:3029   */\n  gt\n    /* \"#utility.yul\":2996:3113   */\n  iszero\n  tag_80\n  jumpi\n    /* \"#utility.yul\":3032:3111   */\n  tag_81\n  tag_14\n  jump\t// in\ntag_81:\n    /* \"#utility.yul\":2996:3113   */\ntag_80:\n    /* \"#utility.yul\":3137:3211   */\n  tag_82\n    /* \"#utility.yul\":3203:3210   */\n  dup6\n    /* \"#utility.yul\":3194:3200   */\n  dup3\n    /* \"#utility.yul\":3183:3192   */\n  dup7\n    /* \"#utility.yul\":3179:3201   */\n  add\n    /* \"#utility.yul\":3137:3211   */\n  tag_24\n  jump\t// in\ntag_82:\n    /* \"#utility.yul\":3127:3211   */\n  swap3\n  pop\n    /* \"#utility.yul\":2930:3221   */\n  pop\n    /* \"#utility.yul\":3281:3283   */\n  0x20\n    /* \"#utility.yul\":3270:3279   */\n  dup4\n    /* \"#utility.yul\":3266:3284   */\n  add\n    /* \"#utility.yul\":3260:3285   */\n  mload\n    /* \"#utility.yul\":3312:3330   */\n  0xffffffffffffffff\n    /* \"#utility.yul\":3304:3310   */\n  dup2\n    /* \"#utility.yul\":3301:3331   */\n  gt\n    /* \"#utility.yul\":3298:3415   */\n  iszero\n  tag_83\n  jumpi\n    /* \"#utility.yul\":3334:3413   */\n  tag_84\n  tag_14\n  jump\t// in\ntag_84:\n    /* \"#utility.yul\":3298:3415   */\ntag_83:\n    /* \"#utility.yul\":3439:3513   */\n  tag_85\n    /* \"#utility.yul\":3505:3512   */\n  dup6\n    /* \"#utility.yul\":3496:3502   */\n  dup3\n    /* \"#utility.yul\":3485:3494   */\n  dup7\n    /* \"#utility.yul\":3481:3503   */\n  add\n    /* \"#utility.yul\":3439:3513   */\n  tag_24\n  jump\t// in\ntag_85:\n    /* \"#utility.yul\":3429:3513   */\n  swap2\n  pop\n    /* \"#utility.yul\":3231:3523   */\n  pop\n    /* \"#utility.yul\":2677:3530   */\n  swap3\n  pop\n  swap3\n  swap1\n  pop\n  jump\t// out\n    /* \"#utility.yul\":3536:3635   */\ntag_25:\n    /* \"#utility.yul\":3588:3594   */\n  0x00\n    /* \"#utility.yul\":3622:3627   */\n  dup2\n    /* \"#utility.yul\":3616:3628   */\n  mload\n    /* \"#utility.yul\":3606:3628   */\n  swap1\n  pop\n    /* \"#utility.yul\":3536:3635   */\n  swap2\n  swap1\n  pop\n  jump\t// out\n    /* \"#utility.yul\":3641:3821   */\ntag_26:\n    /* \"#utility.yul\":3689:3766   */\n  0x4e487b7100000000000000000000000000000000000000000000000000000000\n    /* \"#utility.yul\":3686:3687   */\n  0x00\n    /* \"#utility.yul\":3679:3767   */\n  mstore\n    /* \"#utility.yul\":3786:3790   */\n  0x22\n    /* \"#utility.yul\":3783:3784   */\n  0x04\n    /* \"#utility.yul\":3776:3791   */\n  mstore\n    /* \"#utility.yul\":3810:3814   */\n  0x24\n    /* \"#utility.yul\":3807:3808   */\n  0x00\n    /* \"#utility.yul\":3800:3815   */\n  revert\n    /* \"#utility.yul\":3827:4147   */\ntag_27:\n    /* \"#utility.yul\":3871:3877   */\n  0x00\n    /* \"#utility.yul\":3908:3909   */\n  0x02\n    /* \"#utility.yul\":3902:3906   */\n  dup3\n    /* \"#utility.yul\":3898:3910   */\n  div\n    /* \"#utility.yul\":3888:3910   */\n  swap1\n  pop\n    /* \"#utility.yul\":3955:3956   */\n  0x01\n    /* \"#utility.yul\":3949:3953   */\n  dup3\n    /* \"#utility.yul\":3945:3957   */\n  and\n    /* \"#utility.yul\":3976:3994   */\n  dup1\n    /* \"#utility.yul\":3966:4047   */\n  tag_89\n  jumpi\n    /* \"#utility.yul\":4032:4036   */\n  0x7f\n    /* \"#utility.yul\":4024:4030   */\n  dup3\n    /* \"#utility.yul\":4020:4037   */\n  and\n    /* \"#utility.yul\":4010:4037   */\n  swap2\n  pop\n    /* \"#utility.yul\":3966:4047   */\ntag_89:\n    /* \"#utility.yul\":4094:4096   */\n  0x20\n    /* \"#utility.yul\":4086:4092   */\n  dup3\n    /* \"#utility.yul\":4083:4097   */\n  lt\n    /* \"#utility.yul\":4063:4081   */\n  dup2\n    /* \"#utility.yul\":4060:4098   */\n  sub\n    /* \"#utility.yul\":4057:4141   */\n  tag_90\n  jumpi\n    /* \"#utility.yul\":4113:4131   */\n  tag_91\n  tag_26\n  jump\t// in\ntag_91:\n    /* \"#utility.yul\":4057:4141   */\ntag_90:\n    /* \"#utility.yul\":3878:4147   */\n  pop\n    /* \"#utility.yul\":3827:4147   */\n  swap2\n  swap1\n  pop\n  jump\t// out\n    /* \"#utility.yul\":4153:4294   */\ntag_28:\n    /* \"#utility.yul\":4202:4206   */\n  0x00\n    /* \"#utility.yul\":4225:4228   */\n  dup2\n    /* \"#utility.yul\":4217:4228   */\n  swap1\n  pop\n    /* \"#utility.yul\":4248:4251   */\n  dup2\n    /* \"#utility.yul\":4245:4246   */\n  0x00\n    /* \"#utility.yul\":4238:4252   */\n  mstore\n    /* \"#utility.yul\":4282:4286   */\n  0x20\n    /* \"#utility.yul\":4279:4280   */\n  0x00\n    /* \"#utility.yul\":4269:4287   */\n  keccak256\n    /* \"#utility.yul\":4261:4287   */\n  swap1\n  pop\n    /* \"#utility.yul\":4153:4294   */\n  swap2\n  swap1\n  pop\n  jump\t// out\n    /* \"#utility.yul\":4300:4393   */\ntag_29:\n    /* \"#utility.yul\":4337:4343   */\n  0x00\n    /* \"#utility.yul\":4384:4386   */\n  0x20\n    /* \"#utility.yul\":4379:4381   */\n  0x1f\n    /* \"#utility.yul\":4372:4377   */\n  dup4\n    /* \"#utility.yul\":4368:4382   */\n  add\n    /* \"#utility.yul\":4364:4387   */\n  div\n    /* \"#utility.yul\":4354:4387   */\n  swap1\n  pop\n    /* \"#utility.yul\":4300:4393   */\n  swap2\n  swap1\n  pop\n  jump\t// out\n    /* \"#utility.yul\":4399:4506   */\ntag_30:\n    /* \"#utility.yul\":4443:4451   */\n  0x00\n    /* \"#utility.yul\":4493:4498   */\n  dup3\n    /* \"#utility.yul\":4487:4491   */\n  dup3\n    /* \"#utility.yul\":4483:4499   */\n  shl\n    /* \"#utility.yul\":4462:4499   */\n  swap1\n  pop\n    /* \"#utility.yul\":4399:4506   */\n  swap3\n  swap2\n  pop\n  pop\n  jump\t// out\n    /* \"#utility.yul\":4512:4905   */\ntag_31:\n    /* \"#utility.yul\":4581:4587   */\n  0x00\n    /* \"#utility.yul\":4631:4632   */\n  0x08\n    /* \"#utility.yul\":4619:4629   */\n  dup4\n    /* \"#utility.yul\":4615:4633   */\n  mul\n    /* \"#utility.yul\":4654:4751   */\n  tag_96\n    /* \"#utility.yul\":4684:4750   */\n  0xffffffffffffffffffffffffffffffffffffffffffffffffffffffffffffffff\n    /* \"#utility.yul\":4673:4682   */\n  dup3\n    /* \"#utility.yul\":4654:4751   */\n  tag_30\n  jump\t// in\ntag_96:\n    /* \"#utility.yul\":4772:4811   */\n  tag_97\n    /* \"#utility.yul\":4802:4810   */\n  dup7\n    /* \"#utility.yul\":4791:4800   */\n  dup4\n    /* \"#utility.yul\":4772:4811   */\n  tag_30\n  jump\t// in\ntag_97:\n    /* \"#utility.yul\":4760:4811   */\n  swap6\n  pop\n    /* \"#utility.yul\":4844:4848   */\n  dup1\n    /* \"#utility.yul\":4840:4849   */\n  not\n    /* \"#utility.yul\":4833:4838   */\n  dup5\n    /* \"#utility.yul\":4829:4850   */\n  and\n    /* \"#utility.yul\":4820:4850   */\n  swap4\n  pop\n    /* \"#utility.yul\":4893:4897   */\n  dup1\n    /* \"#utility.yul\":4883:4891   */\n  dup7\n    /* \"#utility.yul\":4879:4898   */\n  and\n    /* \"#utility.yul\":4872:4877   */\n  dup5\n    /* \"#utility.yul\":4869:4899   */\n  or\n    /* \"#utility.yul\":4859:4899   */\n  swap3\n  pop\n    /* \"#utility.yul\":4588:4905   */\n  pop\n  pop\n    /* \"#utility.yul\":4512:4905   */\n  swap4\n  swap3\n  pop\n  pop\n  pop\n  jump\t// out\n    /* \"#utility.yul\":4911:4988   */\ntag_32:\n    /* \"#utility.yul\":4948:4955   */\n  0x00\n    /* \"#utility.yul\":4977:4982   */\n  dup2\n    /* \"#utility.yul\":4966:4982   */\n  swap1\n  pop\n    /* \"#utility.yul\":4911:4988   */\n  swap2\n  swap1\n  pop\n  jump\t// out\n    /* \"#utility.yul\":4994:5054   */\ntag_33:\n    /* \"#utility.yul\":5022:5025   */\n  0x00\n    /* \"#utility.yul\":5043:5048   */\n  dup2\n    /* \"#utility.yul\":5036:5048   */\n  swap1\n  pop\n    /* \"#utility.yul\":4994:5054   */\n  swap2\n  swap1\n  pop\n  jump\t// out\n    /* \"#utility.yul\":5060:5202   */\ntag_34:\n    /* \"#utility.yul\":5110:5119   */\n  0x00\n    /* \"#utility.yul\":5143:5196   */\n  tag_101\n    /* \"#utility.yul\":5161:5195   */\n  tag_102\n    /* \"#utility.yul\":5170:5194   */\n  tag_103\n    /* \"#utility.yul\":5188:5193   */\n  dup5\n    /* \"#utility.yul\":5170:5194   */\n  tag_32\n  jump\t// in\ntag_103:\n    /* \"#utility.yul\":5161:5195   */\n  tag_33\n  jump\t// in\ntag_102:\n    /* \"#utility.yul\":5143:5196   */\n  tag_32\n  jump\t// in\ntag_101:\n    /* \"#utility.yul\":5130:5196   */\n  swap1\n  pop\n    /* \"#utility.yul\":5060:5202   */\n  swap2\n  swap1\n  pop\n  jump\t// out\n    /* \"#utility.yul\":5208:5283   */\ntag_35:\n    /* \"#utility.yul\":5251:5254   */\n  0x00\n    /* \"#utility.yul\":5272:5277   */\n  dup2\n    /* \"#utility.yul\":5265:5277   */\n  swap1\n  pop\n    /* \"#utility.yul\":5208:5283   */\n  swap2\n  swap1\n  pop\n  jump\t// out\n    /* \"#utility.yul\":5289:5558   */\ntag_36:\n    /* \"#utility.yul\":5399:5438   */\n  tag_106\n    /* \"#utility.yul\":5430:5437   */\n  dup4\n    /* \"#utility.yul\":5399:5438   */\n  tag_34\n  jump\t// in\ntag_106:\n    /* \"#utility.yul\":5460:5551   */\n  tag_107\n    /* \"#utility.yul\":5509:5550   */\n  tag_108\n    /* \"#utility.yul\":5533:5549   */\n  dup3\n    /* \"#utility.yul\":5509:5550   */\n  tag_35\n  jump\t// in\ntag_108:\n    /* \"#utility.yul\":5501:5507   */\n  dup5\n    /* \"#utility.yul\":5494:5498   */\n  dup5\n    /* \"#utility.yul\":5488:5499   */\n  sload\n    /* \"#utility.yul\":5460:5551   */\n  tag_31\n  jump\t// in\ntag_107:\n    /* \"#utility.yul\":5454:5458   */\n  dup3\n    /* \"#utility.yul\":5447:5552   */\n  sstore\n    /* \"#utility.yul\":5365:5558   */\n  pop\n    /* \"#utility.yul\":5289:5558   */\n  pop\n  pop\n  pop\n  jump\t// out\n    /* \"#utility.yul\":5564:5637   */\ntag_37:\n    /* \"#utility.yul\":5609:5612   */\n  0x00\n    /* \"#utility.yul\":5564:5637   */\n  swap1\n  jump\t// out\n    /* \"#utility.yul\":5643:5832   */\ntag_38:\n    /* \"#utility.yul\":5720:5752   */\n  tag_111\n  tag_37\n  jump\t// in\ntag_111:\n    /* \"#utility.yul\":5761:5826   */\n  tag_112\n    /* \"#utility.yul\":5819:5825   */\n  dup2\n    /* \"#utility.yul\":5811:5817   */\n  dup5\n    /* \"#utility.yul\":5805:5809   */\n  dup5\n    /* \"#utility.yul\":5761:5826   */\n  tag_36\n  jump\t// in\ntag_112:\n    /* \"#utility.yul\":5696:5832   */\n  pop\n    /* \"#utility.yul\":5643:5832   */\n  pop\n  pop\n  jump\t// out\n    /* \"#utility.yul\":5838:6024   */\ntag_39:\n    /* \"#utility.yul\":5898:6018   */\ntag_114:\n    /* \"#utility.yul\":5915:5918   */\n  dup2\n    /* \"#utility.yul\":5908:5913   */\n  dup2\n    /* \"#utility.yul\":5905:5919   */\n  lt\n    /* \"#utility.yul\":5898:6018   */\n  iszero\n  tag_116\n  jumpi\n    /* \"#utility.yul\":5969:6008   */\n  tag_117\n    /* \"#utility.yul\":6006:6007   */\n  0x00\n    /* \"#utility.yul\":5999:6004   */\n  dup3\n    /* \"#utility.yul\":5969:6008   */\n  tag_38\n  jump\t// in\ntag_117:\n    /* \"#utility.yul\":5942:5943   */\n  0x01\n    /* \"#utility.yul\":5935:5940   */\n  dup2\n    /* \"#utility.yul\":5931:5944   */\n  add\n    /* \"#utility.yul\":5922:5944   */\n  swap1\n  pop\n    /* \"#utility.yul\":5898:6018   */\n  jump(tag_114)\ntag_116:\n    /* \"#utility.yul\":5838:6024   */\n  pop\n  pop\n  jump\t// out\n    /* \"#utility.yul\":6030:6573   */\ntag_40:\n    /* \"#utility.yul\":6131:6133   */\n  0x1f\n    /* \"#utility.yul\":6126:6129   */\n  dup3\n    /* \"#utility.yul\":6123:6134   */\n  gt\n    /* \"#utility.yul\":6120:6566   */\n  iszero\n  tag_119\n  jumpi\n    /* \"#utility.yul\":6165:6203   */\n  tag_120\n    /* \"#utility.yul\":6197:6202   */\n  dup2\n    /* \"#utility.yul\":6165:6203   */\n  tag_28\n  jump\t// in\ntag_120:\n    /* \"#utility.yul\":6249:6278   */\n  tag_121\n    /* \"#utility.yul\":6267:6277   */\n  dup5\n    /* \"#utility.yul\":6249:6278   */\n  tag_29\n  jump\t// in\ntag_121:\n    /* \"#utility.yul\":6239:6247   */\n  dup2\n    /* \"#utility.yul\":6235:6279   */\n  add\n    /* \"#utility.yul\":6432:6434   */\n  0x20\n    /* \"#utility.yul\":6420:6430   */\n  dup6\n    /* \"#utility.yul\":6417:6435   */\n  lt\n    /* \"#utility.yul\":6414:6463   */\n  iszero\n  tag_122\n  jumpi\n    /* \"#utility.yul\":6453:6461   */\n  dup2\n    /* \"#utility.yul\":6438:6461   */\n  swap1\n  pop\n    /* \"#utility.yul\":6414:6463   */\ntag_122:\n    /* \"#utility.yul\":6476:6556   */\n  tag_123\n    /* \"#utility.yul\":6532:6554   */\n  tag_124\n    /* \"#utility.yul\":6550:6553   */\n  dup6\n    /* \"#utility.yul\":6532:6554   */\n  tag_29\n  jump\t// in\ntag_124:\n    /* \"#utility.yul\":6522:6530   */\n  dup4\n    /* \"#utility.yul\":6518:6555   */\n  add\n    /* \"#utility.yul\":6505:6516   */\n  dup3\n    /* \"#utility.yul\":6476:6556   */\n  tag_39\n  jump\t// in\ntag_123:\n    /* \"#utility.yul\":6135:6566   */\n  pop\n  pop\n    /* \"#utility.yul\":6120:6566   */\ntag_119:\n    /* \"#utility.yul\":6030:6573   */\n  pop\n  pop\n  pop\n  jump\t// out\n    /* \"#utility.yul\":6579:6696   */\ntag_41:\n    /* \"#utility.yul\":6633:6641   */\n  0x00\n    /* \"#utility.yul\":6683:6688   */\n  dup3\n    /* \"#utility.yul\":6677:6681   */\n  dup3\n    /* \"#utility.yul\":6673:6689   */\n  shr\n    /* \"#utility.yul\":6652:6689   */\n  swap1\n  pop\n    /* \"#utility.yul\":6579:6696   */\n  swap3\n  swap2\n  pop\n  pop\n  jump\t// out\n    /* \"#utility.yul\":6702:6871   */\ntag_42:\n    /* \"#utility.yul\":6746:6752   */\n  0x00\n    /* \"#utility.yul\":6779:6830   */\n  tag_127\n    /* \"#utility.yul\":6827:6828   */\n  0x00\n    /* \"#utility.yul\":6823:6829   */\n  not\n    /* \"#utility.yul\":6815:6820   */\n  dup5\n    /* \"#utility.yul\":6812:6813   */\n  0x08\n    /* \"#utility.yul\":6808:6821   */\n  mul\n    /* \"#utility.yul\":6779:6830   */\n  tag_41\n  jump\t// in\ntag_127:\n    /* \"#utility.yul\":6775:6831   */\n  not\n    /* \"#utility.yul\":6860:6864   */\n  dup1\n    /* \"#utility.yul\":6854:6858   */\n  dup4\n    /* \"#utility.yul\":6850:6865   */\n  and\n    /* \"#utility.yul\":6840:6865   */\n  swap2\n  pop\n    /* \"#utility.yul\":6753:6871   */\n  pop\n    /* \"#utility.yul\":6702:6871   */\n  swap3\n  swap2\n  pop\n  pop\n  jump\t// out\n    /* \"#utility.yul\":6876:7171   */\ntag_43:\n    /* \"#utility.yul\":6952:6956   */\n  0x00\n    /* \"#utility.yul\":7098:7127   */\n  tag_129\n    /* \"#utility.yul\":7123:7126   */\n  dup4\n    /* \"#utility.yul\":7117:7121   */\n  dup4\n    /* \"#utility.yul\":7098:7127   */\n  tag_42\n  jump\t// in\ntag_129:\n    /* \"#utility.yul\":7090:7127   */\n  swap2\n  pop\n    /* \"#utility.yul\":7160:7163   */\n  dup3\n    /* \"#utility.yul\":7157:7158   */\n  0x02\n    /* \"#utility.yul\":7153:7164   */\n  mul\n    /* \"#utility.yul\":7147:7151   */\n  dup3\n    /* \"#utility.yul\":7144:7165   */\n  or\n    /* \"#utility.yul\":7136:7165   */\n  swap1\n  pop\n    /* \"#utility.yul\":6876:7171   */\n  swap3\n  swap2\n  pop\n  pop\n  jump\t// out\n    /* \"#utility.yul\":7176:8571   */\ntag_8:\n    /* \"#utility.yul\":7293:7330   */\n  tag_131\n    /* \"#utility.yul\":7326:7329   */\n  dup3\n    /* \"#utility.yul\":7293:7330   */\n  tag_25\n  jump\t// in\ntag_131:\n    /* \"#utility.yul\":7395:7413   */\n  0xffffffffffffffff\n    /* \"#utility.yul\":7387:7393   */\n  dup2\n    /* \"#utility.yul\":7384:7414   */\n  gt\n    /* \"#utility.yul\":7381:7437   */\n  iszero\n  tag_132\n  jumpi\n    /* \"#utility.yul\":7417:7435   */\n  tag_133\n  tag_18\n  jump\t// in\ntag_133:\n    /* \"#utility.yul\":7381:7437   */\ntag_132:\n    /* \"#utility.yul\":7461:7499   */\n  tag_134\n    /* \"#utility.yul\":7493:7497   */\n  dup3\n    /* \"#utility.yul\":7487:7498   */\n  sload\n    /* \"#utility.yul\":7461:7499   */\n  tag_27\n  jump\t// in\ntag_134:\n    /* \"#utility.yul\":7546:7613   */\n  tag_135\n    /* \"#utility.yul\":7606:7612   */\n  dup3\n    /* \"#utility.yul\":7598:7604   */\n  dup3\n    /* \"#utility.yul\":7592:7596   */\n  dup6\n    /* \"#utility.yul\":7546:7613   */\n  tag_40\n  jump\t// in\ntag_135:\n    /* \"#utility.yul\":7640:7641   */\n  0x00\n    /* \"#utility.yul\":7664:7668   */\n  0x20\n    /* \"#utility.yul\":7651:7668   */\n  swap1\n  pop\n    /* \"#utility.yul\":7696:7698   */\n  0x1f\n    /* \"#utility.yul\":7688:7694   */\n  dup4\n    /* \"#utility.yul\":7685:7699   */\n  gt\n    /* \"#utility.yul\":7713:7714   */\n  0x01\n    /* \"#utility.yul\":7708:8326   */\n  dup2\n  eq\n  tag_137\n  jumpi\n    /* \"#utility.yul\":8370:8371   */\n  0x00\n    /* \"#utility.yul\":8387:8393   */\n  dup5\n    /* \"#utility.yul\":8384:8461   */\n  iszero\n  tag_138\n  jumpi\n    /* \"#utility.yul\":8436:8445   */\n  dup3\n    /* \"#utility.yul\":8431:8434   */\n  dup8\n    /* \"#utility.yul\":8427:8446   */\n  add\n    /* \"#utility.yul\":8421:8447   */\n  mload\n    /* \"#utility.yul\":8412:8447   */\n  swap1\n  pop\n    /* \"#utility.yul\":8384:8461   */\ntag_138:\n    /* \"#utility.yul\":8487:8554   */\n  tag_139\n    /* \"#utility.yul\":8547:8553   */\n  dup6\n    /* \"#utility.yul\":8540:8545   */\n  dup3\n    /* \"#utility.yul\":8487:8554   */\n  tag_43\n  jump\t// in\ntag_139:\n    /* \"#utility.yul\":8481:8485   */\n  dup7\n    /* \"#utility.yul\":8474:8555   */\n  sstore\n    /* \"#utility.yul\":8343:8565   */\n  pop\n    /* \"#utility.yul\":7678:8565   */\n  jump(tag_136)\n    /* \"#utility.yul\":7708:8326   */\ntag_137:\n    /* \"#utility.yul\":7760:7764   */\n  0x1f\n    /* \"#utility.yul\":7756:7765   */\n  not\n    /* \"#utility.yul\":7748:7754   */\n  dup5\n    /* \"#utility.yul\":7744:7766   */\n  and\n    /* \"#utility.yul\":7794:7831   */\n  tag_140\n    /* \"#utility.yul\":7826:7830   */\n  dup7\n    /* \"#utility.yul\":7794:7831   */\n  tag_28\n  jump\t// in\ntag_140:\n    /* \"#utility.yul\":7853:7854   */\n  0x00\n    /* \"#utility.yul\":7867:8075   */\ntag_141:\n    /* \"#utility.yul\":7881:7888   */\n  dup3\n    /* \"#utility.yul\":7878:7879   */\n  dup2\n    /* \"#utility.yul\":7875:7889   */\n  lt\n    /* \"#utility.yul\":7867:8075   */\n  iszero\n  tag_143\n  jumpi\n    /* \"#utility.yul\":7960:7969   */\n  dup5\n    /* \"#utility.yul\":7955:7958   */\n  dup10\n    /* \"#utility.yul\":7951:7970   */\n  add\n    /* \"#utility.yul\":7945:7971   */\n  mload\n    /* \"#utility.yul\":7937:7943   */\n  dup3\n    /* \"#utility.yul\":7930:7972   */\n  sstore\n    /* \"#utility.yul\":8011:8012   */\n  0x01\n    /* \"#utility.yul\":8003:8009   */\n  dup3\n    /* \"#utility.yul\":7999:8013   */\n  add\n    /* \"#utility.yul\":7989:8013   */\n  swap2\n  pop\n    /* \"#utility.yul\":8058:8060   */\n  0x20\n    /* \"#utility.yul\":8047:8056   */\n  dup6\n    /* \"#utility.yul\":8043:8061   */\n  add\n    /* \"#utility.yul\":8030:8061   */\n  swap5\n  pop\n    /* \"#utility.yul\":7904:7908   */\n  0x20\n    /* \"#utility.yul\":7901:7902   */\n  dup2\n    /* \"#utility.yul\":7897:7909   */\n  add\n    /* \"#utility.yul\":7892:7909   */\n  swap1\n  pop\n    /* \"#utility.yul\":7867:8075   */\n  jump(tag_141)\ntag_143:\n    /* \"#utility.yul\":8103:8109   */\n  dup7\n    /* \"#utility.yul\":8094:8101   */\n  dup4\n    /* \"#utility.yul\":8091:8110   */\n  lt\n    /* \"#utility.yul\":8088:8267   */\n  iszero\n  tag_144\n  jumpi\n    /* \"#utility.yul\":8161:8170   */\n  dup5\n    /* \"#utility.yul\":8156:8159   */\n  dup10\n    /* \"#utility.yul\":8152:8171   */\n  add\n    /* \"#utility.yul\":8146:8172   */\n  mload\n    /* \"#utility.yul\":8204:8252   */\n  tag_145\n    /* \"#utility.yul\":8246:8250   */\n  0x1f\n    /* \"#utility.yul\":8238:8244   */\n  dup10\n    /* \"#utility.yul\":8234:8251   */\n  and\n    /* \"#utility.yul\":8223:8232   */\n  dup3\n    /* \"#utility.yul\":8204:8252   */\n  tag_42\n  jump\t// in\ntag_145:\n    /* \"#utility.yul\":8196:8202   */\n  dup4\n    /* \"#utility.yul\":8189:8253   */\n  sstore\n    /* \"#utility.yul\":8111:8267   */\n  pop\n    /* \"#utility.yul\":8088:8267   */\ntag_144:\n    /* \"#utility.yul\":8313:8314   */\n  0x01\n    /* \"#utility.yul\":8309:8310   */\n  0x02\n    /* \"#utility.yul\":8301:8307   */\n  dup9\n    /* \"#utility.yul\":8297:8311   */\n  mul\n    /* \"#utility.yul\":8293:8315   */\n  add\n    /* \"#utility.yul\":8287:8291   */\n  dup9\n    /* \"#utility.yul\":8280:8316   */\n  sstore\n    /* \"#utility.yul\":7715:8326   */\n  pop\n  pop\n  pop\n    /* \"#utility.yul\":7678:8565   */\ntag_136:\n  pop\n    /* \"#utility.yul\":7268:8571   */\n  pop\n  pop\n  pop\n    /* \"#utility.yul\":7176:8571   */\n  pop\n  pop\n  jump\t// out\n    /* \"myNFT.sol\":175:8956  contract MyNFT is ERC721 {... */\ntag_11:\n  dataSize(sub_0)\n  dup1\n  dataOffset(sub_0)\n  0x00\n  codecopy\n  0x00\n  return\nstop\n\nsub_0: assembly {\n        /* \"myNFT.sol\":175:8956  contract MyNFT is ERC721 {... */\n      mstore(0x40, 0x80)\n      callvalue\n      dup1\n      iszero\n      tag_1\n      jumpi\n      0x00\n      dup1\n      revert\n    tag_1:\n      pop\n      jumpi(tag_2, lt(calldatasize, 0x04))\n      shr(0xe0, calldataload(0x00))\n      dup1\n      0x6352211e\n      gt\n      tag_22\n      jumpi\n      dup1\n      0xa22cb465\n      gt\n      tag_23\n      jumpi\n      dup1\n      0xa22cb465\n      eq\n      tag_17\n      jumpi\n      dup1\n      0xb88d4fde\n      eq\n      tag_18\n      jumpi\n      dup1\n      0xc87b56dd\n      eq\n      tag_19\n      jumpi\n      dup1\n      0xd15a76d2\n      eq\n      tag_20\n      jumpi\n      dup1\n      0xe985e9c5\n      eq\n      tag_21\n      jumpi\n      jump(tag_2)\n    tag_23:\n      dup1\n      0x6352211e\n      eq\n      tag_12\n      jumpi\n      dup1\n      0x70a08231\n      eq\n      tag_13\n      jumpi\n      dup1\n      0x838e4537\n      eq\n      tag_14\n      jumpi\n      dup1\n      0x8a55a50e\n      eq\n      tag_15\n      jumpi\n      dup1\n      0x95d89b41\n      eq\n      tag_16\n      jumpi\n      jump(tag_2)\n    tag_22:\n      dup1\n      0x0a48a1ac\n      gt\n      tag_24\n      jumpi\n      dup1\n      0x0a48a1ac\n      eq\n      tag_7\n      jumpi\n      dup1\n      0x23b872dd\n      eq\n      tag_8\n      jumpi\n      dup1\n      0x3bb3a24d\n      eq\n      tag_9\n      jumpi\n      dup1\n      0x42842e0e\n      eq\n      tag_10\n      jumpi\n      dup1\n      0x5f0cac76\n      eq\n      tag_11\n      jumpi\n      jump(tag_2)\n    tag_24:\n      dup1\n      0x01ffc9a7\n      eq\n      tag_3\n      jumpi\n      dup1\n      0x06fdde03\n      eq\n      tag_4\n      jumpi\n      dup1\n      0x081812fc\n      eq\n      tag_5\n      jumpi\n      dup1\n      0x095ea7b3\n      eq\n      tag_6\n      jumpi\n    tag_2:\n      0x00\n      dup1\n      revert\n        /* \"node_modules/@openzeppelin/contracts/token/ERC721/ERC721.sol\":3063:3363  function supportsInterface(bytes4 interfaceId) public view virtual override(ERC165, IERC165) returns (bool) {... */\n    tag_3:\n      tag_25\n      0x04\n      dup1\n      calldatasize\n      sub\n      dup2\n      add\n      swap1\n      tag_26\n      swap2\n      swap1\n      tag_27\n      jump\t// in\n    tag_26:\n      tag_28\n      jump\t// in\n    tag_25:\n      mload(0x40)\n      tag_29\n      swap2\n      swap1\n      tag_30\n      jump\t// in\n    tag_29:\n      mload(0x40)\n      dup1\n      swap2\n      sub\n      swap1\n      return\n        /* \"node_modules/@openzeppelin/contracts/token/ERC721/ERC721.sol\":4208:4297  function name() public view virtual returns (string memory) {... */\n    tag_4:\n      tag_31\n      tag_32\n      jump\t// in\n    tag_31:\n      mload(0x40)\n      tag_33\n      swap2\n      swap1\n      tag_34\n      jump\t// in\n    tag_33:\n      mload(0x40)\n      dup1\n      swap2\n      sub\n      swap1\n      return\n        /* \"node_modules/@openzeppelin/contracts/token/ERC721/ERC721.sol\":6521:6675  function getApproved(uint256 tokenId) public view virtual returns (address) {... */\n    tag_5:\n      tag_35\n      0x04\n      dup1\n      calldatasize\n      sub\n      dup2\n      add\n      swap1\n      tag_36\n      swap2\n      swap1\n      tag_37\n      jump\t// in\n    tag_36:\n      tag_38\n      jump\t// in\n    tag_35:\n      mload(0x40)\n      tag_39\n      swap2\n      swap1\n      tag_40\n      jump\t// in\n    tag_39:\n      mload(0x40)\n      dup1\n      swap2\n      sub\n      swap1\n      return\n        /* \"node_modules/@openzeppelin/contracts/token/ERC721/ERC721.sol\":6347:6460  function approve(address to, uint256 tokenId) public virtual {... */\n    tag_6:\n      tag_41\n      0x04\n      dup1\n      calldatasize\n      sub\n      dup2\n      add\n      swap1\n      tag_42\n      swap2\n      swap1\n      tag_43\n      jump\t// in\n    tag_42:\n      tag_44\n      jump\t// in\n    tag_41:\n      stop\n        /* \"myNFT.sol\":6425:8093  function getOwnerTokenMetaData(address owner) public view returns (TokenIdMetaDataWrapper[] memory) {... */\n    tag_7:\n      tag_45\n      0x04\n      dup1\n      calldatasize\n      sub\n      dup2\n      add\n      swap1\n      tag_46\n      swap2\n      swap1\n      tag_47\n      jump\t// in\n    tag_46:\n      tag_48\n      jump\t// in\n    tag_45:\n      mload(0x40)\n      tag_49\n      swap2\n      swap1\n      tag_50\n      jump\t// in\n    tag_49:\n      mload(0x40)\n      dup1\n      swap2\n      sub\n      swap1\n      return\n        /* \"node_modules/@openzeppelin/contracts/token/ERC721/ERC721.sol\":7167:7745  function transferFrom(address from, address to, uint256 tokenId) public virtual {... */\n    tag_8:\n      tag_51\n      0x04\n      dup1\n      calldatasize\n      sub\n      dup2\n      add\n      swap1\n      tag_52\n      swap2\n      swap1\n      tag_53\n      jump\t// in\n    tag_52:\n      tag_54\n      jump\t// in\n    tag_51:\n      stop\n        /* \"myNFT.sol\":4395:4527  function getTokenURI(uint256 tokenId) public view returns (string memory) {... */\n    tag_9:\n      tag_55\n      0x04\n      dup1\n      calldatasize\n      sub\n      dup2\n      add\n      swap1\n      tag_56\n      swap2\n      swap1\n      tag_37\n      jump\t// in\n    tag_56:\n      tag_57\n      jump\t// in\n    tag_55:\n      mload(0x40)\n      tag_58\n      swap2\n      swap1\n      tag_34\n      jump\t// in\n    tag_58:\n      mload(0x40)\n      dup1\n      swap2\n      sub\n      swap1\n      return\n        /* \"node_modules/@openzeppelin/contracts/token/ERC721/ERC721.sol\":7811:7943  function safeTransferFrom(address from, address to, uint256 tokenId) public {... */\n    tag_10:\n      tag_59\n      0x04\n      dup1\n      calldatasize\n      sub\n      dup2\n      add\n      swap1\n      tag_60\n      swap2\n      swap1\n      tag_53\n      jump\t// in\n    tag_60:\n      tag_61\n      jump\t// in\n    tag_59:\n      stop\n        /* \"myNFT.sol\":4848:6336  function getOwnerURIs(address owner) public view returns (string[] memory) {... */\n    tag_11:\n      tag_62\n      0x04\n      dup1\n      calldatasize\n      sub\n      dup2\n      add\n      swap1\n      tag_63\n      swap2\n      swap1\n      tag_47\n      jump\t// in\n    tag_63:\n      tag_64\n      jump\t// in\n    tag_62:\n      mload(0x40)\n      tag_65\n      swap2\n      swap1\n      tag_66\n      jump\t// in\n    tag_65:\n      mload(0x40)\n      dup1\n      swap2\n      sub\n      swap1\n      return\n        /* \"node_modules/@openzeppelin/contracts/token/ERC721/ERC721.sol\":3995:4113  function ownerOf(uint256 tokenId) public view virtual returns (address) {... */\n    tag_12:\n      tag_67\n      0x04\n      dup1\n      calldatasize\n      sub\n      dup2\n      add\n      swap1\n      tag_68\n      swap2\n      swap1\n      tag_37\n      jump\t// in\n    tag_68:\n      tag_69\n      jump\t// in\n    tag_67:\n      mload(0x40)\n      tag_70\n      swap2\n      swap1\n      tag_40\n      jump\t// in\n    tag_70:\n      mload(0x40)\n      dup1\n      swap2\n      sub\n      swap1\n      return\n        /* \"node_modules/@openzeppelin/contracts/token/ERC721/ERC721.sol\":3551:3759  function balanceOf(address owner) public view virtual returns (uint256) {... */\n    tag_13:\n      tag_71\n      0x04\n      dup1\n      calldatasize\n      sub\n      dup2\n      add\n      swap1\n      tag_72\n      swap2\n      swap1\n      tag_47\n      jump\t// in\n    tag_72:\n      tag_73\n      jump\t// in\n    tag_71:\n      mload(0x40)\n      tag_74\n      swap2\n      swap1\n      tag_75\n      jump\t// in\n    tag_74:\n      mload(0x40)\n      dup1\n      swap2\n      sub\n      swap1\n      return\n        /* \"myNFT.sol\":2428:2800  function makeRandom(string memory seed) public pure returns (uint256) {... */\n    tag_14:\n      tag_76\n      0x04\n      dup1\n      calldatasize\n      sub\n      dup2\n      add\n      swap1\n      tag_77\n      swap2\n      swap1\n      tag_78\n      jump\t// in\n    tag_77:\n      tag_79\n      jump\t// in\n    tag_76:\n      mload(0x40)\n      tag_80\n      swap2\n      swap1\n      tag_75\n      jump\t// in\n    tag_80:\n      mload(0x40)\n      dup1\n      swap2\n      sub\n      swap1\n      return\n        /* \"myNFT.sol\":3180:4322  function minting(string memory _tokenURI , string memory seed) public returns (string memory) {... */\n    tag_15:\n      tag_81\n      0x04\n      dup1\n      calldatasize\n      sub\n      dup2\n      add\n      swap1\n      tag_82\n      swap2\n      swap1\n      tag_83\n      jump\t// in\n    tag_82:\n      tag_84\n      jump\t// in\n    tag_81:\n      mload(0x40)\n      tag_85\n      swap2\n      swap1\n      tag_34\n      jump\t// in\n    tag_85:\n      mload(0x40)\n      dup1\n      swap2\n      sub\n      swap1\n      return\n        /* \"node_modules/@openzeppelin/contracts/token/ERC721/ERC721.sol\":4361:4454  function symbol() public view virtual returns (string memory) {... */\n    tag_16:\n      tag_86\n      tag_87\n      jump\t// in\n    tag_86:\n      mload(0x40)\n      tag_88\n      swap2\n      swap1\n      tag_34\n      jump\t// in\n    tag_88:\n      mload(0x40)\n      dup1\n      swap2\n      sub\n      swap1\n      return\n        /* \"node_modules/@openzeppelin/contracts/token/ERC721/ERC721.sol\":6742:6886  function setApprovalForAll(address operator, bool approved) public virtual {... */\n    tag_17:\n      tag_89\n      0x04\n      dup1\n      calldatasize\n      sub\n      dup2\n      add\n      swap1\n      tag_90\n      swap2\n      swap1\n      tag_91\n      jump\t// in\n    tag_90:\n      tag_92\n      jump\t// in\n    tag_89:\n      stop\n        /* \"node_modules/@openzeppelin/contracts/token/ERC721/ERC721.sol\":8009:8217  function safeTransferFrom(address from, address to, uint256 tokenId, bytes memory data) public virtual {... */\n    tag_18:\n      tag_93\n      0x04\n      dup1\n      calldatasize\n      sub\n      dup2\n      add\n      swap1\n      tag_94\n      swap2\n      swap1\n      tag_95\n      jump\t// in\n    tag_94:\n      tag_96\n      jump\t// in\n    tag_93:\n      stop\n        /* \"myNFT.sol\":8315:8776  function tokenURI( uint256 _tokenId) public view override returns(string memory){... */\n    tag_19:\n      tag_97\n      0x04\n      dup1\n      calldatasize\n      sub\n      dup2\n      add\n      swap1\n      tag_98\n      swap2\n      swap1\n      tag_37\n      jump\t// in\n    tag_98:\n      tag_99\n      jump\t// in\n    tag_97:\n      mload(0x40)\n      tag_100\n      swap2\n      swap1\n      tag_34\n      jump\t// in\n    tag_100:\n      mload(0x40)\n      dup1\n      swap2\n      sub\n      swap1\n      return\n        /* \"myNFT.sol\":4606:4742  function getTokenRanking(uint256 tokenId) public view returns (uint256 ranking){... */\n    tag_20:\n      tag_101\n      0x04\n      dup1\n      calldatasize\n      sub\n      dup2\n      add\n      swap1\n      tag_102\n      swap2\n      swap1\n      tag_37\n      jump\t// in\n    tag_102:\n      tag_103\n      jump\t// in\n    tag_101:\n      mload(0x40)\n      tag_104\n      swap2\n      swap1\n      tag_75\n      jump\t// in\n    tag_104:\n      mload(0x40)\n      dup1\n      swap2\n      sub\n      swap1\n      return\n        /* \"node_modules/@openzeppelin/contracts/token/ERC721/ERC721.sol\":6952:7105  function isApprovedForAll(address owner, address operator) public view virtual returns (bool) {... */\n    tag_21:\n      tag_105\n      0x04\n      dup1\n      calldatasize\n      sub\n      dup2\n      add\n      swap1\n      tag_106\n      swap2\n      swap1\n      tag_107\n      jump\t// in\n    tag_106:\n      tag_108\n      jump\t// in\n    tag_105:\n      mload(0x40)\n      tag_109\n      swap2\n      swap1\n      tag_30\n      jump\t// in\n    tag_109:\n      mload(0x40)\n      dup1\n      swap2\n      sub\n      swap1\n      return\n        /* \"node_modules/@openzeppelin/contracts/token/ERC721/ERC721.sol\":3063:3363  function supportsInterface(bytes4 interfaceId) public view virtual override(ERC165, IERC165) returns (bool) {... */\n    tag_28:\n        /* \"node_modules/@openzeppelin/contracts/token/ERC721/ERC721.sol\":3165:3169  bool */\n      0x00\n        /* \"node_modules/@openzeppelin/contracts/token/ERC721/ERC721.sol\":3215:3240  type(IERC721).interfaceId */\n      0x80ac58cd00000000000000000000000000000000000000000000000000000000\n        /* \"node_modules/@openzeppelin/contracts/token/ERC721/ERC721.sol\":3200:3240  interfaceId == type(IERC721).interfaceId */\n      not(0xffffffffffffffffffffffffffffffffffffffffffffffffffffffff)\n      and\n        /* \"node_modules/@openzeppelin/contracts/token/ERC721/ERC721.sol\":3200:3211  interfaceId */\n      dup3\n        /* \"node_modules/@openzeppelin/contracts/token/ERC721/ERC721.sol\":3200:3240  interfaceId == type(IERC721).interfaceId */\n      not(0xffffffffffffffffffffffffffffffffffffffffffffffffffffffff)\n      and\n      eq\n        /* \"node_modules/@openzeppelin/contracts/token/ERC721/ERC721.sol\":3200:3304  interfaceId == type(IERC721).interfaceId ||... */\n      dup1\n      tag_111\n      jumpi\n      pop\n        /* \"node_modules/@openzeppelin/contracts/token/ERC721/ERC721.sol\":3271:3304  type(IERC721Metadata).interfaceId */\n      0x5b5e139f00000000000000000000000000000000000000000000000000000000\n        /* \"node_modules/@openzeppelin/contracts/token/ERC721/ERC721.sol\":3256:3304  interfaceId == type(IERC721Metadata).interfaceId */\n      not(0xffffffffffffffffffffffffffffffffffffffffffffffffffffffff)\n      and\n        /* \"node_modules/@openzeppelin/contracts/token/ERC721/ERC721.sol\":3256:3267  interfaceId */\n      dup3\n        /* \"node_modules/@openzeppelin/contracts/token/ERC721/ERC721.sol\":3256:3304  interfaceId == type(IERC721Metadata).interfaceId */\n      not(0xffffffffffffffffffffffffffffffffffffffffffffffffffffffff)\n      and\n      eq\n        /* \"node_modules/@openzeppelin/contracts/token/ERC721/ERC721.sol\":3200:3304  interfaceId == type(IERC721).interfaceId ||... */\n    tag_111:\n        /* \"node_modules/@openzeppelin/contracts/token/ERC721/ERC721.sol\":3200:3356  interfaceId == type(IERC721).interfaceId ||... */\n      dup1\n      tag_112\n      jumpi\n      pop\n        /* \"node_modules/@openzeppelin/contracts/token/ERC721/ERC721.sol\":3320:3356  super.supportsInterface(interfaceId) */\n      tag_113\n        /* \"node_modules/@openzeppelin/contracts/token/ERC721/ERC721.sol\":3344:3355  interfaceId */\n      dup3\n        /* \"node_modules/@openzeppelin/contracts/token/ERC721/ERC721.sol\":3320:3343  super.supportsInterface */\n      tag_114\n        /* \"node_modules/@openzeppelin/contracts/token/ERC721/ERC721.sol\":3320:3356  super.supportsInterface(interfaceId) */\n      jump\t// in\n    tag_113:\n        /* \"node_modules/@openzeppelin/contracts/token/ERC721/ERC721.sol\":3200:3356  interfaceId == type(IERC721).interfaceId ||... */\n    tag_112:\n        /* \"node_modules/@openzeppelin/contracts/token/ERC721/ERC721.sol\":3181:3356  return... */\n      swap1\n      pop\n        /* \"node_modules/@openzeppelin/contracts/token/ERC721/ERC721.sol\":3063:3363  function supportsInterface(bytes4 interfaceId) public view virtual override(ERC165, IERC165) returns (bool) {... */\n      swap2\n      swap1\n      pop\n      jump\t// out\n        /* \"node_modules/@openzeppelin/contracts/token/ERC721/ERC721.sol\":4208:4297  function name() public view virtual returns (string memory) {... */\n    tag_32:\n        /* \"node_modules/@openzeppelin/contracts/token/ERC721/ERC721.sol\":4253:4266  string memory */\n      0x60\n        /* \"node_modules/@openzeppelin/contracts/token/ERC721/ERC721.sol\":4285:4290  _name */\n      0x00\n        /* \"node_modules/@openzeppelin/contracts/token/ERC721/ERC721.sol\":4278:4290  return _name */\n      dup1\n      sload\n      tag_116\n      swap1\n      tag_117\n      jump\t// in\n    tag_116:\n      dup1\n      0x1f\n      add\n      0x20\n      dup1\n      swap2\n      div\n      mul\n      0x20\n      add\n      mload(0x40)\n      swap1\n      dup2\n      add\n      0x40\n      mstore\n      dup1\n      swap3\n      swap2\n      swap1\n      dup2\n      dup2\n      mstore\n      0x20\n      add\n      dup3\n      dup1\n      sload\n      tag_118\n      swap1\n      tag_117\n      jump\t// in\n    tag_118:\n      dup1\n      iszero\n      tag_119\n      jumpi\n      dup1\n      0x1f\n      lt\n      tag_120\n      jumpi\n      0x0100\n      dup1\n      dup4\n      sload\n      div\n      mul\n      dup4\n      mstore\n      swap2\n      0x20\n      add\n      swap2\n      jump(tag_119)\n    tag_120:\n      dup3\n      add\n      swap2\n      swap1\n      0x00\n      mstore\n      keccak256(0x00, 0x20)\n      swap1\n    tag_121:\n      dup2\n      sload\n      dup2\n      mstore\n      swap1\n      0x01\n      add\n      swap1\n      0x20\n      add\n      dup1\n      dup4\n      gt\n      tag_121\n      jumpi\n      dup3\n      swap1\n      sub\n      0x1f\n      and\n      dup3\n      add\n      swap2\n    tag_119:\n      pop\n      pop\n      pop\n      pop\n      pop\n      swap1\n      pop\n        /* \"node_modules/@openzeppelin/contracts/token/ERC721/ERC721.sol\":4208:4297  function name() public view virtual returns (string memory) {... */\n      swap1\n      jump\t// out\n        /* \"node_modules/@openzeppelin/contracts/token/ERC721/ERC721.sol\":6521:6675  function getApproved(uint256 tokenId) public view virtual returns (address) {... */\n    tag_38:\n        /* \"node_modules/@openzeppelin/contracts/token/ERC721/ERC721.sol\":6588:6595  address */\n      0x00\n        /* \"node_modules/@openzeppelin/contracts/token/ERC721/ERC721.sol\":6607:6629  _requireOwned(tokenId) */\n      tag_123\n        /* \"node_modules/@openzeppelin/contracts/token/ERC721/ERC721.sol\":6621:6628  tokenId */\n      dup3\n        /* \"node_modules/@openzeppelin/contracts/token/ERC721/ERC721.sol\":6607:6620  _requireOwned */\n      tag_124\n        /* \"node_modules/@openzeppelin/contracts/token/ERC721/ERC721.sol\":6607:6629  _requireOwned(tokenId) */\n      jump\t// in\n    tag_123:\n      pop\n        /* \"node_modules/@openzeppelin/contracts/token/ERC721/ERC721.sol\":6647:6668  _getApproved(tokenId) */\n      tag_125\n        /* \"node_modules/@openzeppelin/contracts/token/ERC721/ERC721.sol\":6660:6667  tokenId */\n      dup3\n        /* \"node_modules/@openzeppelin/contracts/token/ERC721/ERC721.sol\":6647:6659  _getApproved */\n      tag_126\n        /* \"node_modules/@openzeppelin/contracts/token/ERC721/ERC721.sol\":6647:6668  _getApproved(tokenId) */\n      jump\t// in\n    tag_125:\n        /* \"node_modules/@openzeppelin/contracts/token/ERC721/ERC721.sol\":6640:6668  return _getApproved(tokenId) */\n      swap1\n      pop\n        /* \"node_modules/@openzeppelin/contracts/token/ERC721/ERC721.sol\":6521:6675  function getApproved(uint256 tokenId) public view virtual returns (address) {... */\n      swap2\n      swap1\n      pop\n      jump\t// out\n        /* \"node_modules/@openzeppelin/contracts/token/ERC721/ERC721.sol\":6347:6460  function approve(address to, uint256 tokenId) public virtual {... */\n    tag_44:\n        /* \"node_modules/@openzeppelin/contracts/token/ERC721/ERC721.sol\":6418:6453  _approve(to, tokenId, _msgSender()) */\n      tag_128\n        /* \"node_modules/@openzeppelin/contracts/token/ERC721/ERC721.sol\":6427:6429  to */\n      dup3\n        /* \"node_modules/@openzeppelin/contracts/token/ERC721/ERC721.sol\":6431:6438  tokenId */\n      dup3\n        /* \"node_modules/@openzeppelin/contracts/token/ERC721/ERC721.sol\":6440:6452  _msgSender() */\n      tag_129\n        /* \"node_modules/@openzeppelin/contracts/token/ERC721/ERC721.sol\":6440:6450  _msgSender */\n      tag_130\n        /* \"node_modules/@openzeppelin/contracts/token/ERC721/ERC721.sol\":6440:6452  _msgSender() */\n      jump\t// in\n    tag_129:\n        /* \"node_modules/@openzeppelin/contracts/token/ERC721/ERC721.sol\":6418:6426  _approve */\n      tag_131\n        /* \"node_modules/@openzeppelin/contracts/token/ERC721/ERC721.sol\":6418:6453  _approve(to, tokenId, _msgSender()) */\n      jump\t// in\n    tag_128:\n        /* \"node_modules/@openzeppelin/contracts/token/ERC721/ERC721.sol\":6347:6460  function approve(address to, uint256 tokenId) public virtual {... */\n      pop\n      pop\n      jump\t// out\n        /* \"myNFT.sol\":6425:8093  function getOwnerTokenMetaData(address owner) public view returns (TokenIdMetaDataWrapper[] memory) {... */\n    tag_48:\n        /* \"myNFT.sol\":6492:6523  TokenIdMetaDataWrapper[] memory */\n      0x60\n        /* \"myNFT.sol\":6536:6561  uint256[] memory tokenIds */\n      0x00\n        /* \"myNFT.sol\":6564:6574  addressIDs */\n      0x08\n        /* \"myNFT.sol\":6564:6581  addressIDs[owner] */\n      0x00\n        /* \"myNFT.sol\":6575:6580  owner */\n      dup5\n        /* \"myNFT.sol\":6564:6581  addressIDs[owner] */\n      0xffffffffffffffffffffffffffffffffffffffff\n      and\n      0xffffffffffffffffffffffffffffffffffffffff\n      and\n      dup2\n      mstore\n      0x20\n      add\n      swap1\n      dup2\n      mstore\n      0x20\n      add\n      0x00\n      keccak256\n        /* \"myNFT.sol\":6536:6581  uint256[] memory tokenIds = addressIDs[owner] */\n      dup1\n      sload\n      dup1\n      0x20\n      mul\n      0x20\n      add\n      mload(0x40)\n      swap1\n      dup2\n      add\n      0x40\n      mstore\n      dup1\n      swap3\n      swap2\n      swap1\n      dup2\n      dup2\n      mstore\n      0x20\n      add\n      dup3\n      dup1\n      sload\n      dup1\n      iszero\n      tag_133\n      jumpi\n      0x20\n      mul\n      dup3\n      add\n      swap2\n      swap1\n      0x00\n      mstore\n      keccak256(0x00, 0x20)\n      swap1\n    tag_134:\n      dup2\n      sload\n      dup2\n      mstore\n      0x20\n      add\n      swap1\n      0x01\n      add\n      swap1\n      dup1\n      dup4\n      gt\n      tag_134\n      jumpi\n    tag_133:\n      pop\n      pop\n      pop\n      pop\n      pop\n      swap1\n      pop\n        /* \"myNFT.sol\":6776:6821  TokenIdMetaDataWrapper[] memory ownerMetaData */\n      0x00\n        /* \"myNFT.sol\":6853:6861  tokenIds */\n      dup2\n        /* \"myNFT.sol\":6853:6868  tokenIds.length */\n      mload\n        /* \"myNFT.sol\":6824:6869  new TokenIdMetaDataWrapper[](tokenIds.length) */\n      0xffffffffffffffff\n      dup2\n      gt\n      iszero\n      tag_135\n      jumpi\n      tag_136\n      tag_137\n      jump\t// in\n    tag_136:\n    tag_135:\n      mload(0x40)\n      swap1\n      dup1\n      dup3\n      mstore\n      dup1\n      0x20\n      mul\n      0x20\n      add\n      dup3\n      add\n      0x40\n      mstore\n      dup1\n      iszero\n      tag_138\n      jumpi\n      dup2\n      0x20\n      add\n    tag_139:\n      tag_140\n      tag_141\n      jump\t// in\n    tag_140:\n      dup2\n      mstore\n      0x20\n      add\n      swap1\n      0x01\n      swap1\n      sub\n      swap1\n      dup2\n      tag_139\n      jumpi\n      swap1\n      pop\n    tag_138:\n      pop\n        /* \"myNFT.sol\":6776:6869  TokenIdMetaDataWrapper[] memory ownerMetaData = new TokenIdMetaDataWrapper[](tokenIds.length) */\n      swap1\n      pop\n        /* \"myNFT.sol\":7353:7362  uint256 i */\n      0x00\n        /* \"myNFT.sol\":7348:7577  for (uint256 i = 0; i < tokenIds.length; i++) {... */\n    tag_142:\n        /* \"myNFT.sol\":7372:7380  tokenIds */\n      dup3\n        /* \"myNFT.sol\":7372:7387  tokenIds.length */\n      mload\n        /* \"myNFT.sol\":7368:7369  i */\n      dup2\n        /* \"myNFT.sol\":7368:7387  i < tokenIds.length */\n      lt\n        /* \"myNFT.sol\":7348:7577  for (uint256 i = 0; i < tokenIds.length; i++) {... */\n      iszero\n      tag_143\n      jumpi\n        /* \"myNFT.sol\":7428:7565  TokenIdMetaDataWrapper({... */\n      mload(0x40)\n      dup1\n      0x40\n      add\n      0x40\n      mstore\n      dup1\n        /* \"myNFT.sol\":7480:7488  tokenIds */\n      dup5\n        /* \"myNFT.sol\":7489:7490  i */\n      dup4\n        /* \"myNFT.sol\":7480:7491  tokenIds[i] */\n      dup2\n      mload\n      dup2\n      lt\n      tag_145\n      jumpi\n      tag_146\n      tag_147\n      jump\t// in\n    tag_146:\n    tag_145:\n      0x20\n      mul\n      0x20\n      add\n      add\n      mload\n        /* \"myNFT.sol\":7428:7565  TokenIdMetaDataWrapper({... */\n      dup2\n      mstore\n      0x20\n      add\n        /* \"myNFT.sol\":7522:7536  _tokenMetaData */\n      0x06\n        /* \"myNFT.sol\":7522:7549  _tokenMetaData[tokenIds[i]] */\n      0x00\n        /* \"myNFT.sol\":7537:7545  tokenIds */\n      dup7\n        /* \"myNFT.sol\":7546:7547  i */\n      dup6\n        /* \"myNFT.sol\":7537:7548  tokenIds[i] */\n      dup2\n      mload\n      dup2\n      lt\n      tag_148\n      jumpi\n      tag_149\n      tag_147\n      jump\t// in\n    tag_149:\n    tag_148:\n      0x20\n      mul\n      0x20\n      add\n      add\n      mload\n        /* \"myNFT.sol\":7522:7549  _tokenMetaData[tokenIds[i]] */\n      dup2\n      mstore\n      0x20\n      add\n      swap1\n      dup2\n      mstore\n      0x20\n      add\n      0x00\n      keccak256\n        /* \"myNFT.sol\":7428:7565  TokenIdMetaDataWrapper({... */\n      mload(0x40)\n      dup1\n      0x40\n      add\n      0x40\n      mstore\n      swap1\n      dup2\n      0x00\n      dup3\n      add\n      dup1\n      sload\n      tag_150\n      swap1\n      tag_117\n      jump\t// in\n    tag_150:\n      dup1\n      0x1f\n      add\n      0x20\n      dup1\n      swap2\n      div\n      mul\n      0x20\n      add\n      mload(0x40)\n      swap1\n      dup2\n      add\n      0x40\n      mstore\n      dup1\n      swap3\n      swap2\n      swap1\n      dup2\n      dup2\n      mstore\n      0x20\n      add\n      dup3\n      dup1\n      sload\n      tag_151\n      swap1\n      tag_117\n      jump\t// in\n    tag_151:\n      dup1\n      iszero\n      tag_152\n      jumpi\n      dup1\n      0x1f\n      lt\n      tag_153\n      jumpi\n      0x0100\n      dup1\n      dup4\n      sload\n      div\n      mul\n      dup4\n      mstore\n      swap2\n      0x20\n      add\n      swap2\n      jump(tag_152)\n    tag_153:\n      dup3\n      add\n      swap2\n      swap1\n      0x00\n      mstore\n      keccak256(0x00, 0x20)\n      swap1\n    tag_154:\n      dup2\n      sload\n      dup2\n      mstore\n      swap1\n      0x01\n      add\n      swap1\n      0x20\n      add\n      dup1\n      dup4\n      gt\n      tag_154\n      jumpi\n      dup3\n      swap1\n      sub\n      0x1f\n      and\n      dup3\n      add\n      swap2\n    tag_152:\n      pop\n      pop\n      pop\n      pop\n      pop\n      dup2\n      mstore\n      0x20\n      add\n      0x01\n      dup3\n      add\n      sload\n      dup2\n      mstore\n      pop\n      pop\n      dup2\n      mstore\n      pop\n        /* \"myNFT.sol\":7409:7422  ownerMetaData */\n      dup3\n        /* \"myNFT.sol\":7423:7424  i */\n      dup3\n        /* \"myNFT.sol\":7409:7425  ownerMetaData[i] */\n      dup2\n      mload\n      dup2\n      lt\n      tag_155\n      jumpi\n      tag_156\n      tag_147\n      jump\t// in\n    tag_156:\n    tag_155:\n      0x20\n      mul\n      0x20\n      add\n      add\n        /* \"myNFT.sol\":7409:7565  ownerMetaData[i] = TokenIdMetaDataWrapper({... */\n      dup2\n      swap1\n      mstore\n      pop\n        /* \"myNFT.sol\":7389:7392  i++ */\n      dup1\n      dup1\n      tag_157\n      swap1\n      tag_158\n      jump\t// in\n    tag_157:\n      swap2\n      pop\n      pop\n        /* \"myNFT.sol\":7348:7577  for (uint256 i = 0; i < tokenIds.length; i++) {... */\n      jump(tag_142)\n    tag_143:\n      pop\n        /* \"myNFT.sol\":7825:7838  ownerMetaData */\n      dup1\n        /* \"myNFT.sol\":7818:7838  return ownerMetaData */\n      swap3\n      pop\n      pop\n      pop\n        /* \"myNFT.sol\":6425:8093  function getOwnerTokenMetaData(address owner) public view returns (TokenIdMetaDataWrapper[] memory) {... */\n      swap2\n      swap1\n      pop\n      jump\t// out\n        /* \"node_modules/@openzeppelin/contracts/token/ERC721/ERC721.sol\":7167:7745  function transferFrom(address from, address to, uint256 tokenId) public virtual {... */\n    tag_54:\n        /* \"node_modules/@openzeppelin/contracts/token/ERC721/ERC721.sol\":7275:7276  0 */\n      0x00\n        /* \"node_modules/@openzeppelin/contracts/token/ERC721/ERC721.sol\":7261:7277  to == address(0) */\n      0xffffffffffffffffffffffffffffffffffffffff\n      and\n        /* \"node_modules/@openzeppelin/contracts/token/ERC721/ERC721.sol\":7261:7263  to */\n      dup3\n        /* \"node_modules/@openzeppelin/contracts/token/ERC721/ERC721.sol\":7261:7277  to == address(0) */\n      0xffffffffffffffffffffffffffffffffffffffff\n      and\n      sub\n        /* \"node_modules/@openzeppelin/contracts/token/ERC721/ERC721.sol\":7257:7344  if (to == address(0)) {... */\n      tag_160\n      jumpi\n        /* \"node_modules/@openzeppelin/contracts/token/ERC721/ERC721.sol\":7330:7331  0 */\n      0x00\n        /* \"node_modules/@openzeppelin/contracts/token/ERC721/ERC721.sol\":7300:7333  ERC721InvalidReceiver(address(0)) */\n      mload(0x40)\n      0x64a0ae9200000000000000000000000000000000000000000000000000000000\n      dup2\n      mstore\n      0x04\n      add\n      tag_161\n      swap2\n      swap1\n      tag_40\n      jump\t// in\n    tag_161:\n      mload(0x40)\n      dup1\n      swap2\n      sub\n      swap1\n      revert\n        /* \"node_modules/@openzeppelin/contracts/token/ERC721/ERC721.sol\":7257:7344  if (to == address(0)) {... */\n    tag_160:\n        /* \"node_modules/@openzeppelin/contracts/token/ERC721/ERC721.sol\":7562:7583  address previousOwner */\n      0x00\n        /* \"node_modules/@openzeppelin/contracts/token/ERC721/ERC721.sol\":7586:7620  _update(to, tokenId, _msgSender()) */\n      tag_162\n        /* \"node_modules/@openzeppelin/contracts/token/ERC721/ERC721.sol\":7594:7596  to */\n      dup4\n        /* \"node_modules/@openzeppelin/contracts/token/ERC721/ERC721.sol\":7598:7605  tokenId */\n      dup4\n        /* \"node_modules/@openzeppelin/contracts/token/ERC721/ERC721.sol\":7607:7619  _msgSender() */\n      tag_163\n        /* \"node_modules/@openzeppelin/contracts/token/ERC721/ERC721.sol\":7607:7617  _msgSender */\n      tag_130\n        /* \"node_modules/@openzeppelin/contracts/token/ERC721/ERC721.sol\":7607:7619  _msgSender() */\n      jump\t// in\n    tag_163:\n        /* \"node_modules/@openzeppelin/contracts/token/ERC721/ERC721.sol\":7586:7593  _update */\n      tag_164\n        /* \"node_modules/@openzeppelin/contracts/token/ERC721/ERC721.sol\":7586:7620  _update(to, tokenId, _msgSender()) */\n      jump\t// in\n    tag_162:\n        /* \"node_modules/@openzeppelin/contracts/token/ERC721/ERC721.sol\":7562:7620  address previousOwner = _update(to, tokenId, _msgSender()) */\n      swap1\n      pop\n        /* \"node_modules/@openzeppelin/contracts/token/ERC721/ERC721.sol\":7651:7655  from */\n      dup4\n        /* \"node_modules/@openzeppelin/contracts/token/ERC721/ERC721.sol\":7634:7655  previousOwner != from */\n      0xffffffffffffffffffffffffffffffffffffffff\n      and\n        /* \"node_modules/@openzeppelin/contracts/token/ERC721/ERC721.sol\":7634:7647  previousOwner */\n      dup2\n        /* \"node_modules/@openzeppelin/contracts/token/ERC721/ERC721.sol\":7634:7655  previousOwner != from */\n      0xffffffffffffffffffffffffffffffffffffffff\n      and\n      eq\n        /* \"node_modules/@openzeppelin/contracts/token/ERC721/ERC721.sol\":7630:7739  if (previousOwner != from) {... */\n      tag_165\n      jumpi\n        /* \"node_modules/@openzeppelin/contracts/token/ERC721/ERC721.sol\":7699:7703  from */\n      dup4\n        /* \"node_modules/@openzeppelin/contracts/token/ERC721/ERC721.sol\":7705:7712  tokenId */\n      dup3\n        /* \"node_modules/@openzeppelin/contracts/token/ERC721/ERC721.sol\":7714:7727  previousOwner */\n      dup3\n        /* \"node_modules/@openzeppelin/contracts/token/ERC721/ERC721.sol\":7678:7728  ERC721IncorrectOwner(from, tokenId, previousOwner) */\n      mload(0x40)\n      0x64283d7b00000000000000000000000000000000000000000000000000000000\n      dup2\n      mstore\n      0x04\n      add\n      tag_166\n      swap4\n      swap3\n      swap2\n      swap1\n      tag_167\n      jump\t// in\n    tag_166:\n      mload(0x40)\n      dup1\n      swap2\n      sub\n      swap1\n      revert\n        /* \"node_modules/@openzeppelin/contracts/token/ERC721/ERC721.sol\":7630:7739  if (previousOwner != from) {... */\n    tag_165:\n        /* \"node_modules/@openzeppelin/contracts/token/ERC721/ERC721.sol\":7247:7745  {... */\n      pop\n        /* \"node_modules/@openzeppelin/contracts/token/ERC721/ERC721.sol\":7167:7745  function transferFrom(address from, address to, uint256 tokenId) public virtual {... */\n      pop\n      pop\n      pop\n      jump\t// out\n        /* \"myNFT.sol\":4395:4527  function getTokenURI(uint256 tokenId) public view returns (string memory) {... */\n    tag_57:\n        /* \"myNFT.sol\":4454:4467  string memory */\n      0x60\n        /* \"myNFT.sol\":4487:4501  _tokenMetaData */\n      0x06\n        /* \"myNFT.sol\":4487:4510  _tokenMetaData[tokenId] */\n      0x00\n        /* \"myNFT.sol\":4502:4509  tokenId */\n      dup4\n        /* \"myNFT.sol\":4487:4510  _tokenMetaData[tokenId] */\n      dup2\n      mstore\n      0x20\n      add\n      swap1\n      dup2\n      mstore\n      0x20\n      add\n      0x00\n      keccak256\n        /* \"myNFT.sol\":4487:4519  _tokenMetaData[tokenId].tokenURI */\n      0x00\n      add\n        /* \"myNFT.sol\":4480:4519  return _tokenMetaData[tokenId].tokenURI */\n      dup1\n      sload\n      tag_169\n      swap1\n      tag_117\n      jump\t// in\n    tag_169:\n      dup1\n      0x1f\n      add\n      0x20\n      dup1\n      swap2\n      div\n      mul\n      0x20\n      add\n      mload(0x40)\n      swap1\n      dup2\n      add\n      0x40\n      mstore\n      dup1\n      swap3\n      swap2\n      swap1\n      dup2\n      dup2\n      mstore\n      0x20\n      add\n      dup3\n      dup1\n      sload\n      tag_170\n      swap1\n      tag_117\n      jump\t// in\n    tag_170:\n      dup1\n      iszero\n      tag_171\n      jumpi\n      dup1\n      0x1f\n      lt\n      tag_172\n      jumpi\n      0x0100\n      dup1\n      dup4\n      sload\n      div\n      mul\n      dup4\n      mstore\n      swap2\n      0x20\n      add\n      swap2\n      jump(tag_171)\n    tag_172:\n      dup3\n      add\n      swap2\n      swap1\n      0x00\n      mstore\n      keccak256(0x00, 0x20)\n      swap1\n    tag_173:\n      dup2\n      sload\n      dup2\n      mstore\n      swap1\n      0x01\n      add\n      swap1\n      0x20\n      add\n      dup1\n      dup4\n      gt\n      tag_173\n      jumpi\n      dup3\n      swap1\n      sub\n      0x1f\n      and\n      dup3\n      add\n      swap2\n    tag_171:\n      pop\n      pop\n      pop\n      pop\n      pop\n      swap1\n      pop\n        /* \"myNFT.sol\":4395:4527  function getTokenURI(uint256 tokenId) public view returns (string memory) {... */\n      swap2\n      swap1\n      pop\n      jump\t// out\n        /* \"node_modules/@openzeppelin/contracts/token/ERC721/ERC721.sol\":7811:7943  function safeTransferFrom(address from, address to, uint256 tokenId) public {... */\n    tag_61:\n        /* \"node_modules/@openzeppelin/contracts/token/ERC721/ERC721.sol\":7897:7936  safeTransferFrom(from, to, tokenId, \"\") */\n      tag_175\n        /* \"node_modules/@openzeppelin/contracts/token/ERC721/ERC721.sol\":7914:7918  from */\n      dup4\n        /* \"node_modules/@openzeppelin/contracts/token/ERC721/ERC721.sol\":7920:7922  to */\n      dup4\n        /* \"node_modules/@openzeppelin/contracts/token/ERC721/ERC721.sol\":7924:7931  tokenId */\n      dup4\n        /* \"node_modules/@openzeppelin/contracts/token/ERC721/ERC721.sol\":7897:7936  safeTransferFrom(from, to, tokenId, \"\") */\n      mload(0x40)\n      dup1\n      0x20\n      add\n      0x40\n      mstore\n      dup1\n      0x00\n      dup2\n      mstore\n      pop\n        /* \"node_modules/@openzeppelin/contracts/token/ERC721/ERC721.sol\":7897:7913  safeTransferFrom */\n      tag_96\n        /* \"node_modules/@openzeppelin/contracts/token/ERC721/ERC721.sol\":7897:7936  safeTransferFrom(from, to, tokenId, \"\") */\n      jump\t// in\n    tag_175:\n        /* \"node_modules/@openzeppelin/contracts/token/ERC721/ERC721.sol\":7811:7943  function safeTransferFrom(address from, address to, uint256 tokenId) public {... */\n      pop\n      pop\n      pop\n      jump\t// out\n        /* \"myNFT.sol\":4848:6336  function getOwnerURIs(address owner) public view returns (string[] memory) {... */\n    tag_64:\n        /* \"myNFT.sol\":4906:4921  string[] memory */\n      0x60\n        /* \"myNFT.sol\":5025:5050  uint256[] memory tokenIds */\n      0x00\n        /* \"myNFT.sol\":5053:5063  addressIDs */\n      0x08\n        /* \"myNFT.sol\":5053:5070  addressIDs[owner] */\n      0x00\n        /* \"myNFT.sol\":5064:5069  owner */\n      dup5\n        /* \"myNFT.sol\":5053:5070  addressIDs[owner] */\n      0xffffffffffffffffffffffffffffffffffffffff\n      and\n      0xffffffffffffffffffffffffffffffffffffffff\n      and\n      dup2\n      mstore\n      0x20\n      add\n      swap1\n      dup2\n      mstore\n      0x20\n      add\n      0x00\n      keccak256\n        /* \"myNFT.sol\":5025:5070  uint256[] memory tokenIds = addressIDs[owner] */\n      dup1\n      sload\n      dup1\n      0x20\n      mul\n      0x20\n      add\n      mload(0x40)\n      swap1\n      dup2\n      add\n      0x40\n      mstore\n      dup1\n      swap3\n      swap2\n      swap1\n      dup2\n      dup2\n      mstore\n      0x20\n      add\n      dup3\n      dup1\n      sload\n      dup1\n      iszero\n      tag_177\n      jumpi\n      0x20\n      mul\n      dup3\n      add\n      swap2\n      swap1\n      0x00\n      mstore\n      keccak256(0x00, 0x20)\n      swap1\n    tag_178:\n      dup2\n      sload\n      dup2\n      mstore\n      0x20\n      add\n      swap1\n      0x01\n      add\n      swap1\n      dup1\n      dup4\n      gt\n      tag_178\n      jumpi\n    tag_177:\n      pop\n      pop\n      pop\n      pop\n      pop\n      swap1\n      pop\n        /* \"myNFT.sol\":5379:5404  string[] memory ownerURIs */\n      0x00\n        /* \"myNFT.sol\":5420:5428  tokenIds */\n      dup2\n        /* \"myNFT.sol\":5420:5435  tokenIds.length */\n      mload\n        /* \"myNFT.sol\":5407:5436  new string[](tokenIds.length) */\n      0xffffffffffffffff\n      dup2\n      gt\n      iszero\n      tag_179\n      jumpi\n      tag_180\n      tag_137\n      jump\t// in\n    tag_180:\n    tag_179:\n      mload(0x40)\n      swap1\n      dup1\n      dup3\n      mstore\n      dup1\n      0x20\n      mul\n      0x20\n      add\n      dup3\n      add\n      0x40\n      mstore\n      dup1\n      iszero\n      tag_181\n      jumpi\n      dup2\n      0x20\n      add\n    tag_182:\n      0x60\n      dup2\n      mstore\n      0x20\n      add\n      swap1\n      0x01\n      swap1\n      sub\n      swap1\n      dup2\n      tag_182\n      jumpi\n      swap1\n      pop\n    tag_181:\n      pop\n        /* \"myNFT.sol\":5379:5436  string[] memory ownerURIs = new string[](tokenIds.length) */\n      swap1\n      pop\n        /* \"myNFT.sol\":5776:5785  uint256 i */\n      0x00\n        /* \"myNFT.sol\":5771:6294  for (uint256 i = 0; i < tokenIds.length; i++) {... */\n    tag_183:\n        /* \"myNFT.sol\":5795:5803  tokenIds */\n      dup3\n        /* \"myNFT.sol\":5795:5810  tokenIds.length */\n      mload\n        /* \"myNFT.sol\":5791:5792  i */\n      dup2\n        /* \"myNFT.sol\":5791:5810  i < tokenIds.length */\n      lt\n        /* \"myNFT.sol\":5771:6294  for (uint256 i = 0; i < tokenIds.length; i++) {... */\n      iszero\n      tag_184\n      jumpi\n        /* \"myNFT.sol\":5847:5861  _tokenMetaData */\n      0x06\n        /* \"myNFT.sol\":5847:5874  _tokenMetaData[tokenIds[i]] */\n      0x00\n        /* \"myNFT.sol\":5862:5870  tokenIds */\n      dup5\n        /* \"myNFT.sol\":5871:5872  i */\n      dup4\n        /* \"myNFT.sol\":5862:5873  tokenIds[i] */\n      dup2\n      mload\n      dup2\n      lt\n      tag_186\n      jumpi\n      tag_187\n      tag_147\n      jump\t// in\n    tag_187:\n    tag_186:\n      0x20\n      mul\n      0x20\n      add\n      add\n      mload\n        /* \"myNFT.sol\":5847:5874  _tokenMetaData[tokenIds[i]] */\n      dup2\n      mstore\n      0x20\n      add\n      swap1\n      dup2\n      mstore\n      0x20\n      add\n      0x00\n      keccak256\n        /* \"myNFT.sol\":5847:5883  _tokenMetaData[tokenIds[i]].tokenURI */\n      0x00\n      add\n        /* \"myNFT.sol\":5832:5883  ownerURIs[i] = _tokenMetaData[tokenIds[i]].tokenURI */\n      dup1\n      sload\n      tag_188\n      swap1\n      tag_117\n      jump\t// in\n    tag_188:\n      dup1\n      0x1f\n      add\n      0x20\n      dup1\n      swap2\n      div\n      mul\n      0x20\n      add\n      mload(0x40)\n      swap1\n      dup2\n      add\n      0x40\n      mstore\n      dup1\n      swap3\n      swap2\n      swap1\n      dup2\n      dup2\n      mstore\n      0x20\n      add\n      dup3\n      dup1\n      sload\n      tag_189\n      swap1\n      tag_117\n      jump\t// in\n    tag_189:\n      dup1\n      iszero\n      tag_190\n      jumpi\n      dup1\n      0x1f\n      lt\n      tag_191\n      jumpi\n      0x0100\n      dup1\n      dup4\n      sload\n      div\n      mul\n      dup4\n      mstore\n      swap2\n      0x20\n      add\n      swap2\n      jump(tag_190)\n    tag_191:\n      dup3\n      add\n      swap2\n      swap1\n      0x00\n      mstore\n      keccak256(0x00, 0x20)\n      swap1\n    tag_192:\n      dup2\n      sload\n      dup2\n      mstore\n      swap1\n      0x01\n      add\n      swap1\n      0x20\n      add\n      dup1\n      dup4\n      gt\n      tag_192\n      jumpi\n      dup3\n      swap1\n      sub\n      0x1f\n      and\n      dup3\n      add\n      swap2\n    tag_190:\n      pop\n      pop\n      pop\n      pop\n      pop\n        /* \"myNFT.sol\":5832:5841  ownerURIs */\n      dup3\n        /* \"myNFT.sol\":5842:5843  i */\n      dup3\n        /* \"myNFT.sol\":5832:5844  ownerURIs[i] */\n      dup2\n      mload\n      dup2\n      lt\n      tag_193\n      jumpi\n      tag_194\n      tag_147\n      jump\t// in\n    tag_194:\n    tag_193:\n      0x20\n      mul\n      0x20\n      add\n      add\n        /* \"myNFT.sol\":5832:5883  ownerURIs[i] = _tokenMetaData[tokenIds[i]].tokenURI */\n      dup2\n      swap1\n      mstore\n      pop\n        /* \"myNFT.sol\":5812:5815  i++ */\n      dup1\n      dup1\n      tag_195\n      swap1\n      tag_158\n      jump\t// in\n    tag_195:\n      swap2\n      pop\n      pop\n        /* \"myNFT.sol\":5771:6294  for (uint256 i = 0; i < tokenIds.length; i++) {... */\n      jump(tag_183)\n    tag_184:\n      pop\n        /* \"myNFT.sol\":6311:6320  ownerURIs */\n      dup1\n        /* \"myNFT.sol\":6304:6320  return ownerURIs */\n      swap3\n      pop\n      pop\n      pop\n        /* \"myNFT.sol\":4848:6336  function getOwnerURIs(address owner) public view returns (string[] memory) {... */\n      swap2\n      swap1\n      pop\n      jump\t// out\n        /* \"node_modules/@openzeppelin/contracts/token/ERC721/ERC721.sol\":3995:4113  function ownerOf(uint256 tokenId) public view virtual returns (address) {... */\n    tag_69:\n        /* \"node_modules/@openzeppelin/contracts/token/ERC721/ERC721.sol\":4058:4065  address */\n      0x00\n        /* \"node_modules/@openzeppelin/contracts/token/ERC721/ERC721.sol\":4084:4106  _requireOwned(tokenId) */\n      tag_197\n        /* \"node_modules/@openzeppelin/contracts/token/ERC721/ERC721.sol\":4098:4105  tokenId */\n      dup3\n        /* \"node_modules/@openzeppelin/contracts/token/ERC721/ERC721.sol\":4084:4097  _requireOwned */\n      tag_124\n        /* \"node_modules/@openzeppelin/contracts/token/ERC721/ERC721.sol\":4084:4106  _requireOwned(tokenId) */\n      jump\t// in\n    tag_197:\n        /* \"node_modules/@openzeppelin/contracts/token/ERC721/ERC721.sol\":4077:4106  return _requireOwned(tokenId) */\n      swap1\n      pop\n        /* \"node_modules/@openzeppelin/contracts/token/ERC721/ERC721.sol\":3995:4113  function ownerOf(uint256 tokenId) public view virtual returns (address) {... */\n      swap2\n      swap1\n      pop\n      jump\t// out\n        /* \"node_modules/@openzeppelin/contracts/token/ERC721/ERC721.sol\":3551:3759  function balanceOf(address owner) public view virtual returns (uint256) {... */\n    tag_73:\n        /* \"node_modules/@openzeppelin/contracts/token/ERC721/ERC721.sol\":3614:3621  uint256 */\n      0x00\n        /* \"node_modules/@openzeppelin/contracts/token/ERC721/ERC721.sol\":3654:3655  0 */\n      dup1\n        /* \"node_modules/@openzeppelin/contracts/token/ERC721/ERC721.sol\":3637:3656  owner == address(0) */\n      0xffffffffffffffffffffffffffffffffffffffff\n      and\n        /* \"node_modules/@openzeppelin/contracts/token/ERC721/ERC721.sol\":3637:3642  owner */\n      dup3\n        /* \"node_modules/@openzeppelin/contracts/token/ERC721/ERC721.sol\":3637:3656  owner == address(0) */\n      0xffffffffffffffffffffffffffffffffffffffff\n      and\n      sub\n        /* \"node_modules/@openzeppelin/contracts/token/ERC721/ERC721.sol\":3633:3720  if (owner == address(0)) {... */\n      tag_199\n      jumpi\n        /* \"node_modules/@openzeppelin/contracts/token/ERC721/ERC721.sol\":3706:3707  0 */\n      0x00\n        /* \"node_modules/@openzeppelin/contracts/token/ERC721/ERC721.sol\":3679:3709  ERC721InvalidOwner(address(0)) */\n      mload(0x40)\n      0x89c62b6400000000000000000000000000000000000000000000000000000000\n      dup2\n      mstore\n      0x04\n      add\n      tag_200\n      swap2\n      swap1\n      tag_40\n      jump\t// in\n    tag_200:\n      mload(0x40)\n      dup1\n      swap2\n      sub\n      swap1\n      revert\n        /* \"node_modules/@openzeppelin/contracts/token/ERC721/ERC721.sol\":3633:3720  if (owner == address(0)) {... */\n    tag_199:\n        /* \"node_modules/@openzeppelin/contracts/token/ERC721/ERC721.sol\":3736:3745  _balances */\n      0x03\n        /* \"node_modules/@openzeppelin/contracts/token/ERC721/ERC721.sol\":3736:3752  _balances[owner] */\n      0x00\n        /* \"node_modules/@openzeppelin/contracts/token/ERC721/ERC721.sol\":3746:3751  owner */\n      dup4\n        /* \"node_modules/@openzeppelin/contracts/token/ERC721/ERC721.sol\":3736:3752  _balances[owner] */\n      0xffffffffffffffffffffffffffffffffffffffff\n      and\n      0xffffffffffffffffffffffffffffffffffffffff\n      and\n      dup2\n      mstore\n      0x20\n      add\n      swap1\n      dup2\n      mstore\n      0x20\n      add\n      0x00\n      keccak256\n      sload\n        /* \"node_modules/@openzeppelin/contracts/token/ERC721/ERC721.sol\":3729:3752  return _balances[owner] */\n      swap1\n      pop\n        /* \"node_modules/@openzeppelin/contracts/token/ERC721/ERC721.sol\":3551:3759  function balanceOf(address owner) public view virtual returns (uint256) {... */\n      swap2\n      swap1\n      pop\n      jump\t// out\n        /* \"myNFT.sol\":2428:2800  function makeRandom(string memory seed) public pure returns (uint256) {... */\n    tag_79:\n        /* \"myNFT.sol\":2489:2496  uint256 */\n      0x00\n        /* \"myNFT.sol\":2569:2570  1 */\n      0x01\n        /* \"myNFT.sol\":2562:2564  10 */\n      0x0a\n        /* \"myNFT.sol\":2552:2556  seed */\n      dup4\n        /* \"myNFT.sol\":2535:2557  abi.encodePacked(seed) */\n      add(0x20, mload(0x40))\n      tag_202\n      swap2\n      swap1\n      tag_203\n      jump\t// in\n    tag_202:\n      mload(0x40)\n      0x20\n      dup2\n      dup4\n      sub\n      sub\n      dup2\n      mstore\n      swap1\n      0x40\n      mstore\n        /* \"myNFT.sol\":2525:2558  keccak256(abi.encodePacked(seed)) */\n      dup1\n      mload\n      swap1\n      0x20\n      add\n      keccak256\n        /* \"myNFT.sol\":2517:2559  uint256(keccak256(abi.encodePacked(seed))) */\n      0x00\n      shr\n        /* \"myNFT.sol\":2517:2564  uint256(keccak256(abi.encodePacked(seed))) % 10 */\n      tag_204\n      swap2\n      swap1\n      tag_205\n      jump\t// in\n    tag_204:\n        /* \"myNFT.sol\":2516:2570  (uint256(keccak256(abi.encodePacked(seed))) % 10 ) + 1 */\n      tag_206\n      swap2\n      swap1\n      tag_207\n      jump\t// in\n    tag_206:\n        /* \"myNFT.sol\":2509:2570  return (uint256(keccak256(abi.encodePacked(seed))) % 10 ) + 1 */\n      swap1\n      pop\n        /* \"myNFT.sol\":2428:2800  function makeRandom(string memory seed) public pure returns (uint256) {... */\n      swap2\n      swap1\n      pop\n      jump\t// out\n        /* \"myNFT.sol\":3180:4322  function minting(string memory _tokenURI , string memory seed) public returns (string memory) {... */\n    tag_84:\n        /* \"myNFT.sol\":3259:3272  string memory */\n      0x60\n        /* \"myNFT.sol\":3358:3379  uint256 randomRanking */\n      0x00\n        /* \"myNFT.sol\":3382:3398  makeRandom(seed) */\n      tag_209\n        /* \"myNFT.sol\":3393:3397  seed */\n      dup4\n        /* \"myNFT.sol\":3382:3392  makeRandom */\n      tag_79\n        /* \"myNFT.sol\":3382:3398  makeRandom(seed) */\n      jump\t// in\n    tag_209:\n        /* \"myNFT.sol\":3358:3398  uint256 randomRanking = makeRandom(seed) */\n      swap1\n      pop\n        /* \"myNFT.sol\":3536:3750  TokenMetaData({... */\n      mload(0x40)\n      dup1\n      0x40\n      add\n      0x40\n      mstore\n      dup1\n        /* \"myNFT.sol\":3580:3589  _tokenURI */\n      dup6\n        /* \"myNFT.sol\":3536:3750  TokenMetaData({... */\n      dup2\n      mstore\n      0x20\n      add\n        /* \"myNFT.sol\":3675:3688  randomRanking */\n      dup3\n        /* \"myNFT.sol\":3536:3750  TokenMetaData({... */\n      dup2\n      mstore\n      pop\n        /* \"myNFT.sol\":3506:3520  _tokenMetaData */\n      0x06\n        /* \"myNFT.sol\":3506:3533  _tokenMetaData[totalSupply] */\n      0x00\n        /* \"myNFT.sol\":3521:3532  totalSupply */\n      sload(0x07)\n        /* \"myNFT.sol\":3506:3533  _tokenMetaData[totalSupply] */\n      dup2\n      mstore\n      0x20\n      add\n      swap1\n      dup2\n      mstore\n      0x20\n      add\n      0x00\n      keccak256\n        /* \"myNFT.sol\":3506:3750  _tokenMetaData[totalSupply] = TokenMetaData({... */\n      0x00\n      dup3\n      add\n      mload\n      dup2\n      0x00\n      add\n      swap1\n      dup2\n      tag_210\n      swap2\n      swap1\n      tag_211\n      jump\t// in\n    tag_210:\n      pop\n      0x20\n      dup3\n      add\n      mload\n      dup2\n      0x01\n      add\n      sstore\n      swap1\n      pop\n      pop\n        /* \"myNFT.sol\":3948:3978  _mint(msg.sender, totalSupply) */\n      tag_212\n        /* \"myNFT.sol\":3954:3964  msg.sender */\n      caller\n        /* \"myNFT.sol\":3966:3977  totalSupply */\n      sload(0x07)\n        /* \"myNFT.sol\":3948:3953  _mint */\n      tag_213\n        /* \"myNFT.sol\":3948:3978  _mint(msg.sender, totalSupply) */\n      jump\t// in\n    tag_212:\n        /* \"myNFT.sol\":4032:4042  addressIDs */\n      0x08\n        /* \"myNFT.sol\":4032:4054  addressIDs[msg.sender] */\n      0x00\n        /* \"myNFT.sol\":4043:4053  msg.sender */\n      caller\n        /* \"myNFT.sol\":4032:4054  addressIDs[msg.sender] */\n      0xffffffffffffffffffffffffffffffffffffffff\n      and\n      0xffffffffffffffffffffffffffffffffffffffff\n      and\n      dup2\n      mstore\n      0x20\n      add\n      swap1\n      dup2\n      mstore\n      0x20\n      add\n      0x00\n      keccak256\n        /* \"myNFT.sol\":4060:4071  totalSupply */\n      sload(0x07)\n        /* \"myNFT.sol\":4032:4072  addressIDs[msg.sender].push(totalSupply) */\n      swap1\n      dup1\n      0x01\n      dup2\n      sload\n      add\n      dup1\n      dup3\n      sstore\n      dup1\n      swap2\n      pop\n      pop\n      0x01\n      swap1\n      sub\n      swap1\n      0x00\n      mstore\n      keccak256(0x00, 0x20)\n      add\n      0x00\n      swap1\n      swap2\n      swap1\n      swap2\n      swap1\n      swap2\n      pop\n      sstore\n        /* \"myNFT.sol\":4180:4181  1 */\n      0x01\n        /* \"myNFT.sol\":4165:4176  totalSupply */\n      0x07\n      0x00\n        /* \"myNFT.sol\":4165:4181  totalSupply += 1 */\n      dup3\n      dup3\n      sload\n      tag_215\n      swap2\n      swap1\n      tag_207\n      jump\t// in\n    tag_215:\n      swap3\n      pop\n      pop\n      dup2\n      swap1\n      sstore\n      pop\n        /* \"myNFT.sol\":4208:4222  _tokenMetaData */\n      0x06\n        /* \"myNFT.sol\":4208:4238  _tokenMetaData[totalSupply -1] */\n      0x00\n        /* \"myNFT.sol\":4236:4237  1 */\n      0x01\n        /* \"myNFT.sol\":4223:4234  totalSupply */\n      sload(0x07)\n        /* \"myNFT.sol\":4223:4237  totalSupply -1 */\n      tag_216\n      swap2\n      swap1\n      tag_217\n      jump\t// in\n    tag_216:\n        /* \"myNFT.sol\":4208:4238  _tokenMetaData[totalSupply -1] */\n      dup2\n      mstore\n      0x20\n      add\n      swap1\n      dup2\n      mstore\n      0x20\n      add\n      0x00\n      keccak256\n        /* \"myNFT.sol\":4208:4247  _tokenMetaData[totalSupply -1].tokenURI */\n      0x00\n      add\n        /* \"myNFT.sol\":4201:4247  return _tokenMetaData[totalSupply -1].tokenURI */\n      dup1\n      sload\n      tag_218\n      swap1\n      tag_117\n      jump\t// in\n    tag_218:\n      dup1\n      0x1f\n      add\n      0x20\n      dup1\n      swap2\n      div\n      mul\n      0x20\n      add\n      mload(0x40)\n      swap1\n      dup2\n      add\n      0x40\n      mstore\n      dup1\n      swap3\n      swap2\n      swap1\n      dup2\n      dup2\n      mstore\n      0x20\n      add\n      dup3\n      dup1\n      sload\n      tag_219\n      swap1\n      tag_117\n      jump\t// in\n    tag_219:\n      dup1\n      iszero\n      tag_220\n      jumpi\n      dup1\n      0x1f\n      lt\n      tag_221\n      jumpi\n      0x0100\n      dup1\n      dup4\n      sload\n      div\n      mul\n      dup4\n      mstore\n      swap2\n      0x20\n      add\n      swap2\n      jump(tag_220)\n    tag_221:\n      dup3\n      add\n      swap2\n      swap1\n      0x00\n      mstore\n      keccak256(0x00, 0x20)\n      swap1\n    tag_222:\n      dup2\n      sload\n      dup2\n      mstore\n      swap1\n      0x01\n      add\n      swap1\n      0x20\n      add\n      dup1\n      dup4\n      gt\n      tag_222\n      jumpi\n      dup3\n      swap1\n      sub\n      0x1f\n      and\n      dup3\n      add\n      swap2\n    tag_220:\n      pop\n      pop\n      pop\n      pop\n      pop\n      swap2\n      pop\n      pop\n        /* \"myNFT.sol\":3180:4322  function minting(string memory _tokenURI , string memory seed) public returns (string memory) {... */\n      swap3\n      swap2\n      pop\n      pop\n      jump\t// out\n        /* \"node_modules/@openzeppelin/contracts/token/ERC721/ERC721.sol\":4361:4454  function symbol() public view virtual returns (string memory) {... */\n    tag_87:\n        /* \"node_modules/@openzeppelin/contracts/token/ERC721/ERC721.sol\":4408:4421  string memory */\n      0x60\n        /* \"node_modules/@openzeppelin/contracts/token/ERC721/ERC721.sol\":4440:4447  _symbol */\n      0x01\n        /* \"node_modules/@openzeppelin/contracts/token/ERC721/ERC721.sol\":4433:4447  return _symbol */\n      dup1\n      sload\n      tag_224\n      swap1\n      tag_117\n      jump\t// in\n    tag_224:\n      dup1\n      0x1f\n      add\n      0x20\n      dup1\n      swap2\n      div\n      mul\n      0x20\n      add\n      mload(0x40)\n      swap1\n      dup2\n      add\n      0x40\n      mstore\n      dup1\n      swap3\n      swap2\n      swap1\n      dup2\n      dup2\n      mstore\n      0x20\n      add\n      dup3\n      dup1\n      sload\n      tag_225\n      swap1\n      tag_117\n      jump\t// in\n    tag_225:\n      dup1\n      iszero\n      tag_226\n      jumpi\n      dup1\n      0x1f\n      lt\n      tag_227\n      jumpi\n      0x0100\n      dup1\n      dup4\n      sload\n      div\n      mul\n      dup4\n      mstore\n      swap2\n      0x20\n      add\n      swap2\n      jump(tag_226)\n    tag_227:\n      dup3\n      add\n      swap2\n      swap1\n      0x00\n      mstore\n      keccak256(0x00, 0x20)\n      swap1\n    tag_228:\n      dup2\n      sload\n      dup2\n      mstore\n      swap1\n      0x01\n      add\n      swap1\n      0x20\n      add\n      dup1\n      dup4\n      gt\n      tag_228\n      jumpi\n      dup3\n      swap1\n      sub\n      0x1f\n      and\n      dup3\n      add\n      swap2\n    tag_226:\n      pop\n      pop\n      pop\n      pop\n      pop\n      swap1\n      pop\n        /* \"node_modules/@openzeppelin/contracts/token/ERC721/ERC721.sol\":4361:4454  function symbol() public view virtual returns (string memory) {... */\n      swap1\n      jump\t// out\n        /* \"node_modules/@openzeppelin/contracts/token/ERC721/ERC721.sol\":6742:6886  function setApprovalForAll(address operator, bool approved) public virtual {... */\n    tag_92:\n        /* \"node_modules/@openzeppelin/contracts/token/ERC721/ERC721.sol\":6827:6879  _setApprovalForAll(_msgSender(), operator, approved) */\n      tag_230\n        /* \"node_modules/@openzeppelin/contracts/token/ERC721/ERC721.sol\":6846:6858  _msgSender() */\n      tag_231\n        /* \"node_modules/@openzeppelin/contracts/token/ERC721/ERC721.sol\":6846:6856  _msgSender */\n      tag_130\n        /* \"node_modules/@openzeppelin/contracts/token/ERC721/ERC721.sol\":6846:6858  _msgSender() */\n      jump\t// in\n    tag_231:\n        /* \"node_modules/@openzeppelin/contracts/token/ERC721/ERC721.sol\":6860:6868  operator */\n      dup4\n        /* \"node_modules/@openzeppelin/contracts/token/ERC721/ERC721.sol\":6870:6878  approved */\n      dup4\n        /* \"node_modules/@openzeppelin/contracts/token/ERC721/ERC721.sol\":6827:6845  _setApprovalForAll */\n      tag_232\n        /* \"node_modules/@openzeppelin/contracts/token/ERC721/ERC721.sol\":6827:6879  _setApprovalForAll(_msgSender(), operator, approved) */\n      jump\t// in\n    tag_230:\n        /* \"node_modules/@openzeppelin/contracts/token/ERC721/ERC721.sol\":6742:6886  function setApprovalForAll(address operator, bool approved) public virtual {... */\n      pop\n      pop\n      jump\t// out\n        /* \"node_modules/@openzeppelin/contracts/token/ERC721/ERC721.sol\":8009:8217  function safeTransferFrom(address from, address to, uint256 tokenId, bytes memory data) public virtual {... */\n    tag_96:\n        /* \"node_modules/@openzeppelin/contracts/token/ERC721/ERC721.sol\":8122:8153  transferFrom(from, to, tokenId) */\n      tag_234\n        /* \"node_modules/@openzeppelin/contracts/token/ERC721/ERC721.sol\":8135:8139  from */\n      dup5\n        /* \"node_modules/@openzeppelin/contracts/token/ERC721/ERC721.sol\":8141:8143  to */\n      dup5\n        /* \"node_modules/@openzeppelin/contracts/token/ERC721/ERC721.sol\":8145:8152  tokenId */\n      dup5\n        /* \"node_modules/@openzeppelin/contracts/token/ERC721/ERC721.sol\":8122:8134  transferFrom */\n      tag_54\n        /* \"node_modules/@openzeppelin/contracts/token/ERC721/ERC721.sol\":8122:8153  transferFrom(from, to, tokenId) */\n      jump\t// in\n    tag_234:\n        /* \"node_modules/@openzeppelin/contracts/token/ERC721/ERC721.sol\":8163:8210  _checkOnERC721Received(from, to, tokenId, data) */\n      tag_235\n        /* \"node_modules/@openzeppelin/contracts/token/ERC721/ERC721.sol\":8186:8190  from */\n      dup5\n        /* \"node_modules/@openzeppelin/contracts/token/ERC721/ERC721.sol\":8192:8194  to */\n      dup5\n        /* \"node_modules/@openzeppelin/contracts/token/ERC721/ERC721.sol\":8196:8203  tokenId */\n      dup5\n        /* \"node_modules/@openzeppelin/contracts/token/ERC721/ERC721.sol\":8205:8209  data */\n      dup5\n        /* \"node_modules/@openzeppelin/contracts/token/ERC721/ERC721.sol\":8163:8185  _checkOnERC721Received */\n      tag_236\n        /* \"node_modules/@openzeppelin/contracts/token/ERC721/ERC721.sol\":8163:8210  _checkOnERC721Received(from, to, tokenId, data) */\n      jump\t// in\n    tag_235:\n        /* \"node_modules/@openzeppelin/contracts/token/ERC721/ERC721.sol\":8009:8217  function safeTransferFrom(address from, address to, uint256 tokenId, bytes memory data) public virtual {... */\n      pop\n      pop\n      pop\n      pop\n      jump\t// out\n        /* \"myNFT.sol\":8315:8776  function tokenURI( uint256 _tokenId) public view override returns(string memory){... */\n    tag_99:\n        /* \"myNFT.sol\":8381:8394  string memory */\n      0x60\n        /* \"myNFT.sol\":8467:8481  _tokenMetaData */\n      0x06\n        /* \"myNFT.sol\":8467:8491  _tokenMetaData[_tokenId] */\n      0x00\n        /* \"myNFT.sol\":8482:8490  _tokenId */\n      dup4\n        /* \"myNFT.sol\":8467:8491  _tokenMetaData[_tokenId] */\n      dup2\n      mstore\n      0x20\n      add\n      swap1\n      dup2\n      mstore\n      0x20\n      add\n      0x00\n      keccak256\n        /* \"myNFT.sol\":8467:8500  _tokenMetaData[_tokenId].tokenURI */\n      0x00\n      add\n        /* \"myNFT.sol\":8460:8500  return _tokenMetaData[_tokenId].tokenURI */\n      dup1\n      sload\n      tag_238\n      swap1\n      tag_117\n      jump\t// in\n    tag_238:\n      dup1\n      0x1f\n      add\n      0x20\n      dup1\n      swap2\n      div\n      mul\n      0x20\n      add\n      mload(0x40)\n      swap1\n      dup2\n      add\n      0x40\n      mstore\n      dup1\n      swap3\n      swap2\n      swap1\n      dup2\n      dup2\n      mstore\n      0x20\n      add\n      dup3\n      dup1\n      sload\n      tag_239\n      swap1\n      tag_117\n      jump\t// in\n    tag_239:\n      dup1\n      iszero\n      tag_240\n      jumpi\n      dup1\n      0x1f\n      lt\n      tag_241\n      jumpi\n      0x0100\n      dup1\n      dup4\n      sload\n      div\n      mul\n      dup4\n      mstore\n      swap2\n      0x20\n      add\n      swap2\n      jump(tag_240)\n    tag_241:\n      dup3\n      add\n      swap2\n      swap1\n      0x00\n      mstore\n      keccak256(0x00, 0x20)\n      swap1\n    tag_242:\n      dup2\n      sload\n      dup2\n      mstore\n      swap1\n      0x01\n      add\n      swap1\n      0x20\n      add\n      dup1\n      dup4\n      gt\n      tag_242\n      jumpi\n      dup3\n      swap1\n      sub\n      0x1f\n      and\n      dup3\n      add\n      swap2\n    tag_240:\n      pop\n      pop\n      pop\n      pop\n      pop\n      swap1\n      pop\n        /* \"myNFT.sol\":8315:8776  function tokenURI( uint256 _tokenId) public view override returns(string memory){... */\n      swap2\n      swap1\n      pop\n      jump\t// out\n        /* \"myNFT.sol\":4606:4742  function getTokenRanking(uint256 tokenId) public view returns (uint256 ranking){... */\n    tag_103:\n        /* \"myNFT.sol\":4669:4684  uint256 ranking */\n      0x00\n        /* \"myNFT.sol\":4703:4717  _tokenMetaData */\n      0x06\n        /* \"myNFT.sol\":4703:4726  _tokenMetaData[tokenId] */\n      0x00\n        /* \"myNFT.sol\":4718:4725  tokenId */\n      dup4\n        /* \"myNFT.sol\":4703:4726  _tokenMetaData[tokenId] */\n      dup2\n      mstore\n      0x20\n      add\n      swap1\n      dup2\n      mstore\n      0x20\n      add\n      0x00\n      keccak256\n        /* \"myNFT.sol\":4703:4734  _tokenMetaData[tokenId].ranking */\n      0x01\n      add\n      sload\n        /* \"myNFT.sol\":4696:4734  return _tokenMetaData[tokenId].ranking */\n      swap1\n      pop\n        /* \"myNFT.sol\":4606:4742  function getTokenRanking(uint256 tokenId) public view returns (uint256 ranking){... */\n      swap2\n      swap1\n      pop\n      jump\t// out\n        /* \"node_modules/@openzeppelin/contracts/token/ERC721/ERC721.sol\":6952:7105  function isApprovedForAll(address owner, address operator) public view virtual returns (bool) {... */\n    tag_108:\n        /* \"node_modules/@openzeppelin/contracts/token/ERC721/ERC721.sol\":7040:7044  bool */\n      0x00\n        /* \"node_modules/@openzeppelin/contracts/token/ERC721/ERC721.sol\":7063:7081  _operatorApprovals */\n      0x05\n        /* \"node_modules/@openzeppelin/contracts/token/ERC721/ERC721.sol\":7063:7088  _operatorApprovals[owner] */\n      0x00\n        /* \"node_modules/@openzeppelin/contracts/token/ERC721/ERC721.sol\":7082:7087  owner */\n      dup5\n        /* \"node_modules/@openzeppelin/contracts/token/ERC721/ERC721.sol\":7063:7088  _operatorApprovals[owner] */\n      0xffffffffffffffffffffffffffffffffffffffff\n      and\n      0xffffffffffffffffffffffffffffffffffffffff\n      and\n      dup2\n      mstore\n      0x20\n      add\n      swap1\n      dup2\n      mstore\n      0x20\n      add\n      0x00\n      keccak256\n        /* \"node_modules/@openzeppelin/contracts/token/ERC721/ERC721.sol\":7063:7098  _operatorApprovals[owner][operator] */\n      0x00\n        /* \"node_modules/@openzeppelin/contracts/token/ERC721/ERC721.sol\":7089:7097  operator */\n      dup4\n        /* \"node_modules/@openzeppelin/contracts/token/ERC721/ERC721.sol\":7063:7098  _operatorApprovals[owner][operator] */\n      0xffffffffffffffffffffffffffffffffffffffff\n      and\n      0xffffffffffffffffffffffffffffffffffffffff\n      and\n      dup2\n      mstore\n      0x20\n      add\n      swap1\n      dup2\n      mstore\n      0x20\n      add\n      0x00\n      keccak256\n      0x00\n      swap1\n      sload\n      swap1\n      0x0100\n      exp\n      swap1\n      div\n      0xff\n      and\n        /* \"node_modules/@openzeppelin/contracts/token/ERC721/ERC721.sol\":7056:7098  return _operatorApprovals[owner][operator] */\n      swap1\n      pop\n        /* \"node_modules/@openzeppelin/contracts/token/ERC721/ERC721.sol\":6952:7105  function isApprovedForAll(address owner, address operator) public view virtual returns (bool) {... */\n      swap3\n      swap2\n      pop\n      pop\n      jump\t// out\n        /* \"node_modules/@openzeppelin/contracts/utils/introspection/ERC165.sol\":762:908  function supportsInterface(bytes4 interfaceId) public view virtual returns (bool) {... */\n    tag_114:\n        /* \"node_modules/@openzeppelin/contracts/utils/introspection/ERC165.sol\":838:842  bool */\n      0x00\n        /* \"node_modules/@openzeppelin/contracts/utils/introspection/ERC165.sol\":876:901  type(IERC165).interfaceId */\n      0x01ffc9a700000000000000000000000000000000000000000000000000000000\n        /* \"node_modules/@openzeppelin/contracts/utils/introspection/ERC165.sol\":861:901  interfaceId == type(IERC165).interfaceId */\n      not(0xffffffffffffffffffffffffffffffffffffffffffffffffffffffff)\n      and\n        /* \"node_modules/@openzeppelin/contracts/utils/introspection/ERC165.sol\":861:872  interfaceId */\n      dup3\n        /* \"node_modules/@openzeppelin/contracts/utils/introspection/ERC165.sol\":861:901  interfaceId == type(IERC165).interfaceId */\n      not(0xffffffffffffffffffffffffffffffffffffffffffffffffffffffff)\n      and\n      eq\n        /* \"node_modules/@openzeppelin/contracts/utils/introspection/ERC165.sol\":854:901  return interfaceId == type(IERC165).interfaceId */\n      swap1\n      pop\n        /* \"node_modules/@openzeppelin/contracts/utils/introspection/ERC165.sol\":762:908  function supportsInterface(bytes4 interfaceId) public view virtual returns (bool) {... */\n      swap2\n      swap1\n      pop\n      jump\t// out\n        /* \"node_modules/@openzeppelin/contracts/token/ERC721/ERC721.sol\":19162:19403  function _requireOwned(uint256 tokenId) internal view returns (address) {... */\n    tag_124:\n        /* \"node_modules/@openzeppelin/contracts/token/ERC721/ERC721.sol\":19225:19232  address */\n      0x00\n        /* \"node_modules/@openzeppelin/contracts/token/ERC721/ERC721.sol\":19244:19257  address owner */\n      dup1\n        /* \"node_modules/@openzeppelin/contracts/token/ERC721/ERC721.sol\":19260:19277  _ownerOf(tokenId) */\n      tag_247\n        /* \"node_modules/@openzeppelin/contracts/token/ERC721/ERC721.sol\":19269:19276  tokenId */\n      dup4\n        /* \"node_modules/@openzeppelin/contracts/token/ERC721/ERC721.sol\":19260:19268  _ownerOf */\n      tag_248\n        /* \"node_modules/@openzeppelin/contracts/token/ERC721/ERC721.sol\":19260:19277  _ownerOf(tokenId) */\n      jump\t// in\n    tag_247:\n        /* \"node_modules/@openzeppelin/contracts/token/ERC721/ERC721.sol\":19244:19277  address owner = _ownerOf(tokenId) */\n      swap1\n      pop\n        /* \"node_modules/@openzeppelin/contracts/token/ERC721/ERC721.sol\":19308:19309  0 */\n      0x00\n        /* \"node_modules/@openzeppelin/contracts/token/ERC721/ERC721.sol\":19291:19310  owner == address(0) */\n      0xffffffffffffffffffffffffffffffffffffffff\n      and\n        /* \"node_modules/@openzeppelin/contracts/token/ERC721/ERC721.sol\":19291:19296  owner */\n      dup2\n        /* \"node_modules/@openzeppelin/contracts/token/ERC721/ERC721.sol\":19291:19310  owner == address(0) */\n      0xffffffffffffffffffffffffffffffffffffffff\n      and\n      sub\n        /* \"node_modules/@openzeppelin/contracts/token/ERC721/ERC721.sol\":19287:19375  if (owner == address(0)) {... */\n      tag_249\n      jumpi\n        /* \"node_modules/@openzeppelin/contracts/token/ERC721/ERC721.sol\":19356:19363  tokenId */\n      dup3\n        /* \"node_modules/@openzeppelin/contracts/token/ERC721/ERC721.sol\":19333:19364  ERC721NonexistentToken(tokenId) */\n      mload(0x40)\n      0x7e27328900000000000000000000000000000000000000000000000000000000\n      dup2\n      mstore\n      0x04\n      add\n      tag_250\n      swap2\n      swap1\n      tag_75\n      jump\t// in\n    tag_250:\n      mload(0x40)\n      dup1\n      swap2\n      sub\n      swap1\n      revert\n        /* \"node_modules/@openzeppelin/contracts/token/ERC721/ERC721.sol\":19287:19375  if (owner == address(0)) {... */\n    tag_249:\n        /* \"node_modules/@openzeppelin/contracts/token/ERC721/ERC721.sol\":19391:19396  owner */\n      dup1\n        /* \"node_modules/@openzeppelin/contracts/token/ERC721/ERC721.sol\":19384:19396  return owner */\n      swap2\n      pop\n      pop\n        /* \"node_modules/@openzeppelin/contracts/token/ERC721/ERC721.sol\":19162:19403  function _requireOwned(uint256 tokenId) internal view returns (address) {... */\n      swap2\n      swap1\n      pop\n      jump\t// out\n        /* \"node_modules/@openzeppelin/contracts/token/ERC721/ERC721.sol\":8962:9089  function _getApproved(uint256 tokenId) internal view virtual returns (address) {... */\n    tag_126:\n        /* \"node_modules/@openzeppelin/contracts/token/ERC721/ERC721.sol\":9032:9039  address */\n      0x00\n        /* \"node_modules/@openzeppelin/contracts/token/ERC721/ERC721.sol\":9058:9073  _tokenApprovals */\n      0x04\n        /* \"node_modules/@openzeppelin/contracts/token/ERC721/ERC721.sol\":9058:9082  _tokenApprovals[tokenId] */\n      0x00\n        /* \"node_modules/@openzeppelin/contracts/token/ERC721/ERC721.sol\":9074:9081  tokenId */\n      dup4\n        /* \"node_modules/@openzeppelin/contracts/token/ERC721/ERC721.sol\":9058:9082  _tokenApprovals[tokenId] */\n      dup2\n      mstore\n      0x20\n      add\n      swap1\n      dup2\n      mstore\n      0x20\n      add\n      0x00\n      keccak256\n      0x00\n      swap1\n      sload\n      swap1\n      0x0100\n      exp\n      swap1\n      div\n      0xffffffffffffffffffffffffffffffffffffffff\n      and\n        /* \"node_modules/@openzeppelin/contracts/token/ERC721/ERC721.sol\":9051:9082  return _tokenApprovals[tokenId] */\n      swap1\n      pop\n        /* \"node_modules/@openzeppelin/contracts/token/ERC721/ERC721.sol\":8962:9089  function _getApproved(uint256 tokenId) internal view virtual returns (address) {... */\n      swap2\n      swap1\n      pop\n      jump\t// out\n        /* \"node_modules/@openzeppelin/contracts/utils/Context.sol\":656:752  function _msgSender() internal view virtual returns (address) {... */\n    tag_130:\n        /* \"node_modules/@openzeppelin/contracts/utils/Context.sol\":709:716  address */\n      0x00\n        /* \"node_modules/@openzeppelin/contracts/utils/Context.sol\":735:745  msg.sender */\n      caller\n        /* \"node_modules/@openzeppelin/contracts/utils/Context.sol\":728:745  return msg.sender */\n      swap1\n      pop\n        /* \"node_modules/@openzeppelin/contracts/utils/Context.sol\":656:752  function _msgSender() internal view virtual returns (address) {... */\n      swap1\n      jump\t// out\n        /* \"node_modules/@openzeppelin/contracts/token/ERC721/ERC721.sol\":17442:17562  function _approve(address to, uint256 tokenId, address auth) internal {... */\n    tag_131:\n        /* \"node_modules/@openzeppelin/contracts/token/ERC721/ERC721.sol\":17522:17555  _approve(to, tokenId, auth, true) */\n      tag_254\n        /* \"node_modules/@openzeppelin/contracts/token/ERC721/ERC721.sol\":17531:17533  to */\n      dup4\n        /* \"node_modules/@openzeppelin/contracts/token/ERC721/ERC721.sol\":17535:17542  tokenId */\n      dup4\n        /* \"node_modules/@openzeppelin/contracts/token/ERC721/ERC721.sol\":17544:17548  auth */\n      dup4\n        /* \"node_modules/@openzeppelin/contracts/token/ERC721/ERC721.sol\":17550:17554  true */\n      0x01\n        /* \"node_modules/@openzeppelin/contracts/token/ERC721/ERC721.sol\":17522:17530  _approve */\n      tag_255\n        /* \"node_modules/@openzeppelin/contracts/token/ERC721/ERC721.sol\":17522:17555  _approve(to, tokenId, auth, true) */\n      jump\t// in\n    tag_254:\n        /* \"node_modules/@openzeppelin/contracts/token/ERC721/ERC721.sol\":17442:17562  function _approve(address to, uint256 tokenId, address auth) internal {... */\n      pop\n      pop\n      pop\n      jump\t// out\n        /* \"node_modules/@openzeppelin/contracts/token/ERC721/ERC721.sol\":11862:12657  function _update(address to, uint256 tokenId, address auth) internal virtual returns (address) {... */\n    tag_164:\n        /* \"node_modules/@openzeppelin/contracts/token/ERC721/ERC721.sol\":11948:11955  address */\n      0x00\n        /* \"node_modules/@openzeppelin/contracts/token/ERC721/ERC721.sol\":11967:11979  address from */\n      dup1\n        /* \"node_modules/@openzeppelin/contracts/token/ERC721/ERC721.sol\":11982:11999  _ownerOf(tokenId) */\n      tag_257\n        /* \"node_modules/@openzeppelin/contracts/token/ERC721/ERC721.sol\":11991:11998  tokenId */\n      dup5\n        /* \"node_modules/@openzeppelin/contracts/token/ERC721/ERC721.sol\":11982:11990  _ownerOf */\n      tag_248\n        /* \"node_modules/@openzeppelin/contracts/token/ERC721/ERC721.sol\":11982:11999  _ownerOf(tokenId) */\n      jump\t// in\n    tag_257:\n        /* \"node_modules/@openzeppelin/contracts/token/ERC721/ERC721.sol\":11967:11999  address from = _ownerOf(tokenId) */\n      swap1\n      pop\n        /* \"node_modules/@openzeppelin/contracts/token/ERC721/ERC721.sol\":12075:12076  0 */\n      0x00\n        /* \"node_modules/@openzeppelin/contracts/token/ERC721/ERC721.sol\":12059:12077  auth != address(0) */\n      0xffffffffffffffffffffffffffffffffffffffff\n      and\n        /* \"node_modules/@openzeppelin/contracts/token/ERC721/ERC721.sol\":12059:12063  auth */\n      dup4\n        /* \"node_modules/@openzeppelin/contracts/token/ERC721/ERC721.sol\":12059:12077  auth != address(0) */\n      0xffffffffffffffffffffffffffffffffffffffff\n      and\n      eq\n        /* \"node_modules/@openzeppelin/contracts/token/ERC721/ERC721.sol\":12055:12141  if (auth != address(0)) {... */\n      tag_258\n      jumpi\n        /* \"node_modules/@openzeppelin/contracts/token/ERC721/ERC721.sol\":12093:12130  _checkAuthorized(from, auth, tokenId) */\n      tag_259\n        /* \"node_modules/@openzeppelin/contracts/token/ERC721/ERC721.sol\":12110:12114  from */\n      dup2\n        /* \"node_modules/@openzeppelin/contracts/token/ERC721/ERC721.sol\":12116:12120  auth */\n      dup5\n        /* \"node_modules/@openzeppelin/contracts/token/ERC721/ERC721.sol\":12122:12129  tokenId */\n      dup7\n        /* \"node_modules/@openzeppelin/contracts/token/ERC721/ERC721.sol\":12093:12109  _checkAuthorized */\n      tag_260\n        /* \"node_modules/@openzeppelin/contracts/token/ERC721/ERC721.sol\":12093:12130  _checkAuthorized(from, auth, tokenId) */\n      jump\t// in\n    tag_259:\n        /* \"node_modules/@openzeppelin/contracts/token/ERC721/ERC721.sol\":12055:12141  if (auth != address(0)) {... */\n    tag_258:\n        /* \"node_modules/@openzeppelin/contracts/token/ERC721/ERC721.sol\":12201:12202  0 */\n      0x00\n        /* \"node_modules/@openzeppelin/contracts/token/ERC721/ERC721.sol\":12185:12203  from != address(0) */\n      0xffffffffffffffffffffffffffffffffffffffff\n      and\n        /* \"node_modules/@openzeppelin/contracts/token/ERC721/ERC721.sol\":12185:12189  from */\n      dup2\n        /* \"node_modules/@openzeppelin/contracts/token/ERC721/ERC721.sol\":12185:12203  from != address(0) */\n      0xffffffffffffffffffffffffffffffffffffffff\n      and\n      eq\n        /* \"node_modules/@openzeppelin/contracts/token/ERC721/ERC721.sol\":12181:12437  if (from != address(0)) {... */\n      tag_261\n      jumpi\n        /* \"node_modules/@openzeppelin/contracts/token/ERC721/ERC721.sol\":12301:12349  _approve(address(0), tokenId, address(0), false) */\n      tag_262\n        /* \"node_modules/@openzeppelin/contracts/token/ERC721/ERC721.sol\":12318:12319  0 */\n      0x00\n        /* \"node_modules/@openzeppelin/contracts/token/ERC721/ERC721.sol\":12322:12329  tokenId */\n      dup6\n        /* \"node_modules/@openzeppelin/contracts/token/ERC721/ERC721.sol\":12339:12340  0 */\n      0x00\n        /* \"node_modules/@openzeppelin/contracts/token/ERC721/ERC721.sol\":12343:12348  false */\n      dup1\n        /* \"node_modules/@openzeppelin/contracts/token/ERC721/ERC721.sol\":12301:12309  _approve */\n      tag_255\n        /* \"node_modules/@openzeppelin/contracts/token/ERC721/ERC721.sol\":12301:12349  _approve(address(0), tokenId, address(0), false) */\n      jump\t// in\n    tag_262:\n        /* \"node_modules/@openzeppelin/contracts/token/ERC721/ERC721.sol\":12411:12412  1 */\n      0x01\n        /* \"node_modules/@openzeppelin/contracts/token/ERC721/ERC721.sol\":12392:12401  _balances */\n      0x03\n        /* \"node_modules/@openzeppelin/contracts/token/ERC721/ERC721.sol\":12392:12407  _balances[from] */\n      0x00\n        /* \"node_modules/@openzeppelin/contracts/token/ERC721/ERC721.sol\":12402:12406  from */\n      dup4\n        /* \"node_modules/@openzeppelin/contracts/token/ERC721/ERC721.sol\":12392:12407  _balances[from] */\n      0xffffffffffffffffffffffffffffffffffffffff\n      and\n      0xffffffffffffffffffffffffffffffffffffffff\n      and\n      dup2\n      mstore\n      0x20\n      add\n      swap1\n      dup2\n      mstore\n      0x20\n      add\n      0x00\n      keccak256\n      0x00\n        /* \"node_modules/@openzeppelin/contracts/token/ERC721/ERC721.sol\":12392:12412  _balances[from] -= 1 */\n      dup3\n      dup3\n      sload\n      sub\n      swap3\n      pop\n      pop\n      dup2\n      swap1\n      sstore\n      pop\n        /* \"node_modules/@openzeppelin/contracts/token/ERC721/ERC721.sol\":12181:12437  if (from != address(0)) {... */\n    tag_261:\n        /* \"node_modules/@openzeppelin/contracts/token/ERC721/ERC721.sol\":12465:12466  0 */\n      0x00\n        /* \"node_modules/@openzeppelin/contracts/token/ERC721/ERC721.sol\":12451:12467  to != address(0) */\n      0xffffffffffffffffffffffffffffffffffffffff\n      and\n        /* \"node_modules/@openzeppelin/contracts/token/ERC721/ERC721.sol\":12451:12453  to */\n      dup6\n        /* \"node_modules/@openzeppelin/contracts/token/ERC721/ERC721.sol\":12451:12467  to != address(0) */\n      0xffffffffffffffffffffffffffffffffffffffff\n      and\n      eq\n        /* \"node_modules/@openzeppelin/contracts/token/ERC721/ERC721.sol\":12447:12554  if (to != address(0)) {... */\n      tag_263\n      jumpi\n        /* \"node_modules/@openzeppelin/contracts/token/ERC721/ERC721.sol\":12528:12529  1 */\n      0x01\n        /* \"node_modules/@openzeppelin/contracts/token/ERC721/ERC721.sol\":12511:12520  _balances */\n      0x03\n        /* \"node_modules/@openzeppelin/contracts/token/ERC721/ERC721.sol\":12511:12524  _balances[to] */\n      0x00\n        /* \"node_modules/@openzeppelin/contracts/token/ERC721/ERC721.sol\":12521:12523  to */\n      dup8\n        /* \"node_modules/@openzeppelin/contracts/token/ERC721/ERC721.sol\":12511:12524  _balances[to] */\n      0xffffffffffffffffffffffffffffffffffffffff\n      and\n      0xffffffffffffffffffffffffffffffffffffffff\n      and\n      dup2\n      mstore\n      0x20\n      add\n      swap1\n      dup2\n      mstore\n      0x20\n      add\n      0x00\n      keccak256\n      0x00\n        /* \"node_modules/@openzeppelin/contracts/token/ERC721/ERC721.sol\":12511:12529  _balances[to] += 1 */\n      dup3\n      dup3\n      sload\n      add\n      swap3\n      pop\n      pop\n      dup2\n      swap1\n      sstore\n      pop\n        /* \"node_modules/@openzeppelin/contracts/token/ERC721/ERC721.sol\":12447:12554  if (to != address(0)) {... */\n    tag_263:\n        /* \"node_modules/@openzeppelin/contracts/token/ERC721/ERC721.sol\":12583:12585  to */\n      dup5\n        /* \"node_modules/@openzeppelin/contracts/token/ERC721/ERC721.sol\":12564:12571  _owners */\n      0x02\n        /* \"node_modules/@openzeppelin/contracts/token/ERC721/ERC721.sol\":12564:12580  _owners[tokenId] */\n      0x00\n        /* \"node_modules/@openzeppelin/contracts/token/ERC721/ERC721.sol\":12572:12579  tokenId */\n      dup7\n        /* \"node_modules/@openzeppelin/contracts/token/ERC721/ERC721.sol\":12564:12580  _owners[tokenId] */\n      dup2\n      mstore\n      0x20\n      add\n      swap1\n      dup2\n      mstore\n      0x20\n      add\n      0x00\n      keccak256\n      0x00\n        /* \"node_modules/@openzeppelin/contracts/token/ERC721/ERC721.sol\":12564:12585  _owners[tokenId] = to */\n      0x0100\n      exp\n      dup2\n      sload\n      dup2\n      0xffffffffffffffffffffffffffffffffffffffff\n      mul\n      not\n      and\n      swap1\n      dup4\n      0xffffffffffffffffffffffffffffffffffffffff\n      and\n      mul\n      or\n      swap1\n      sstore\n      pop\n        /* \"node_modules/@openzeppelin/contracts/token/ERC721/ERC721.sol\":12620:12627  tokenId */\n      dup4\n        /* \"node_modules/@openzeppelin/contracts/token/ERC721/ERC721.sol\":12616:12618  to */\n      dup6\n        /* \"node_modules/@openzeppelin/contracts/token/ERC721/ERC721.sol\":12601:12628  Transfer(from, to, tokenId) */\n      0xffffffffffffffffffffffffffffffffffffffff\n      and\n        /* \"node_modules/@openzeppelin/contracts/token/ERC721/ERC721.sol\":12610:12614  from */\n      dup3\n        /* \"node_modules/@openzeppelin/contracts/token/ERC721/ERC721.sol\":12601:12628  Transfer(from, to, tokenId) */\n      0xffffffffffffffffffffffffffffffffffffffff\n      and\n      0xddf252ad1be2c89b69c2b068fc378daa952ba7f163c4a11628f55a4df523b3ef\n      mload(0x40)\n      mload(0x40)\n      dup1\n      swap2\n      sub\n      swap1\n      log4\n        /* \"node_modules/@openzeppelin/contracts/token/ERC721/ERC721.sol\":12646:12650  from */\n      dup1\n        /* \"node_modules/@openzeppelin/contracts/token/ERC721/ERC721.sol\":12639:12650  return from */\n      swap2\n      pop\n      pop\n        /* \"node_modules/@openzeppelin/contracts/token/ERC721/ERC721.sol\":11862:12657  function _update(address to, uint256 tokenId, address auth) internal virtual returns (address) {... */\n      swap4\n      swap3\n      pop\n      pop\n      pop\n      jump\t// out\n        /* \"node_modules/@openzeppelin/contracts/token/ERC721/ERC721.sol\":12979:13306  function _mint(address to, uint256 tokenId) internal {... */\n    tag_213:\n        /* \"node_modules/@openzeppelin/contracts/token/ERC721/ERC721.sol\":13060:13061  0 */\n      0x00\n        /* \"node_modules/@openzeppelin/contracts/token/ERC721/ERC721.sol\":13046:13062  to == address(0) */\n      0xffffffffffffffffffffffffffffffffffffffff\n      and\n        /* \"node_modules/@openzeppelin/contracts/token/ERC721/ERC721.sol\":13046:13048  to */\n      dup3\n        /* \"node_modules/@openzeppelin/contracts/token/ERC721/ERC721.sol\":13046:13062  to == address(0) */\n      0xffffffffffffffffffffffffffffffffffffffff\n      and\n      sub\n        /* \"node_modules/@openzeppelin/contracts/token/ERC721/ERC721.sol\":13042:13129  if (to == address(0)) {... */\n      tag_265\n      jumpi\n        /* \"node_modules/@openzeppelin/contracts/token/ERC721/ERC721.sol\":13115:13116  0 */\n      0x00\n        /* \"node_modules/@openzeppelin/contracts/token/ERC721/ERC721.sol\":13085:13118  ERC721InvalidReceiver(address(0)) */\n      mload(0x40)\n      0x64a0ae9200000000000000000000000000000000000000000000000000000000\n      dup2\n      mstore\n      0x04\n      add\n      tag_266\n      swap2\n      swap1\n      tag_40\n      jump\t// in\n    tag_266:\n      mload(0x40)\n      dup1\n      swap2\n      sub\n      swap1\n      revert\n        /* \"node_modules/@openzeppelin/contracts/token/ERC721/ERC721.sol\":13042:13129  if (to == address(0)) {... */\n    tag_265:\n        /* \"node_modules/@openzeppelin/contracts/token/ERC721/ERC721.sol\":13138:13159  address previousOwner */\n      0x00\n        /* \"node_modules/@openzeppelin/contracts/token/ERC721/ERC721.sol\":13162:13194  _update(to, tokenId, address(0)) */\n      tag_267\n        /* \"node_modules/@openzeppelin/contracts/token/ERC721/ERC721.sol\":13170:13172  to */\n      dup4\n        /* \"node_modules/@openzeppelin/contracts/token/ERC721/ERC721.sol\":13174:13181  tokenId */\n      dup4\n        /* \"node_modules/@openzeppelin/contracts/token/ERC721/ERC721.sol\":13191:13192  0 */\n      0x00\n        /* \"node_modules/@openzeppelin/contracts/token/ERC721/ERC721.sol\":13162:13169  _update */\n      tag_164\n        /* \"node_modules/@openzeppelin/contracts/token/ERC721/ERC721.sol\":13162:13194  _update(to, tokenId, address(0)) */\n      jump\t// in\n    tag_267:\n        /* \"node_modules/@openzeppelin/contracts/token/ERC721/ERC721.sol\":13138:13194  address previousOwner = _update(to, tokenId, address(0)) */\n      swap1\n      pop\n        /* \"node_modules/@openzeppelin/contracts/token/ERC721/ERC721.sol\":13233:13234  0 */\n      0x00\n        /* \"node_modules/@openzeppelin/contracts/token/ERC721/ERC721.sol\":13208:13235  previousOwner != address(0) */\n      0xffffffffffffffffffffffffffffffffffffffff\n      and\n        /* \"node_modules/@openzeppelin/contracts/token/ERC721/ERC721.sol\":13208:13221  previousOwner */\n      dup2\n        /* \"node_modules/@openzeppelin/contracts/token/ERC721/ERC721.sol\":13208:13235  previousOwner != address(0) */\n      0xffffffffffffffffffffffffffffffffffffffff\n      and\n      eq\n        /* \"node_modules/@openzeppelin/contracts/token/ERC721/ERC721.sol\":13204:13300  if (previousOwner != address(0)) {... */\n      tag_268\n      jumpi\n        /* \"node_modules/@openzeppelin/contracts/token/ERC721/ERC721.sol\":13286:13287  0 */\n      0x00\n        /* \"node_modules/@openzeppelin/contracts/token/ERC721/ERC721.sol\":13258:13289  ERC721InvalidSender(address(0)) */\n      mload(0x40)\n      0x73c6ac6e00000000000000000000000000000000000000000000000000000000\n      dup2\n      mstore\n      0x04\n      add\n      tag_269\n      swap2\n      swap1\n      tag_40\n      jump\t// in\n    tag_269:\n      mload(0x40)\n      dup1\n      swap2\n      sub\n      swap1\n      revert\n        /* \"node_modules/@openzeppelin/contracts/token/ERC721/ERC721.sol\":13204:13300  if (previousOwner != address(0)) {... */\n    tag_268:\n        /* \"node_modules/@openzeppelin/contracts/token/ERC721/ERC721.sol\":13032:13306  {... */\n      pop\n        /* \"node_modules/@openzeppelin/contracts/token/ERC721/ERC721.sol\":12979:13306  function _mint(address to, uint256 tokenId) internal {... */\n      pop\n      pop\n      jump\t// out\n        /* \"node_modules/@openzeppelin/contracts/token/ERC721/ERC721.sol\":18615:18927  function _setApprovalForAll(address owner, address operator, bool approved) internal virtual {... */\n    tag_232:\n        /* \"node_modules/@openzeppelin/contracts/token/ERC721/ERC721.sol\":18742:18743  0 */\n      0x00\n        /* \"node_modules/@openzeppelin/contracts/token/ERC721/ERC721.sol\":18722:18744  operator == address(0) */\n      0xffffffffffffffffffffffffffffffffffffffff\n      and\n        /* \"node_modules/@openzeppelin/contracts/token/ERC721/ERC721.sol\":18722:18730  operator */\n      dup3\n        /* \"node_modules/@openzeppelin/contracts/token/ERC721/ERC721.sol\":18722:18744  operator == address(0) */\n      0xffffffffffffffffffffffffffffffffffffffff\n      and\n      sub\n        /* \"node_modules/@openzeppelin/contracts/token/ERC721/ERC721.sol\":18718:18809  if (operator == address(0)) {... */\n      tag_271\n      jumpi\n        /* \"node_modules/@openzeppelin/contracts/token/ERC721/ERC721.sol\":18789:18797  operator */\n      dup2\n        /* \"node_modules/@openzeppelin/contracts/token/ERC721/ERC721.sol\":18767:18798  ERC721InvalidOperator(operator) */\n      mload(0x40)\n      0x5b08ba1800000000000000000000000000000000000000000000000000000000\n      dup2\n      mstore\n      0x04\n      add\n      tag_272\n      swap2\n      swap1\n      tag_40\n      jump\t// in\n    tag_272:\n      mload(0x40)\n      dup1\n      swap2\n      sub\n      swap1\n      revert\n        /* \"node_modules/@openzeppelin/contracts/token/ERC721/ERC721.sol\":18718:18809  if (operator == address(0)) {... */\n    tag_271:\n        /* \"node_modules/@openzeppelin/contracts/token/ERC721/ERC721.sol\":18856:18864  approved */\n      dup1\n        /* \"node_modules/@openzeppelin/contracts/token/ERC721/ERC721.sol\":18818:18836  _operatorApprovals */\n      0x05\n        /* \"node_modules/@openzeppelin/contracts/token/ERC721/ERC721.sol\":18818:18843  _operatorApprovals[owner] */\n      0x00\n        /* \"node_modules/@openzeppelin/contracts/token/ERC721/ERC721.sol\":18837:18842  owner */\n      dup6\n        /* \"node_modules/@openzeppelin/contracts/token/ERC721/ERC721.sol\":18818:18843  _operatorApprovals[owner] */\n      0xffffffffffffffffffffffffffffffffffffffff\n      and\n      0xffffffffffffffffffffffffffffffffffffffff\n      and\n      dup2\n      mstore\n      0x20\n      add\n      swap1\n      dup2\n      mstore\n      0x20\n      add\n      0x00\n      keccak256\n        /* \"node_modules/@openzeppelin/contracts/token/ERC721/ERC721.sol\":18818:18853  _operatorApprovals[owner][operator] */\n      0x00\n        /* \"node_modules/@openzeppelin/contracts/token/ERC721/ERC721.sol\":18844:18852  operator */\n      dup5\n        /* \"node_modules/@openzeppelin/contracts/token/ERC721/ERC721.sol\":18818:18853  _operatorApprovals[owner][operator] */\n      0xffffffffffffffffffffffffffffffffffffffff\n      and\n      0xffffffffffffffffffffffffffffffffffffffff\n      and\n      dup2\n      mstore\n      0x20\n      add\n      swap1\n      dup2\n      mstore\n      0x20\n      add\n      0x00\n      keccak256\n      0x00\n        /* \"node_modules/@openzeppelin/contracts/token/ERC721/ERC721.sol\":18818:18864  _operatorApprovals[owner][operator] = approved */\n      0x0100\n      exp\n      dup2\n      sload\n      dup2\n      0xff\n      mul\n      not\n      and\n      swap1\n      dup4\n      iszero\n      iszero\n      mul\n      or\n      swap1\n      sstore\n      pop\n        /* \"node_modules/@openzeppelin/contracts/token/ERC721/ERC721.sol\":18901:18909  operator */\n      dup2\n        /* \"node_modules/@openzeppelin/contracts/token/ERC721/ERC721.sol\":18879:18920  ApprovalForAll(owner, operator, approved) */\n      0xffffffffffffffffffffffffffffffffffffffff\n      and\n        /* \"node_modules/@openzeppelin/contracts/token/ERC721/ERC721.sol\":18894:18899  owner */\n      dup4\n        /* \"node_modules/@openzeppelin/contracts/token/ERC721/ERC721.sol\":18879:18920  ApprovalForAll(owner, operator, approved) */\n      0xffffffffffffffffffffffffffffffffffffffff\n      and\n      0x17307eab39ab6107e8899845ad3d59bd9653f200f220920489ca2b5937696c31\n        /* \"node_modules/@openzeppelin/contracts/token/ERC721/ERC721.sol\":18911:18919  approved */\n      dup4\n        /* \"node_modules/@openzeppelin/contracts/token/ERC721/ERC721.sol\":18879:18920  ApprovalForAll(owner, operator, approved) */\n      mload(0x40)\n      tag_273\n      swap2\n      swap1\n      tag_30\n      jump\t// in\n    tag_273:\n      mload(0x40)\n      dup1\n      swap2\n      sub\n      swap1\n      log3\n        /* \"node_modules/@openzeppelin/contracts/token/ERC721/ERC721.sol\":18615:18927  function _setApprovalForAll(address owner, address operator, bool approved) internal virtual {... */\n      pop\n      pop\n      pop\n      jump\t// out\n        /* \"node_modules/@openzeppelin/contracts/token/ERC721/ERC721.sol\":19942:20724  function _checkOnERC721Received(address from, address to, uint256 tokenId, bytes memory data) private {... */\n    tag_236:\n        /* \"node_modules/@openzeppelin/contracts/token/ERC721/ERC721.sol\":20075:20076  0 */\n      0x00\n        /* \"node_modules/@openzeppelin/contracts/token/ERC721/ERC721.sol\":20058:20060  to */\n      dup4\n        /* \"node_modules/@openzeppelin/contracts/token/ERC721/ERC721.sol\":20058:20072  to.code.length */\n      0xffffffffffffffffffffffffffffffffffffffff\n      and\n      extcodesize\n        /* \"node_modules/@openzeppelin/contracts/token/ERC721/ERC721.sol\":20058:20076  to.code.length > 0 */\n      gt\n        /* \"node_modules/@openzeppelin/contracts/token/ERC721/ERC721.sol\":20054:20718  if (to.code.length > 0) {... */\n      iszero\n      tag_275\n      jumpi\n        /* \"node_modules/@openzeppelin/contracts/token/ERC721/ERC721.sol\":20112:20114  to */\n      dup3\n        /* \"node_modules/@openzeppelin/contracts/token/ERC721/ERC721.sol\":20096:20132  IERC721Receiver(to).onERC721Received */\n      0xffffffffffffffffffffffffffffffffffffffff\n      and\n      0x150b7a02\n        /* \"node_modules/@openzeppelin/contracts/token/ERC721/ERC721.sol\":20133:20145  _msgSender() */\n      tag_276\n        /* \"node_modules/@openzeppelin/contracts/token/ERC721/ERC721.sol\":20133:20143  _msgSender */\n      tag_130\n        /* \"node_modules/@openzeppelin/contracts/token/ERC721/ERC721.sol\":20133:20145  _msgSender() */\n      jump\t// in\n    tag_276:\n        /* \"node_modules/@openzeppelin/contracts/token/ERC721/ERC721.sol\":20147:20151  from */\n      dup7\n        /* \"node_modules/@openzeppelin/contracts/token/ERC721/ERC721.sol\":20153:20160  tokenId */\n      dup6\n        /* \"node_modules/@openzeppelin/contracts/token/ERC721/ERC721.sol\":20162:20166  data */\n      dup6\n        /* \"node_modules/@openzeppelin/contracts/token/ERC721/ERC721.sol\":20096:20167  IERC721Receiver(to).onERC721Received(_msgSender(), from, tokenId, data) */\n      mload(0x40)\n      dup6\n      0xffffffff\n      and\n      0xe0\n      shl\n      dup2\n      mstore\n      0x04\n      add\n      tag_277\n      swap5\n      swap4\n      swap3\n      swap2\n      swap1\n      tag_278\n      jump\t// in\n    tag_277:\n      0x20\n      mload(0x40)\n      dup1\n      dup4\n      sub\n      dup2\n      0x00\n      dup8\n      gas\n      call\n      swap3\n      pop\n      pop\n      pop\n      dup1\n      iszero\n      tag_279\n      jumpi\n      pop\n      mload(0x40)\n      returndatasize\n      not(0x1f)\n      0x1f\n      dup3\n      add\n      and\n      dup3\n      add\n      dup1\n      0x40\n      mstore\n      pop\n      dup2\n      add\n      swap1\n      tag_280\n      swap2\n      swap1\n      tag_281\n      jump\t// in\n    tag_280:\n      0x01\n    tag_279:\n        /* \"node_modules/@openzeppelin/contracts/token/ERC721/ERC721.sol\":20092:20708  try IERC721Receiver(to).onERC721Received(_msgSender(), from, tokenId, data) returns (bytes4 retval) {... */\n      tag_282\n      jumpi\n      returndatasize\n      dup1\n      0x00\n      dup2\n      eq\n      tag_287\n      jumpi\n      mload(0x40)\n      swap2\n      pop\n      and(add(returndatasize, 0x3f), not(0x1f))\n      dup3\n      add\n      0x40\n      mstore\n      returndatasize\n      dup3\n      mstore\n      returndatasize\n      0x00\n      0x20\n      dup5\n      add\n      returndatacopy\n      jump(tag_286)\n    tag_287:\n      0x60\n      swap2\n      pop\n    tag_286:\n      pop\n        /* \"node_modules/@openzeppelin/contracts/token/ERC721/ERC721.sol\":20422:20423  0 */\n      0x00\n        /* \"node_modules/@openzeppelin/contracts/token/ERC721/ERC721.sol\":20405:20411  reason */\n      dup2\n        /* \"node_modules/@openzeppelin/contracts/token/ERC721/ERC721.sol\":20405:20418  reason.length */\n      mload\n        /* \"node_modules/@openzeppelin/contracts/token/ERC721/ERC721.sol\":20405:20423  reason.length == 0 */\n      sub\n        /* \"node_modules/@openzeppelin/contracts/token/ERC721/ERC721.sol\":20401:20694  if (reason.length == 0) {... */\n      tag_288\n      jumpi\n        /* \"node_modules/@openzeppelin/contracts/token/ERC721/ERC721.sol\":20476:20478  to */\n      dup4\n        /* \"node_modules/@openzeppelin/contracts/token/ERC721/ERC721.sol\":20454:20479  ERC721InvalidReceiver(to) */\n      mload(0x40)\n      0x64a0ae9200000000000000000000000000000000000000000000000000000000\n      dup2\n      mstore\n      0x04\n      add\n      tag_289\n      swap2\n      swap1\n      tag_40\n      jump\t// in\n    tag_289:\n      mload(0x40)\n      dup1\n      swap2\n      sub\n      swap1\n      revert\n        /* \"node_modules/@openzeppelin/contracts/token/ERC721/ERC721.sol\":20401:20694  if (reason.length == 0) {... */\n    tag_288:\n        /* \"node_modules/@openzeppelin/contracts/token/ERC721/ERC721.sol\":20646:20652  reason */\n      dup1\n        /* \"node_modules/@openzeppelin/contracts/token/ERC721/ERC721.sol\":20640:20653  mload(reason) */\n      mload\n        /* \"node_modules/@openzeppelin/contracts/token/ERC721/ERC721.sol\":20631:20637  reason */\n      dup2\n        /* \"node_modules/@openzeppelin/contracts/token/ERC721/ERC721.sol\":20627:20629  32 */\n      0x20\n        /* \"node_modules/@openzeppelin/contracts/token/ERC721/ERC721.sol\":20623:20638  add(32, reason) */\n      add\n        /* \"node_modules/@openzeppelin/contracts/token/ERC721/ERC721.sol\":20616:20654  revert(add(32, reason), mload(reason)) */\n      revert\n        /* \"node_modules/@openzeppelin/contracts/token/ERC721/ERC721.sol\":20092:20708  try IERC721Receiver(to).onERC721Received(_msgSender(), from, tokenId, data) returns (bytes4 retval) {... */\n    tag_282:\n        /* \"node_modules/@openzeppelin/contracts/token/ERC721/ERC721.sol\":20224:20265  IERC721Receiver.onERC721Received.selector */\n      shl(0xe0, 0x150b7a02)\n        /* \"node_modules/@openzeppelin/contracts/token/ERC721/ERC721.sol\":20214:20265  retval != IERC721Receiver.onERC721Received.selector */\n      not(0xffffffffffffffffffffffffffffffffffffffffffffffffffffffff)\n      and\n        /* \"node_modules/@openzeppelin/contracts/token/ERC721/ERC721.sol\":20214:20220  retval */\n      dup2\n        /* \"node_modules/@openzeppelin/contracts/token/ERC721/ERC721.sol\":20214:20265  retval != IERC721Receiver.onERC721Received.selector */\n      not(0xffffffffffffffffffffffffffffffffffffffffffffffffffffffff)\n      and\n      eq\n        /* \"node_modules/@openzeppelin/contracts/token/ERC721/ERC721.sol\":20210:20340  if (retval != IERC721Receiver.onERC721Received.selector) {... */\n      tag_292\n      jumpi\n        /* \"node_modules/@openzeppelin/contracts/token/ERC721/ERC721.sol\":20318:20320  to */\n      dup4\n        /* \"node_modules/@openzeppelin/contracts/token/ERC721/ERC721.sol\":20296:20321  ERC721InvalidReceiver(to) */\n      mload(0x40)\n      0x64a0ae9200000000000000000000000000000000000000000000000000000000\n      dup2\n      mstore\n      0x04\n      add\n      tag_293\n      swap2\n      swap1\n      tag_40\n      jump\t// in\n    tag_293:\n      mload(0x40)\n      dup1\n      swap2\n      sub\n      swap1\n      revert\n        /* \"node_modules/@openzeppelin/contracts/token/ERC721/ERC721.sol\":20210:20340  if (retval != IERC721Receiver.onERC721Received.selector) {... */\n    tag_292:\n        /* \"node_modules/@openzeppelin/contracts/token/ERC721/ERC721.sol\":20168:20354  returns (bytes4 retval) {... */\n      pop\n        /* \"node_modules/@openzeppelin/contracts/token/ERC721/ERC721.sol\":20054:20718  if (to.code.length > 0) {... */\n    tag_275:\n        /* \"node_modules/@openzeppelin/contracts/token/ERC721/ERC721.sol\":19942:20724  function _checkOnERC721Received(address from, address to, uint256 tokenId, bytes memory data) private {... */\n      pop\n      pop\n      pop\n      pop\n      jump\t// out\n        /* \"node_modules/@openzeppelin/contracts/token/ERC721/ERC721.sol\":8731:8846  function _ownerOf(uint256 tokenId) internal view virtual returns (address) {... */\n    tag_248:\n        /* \"node_modules/@openzeppelin/contracts/token/ERC721/ERC721.sol\":8797:8804  address */\n      0x00\n        /* \"node_modules/@openzeppelin/contracts/token/ERC721/ERC721.sol\":8823:8830  _owners */\n      0x02\n        /* \"node_modules/@openzeppelin/contracts/token/ERC721/ERC721.sol\":8823:8839  _owners[tokenId] */\n      0x00\n        /* \"node_modules/@openzeppelin/contracts/token/ERC721/ERC721.sol\":8831:8838  tokenId */\n      dup4\n        /* \"node_modules/@openzeppelin/contracts/token/ERC721/ERC721.sol\":8823:8839  _owners[tokenId] */\n      dup2\n      mstore\n      0x20\n      add\n      swap1\n      dup2\n      mstore\n      0x20\n      add\n      0x00\n      keccak256\n      0x00\n      swap1\n      sload\n      swap1\n      0x0100\n      exp\n      swap1\n      div\n      0xffffffffffffffffffffffffffffffffffffffff\n      and\n        /* \"node_modules/@openzeppelin/contracts/token/ERC721/ERC721.sol\":8816:8839  return _owners[tokenId] */\n      swap1\n      pop\n        /* \"node_modules/@openzeppelin/contracts/token/ERC721/ERC721.sol\":8731:8846  function _ownerOf(uint256 tokenId) internal view virtual returns (address) {... */\n      swap2\n      swap1\n      pop\n      jump\t// out\n        /* \"node_modules/@openzeppelin/contracts/token/ERC721/ERC721.sol\":17744:18406  function _approve(address to, uint256 tokenId, address auth, bool emitEvent) internal virtual {... */\n    tag_255:\n        /* \"node_modules/@openzeppelin/contracts/token/ERC721/ERC721.sol\":17904:17913  emitEvent */\n      dup1\n        /* \"node_modules/@openzeppelin/contracts/token/ERC721/ERC721.sol\":17904:17935  emitEvent || auth != address(0) */\n      dup1\n      tag_296\n      jumpi\n      pop\n        /* \"node_modules/@openzeppelin/contracts/token/ERC721/ERC721.sol\":17933:17934  0 */\n      0x00\n        /* \"node_modules/@openzeppelin/contracts/token/ERC721/ERC721.sol\":17917:17935  auth != address(0) */\n      0xffffffffffffffffffffffffffffffffffffffff\n      and\n        /* \"node_modules/@openzeppelin/contracts/token/ERC721/ERC721.sol\":17917:17921  auth */\n      dup3\n        /* \"node_modules/@openzeppelin/contracts/token/ERC721/ERC721.sol\":17917:17935  auth != address(0) */\n      0xffffffffffffffffffffffffffffffffffffffff\n      and\n      eq\n      iszero\n        /* \"node_modules/@openzeppelin/contracts/token/ERC721/ERC721.sol\":17904:17935  emitEvent || auth != address(0) */\n    tag_296:\n        /* \"node_modules/@openzeppelin/contracts/token/ERC721/ERC721.sol\":17900:18360  if (emitEvent || auth != address(0)) {... */\n      iszero\n      tag_297\n      jumpi\n        /* \"node_modules/@openzeppelin/contracts/token/ERC721/ERC721.sol\":17951:17964  address owner */\n      0x00\n        /* \"node_modules/@openzeppelin/contracts/token/ERC721/ERC721.sol\":17967:17989  _requireOwned(tokenId) */\n      tag_298\n        /* \"node_modules/@openzeppelin/contracts/token/ERC721/ERC721.sol\":17981:17988  tokenId */\n      dup5\n        /* \"node_modules/@openzeppelin/contracts/token/ERC721/ERC721.sol\":17967:17980  _requireOwned */\n      tag_124\n        /* \"node_modules/@openzeppelin/contracts/token/ERC721/ERC721.sol\":17967:17989  _requireOwned(tokenId) */\n      jump\t// in\n    tag_298:\n        /* \"node_modules/@openzeppelin/contracts/token/ERC721/ERC721.sol\":17951:17989  address owner = _requireOwned(tokenId) */\n      swap1\n      pop\n        /* \"node_modules/@openzeppelin/contracts/token/ERC721/ERC721.sol\":18133:18134  0 */\n      0x00\n        /* \"node_modules/@openzeppelin/contracts/token/ERC721/ERC721.sol\":18117:18135  auth != address(0) */\n      0xffffffffffffffffffffffffffffffffffffffff\n      and\n        /* \"node_modules/@openzeppelin/contracts/token/ERC721/ERC721.sol\":18117:18121  auth */\n      dup4\n        /* \"node_modules/@openzeppelin/contracts/token/ERC721/ERC721.sol\":18117:18135  auth != address(0) */\n      0xffffffffffffffffffffffffffffffffffffffff\n      and\n      eq\n      iszero\n        /* \"node_modules/@openzeppelin/contracts/token/ERC721/ERC721.sol\":18117:18152  auth != address(0) && owner != auth */\n      dup1\n      iszero\n      tag_299\n      jumpi\n      pop\n        /* \"node_modules/@openzeppelin/contracts/token/ERC721/ERC721.sol\":18148:18152  auth */\n      dup3\n        /* \"node_modules/@openzeppelin/contracts/token/ERC721/ERC721.sol\":18139:18152  owner != auth */\n      0xffffffffffffffffffffffffffffffffffffffff\n      and\n        /* \"node_modules/@openzeppelin/contracts/token/ERC721/ERC721.sol\":18139:18144  owner */\n      dup2\n        /* \"node_modules/@openzeppelin/contracts/token/ERC721/ERC721.sol\":18139:18152  owner != auth */\n      0xffffffffffffffffffffffffffffffffffffffff\n      and\n      eq\n      iszero\n        /* \"node_modules/@openzeppelin/contracts/token/ERC721/ERC721.sol\":18117:18152  auth != address(0) && owner != auth */\n    tag_299:\n        /* \"node_modules/@openzeppelin/contracts/token/ERC721/ERC721.sol\":18117:18186  auth != address(0) && owner != auth && !isApprovedForAll(owner, auth) */\n      dup1\n      iszero\n      tag_300\n      jumpi\n      pop\n        /* \"node_modules/@openzeppelin/contracts/token/ERC721/ERC721.sol\":18157:18186  isApprovedForAll(owner, auth) */\n      tag_301\n        /* \"node_modules/@openzeppelin/contracts/token/ERC721/ERC721.sol\":18174:18179  owner */\n      dup2\n        /* \"node_modules/@openzeppelin/contracts/token/ERC721/ERC721.sol\":18181:18185  auth */\n      dup5\n        /* \"node_modules/@openzeppelin/contracts/token/ERC721/ERC721.sol\":18157:18173  isApprovedForAll */\n      tag_108\n        /* \"node_modules/@openzeppelin/contracts/token/ERC721/ERC721.sol\":18157:18186  isApprovedForAll(owner, auth) */\n      jump\t// in\n    tag_301:\n        /* \"node_modules/@openzeppelin/contracts/token/ERC721/ERC721.sol\":18156:18186  !isApprovedForAll(owner, auth) */\n      iszero\n        /* \"node_modules/@openzeppelin/contracts/token/ERC721/ERC721.sol\":18117:18186  auth != address(0) && owner != auth && !isApprovedForAll(owner, auth) */\n    tag_300:\n        /* \"node_modules/@openzeppelin/contracts/token/ERC721/ERC721.sol\":18113:18255  if (auth != address(0) && owner != auth && !isApprovedForAll(owner, auth)) {... */\n      iszero\n      tag_302\n      jumpi\n        /* \"node_modules/@openzeppelin/contracts/token/ERC721/ERC721.sol\":18235:18239  auth */\n      dup3\n        /* \"node_modules/@openzeppelin/contracts/token/ERC721/ERC721.sol\":18213:18240  ERC721InvalidApprover(auth) */\n      mload(0x40)\n      0xa9fbf51f00000000000000000000000000000000000000000000000000000000\n      dup2\n      mstore\n      0x04\n      add\n      tag_303\n      swap2\n      swap1\n      tag_40\n      jump\t// in\n    tag_303:\n      mload(0x40)\n      dup1\n      swap2\n      sub\n      swap1\n      revert\n        /* \"node_modules/@openzeppelin/contracts/token/ERC721/ERC721.sol\":18113:18255  if (auth != address(0) && owner != auth && !isApprovedForAll(owner, auth)) {... */\n    tag_302:\n        /* \"node_modules/@openzeppelin/contracts/token/ERC721/ERC721.sol\":18273:18282  emitEvent */\n      dup2\n        /* \"node_modules/@openzeppelin/contracts/token/ERC721/ERC721.sol\":18269:18350  if (emitEvent) {... */\n      iszero\n      tag_304\n      jumpi\n        /* \"node_modules/@openzeppelin/contracts/token/ERC721/ERC721.sol\":18327:18334  tokenId */\n      dup4\n        /* \"node_modules/@openzeppelin/contracts/token/ERC721/ERC721.sol\":18323:18325  to */\n      dup6\n        /* \"node_modules/@openzeppelin/contracts/token/ERC721/ERC721.sol\":18307:18335  Approval(owner, to, tokenId) */\n      0xffffffffffffffffffffffffffffffffffffffff\n      and\n        /* \"node_modules/@openzeppelin/contracts/token/ERC721/ERC721.sol\":18316:18321  owner */\n      dup3\n        /* \"node_modules/@openzeppelin/contracts/token/ERC721/ERC721.sol\":18307:18335  Approval(owner, to, tokenId) */\n      0xffffffffffffffffffffffffffffffffffffffff\n      and\n      0x8c5be1e5ebec7d5bd14f71427d1e84f3dd0314c0f7b2291e5b200ac8c7c3b925\n      mload(0x40)\n      mload(0x40)\n      dup1\n      swap2\n      sub\n      swap1\n      log4\n        /* \"node_modules/@openzeppelin/contracts/token/ERC721/ERC721.sol\":18269:18350  if (emitEvent) {... */\n    tag_304:\n        /* \"node_modules/@openzeppelin/contracts/token/ERC721/ERC721.sol\":17937:18360  {... */\n      pop\n        /* \"node_modules/@openzeppelin/contracts/token/ERC721/ERC721.sol\":17900:18360  if (emitEvent || auth != address(0)) {... */\n    tag_297:\n        /* \"node_modules/@openzeppelin/contracts/token/ERC721/ERC721.sol\":18397:18399  to */\n      dup4\n        /* \"node_modules/@openzeppelin/contracts/token/ERC721/ERC721.sol\":18370:18385  _tokenApprovals */\n      0x04\n        /* \"node_modules/@openzeppelin/contracts/token/ERC721/ERC721.sol\":18370:18394  _tokenApprovals[tokenId] */\n      0x00\n        /* \"node_modules/@openzeppelin/contracts/token/ERC721/ERC721.sol\":18386:18393  tokenId */\n      dup6\n        /* \"node_modules/@openzeppelin/contracts/token/ERC721/ERC721.sol\":18370:18394  _tokenApprovals[tokenId] */\n      dup2\n      mstore\n      0x20\n      add\n      swap1\n      dup2\n      mstore\n      0x20\n      add\n      0x00\n      keccak256\n      0x00\n        /* \"node_modules/@openzeppelin/contracts/token/ERC721/ERC721.sol\":18370:18399  _tokenApprovals[tokenId] = to */\n      0x0100\n      exp\n      dup2\n      sload\n      dup2\n      0xffffffffffffffffffffffffffffffffffffffff\n      mul\n      not\n      and\n      swap1\n      dup4\n      0xffffffffffffffffffffffffffffffffffffffff\n      and\n      mul\n      or\n      swap1\n      sstore\n      pop\n        /* \"node_modules/@openzeppelin/contracts/token/ERC721/ERC721.sol\":17744:18406  function _approve(address to, uint256 tokenId, address auth, bool emitEvent) internal virtual {... */\n      pop\n      pop\n      pop\n      pop\n      jump\t// out\n        /* \"node_modules/@openzeppelin/contracts/token/ERC721/ERC721.sol\":10106:10474  function _checkAuthorized(address owner, address spender, uint256 tokenId) internal view virtual {... */\n    tag_260:\n        /* \"node_modules/@openzeppelin/contracts/token/ERC721/ERC721.sol\":10218:10256  _isAuthorized(owner, spender, tokenId) */\n      tag_306\n        /* \"node_modules/@openzeppelin/contracts/token/ERC721/ERC721.sol\":10232:10237  owner */\n      dup4\n        /* \"node_modules/@openzeppelin/contracts/token/ERC721/ERC721.sol\":10239:10246  spender */\n      dup4\n        /* \"node_modules/@openzeppelin/contracts/token/ERC721/ERC721.sol\":10248:10255  tokenId */\n      dup4\n        /* \"node_modules/@openzeppelin/contracts/token/ERC721/ERC721.sol\":10218:10231  _isAuthorized */\n      tag_307\n        /* \"node_modules/@openzeppelin/contracts/token/ERC721/ERC721.sol\":10218:10256  _isAuthorized(owner, spender, tokenId) */\n      jump\t// in\n    tag_306:\n        /* \"node_modules/@openzeppelin/contracts/token/ERC721/ERC721.sol\":10213:10468  if (!_isAuthorized(owner, spender, tokenId)) {... */\n      tag_308\n      jumpi\n        /* \"node_modules/@openzeppelin/contracts/token/ERC721/ERC721.sol\":10293:10294  0 */\n      0x00\n        /* \"node_modules/@openzeppelin/contracts/token/ERC721/ERC721.sol\":10276:10295  owner == address(0) */\n      0xffffffffffffffffffffffffffffffffffffffff\n      and\n        /* \"node_modules/@openzeppelin/contracts/token/ERC721/ERC721.sol\":10276:10281  owner */\n      dup4\n        /* \"node_modules/@openzeppelin/contracts/token/ERC721/ERC721.sol\":10276:10295  owner == address(0) */\n      0xffffffffffffffffffffffffffffffffffffffff\n      and\n      sub\n        /* \"node_modules/@openzeppelin/contracts/token/ERC721/ERC721.sol\":10272:10458  if (owner == address(0)) {... */\n      tag_309\n      jumpi\n        /* \"node_modules/@openzeppelin/contracts/token/ERC721/ERC721.sol\":10345:10352  tokenId */\n      dup1\n        /* \"node_modules/@openzeppelin/contracts/token/ERC721/ERC721.sol\":10322:10353  ERC721NonexistentToken(tokenId) */\n      mload(0x40)\n      0x7e27328900000000000000000000000000000000000000000000000000000000\n      dup2\n      mstore\n      0x04\n      add\n      tag_310\n      swap2\n      swap1\n      tag_75\n      jump\t// in\n    tag_310:\n      mload(0x40)\n      dup1\n      swap2\n      sub\n      swap1\n      revert\n        /* \"node_modules/@openzeppelin/contracts/token/ERC721/ERC721.sol\":10272:10458  if (owner == address(0)) {... */\n    tag_309:\n        /* \"node_modules/@openzeppelin/contracts/token/ERC721/ERC721.sol\":10426:10433  spender */\n      dup2\n        /* \"node_modules/@openzeppelin/contracts/token/ERC721/ERC721.sol\":10435:10442  tokenId */\n      dup2\n        /* \"node_modules/@openzeppelin/contracts/token/ERC721/ERC721.sol\":10399:10443  ERC721InsufficientApproval(spender, tokenId) */\n      mload(0x40)\n      0x177e802f00000000000000000000000000000000000000000000000000000000\n      dup2\n      mstore\n      0x04\n      add\n      tag_312\n      swap3\n      swap2\n      swap1\n      tag_313\n      jump\t// in\n    tag_312:\n      mload(0x40)\n      dup1\n      swap2\n      sub\n      swap1\n      revert\n        /* \"node_modules/@openzeppelin/contracts/token/ERC721/ERC721.sol\":10213:10468  if (!_isAuthorized(owner, spender, tokenId)) {... */\n    tag_308:\n        /* \"node_modules/@openzeppelin/contracts/token/ERC721/ERC721.sol\":10106:10474  function _checkAuthorized(address owner, address spender, uint256 tokenId) internal view virtual {... */\n      pop\n      pop\n      pop\n      jump\t// out\n        /* \"node_modules/@openzeppelin/contracts/token/ERC721/ERC721.sol\":9400:9672  function _isAuthorized(address owner, address spender, uint256 tokenId) internal view virtual returns (bool) {... */\n    tag_307:\n        /* \"node_modules/@openzeppelin/contracts/token/ERC721/ERC721.sol\":9503:9507  bool */\n      0x00\n        /* \"node_modules/@openzeppelin/contracts/token/ERC721/ERC721.sol\":9557:9558  0 */\n      dup1\n        /* \"node_modules/@openzeppelin/contracts/token/ERC721/ERC721.sol\":9538:9559  spender != address(0) */\n      0xffffffffffffffffffffffffffffffffffffffff\n      and\n        /* \"node_modules/@openzeppelin/contracts/token/ERC721/ERC721.sol\":9538:9545  spender */\n      dup4\n        /* \"node_modules/@openzeppelin/contracts/token/ERC721/ERC721.sol\":9538:9559  spender != address(0) */\n      0xffffffffffffffffffffffffffffffffffffffff\n      and\n      eq\n      iszero\n        /* \"node_modules/@openzeppelin/contracts/token/ERC721/ERC721.sol\":9538:9665  spender != address(0) &&... */\n      dup1\n      iszero\n      tag_315\n      jumpi\n      pop\n        /* \"node_modules/@openzeppelin/contracts/token/ERC721/ERC721.sol\":9585:9592  spender */\n      dup3\n        /* \"node_modules/@openzeppelin/contracts/token/ERC721/ERC721.sol\":9576:9592  owner == spender */\n      0xffffffffffffffffffffffffffffffffffffffff\n      and\n        /* \"node_modules/@openzeppelin/contracts/token/ERC721/ERC721.sol\":9576:9581  owner */\n      dup5\n        /* \"node_modules/@openzeppelin/contracts/token/ERC721/ERC721.sol\":9576:9592  owner == spender */\n      0xffffffffffffffffffffffffffffffffffffffff\n      and\n      eq\n        /* \"node_modules/@openzeppelin/contracts/token/ERC721/ERC721.sol\":9576:9628  owner == spender || isApprovedForAll(owner, spender) */\n      dup1\n      tag_316\n      jumpi\n      pop\n        /* \"node_modules/@openzeppelin/contracts/token/ERC721/ERC721.sol\":9596:9628  isApprovedForAll(owner, spender) */\n      tag_317\n        /* \"node_modules/@openzeppelin/contracts/token/ERC721/ERC721.sol\":9613:9618  owner */\n      dup5\n        /* \"node_modules/@openzeppelin/contracts/token/ERC721/ERC721.sol\":9620:9627  spender */\n      dup5\n        /* \"node_modules/@openzeppelin/contracts/token/ERC721/ERC721.sol\":9596:9612  isApprovedForAll */\n      tag_108\n        /* \"node_modules/@openzeppelin/contracts/token/ERC721/ERC721.sol\":9596:9628  isApprovedForAll(owner, spender) */\n      jump\t// in\n    tag_317:\n        /* \"node_modules/@openzeppelin/contracts/token/ERC721/ERC721.sol\":9576:9628  owner == spender || isApprovedForAll(owner, spender) */\n    tag_316:\n        /* \"node_modules/@openzeppelin/contracts/token/ERC721/ERC721.sol\":9576:9664  owner == spender || isApprovedForAll(owner, spender) || _getApproved(tokenId) == spender */\n      dup1\n      tag_318\n      jumpi\n      pop\n        /* \"node_modules/@openzeppelin/contracts/token/ERC721/ERC721.sol\":9657:9664  spender */\n      dup3\n        /* \"node_modules/@openzeppelin/contracts/token/ERC721/ERC721.sol\":9632:9664  _getApproved(tokenId) == spender */\n      0xffffffffffffffffffffffffffffffffffffffff\n      and\n        /* \"node_modules/@openzeppelin/contracts/token/ERC721/ERC721.sol\":9632:9653  _getApproved(tokenId) */\n      tag_319\n        /* \"node_modules/@openzeppelin/contracts/token/ERC721/ERC721.sol\":9645:9652  tokenId */\n      dup4\n        /* \"node_modules/@openzeppelin/contracts/token/ERC721/ERC721.sol\":9632:9644  _getApproved */\n      tag_126\n        /* \"node_modules/@openzeppelin/contracts/token/ERC721/ERC721.sol\":9632:9653  _getApproved(tokenId) */\n      jump\t// in\n    tag_319:\n        /* \"node_modules/@openzeppelin/contracts/token/ERC721/ERC721.sol\":9632:9664  _getApproved(tokenId) == spender */\n      0xffffffffffffffffffffffffffffffffffffffff\n      and\n      eq\n        /* \"node_modules/@openzeppelin/contracts/token/ERC721/ERC721.sol\":9576:9664  owner == spender || isApprovedForAll(owner, spender) || _getApproved(tokenId) == spender */\n    tag_318:\n        /* \"node_modules/@openzeppelin/contracts/token/ERC721/ERC721.sol\":9538:9665  spender != address(0) &&... */\n    tag_315:\n        /* \"node_modules/@openzeppelin/contracts/token/ERC721/ERC721.sol\":9519:9665  return... */\n      swap1\n      pop\n        /* \"node_modules/@openzeppelin/contracts/token/ERC721/ERC721.sol\":9400:9672  function _isAuthorized(address owner, address spender, uint256 tokenId) internal view virtual returns (bool) {... */\n      swap4\n      swap3\n      pop\n      pop\n      pop\n      jump\t// out\n    tag_141:\n      mload(0x40)\n      dup1\n      0x40\n      add\n      0x40\n      mstore\n      dup1\n      0x00\n      dup2\n      mstore\n      0x20\n      add\n      tag_320\n      tag_321\n      jump\t// in\n    tag_320:\n      dup2\n      mstore\n      pop\n      swap1\n      jump\t// out\n    tag_321:\n      mload(0x40)\n      dup1\n      0x40\n      add\n      0x40\n      mstore\n      dup1\n      0x60\n      dup2\n      mstore\n      0x20\n      add\n      0x00\n      dup2\n      mstore\n      pop\n      swap1\n      jump\t// out\n        /* \"#utility.yul\":7:82   */\n    tag_322:\n        /* \"#utility.yul\":40:46   */\n      0x00\n        /* \"#utility.yul\":73:75   */\n      0x40\n        /* \"#utility.yul\":67:76   */\n      mload\n        /* \"#utility.yul\":57:76   */\n      swap1\n      pop\n        /* \"#utility.yul\":7:82   */\n      swap1\n      jump\t// out\n        /* \"#utility.yul\":88:205   */\n    tag_323:\n        /* \"#utility.yul\":197:198   */\n      0x00\n        /* \"#utility.yul\":194:195   */\n      dup1\n        /* \"#utility.yul\":187:199   */\n      revert\n        /* \"#utility.yul\":211:328   */\n    tag_324:\n        /* \"#utility.yul\":320:321   */\n      0x00\n        /* \"#utility.yul\":317:318   */\n      dup1\n        /* \"#utility.yul\":310:322   */\n      revert\n        /* \"#utility.yul\":334:483   */\n    tag_325:\n        /* \"#utility.yul\":370:377   */\n      0x00\n        /* \"#utility.yul\":410:476   */\n      0xffffffff00000000000000000000000000000000000000000000000000000000\n        /* \"#utility.yul\":403:408   */\n      dup3\n        /* \"#utility.yul\":399:477   */\n      and\n        /* \"#utility.yul\":388:477   */\n      swap1\n      pop\n        /* \"#utility.yul\":334:483   */\n      swap2\n      swap1\n      pop\n      jump\t// out\n        /* \"#utility.yul\":489:609   */\n    tag_326:\n        /* \"#utility.yul\":561:584   */\n      tag_404\n        /* \"#utility.yul\":578:583   */\n      dup2\n        /* \"#utility.yul\":561:584   */\n      tag_325\n      jump\t// in\n    tag_404:\n        /* \"#utility.yul\":554:559   */\n      dup2\n        /* \"#utility.yul\":551:585   */\n      eq\n        /* \"#utility.yul\":541:603   */\n      tag_405\n      jumpi\n        /* \"#utility.yul\":599:600   */\n      0x00\n        /* \"#utility.yul\":596:597   */\n      dup1\n        /* \"#utility.yul\":589:601   */\n      revert\n        /* \"#utility.yul\":541:603   */\n    tag_405:\n        /* \"#utility.yul\":489:609   */\n      pop\n      jump\t// out\n        /* \"#utility.yul\":615:752   */\n    tag_327:\n        /* \"#utility.yul\":660:665   */\n      0x00\n        /* \"#utility.yul\":698:704   */\n      dup2\n        /* \"#utility.yul\":685:705   */\n      calldataload\n        /* \"#utility.yul\":676:705   */\n      swap1\n      pop\n        /* \"#utility.yul\":714:746   */\n      tag_407\n        /* \"#utility.yul\":740:745   */\n      dup2\n        /* \"#utility.yul\":714:746   */\n      tag_326\n      jump\t// in\n    tag_407:\n        /* \"#utility.yul\":615:752   */\n      swap3\n      swap2\n      pop\n      pop\n      jump\t// out\n        /* \"#utility.yul\":758:1085   */\n    tag_27:\n        /* \"#utility.yul\":816:822   */\n      0x00\n        /* \"#utility.yul\":865:867   */\n      0x20\n        /* \"#utility.yul\":853:862   */\n      dup3\n        /* \"#utility.yul\":844:851   */\n      dup5\n        /* \"#utility.yul\":840:863   */\n      sub\n        /* \"#utility.yul\":836:868   */\n      slt\n        /* \"#utility.yul\":833:952   */\n      iszero\n      tag_409\n      jumpi\n        /* \"#utility.yul\":871:950   */\n      tag_410\n      tag_323\n      jump\t// in\n    tag_410:\n        /* \"#utility.yul\":833:952   */\n    tag_409:\n        /* \"#utility.yul\":991:992   */\n      0x00\n        /* \"#utility.yul\":1016:1068   */\n      tag_411\n        /* \"#utility.yul\":1060:1067   */\n      dup5\n        /* \"#utility.yul\":1051:1057   */\n      dup3\n        /* \"#utility.yul\":1040:1049   */\n      dup6\n        /* \"#utility.yul\":1036:1058   */\n      add\n        /* \"#utility.yul\":1016:1068   */\n      tag_327\n      jump\t// in\n    tag_411:\n        /* \"#utility.yul\":1006:1068   */\n      swap2\n      pop\n        /* \"#utility.yul\":962:1078   */\n      pop\n        /* \"#utility.yul\":758:1085   */\n      swap3\n      swap2\n      pop\n      pop\n      jump\t// out\n        /* \"#utility.yul\":1091:1181   */\n    tag_328:\n        /* \"#utility.yul\":1125:1132   */\n      0x00\n        /* \"#utility.yul\":1168:1173   */\n      dup2\n        /* \"#utility.yul\":1161:1174   */\n      iszero\n        /* \"#utility.yul\":1154:1175   */\n      iszero\n        /* \"#utility.yul\":1143:1175   */\n      swap1\n      pop\n        /* \"#utility.yul\":1091:1181   */\n      swap2\n      swap1\n      pop\n      jump\t// out\n        /* \"#utility.yul\":1187:1296   */\n    tag_329:\n        /* \"#utility.yul\":1268:1289   */\n      tag_414\n        /* \"#utility.yul\":1283:1288   */\n      dup2\n        /* \"#utility.yul\":1268:1289   */\n      tag_328\n      jump\t// in\n    tag_414:\n        /* \"#utility.yul\":1263:1266   */\n      dup3\n        /* \"#utility.yul\":1256:1290   */\n      mstore\n        /* \"#utility.yul\":1187:1296   */\n      pop\n      pop\n      jump\t// out\n        /* \"#utility.yul\":1302:1512   */\n    tag_30:\n        /* \"#utility.yul\":1389:1393   */\n      0x00\n        /* \"#utility.yul\":1427:1429   */\n      0x20\n        /* \"#utility.yul\":1416:1425   */\n      dup3\n        /* \"#utility.yul\":1412:1430   */\n      add\n        /* \"#utility.yul\":1404:1430   */\n      swap1\n      pop\n        /* \"#utility.yul\":1440:1505   */\n      tag_416\n        /* \"#utility.yul\":1502:1503   */\n      0x00\n        /* \"#utility.yul\":1491:1500   */\n      dup4\n        /* \"#utility.yul\":1487:1504   */\n      add\n        /* \"#utility.yul\":1478:1484   */\n      dup5\n        /* \"#utility.yul\":1440:1505   */\n      tag_329\n      jump\t// in\n    tag_416:\n        /* \"#utility.yul\":1302:1512   */\n      swap3\n      swap2\n      pop\n      pop\n      jump\t// out\n        /* \"#utility.yul\":1518:1617   */\n    tag_330:\n        /* \"#utility.yul\":1570:1576   */\n      0x00\n        /* \"#utility.yul\":1604:1609   */\n      dup2\n        /* \"#utility.yul\":1598:1610   */\n      mload\n        /* \"#utility.yul\":1588:1610   */\n      swap1\n      pop\n        /* \"#utility.yul\":1518:1617   */\n      swap2\n      swap1\n      pop\n      jump\t// out\n        /* \"#utility.yul\":1623:1792   */\n    tag_331:\n        /* \"#utility.yul\":1707:1718   */\n      0x00\n        /* \"#utility.yul\":1741:1747   */\n      dup3\n        /* \"#utility.yul\":1736:1739   */\n      dup3\n        /* \"#utility.yul\":1729:1748   */\n      mstore\n        /* \"#utility.yul\":1781:1785   */\n      0x20\n        /* \"#utility.yul\":1776:1779   */\n      dup3\n        /* \"#utility.yul\":1772:1786   */\n      add\n        /* \"#utility.yul\":1757:1786   */\n      swap1\n      pop\n        /* \"#utility.yul\":1623:1792   */\n      swap3\n      swap2\n      pop\n      pop\n      jump\t// out\n        /* \"#utility.yul\":1798:2044   */\n    tag_332:\n        /* \"#utility.yul\":1879:1880   */\n      0x00\n        /* \"#utility.yul\":1889:2002   */\n    tag_420:\n        /* \"#utility.yul\":1903:1909   */\n      dup4\n        /* \"#utility.yul\":1900:1901   */\n      dup2\n        /* \"#utility.yul\":1897:1910   */\n      lt\n        /* \"#utility.yul\":1889:2002   */\n      iszero\n      tag_422\n      jumpi\n        /* \"#utility.yul\":1988:1989   */\n      dup1\n        /* \"#utility.yul\":1983:1986   */\n      dup3\n        /* \"#utility.yul\":1979:1990   */\n      add\n        /* \"#utility.yul\":1973:1991   */\n      mload\n        /* \"#utility.yul\":1969:1970   */\n      dup2\n        /* \"#utility.yul\":1964:1967   */\n      dup5\n        /* \"#utility.yul\":1960:1971   */\n      add\n        /* \"#utility.yul\":1953:1992   */\n      mstore\n        /* \"#utility.yul\":1925:1927   */\n      0x20\n        /* \"#utility.yul\":1922:1923   */\n      dup2\n        /* \"#utility.yul\":1918:1928   */\n      add\n        /* \"#utility.yul\":1913:1928   */\n      swap1\n      pop\n        /* \"#utility.yul\":1889:2002   */\n      jump(tag_420)\n    tag_422:\n        /* \"#utility.yul\":2036:2037   */\n      0x00\n        /* \"#utility.yul\":2027:2033   */\n      dup5\n        /* \"#utility.yul\":2022:2025   */\n      dup5\n        /* \"#utility.yul\":2018:2034   */\n      add\n        /* \"#utility.yul\":2011:2038   */\n      mstore\n        /* \"#utility.yul\":1860:2044   */\n      pop\n        /* \"#utility.yul\":1798:2044   */\n      pop\n      pop\n      pop\n      jump\t// out\n        /* \"#utility.yul\":2050:2152   */\n    tag_333:\n        /* \"#utility.yul\":2091:2097   */\n      0x00\n        /* \"#utility.yul\":2142:2144   */\n      0x1f\n        /* \"#utility.yul\":2138:2145   */\n      not\n        /* \"#utility.yul\":2133:2135   */\n      0x1f\n        /* \"#utility.yul\":2126:2131   */\n      dup4\n        /* \"#utility.yul\":2122:2136   */\n      add\n        /* \"#utility.yul\":2118:2146   */\n      and\n        /* \"#utility.yul\":2108:2146   */\n      swap1\n      pop\n        /* \"#utility.yul\":2050:2152   */\n      swap2\n      swap1\n      pop\n      jump\t// out\n        /* \"#utility.yul\":2158:2535   */\n    tag_334:\n        /* \"#utility.yul\":2246:2249   */\n      0x00\n        /* \"#utility.yul\":2274:2313   */\n      tag_425\n        /* \"#utility.yul\":2307:2312   */\n      dup3\n        /* \"#utility.yul\":2274:2313   */\n      tag_330\n      jump\t// in\n    tag_425:\n        /* \"#utility.yul\":2329:2400   */\n      tag_426\n        /* \"#utility.yul\":2393:2399   */\n      dup2\n        /* \"#utility.yul\":2388:2391   */\n      dup6\n        /* \"#utility.yul\":2329:2400   */\n      tag_331\n      jump\t// in\n    tag_426:\n        /* \"#utility.yul\":2322:2400   */\n      swap4\n      pop\n        /* \"#utility.yul\":2409:2474   */\n      tag_427\n        /* \"#utility.yul\":2467:2473   */\n      dup2\n        /* \"#utility.yul\":2462:2465   */\n      dup6\n        /* \"#utility.yul\":2455:2459   */\n      0x20\n        /* \"#utility.yul\":2448:2453   */\n      dup7\n        /* \"#utility.yul\":2444:2460   */\n      add\n        /* \"#utility.yul\":2409:2474   */\n      tag_332\n      jump\t// in\n    tag_427:\n        /* \"#utility.yul\":2499:2528   */\n      tag_428\n        /* \"#utility.yul\":2521:2527   */\n      dup2\n        /* \"#utility.yul\":2499:2528   */\n      tag_333\n      jump\t// in\n    tag_428:\n        /* \"#utility.yul\":2494:2497   */\n      dup5\n        /* \"#utility.yul\":2490:2529   */\n      add\n        /* \"#utility.yul\":2483:2529   */\n      swap2\n      pop\n        /* \"#utility.yul\":2250:2535   */\n      pop\n        /* \"#utility.yul\":2158:2535   */\n      swap3\n      swap2\n      pop\n      pop\n      jump\t// out\n        /* \"#utility.yul\":2541:2854   */\n    tag_34:\n        /* \"#utility.yul\":2654:2658   */\n      0x00\n        /* \"#utility.yul\":2692:2694   */\n      0x20\n        /* \"#utility.yul\":2681:2690   */\n      dup3\n        /* \"#utility.yul\":2677:2695   */\n      add\n        /* \"#utility.yul\":2669:2695   */\n      swap1\n      pop\n        /* \"#utility.yul\":2741:2750   */\n      dup2\n        /* \"#utility.yul\":2735:2739   */\n      dup2\n        /* \"#utility.yul\":2731:2751   */\n      sub\n        /* \"#utility.yul\":2727:2728   */\n      0x00\n        /* \"#utility.yul\":2716:2725   */\n      dup4\n        /* \"#utility.yul\":2712:2729   */\n      add\n        /* \"#utility.yul\":2705:2752   */\n      mstore\n        /* \"#utility.yul\":2769:2847   */\n      tag_430\n        /* \"#utility.yul\":2842:2846   */\n      dup2\n        /* \"#utility.yul\":2833:2839   */\n      dup5\n        /* \"#utility.yul\":2769:2847   */\n      tag_334\n      jump\t// in\n    tag_430:\n        /* \"#utility.yul\":2761:2847   */\n      swap1\n      pop\n        /* \"#utility.yul\":2541:2854   */\n      swap3\n      swap2\n      pop\n      pop\n      jump\t// out\n        /* \"#utility.yul\":2860:2937   */\n    tag_335:\n        /* \"#utility.yul\":2897:2904   */\n      0x00\n        /* \"#utility.yul\":2926:2931   */\n      dup2\n        /* \"#utility.yul\":2915:2931   */\n      swap1\n      pop\n        /* \"#utility.yul\":2860:2937   */\n      swap2\n      swap1\n      pop\n      jump\t// out\n        /* \"#utility.yul\":2943:3065   */\n    tag_336:\n        /* \"#utility.yul\":3016:3040   */\n      tag_433\n        /* \"#utility.yul\":3034:3039   */\n      dup2\n        /* \"#utility.yul\":3016:3040   */\n      tag_335\n      jump\t// in\n    tag_433:\n        /* \"#utility.yul\":3009:3014   */\n      dup2\n        /* \"#utility.yul\":3006:3041   */\n      eq\n        /* \"#utility.yul\":2996:3059   */\n      tag_434\n      jumpi\n        /* \"#utility.yul\":3055:3056   */\n      0x00\n        /* \"#utility.yul\":3052:3053   */\n      dup1\n        /* \"#utility.yul\":3045:3057   */\n      revert\n        /* \"#utility.yul\":2996:3059   */\n    tag_434:\n        /* \"#utility.yul\":2943:3065   */\n      pop\n      jump\t// out\n        /* \"#utility.yul\":3071:3210   */\n    tag_337:\n        /* \"#utility.yul\":3117:3122   */\n      0x00\n        /* \"#utility.yul\":3155:3161   */\n      dup2\n        /* \"#utility.yul\":3142:3162   */\n      calldataload\n        /* \"#utility.yul\":3133:3162   */\n      swap1\n      pop\n        /* \"#utility.yul\":3171:3204   */\n      tag_436\n        /* \"#utility.yul\":3198:3203   */\n      dup2\n        /* \"#utility.yul\":3171:3204   */\n      tag_336\n      jump\t// in\n    tag_436:\n        /* \"#utility.yul\":3071:3210   */\n      swap3\n      swap2\n      pop\n      pop\n      jump\t// out\n        /* \"#utility.yul\":3216:3545   */\n    tag_37:\n        /* \"#utility.yul\":3275:3281   */\n      0x00\n        /* \"#utility.yul\":3324:3326   */\n      0x20\n        /* \"#utility.yul\":3312:3321   */\n      dup3\n        /* \"#utility.yul\":3303:3310   */\n      dup5\n        /* \"#utility.yul\":3299:3322   */\n      sub\n        /* \"#utility.yul\":3295:3327   */\n      slt\n        /* \"#utility.yul\":3292:3411   */\n      iszero\n      tag_438\n      jumpi\n        /* \"#utility.yul\":3330:3409   */\n      tag_439\n      tag_323\n      jump\t// in\n    tag_439:\n        /* \"#utility.yul\":3292:3411   */\n    tag_438:\n        /* \"#utility.yul\":3450:3451   */\n      0x00\n        /* \"#utility.yul\":3475:3528   */\n      tag_440\n        /* \"#utility.yul\":3520:3527   */\n      dup5\n        /* \"#utility.yul\":3511:3517   */\n      dup3\n        /* \"#utility.yul\":3500:3509   */\n      dup6\n        /* \"#utility.yul\":3496:3518   */\n      add\n        /* \"#utility.yul\":3475:3528   */\n      tag_337\n      jump\t// in\n    tag_440:\n        /* \"#utility.yul\":3465:3528   */\n      swap2\n      pop\n        /* \"#utility.yul\":3421:3538   */\n      pop\n        /* \"#utility.yul\":3216:3545   */\n      swap3\n      swap2\n      pop\n      pop\n      jump\t// out\n        /* \"#utility.yul\":3551:3677   */\n    tag_338:\n        /* \"#utility.yul\":3588:3595   */\n      0x00\n        /* \"#utility.yul\":3628:3670   */\n      0xffffffffffffffffffffffffffffffffffffffff\n        /* \"#utility.yul\":3621:3626   */\n      dup3\n        /* \"#utility.yul\":3617:3671   */\n      and\n        /* \"#utility.yul\":3606:3671   */\n      swap1\n      pop\n        /* \"#utility.yul\":3551:3677   */\n      swap2\n      swap1\n      pop\n      jump\t// out\n        /* \"#utility.yul\":3683:3779   */\n    tag_339:\n        /* \"#utility.yul\":3720:3727   */\n      0x00\n        /* \"#utility.yul\":3749:3773   */\n      tag_443\n        /* \"#utility.yul\":3767:3772   */\n      dup3\n        /* \"#utility.yul\":3749:3773   */\n      tag_338\n      jump\t// in\n    tag_443:\n        /* \"#utility.yul\":3738:3773   */\n      swap1\n      pop\n        /* \"#utility.yul\":3683:3779   */\n      swap2\n      swap1\n      pop\n      jump\t// out\n        /* \"#utility.yul\":3785:3903   */\n    tag_340:\n        /* \"#utility.yul\":3872:3896   */\n      tag_445\n        /* \"#utility.yul\":3890:3895   */\n      dup2\n        /* \"#utility.yul\":3872:3896   */\n      tag_339\n      jump\t// in\n    tag_445:\n        /* \"#utility.yul\":3867:3870   */\n      dup3\n        /* \"#utility.yul\":3860:3897   */\n      mstore\n        /* \"#utility.yul\":3785:3903   */\n      pop\n      pop\n      jump\t// out\n        /* \"#utility.yul\":3909:4131   */\n    tag_40:\n        /* \"#utility.yul\":4002:4006   */\n      0x00\n        /* \"#utility.yul\":4040:4042   */\n      0x20\n        /* \"#utility.yul\":4029:4038   */\n      dup3\n        /* \"#utility.yul\":4025:4043   */\n      add\n        /* \"#utility.yul\":4017:4043   */\n      swap1\n      pop\n        /* \"#utility.yul\":4053:4124   */\n      tag_447\n        /* \"#utility.yul\":4121:4122   */\n      0x00\n        /* \"#utility.yul\":4110:4119   */\n      dup4\n        /* \"#utility.yul\":4106:4123   */\n      add\n        /* \"#utility.yul\":4097:4103   */\n      dup5\n        /* \"#utility.yul\":4053:4124   */\n      tag_340\n      jump\t// in\n    tag_447:\n        /* \"#utility.yul\":3909:4131   */\n      swap3\n      swap2\n      pop\n      pop\n      jump\t// out\n        /* \"#utility.yul\":4137:4259   */\n    tag_341:\n        /* \"#utility.yul\":4210:4234   */\n      tag_449\n        /* \"#utility.yul\":4228:4233   */\n      dup2\n        /* \"#utility.yul\":4210:4234   */\n      tag_339\n      jump\t// in\n    tag_449:\n        /* \"#utility.yul\":4203:4208   */\n      dup2\n        /* \"#utility.yul\":4200:4235   */\n      eq\n        /* \"#utility.yul\":4190:4253   */\n      tag_450\n      jumpi\n        /* \"#utility.yul\":4249:4250   */\n      0x00\n        /* \"#utility.yul\":4246:4247   */\n      dup1\n        /* \"#utility.yul\":4239:4251   */\n      revert\n        /* \"#utility.yul\":4190:4253   */\n    tag_450:\n        /* \"#utility.yul\":4137:4259   */\n      pop\n      jump\t// out\n        /* \"#utility.yul\":4265:4404   */\n    tag_342:\n        /* \"#utility.yul\":4311:4316   */\n      0x00\n        /* \"#utility.yul\":4349:4355   */\n      dup2\n        /* \"#utility.yul\":4336:4356   */\n      calldataload\n        /* \"#utility.yul\":4327:4356   */\n      swap1\n      pop\n        /* \"#utility.yul\":4365:4398   */\n      tag_452\n        /* \"#utility.yul\":4392:4397   */\n      dup2\n        /* \"#utility.yul\":4365:4398   */\n      tag_341\n      jump\t// in\n    tag_452:\n        /* \"#utility.yul\":4265:4404   */\n      swap3\n      swap2\n      pop\n      pop\n      jump\t// out\n        /* \"#utility.yul\":4410:4884   */\n    tag_43:\n        /* \"#utility.yul\":4478:4484   */\n      0x00\n        /* \"#utility.yul\":4486:4492   */\n      dup1\n        /* \"#utility.yul\":4535:4537   */\n      0x40\n        /* \"#utility.yul\":4523:4532   */\n      dup4\n        /* \"#utility.yul\":4514:4521   */\n      dup6\n        /* \"#utility.yul\":4510:4533   */\n      sub\n        /* \"#utility.yul\":4506:4538   */\n      slt\n        /* \"#utility.yul\":4503:4622   */\n      iszero\n      tag_454\n      jumpi\n        /* \"#utility.yul\":4541:4620   */\n      tag_455\n      tag_323\n      jump\t// in\n    tag_455:\n        /* \"#utility.yul\":4503:4622   */\n    tag_454:\n        /* \"#utility.yul\":4661:4662   */\n      0x00\n        /* \"#utility.yul\":4686:4739   */\n      tag_456\n        /* \"#utility.yul\":4731:4738   */\n      dup6\n        /* \"#utility.yul\":4722:4728   */\n      dup3\n        /* \"#utility.yul\":4711:4720   */\n      dup7\n        /* \"#utility.yul\":4707:4729   */\n      add\n        /* \"#utility.yul\":4686:4739   */\n      tag_342\n      jump\t// in\n    tag_456:\n        /* \"#utility.yul\":4676:4739   */\n      swap3\n      pop\n        /* \"#utility.yul\":4632:4749   */\n      pop\n        /* \"#utility.yul\":4788:4790   */\n      0x20\n        /* \"#utility.yul\":4814:4867   */\n      tag_457\n        /* \"#utility.yul\":4859:4866   */\n      dup6\n        /* \"#utility.yul\":4850:4856   */\n      dup3\n        /* \"#utility.yul\":4839:4848   */\n      dup7\n        /* \"#utility.yul\":4835:4857   */\n      add\n        /* \"#utility.yul\":4814:4867   */\n      tag_337\n      jump\t// in\n    tag_457:\n        /* \"#utility.yul\":4804:4867   */\n      swap2\n      pop\n        /* \"#utility.yul\":4759:4877   */\n      pop\n        /* \"#utility.yul\":4410:4884   */\n      swap3\n      pop\n      swap3\n      swap1\n      pop\n      jump\t// out\n        /* \"#utility.yul\":4890:5219   */\n    tag_47:\n        /* \"#utility.yul\":4949:4955   */\n      0x00\n        /* \"#utility.yul\":4998:5000   */\n      0x20\n        /* \"#utility.yul\":4986:4995   */\n      dup3\n        /* \"#utility.yul\":4977:4984   */\n      dup5\n        /* \"#utility.yul\":4973:4996   */\n      sub\n        /* \"#utility.yul\":4969:5001   */\n      slt\n        /* \"#utility.yul\":4966:5085   */\n      iszero\n      tag_459\n      jumpi\n        /* \"#utility.yul\":5004:5083   */\n      tag_460\n      tag_323\n      jump\t// in\n    tag_460:\n        /* \"#utility.yul\":4966:5085   */\n    tag_459:\n        /* \"#utility.yul\":5124:5125   */\n      0x00\n        /* \"#utility.yul\":5149:5202   */\n      tag_461\n        /* \"#utility.yul\":5194:5201   */\n      dup5\n        /* \"#utility.yul\":5185:5191   */\n      dup3\n        /* \"#utility.yul\":5174:5183   */\n      dup6\n        /* \"#utility.yul\":5170:5192   */\n      add\n        /* \"#utility.yul\":5149:5202   */\n      tag_342\n      jump\t// in\n    tag_461:\n        /* \"#utility.yul\":5139:5202   */\n      swap2\n      pop\n        /* \"#utility.yul\":5095:5212   */\n      pop\n        /* \"#utility.yul\":4890:5219   */\n      swap3\n      swap2\n      pop\n      pop\n      jump\t// out\n        /* \"#utility.yul\":5225:5377   */\n    tag_343:\n        /* \"#utility.yul\":5330:5336   */\n      0x00\n        /* \"#utility.yul\":5364:5369   */\n      dup2\n        /* \"#utility.yul\":5358:5370   */\n      mload\n        /* \"#utility.yul\":5348:5370   */\n      swap1\n      pop\n        /* \"#utility.yul\":5225:5377   */\n      swap2\n      swap1\n      pop\n      jump\t// out\n        /* \"#utility.yul\":5383:5605   */\n    tag_344:\n        /* \"#utility.yul\":5520:5531   */\n      0x00\n        /* \"#utility.yul\":5554:5560   */\n      dup3\n        /* \"#utility.yul\":5549:5552   */\n      dup3\n        /* \"#utility.yul\":5542:5561   */\n      mstore\n        /* \"#utility.yul\":5594:5598   */\n      0x20\n        /* \"#utility.yul\":5589:5592   */\n      dup3\n        /* \"#utility.yul\":5585:5599   */\n      add\n        /* \"#utility.yul\":5570:5599   */\n      swap1\n      pop\n        /* \"#utility.yul\":5383:5605   */\n      swap3\n      swap2\n      pop\n      pop\n      jump\t// out\n        /* \"#utility.yul\":5611:5781   */\n    tag_345:\n        /* \"#utility.yul\":5716:5720   */\n      0x00\n        /* \"#utility.yul\":5739:5742   */\n      dup2\n        /* \"#utility.yul\":5731:5742   */\n      swap1\n      pop\n        /* \"#utility.yul\":5769:5773   */\n      0x20\n        /* \"#utility.yul\":5764:5767   */\n      dup3\n        /* \"#utility.yul\":5760:5774   */\n      add\n        /* \"#utility.yul\":5752:5774   */\n      swap1\n      pop\n        /* \"#utility.yul\":5611:5781   */\n      swap2\n      swap1\n      pop\n      jump\t// out\n        /* \"#utility.yul\":5787:5895   */\n    tag_346:\n        /* \"#utility.yul\":5864:5888   */\n      tag_466\n        /* \"#utility.yul\":5882:5887   */\n      dup2\n        /* \"#utility.yul\":5864:5888   */\n      tag_335\n      jump\t// in\n    tag_466:\n        /* \"#utility.yul\":5859:5862   */\n      dup3\n        /* \"#utility.yul\":5852:5889   */\n      mstore\n        /* \"#utility.yul\":5787:5895   */\n      pop\n      pop\n      jump\t// out\n        /* \"#utility.yul\":5901:6060   */\n    tag_347:\n        /* \"#utility.yul\":5975:5986   */\n      0x00\n        /* \"#utility.yul\":6009:6015   */\n      dup3\n        /* \"#utility.yul\":6004:6007   */\n      dup3\n        /* \"#utility.yul\":5997:6016   */\n      mstore\n        /* \"#utility.yul\":6049:6053   */\n      0x20\n        /* \"#utility.yul\":6044:6047   */\n      dup3\n        /* \"#utility.yul\":6040:6054   */\n      add\n        /* \"#utility.yul\":6025:6054   */\n      swap1\n      pop\n        /* \"#utility.yul\":5901:6060   */\n      swap3\n      swap2\n      pop\n      pop\n      jump\t// out\n        /* \"#utility.yul\":6066:6423   */\n    tag_348:\n        /* \"#utility.yul\":6144:6147   */\n      0x00\n        /* \"#utility.yul\":6172:6211   */\n      tag_469\n        /* \"#utility.yul\":6205:6210   */\n      dup3\n        /* \"#utility.yul\":6172:6211   */\n      tag_330\n      jump\t// in\n    tag_469:\n        /* \"#utility.yul\":6227:6288   */\n      tag_470\n        /* \"#utility.yul\":6281:6287   */\n      dup2\n        /* \"#utility.yul\":6276:6279   */\n      dup6\n        /* \"#utility.yul\":6227:6288   */\n      tag_347\n      jump\t// in\n    tag_470:\n        /* \"#utility.yul\":6220:6288   */\n      swap4\n      pop\n        /* \"#utility.yul\":6297:6362   */\n      tag_471\n        /* \"#utility.yul\":6355:6361   */\n      dup2\n        /* \"#utility.yul\":6350:6353   */\n      dup6\n        /* \"#utility.yul\":6343:6347   */\n      0x20\n        /* \"#utility.yul\":6336:6341   */\n      dup7\n        /* \"#utility.yul\":6332:6348   */\n      add\n        /* \"#utility.yul\":6297:6362   */\n      tag_332\n      jump\t// in\n    tag_471:\n        /* \"#utility.yul\":6387:6416   */\n      tag_472\n        /* \"#utility.yul\":6409:6415   */\n      dup2\n        /* \"#utility.yul\":6387:6416   */\n      tag_333\n      jump\t// in\n    tag_472:\n        /* \"#utility.yul\":6382:6385   */\n      dup5\n        /* \"#utility.yul\":6378:6417   */\n      add\n        /* \"#utility.yul\":6371:6417   */\n      swap2\n      pop\n        /* \"#utility.yul\":6148:6423   */\n      pop\n        /* \"#utility.yul\":6066:6423   */\n      swap3\n      swap2\n      pop\n      pop\n      jump\t// out\n        /* \"#utility.yul\":6493:7104   */\n    tag_349:\n        /* \"#utility.yul\":6610:6613   */\n      0x00\n        /* \"#utility.yul\":6646:6650   */\n      0x40\n        /* \"#utility.yul\":6641:6644   */\n      dup4\n        /* \"#utility.yul\":6637:6651   */\n      add\n        /* \"#utility.yul\":6737:6741   */\n      0x00\n        /* \"#utility.yul\":6730:6735   */\n      dup4\n        /* \"#utility.yul\":6726:6742   */\n      add\n        /* \"#utility.yul\":6720:6743   */\n      mload\n        /* \"#utility.yul\":6790:6793   */\n      dup5\n        /* \"#utility.yul\":6784:6788   */\n      dup3\n        /* \"#utility.yul\":6780:6794   */\n      sub\n        /* \"#utility.yul\":6773:6777   */\n      0x00\n        /* \"#utility.yul\":6768:6771   */\n      dup7\n        /* \"#utility.yul\":6764:6778   */\n      add\n        /* \"#utility.yul\":6757:6795   */\n      mstore\n        /* \"#utility.yul\":6816:6889   */\n      tag_474\n        /* \"#utility.yul\":6884:6888   */\n      dup3\n        /* \"#utility.yul\":6870:6882   */\n      dup3\n        /* \"#utility.yul\":6816:6889   */\n      tag_348\n      jump\t// in\n    tag_474:\n        /* \"#utility.yul\":6808:6889   */\n      swap2\n      pop\n        /* \"#utility.yul\":6661:6900   */\n      pop\n        /* \"#utility.yul\":6985:6989   */\n      0x20\n        /* \"#utility.yul\":6978:6983   */\n      dup4\n        /* \"#utility.yul\":6974:6990   */\n      add\n        /* \"#utility.yul\":6968:6991   */\n      mload\n        /* \"#utility.yul\":7004:7067   */\n      tag_475\n        /* \"#utility.yul\":7061:7065   */\n      0x20\n        /* \"#utility.yul\":7056:7059   */\n      dup7\n        /* \"#utility.yul\":7052:7066   */\n      add\n        /* \"#utility.yul\":7038:7050   */\n      dup3\n        /* \"#utility.yul\":7004:7067   */\n      tag_346\n      jump\t// in\n    tag_475:\n        /* \"#utility.yul\":6910:7077   */\n      pop\n        /* \"#utility.yul\":7094:7098   */\n      dup1\n        /* \"#utility.yul\":7087:7098   */\n      swap2\n      pop\n        /* \"#utility.yul\":6615:7104   */\n      pop\n        /* \"#utility.yul\":6493:7104   */\n      swap3\n      swap2\n      pop\n      pop\n      jump\t// out\n        /* \"#utility.yul\":7192:7859   */\n    tag_350:\n        /* \"#utility.yul\":7327:7330   */\n      0x00\n        /* \"#utility.yul\":7363:7367   */\n      0x40\n        /* \"#utility.yul\":7358:7361   */\n      dup4\n        /* \"#utility.yul\":7354:7368   */\n      add\n        /* \"#utility.yul\":7453:7457   */\n      0x00\n        /* \"#utility.yul\":7446:7451   */\n      dup4\n        /* \"#utility.yul\":7442:7458   */\n      add\n        /* \"#utility.yul\":7436:7459   */\n      mload\n        /* \"#utility.yul\":7472:7535   */\n      tag_477\n        /* \"#utility.yul\":7529:7533   */\n      0x00\n        /* \"#utility.yul\":7524:7527   */\n      dup7\n        /* \"#utility.yul\":7520:7534   */\n      add\n        /* \"#utility.yul\":7506:7518   */\n      dup3\n        /* \"#utility.yul\":7472:7535   */\n      tag_346\n      jump\t// in\n    tag_477:\n        /* \"#utility.yul\":7378:7545   */\n      pop\n        /* \"#utility.yul\":7631:7635   */\n      0x20\n        /* \"#utility.yul\":7624:7629   */\n      dup4\n        /* \"#utility.yul\":7620:7636   */\n      add\n        /* \"#utility.yul\":7614:7637   */\n      mload\n        /* \"#utility.yul\":7684:7687   */\n      dup5\n        /* \"#utility.yul\":7678:7682   */\n      dup3\n        /* \"#utility.yul\":7674:7688   */\n      sub\n        /* \"#utility.yul\":7667:7671   */\n      0x20\n        /* \"#utility.yul\":7662:7665   */\n      dup7\n        /* \"#utility.yul\":7658:7672   */\n      add\n        /* \"#utility.yul\":7651:7689   */\n      mstore\n        /* \"#utility.yul\":7710:7821   */\n      tag_478\n        /* \"#utility.yul\":7816:7820   */\n      dup3\n        /* \"#utility.yul\":7802:7814   */\n      dup3\n        /* \"#utility.yul\":7710:7821   */\n      tag_349\n      jump\t// in\n    tag_478:\n        /* \"#utility.yul\":7702:7821   */\n      swap2\n      pop\n        /* \"#utility.yul\":7555:7832   */\n      pop\n        /* \"#utility.yul\":7849:7853   */\n      dup1\n        /* \"#utility.yul\":7842:7853   */\n      swap2\n      pop\n        /* \"#utility.yul\":7332:7859   */\n      pop\n        /* \"#utility.yul\":7192:7859   */\n      swap3\n      swap2\n      pop\n      pop\n      jump\t// out\n        /* \"#utility.yul\":7865:8173   */\n    tag_351:\n        /* \"#utility.yul\":8010:8020   */\n      0x00\n        /* \"#utility.yul\":8045:8167   */\n      tag_480\n        /* \"#utility.yul\":8163:8166   */\n      dup4\n        /* \"#utility.yul\":8155:8161   */\n      dup4\n        /* \"#utility.yul\":8045:8167   */\n      tag_350\n      jump\t// in\n    tag_480:\n        /* \"#utility.yul\":8031:8167   */\n      swap1\n      pop\n        /* \"#utility.yul\":7865:8173   */\n      swap3\n      swap2\n      pop\n      pop\n      jump\t// out\n        /* \"#utility.yul\":8179:8330   */\n    tag_352:\n        /* \"#utility.yul\":8287:8291   */\n      0x00\n        /* \"#utility.yul\":8319:8323   */\n      0x20\n        /* \"#utility.yul\":8314:8317   */\n      dup3\n        /* \"#utility.yul\":8310:8324   */\n      add\n        /* \"#utility.yul\":8302:8324   */\n      swap1\n      pop\n        /* \"#utility.yul\":8179:8330   */\n      swap2\n      swap1\n      pop\n      jump\t// out\n        /* \"#utility.yul\":8422:9637   */\n    tag_353:\n        /* \"#utility.yul\":8617:8620   */\n      0x00\n        /* \"#utility.yul\":8646:8738   */\n      tag_483\n        /* \"#utility.yul\":8732:8737   */\n      dup3\n        /* \"#utility.yul\":8646:8738   */\n      tag_343\n      jump\t// in\n    tag_483:\n        /* \"#utility.yul\":8754:8878   */\n      tag_484\n        /* \"#utility.yul\":8871:8877   */\n      dup2\n        /* \"#utility.yul\":8866:8869   */\n      dup6\n        /* \"#utility.yul\":8754:8878   */\n      tag_344\n      jump\t// in\n    tag_484:\n        /* \"#utility.yul\":8747:8878   */\n      swap4\n      pop\n        /* \"#utility.yul\":8904:8907   */\n      dup4\n        /* \"#utility.yul\":8949:8953   */\n      0x20\n        /* \"#utility.yul\":8941:8947   */\n      dup3\n        /* \"#utility.yul\":8937:8954   */\n      mul\n        /* \"#utility.yul\":8932:8935   */\n      dup6\n        /* \"#utility.yul\":8928:8955   */\n      add\n        /* \"#utility.yul\":8979:9073   */\n      tag_485\n        /* \"#utility.yul\":9067:9072   */\n      dup6\n        /* \"#utility.yul\":8979:9073   */\n      tag_345\n      jump\t// in\n    tag_485:\n        /* \"#utility.yul\":9096:9103   */\n      dup1\n        /* \"#utility.yul\":9127:9128   */\n      0x00\n        /* \"#utility.yul\":9112:9592   */\n    tag_486:\n        /* \"#utility.yul\":9137:9143   */\n      dup6\n        /* \"#utility.yul\":9134:9135   */\n      dup2\n        /* \"#utility.yul\":9131:9144   */\n      lt\n        /* \"#utility.yul\":9112:9592   */\n      iszero\n      tag_488\n      jumpi\n        /* \"#utility.yul\":9208:9217   */\n      dup5\n        /* \"#utility.yul\":9202:9206   */\n      dup5\n        /* \"#utility.yul\":9198:9218   */\n      sub\n        /* \"#utility.yul\":9193:9196   */\n      dup10\n        /* \"#utility.yul\":9186:9219   */\n      mstore\n        /* \"#utility.yul\":9259:9265   */\n      dup2\n        /* \"#utility.yul\":9253:9266   */\n      mload\n        /* \"#utility.yul\":9287:9427   */\n      tag_489\n        /* \"#utility.yul\":9422:9426   */\n      dup6\n        /* \"#utility.yul\":9407:9420   */\n      dup3\n        /* \"#utility.yul\":9287:9427   */\n      tag_351\n      jump\t// in\n    tag_489:\n        /* \"#utility.yul\":9279:9427   */\n      swap5\n      pop\n        /* \"#utility.yul\":9450:9548   */\n      tag_490\n        /* \"#utility.yul\":9541:9547   */\n      dup4\n        /* \"#utility.yul\":9450:9548   */\n      tag_352\n      jump\t// in\n    tag_490:\n        /* \"#utility.yul\":9440:9548   */\n      swap3\n      pop\n        /* \"#utility.yul\":9577:9581   */\n      0x20\n        /* \"#utility.yul\":9572:9575   */\n      dup11\n        /* \"#utility.yul\":9568:9582   */\n      add\n        /* \"#utility.yul\":9561:9582   */\n      swap10\n      pop\n        /* \"#utility.yul\":9172:9592   */\n      pop\n        /* \"#utility.yul\":9159:9160   */\n      0x01\n        /* \"#utility.yul\":9156:9157   */\n      dup2\n        /* \"#utility.yul\":9152:9161   */\n      add\n        /* \"#utility.yul\":9147:9161   */\n      swap1\n      pop\n        /* \"#utility.yul\":9112:9592   */\n      jump(tag_486)\n    tag_488:\n        /* \"#utility.yul\":9116:9130   */\n      pop\n        /* \"#utility.yul\":9608:9612   */\n      dup3\n        /* \"#utility.yul\":9601:9612   */\n      swap8\n      pop\n        /* \"#utility.yul\":9628:9631   */\n      dup8\n        /* \"#utility.yul\":9621:9631   */\n      swap6\n      pop\n        /* \"#utility.yul\":8622:9637   */\n      pop\n      pop\n      pop\n      pop\n      pop\n        /* \"#utility.yul\":8422:9637   */\n      swap3\n      swap2\n      pop\n      pop\n      jump\t// out\n        /* \"#utility.yul\":9643:10168   */\n    tag_50:\n        /* \"#utility.yul\":9862:9866   */\n      0x00\n        /* \"#utility.yul\":9900:9902   */\n      0x20\n        /* \"#utility.yul\":9889:9898   */\n      dup3\n        /* \"#utility.yul\":9885:9903   */\n      add\n        /* \"#utility.yul\":9877:9903   */\n      swap1\n      pop\n        /* \"#utility.yul\":9949:9958   */\n      dup2\n        /* \"#utility.yul\":9943:9947   */\n      dup2\n        /* \"#utility.yul\":9939:9959   */\n      sub\n        /* \"#utility.yul\":9935:9936   */\n      0x00\n        /* \"#utility.yul\":9924:9933   */\n      dup4\n        /* \"#utility.yul\":9920:9937   */\n      add\n        /* \"#utility.yul\":9913:9960   */\n      mstore\n        /* \"#utility.yul\":9977:10161   */\n      tag_492\n        /* \"#utility.yul\":10156:10160   */\n      dup2\n        /* \"#utility.yul\":10147:10153   */\n      dup5\n        /* \"#utility.yul\":9977:10161   */\n      tag_353\n      jump\t// in\n    tag_492:\n        /* \"#utility.yul\":9969:10161   */\n      swap1\n      pop\n        /* \"#utility.yul\":9643:10168   */\n      swap3\n      swap2\n      pop\n      pop\n      jump\t// out\n        /* \"#utility.yul\":10174:10793   */\n    tag_53:\n        /* \"#utility.yul\":10251:10257   */\n      0x00\n        /* \"#utility.yul\":10259:10265   */\n      dup1\n        /* \"#utility.yul\":10267:10273   */\n      0x00\n        /* \"#utility.yul\":10316:10318   */\n      0x60\n        /* \"#utility.yul\":10304:10313   */\n      dup5\n        /* \"#utility.yul\":10295:10302   */\n      dup7\n        /* \"#utility.yul\":10291:10314   */\n      sub\n        /* \"#utility.yul\":10287:10319   */\n      slt\n        /* \"#utility.yul\":10284:10403   */\n      iszero\n      tag_494\n      jumpi\n        /* \"#utility.yul\":10322:10401   */\n      tag_495\n      tag_323\n      jump\t// in\n    tag_495:\n        /* \"#utility.yul\":10284:10403   */\n    tag_494:\n        /* \"#utility.yul\":10442:10443   */\n      0x00\n        /* \"#utility.yul\":10467:10520   */\n      tag_496\n        /* \"#utility.yul\":10512:10519   */\n      dup7\n        /* \"#utility.yul\":10503:10509   */\n      dup3\n        /* \"#utility.yul\":10492:10501   */\n      dup8\n        /* \"#utility.yul\":10488:10510   */\n      add\n        /* \"#utility.yul\":10467:10520   */\n      tag_342\n      jump\t// in\n    tag_496:\n        /* \"#utility.yul\":10457:10520   */\n      swap4\n      pop\n        /* \"#utility.yul\":10413:10530   */\n      pop\n        /* \"#utility.yul\":10569:10571   */\n      0x20\n        /* \"#utility.yul\":10595:10648   */\n      tag_497\n        /* \"#utility.yul\":10640:10647   */\n      dup7\n        /* \"#utility.yul\":10631:10637   */\n      dup3\n        /* \"#utility.yul\":10620:10629   */\n      dup8\n        /* \"#utility.yul\":10616:10638   */\n      add\n        /* \"#utility.yul\":10595:10648   */\n      tag_342\n      jump\t// in\n    tag_497:\n        /* \"#utility.yul\":10585:10648   */\n      swap3\n      pop\n        /* \"#utility.yul\":10540:10658   */\n      pop\n        /* \"#utility.yul\":10697:10699   */\n      0x40\n        /* \"#utility.yul\":10723:10776   */\n      tag_498\n        /* \"#utility.yul\":10768:10775   */\n      dup7\n        /* \"#utility.yul\":10759:10765   */\n      dup3\n        /* \"#utility.yul\":10748:10757   */\n      dup8\n        /* \"#utility.yul\":10744:10766   */\n      add\n        /* \"#utility.yul\":10723:10776   */\n      tag_337\n      jump\t// in\n    tag_498:\n        /* \"#utility.yul\":10713:10776   */\n      swap2\n      pop\n        /* \"#utility.yul\":10668:10786   */\n      pop\n        /* \"#utility.yul\":10174:10793   */\n      swap3\n      pop\n      swap3\n      pop\n      swap3\n      jump\t// out\n        /* \"#utility.yul\":10799:10923   */\n    tag_354:\n        /* \"#utility.yul\":10876:10882   */\n      0x00\n        /* \"#utility.yul\":10910:10915   */\n      dup2\n        /* \"#utility.yul\":10904:10916   */\n      mload\n        /* \"#utility.yul\":10894:10916   */\n      swap1\n      pop\n        /* \"#utility.yul\":10799:10923   */\n      swap2\n      swap1\n      pop\n      jump\t// out\n        /* \"#utility.yul\":10929:11123   */\n    tag_355:\n        /* \"#utility.yul\":11038:11049   */\n      0x00\n        /* \"#utility.yul\":11072:11078   */\n      dup3\n        /* \"#utility.yul\":11067:11070   */\n      dup3\n        /* \"#utility.yul\":11060:11079   */\n      mstore\n        /* \"#utility.yul\":11112:11116   */\n      0x20\n        /* \"#utility.yul\":11107:11110   */\n      dup3\n        /* \"#utility.yul\":11103:11117   */\n      add\n        /* \"#utility.yul\":11088:11117   */\n      swap1\n      pop\n        /* \"#utility.yul\":10929:11123   */\n      swap3\n      swap2\n      pop\n      pop\n      jump\t// out\n        /* \"#utility.yul\":11129:11271   */\n    tag_356:\n        /* \"#utility.yul\":11206:11210   */\n      0x00\n        /* \"#utility.yul\":11229:11232   */\n      dup2\n        /* \"#utility.yul\":11221:11232   */\n      swap1\n      pop\n        /* \"#utility.yul\":11259:11263   */\n      0x20\n        /* \"#utility.yul\":11254:11257   */\n      dup3\n        /* \"#utility.yul\":11250:11264   */\n      add\n        /* \"#utility.yul\":11242:11264   */\n      swap1\n      pop\n        /* \"#utility.yul\":11129:11271   */\n      swap2\n      swap1\n      pop\n      jump\t// out\n        /* \"#utility.yul\":11277:11473   */\n    tag_357:\n        /* \"#utility.yul\":11366:11376   */\n      0x00\n        /* \"#utility.yul\":11401:11467   */\n      tag_503\n        /* \"#utility.yul\":11463:11466   */\n      dup4\n        /* \"#utility.yul\":11455:11461   */\n      dup4\n        /* \"#utility.yul\":11401:11467   */\n      tag_348\n      jump\t// in\n    tag_503:\n        /* \"#utility.yul\":11387:11467   */\n      swap1\n      pop\n        /* \"#utility.yul\":11277:11473   */\n      swap3\n      swap2\n      pop\n      pop\n      jump\t// out\n        /* \"#utility.yul\":11479:11602   */\n    tag_358:\n        /* \"#utility.yul\":11559:11563   */\n      0x00\n        /* \"#utility.yul\":11591:11595   */\n      0x20\n        /* \"#utility.yul\":11586:11589   */\n      dup3\n        /* \"#utility.yul\":11582:11596   */\n      add\n        /* \"#utility.yul\":11574:11596   */\n      swap1\n      pop\n        /* \"#utility.yul\":11479:11602   */\n      swap2\n      swap1\n      pop\n      jump\t// out\n        /* \"#utility.yul\":11636:12627   */\n    tag_359:\n        /* \"#utility.yul\":11775:11778   */\n      0x00\n        /* \"#utility.yul\":11804:11868   */\n      tag_506\n        /* \"#utility.yul\":11862:11867   */\n      dup3\n        /* \"#utility.yul\":11804:11868   */\n      tag_354\n      jump\t// in\n    tag_506:\n        /* \"#utility.yul\":11884:11980   */\n      tag_507\n        /* \"#utility.yul\":11973:11979   */\n      dup2\n        /* \"#utility.yul\":11968:11971   */\n      dup6\n        /* \"#utility.yul\":11884:11980   */\n      tag_355\n      jump\t// in\n    tag_507:\n        /* \"#utility.yul\":11877:11980   */\n      swap4\n      pop\n        /* \"#utility.yul\":12006:12009   */\n      dup4\n        /* \"#utility.yul\":12051:12055   */\n      0x20\n        /* \"#utility.yul\":12043:12049   */\n      dup3\n        /* \"#utility.yul\":12039:12056   */\n      mul\n        /* \"#utility.yul\":12034:12037   */\n      dup6\n        /* \"#utility.yul\":12030:12057   */\n      add\n        /* \"#utility.yul\":12081:12147   */\n      tag_508\n        /* \"#utility.yul\":12141:12146   */\n      dup6\n        /* \"#utility.yul\":12081:12147   */\n      tag_356\n      jump\t// in\n    tag_508:\n        /* \"#utility.yul\":12170:12177   */\n      dup1\n        /* \"#utility.yul\":12201:12202   */\n      0x00\n        /* \"#utility.yul\":12186:12582   */\n    tag_509:\n        /* \"#utility.yul\":12211:12217   */\n      dup6\n        /* \"#utility.yul\":12208:12209   */\n      dup2\n        /* \"#utility.yul\":12205:12218   */\n      lt\n        /* \"#utility.yul\":12186:12582   */\n      iszero\n      tag_511\n      jumpi\n        /* \"#utility.yul\":12282:12291   */\n      dup5\n        /* \"#utility.yul\":12276:12280   */\n      dup5\n        /* \"#utility.yul\":12272:12292   */\n      sub\n        /* \"#utility.yul\":12267:12270   */\n      dup10\n        /* \"#utility.yul\":12260:12293   */\n      mstore\n        /* \"#utility.yul\":12333:12339   */\n      dup2\n        /* \"#utility.yul\":12327:12340   */\n      mload\n        /* \"#utility.yul\":12361:12445   */\n      tag_512\n        /* \"#utility.yul\":12440:12444   */\n      dup6\n        /* \"#utility.yul\":12425:12438   */\n      dup3\n        /* \"#utility.yul\":12361:12445   */\n      tag_357\n      jump\t// in\n    tag_512:\n        /* \"#utility.yul\":12353:12445   */\n      swap5\n      pop\n        /* \"#utility.yul\":12468:12538   */\n      tag_513\n        /* \"#utility.yul\":12531:12537   */\n      dup4\n        /* \"#utility.yul\":12468:12538   */\n      tag_358\n      jump\t// in\n    tag_513:\n        /* \"#utility.yul\":12458:12538   */\n      swap3\n      pop\n        /* \"#utility.yul\":12567:12571   */\n      0x20\n        /* \"#utility.yul\":12562:12565   */\n      dup11\n        /* \"#utility.yul\":12558:12572   */\n      add\n        /* \"#utility.yul\":12551:12572   */\n      swap10\n      pop\n        /* \"#utility.yul\":12246:12582   */\n      pop\n        /* \"#utility.yul\":12233:12234   */\n      0x01\n        /* \"#utility.yul\":12230:12231   */\n      dup2\n        /* \"#utility.yul\":12226:12235   */\n      add\n        /* \"#utility.yul\":12221:12235   */\n      swap1\n      pop\n        /* \"#utility.yul\":12186:12582   */\n      jump(tag_509)\n    tag_511:\n        /* \"#utility.yul\":12190:12204   */\n      pop\n        /* \"#utility.yul\":12598:12602   */\n      dup3\n        /* \"#utility.yul\":12591:12602   */\n      swap8\n      pop\n        /* \"#utility.yul\":12618:12621   */\n      dup8\n        /* \"#utility.yul\":12611:12621   */\n      swap6\n      pop\n        /* \"#utility.yul\":11780:12627   */\n      pop\n      pop\n      pop\n      pop\n      pop\n        /* \"#utility.yul\":11636:12627   */\n      swap3\n      swap2\n      pop\n      pop\n      jump\t// out\n        /* \"#utility.yul\":12633:13046   */\n    tag_66:\n        /* \"#utility.yul\":12796:12800   */\n      0x00\n        /* \"#utility.yul\":12834:12836   */\n      0x20\n        /* \"#utility.yul\":12823:12832   */\n      dup3\n        /* \"#utility.yul\":12819:12837   */\n      add\n        /* \"#utility.yul\":12811:12837   */\n      swap1\n      pop\n        /* \"#utility.yul\":12883:12892   */\n      dup2\n        /* \"#utility.yul\":12877:12881   */\n      dup2\n        /* \"#utility.yul\":12873:12893   */\n      sub\n        /* \"#utility.yul\":12869:12870   */\n      0x00\n        /* \"#utility.yul\":12858:12867   */\n      dup4\n        /* \"#utility.yul\":12854:12871   */\n      add\n        /* \"#utility.yul\":12847:12894   */\n      mstore\n        /* \"#utility.yul\":12911:13039   */\n      tag_515\n        /* \"#utility.yul\":13034:13038   */\n      dup2\n        /* \"#utility.yul\":13025:13031   */\n      dup5\n        /* \"#utility.yul\":12911:13039   */\n      tag_359\n      jump\t// in\n    tag_515:\n        /* \"#utility.yul\":12903:13039   */\n      swap1\n      pop\n        /* \"#utility.yul\":12633:13046   */\n      swap3\n      swap2\n      pop\n      pop\n      jump\t// out\n        /* \"#utility.yul\":13052:13170   */\n    tag_360:\n        /* \"#utility.yul\":13139:13163   */\n      tag_517\n        /* \"#utility.yul\":13157:13162   */\n      dup2\n        /* \"#utility.yul\":13139:13163   */\n      tag_335\n      jump\t// in\n    tag_517:\n        /* \"#utility.yul\":13134:13137   */\n      dup3\n        /* \"#utility.yul\":13127:13164   */\n      mstore\n        /* \"#utility.yul\":13052:13170   */\n      pop\n      pop\n      jump\t// out\n        /* \"#utility.yul\":13176:13398   */\n    tag_75:\n        /* \"#utility.yul\":13269:13273   */\n      0x00\n        /* \"#utility.yul\":13307:13309   */\n      0x20\n        /* \"#utility.yul\":13296:13305   */\n      dup3\n        /* \"#utility.yul\":13292:13310   */\n      add\n        /* \"#utility.yul\":13284:13310   */\n      swap1\n      pop\n        /* \"#utility.yul\":13320:13391   */\n      tag_519\n        /* \"#utility.yul\":13388:13389   */\n      0x00\n        /* \"#utility.yul\":13377:13386   */\n      dup4\n        /* \"#utility.yul\":13373:13390   */\n      add\n        /* \"#utility.yul\":13364:13370   */\n      dup5\n        /* \"#utility.yul\":13320:13391   */\n      tag_360\n      jump\t// in\n    tag_519:\n        /* \"#utility.yul\":13176:13398   */\n      swap3\n      swap2\n      pop\n      pop\n      jump\t// out\n        /* \"#utility.yul\":13404:13521   */\n    tag_361:\n        /* \"#utility.yul\":13513:13514   */\n      0x00\n        /* \"#utility.yul\":13510:13511   */\n      dup1\n        /* \"#utility.yul\":13503:13515   */\n      revert\n        /* \"#utility.yul\":13527:13644   */\n    tag_362:\n        /* \"#utility.yul\":13636:13637   */\n      0x00\n        /* \"#utility.yul\":13633:13634   */\n      dup1\n        /* \"#utility.yul\":13626:13638   */\n      revert\n        /* \"#utility.yul\":13650:13830   */\n    tag_137:\n        /* \"#utility.yul\":13698:13775   */\n      0x4e487b7100000000000000000000000000000000000000000000000000000000\n        /* \"#utility.yul\":13695:13696   */\n      0x00\n        /* \"#utility.yul\":13688:13776   */\n      mstore\n        /* \"#utility.yul\":13795:13799   */\n      0x41\n        /* \"#utility.yul\":13792:13793   */\n      0x04\n        /* \"#utility.yul\":13785:13800   */\n      mstore\n        /* \"#utility.yul\":13819:13823   */\n      0x24\n        /* \"#utility.yul\":13816:13817   */\n      0x00\n        /* \"#utility.yul\":13809:13824   */\n      revert\n        /* \"#utility.yul\":13836:14117   */\n    tag_363:\n        /* \"#utility.yul\":13919:13946   */\n      tag_524\n        /* \"#utility.yul\":13941:13945   */\n      dup3\n        /* \"#utility.yul\":13919:13946   */\n      tag_333\n      jump\t// in\n    tag_524:\n        /* \"#utility.yul\":13911:13917   */\n      dup2\n        /* \"#utility.yul\":13907:13947   */\n      add\n        /* \"#utility.yul\":14049:14055   */\n      dup2\n        /* \"#utility.yul\":14037:14047   */\n      dup2\n        /* \"#utility.yul\":14034:14056   */\n      lt\n        /* \"#utility.yul\":14013:14031   */\n      0xffffffffffffffff\n        /* \"#utility.yul\":14001:14011   */\n      dup3\n        /* \"#utility.yul\":13998:14032   */\n      gt\n        /* \"#utility.yul\":13995:14057   */\n      or\n        /* \"#utility.yul\":13992:14080   */\n      iszero\n      tag_525\n      jumpi\n        /* \"#utility.yul\":14060:14078   */\n      tag_526\n      tag_137\n      jump\t// in\n    tag_526:\n        /* \"#utility.yul\":13992:14080   */\n    tag_525:\n        /* \"#utility.yul\":14100:14110   */\n      dup1\n        /* \"#utility.yul\":14096:14098   */\n      0x40\n        /* \"#utility.yul\":14089:14111   */\n      mstore\n        /* \"#utility.yul\":13879:14117   */\n      pop\n        /* \"#utility.yul\":13836:14117   */\n      pop\n      pop\n      jump\t// out\n        /* \"#utility.yul\":14123:14252   */\n    tag_364:\n        /* \"#utility.yul\":14157:14163   */\n      0x00\n        /* \"#utility.yul\":14184:14204   */\n      tag_528\n      tag_322\n      jump\t// in\n    tag_528:\n        /* \"#utility.yul\":14174:14204   */\n      swap1\n      pop\n        /* \"#utility.yul\":14213:14246   */\n      tag_529\n        /* \"#utility.yul\":14241:14245   */\n      dup3\n        /* \"#utility.yul\":14233:14239   */\n      dup3\n        /* \"#utility.yul\":14213:14246   */\n      tag_363\n      jump\t// in\n    tag_529:\n        /* \"#utility.yul\":14123:14252   */\n      swap2\n      swap1\n      pop\n      jump\t// out\n        /* \"#utility.yul\":14258:14566   */\n    tag_365:\n        /* \"#utility.yul\":14320:14324   */\n      0x00\n        /* \"#utility.yul\":14410:14428   */\n      0xffffffffffffffff\n        /* \"#utility.yul\":14402:14408   */\n      dup3\n        /* \"#utility.yul\":14399:14429   */\n      gt\n        /* \"#utility.yul\":14396:14452   */\n      iszero\n      tag_531\n      jumpi\n        /* \"#utility.yul\":14432:14450   */\n      tag_532\n      tag_137\n      jump\t// in\n    tag_532:\n        /* \"#utility.yul\":14396:14452   */\n    tag_531:\n        /* \"#utility.yul\":14470:14499   */\n      tag_533\n        /* \"#utility.yul\":14492:14498   */\n      dup3\n        /* \"#utility.yul\":14470:14499   */\n      tag_333\n      jump\t// in\n    tag_533:\n        /* \"#utility.yul\":14462:14499   */\n      swap1\n      pop\n        /* \"#utility.yul\":14554:14558   */\n      0x20\n        /* \"#utility.yul\":14548:14552   */\n      dup2\n        /* \"#utility.yul\":14544:14559   */\n      add\n        /* \"#utility.yul\":14536:14559   */\n      swap1\n      pop\n        /* \"#utility.yul\":14258:14566   */\n      swap2\n      swap1\n      pop\n      jump\t// out\n        /* \"#utility.yul\":14572:14718   */\n    tag_366:\n        /* \"#utility.yul\":14669:14675   */\n      dup3\n        /* \"#utility.yul\":14664:14667   */\n      dup2\n        /* \"#utility.yul\":14659:14662   */\n      dup4\n        /* \"#utility.yul\":14646:14676   */\n      calldatacopy\n        /* \"#utility.yul\":14710:14711   */\n      0x00\n        /* \"#utility.yul\":14701:14707   */\n      dup4\n        /* \"#utility.yul\":14696:14699   */\n      dup4\n        /* \"#utility.yul\":14692:14708   */\n      add\n        /* \"#utility.yul\":14685:14712   */\n      mstore\n        /* \"#utility.yul\":14572:14718   */\n      pop\n      pop\n      pop\n      jump\t// out\n        /* \"#utility.yul\":14724:15149   */\n    tag_367:\n        /* \"#utility.yul\":14802:14807   */\n      0x00\n        /* \"#utility.yul\":14827:14893   */\n      tag_536\n        /* \"#utility.yul\":14843:14892   */\n      tag_537\n        /* \"#utility.yul\":14885:14891   */\n      dup5\n        /* \"#utility.yul\":14843:14892   */\n      tag_365\n      jump\t// in\n    tag_537:\n        /* \"#utility.yul\":14827:14893   */\n      tag_364\n      jump\t// in\n    tag_536:\n        /* \"#utility.yul\":14818:14893   */\n      swap1\n      pop\n        /* \"#utility.yul\":14916:14922   */\n      dup3\n        /* \"#utility.yul\":14909:14914   */\n      dup2\n        /* \"#utility.yul\":14902:14923   */\n      mstore\n        /* \"#utility.yul\":14954:14958   */\n      0x20\n        /* \"#utility.yul\":14947:14952   */\n      dup2\n        /* \"#utility.yul\":14943:14959   */\n      add\n        /* \"#utility.yul\":14992:14995   */\n      dup5\n        /* \"#utility.yul\":14983:14989   */\n      dup5\n        /* \"#utility.yul\":14978:14981   */\n      dup5\n        /* \"#utility.yul\":14974:14990   */\n      add\n        /* \"#utility.yul\":14971:14996   */\n      gt\n        /* \"#utility.yul\":14968:15080   */\n      iszero\n      tag_538\n      jumpi\n        /* \"#utility.yul\":14999:15078   */\n      tag_539\n      tag_362\n      jump\t// in\n    tag_539:\n        /* \"#utility.yul\":14968:15080   */\n    tag_538:\n        /* \"#utility.yul\":15089:15143   */\n      tag_540\n        /* \"#utility.yul\":15136:15142   */\n      dup5\n        /* \"#utility.yul\":15131:15134   */\n      dup3\n        /* \"#utility.yul\":15126:15129   */\n      dup6\n        /* \"#utility.yul\":15089:15143   */\n      tag_366\n      jump\t// in\n    tag_540:\n        /* \"#utility.yul\":14808:15149   */\n      pop\n        /* \"#utility.yul\":14724:15149   */\n      swap4\n      swap3\n      pop\n      pop\n      pop\n      jump\t// out\n        /* \"#utility.yul\":15169:15509   */\n    tag_368:\n        /* \"#utility.yul\":15225:15230   */\n      0x00\n        /* \"#utility.yul\":15274:15277   */\n      dup3\n        /* \"#utility.yul\":15267:15271   */\n      0x1f\n        /* \"#utility.yul\":15259:15265   */\n      dup4\n        /* \"#utility.yul\":15255:15272   */\n      add\n        /* \"#utility.yul\":15251:15278   */\n      slt\n        /* \"#utility.yul\":15241:15363   */\n      tag_542\n      jumpi\n        /* \"#utility.yul\":15282:15361   */\n      tag_543\n      tag_361\n      jump\t// in\n    tag_543:\n        /* \"#utility.yul\":15241:15363   */\n    tag_542:\n        /* \"#utility.yul\":15399:15405   */\n      dup2\n        /* \"#utility.yul\":15386:15406   */\n      calldataload\n        /* \"#utility.yul\":15424:15503   */\n      tag_544\n        /* \"#utility.yul\":15499:15502   */\n      dup5\n        /* \"#utility.yul\":15491:15497   */\n      dup3\n        /* \"#utility.yul\":15484:15488   */\n      0x20\n        /* \"#utility.yul\":15476:15482   */\n      dup7\n        /* \"#utility.yul\":15472:15489   */\n      add\n        /* \"#utility.yul\":15424:15503   */\n      tag_367\n      jump\t// in\n    tag_544:\n        /* \"#utility.yul\":15415:15503   */\n      swap2\n      pop\n        /* \"#utility.yul\":15231:15509   */\n      pop\n        /* \"#utility.yul\":15169:15509   */\n      swap3\n      swap2\n      pop\n      pop\n      jump\t// out\n        /* \"#utility.yul\":15515:16024   */\n    tag_78:\n        /* \"#utility.yul\":15584:15590   */\n      0x00\n        /* \"#utility.yul\":15633:15635   */\n      0x20\n        /* \"#utility.yul\":15621:15630   */\n      dup3\n        /* \"#utility.yul\":15612:15619   */\n      dup5\n        /* \"#utility.yul\":15608:15631   */\n      sub\n        /* \"#utility.yul\":15604:15636   */\n      slt\n        /* \"#utility.yul\":15601:15720   */\n      iszero\n      tag_546\n      jumpi\n        /* \"#utility.yul\":15639:15718   */\n      tag_547\n      tag_323\n      jump\t// in\n    tag_547:\n        /* \"#utility.yul\":15601:15720   */\n    tag_546:\n        /* \"#utility.yul\":15787:15788   */\n      0x00\n        /* \"#utility.yul\":15776:15785   */\n      dup3\n        /* \"#utility.yul\":15772:15789   */\n      add\n        /* \"#utility.yul\":15759:15790   */\n      calldataload\n        /* \"#utility.yul\":15817:15835   */\n      0xffffffffffffffff\n        /* \"#utility.yul\":15809:15815   */\n      dup2\n        /* \"#utility.yul\":15806:15836   */\n      gt\n        /* \"#utility.yul\":15803:15920   */\n      iszero\n      tag_548\n      jumpi\n        /* \"#utility.yul\":15839:15918   */\n      tag_549\n      tag_324\n      jump\t// in\n    tag_549:\n        /* \"#utility.yul\":15803:15920   */\n    tag_548:\n        /* \"#utility.yul\":15944:16007   */\n      tag_550\n        /* \"#utility.yul\":15999:16006   */\n      dup5\n        /* \"#utility.yul\":15990:15996   */\n      dup3\n        /* \"#utility.yul\":15979:15988   */\n      dup6\n        /* \"#utility.yul\":15975:15997   */\n      add\n        /* \"#utility.yul\":15944:16007   */\n      tag_368\n      jump\t// in\n    tag_550:\n        /* \"#utility.yul\":15934:16007   */\n      swap2\n      pop\n        /* \"#utility.yul\":15730:16017   */\n      pop\n        /* \"#utility.yul\":15515:16024   */\n      swap3\n      swap2\n      pop\n      pop\n      jump\t// out\n        /* \"#utility.yul\":16030:16864   */\n    tag_83:\n        /* \"#utility.yul\":16118:16124   */\n      0x00\n        /* \"#utility.yul\":16126:16132   */\n      dup1\n        /* \"#utility.yul\":16175:16177   */\n      0x40\n        /* \"#utility.yul\":16163:16172   */\n      dup4\n        /* \"#utility.yul\":16154:16161   */\n      dup6\n        /* \"#utility.yul\":16150:16173   */\n      sub\n        /* \"#utility.yul\":16146:16178   */\n      slt\n        /* \"#utility.yul\":16143:16262   */\n      iszero\n      tag_552\n      jumpi\n        /* \"#utility.yul\":16181:16260   */\n      tag_553\n      tag_323\n      jump\t// in\n    tag_553:\n        /* \"#utility.yul\":16143:16262   */\n    tag_552:\n        /* \"#utility.yul\":16329:16330   */\n      0x00\n        /* \"#utility.yul\":16318:16327   */\n      dup4\n        /* \"#utility.yul\":16314:16331   */\n      add\n        /* \"#utility.yul\":16301:16332   */\n      calldataload\n        /* \"#utility.yul\":16359:16377   */\n      0xffffffffffffffff\n        /* \"#utility.yul\":16351:16357   */\n      dup2\n        /* \"#utility.yul\":16348:16378   */\n      gt\n        /* \"#utility.yul\":16345:16462   */\n      iszero\n      tag_554\n      jumpi\n        /* \"#utility.yul\":16381:16460   */\n      tag_555\n      tag_324\n      jump\t// in\n    tag_555:\n        /* \"#utility.yul\":16345:16462   */\n    tag_554:\n        /* \"#utility.yul\":16486:16549   */\n      tag_556\n        /* \"#utility.yul\":16541:16548   */\n      dup6\n        /* \"#utility.yul\":16532:16538   */\n      dup3\n        /* \"#utility.yul\":16521:16530   */\n      dup7\n        /* \"#utility.yul\":16517:16539   */\n      add\n        /* \"#utility.yul\":16486:16549   */\n      tag_368\n      jump\t// in\n    tag_556:\n        /* \"#utility.yul\":16476:16549   */\n      swap3\n      pop\n        /* \"#utility.yul\":16272:16559   */\n      pop\n        /* \"#utility.yul\":16626:16628   */\n      0x20\n        /* \"#utility.yul\":16615:16624   */\n      dup4\n        /* \"#utility.yul\":16611:16629   */\n      add\n        /* \"#utility.yul\":16598:16630   */\n      calldataload\n        /* \"#utility.yul\":16657:16675   */\n      0xffffffffffffffff\n        /* \"#utility.yul\":16649:16655   */\n      dup2\n        /* \"#utility.yul\":16646:16676   */\n      gt\n        /* \"#utility.yul\":16643:16760   */\n      iszero\n      tag_557\n      jumpi\n        /* \"#utility.yul\":16679:16758   */\n      tag_558\n      tag_324\n      jump\t// in\n    tag_558:\n        /* \"#utility.yul\":16643:16760   */\n    tag_557:\n        /* \"#utility.yul\":16784:16847   */\n      tag_559\n        /* \"#utility.yul\":16839:16846   */\n      dup6\n        /* \"#utility.yul\":16830:16836   */\n      dup3\n        /* \"#utility.yul\":16819:16828   */\n      dup7\n        /* \"#utility.yul\":16815:16837   */\n      add\n        /* \"#utility.yul\":16784:16847   */\n      tag_368\n      jump\t// in\n    tag_559:\n        /* \"#utility.yul\":16774:16847   */\n      swap2\n      pop\n        /* \"#utility.yul\":16569:16857   */\n      pop\n        /* \"#utility.yul\":16030:16864   */\n      swap3\n      pop\n      swap3\n      swap1\n      pop\n      jump\t// out\n        /* \"#utility.yul\":16870:16986   */\n    tag_369:\n        /* \"#utility.yul\":16940:16961   */\n      tag_561\n        /* \"#utility.yul\":16955:16960   */\n      dup2\n        /* \"#utility.yul\":16940:16961   */\n      tag_328\n      jump\t// in\n    tag_561:\n        /* \"#utility.yul\":16933:16938   */\n      dup2\n        /* \"#utility.yul\":16930:16962   */\n      eq\n        /* \"#utility.yul\":16920:16980   */\n      tag_562\n      jumpi\n        /* \"#utility.yul\":16976:16977   */\n      0x00\n        /* \"#utility.yul\":16973:16974   */\n      dup1\n        /* \"#utility.yul\":16966:16978   */\n      revert\n        /* \"#utility.yul\":16920:16980   */\n    tag_562:\n        /* \"#utility.yul\":16870:16986   */\n      pop\n      jump\t// out\n        /* \"#utility.yul\":16992:17125   */\n    tag_370:\n        /* \"#utility.yul\":17035:17040   */\n      0x00\n        /* \"#utility.yul\":17073:17079   */\n      dup2\n        /* \"#utility.yul\":17060:17080   */\n      calldataload\n        /* \"#utility.yul\":17051:17080   */\n      swap1\n      pop\n        /* \"#utility.yul\":17089:17119   */\n      tag_564\n        /* \"#utility.yul\":17113:17118   */\n      dup2\n        /* \"#utility.yul\":17089:17119   */\n      tag_369\n      jump\t// in\n    tag_564:\n        /* \"#utility.yul\":16992:17125   */\n      swap3\n      swap2\n      pop\n      pop\n      jump\t// out\n        /* \"#utility.yul\":17131:17599   */\n    tag_91:\n        /* \"#utility.yul\":17196:17202   */\n      0x00\n        /* \"#utility.yul\":17204:17210   */\n      dup1\n        /* \"#utility.yul\":17253:17255   */\n      0x40\n        /* \"#utility.yul\":17241:17250   */\n      dup4\n        /* \"#utility.yul\":17232:17239   */\n      dup6\n        /* \"#utility.yul\":17228:17251   */\n      sub\n        /* \"#utility.yul\":17224:17256   */\n      slt\n        /* \"#utility.yul\":17221:17340   */\n      iszero\n      tag_566\n      jumpi\n        /* \"#utility.yul\":17259:17338   */\n      tag_567\n      tag_323\n      jump\t// in\n    tag_567:\n        /* \"#utility.yul\":17221:17340   */\n    tag_566:\n        /* \"#utility.yul\":17379:17380   */\n      0x00\n        /* \"#utility.yul\":17404:17457   */\n      tag_568\n        /* \"#utility.yul\":17449:17456   */\n      dup6\n        /* \"#utility.yul\":17440:17446   */\n      dup3\n        /* \"#utility.yul\":17429:17438   */\n      dup7\n        /* \"#utility.yul\":17425:17447   */\n      add\n        /* \"#utility.yul\":17404:17457   */\n      tag_342\n      jump\t// in\n    tag_568:\n        /* \"#utility.yul\":17394:17457   */\n      swap3\n      pop\n        /* \"#utility.yul\":17350:17467   */\n      pop\n        /* \"#utility.yul\":17506:17508   */\n      0x20\n        /* \"#utility.yul\":17532:17582   */\n      tag_569\n        /* \"#utility.yul\":17574:17581   */\n      dup6\n        /* \"#utility.yul\":17565:17571   */\n      dup3\n        /* \"#utility.yul\":17554:17563   */\n      dup7\n        /* \"#utility.yul\":17550:17572   */\n      add\n        /* \"#utility.yul\":17532:17582   */\n      tag_370\n      jump\t// in\n    tag_569:\n        /* \"#utility.yul\":17522:17582   */\n      swap2\n      pop\n        /* \"#utility.yul\":17477:17592   */\n      pop\n        /* \"#utility.yul\":17131:17599   */\n      swap3\n      pop\n      swap3\n      swap1\n      pop\n      jump\t// out\n        /* \"#utility.yul\":17605:17912   */\n    tag_371:\n        /* \"#utility.yul\":17666:17670   */\n      0x00\n        /* \"#utility.yul\":17756:17774   */\n      0xffffffffffffffff\n        /* \"#utility.yul\":17748:17754   */\n      dup3\n        /* \"#utility.yul\":17745:17775   */\n      gt\n        /* \"#utility.yul\":17742:17798   */\n      iszero\n      tag_571\n      jumpi\n        /* \"#utility.yul\":17778:17796   */\n      tag_572\n      tag_137\n      jump\t// in\n    tag_572:\n        /* \"#utility.yul\":17742:17798   */\n    tag_571:\n        /* \"#utility.yul\":17816:17845   */\n      tag_573\n        /* \"#utility.yul\":17838:17844   */\n      dup3\n        /* \"#utility.yul\":17816:17845   */\n      tag_333\n      jump\t// in\n    tag_573:\n        /* \"#utility.yul\":17808:17845   */\n      swap1\n      pop\n        /* \"#utility.yul\":17900:17904   */\n      0x20\n        /* \"#utility.yul\":17894:17898   */\n      dup2\n        /* \"#utility.yul\":17890:17905   */\n      add\n        /* \"#utility.yul\":17882:17905   */\n      swap1\n      pop\n        /* \"#utility.yul\":17605:17912   */\n      swap2\n      swap1\n      pop\n      jump\t// out\n        /* \"#utility.yul\":17918:18341   */\n    tag_372:\n        /* \"#utility.yul\":17995:18000   */\n      0x00\n        /* \"#utility.yul\":18020:18085   */\n      tag_575\n        /* \"#utility.yul\":18036:18084   */\n      tag_576\n        /* \"#utility.yul\":18077:18083   */\n      dup5\n        /* \"#utility.yul\":18036:18084   */\n      tag_371\n      jump\t// in\n    tag_576:\n        /* \"#utility.yul\":18020:18085   */\n      tag_364\n      jump\t// in\n    tag_575:\n        /* \"#utility.yul\":18011:18085   */\n      swap1\n      pop\n        /* \"#utility.yul\":18108:18114   */\n      dup3\n        /* \"#utility.yul\":18101:18106   */\n      dup2\n        /* \"#utility.yul\":18094:18115   */\n      mstore\n        /* \"#utility.yul\":18146:18150   */\n      0x20\n        /* \"#utility.yul\":18139:18144   */\n      dup2\n        /* \"#utility.yul\":18135:18151   */\n      add\n        /* \"#utility.yul\":18184:18187   */\n      dup5\n        /* \"#utility.yul\":18175:18181   */\n      dup5\n        /* \"#utility.yul\":18170:18173   */\n      dup5\n        /* \"#utility.yul\":18166:18182   */\n      add\n        /* \"#utility.yul\":18163:18188   */\n      gt\n        /* \"#utility.yul\":18160:18272   */\n      iszero\n      tag_577\n      jumpi\n        /* \"#utility.yul\":18191:18270   */\n      tag_578\n      tag_362\n      jump\t// in\n    tag_578:\n        /* \"#utility.yul\":18160:18272   */\n    tag_577:\n        /* \"#utility.yul\":18281:18335   */\n      tag_579\n        /* \"#utility.yul\":18328:18334   */\n      dup5\n        /* \"#utility.yul\":18323:18326   */\n      dup3\n        /* \"#utility.yul\":18318:18321   */\n      dup6\n        /* \"#utility.yul\":18281:18335   */\n      tag_366\n      jump\t// in\n    tag_579:\n        /* \"#utility.yul\":18001:18341   */\n      pop\n        /* \"#utility.yul\":17918:18341   */\n      swap4\n      swap3\n      pop\n      pop\n      pop\n      jump\t// out\n        /* \"#utility.yul\":18360:18698   */\n    tag_373:\n        /* \"#utility.yul\":18415:18420   */\n      0x00\n        /* \"#utility.yul\":18464:18467   */\n      dup3\n        /* \"#utility.yul\":18457:18461   */\n      0x1f\n        /* \"#utility.yul\":18449:18455   */\n      dup4\n        /* \"#utility.yul\":18445:18462   */\n      add\n        /* \"#utility.yul\":18441:18468   */\n      slt\n        /* \"#utility.yul\":18431:18553   */\n      tag_581\n      jumpi\n        /* \"#utility.yul\":18472:18551   */\n      tag_582\n      tag_361\n      jump\t// in\n    tag_582:\n        /* \"#utility.yul\":18431:18553   */\n    tag_581:\n        /* \"#utility.yul\":18589:18595   */\n      dup2\n        /* \"#utility.yul\":18576:18596   */\n      calldataload\n        /* \"#utility.yul\":18614:18692   */\n      tag_583\n        /* \"#utility.yul\":18688:18691   */\n      dup5\n        /* \"#utility.yul\":18680:18686   */\n      dup3\n        /* \"#utility.yul\":18673:18677   */\n      0x20\n        /* \"#utility.yul\":18665:18671   */\n      dup7\n        /* \"#utility.yul\":18661:18678   */\n      add\n        /* \"#utility.yul\":18614:18692   */\n      tag_372\n      jump\t// in\n    tag_583:\n        /* \"#utility.yul\":18605:18692   */\n      swap2\n      pop\n        /* \"#utility.yul\":18421:18698   */\n      pop\n        /* \"#utility.yul\":18360:18698   */\n      swap3\n      swap2\n      pop\n      pop\n      jump\t// out\n        /* \"#utility.yul\":18704:19647   */\n    tag_95:\n        /* \"#utility.yul\":18799:18805   */\n      0x00\n        /* \"#utility.yul\":18807:18813   */\n      dup1\n        /* \"#utility.yul\":18815:18821   */\n      0x00\n        /* \"#utility.yul\":18823:18829   */\n      dup1\n        /* \"#utility.yul\":18872:18875   */\n      0x80\n        /* \"#utility.yul\":18860:18869   */\n      dup6\n        /* \"#utility.yul\":18851:18858   */\n      dup8\n        /* \"#utility.yul\":18847:18870   */\n      sub\n        /* \"#utility.yul\":18843:18876   */\n      slt\n        /* \"#utility.yul\":18840:18960   */\n      iszero\n      tag_585\n      jumpi\n        /* \"#utility.yul\":18879:18958   */\n      tag_586\n      tag_323\n      jump\t// in\n    tag_586:\n        /* \"#utility.yul\":18840:18960   */\n    tag_585:\n        /* \"#utility.yul\":18999:19000   */\n      0x00\n        /* \"#utility.yul\":19024:19077   */\n      tag_587\n        /* \"#utility.yul\":19069:19076   */\n      dup8\n        /* \"#utility.yul\":19060:19066   */\n      dup3\n        /* \"#utility.yul\":19049:19058   */\n      dup9\n        /* \"#utility.yul\":19045:19067   */\n      add\n        /* \"#utility.yul\":19024:19077   */\n      tag_342\n      jump\t// in\n    tag_587:\n        /* \"#utility.yul\":19014:19077   */\n      swap5\n      pop\n        /* \"#utility.yul\":18970:19087   */\n      pop\n        /* \"#utility.yul\":19126:19128   */\n      0x20\n        /* \"#utility.yul\":19152:19205   */\n      tag_588\n        /* \"#utility.yul\":19197:19204   */\n      dup8\n        /* \"#utility.yul\":19188:19194   */\n      dup3\n        /* \"#utility.yul\":19177:19186   */\n      dup9\n        /* \"#utility.yul\":19173:19195   */\n      add\n        /* \"#utility.yul\":19152:19205   */\n      tag_342\n      jump\t// in\n    tag_588:\n        /* \"#utility.yul\":19142:19205   */\n      swap4\n      pop\n        /* \"#utility.yul\":19097:19215   */\n      pop\n        /* \"#utility.yul\":19254:19256   */\n      0x40\n        /* \"#utility.yul\":19280:19333   */\n      tag_589\n        /* \"#utility.yul\":19325:19332   */\n      dup8\n        /* \"#utility.yul\":19316:19322   */\n      dup3\n        /* \"#utility.yul\":19305:19314   */\n      dup9\n        /* \"#utility.yul\":19301:19323   */\n      add\n        /* \"#utility.yul\":19280:19333   */\n      tag_337\n      jump\t// in\n    tag_589:\n        /* \"#utility.yul\":19270:19333   */\n      swap3\n      pop\n        /* \"#utility.yul\":19225:19343   */\n      pop\n        /* \"#utility.yul\":19410:19412   */\n      0x60\n        /* \"#utility.yul\":19399:19408   */\n      dup6\n        /* \"#utility.yul\":19395:19413   */\n      add\n        /* \"#utility.yul\":19382:19414   */\n      calldataload\n        /* \"#utility.yul\":19441:19459   */\n      0xffffffffffffffff\n        /* \"#utility.yul\":19433:19439   */\n      dup2\n        /* \"#utility.yul\":19430:19460   */\n      gt\n        /* \"#utility.yul\":19427:19544   */\n      iszero\n      tag_590\n      jumpi\n        /* \"#utility.yul\":19463:19542   */\n      tag_591\n      tag_324\n      jump\t// in\n    tag_591:\n        /* \"#utility.yul\":19427:19544   */\n    tag_590:\n        /* \"#utility.yul\":19568:19630   */\n      tag_592\n        /* \"#utility.yul\":19622:19629   */\n      dup8\n        /* \"#utility.yul\":19613:19619   */\n      dup3\n        /* \"#utility.yul\":19602:19611   */\n      dup9\n        /* \"#utility.yul\":19598:19620   */\n      add\n        /* \"#utility.yul\":19568:19630   */\n      tag_373\n      jump\t// in\n    tag_592:\n        /* \"#utility.yul\":19558:19630   */\n      swap2\n      pop\n        /* \"#utility.yul\":19353:19640   */\n      pop\n        /* \"#utility.yul\":18704:19647   */\n      swap3\n      swap6\n      swap2\n      swap5\n      pop\n      swap3\n      pop\n      jump\t// out\n        /* \"#utility.yul\":19653:20127   */\n    tag_107:\n        /* \"#utility.yul\":19721:19727   */\n      0x00\n        /* \"#utility.yul\":19729:19735   */\n      dup1\n        /* \"#utility.yul\":19778:19780   */\n      0x40\n        /* \"#utility.yul\":19766:19775   */\n      dup4\n        /* \"#utility.yul\":19757:19764   */\n      dup6\n        /* \"#utility.yul\":19753:19776   */\n      sub\n        /* \"#utility.yul\":19749:19781   */\n      slt\n        /* \"#utility.yul\":19746:19865   */\n      iszero\n      tag_594\n      jumpi\n        /* \"#utility.yul\":19784:19863   */\n      tag_595\n      tag_323\n      jump\t// in\n    tag_595:\n        /* \"#utility.yul\":19746:19865   */\n    tag_594:\n        /* \"#utility.yul\":19904:19905   */\n      0x00\n        /* \"#utility.yul\":19929:19982   */\n      tag_596\n        /* \"#utility.yul\":19974:19981   */\n      dup6\n        /* \"#utility.yul\":19965:19971   */\n      dup3\n        /* \"#utility.yul\":19954:19963   */\n      dup7\n        /* \"#utility.yul\":19950:19972   */\n      add\n        /* \"#utility.yul\":19929:19982   */\n      tag_342\n      jump\t// in\n    tag_596:\n        /* \"#utility.yul\":19919:19982   */\n      swap3\n      pop\n        /* \"#utility.yul\":19875:19992   */\n      pop\n        /* \"#utility.yul\":20031:20033   */\n      0x20\n        /* \"#utility.yul\":20057:20110   */\n      tag_597\n        /* \"#utility.yul\":20102:20109   */\n      dup6\n        /* \"#utility.yul\":20093:20099   */\n      dup3\n        /* \"#utility.yul\":20082:20091   */\n      dup7\n        /* \"#utility.yul\":20078:20100   */\n      add\n        /* \"#utility.yul\":20057:20110   */\n      tag_342\n      jump\t// in\n    tag_597:\n        /* \"#utility.yul\":20047:20110   */\n      swap2\n      pop\n        /* \"#utility.yul\":20002:20120   */\n      pop\n        /* \"#utility.yul\":19653:20127   */\n      swap3\n      pop\n      swap3\n      swap1\n      pop\n      jump\t// out\n        /* \"#utility.yul\":20133:20313   */\n    tag_374:\n        /* \"#utility.yul\":20181:20258   */\n      0x4e487b7100000000000000000000000000000000000000000000000000000000\n        /* \"#utility.yul\":20178:20179   */\n      0x00\n        /* \"#utility.yul\":20171:20259   */\n      mstore\n        /* \"#utility.yul\":20278:20282   */\n      0x22\n        /* \"#utility.yul\":20275:20276   */\n      0x04\n        /* \"#utility.yul\":20268:20283   */\n      mstore\n        /* \"#utility.yul\":20302:20306   */\n      0x24\n        /* \"#utility.yul\":20299:20300   */\n      0x00\n        /* \"#utility.yul\":20292:20307   */\n      revert\n        /* \"#utility.yul\":20319:20639   */\n    tag_117:\n        /* \"#utility.yul\":20363:20369   */\n      0x00\n        /* \"#utility.yul\":20400:20401   */\n      0x02\n        /* \"#utility.yul\":20394:20398   */\n      dup3\n        /* \"#utility.yul\":20390:20402   */\n      div\n        /* \"#utility.yul\":20380:20402   */\n      swap1\n      pop\n        /* \"#utility.yul\":20447:20448   */\n      0x01\n        /* \"#utility.yul\":20441:20445   */\n      dup3\n        /* \"#utility.yul\":20437:20449   */\n      and\n        /* \"#utility.yul\":20468:20486   */\n      dup1\n        /* \"#utility.yul\":20458:20539   */\n      tag_600\n      jumpi\n        /* \"#utility.yul\":20524:20528   */\n      0x7f\n        /* \"#utility.yul\":20516:20522   */\n      dup3\n        /* \"#utility.yul\":20512:20529   */\n      and\n        /* \"#utility.yul\":20502:20529   */\n      swap2\n      pop\n        /* \"#utility.yul\":20458:20539   */\n    tag_600:\n        /* \"#utility.yul\":20586:20588   */\n      0x20\n        /* \"#utility.yul\":20578:20584   */\n      dup3\n        /* \"#utility.yul\":20575:20589   */\n      lt\n        /* \"#utility.yul\":20555:20573   */\n      dup2\n        /* \"#utility.yul\":20552:20590   */\n      sub\n        /* \"#utility.yul\":20549:20633   */\n      tag_601\n      jumpi\n        /* \"#utility.yul\":20605:20623   */\n      tag_602\n      tag_374\n      jump\t// in\n    tag_602:\n        /* \"#utility.yul\":20549:20633   */\n    tag_601:\n        /* \"#utility.yul\":20370:20639   */\n      pop\n        /* \"#utility.yul\":20319:20639   */\n      swap2\n      swap1\n      pop\n      jump\t// out\n        /* \"#utility.yul\":20645:20825   */\n    tag_147:\n        /* \"#utility.yul\":20693:20770   */\n      0x4e487b7100000000000000000000000000000000000000000000000000000000\n        /* \"#utility.yul\":20690:20691   */\n      0x00\n        /* \"#utility.yul\":20683:20771   */\n      mstore\n        /* \"#utility.yul\":20790:20794   */\n      0x32\n        /* \"#utility.yul\":20787:20788   */\n      0x04\n        /* \"#utility.yul\":20780:20795   */\n      mstore\n        /* \"#utility.yul\":20814:20818   */\n      0x24\n        /* \"#utility.yul\":20811:20812   */\n      0x00\n        /* \"#utility.yul\":20804:20819   */\n      revert\n        /* \"#utility.yul\":20831:21011   */\n    tag_375:\n        /* \"#utility.yul\":20879:20956   */\n      0x4e487b7100000000000000000000000000000000000000000000000000000000\n        /* \"#utility.yul\":20876:20877   */\n      0x00\n        /* \"#utility.yul\":20869:20957   */\n      mstore\n        /* \"#utility.yul\":20976:20980   */\n      0x11\n        /* \"#utility.yul\":20973:20974   */\n      0x04\n        /* \"#utility.yul\":20966:20981   */\n      mstore\n        /* \"#utility.yul\":21000:21004   */\n      0x24\n        /* \"#utility.yul\":20997:20998   */\n      0x00\n        /* \"#utility.yul\":20990:21005   */\n      revert\n        /* \"#utility.yul\":21017:21250   */\n    tag_158:\n        /* \"#utility.yul\":21056:21059   */\n      0x00\n        /* \"#utility.yul\":21079:21103   */\n      tag_606\n        /* \"#utility.yul\":21097:21102   */\n      dup3\n        /* \"#utility.yul\":21079:21103   */\n      tag_335\n      jump\t// in\n    tag_606:\n        /* \"#utility.yul\":21070:21103   */\n      swap2\n      pop\n        /* \"#utility.yul\":21125:21191   */\n      0xffffffffffffffffffffffffffffffffffffffffffffffffffffffffffffffff\n        /* \"#utility.yul\":21118:21123   */\n      dup3\n        /* \"#utility.yul\":21115:21192   */\n      sub\n        /* \"#utility.yul\":21112:21215   */\n      tag_607\n      jumpi\n        /* \"#utility.yul\":21195:21213   */\n      tag_608\n      tag_375\n      jump\t// in\n    tag_608:\n        /* \"#utility.yul\":21112:21215   */\n    tag_607:\n        /* \"#utility.yul\":21242:21243   */\n      0x01\n        /* \"#utility.yul\":21235:21240   */\n      dup3\n        /* \"#utility.yul\":21231:21244   */\n      add\n        /* \"#utility.yul\":21224:21244   */\n      swap1\n      pop\n        /* \"#utility.yul\":21017:21250   */\n      swap2\n      swap1\n      pop\n      jump\t// out\n        /* \"#utility.yul\":21256:21698   */\n    tag_167:\n        /* \"#utility.yul\":21405:21409   */\n      0x00\n        /* \"#utility.yul\":21443:21445   */\n      0x60\n        /* \"#utility.yul\":21432:21441   */\n      dup3\n        /* \"#utility.yul\":21428:21446   */\n      add\n        /* \"#utility.yul\":21420:21446   */\n      swap1\n      pop\n        /* \"#utility.yul\":21456:21527   */\n      tag_610\n        /* \"#utility.yul\":21524:21525   */\n      0x00\n        /* \"#utility.yul\":21513:21522   */\n      dup4\n        /* \"#utility.yul\":21509:21526   */\n      add\n        /* \"#utility.yul\":21500:21506   */\n      dup7\n        /* \"#utility.yul\":21456:21527   */\n      tag_340\n      jump\t// in\n    tag_610:\n        /* \"#utility.yul\":21537:21609   */\n      tag_611\n        /* \"#utility.yul\":21605:21607   */\n      0x20\n        /* \"#utility.yul\":21594:21603   */\n      dup4\n        /* \"#utility.yul\":21590:21608   */\n      add\n        /* \"#utility.yul\":21581:21587   */\n      dup6\n        /* \"#utility.yul\":21537:21609   */\n      tag_360\n      jump\t// in\n    tag_611:\n        /* \"#utility.yul\":21619:21691   */\n      tag_612\n        /* \"#utility.yul\":21687:21689   */\n      0x40\n        /* \"#utility.yul\":21676:21685   */\n      dup4\n        /* \"#utility.yul\":21672:21690   */\n      add\n        /* \"#utility.yul\":21663:21669   */\n      dup5\n        /* \"#utility.yul\":21619:21691   */\n      tag_340\n      jump\t// in\n    tag_612:\n        /* \"#utility.yul\":21256:21698   */\n      swap5\n      swap4\n      pop\n      pop\n      pop\n      pop\n      jump\t// out\n        /* \"#utility.yul\":21704:21852   */\n    tag_376:\n        /* \"#utility.yul\":21806:21817   */\n      0x00\n        /* \"#utility.yul\":21843:21846   */\n      dup2\n        /* \"#utility.yul\":21828:21846   */\n      swap1\n      pop\n        /* \"#utility.yul\":21704:21852   */\n      swap3\n      swap2\n      pop\n      pop\n      jump\t// out\n        /* \"#utility.yul\":21858:22248   */\n    tag_377:\n        /* \"#utility.yul\":21964:21967   */\n      0x00\n        /* \"#utility.yul\":21992:22031   */\n      tag_615\n        /* \"#utility.yul\":22025:22030   */\n      dup3\n        /* \"#utility.yul\":21992:22031   */\n      tag_330\n      jump\t// in\n    tag_615:\n        /* \"#utility.yul\":22047:22136   */\n      tag_616\n        /* \"#utility.yul\":22129:22135   */\n      dup2\n        /* \"#utility.yul\":22124:22127   */\n      dup6\n        /* \"#utility.yul\":22047:22136   */\n      tag_376\n      jump\t// in\n    tag_616:\n        /* \"#utility.yul\":22040:22136   */\n      swap4\n      pop\n        /* \"#utility.yul\":22145:22210   */\n      tag_617\n        /* \"#utility.yul\":22203:22209   */\n      dup2\n        /* \"#utility.yul\":22198:22201   */\n      dup6\n        /* \"#utility.yul\":22191:22195   */\n      0x20\n        /* \"#utility.yul\":22184:22189   */\n      dup7\n        /* \"#utility.yul\":22180:22196   */\n      add\n        /* \"#utility.yul\":22145:22210   */\n      tag_332\n      jump\t// in\n    tag_617:\n        /* \"#utility.yul\":22235:22241   */\n      dup1\n        /* \"#utility.yul\":22230:22233   */\n      dup5\n        /* \"#utility.yul\":22226:22242   */\n      add\n        /* \"#utility.yul\":22219:22242   */\n      swap2\n      pop\n        /* \"#utility.yul\":21968:22248   */\n      pop\n        /* \"#utility.yul\":21858:22248   */\n      swap3\n      swap2\n      pop\n      pop\n      jump\t// out\n        /* \"#utility.yul\":22254:22529   */\n    tag_203:\n        /* \"#utility.yul\":22386:22389   */\n      0x00\n        /* \"#utility.yul\":22408:22503   */\n      tag_619\n        /* \"#utility.yul\":22499:22502   */\n      dup3\n        /* \"#utility.yul\":22490:22496   */\n      dup5\n        /* \"#utility.yul\":22408:22503   */\n      tag_377\n      jump\t// in\n    tag_619:\n        /* \"#utility.yul\":22401:22503   */\n      swap2\n      pop\n        /* \"#utility.yul\":22520:22523   */\n      dup2\n        /* \"#utility.yul\":22513:22523   */\n      swap1\n      pop\n        /* \"#utility.yul\":22254:22529   */\n      swap3\n      swap2\n      pop\n      pop\n      jump\t// out\n        /* \"#utility.yul\":22535:22715   */\n    tag_378:\n        /* \"#utility.yul\":22583:22660   */\n      0x4e487b7100000000000000000000000000000000000000000000000000000000\n        /* \"#utility.yul\":22580:22581   */\n      0x00\n        /* \"#utility.yul\":22573:22661   */\n      mstore\n        /* \"#utility.yul\":22680:22684   */\n      0x12\n        /* \"#utility.yul\":22677:22678   */\n      0x04\n        /* \"#utility.yul\":22670:22685   */\n      mstore\n        /* \"#utility.yul\":22704:22708   */\n      0x24\n        /* \"#utility.yul\":22701:22702   */\n      0x00\n        /* \"#utility.yul\":22694:22709   */\n      revert\n        /* \"#utility.yul\":22721:22897   */\n    tag_205:\n        /* \"#utility.yul\":22753:22754   */\n      0x00\n        /* \"#utility.yul\":22770:22790   */\n      tag_622\n        /* \"#utility.yul\":22788:22789   */\n      dup3\n        /* \"#utility.yul\":22770:22790   */\n      tag_335\n      jump\t// in\n    tag_622:\n        /* \"#utility.yul\":22765:22790   */\n      swap2\n      pop\n        /* \"#utility.yul\":22804:22824   */\n      tag_623\n        /* \"#utility.yul\":22822:22823   */\n      dup4\n        /* \"#utility.yul\":22804:22824   */\n      tag_335\n      jump\t// in\n    tag_623:\n        /* \"#utility.yul\":22799:22824   */\n      swap3\n      pop\n        /* \"#utility.yul\":22843:22844   */\n      dup3\n        /* \"#utility.yul\":22833:22868   */\n      tag_624\n      jumpi\n        /* \"#utility.yul\":22848:22866   */\n      tag_625\n      tag_378\n      jump\t// in\n    tag_625:\n        /* \"#utility.yul\":22833:22868   */\n    tag_624:\n        /* \"#utility.yul\":22889:22890   */\n      dup3\n        /* \"#utility.yul\":22886:22887   */\n      dup3\n        /* \"#utility.yul\":22882:22891   */\n      mod\n        /* \"#utility.yul\":22877:22891   */\n      swap1\n      pop\n        /* \"#utility.yul\":22721:22897   */\n      swap3\n      swap2\n      pop\n      pop\n      jump\t// out\n        /* \"#utility.yul\":22903:23094   */\n    tag_207:\n        /* \"#utility.yul\":22943:22946   */\n      0x00\n        /* \"#utility.yul\":22962:22982   */\n      tag_627\n        /* \"#utility.yul\":22980:22981   */\n      dup3\n        /* \"#utility.yul\":22962:22982   */\n      tag_335\n      jump\t// in\n    tag_627:\n        /* \"#utility.yul\":22957:22982   */\n      swap2\n      pop\n        /* \"#utility.yul\":22996:23016   */\n      tag_628\n        /* \"#utility.yul\":23014:23015   */\n      dup4\n        /* \"#utility.yul\":22996:23016   */\n      tag_335\n      jump\t// in\n    tag_628:\n        /* \"#utility.yul\":22991:23016   */\n      swap3\n      pop\n        /* \"#utility.yul\":23039:23040   */\n      dup3\n        /* \"#utility.yul\":23036:23037   */\n      dup3\n        /* \"#utility.yul\":23032:23041   */\n      add\n        /* \"#utility.yul\":23025:23041   */\n      swap1\n      pop\n        /* \"#utility.yul\":23060:23063   */\n      dup1\n        /* \"#utility.yul\":23057:23058   */\n      dup3\n        /* \"#utility.yul\":23054:23064   */\n      gt\n        /* \"#utility.yul\":23051:23087   */\n      iszero\n      tag_629\n      jumpi\n        /* \"#utility.yul\":23067:23085   */\n      tag_630\n      tag_375\n      jump\t// in\n    tag_630:\n        /* \"#utility.yul\":23051:23087   */\n    tag_629:\n        /* \"#utility.yul\":22903:23094   */\n      swap3\n      swap2\n      pop\n      pop\n      jump\t// out\n        /* \"#utility.yul\":23100:23241   */\n    tag_379:\n        /* \"#utility.yul\":23149:23153   */\n      0x00\n        /* \"#utility.yul\":23172:23175   */\n      dup2\n        /* \"#utility.yul\":23164:23175   */\n      swap1\n      pop\n        /* \"#utility.yul\":23195:23198   */\n      dup2\n        /* \"#utility.yul\":23192:23193   */\n      0x00\n        /* \"#utility.yul\":23185:23199   */\n      mstore\n        /* \"#utility.yul\":23229:23233   */\n      0x20\n        /* \"#utility.yul\":23226:23227   */\n      0x00\n        /* \"#utility.yul\":23216:23234   */\n      keccak256\n        /* \"#utility.yul\":23208:23234   */\n      swap1\n      pop\n        /* \"#utility.yul\":23100:23241   */\n      swap2\n      swap1\n      pop\n      jump\t// out\n        /* \"#utility.yul\":23247:23340   */\n    tag_380:\n        /* \"#utility.yul\":23284:23290   */\n      0x00\n        /* \"#utility.yul\":23331:23333   */\n      0x20\n        /* \"#utility.yul\":23326:23328   */\n      0x1f\n        /* \"#utility.yul\":23319:23324   */\n      dup4\n        /* \"#utility.yul\":23315:23329   */\n      add\n        /* \"#utility.yul\":23311:23334   */\n      div\n        /* \"#utility.yul\":23301:23334   */\n      swap1\n      pop\n        /* \"#utility.yul\":23247:23340   */\n      swap2\n      swap1\n      pop\n      jump\t// out\n        /* \"#utility.yul\":23346:23453   */\n    tag_381:\n        /* \"#utility.yul\":23390:23398   */\n      0x00\n        /* \"#utility.yul\":23440:23445   */\n      dup3\n        /* \"#utility.yul\":23434:23438   */\n      dup3\n        /* \"#utility.yul\":23430:23446   */\n      shl\n        /* \"#utility.yul\":23409:23446   */\n      swap1\n      pop\n        /* \"#utility.yul\":23346:23453   */\n      swap3\n      swap2\n      pop\n      pop\n      jump\t// out\n        /* \"#utility.yul\":23459:23852   */\n    tag_382:\n        /* \"#utility.yul\":23528:23534   */\n      0x00\n        /* \"#utility.yul\":23578:23579   */\n      0x08\n        /* \"#utility.yul\":23566:23576   */\n      dup4\n        /* \"#utility.yul\":23562:23580   */\n      mul\n        /* \"#utility.yul\":23601:23698   */\n      tag_635\n        /* \"#utility.yul\":23631:23697   */\n      0xffffffffffffffffffffffffffffffffffffffffffffffffffffffffffffffff\n        /* \"#utility.yul\":23620:23629   */\n      dup3\n        /* \"#utility.yul\":23601:23698   */\n      tag_381\n      jump\t// in\n    tag_635:\n        /* \"#utility.yul\":23719:23758   */\n      tag_636\n        /* \"#utility.yul\":23749:23757   */\n      dup7\n        /* \"#utility.yul\":23738:23747   */\n      dup4\n        /* \"#utility.yul\":23719:23758   */\n      tag_381\n      jump\t// in\n    tag_636:\n        /* \"#utility.yul\":23707:23758   */\n      swap6\n      pop\n        /* \"#utility.yul\":23791:23795   */\n      dup1\n        /* \"#utility.yul\":23787:23796   */\n      not\n        /* \"#utility.yul\":23780:23785   */\n      dup5\n        /* \"#utility.yul\":23776:23797   */\n      and\n        /* \"#utility.yul\":23767:23797   */\n      swap4\n      pop\n        /* \"#utility.yul\":23840:23844   */\n      dup1\n        /* \"#utility.yul\":23830:23838   */\n      dup7\n        /* \"#utility.yul\":23826:23845   */\n      and\n        /* \"#utility.yul\":23819:23824   */\n      dup5\n        /* \"#utility.yul\":23816:23846   */\n      or\n        /* \"#utility.yul\":23806:23846   */\n      swap3\n      pop\n        /* \"#utility.yul\":23535:23852   */\n      pop\n      pop\n        /* \"#utility.yul\":23459:23852   */\n      swap4\n      swap3\n      pop\n      pop\n      pop\n      jump\t// out\n        /* \"#utility.yul\":23858:23918   */\n    tag_383:\n        /* \"#utility.yul\":23886:23889   */\n      0x00\n        /* \"#utility.yul\":23907:23912   */\n      dup2\n        /* \"#utility.yul\":23900:23912   */\n      swap1\n      pop\n        /* \"#utility.yul\":23858:23918   */\n      swap2\n      swap1\n      pop\n      jump\t// out\n        /* \"#utility.yul\":23924:24066   */\n    tag_384:\n        /* \"#utility.yul\":23974:23983   */\n      0x00\n        /* \"#utility.yul\":24007:24060   */\n      tag_639\n        /* \"#utility.yul\":24025:24059   */\n      tag_640\n        /* \"#utility.yul\":24034:24058   */\n      tag_641\n        /* \"#utility.yul\":24052:24057   */\n      dup5\n        /* \"#utility.yul\":24034:24058   */\n      tag_335\n      jump\t// in\n    tag_641:\n        /* \"#utility.yul\":24025:24059   */\n      tag_383\n      jump\t// in\n    tag_640:\n        /* \"#utility.yul\":24007:24060   */\n      tag_335\n      jump\t// in\n    tag_639:\n        /* \"#utility.yul\":23994:24060   */\n      swap1\n      pop\n        /* \"#utility.yul\":23924:24066   */\n      swap2\n      swap1\n      pop\n      jump\t// out\n        /* \"#utility.yul\":24072:24147   */\n    tag_385:\n        /* \"#utility.yul\":24115:24118   */\n      0x00\n        /* \"#utility.yul\":24136:24141   */\n      dup2\n        /* \"#utility.yul\":24129:24141   */\n      swap1\n      pop\n        /* \"#utility.yul\":24072:24147   */\n      swap2\n      swap1\n      pop\n      jump\t// out\n        /* \"#utility.yul\":24153:24422   */\n    tag_386:\n        /* \"#utility.yul\":24263:24302   */\n      tag_644\n        /* \"#utility.yul\":24294:24301   */\n      dup4\n        /* \"#utility.yul\":24263:24302   */\n      tag_384\n      jump\t// in\n    tag_644:\n        /* \"#utility.yul\":24324:24415   */\n      tag_645\n        /* \"#utility.yul\":24373:24414   */\n      tag_646\n        /* \"#utility.yul\":24397:24413   */\n      dup3\n        /* \"#utility.yul\":24373:24414   */\n      tag_385\n      jump\t// in\n    tag_646:\n        /* \"#utility.yul\":24365:24371   */\n      dup5\n        /* \"#utility.yul\":24358:24362   */\n      dup5\n        /* \"#utility.yul\":24352:24363   */\n      sload\n        /* \"#utility.yul\":24324:24415   */\n      tag_382\n      jump\t// in\n    tag_645:\n        /* \"#utility.yul\":24318:24322   */\n      dup3\n        /* \"#utility.yul\":24311:24416   */\n      sstore\n        /* \"#utility.yul\":24229:24422   */\n      pop\n        /* \"#utility.yul\":24153:24422   */\n      pop\n      pop\n      pop\n      jump\t// out\n        /* \"#utility.yul\":24428:24501   */\n    tag_387:\n        /* \"#utility.yul\":24473:24476   */\n      0x00\n        /* \"#utility.yul\":24428:24501   */\n      swap1\n      jump\t// out\n        /* \"#utility.yul\":24507:24696   */\n    tag_388:\n        /* \"#utility.yul\":24584:24616   */\n      tag_649\n      tag_387\n      jump\t// in\n    tag_649:\n        /* \"#utility.yul\":24625:24690   */\n      tag_650\n        /* \"#utility.yul\":24683:24689   */\n      dup2\n        /* \"#utility.yul\":24675:24681   */\n      dup5\n        /* \"#utility.yul\":24669:24673   */\n      dup5\n        /* \"#utility.yul\":24625:24690   */\n      tag_386\n      jump\t// in\n    tag_650:\n        /* \"#utility.yul\":24560:24696   */\n      pop\n        /* \"#utility.yul\":24507:24696   */\n      pop\n      pop\n      jump\t// out\n        /* \"#utility.yul\":24702:24888   */\n    tag_389:\n        /* \"#utility.yul\":24762:24882   */\n    tag_652:\n        /* \"#utility.yul\":24779:24782   */\n      dup2\n        /* \"#utility.yul\":24772:24777   */\n      dup2\n        /* \"#utility.yul\":24769:24783   */\n      lt\n        /* \"#utility.yul\":24762:24882   */\n      iszero\n      tag_654\n      jumpi\n        /* \"#utility.yul\":24833:24872   */\n      tag_655\n        /* \"#utility.yul\":24870:24871   */\n      0x00\n        /* \"#utility.yul\":24863:24868   */\n      dup3\n        /* \"#utility.yul\":24833:24872   */\n      tag_388\n      jump\t// in\n    tag_655:\n        /* \"#utility.yul\":24806:24807   */\n      0x01\n        /* \"#utility.yul\":24799:24804   */\n      dup2\n        /* \"#utility.yul\":24795:24808   */\n      add\n        /* \"#utility.yul\":24786:24808   */\n      swap1\n      pop\n        /* \"#utility.yul\":24762:24882   */\n      jump(tag_652)\n    tag_654:\n        /* \"#utility.yul\":24702:24888   */\n      pop\n      pop\n      jump\t// out\n        /* \"#utility.yul\":24894:25437   */\n    tag_390:\n        /* \"#utility.yul\":24995:24997   */\n      0x1f\n        /* \"#utility.yul\":24990:24993   */\n      dup3\n        /* \"#utility.yul\":24987:24998   */\n      gt\n        /* \"#utility.yul\":24984:25430   */\n      iszero\n      tag_657\n      jumpi\n        /* \"#utility.yul\":25029:25067   */\n      tag_658\n        /* \"#utility.yul\":25061:25066   */\n      dup2\n        /* \"#utility.yul\":25029:25067   */\n      tag_379\n      jump\t// in\n    tag_658:\n        /* \"#utility.yul\":25113:25142   */\n      tag_659\n        /* \"#utility.yul\":25131:25141   */\n      dup5\n        /* \"#utility.yul\":25113:25142   */\n      tag_380\n      jump\t// in\n    tag_659:\n        /* \"#utility.yul\":25103:25111   */\n      dup2\n        /* \"#utility.yul\":25099:25143   */\n      add\n        /* \"#utility.yul\":25296:25298   */\n      0x20\n        /* \"#utility.yul\":25284:25294   */\n      dup6\n        /* \"#utility.yul\":25281:25299   */\n      lt\n        /* \"#utility.yul\":25278:25327   */\n      iszero\n      tag_660\n      jumpi\n        /* \"#utility.yul\":25317:25325   */\n      dup2\n        /* \"#utility.yul\":25302:25325   */\n      swap1\n      pop\n        /* \"#utility.yul\":25278:25327   */\n    tag_660:\n        /* \"#utility.yul\":25340:25420   */\n      tag_661\n        /* \"#utility.yul\":25396:25418   */\n      tag_662\n        /* \"#utility.yul\":25414:25417   */\n      dup6\n        /* \"#utility.yul\":25396:25418   */\n      tag_380\n      jump\t// in\n    tag_662:\n        /* \"#utility.yul\":25386:25394   */\n      dup4\n        /* \"#utility.yul\":25382:25419   */\n      add\n        /* \"#utility.yul\":25369:25380   */\n      dup3\n        /* \"#utility.yul\":25340:25420   */\n      tag_389\n      jump\t// in\n    tag_661:\n        /* \"#utility.yul\":24999:25430   */\n      pop\n      pop\n        /* \"#utility.yul\":24984:25430   */\n    tag_657:\n        /* \"#utility.yul\":24894:25437   */\n      pop\n      pop\n      pop\n      jump\t// out\n        /* \"#utility.yul\":25443:25560   */\n    tag_391:\n        /* \"#utility.yul\":25497:25505   */\n      0x00\n        /* \"#utility.yul\":25547:25552   */\n      dup3\n        /* \"#utility.yul\":25541:25545   */\n      dup3\n        /* \"#utility.yul\":25537:25553   */\n      shr\n        /* \"#utility.yul\":25516:25553   */\n      swap1\n      pop\n        /* \"#utility.yul\":25443:25560   */\n      swap3\n      swap2\n      pop\n      pop\n      jump\t// out\n        /* \"#utility.yul\":25566:25735   */\n    tag_392:\n        /* \"#utility.yul\":25610:25616   */\n      0x00\n        /* \"#utility.yul\":25643:25694   */\n      tag_665\n        /* \"#utility.yul\":25691:25692   */\n      0x00\n        /* \"#utility.yul\":25687:25693   */\n      not\n        /* \"#utility.yul\":25679:25684   */\n      dup5\n        /* \"#utility.yul\":25676:25677   */\n      0x08\n        /* \"#utility.yul\":25672:25685   */\n      mul\n        /* \"#utility.yul\":25643:25694   */\n      tag_391\n      jump\t// in\n    tag_665:\n        /* \"#utility.yul\":25639:25695   */\n      not\n        /* \"#utility.yul\":25724:25728   */\n      dup1\n        /* \"#utility.yul\":25718:25722   */\n      dup4\n        /* \"#utility.yul\":25714:25729   */\n      and\n        /* \"#utility.yul\":25704:25729   */\n      swap2\n      pop\n        /* \"#utility.yul\":25617:25735   */\n      pop\n        /* \"#utility.yul\":25566:25735   */\n      swap3\n      swap2\n      pop\n      pop\n      jump\t// out\n        /* \"#utility.yul\":25740:26035   */\n    tag_393:\n        /* \"#utility.yul\":25816:25820   */\n      0x00\n        /* \"#utility.yul\":25962:25991   */\n      tag_667\n        /* \"#utility.yul\":25987:25990   */\n      dup4\n        /* \"#utility.yul\":25981:25985   */\n      dup4\n        /* \"#utility.yul\":25962:25991   */\n      tag_392\n      jump\t// in\n    tag_667:\n        /* \"#utility.yul\":25954:25991   */\n      swap2\n      pop\n        /* \"#utility.yul\":26024:26027   */\n      dup3\n        /* \"#utility.yul\":26021:26022   */\n      0x02\n        /* \"#utility.yul\":26017:26028   */\n      mul\n        /* \"#utility.yul\":26011:26015   */\n      dup3\n        /* \"#utility.yul\":26008:26029   */\n      or\n        /* \"#utility.yul\":26000:26029   */\n      swap1\n      pop\n        /* \"#utility.yul\":25740:26035   */\n      swap3\n      swap2\n      pop\n      pop\n      jump\t// out\n        /* \"#utility.yul\":26040:27435   */\n    tag_211:\n        /* \"#utility.yul\":26157:26194   */\n      tag_669\n        /* \"#utility.yul\":26190:26193   */\n      dup3\n        /* \"#utility.yul\":26157:26194   */\n      tag_330\n      jump\t// in\n    tag_669:\n        /* \"#utility.yul\":26259:26277   */\n      0xffffffffffffffff\n        /* \"#utility.yul\":26251:26257   */\n      dup2\n        /* \"#utility.yul\":26248:26278   */\n      gt\n        /* \"#utility.yul\":26245:26301   */\n      iszero\n      tag_670\n      jumpi\n        /* \"#utility.yul\":26281:26299   */\n      tag_671\n      tag_137\n      jump\t// in\n    tag_671:\n        /* \"#utility.yul\":26245:26301   */\n    tag_670:\n        /* \"#utility.yul\":26325:26363   */\n      tag_672\n        /* \"#utility.yul\":26357:26361   */\n      dup3\n        /* \"#utility.yul\":26351:26362   */\n      sload\n        /* \"#utility.yul\":26325:26363   */\n      tag_117\n      jump\t// in\n    tag_672:\n        /* \"#utility.yul\":26410:26477   */\n      tag_673\n        /* \"#utility.yul\":26470:26476   */\n      dup3\n        /* \"#utility.yul\":26462:26468   */\n      dup3\n        /* \"#utility.yul\":26456:26460   */\n      dup6\n        /* \"#utility.yul\":26410:26477   */\n      tag_390\n      jump\t// in\n    tag_673:\n        /* \"#utility.yul\":26504:26505   */\n      0x00\n        /* \"#utility.yul\":26528:26532   */\n      0x20\n        /* \"#utility.yul\":26515:26532   */\n      swap1\n      pop\n        /* \"#utility.yul\":26560:26562   */\n      0x1f\n        /* \"#utility.yul\":26552:26558   */\n      dup4\n        /* \"#utility.yul\":26549:26563   */\n      gt\n        /* \"#utility.yul\":26577:26578   */\n      0x01\n        /* \"#utility.yul\":26572:27190   */\n      dup2\n      eq\n      tag_675\n      jumpi\n        /* \"#utility.yul\":27234:27235   */\n      0x00\n        /* \"#utility.yul\":27251:27257   */\n      dup5\n        /* \"#utility.yul\":27248:27325   */\n      iszero\n      tag_676\n      jumpi\n        /* \"#utility.yul\":27300:27309   */\n      dup3\n        /* \"#utility.yul\":27295:27298   */\n      dup8\n        /* \"#utility.yul\":27291:27310   */\n      add\n        /* \"#utility.yul\":27285:27311   */\n      mload\n        /* \"#utility.yul\":27276:27311   */\n      swap1\n      pop\n        /* \"#utility.yul\":27248:27325   */\n    tag_676:\n        /* \"#utility.yul\":27351:27418   */\n      tag_677\n        /* \"#utility.yul\":27411:27417   */\n      dup6\n        /* \"#utility.yul\":27404:27409   */\n      dup3\n        /* \"#utility.yul\":27351:27418   */\n      tag_393\n      jump\t// in\n    tag_677:\n        /* \"#utility.yul\":27345:27349   */\n      dup7\n        /* \"#utility.yul\":27338:27419   */\n      sstore\n        /* \"#utility.yul\":27207:27429   */\n      pop\n        /* \"#utility.yul\":26542:27429   */\n      jump(tag_674)\n        /* \"#utility.yul\":26572:27190   */\n    tag_675:\n        /* \"#utility.yul\":26624:26628   */\n      0x1f\n        /* \"#utility.yul\":26620:26629   */\n      not\n        /* \"#utility.yul\":26612:26618   */\n      dup5\n        /* \"#utility.yul\":26608:26630   */\n      and\n        /* \"#utility.yul\":26658:26695   */\n      tag_678\n        /* \"#utility.yul\":26690:26694   */\n      dup7\n        /* \"#utility.yul\":26658:26695   */\n      tag_379\n      jump\t// in\n    tag_678:\n        /* \"#utility.yul\":26717:26718   */\n      0x00\n        /* \"#utility.yul\":26731:26939   */\n    tag_679:\n        /* \"#utility.yul\":26745:26752   */\n      dup3\n        /* \"#utility.yul\":26742:26743   */\n      dup2\n        /* \"#utility.yul\":26739:26753   */\n      lt\n        /* \"#utility.yul\":26731:26939   */\n      iszero\n      tag_681\n      jumpi\n        /* \"#utility.yul\":26824:26833   */\n      dup5\n        /* \"#utility.yul\":26819:26822   */\n      dup10\n        /* \"#utility.yul\":26815:26834   */\n      add\n        /* \"#utility.yul\":26809:26835   */\n      mload\n        /* \"#utility.yul\":26801:26807   */\n      dup3\n        /* \"#utility.yul\":26794:26836   */\n      sstore\n        /* \"#utility.yul\":26875:26876   */\n      0x01\n        /* \"#utility.yul\":26867:26873   */\n      dup3\n        /* \"#utility.yul\":26863:26877   */\n      add\n        /* \"#utility.yul\":26853:26877   */\n      swap2\n      pop\n        /* \"#utility.yul\":26922:26924   */\n      0x20\n        /* \"#utility.yul\":26911:26920   */\n      dup6\n        /* \"#utility.yul\":26907:26925   */\n      add\n        /* \"#utility.yul\":26894:26925   */\n      swap5\n      pop\n        /* \"#utility.yul\":26768:26772   */\n      0x20\n        /* \"#utility.yul\":26765:26766   */\n      dup2\n        /* \"#utility.yul\":26761:26773   */\n      add\n        /* \"#utility.yul\":26756:26773   */\n      swap1\n      pop\n        /* \"#utility.yul\":26731:26939   */\n      jump(tag_679)\n    tag_681:\n        /* \"#utility.yul\":26967:26973   */\n      dup7\n        /* \"#utility.yul\":26958:26965   */\n      dup4\n        /* \"#utility.yul\":26955:26974   */\n      lt\n        /* \"#utility.yul\":26952:27131   */\n      iszero\n      tag_682\n      jumpi\n        /* \"#utility.yul\":27025:27034   */\n      dup5\n        /* \"#utility.yul\":27020:27023   */\n      dup10\n        /* \"#utility.yul\":27016:27035   */\n      add\n        /* \"#utility.yul\":27010:27036   */\n      mload\n        /* \"#utility.yul\":27068:27116   */\n      tag_683\n        /* \"#utility.yul\":27110:27114   */\n      0x1f\n        /* \"#utility.yul\":27102:27108   */\n      dup10\n        /* \"#utility.yul\":27098:27115   */\n      and\n        /* \"#utility.yul\":27087:27096   */\n      dup3\n        /* \"#utility.yul\":27068:27116   */\n      tag_392\n      jump\t// in\n    tag_683:\n        /* \"#utility.yul\":27060:27066   */\n      dup4\n        /* \"#utility.yul\":27053:27117   */\n      sstore\n        /* \"#utility.yul\":26975:27131   */\n      pop\n        /* \"#utility.yul\":26952:27131   */\n    tag_682:\n        /* \"#utility.yul\":27177:27178   */\n      0x01\n        /* \"#utility.yul\":27173:27174   */\n      0x02\n        /* \"#utility.yul\":27165:27171   */\n      dup9\n        /* \"#utility.yul\":27161:27175   */\n      mul\n        /* \"#utility.yul\":27157:27179   */\n      add\n        /* \"#utility.yul\":27151:27155   */\n      dup9\n        /* \"#utility.yul\":27144:27180   */\n      sstore\n        /* \"#utility.yul\":26579:27190   */\n      pop\n      pop\n      pop\n        /* \"#utility.yul\":26542:27429   */\n    tag_674:\n      pop\n        /* \"#utility.yul\":26132:27435   */\n      pop\n      pop\n      pop\n        /* \"#utility.yul\":26040:27435   */\n      pop\n      pop\n      jump\t// out\n        /* \"#utility.yul\":27441:27635   */\n    tag_217:\n        /* \"#utility.yul\":27481:27485   */\n      0x00\n        /* \"#utility.yul\":27501:27521   */\n      tag_685\n        /* \"#utility.yul\":27519:27520   */\n      dup3\n        /* \"#utility.yul\":27501:27521   */\n      tag_335\n      jump\t// in\n    tag_685:\n        /* \"#utility.yul\":27496:27521   */\n      swap2\n      pop\n        /* \"#utility.yul\":27535:27555   */\n      tag_686\n        /* \"#utility.yul\":27553:27554   */\n      dup4\n        /* \"#utility.yul\":27535:27555   */\n      tag_335\n      jump\t// in\n    tag_686:\n        /* \"#utility.yul\":27530:27555   */\n      swap3\n      pop\n        /* \"#utility.yul\":27579:27580   */\n      dup3\n        /* \"#utility.yul\":27576:27577   */\n      dup3\n        /* \"#utility.yul\":27572:27581   */\n      sub\n        /* \"#utility.yul\":27564:27581   */\n      swap1\n      pop\n        /* \"#utility.yul\":27603:27604   */\n      dup2\n        /* \"#utility.yul\":27597:27601   */\n      dup2\n        /* \"#utility.yul\":27594:27605   */\n      gt\n        /* \"#utility.yul\":27591:27628   */\n      iszero\n      tag_687\n      jumpi\n        /* \"#utility.yul\":27608:27626   */\n      tag_688\n      tag_375\n      jump\t// in\n    tag_688:\n        /* \"#utility.yul\":27591:27628   */\n    tag_687:\n        /* \"#utility.yul\":27441:27635   */\n      swap3\n      swap2\n      pop\n      pop\n      jump\t// out\n        /* \"#utility.yul\":27641:27739   */\n    tag_394:\n        /* \"#utility.yul\":27692:27698   */\n      0x00\n        /* \"#utility.yul\":27726:27731   */\n      dup2\n        /* \"#utility.yul\":27720:27732   */\n      mload\n        /* \"#utility.yul\":27710:27732   */\n      swap1\n      pop\n        /* \"#utility.yul\":27641:27739   */\n      swap2\n      swap1\n      pop\n      jump\t// out\n        /* \"#utility.yul\":27745:27913   */\n    tag_395:\n        /* \"#utility.yul\":27828:27839   */\n      0x00\n        /* \"#utility.yul\":27862:27868   */\n      dup3\n        /* \"#utility.yul\":27857:27860   */\n      dup3\n        /* \"#utility.yul\":27850:27869   */\n      mstore\n        /* \"#utility.yul\":27902:27906   */\n      0x20\n        /* \"#utility.yul\":27897:27900   */\n      dup3\n        /* \"#utility.yul\":27893:27907   */\n      add\n        /* \"#utility.yul\":27878:27907   */\n      swap1\n      pop\n        /* \"#utility.yul\":27745:27913   */\n      swap3\n      swap2\n      pop\n      pop\n      jump\t// out\n        /* \"#utility.yul\":27919:28292   */\n    tag_396:\n        /* \"#utility.yul\":28005:28008   */\n      0x00\n        /* \"#utility.yul\":28033:28071   */\n      tag_692\n        /* \"#utility.yul\":28065:28070   */\n      dup3\n        /* \"#utility.yul\":28033:28071   */\n      tag_394\n      jump\t// in\n    tag_692:\n        /* \"#utility.yul\":28087:28157   */\n      tag_693\n        /* \"#utility.yul\":28150:28156   */\n      dup2\n        /* \"#utility.yul\":28145:28148   */\n      dup6\n        /* \"#utility.yul\":28087:28157   */\n      tag_395\n      jump\t// in\n    tag_693:\n        /* \"#utility.yul\":28080:28157   */\n      swap4\n      pop\n        /* \"#utility.yul\":28166:28231   */\n      tag_694\n        /* \"#utility.yul\":28224:28230   */\n      dup2\n        /* \"#utility.yul\":28219:28222   */\n      dup6\n        /* \"#utility.yul\":28212:28216   */\n      0x20\n        /* \"#utility.yul\":28205:28210   */\n      dup7\n        /* \"#utility.yul\":28201:28217   */\n      add\n        /* \"#utility.yul\":28166:28231   */\n      tag_332\n      jump\t// in\n    tag_694:\n        /* \"#utility.yul\":28256:28285   */\n      tag_695\n        /* \"#utility.yul\":28278:28284   */\n      dup2\n        /* \"#utility.yul\":28256:28285   */\n      tag_333\n      jump\t// in\n    tag_695:\n        /* \"#utility.yul\":28251:28254   */\n      dup5\n        /* \"#utility.yul\":28247:28286   */\n      add\n        /* \"#utility.yul\":28240:28286   */\n      swap2\n      pop\n        /* \"#utility.yul\":28009:28292   */\n      pop\n        /* \"#utility.yul\":27919:28292   */\n      swap3\n      swap2\n      pop\n      pop\n      jump\t// out\n        /* \"#utility.yul\":28298:28938   */\n    tag_278:\n        /* \"#utility.yul\":28493:28497   */\n      0x00\n        /* \"#utility.yul\":28531:28534   */\n      0x80\n        /* \"#utility.yul\":28520:28529   */\n      dup3\n        /* \"#utility.yul\":28516:28535   */\n      add\n        /* \"#utility.yul\":28508:28535   */\n      swap1\n      pop\n        /* \"#utility.yul\":28545:28616   */\n      tag_697\n        /* \"#utility.yul\":28613:28614   */\n      0x00\n        /* \"#utility.yul\":28602:28611   */\n      dup4\n        /* \"#utility.yul\":28598:28615   */\n      add\n        /* \"#utility.yul\":28589:28595   */\n      dup8\n        /* \"#utility.yul\":28545:28616   */\n      tag_340\n      jump\t// in\n    tag_697:\n        /* \"#utility.yul\":28626:28698   */\n      tag_698\n        /* \"#utility.yul\":28694:28696   */\n      0x20\n        /* \"#utility.yul\":28683:28692   */\n      dup4\n        /* \"#utility.yul\":28679:28697   */\n      add\n        /* \"#utility.yul\":28670:28676   */\n      dup7\n        /* \"#utility.yul\":28626:28698   */\n      tag_340\n      jump\t// in\n    tag_698:\n        /* \"#utility.yul\":28708:28780   */\n      tag_699\n        /* \"#utility.yul\":28776:28778   */\n      0x40\n        /* \"#utility.yul\":28765:28774   */\n      dup4\n        /* \"#utility.yul\":28761:28779   */\n      add\n        /* \"#utility.yul\":28752:28758   */\n      dup6\n        /* \"#utility.yul\":28708:28780   */\n      tag_360\n      jump\t// in\n    tag_699:\n        /* \"#utility.yul\":28827:28836   */\n      dup2\n        /* \"#utility.yul\":28821:28825   */\n      dup2\n        /* \"#utility.yul\":28817:28837   */\n      sub\n        /* \"#utility.yul\":28812:28814   */\n      0x60\n        /* \"#utility.yul\":28801:28810   */\n      dup4\n        /* \"#utility.yul\":28797:28815   */\n      add\n        /* \"#utility.yul\":28790:28838   */\n      mstore\n        /* \"#utility.yul\":28855:28931   */\n      tag_700\n        /* \"#utility.yul\":28926:28930   */\n      dup2\n        /* \"#utility.yul\":28917:28923   */\n      dup5\n        /* \"#utility.yul\":28855:28931   */\n      tag_396\n      jump\t// in\n    tag_700:\n        /* \"#utility.yul\":28847:28931   */\n      swap1\n      pop\n        /* \"#utility.yul\":28298:28938   */\n      swap6\n      swap5\n      pop\n      pop\n      pop\n      pop\n      pop\n      jump\t// out\n        /* \"#utility.yul\":28944:29085   */\n    tag_397:\n        /* \"#utility.yul\":29000:29005   */\n      0x00\n        /* \"#utility.yul\":29031:29037   */\n      dup2\n        /* \"#utility.yul\":29025:29038   */\n      mload\n        /* \"#utility.yul\":29016:29038   */\n      swap1\n      pop\n        /* \"#utility.yul\":29047:29079   */\n      tag_702\n        /* \"#utility.yul\":29073:29078   */\n      dup2\n        /* \"#utility.yul\":29047:29079   */\n      tag_326\n      jump\t// in\n    tag_702:\n        /* \"#utility.yul\":28944:29085   */\n      swap3\n      swap2\n      pop\n      pop\n      jump\t// out\n        /* \"#utility.yul\":29091:29440   */\n    tag_281:\n        /* \"#utility.yul\":29160:29166   */\n      0x00\n        /* \"#utility.yul\":29209:29211   */\n      0x20\n        /* \"#utility.yul\":29197:29206   */\n      dup3\n        /* \"#utility.yul\":29188:29195   */\n      dup5\n        /* \"#utility.yul\":29184:29207   */\n      sub\n        /* \"#utility.yul\":29180:29212   */\n      slt\n        /* \"#utility.yul\":29177:29296   */\n      iszero\n      tag_704\n      jumpi\n        /* \"#utility.yul\":29215:29294   */\n      tag_705\n      tag_323\n      jump\t// in\n    tag_705:\n        /* \"#utility.yul\":29177:29296   */\n    tag_704:\n        /* \"#utility.yul\":29335:29336   */\n      0x00\n        /* \"#utility.yul\":29360:29423   */\n      tag_706\n        /* \"#utility.yul\":29415:29422   */\n      dup5\n        /* \"#utility.yul\":29406:29412   */\n      dup3\n        /* \"#utility.yul\":29395:29404   */\n      dup6\n        /* \"#utility.yul\":29391:29413   */\n      add\n        /* \"#utility.yul\":29360:29423   */\n      tag_397\n      jump\t// in\n    tag_706:\n        /* \"#utility.yul\":29350:29423   */\n      swap2\n      pop\n        /* \"#utility.yul\":29306:29433   */\n      pop\n        /* \"#utility.yul\":29091:29440   */\n      swap3\n      swap2\n      pop\n      pop\n      jump\t// out\n        /* \"#utility.yul\":29446:29778   */\n    tag_313:\n        /* \"#utility.yul\":29567:29571   */\n      0x00\n        /* \"#utility.yul\":29605:29607   */\n      0x40\n        /* \"#utility.yul\":29594:29603   */\n      dup3\n        /* \"#utility.yul\":29590:29608   */\n      add\n        /* \"#utility.yul\":29582:29608   */\n      swap1\n      pop\n        /* \"#utility.yul\":29618:29689   */\n      tag_708\n        /* \"#utility.yul\":29686:29687   */\n      0x00\n        /* \"#utility.yul\":29675:29684   */\n      dup4\n        /* \"#utility.yul\":29671:29688   */\n      add\n        /* \"#utility.yul\":29662:29668   */\n      dup6\n        /* \"#utility.yul\":29618:29689   */\n      tag_340\n      jump\t// in\n    tag_708:\n        /* \"#utility.yul\":29699:29771   */\n      tag_709\n        /* \"#utility.yul\":29767:29769   */\n      0x20\n        /* \"#utility.yul\":29756:29765   */\n      dup4\n        /* \"#utility.yul\":29752:29770   */\n      add\n        /* \"#utility.yul\":29743:29749   */\n      dup5\n        /* \"#utility.yul\":29699:29771   */\n      tag_360\n      jump\t// in\n    tag_709:\n        /* \"#utility.yul\":29446:29778   */\n      swap4\n      swap3\n      pop\n      pop\n      pop\n      jump\t// out\n\n    auxdata: 0xa26469706673582212209bfe58888ae7c2de2f6b665a7f4a0db10fb255ae76ac15bb99cb931d580a0e7e64736f6c63430008140033\n}\n",
				"bytecode": {
					"linkReferences": {},
					"object": "60806040525f60075534801562000014575f80fd5b50604051620030333803806200303383398181016040528101906200003a9190620001ee565b8181815f90816200004c9190620004a8565b5080600190816200005e9190620004a8565b50505050506200058c565b5f604051905090565b5f80fd5b5f80fd5b5f80fd5b5f80fd5b5f601f19601f8301169050919050565b7f4e487b71000000000000000000000000000000000000000000000000000000005f52604160045260245ffd5b620000ca8262000082565b810181811067ffffffffffffffff82111715620000ec57620000eb62000092565b5b80604052505050565b5f6200010062000069565b90506200010e8282620000bf565b919050565b5f67ffffffffffffffff82111562000130576200012f62000092565b5b6200013b8262000082565b9050602081019050919050565b5f5b83811015620001675780820151818401526020810190506200014a565b5f8484015250505050565b5f62000188620001828462000113565b620000f5565b905082815260208101848484011115620001a757620001a66200007e565b5b620001b484828562000148565b509392505050565b5f82601f830112620001d357620001d26200007a565b5b8151620001e584826020860162000172565b91505092915050565b5f806040838503121562000207576200020662000072565b5b5f83015167ffffffffffffffff81111562000227576200022662000076565b5b6200023585828601620001bc565b925050602083015167ffffffffffffffff81111562000259576200025862000076565b5b6200026785828601620001bc565b9150509250929050565b5f81519050919050565b7f4e487b71000000000000000000000000000000000000000000000000000000005f52602260045260245ffd5b5f6002820490506001821680620002c057607f821691505b602082108103620002d657620002d56200027b565b5b50919050565b5f819050815f5260205f209050919050565b5f6020601f8301049050919050565b5f82821b905092915050565b5f600883026200033a7fffffffffffffffffffffffffffffffffffffffffffffffffffffffffffffffff82620002fd565b620003468683620002fd565b95508019841693508086168417925050509392505050565b5f819050919050565b5f819050919050565b5f620003906200038a62000384846200035e565b62000367565b6200035e565b9050919050565b5f819050919050565b620003ab8362000370565b620003c3620003ba8262000397565b84845462000309565b825550505050565b5f90565b620003d9620003cb565b620003e6818484620003a0565b505050565b5b818110156200040d57620004015f82620003cf565b600181019050620003ec565b5050565b601f8211156200045c576200042681620002dc565b6200043184620002ee565b8101602085101562000441578190505b620004596200045085620002ee565b830182620003eb565b50505b505050565b5f82821c905092915050565b5f6200047e5f198460080262000461565b1980831691505092915050565b5f6200049883836200046d565b9150826002028217905092915050565b620004b38262000271565b67ffffffffffffffff811115620004cf57620004ce62000092565b5b620004db8254620002a8565b620004e882828562000411565b5f60209050601f8311600181146200051e575f841562000509578287015190505b6200051585826200048b565b86555062000584565b601f1984166200052e86620002dc565b5f5b82811015620005575784890151825560018201915060208501945060208101905062000530565b8683101562000577578489015162000573601f8916826200046d565b8355505b6001600288020188555050505b505050505050565b612a99806200059a5f395ff3fe608060405234801561000f575f80fd5b506004361061011f575f3560e01c80636352211e116100ab578063a22cb4651161006f578063a22cb46514610363578063b88d4fde1461037f578063c87b56dd1461039b578063d15a76d2146103cb578063e985e9c5146103fb5761011f565b80636352211e1461028557806370a08231146102b5578063838e4537146102e55780638a55a50e1461031557806395d89b41146103455761011f565b80630a48a1ac116100f25780630a48a1ac146101bd57806323b872dd146101ed5780633bb3a24d1461020957806342842e0e146102395780635f0cac76146102555761011f565b806301ffc9a71461012357806306fdde0314610153578063081812fc14610171578063095ea7b3146101a1575b5f80fd5b61013d60048036038101906101389190611bb8565b61042b565b60405161014a9190611bfd565b60405180910390f35b61015b61050c565b6040516101689190611ca0565b60405180910390f35b61018b60048036038101906101869190611cf3565b61059b565b6040516101989190611d5d565b60405180910390f35b6101bb60048036038101906101b69190611da0565b6105b6565b005b6101d760048036038101906101d29190611dde565b6105cc565b6040516101e49190611f8f565b60405180910390f35b61020760048036038101906102029190611faf565b6107f7565b005b610223600480360381019061021e9190611cf3565b6108f6565b6040516102309190611ca0565b60405180910390f35b610253600480360381019061024e9190611faf565b610999565b005b61026f600480360381019061026a9190611dde565b6109b8565b60405161027c91906120ba565b60405180910390f35b61029f600480360381019061029a9190611cf3565b610b94565b6040516102ac9190611d5d565b60405180910390f35b6102cf60048036038101906102ca9190611dde565b610ba5565b6040516102dc91906120e9565b60405180910390f35b6102ff60048036038101906102fa919061222e565b610c5b565b60405161030c91906120e9565b60405180910390f35b61032f600480360381019061032a9190612275565b610ca4565b60405161033c9190611ca0565b60405180910390f35b61034d610e34565b60405161035a9190611ca0565b60405180910390f35b61037d60048036038101906103789190612315565b610ec4565b005b610399600480360381019061039491906123f1565b610eda565b005b6103b560048036038101906103b09190611cf3565b610ef7565b6040516103c29190611ca0565b60405180910390f35b6103e560048036038101906103e09190611cf3565b610f9a565b6040516103f291906120e9565b60405180910390f35b61041560048036038101906104109190612471565b610fb7565b6040516104229190611bfd565b60405180910390f35b5f7f80ac58cd000000000000000000000000000000000000000000000000000000007bffffffffffffffffffffffffffffffffffffffffffffffffffffffff1916827bffffffffffffffffffffffffffffffffffffffffffffffffffffffff191614806104f557507f5b5e139f000000000000000000000000000000000000000000000000000000007bffffffffffffffffffffffffffffffffffffffffffffffffffffffff1916827bffffffffffffffffffffffffffffffffffffffffffffffffffffffff1916145b80610505575061050482611045565b5b9050919050565b60605f805461051a906124dc565b80601f0160208091040260200160405190810160405280929190818152602001828054610546906124dc565b80156105915780601f1061056857610100808354040283529160200191610591565b820191905f5260205f20905b81548152906001019060200180831161057457829003601f168201915b5050505050905090565b5f6105a5826110ae565b506105af82611134565b9050919050565b6105c882826105c361116d565b611174565b5050565b60605f60085f8473ffffffffffffffffffffffffffffffffffffffff1673ffffffffffffffffffffffffffffffffffffffff1681526020019081526020015f2080548060200260200160405190810160405280929190818152602001828054801561065457602002820191905f5260205f20905b815481526020019060010190808311610640575b505050505090505f815167ffffffffffffffff8111156106775761067661210a565b5b6040519080825280602002602001820160405280156106b057816020015b61069d611b1a565b8152602001906001900390816106955790505b5090505f5b82518110156107ec5760405180604001604052808483815181106106dc576106db61250c565b5b6020026020010151815260200160065f8685815181106106ff576106fe61250c565b5b602002602001015181526020019081526020015f206040518060400160405290815f8201805461072e906124dc565b80601f016020809104026020016040519081016040528092919081815260200182805461075a906124dc565b80156107a55780601f1061077c576101008083540402835291602001916107a5565b820191905f5260205f20905b81548152906001019060200180831161078857829003601f168201915b505050505081526020016001820154815250508152508282815181106107ce576107cd61250c565b5b602002602001018190525080806107e490612566565b9150506106b5565b508092505050919050565b5f73ffffffffffffffffffffffffffffffffffffffff168273ffffffffffffffffffffffffffffffffffffffff1603610867575f6040517f64a0ae9200000000000000000000000000000000000000000000000000000000815260040161085e9190611d5d565b60405180910390fd5b5f61087a838361087561116d565b611186565b90508373ffffffffffffffffffffffffffffffffffffffff168173ffffffffffffffffffffffffffffffffffffffff16146108f0578382826040517f64283d7b0000000000000000000000000000000000000000000000000000000081526004016108e7939291906125ad565b60405180910390fd5b50505050565b606060065f8381526020019081526020015f205f018054610916906124dc565b80601f0160208091040260200160405190810160405280929190818152602001828054610942906124dc565b801561098d5780601f106109645761010080835404028352916020019161098d565b820191905f5260205f20905b81548152906001019060200180831161097057829003601f168201915b50505050509050919050565b6109b383838360405180602001604052805f815250610eda565b505050565b60605f60085f8473ffffffffffffffffffffffffffffffffffffffff1673ffffffffffffffffffffffffffffffffffffffff1681526020019081526020015f20805480602002602001604051908101604052809291908181526020018280548015610a4057602002820191905f5260205f20905b815481526020019060010190808311610a2c575b505050505090505f815167ffffffffffffffff811115610a6357610a6261210a565b5b604051908082528060200260200182016040528015610a9657816020015b6060815260200190600190039081610a815790505b5090505f5b8251811015610b895760065f848381518110610aba57610ab961250c565b5b602002602001015181526020019081526020015f205f018054610adc906124dc565b80601f0160208091040260200160405190810160405280929190818152602001828054610b08906124dc565b8015610b535780601f10610b2a57610100808354040283529160200191610b53565b820191905f5260205f20905b815481529060010190602001808311610b3657829003601f168201915b5050505050828281518110610b6b57610b6a61250c565b5b60200260200101819052508080610b8190612566565b915050610a9b565b508092505050919050565b5f610b9e826110ae565b9050919050565b5f8073ffffffffffffffffffffffffffffffffffffffff168273ffffffffffffffffffffffffffffffffffffffff1603610c16575f6040517f89c62b64000000000000000000000000000000000000000000000000000000008152600401610c0d9190611d5d565b60405180910390fd5b60035f8373ffffffffffffffffffffffffffffffffffffffff1673ffffffffffffffffffffffffffffffffffffffff1681526020019081526020015f20549050919050565b5f6001600a83604051602001610c71919061261c565b604051602081830303815290604052805190602001205f1c610c93919061265f565b610c9d919061268f565b9050919050565b60605f610cb083610c5b565b905060405180604001604052808581526020018281525060065f60075481526020019081526020015f205f820151815f019081610ced919061285f565b5060208201518160010155905050610d0733600754611391565b60085f3373ffffffffffffffffffffffffffffffffffffffff1673ffffffffffffffffffffffffffffffffffffffff1681526020019081526020015f20600754908060018154018082558091505060019003905f5260205f20015f9091909190915055600160075f828254610d7c919061268f565b9250508190555060065f6001600754610d95919061292e565b81526020019081526020015f205f018054610daf906124dc565b80601f0160208091040260200160405190810160405280929190818152602001828054610ddb906124dc565b8015610e265780601f10610dfd57610100808354040283529160200191610e26565b820191905f5260205f20905b815481529060010190602001808311610e0957829003601f168201915b505050505091505092915050565b606060018054610e43906124dc565b80601f0160208091040260200160405190810160405280929190818152602001828054610e6f906124dc565b8015610eba5780601f10610e9157610100808354040283529160200191610eba565b820191905f5260205f20905b815481529060010190602001808311610e9d57829003601f168201915b5050505050905090565b610ed6610ecf61116d565b8383611484565b5050565b610ee58484846107f7565b610ef1848484846115ed565b50505050565b606060065f8381526020019081526020015f205f018054610f17906124dc565b80601f0160208091040260200160405190810160405280929190818152602001828054610f43906124dc565b8015610f8e5780601f10610f6557610100808354040283529160200191610f8e565b820191905f5260205f20905b815481529060010190602001808311610f7157829003601f168201915b50505050509050919050565b5f60065f8381526020019081526020015f20600101549050919050565b5f60055f8473ffffffffffffffffffffffffffffffffffffffff1673ffffffffffffffffffffffffffffffffffffffff1681526020019081526020015f205f8373ffffffffffffffffffffffffffffffffffffffff1673ffffffffffffffffffffffffffffffffffffffff1681526020019081526020015f205f9054906101000a900460ff16905092915050565b5f7f01ffc9a7000000000000000000000000000000000000000000000000000000007bffffffffffffffffffffffffffffffffffffffffffffffffffffffff1916827bffffffffffffffffffffffffffffffffffffffffffffffffffffffff1916149050919050565b5f806110b98361179f565b90505f73ffffffffffffffffffffffffffffffffffffffff168173ffffffffffffffffffffffffffffffffffffffff160361112b57826040517f7e27328900000000000000000000000000000000000000000000000000000000815260040161112291906120e9565b60405180910390fd5b80915050919050565b5f60045f8381526020019081526020015f205f9054906101000a900473ffffffffffffffffffffffffffffffffffffffff169050919050565b5f33905090565b61118183838360016117d8565b505050565b5f806111918461179f565b90505f73ffffffffffffffffffffffffffffffffffffffff168373ffffffffffffffffffffffffffffffffffffffff16146111d2576111d1818486611997565b5b5f73ffffffffffffffffffffffffffffffffffffffff168173ffffffffffffffffffffffffffffffffffffffff161461125d576112115f855f806117d8565b600160035f8373ffffffffffffffffffffffffffffffffffffffff1673ffffffffffffffffffffffffffffffffffffffff1681526020019081526020015f205f82825403925050819055505b5f73ffffffffffffffffffffffffffffffffffffffff168573ffffffffffffffffffffffffffffffffffffffff16146112dc57600160035f8773ffffffffffffffffffffffffffffffffffffffff1673ffffffffffffffffffffffffffffffffffffffff1681526020019081526020015f205f82825401925050819055505b8460025f8681526020019081526020015f205f6101000a81548173ffffffffffffffffffffffffffffffffffffffff021916908373ffffffffffffffffffffffffffffffffffffffff160217905550838573ffffffffffffffffffffffffffffffffffffffff168273ffffffffffffffffffffffffffffffffffffffff167fddf252ad1be2c89b69c2b068fc378daa952ba7f163c4a11628f55a4df523b3ef60405160405180910390a4809150509392505050565b5f73ffffffffffffffffffffffffffffffffffffffff168273ffffffffffffffffffffffffffffffffffffffff1603611401575f6040517f64a0ae920000000000000000000000000000000000000000000000000000000081526004016113f89190611d5d565b60405180910390fd5b5f61140d83835f611186565b90505f73ffffffffffffffffffffffffffffffffffffffff168173ffffffffffffffffffffffffffffffffffffffff161461147f575f6040517f73c6ac6e0000000000000000000000000000000000000000000000000000000081526004016114769190611d5d565b60405180910390fd5b505050565b5f73ffffffffffffffffffffffffffffffffffffffff168273ffffffffffffffffffffffffffffffffffffffff16036114f457816040517f5b08ba180000000000000000000000000000000000000000000000000000000081526004016114eb9190611d5d565b60405180910390fd5b8060055f8573ffffffffffffffffffffffffffffffffffffffff1673ffffffffffffffffffffffffffffffffffffffff1681526020019081526020015f205f8473ffffffffffffffffffffffffffffffffffffffff1673ffffffffffffffffffffffffffffffffffffffff1681526020019081526020015f205f6101000a81548160ff0219169083151502179055508173ffffffffffffffffffffffffffffffffffffffff168373ffffffffffffffffffffffffffffffffffffffff167f17307eab39ab6107e8899845ad3d59bd9653f200f220920489ca2b5937696c31836040516115e09190611bfd565b60405180910390a3505050565b5f8373ffffffffffffffffffffffffffffffffffffffff163b1115611799578273ffffffffffffffffffffffffffffffffffffffff1663150b7a0261163061116d565b8685856040518563ffffffff1660e01b815260040161165294939291906129b3565b6020604051808303815f875af192505050801561168d57506040513d601f19601f8201168201806040525081019061168a9190612a11565b60015b61170e573d805f81146116bb576040519150601f19603f3d011682016040523d82523d5f602084013e6116c0565b606091505b505f81510361170657836040517f64a0ae920000000000000000000000000000000000000000000000000000000081526004016116fd9190611d5d565b60405180910390fd5b805181602001fd5b63150b7a0260e01b7bffffffffffffffffffffffffffffffffffffffffffffffffffffffff1916817bffffffffffffffffffffffffffffffffffffffffffffffffffffffff19161461179757836040517f64a0ae9200000000000000000000000000000000000000000000000000000000815260040161178e9190611d5d565b60405180910390fd5b505b50505050565b5f60025f8381526020019081526020015f205f9054906101000a900473ffffffffffffffffffffffffffffffffffffffff169050919050565b808061181057505f73ffffffffffffffffffffffffffffffffffffffff168273ffffffffffffffffffffffffffffffffffffffff1614155b15611942575f61181f846110ae565b90505f73ffffffffffffffffffffffffffffffffffffffff168373ffffffffffffffffffffffffffffffffffffffff161415801561188957508273ffffffffffffffffffffffffffffffffffffffff168173ffffffffffffffffffffffffffffffffffffffff1614155b801561189c575061189a8184610fb7565b155b156118de57826040517fa9fbf51f0000000000000000000000000000000000000000000000000000000081526004016118d59190611d5d565b60405180910390fd5b811561194057838573ffffffffffffffffffffffffffffffffffffffff168273ffffffffffffffffffffffffffffffffffffffff167f8c5be1e5ebec7d5bd14f71427d1e84f3dd0314c0f7b2291e5b200ac8c7c3b92560405160405180910390a45b505b8360045f8581526020019081526020015f205f6101000a81548173ffffffffffffffffffffffffffffffffffffffff021916908373ffffffffffffffffffffffffffffffffffffffff16021790555050505050565b6119a2838383611a5a565b611a55575f73ffffffffffffffffffffffffffffffffffffffff168373ffffffffffffffffffffffffffffffffffffffff1603611a1657806040517f7e273289000000000000000000000000000000000000000000000000000000008152600401611a0d91906120e9565b60405180910390fd5b81816040517f177e802f000000000000000000000000000000000000000000000000000000008152600401611a4c929190612a3c565b60405180910390fd5b505050565b5f8073ffffffffffffffffffffffffffffffffffffffff168373ffffffffffffffffffffffffffffffffffffffff1614158015611b1157508273ffffffffffffffffffffffffffffffffffffffff168473ffffffffffffffffffffffffffffffffffffffff161480611ad25750611ad18484610fb7565b5b80611b1057508273ffffffffffffffffffffffffffffffffffffffff16611af883611134565b73ffffffffffffffffffffffffffffffffffffffff16145b5b90509392505050565b60405180604001604052805f8152602001611b33611b39565b81525090565b6040518060400160405280606081526020015f81525090565b5f604051905090565b5f80fd5b5f80fd5b5f7fffffffff0000000000000000000000000000000000000000000000000000000082169050919050565b611b9781611b63565b8114611ba1575f80fd5b50565b5f81359050611bb281611b8e565b92915050565b5f60208284031215611bcd57611bcc611b5b565b5b5f611bda84828501611ba4565b91505092915050565b5f8115159050919050565b611bf781611be3565b82525050565b5f602082019050611c105f830184611bee565b92915050565b5f81519050919050565b5f82825260208201905092915050565b5f5b83811015611c4d578082015181840152602081019050611c32565b5f8484015250505050565b5f601f19601f8301169050919050565b5f611c7282611c16565b611c7c8185611c20565b9350611c8c818560208601611c30565b611c9581611c58565b840191505092915050565b5f6020820190508181035f830152611cb88184611c68565b905092915050565b5f819050919050565b611cd281611cc0565b8114611cdc575f80fd5b50565b5f81359050611ced81611cc9565b92915050565b5f60208284031215611d0857611d07611b5b565b5b5f611d1584828501611cdf565b91505092915050565b5f73ffffffffffffffffffffffffffffffffffffffff82169050919050565b5f611d4782611d1e565b9050919050565b611d5781611d3d565b82525050565b5f602082019050611d705f830184611d4e565b92915050565b611d7f81611d3d565b8114611d89575f80fd5b50565b5f81359050611d9a81611d76565b92915050565b5f8060408385031215611db657611db5611b5b565b5b5f611dc385828601611d8c565b9250506020611dd485828601611cdf565b9150509250929050565b5f60208284031215611df357611df2611b5b565b5b5f611e0084828501611d8c565b91505092915050565b5f81519050919050565b5f82825260208201905092915050565b5f819050602082019050919050565b611e3b81611cc0565b82525050565b5f82825260208201905092915050565b5f611e5b82611c16565b611e658185611e41565b9350611e75818560208601611c30565b611e7e81611c58565b840191505092915050565b5f604083015f8301518482035f860152611ea38282611e51565b9150506020830151611eb86020860182611e32565b508091505092915050565b5f604083015f830151611ed85f860182611e32565b5060208301518482036020860152611ef08282611e89565b9150508091505092915050565b5f611f088383611ec3565b905092915050565b5f602082019050919050565b5f611f2682611e09565b611f308185611e13565b935083602082028501611f4285611e23565b805f5b85811015611f7d5784840389528151611f5e8582611efd565b9450611f6983611f10565b925060208a01995050600181019050611f45565b50829750879550505050505092915050565b5f6020820190508181035f830152611fa78184611f1c565b905092915050565b5f805f60608486031215611fc657611fc5611b5b565b5b5f611fd386828701611d8c565b9350506020611fe486828701611d8c565b9250506040611ff586828701611cdf565b9150509250925092565b5f81519050919050565b5f82825260208201905092915050565b5f819050602082019050919050565b5f6120338383611e51565b905092915050565b5f602082019050919050565b5f61205182611fff565b61205b8185612009565b93508360208202850161206d85612019565b805f5b858110156120a857848403895281516120898582612028565b94506120948361203b565b925060208a01995050600181019050612070565b50829750879550505050505092915050565b5f6020820190508181035f8301526120d28184612047565b905092915050565b6120e381611cc0565b82525050565b5f6020820190506120fc5f8301846120da565b92915050565b5f80fd5b5f80fd5b7f4e487b71000000000000000000000000000000000000000000000000000000005f52604160045260245ffd5b61214082611c58565b810181811067ffffffffffffffff8211171561215f5761215e61210a565b5b80604052505050565b5f612171611b52565b905061217d8282612137565b919050565b5f67ffffffffffffffff82111561219c5761219b61210a565b5b6121a582611c58565b9050602081019050919050565b828183375f83830152505050565b5f6121d26121cd84612182565b612168565b9050828152602081018484840111156121ee576121ed612106565b5b6121f98482856121b2565b509392505050565b5f82601f83011261221557612214612102565b5b81356122258482602086016121c0565b91505092915050565b5f6020828403121561224357612242611b5b565b5b5f82013567ffffffffffffffff8111156122605761225f611b5f565b5b61226c84828501612201565b91505092915050565b5f806040838503121561228b5761228a611b5b565b5b5f83013567ffffffffffffffff8111156122a8576122a7611b5f565b5b6122b485828601612201565b925050602083013567ffffffffffffffff8111156122d5576122d4611b5f565b5b6122e185828601612201565b9150509250929050565b6122f481611be3565b81146122fe575f80fd5b50565b5f8135905061230f816122eb565b92915050565b5f806040838503121561232b5761232a611b5b565b5b5f61233885828601611d8c565b925050602061234985828601612301565b9150509250929050565b5f67ffffffffffffffff82111561236d5761236c61210a565b5b61237682611c58565b9050602081019050919050565b5f61239561239084612353565b612168565b9050828152602081018484840111156123b1576123b0612106565b5b6123bc8482856121b2565b509392505050565b5f82601f8301126123d8576123d7612102565b5b81356123e8848260208601612383565b91505092915050565b5f805f806080858703121561240957612408611b5b565b5b5f61241687828801611d8c565b945050602061242787828801611d8c565b935050604061243887828801611cdf565b925050606085013567ffffffffffffffff81111561245957612458611b5f565b5b612465878288016123c4565b91505092959194509250565b5f806040838503121561248757612486611b5b565b5b5f61249485828601611d8c565b92505060206124a585828601611d8c565b9150509250929050565b7f4e487b71000000000000000000000000000000000000000000000000000000005f52602260045260245ffd5b5f60028204905060018216806124f357607f821691505b602082108103612506576125056124af565b5b50919050565b7f4e487b71000000000000000000000000000000000000000000000000000000005f52603260045260245ffd5b7f4e487b71000000000000000000000000000000000000000000000000000000005f52601160045260245ffd5b5f61257082611cc0565b91507fffffffffffffffffffffffffffffffffffffffffffffffffffffffffffffffff82036125a2576125a1612539565b5b600182019050919050565b5f6060820190506125c05f830186611d4e565b6125cd60208301856120da565b6125da6040830184611d4e565b949350505050565b5f81905092915050565b5f6125f682611c16565b61260081856125e2565b9350612610818560208601611c30565b80840191505092915050565b5f61262782846125ec565b915081905092915050565b7f4e487b71000000000000000000000000000000000000000000000000000000005f52601260045260245ffd5b5f61266982611cc0565b915061267483611cc0565b92508261268457612683612632565b5b828206905092915050565b5f61269982611cc0565b91506126a483611cc0565b92508282019050808211156126bc576126bb612539565b5b92915050565b5f819050815f5260205f209050919050565b5f6020601f8301049050919050565b5f82821b905092915050565b5f6008830261271e7fffffffffffffffffffffffffffffffffffffffffffffffffffffffffffffffff826126e3565b61272886836126e3565b95508019841693508086168417925050509392505050565b5f819050919050565b5f61276361275e61275984611cc0565b612740565b611cc0565b9050919050565b5f819050919050565b61277c83612749565b6127906127888261276a565b8484546126ef565b825550505050565b5f90565b6127a4612798565b6127af818484612773565b505050565b5b818110156127d2576127c75f8261279c565b6001810190506127b5565b5050565b601f821115612817576127e8816126c2565b6127f1846126d4565b81016020851015612800578190505b61281461280c856126d4565b8301826127b4565b50505b505050565b5f82821c905092915050565b5f6128375f198460080261281c565b1980831691505092915050565b5f61284f8383612828565b9150826002028217905092915050565b61286882611c16565b67ffffffffffffffff8111156128815761288061210a565b5b61288b82546124dc565b6128968282856127d6565b5f60209050601f8311600181146128c7575f84156128b5578287015190505b6128bf8582612844565b865550612926565b601f1984166128d5866126c2565b5f5b828110156128fc578489015182556001820191506020850194506020810190506128d7565b868310156129195784890151612915601f891682612828565b8355505b6001600288020188555050505b505050505050565b5f61293882611cc0565b915061294383611cc0565b925082820390508181111561295b5761295a612539565b5b92915050565b5f81519050919050565b5f82825260208201905092915050565b5f61298582612961565b61298f818561296b565b935061299f818560208601611c30565b6129a881611c58565b840191505092915050565b5f6080820190506129c65f830187611d4e565b6129d36020830186611d4e565b6129e060408301856120da565b81810360608301526129f2818461297b565b905095945050505050565b5f81519050612a0b81611b8e565b92915050565b5f60208284031215612a2657612a25611b5b565b5b5f612a33848285016129fd565b91505092915050565b5f604082019050612a4f5f830185611d4e565b612a5c60208301846120da565b939250505056fea26469706673582212209bfe58888ae7c2de2f6b665a7f4a0db10fb255ae76ac15bb99cb931d580a0e7e64736f6c63430008140033",
					"opcodes": "PUSH1 0x80 PUSH1 0x40 MSTORE PUSH0 PUSH1 0x7 SSTORE CALLVALUE DUP1 ISZERO PUSH3 0x14 JUMPI PUSH0 DUP1 REVERT JUMPDEST POP PUSH1 0x40 MLOAD PUSH3 0x3033 CODESIZE SUB DUP1 PUSH3 0x3033 DUP4 CODECOPY DUP2 DUP2 ADD PUSH1 0x40 MSTORE DUP2 ADD SWAP1 PUSH3 0x3A SWAP2 SWAP1 PUSH3 0x1EE JUMP JUMPDEST DUP2 DUP2 DUP2 PUSH0 SWAP1 DUP2 PUSH3 0x4C SWAP2 SWAP1 PUSH3 0x4A8 JUMP JUMPDEST POP DUP1 PUSH1 0x1 SWAP1 DUP2 PUSH3 0x5E SWAP2 SWAP1 PUSH3 0x4A8 JUMP JUMPDEST POP POP POP POP POP PUSH3 0x58C JUMP JUMPDEST PUSH0 PUSH1 0x40 MLOAD SWAP1 POP SWAP1 JUMP JUMPDEST PUSH0 DUP1 REVERT JUMPDEST PUSH0 DUP1 REVERT JUMPDEST PUSH0 DUP1 REVERT JUMPDEST PUSH0 DUP1 REVERT JUMPDEST PUSH0 PUSH1 0x1F NOT PUSH1 0x1F DUP4 ADD AND SWAP1 POP SWAP2 SWAP1 POP JUMP JUMPDEST PUSH32 0x4E487B7100000000000000000000000000000000000000000000000000000000 PUSH0 MSTORE PUSH1 0x41 PUSH1 0x4 MSTORE PUSH1 0x24 PUSH0 REVERT JUMPDEST PUSH3 0xCA DUP3 PUSH3 0x82 JUMP JUMPDEST DUP2 ADD DUP2 DUP2 LT PUSH8 0xFFFFFFFFFFFFFFFF DUP3 GT OR ISZERO PUSH3 0xEC JUMPI PUSH3 0xEB PUSH3 0x92 JUMP JUMPDEST JUMPDEST DUP1 PUSH1 0x40 MSTORE POP POP POP JUMP JUMPDEST PUSH0 PUSH3 0x100 PUSH3 0x69 JUMP JUMPDEST SWAP1 POP PUSH3 0x10E DUP3 DUP3 PUSH3 0xBF JUMP JUMPDEST SWAP2 SWAP1 POP JUMP JUMPDEST PUSH0 PUSH8 0xFFFFFFFFFFFFFFFF DUP3 GT ISZERO PUSH3 0x130 JUMPI PUSH3 0x12F PUSH3 0x92 JUMP JUMPDEST JUMPDEST PUSH3 0x13B DUP3 PUSH3 0x82 JUMP JUMPDEST SWAP1 POP PUSH1 0x20 DUP2 ADD SWAP1 POP SWAP2 SWAP1 POP JUMP JUMPDEST PUSH0 JUMPDEST DUP4 DUP2 LT ISZERO PUSH3 0x167 JUMPI DUP1 DUP3 ADD MLOAD DUP2 DUP5 ADD MSTORE PUSH1 0x20 DUP2 ADD SWAP1 POP PUSH3 0x14A JUMP JUMPDEST PUSH0 DUP5 DUP5 ADD MSTORE POP POP POP POP JUMP JUMPDEST PUSH0 PUSH3 0x188 PUSH3 0x182 DUP5 PUSH3 0x113 JUMP JUMPDEST PUSH3 0xF5 JUMP JUMPDEST SWAP1 POP DUP3 DUP2 MSTORE PUSH1 0x20 DUP2 ADD DUP5 DUP5 DUP5 ADD GT ISZERO PUSH3 0x1A7 JUMPI PUSH3 0x1A6 PUSH3 0x7E JUMP JUMPDEST JUMPDEST PUSH3 0x1B4 DUP5 DUP3 DUP6 PUSH3 0x148 JUMP JUMPDEST POP SWAP4 SWAP3 POP POP POP JUMP JUMPDEST PUSH0 DUP3 PUSH1 0x1F DUP4 ADD SLT PUSH3 0x1D3 JUMPI PUSH3 0x1D2 PUSH3 0x7A JUMP JUMPDEST JUMPDEST DUP2 MLOAD PUSH3 0x1E5 DUP5 DUP3 PUSH1 0x20 DUP7 ADD PUSH3 0x172 JUMP JUMPDEST SWAP2 POP POP SWAP3 SWAP2 POP POP JUMP JUMPDEST PUSH0 DUP1 PUSH1 0x40 DUP4 DUP6 SUB SLT ISZERO PUSH3 0x207 JUMPI PUSH3 0x206 PUSH3 0x72 JUMP JUMPDEST JUMPDEST PUSH0 DUP4 ADD MLOAD PUSH8 0xFFFFFFFFFFFFFFFF DUP2 GT ISZERO PUSH3 0x227 JUMPI PUSH3 0x226 PUSH3 0x76 JUMP JUMPDEST JUMPDEST PUSH3 0x235 DUP6 DUP3 DUP7 ADD PUSH3 0x1BC JUMP JUMPDEST SWAP3 POP POP PUSH1 0x20 DUP4 ADD MLOAD PUSH8 0xFFFFFFFFFFFFFFFF DUP2 GT ISZERO PUSH3 0x259 JUMPI PUSH3 0x258 PUSH3 0x76 JUMP JUMPDEST JUMPDEST PUSH3 0x267 DUP6 DUP3 DUP7 ADD PUSH3 0x1BC JUMP JUMPDEST SWAP2 POP POP SWAP3 POP SWAP3 SWAP1 POP JUMP JUMPDEST PUSH0 DUP2 MLOAD SWAP1 POP SWAP2 SWAP1 POP JUMP JUMPDEST PUSH32 0x4E487B7100000000000000000000000000000000000000000000000000000000 PUSH0 MSTORE PUSH1 0x22 PUSH1 0x4 MSTORE PUSH1 0x24 PUSH0 REVERT JUMPDEST PUSH0 PUSH1 0x2 DUP3 DIV SWAP1 POP PUSH1 0x1 DUP3 AND DUP1 PUSH3 0x2C0 JUMPI PUSH1 0x7F DUP3 AND SWAP2 POP JUMPDEST PUSH1 0x20 DUP3 LT DUP2 SUB PUSH3 0x2D6 JUMPI PUSH3 0x2D5 PUSH3 0x27B JUMP JUMPDEST JUMPDEST POP SWAP2 SWAP1 POP JUMP JUMPDEST PUSH0 DUP2 SWAP1 POP DUP2 PUSH0 MSTORE PUSH1 0x20 PUSH0 KECCAK256 SWAP1 POP SWAP2 SWAP1 POP JUMP JUMPDEST PUSH0 PUSH1 0x20 PUSH1 0x1F DUP4 ADD DIV SWAP1 POP SWAP2 SWAP1 POP JUMP JUMPDEST PUSH0 DUP3 DUP3 SHL SWAP1 POP SWAP3 SWAP2 POP POP JUMP JUMPDEST PUSH0 PUSH1 0x8 DUP4 MUL PUSH3 0x33A PUSH32 0xFFFFFFFFFFFFFFFFFFFFFFFFFFFFFFFFFFFFFFFFFFFFFFFFFFFFFFFFFFFFFFFF DUP3 PUSH3 0x2FD JUMP JUMPDEST PUSH3 0x346 DUP7 DUP4 PUSH3 0x2FD JUMP JUMPDEST SWAP6 POP DUP1 NOT DUP5 AND SWAP4 POP DUP1 DUP7 AND DUP5 OR SWAP3 POP POP POP SWAP4 SWAP3 POP POP POP JUMP JUMPDEST PUSH0 DUP2 SWAP1 POP SWAP2 SWAP1 POP JUMP JUMPDEST PUSH0 DUP2 SWAP1 POP SWAP2 SWAP1 POP JUMP JUMPDEST PUSH0 PUSH3 0x390 PUSH3 0x38A PUSH3 0x384 DUP5 PUSH3 0x35E JUMP JUMPDEST PUSH3 0x367 JUMP JUMPDEST PUSH3 0x35E JUMP JUMPDEST SWAP1 POP SWAP2 SWAP1 POP JUMP JUMPDEST PUSH0 DUP2 SWAP1 POP SWAP2 SWAP1 POP JUMP JUMPDEST PUSH3 0x3AB DUP4 PUSH3 0x370 JUMP JUMPDEST PUSH3 0x3C3 PUSH3 0x3BA DUP3 PUSH3 0x397 JUMP JUMPDEST DUP5 DUP5 SLOAD PUSH3 0x309 JUMP JUMPDEST DUP3 SSTORE POP POP POP POP JUMP JUMPDEST PUSH0 SWAP1 JUMP JUMPDEST PUSH3 0x3D9 PUSH3 0x3CB JUMP JUMPDEST PUSH3 0x3E6 DUP2 DUP5 DUP5 PUSH3 0x3A0 JUMP JUMPDEST POP POP POP JUMP JUMPDEST JUMPDEST DUP2 DUP2 LT ISZERO PUSH3 0x40D JUMPI PUSH3 0x401 PUSH0 DUP3 PUSH3 0x3CF JUMP JUMPDEST PUSH1 0x1 DUP2 ADD SWAP1 POP PUSH3 0x3EC JUMP JUMPDEST POP POP JUMP JUMPDEST PUSH1 0x1F DUP3 GT ISZERO PUSH3 0x45C JUMPI PUSH3 0x426 DUP2 PUSH3 0x2DC JUMP JUMPDEST PUSH3 0x431 DUP5 PUSH3 0x2EE JUMP JUMPDEST DUP2 ADD PUSH1 0x20 DUP6 LT ISZERO PUSH3 0x441 JUMPI DUP2 SWAP1 POP JUMPDEST PUSH3 0x459 PUSH3 0x450 DUP6 PUSH3 0x2EE JUMP JUMPDEST DUP4 ADD DUP3 PUSH3 0x3EB JUMP JUMPDEST POP POP JUMPDEST POP POP POP JUMP JUMPDEST PUSH0 DUP3 DUP3 SHR SWAP1 POP SWAP3 SWAP2 POP POP JUMP JUMPDEST PUSH0 PUSH3 0x47E PUSH0 NOT DUP5 PUSH1 0x8 MUL PUSH3 0x461 JUMP JUMPDEST NOT DUP1 DUP4 AND SWAP2 POP POP SWAP3 SWAP2 POP POP JUMP JUMPDEST PUSH0 PUSH3 0x498 DUP4 DUP4 PUSH3 0x46D JUMP JUMPDEST SWAP2 POP DUP3 PUSH1 0x2 MUL DUP3 OR SWAP1 POP SWAP3 SWAP2 POP POP JUMP JUMPDEST PUSH3 0x4B3 DUP3 PUSH3 0x271 JUMP JUMPDEST PUSH8 0xFFFFFFFFFFFFFFFF DUP2 GT ISZERO PUSH3 0x4CF JUMPI PUSH3 0x4CE PUSH3 0x92 JUMP JUMPDEST JUMPDEST PUSH3 0x4DB DUP3 SLOAD PUSH3 0x2A8 JUMP JUMPDEST PUSH3 0x4E8 DUP3 DUP3 DUP6 PUSH3 0x411 JUMP JUMPDEST PUSH0 PUSH1 0x20 SWAP1 POP PUSH1 0x1F DUP4 GT PUSH1 0x1 DUP2 EQ PUSH3 0x51E JUMPI PUSH0 DUP5 ISZERO PUSH3 0x509 JUMPI DUP3 DUP8 ADD MLOAD SWAP1 POP JUMPDEST PUSH3 0x515 DUP6 DUP3 PUSH3 0x48B JUMP JUMPDEST DUP7 SSTORE POP PUSH3 0x584 JUMP JUMPDEST PUSH1 0x1F NOT DUP5 AND PUSH3 0x52E DUP7 PUSH3 0x2DC JUMP JUMPDEST PUSH0 JUMPDEST DUP3 DUP2 LT ISZERO PUSH3 0x557 JUMPI DUP5 DUP10 ADD MLOAD DUP3 SSTORE PUSH1 0x1 DUP3 ADD SWAP2 POP PUSH1 0x20 DUP6 ADD SWAP5 POP PUSH1 0x20 DUP2 ADD SWAP1 POP PUSH3 0x530 JUMP JUMPDEST DUP7 DUP4 LT ISZERO PUSH3 0x577 JUMPI DUP5 DUP10 ADD MLOAD PUSH3 0x573 PUSH1 0x1F DUP10 AND DUP3 PUSH3 0x46D JUMP JUMPDEST DUP4 SSTORE POP JUMPDEST PUSH1 0x1 PUSH1 0x2 DUP9 MUL ADD DUP9 SSTORE POP POP POP JUMPDEST POP POP POP POP POP POP JUMP JUMPDEST PUSH2 0x2A99 DUP1 PUSH3 0x59A PUSH0 CODECOPY PUSH0 RETURN INVALID PUSH1 0x80 PUSH1 0x40 MSTORE CALLVALUE DUP1 ISZERO PUSH2 0xF JUMPI PUSH0 DUP1 REVERT JUMPDEST POP PUSH1 0x4 CALLDATASIZE LT PUSH2 0x11F JUMPI PUSH0 CALLDATALOAD PUSH1 0xE0 SHR DUP1 PUSH4 0x6352211E GT PUSH2 0xAB JUMPI DUP1 PUSH4 0xA22CB465 GT PUSH2 0x6F JUMPI DUP1 PUSH4 0xA22CB465 EQ PUSH2 0x363 JUMPI DUP1 PUSH4 0xB88D4FDE EQ PUSH2 0x37F JUMPI DUP1 PUSH4 0xC87B56DD EQ PUSH2 0x39B JUMPI DUP1 PUSH4 0xD15A76D2 EQ PUSH2 0x3CB JUMPI DUP1 PUSH4 0xE985E9C5 EQ PUSH2 0x3FB JUMPI PUSH2 0x11F JUMP JUMPDEST DUP1 PUSH4 0x6352211E EQ PUSH2 0x285 JUMPI DUP1 PUSH4 0x70A08231 EQ PUSH2 0x2B5 JUMPI DUP1 PUSH4 0x838E4537 EQ PUSH2 0x2E5 JUMPI DUP1 PUSH4 0x8A55A50E EQ PUSH2 0x315 JUMPI DUP1 PUSH4 0x95D89B41 EQ PUSH2 0x345 JUMPI PUSH2 0x11F JUMP JUMPDEST DUP1 PUSH4 0xA48A1AC GT PUSH2 0xF2 JUMPI DUP1 PUSH4 0xA48A1AC EQ PUSH2 0x1BD JUMPI DUP1 PUSH4 0x23B872DD EQ PUSH2 0x1ED JUMPI DUP1 PUSH4 0x3BB3A24D EQ PUSH2 0x209 JUMPI DUP1 PUSH4 0x42842E0E EQ PUSH2 0x239 JUMPI DUP1 PUSH4 0x5F0CAC76 EQ PUSH2 0x255 JUMPI PUSH2 0x11F JUMP JUMPDEST DUP1 PUSH4 0x1FFC9A7 EQ PUSH2 0x123 JUMPI DUP1 PUSH4 0x6FDDE03 EQ PUSH2 0x153 JUMPI DUP1 PUSH4 0x81812FC EQ PUSH2 0x171 JUMPI DUP1 PUSH4 0x95EA7B3 EQ PUSH2 0x1A1 JUMPI JUMPDEST PUSH0 DUP1 REVERT JUMPDEST PUSH2 0x13D PUSH1 0x4 DUP1 CALLDATASIZE SUB DUP2 ADD SWAP1 PUSH2 0x138 SWAP2 SWAP1 PUSH2 0x1BB8 JUMP JUMPDEST PUSH2 0x42B JUMP JUMPDEST PUSH1 0x40 MLOAD PUSH2 0x14A SWAP2 SWAP1 PUSH2 0x1BFD JUMP JUMPDEST PUSH1 0x40 MLOAD DUP1 SWAP2 SUB SWAP1 RETURN JUMPDEST PUSH2 0x15B PUSH2 0x50C JUMP JUMPDEST PUSH1 0x40 MLOAD PUSH2 0x168 SWAP2 SWAP1 PUSH2 0x1CA0 JUMP JUMPDEST PUSH1 0x40 MLOAD DUP1 SWAP2 SUB SWAP1 RETURN JUMPDEST PUSH2 0x18B PUSH1 0x4 DUP1 CALLDATASIZE SUB DUP2 ADD SWAP1 PUSH2 0x186 SWAP2 SWAP1 PUSH2 0x1CF3 JUMP JUMPDEST PUSH2 0x59B JUMP JUMPDEST PUSH1 0x40 MLOAD PUSH2 0x198 SWAP2 SWAP1 PUSH2 0x1D5D JUMP JUMPDEST PUSH1 0x40 MLOAD DUP1 SWAP2 SUB SWAP1 RETURN JUMPDEST PUSH2 0x1BB PUSH1 0x4 DUP1 CALLDATASIZE SUB DUP2 ADD SWAP1 PUSH2 0x1B6 SWAP2 SWAP1 PUSH2 0x1DA0 JUMP JUMPDEST PUSH2 0x5B6 JUMP JUMPDEST STOP JUMPDEST PUSH2 0x1D7 PUSH1 0x4 DUP1 CALLDATASIZE SUB DUP2 ADD SWAP1 PUSH2 0x1D2 SWAP2 SWAP1 PUSH2 0x1DDE JUMP JUMPDEST PUSH2 0x5CC JUMP JUMPDEST PUSH1 0x40 MLOAD PUSH2 0x1E4 SWAP2 SWAP1 PUSH2 0x1F8F JUMP JUMPDEST PUSH1 0x40 MLOAD DUP1 SWAP2 SUB SWAP1 RETURN JUMPDEST PUSH2 0x207 PUSH1 0x4 DUP1 CALLDATASIZE SUB DUP2 ADD SWAP1 PUSH2 0x202 SWAP2 SWAP1 PUSH2 0x1FAF JUMP JUMPDEST PUSH2 0x7F7 JUMP JUMPDEST STOP JUMPDEST PUSH2 0x223 PUSH1 0x4 DUP1 CALLDATASIZE SUB DUP2 ADD SWAP1 PUSH2 0x21E SWAP2 SWAP1 PUSH2 0x1CF3 JUMP JUMPDEST PUSH2 0x8F6 JUMP JUMPDEST PUSH1 0x40 MLOAD PUSH2 0x230 SWAP2 SWAP1 PUSH2 0x1CA0 JUMP JUMPDEST PUSH1 0x40 MLOAD DUP1 SWAP2 SUB SWAP1 RETURN JUMPDEST PUSH2 0x253 PUSH1 0x4 DUP1 CALLDATASIZE SUB DUP2 ADD SWAP1 PUSH2 0x24E SWAP2 SWAP1 PUSH2 0x1FAF JUMP JUMPDEST PUSH2 0x999 JUMP JUMPDEST STOP JUMPDEST PUSH2 0x26F PUSH1 0x4 DUP1 CALLDATASIZE SUB DUP2 ADD SWAP1 PUSH2 0x26A SWAP2 SWAP1 PUSH2 0x1DDE JUMP JUMPDEST PUSH2 0x9B8 JUMP JUMPDEST PUSH1 0x40 MLOAD PUSH2 0x27C SWAP2 SWAP1 PUSH2 0x20BA JUMP JUMPDEST PUSH1 0x40 MLOAD DUP1 SWAP2 SUB SWAP1 RETURN JUMPDEST PUSH2 0x29F PUSH1 0x4 DUP1 CALLDATASIZE SUB DUP2 ADD SWAP1 PUSH2 0x29A SWAP2 SWAP1 PUSH2 0x1CF3 JUMP JUMPDEST PUSH2 0xB94 JUMP JUMPDEST PUSH1 0x40 MLOAD PUSH2 0x2AC SWAP2 SWAP1 PUSH2 0x1D5D JUMP JUMPDEST PUSH1 0x40 MLOAD DUP1 SWAP2 SUB SWAP1 RETURN JUMPDEST PUSH2 0x2CF PUSH1 0x4 DUP1 CALLDATASIZE SUB DUP2 ADD SWAP1 PUSH2 0x2CA SWAP2 SWAP1 PUSH2 0x1DDE JUMP JUMPDEST PUSH2 0xBA5 JUMP JUMPDEST PUSH1 0x40 MLOAD PUSH2 0x2DC SWAP2 SWAP1 PUSH2 0x20E9 JUMP JUMPDEST PUSH1 0x40 MLOAD DUP1 SWAP2 SUB SWAP1 RETURN JUMPDEST PUSH2 0x2FF PUSH1 0x4 DUP1 CALLDATASIZE SUB DUP2 ADD SWAP1 PUSH2 0x2FA SWAP2 SWAP1 PUSH2 0x222E JUMP JUMPDEST PUSH2 0xC5B JUMP JUMPDEST PUSH1 0x40 MLOAD PUSH2 0x30C SWAP2 SWAP1 PUSH2 0x20E9 JUMP JUMPDEST PUSH1 0x40 MLOAD DUP1 SWAP2 SUB SWAP1 RETURN JUMPDEST PUSH2 0x32F PUSH1 0x4 DUP1 CALLDATASIZE SUB DUP2 ADD SWAP1 PUSH2 0x32A SWAP2 SWAP1 PUSH2 0x2275 JUMP JUMPDEST PUSH2 0xCA4 JUMP JUMPDEST PUSH1 0x40 MLOAD PUSH2 0x33C SWAP2 SWAP1 PUSH2 0x1CA0 JUMP JUMPDEST PUSH1 0x40 MLOAD DUP1 SWAP2 SUB SWAP1 RETURN JUMPDEST PUSH2 0x34D PUSH2 0xE34 JUMP JUMPDEST PUSH1 0x40 MLOAD PUSH2 0x35A SWAP2 SWAP1 PUSH2 0x1CA0 JUMP JUMPDEST PUSH1 0x40 MLOAD DUP1 SWAP2 SUB SWAP1 RETURN JUMPDEST PUSH2 0x37D PUSH1 0x4 DUP1 CALLDATASIZE SUB DUP2 ADD SWAP1 PUSH2 0x378 SWAP2 SWAP1 PUSH2 0x2315 JUMP JUMPDEST PUSH2 0xEC4 JUMP JUMPDEST STOP JUMPDEST PUSH2 0x399 PUSH1 0x4 DUP1 CALLDATASIZE SUB DUP2 ADD SWAP1 PUSH2 0x394 SWAP2 SWAP1 PUSH2 0x23F1 JUMP JUMPDEST PUSH2 0xEDA JUMP JUMPDEST STOP JUMPDEST PUSH2 0x3B5 PUSH1 0x4 DUP1 CALLDATASIZE SUB DUP2 ADD SWAP1 PUSH2 0x3B0 SWAP2 SWAP1 PUSH2 0x1CF3 JUMP JUMPDEST PUSH2 0xEF7 JUMP JUMPDEST PUSH1 0x40 MLOAD PUSH2 0x3C2 SWAP2 SWAP1 PUSH2 0x1CA0 JUMP JUMPDEST PUSH1 0x40 MLOAD DUP1 SWAP2 SUB SWAP1 RETURN JUMPDEST PUSH2 0x3E5 PUSH1 0x4 DUP1 CALLDATASIZE SUB DUP2 ADD SWAP1 PUSH2 0x3E0 SWAP2 SWAP1 PUSH2 0x1CF3 JUMP JUMPDEST PUSH2 0xF9A JUMP JUMPDEST PUSH1 0x40 MLOAD PUSH2 0x3F2 SWAP2 SWAP1 PUSH2 0x20E9 JUMP JUMPDEST PUSH1 0x40 MLOAD DUP1 SWAP2 SUB SWAP1 RETURN JUMPDEST PUSH2 0x415 PUSH1 0x4 DUP1 CALLDATASIZE SUB DUP2 ADD SWAP1 PUSH2 0x410 SWAP2 SWAP1 PUSH2 0x2471 JUMP JUMPDEST PUSH2 0xFB7 JUMP JUMPDEST PUSH1 0x40 MLOAD PUSH2 0x422 SWAP2 SWAP1 PUSH2 0x1BFD JUMP JUMPDEST PUSH1 0x40 MLOAD DUP1 SWAP2 SUB SWAP1 RETURN JUMPDEST PUSH0 PUSH32 0x80AC58CD00000000000000000000000000000000000000000000000000000000 PUSH28 0xFFFFFFFFFFFFFFFFFFFFFFFFFFFFFFFFFFFFFFFFFFFFFFFFFFFFFFFF NOT AND DUP3 PUSH28 0xFFFFFFFFFFFFFFFFFFFFFFFFFFFFFFFFFFFFFFFFFFFFFFFFFFFFFFFF NOT AND EQ DUP1 PUSH2 0x4F5 JUMPI POP PUSH32 0x5B5E139F00000000000000000000000000000000000000000000000000000000 PUSH28 0xFFFFFFFFFFFFFFFFFFFFFFFFFFFFFFFFFFFFFFFFFFFFFFFFFFFFFFFF NOT AND DUP3 PUSH28 0xFFFFFFFFFFFFFFFFFFFFFFFFFFFFFFFFFFFFFFFFFFFFFFFFFFFFFFFF NOT AND EQ JUMPDEST DUP1 PUSH2 0x505 JUMPI POP PUSH2 0x504 DUP3 PUSH2 0x1045 JUMP JUMPDEST JUMPDEST SWAP1 POP SWAP2 SWAP1 POP JUMP JUMPDEST PUSH1 0x60 PUSH0 DUP1 SLOAD PUSH2 0x51A SWAP1 PUSH2 0x24DC JUMP JUMPDEST DUP1 PUSH1 0x1F ADD PUSH1 0x20 DUP1 SWAP2 DIV MUL PUSH1 0x20 ADD PUSH1 0x40 MLOAD SWAP1 DUP2 ADD PUSH1 0x40 MSTORE DUP1 SWAP3 SWAP2 SWAP1 DUP2 DUP2 MSTORE PUSH1 0x20 ADD DUP3 DUP1 SLOAD PUSH2 0x546 SWAP1 PUSH2 0x24DC JUMP JUMPDEST DUP1 ISZERO PUSH2 0x591 JUMPI DUP1 PUSH1 0x1F LT PUSH2 0x568 JUMPI PUSH2 0x100 DUP1 DUP4 SLOAD DIV MUL DUP4 MSTORE SWAP2 PUSH1 0x20 ADD SWAP2 PUSH2 0x591 JUMP JUMPDEST DUP3 ADD SWAP2 SWAP1 PUSH0 MSTORE PUSH1 0x20 PUSH0 KECCAK256 SWAP1 JUMPDEST DUP2 SLOAD DUP2 MSTORE SWAP1 PUSH1 0x1 ADD SWAP1 PUSH1 0x20 ADD DUP1 DUP4 GT PUSH2 0x574 JUMPI DUP3 SWAP1 SUB PUSH1 0x1F AND DUP3 ADD SWAP2 JUMPDEST POP POP POP POP POP SWAP1 POP SWAP1 JUMP JUMPDEST PUSH0 PUSH2 0x5A5 DUP3 PUSH2 0x10AE JUMP JUMPDEST POP PUSH2 0x5AF DUP3 PUSH2 0x1134 JUMP JUMPDEST SWAP1 POP SWAP2 SWAP1 POP JUMP JUMPDEST PUSH2 0x5C8 DUP3 DUP3 PUSH2 0x5C3 PUSH2 0x116D JUMP JUMPDEST PUSH2 0x1174 JUMP JUMPDEST POP POP JUMP JUMPDEST PUSH1 0x60 PUSH0 PUSH1 0x8 PUSH0 DUP5 PUSH20 0xFFFFFFFFFFFFFFFFFFFFFFFFFFFFFFFFFFFFFFFF AND PUSH20 0xFFFFFFFFFFFFFFFFFFFFFFFFFFFFFFFFFFFFFFFF AND DUP2 MSTORE PUSH1 0x20 ADD SWAP1 DUP2 MSTORE PUSH1 0x20 ADD PUSH0 KECCAK256 DUP1 SLOAD DUP1 PUSH1 0x20 MUL PUSH1 0x20 ADD PUSH1 0x40 MLOAD SWAP1 DUP2 ADD PUSH1 0x40 MSTORE DUP1 SWAP3 SWAP2 SWAP1 DUP2 DUP2 MSTORE PUSH1 0x20 ADD DUP3 DUP1 SLOAD DUP1 ISZERO PUSH2 0x654 JUMPI PUSH1 0x20 MUL DUP3 ADD SWAP2 SWAP1 PUSH0 MSTORE PUSH1 0x20 PUSH0 KECCAK256 SWAP1 JUMPDEST DUP2 SLOAD DUP2 MSTORE PUSH1 0x20 ADD SWAP1 PUSH1 0x1 ADD SWAP1 DUP1 DUP4 GT PUSH2 0x640 JUMPI JUMPDEST POP POP POP POP POP SWAP1 POP PUSH0 DUP2 MLOAD PUSH8 0xFFFFFFFFFFFFFFFF DUP2 GT ISZERO PUSH2 0x677 JUMPI PUSH2 0x676 PUSH2 0x210A JUMP JUMPDEST JUMPDEST PUSH1 0x40 MLOAD SWAP1 DUP1 DUP3 MSTORE DUP1 PUSH1 0x20 MUL PUSH1 0x20 ADD DUP3 ADD PUSH1 0x40 MSTORE DUP1 ISZERO PUSH2 0x6B0 JUMPI DUP2 PUSH1 0x20 ADD JUMPDEST PUSH2 0x69D PUSH2 0x1B1A JUMP JUMPDEST DUP2 MSTORE PUSH1 0x20 ADD SWAP1 PUSH1 0x1 SWAP1 SUB SWAP1 DUP2 PUSH2 0x695 JUMPI SWAP1 POP JUMPDEST POP SWAP1 POP PUSH0 JUMPDEST DUP3 MLOAD DUP2 LT ISZERO PUSH2 0x7EC JUMPI PUSH1 0x40 MLOAD DUP1 PUSH1 0x40 ADD PUSH1 0x40 MSTORE DUP1 DUP5 DUP4 DUP2 MLOAD DUP2 LT PUSH2 0x6DC JUMPI PUSH2 0x6DB PUSH2 0x250C JUMP JUMPDEST JUMPDEST PUSH1 0x20 MUL PUSH1 0x20 ADD ADD MLOAD DUP2 MSTORE PUSH1 0x20 ADD PUSH1 0x6 PUSH0 DUP7 DUP6 DUP2 MLOAD DUP2 LT PUSH2 0x6FF JUMPI PUSH2 0x6FE PUSH2 0x250C JUMP JUMPDEST JUMPDEST PUSH1 0x20 MUL PUSH1 0x20 ADD ADD MLOAD DUP2 MSTORE PUSH1 0x20 ADD SWAP1 DUP2 MSTORE PUSH1 0x20 ADD PUSH0 KECCAK256 PUSH1 0x40 MLOAD DUP1 PUSH1 0x40 ADD PUSH1 0x40 MSTORE SWAP1 DUP2 PUSH0 DUP3 ADD DUP1 SLOAD PUSH2 0x72E SWAP1 PUSH2 0x24DC JUMP JUMPDEST DUP1 PUSH1 0x1F ADD PUSH1 0x20 DUP1 SWAP2 DIV MUL PUSH1 0x20 ADD PUSH1 0x40 MLOAD SWAP1 DUP2 ADD PUSH1 0x40 MSTORE DUP1 SWAP3 SWAP2 SWAP1 DUP2 DUP2 MSTORE PUSH1 0x20 ADD DUP3 DUP1 SLOAD PUSH2 0x75A SWAP1 PUSH2 0x24DC JUMP JUMPDEST DUP1 ISZERO PUSH2 0x7A5 JUMPI DUP1 PUSH1 0x1F LT PUSH2 0x77C JUMPI PUSH2 0x100 DUP1 DUP4 SLOAD DIV MUL DUP4 MSTORE SWAP2 PUSH1 0x20 ADD SWAP2 PUSH2 0x7A5 JUMP JUMPDEST DUP3 ADD SWAP2 SWAP1 PUSH0 MSTORE PUSH1 0x20 PUSH0 KECCAK256 SWAP1 JUMPDEST DUP2 SLOAD DUP2 MSTORE SWAP1 PUSH1 0x1 ADD SWAP1 PUSH1 0x20 ADD DUP1 DUP4 GT PUSH2 0x788 JUMPI DUP3 SWAP1 SUB PUSH1 0x1F AND DUP3 ADD SWAP2 JUMPDEST POP POP POP POP POP DUP2 MSTORE PUSH1 0x20 ADD PUSH1 0x1 DUP3 ADD SLOAD DUP2 MSTORE POP POP DUP2 MSTORE POP DUP3 DUP3 DUP2 MLOAD DUP2 LT PUSH2 0x7CE JUMPI PUSH2 0x7CD PUSH2 0x250C JUMP JUMPDEST JUMPDEST PUSH1 0x20 MUL PUSH1 0x20 ADD ADD DUP2 SWAP1 MSTORE POP DUP1 DUP1 PUSH2 0x7E4 SWAP1 PUSH2 0x2566 JUMP JUMPDEST SWAP2 POP POP PUSH2 0x6B5 JUMP JUMPDEST POP DUP1 SWAP3 POP POP POP SWAP2 SWAP1 POP JUMP JUMPDEST PUSH0 PUSH20 0xFFFFFFFFFFFFFFFFFFFFFFFFFFFFFFFFFFFFFFFF AND DUP3 PUSH20 0xFFFFFFFFFFFFFFFFFFFFFFFFFFFFFFFFFFFFFFFF AND SUB PUSH2 0x867 JUMPI PUSH0 PUSH1 0x40 MLOAD PUSH32 0x64A0AE9200000000000000000000000000000000000000000000000000000000 DUP2 MSTORE PUSH1 0x4 ADD PUSH2 0x85E SWAP2 SWAP1 PUSH2 0x1D5D JUMP JUMPDEST PUSH1 0x40 MLOAD DUP1 SWAP2 SUB SWAP1 REVERT JUMPDEST PUSH0 PUSH2 0x87A DUP4 DUP4 PUSH2 0x875 PUSH2 0x116D JUMP JUMPDEST PUSH2 0x1186 JUMP JUMPDEST SWAP1 POP DUP4 PUSH20 0xFFFFFFFFFFFFFFFFFFFFFFFFFFFFFFFFFFFFFFFF AND DUP2 PUSH20 0xFFFFFFFFFFFFFFFFFFFFFFFFFFFFFFFFFFFFFFFF AND EQ PUSH2 0x8F0 JUMPI DUP4 DUP3 DUP3 PUSH1 0x40 MLOAD PUSH32 0x64283D7B00000000000000000000000000000000000000000000000000000000 DUP2 MSTORE PUSH1 0x4 ADD PUSH2 0x8E7 SWAP4 SWAP3 SWAP2 SWAP1 PUSH2 0x25AD JUMP JUMPDEST PUSH1 0x40 MLOAD DUP1 SWAP2 SUB SWAP1 REVERT JUMPDEST POP POP POP POP JUMP JUMPDEST PUSH1 0x60 PUSH1 0x6 PUSH0 DUP4 DUP2 MSTORE PUSH1 0x20 ADD SWAP1 DUP2 MSTORE PUSH1 0x20 ADD PUSH0 KECCAK256 PUSH0 ADD DUP1 SLOAD PUSH2 0x916 SWAP1 PUSH2 0x24DC JUMP JUMPDEST DUP1 PUSH1 0x1F ADD PUSH1 0x20 DUP1 SWAP2 DIV MUL PUSH1 0x20 ADD PUSH1 0x40 MLOAD SWAP1 DUP2 ADD PUSH1 0x40 MSTORE DUP1 SWAP3 SWAP2 SWAP1 DUP2 DUP2 MSTORE PUSH1 0x20 ADD DUP3 DUP1 SLOAD PUSH2 0x942 SWAP1 PUSH2 0x24DC JUMP JUMPDEST DUP1 ISZERO PUSH2 0x98D JUMPI DUP1 PUSH1 0x1F LT PUSH2 0x964 JUMPI PUSH2 0x100 DUP1 DUP4 SLOAD DIV MUL DUP4 MSTORE SWAP2 PUSH1 0x20 ADD SWAP2 PUSH2 0x98D JUMP JUMPDEST DUP3 ADD SWAP2 SWAP1 PUSH0 MSTORE PUSH1 0x20 PUSH0 KECCAK256 SWAP1 JUMPDEST DUP2 SLOAD DUP2 MSTORE SWAP1 PUSH1 0x1 ADD SWAP1 PUSH1 0x20 ADD DUP1 DUP4 GT PUSH2 0x970 JUMPI DUP3 SWAP1 SUB PUSH1 0x1F AND DUP3 ADD SWAP2 JUMPDEST POP POP POP POP POP SWAP1 POP SWAP2 SWAP1 POP JUMP JUMPDEST PUSH2 0x9B3 DUP4 DUP4 DUP4 PUSH1 0x40 MLOAD DUP1 PUSH1 0x20 ADD PUSH1 0x40 MSTORE DUP1 PUSH0 DUP2 MSTORE POP PUSH2 0xEDA JUMP JUMPDEST POP POP POP JUMP JUMPDEST PUSH1 0x60 PUSH0 PUSH1 0x8 PUSH0 DUP5 PUSH20 0xFFFFFFFFFFFFFFFFFFFFFFFFFFFFFFFFFFFFFFFF AND PUSH20 0xFFFFFFFFFFFFFFFFFFFFFFFFFFFFFFFFFFFFFFFF AND DUP2 MSTORE PUSH1 0x20 ADD SWAP1 DUP2 MSTORE PUSH1 0x20 ADD PUSH0 KECCAK256 DUP1 SLOAD DUP1 PUSH1 0x20 MUL PUSH1 0x20 ADD PUSH1 0x40 MLOAD SWAP1 DUP2 ADD PUSH1 0x40 MSTORE DUP1 SWAP3 SWAP2 SWAP1 DUP2 DUP2 MSTORE PUSH1 0x20 ADD DUP3 DUP1 SLOAD DUP1 ISZERO PUSH2 0xA40 JUMPI PUSH1 0x20 MUL DUP3 ADD SWAP2 SWAP1 PUSH0 MSTORE PUSH1 0x20 PUSH0 KECCAK256 SWAP1 JUMPDEST DUP2 SLOAD DUP2 MSTORE PUSH1 0x20 ADD SWAP1 PUSH1 0x1 ADD SWAP1 DUP1 DUP4 GT PUSH2 0xA2C JUMPI JUMPDEST POP POP POP POP POP SWAP1 POP PUSH0 DUP2 MLOAD PUSH8 0xFFFFFFFFFFFFFFFF DUP2 GT ISZERO PUSH2 0xA63 JUMPI PUSH2 0xA62 PUSH2 0x210A JUMP JUMPDEST JUMPDEST PUSH1 0x40 MLOAD SWAP1 DUP1 DUP3 MSTORE DUP1 PUSH1 0x20 MUL PUSH1 0x20 ADD DUP3 ADD PUSH1 0x40 MSTORE DUP1 ISZERO PUSH2 0xA96 JUMPI DUP2 PUSH1 0x20 ADD JUMPDEST PUSH1 0x60 DUP2 MSTORE PUSH1 0x20 ADD SWAP1 PUSH1 0x1 SWAP1 SUB SWAP1 DUP2 PUSH2 0xA81 JUMPI SWAP1 POP JUMPDEST POP SWAP1 POP PUSH0 JUMPDEST DUP3 MLOAD DUP2 LT ISZERO PUSH2 0xB89 JUMPI PUSH1 0x6 PUSH0 DUP5 DUP4 DUP2 MLOAD DUP2 LT PUSH2 0xABA JUMPI PUSH2 0xAB9 PUSH2 0x250C JUMP JUMPDEST JUMPDEST PUSH1 0x20 MUL PUSH1 0x20 ADD ADD MLOAD DUP2 MSTORE PUSH1 0x20 ADD SWAP1 DUP2 MSTORE PUSH1 0x20 ADD PUSH0 KECCAK256 PUSH0 ADD DUP1 SLOAD PUSH2 0xADC SWAP1 PUSH2 0x24DC JUMP JUMPDEST DUP1 PUSH1 0x1F ADD PUSH1 0x20 DUP1 SWAP2 DIV MUL PUSH1 0x20 ADD PUSH1 0x40 MLOAD SWAP1 DUP2 ADD PUSH1 0x40 MSTORE DUP1 SWAP3 SWAP2 SWAP1 DUP2 DUP2 MSTORE PUSH1 0x20 ADD DUP3 DUP1 SLOAD PUSH2 0xB08 SWAP1 PUSH2 0x24DC JUMP JUMPDEST DUP1 ISZERO PUSH2 0xB53 JUMPI DUP1 PUSH1 0x1F LT PUSH2 0xB2A JUMPI PUSH2 0x100 DUP1 DUP4 SLOAD DIV MUL DUP4 MSTORE SWAP2 PUSH1 0x20 ADD SWAP2 PUSH2 0xB53 JUMP JUMPDEST DUP3 ADD SWAP2 SWAP1 PUSH0 MSTORE PUSH1 0x20 PUSH0 KECCAK256 SWAP1 JUMPDEST DUP2 SLOAD DUP2 MSTORE SWAP1 PUSH1 0x1 ADD SWAP1 PUSH1 0x20 ADD DUP1 DUP4 GT PUSH2 0xB36 JUMPI DUP3 SWAP1 SUB PUSH1 0x1F AND DUP3 ADD SWAP2 JUMPDEST POP POP POP POP POP DUP3 DUP3 DUP2 MLOAD DUP2 LT PUSH2 0xB6B JUMPI PUSH2 0xB6A PUSH2 0x250C JUMP JUMPDEST JUMPDEST PUSH1 0x20 MUL PUSH1 0x20 ADD ADD DUP2 SWAP1 MSTORE POP DUP1 DUP1 PUSH2 0xB81 SWAP1 PUSH2 0x2566 JUMP JUMPDEST SWAP2 POP POP PUSH2 0xA9B JUMP JUMPDEST POP DUP1 SWAP3 POP POP POP SWAP2 SWAP1 POP JUMP JUMPDEST PUSH0 PUSH2 0xB9E DUP3 PUSH2 0x10AE JUMP JUMPDEST SWAP1 POP SWAP2 SWAP1 POP JUMP JUMPDEST PUSH0 DUP1 PUSH20 0xFFFFFFFFFFFFFFFFFFFFFFFFFFFFFFFFFFFFFFFF AND DUP3 PUSH20 0xFFFFFFFFFFFFFFFFFFFFFFFFFFFFFFFFFFFFFFFF AND SUB PUSH2 0xC16 JUMPI PUSH0 PUSH1 0x40 MLOAD PUSH32 0x89C62B6400000000000000000000000000000000000000000000000000000000 DUP2 MSTORE PUSH1 0x4 ADD PUSH2 0xC0D SWAP2 SWAP1 PUSH2 0x1D5D JUMP JUMPDEST PUSH1 0x40 MLOAD DUP1 SWAP2 SUB SWAP1 REVERT JUMPDEST PUSH1 0x3 PUSH0 DUP4 PUSH20 0xFFFFFFFFFFFFFFFFFFFFFFFFFFFFFFFFFFFFFFFF AND PUSH20 0xFFFFFFFFFFFFFFFFFFFFFFFFFFFFFFFFFFFFFFFF AND DUP2 MSTORE PUSH1 0x20 ADD SWAP1 DUP2 MSTORE PUSH1 0x20 ADD PUSH0 KECCAK256 SLOAD SWAP1 POP SWAP2 SWAP1 POP JUMP JUMPDEST PUSH0 PUSH1 0x1 PUSH1 0xA DUP4 PUSH1 0x40 MLOAD PUSH1 0x20 ADD PUSH2 0xC71 SWAP2 SWAP1 PUSH2 0x261C JUMP JUMPDEST PUSH1 0x40 MLOAD PUSH1 0x20 DUP2 DUP4 SUB SUB DUP2 MSTORE SWAP1 PUSH1 0x40 MSTORE DUP1 MLOAD SWAP1 PUSH1 0x20 ADD KECCAK256 PUSH0 SHR PUSH2 0xC93 SWAP2 SWAP1 PUSH2 0x265F JUMP JUMPDEST PUSH2 0xC9D SWAP2 SWAP1 PUSH2 0x268F JUMP JUMPDEST SWAP1 POP SWAP2 SWAP1 POP JUMP JUMPDEST PUSH1 0x60 PUSH0 PUSH2 0xCB0 DUP4 PUSH2 0xC5B JUMP JUMPDEST SWAP1 POP PUSH1 0x40 MLOAD DUP1 PUSH1 0x40 ADD PUSH1 0x40 MSTORE DUP1 DUP6 DUP2 MSTORE PUSH1 0x20 ADD DUP3 DUP2 MSTORE POP PUSH1 0x6 PUSH0 PUSH1 0x7 SLOAD DUP2 MSTORE PUSH1 0x20 ADD SWAP1 DUP2 MSTORE PUSH1 0x20 ADD PUSH0 KECCAK256 PUSH0 DUP3 ADD MLOAD DUP2 PUSH0 ADD SWAP1 DUP2 PUSH2 0xCED SWAP2 SWAP1 PUSH2 0x285F JUMP JUMPDEST POP PUSH1 0x20 DUP3 ADD MLOAD DUP2 PUSH1 0x1 ADD SSTORE SWAP1 POP POP PUSH2 0xD07 CALLER PUSH1 0x7 SLOAD PUSH2 0x1391 JUMP JUMPDEST PUSH1 0x8 PUSH0 CALLER PUSH20 0xFFFFFFFFFFFFFFFFFFFFFFFFFFFFFFFFFFFFFFFF AND PUSH20 0xFFFFFFFFFFFFFFFFFFFFFFFFFFFFFFFFFFFFFFFF AND DUP2 MSTORE PUSH1 0x20 ADD SWAP1 DUP2 MSTORE PUSH1 0x20 ADD PUSH0 KECCAK256 PUSH1 0x7 SLOAD SWAP1 DUP1 PUSH1 0x1 DUP2 SLOAD ADD DUP1 DUP3 SSTORE DUP1 SWAP2 POP POP PUSH1 0x1 SWAP1 SUB SWAP1 PUSH0 MSTORE PUSH1 0x20 PUSH0 KECCAK256 ADD PUSH0 SWAP1 SWAP2 SWAP1 SWAP2 SWAP1 SWAP2 POP SSTORE PUSH1 0x1 PUSH1 0x7 PUSH0 DUP3 DUP3 SLOAD PUSH2 0xD7C SWAP2 SWAP1 PUSH2 0x268F JUMP JUMPDEST SWAP3 POP POP DUP2 SWAP1 SSTORE POP PUSH1 0x6 PUSH0 PUSH1 0x1 PUSH1 0x7 SLOAD PUSH2 0xD95 SWAP2 SWAP1 PUSH2 0x292E JUMP JUMPDEST DUP2 MSTORE PUSH1 0x20 ADD SWAP1 DUP2 MSTORE PUSH1 0x20 ADD PUSH0 KECCAK256 PUSH0 ADD DUP1 SLOAD PUSH2 0xDAF SWAP1 PUSH2 0x24DC JUMP JUMPDEST DUP1 PUSH1 0x1F ADD PUSH1 0x20 DUP1 SWAP2 DIV MUL PUSH1 0x20 ADD PUSH1 0x40 MLOAD SWAP1 DUP2 ADD PUSH1 0x40 MSTORE DUP1 SWAP3 SWAP2 SWAP1 DUP2 DUP2 MSTORE PUSH1 0x20 ADD DUP3 DUP1 SLOAD PUSH2 0xDDB SWAP1 PUSH2 0x24DC JUMP JUMPDEST DUP1 ISZERO PUSH2 0xE26 JUMPI DUP1 PUSH1 0x1F LT PUSH2 0xDFD JUMPI PUSH2 0x100 DUP1 DUP4 SLOAD DIV MUL DUP4 MSTORE SWAP2 PUSH1 0x20 ADD SWAP2 PUSH2 0xE26 JUMP JUMPDEST DUP3 ADD SWAP2 SWAP1 PUSH0 MSTORE PUSH1 0x20 PUSH0 KECCAK256 SWAP1 JUMPDEST DUP2 SLOAD DUP2 MSTORE SWAP1 PUSH1 0x1 ADD SWAP1 PUSH1 0x20 ADD DUP1 DUP4 GT PUSH2 0xE09 JUMPI DUP3 SWAP1 SUB PUSH1 0x1F AND DUP3 ADD SWAP2 JUMPDEST POP POP POP POP POP SWAP2 POP POP SWAP3 SWAP2 POP POP JUMP JUMPDEST PUSH1 0x60 PUSH1 0x1 DUP1 SLOAD PUSH2 0xE43 SWAP1 PUSH2 0x24DC JUMP JUMPDEST DUP1 PUSH1 0x1F ADD PUSH1 0x20 DUP1 SWAP2 DIV MUL PUSH1 0x20 ADD PUSH1 0x40 MLOAD SWAP1 DUP2 ADD PUSH1 0x40 MSTORE DUP1 SWAP3 SWAP2 SWAP1 DUP2 DUP2 MSTORE PUSH1 0x20 ADD DUP3 DUP1 SLOAD PUSH2 0xE6F SWAP1 PUSH2 0x24DC JUMP JUMPDEST DUP1 ISZERO PUSH2 0xEBA JUMPI DUP1 PUSH1 0x1F LT PUSH2 0xE91 JUMPI PUSH2 0x100 DUP1 DUP4 SLOAD DIV MUL DUP4 MSTORE SWAP2 PUSH1 0x20 ADD SWAP2 PUSH2 0xEBA JUMP JUMPDEST DUP3 ADD SWAP2 SWAP1 PUSH0 MSTORE PUSH1 0x20 PUSH0 KECCAK256 SWAP1 JUMPDEST DUP2 SLOAD DUP2 MSTORE SWAP1 PUSH1 0x1 ADD SWAP1 PUSH1 0x20 ADD DUP1 DUP4 GT PUSH2 0xE9D JUMPI DUP3 SWAP1 SUB PUSH1 0x1F AND DUP3 ADD SWAP2 JUMPDEST POP POP POP POP POP SWAP1 POP SWAP1 JUMP JUMPDEST PUSH2 0xED6 PUSH2 0xECF PUSH2 0x116D JUMP JUMPDEST DUP4 DUP4 PUSH2 0x1484 JUMP JUMPDEST POP POP JUMP JUMPDEST PUSH2 0xEE5 DUP5 DUP5 DUP5 PUSH2 0x7F7 JUMP JUMPDEST PUSH2 0xEF1 DUP5 DUP5 DUP5 DUP5 PUSH2 0x15ED JUMP JUMPDEST POP POP POP POP JUMP JUMPDEST PUSH1 0x60 PUSH1 0x6 PUSH0 DUP4 DUP2 MSTORE PUSH1 0x20 ADD SWAP1 DUP2 MSTORE PUSH1 0x20 ADD PUSH0 KECCAK256 PUSH0 ADD DUP1 SLOAD PUSH2 0xF17 SWAP1 PUSH2 0x24DC JUMP JUMPDEST DUP1 PUSH1 0x1F ADD PUSH1 0x20 DUP1 SWAP2 DIV MUL PUSH1 0x20 ADD PUSH1 0x40 MLOAD SWAP1 DUP2 ADD PUSH1 0x40 MSTORE DUP1 SWAP3 SWAP2 SWAP1 DUP2 DUP2 MSTORE PUSH1 0x20 ADD DUP3 DUP1 SLOAD PUSH2 0xF43 SWAP1 PUSH2 0x24DC JUMP JUMPDEST DUP1 ISZERO PUSH2 0xF8E JUMPI DUP1 PUSH1 0x1F LT PUSH2 0xF65 JUMPI PUSH2 0x100 DUP1 DUP4 SLOAD DIV MUL DUP4 MSTORE SWAP2 PUSH1 0x20 ADD SWAP2 PUSH2 0xF8E JUMP JUMPDEST DUP3 ADD SWAP2 SWAP1 PUSH0 MSTORE PUSH1 0x20 PUSH0 KECCAK256 SWAP1 JUMPDEST DUP2 SLOAD DUP2 MSTORE SWAP1 PUSH1 0x1 ADD SWAP1 PUSH1 0x20 ADD DUP1 DUP4 GT PUSH2 0xF71 JUMPI DUP3 SWAP1 SUB PUSH1 0x1F AND DUP3 ADD SWAP2 JUMPDEST POP POP POP POP POP SWAP1 POP SWAP2 SWAP1 POP JUMP JUMPDEST PUSH0 PUSH1 0x6 PUSH0 DUP4 DUP2 MSTORE PUSH1 0x20 ADD SWAP1 DUP2 MSTORE PUSH1 0x20 ADD PUSH0 KECCAK256 PUSH1 0x1 ADD SLOAD SWAP1 POP SWAP2 SWAP1 POP JUMP JUMPDEST PUSH0 PUSH1 0x5 PUSH0 DUP5 PUSH20 0xFFFFFFFFFFFFFFFFFFFFFFFFFFFFFFFFFFFFFFFF AND PUSH20 0xFFFFFFFFFFFFFFFFFFFFFFFFFFFFFFFFFFFFFFFF AND DUP2 MSTORE PUSH1 0x20 ADD SWAP1 DUP2 MSTORE PUSH1 0x20 ADD PUSH0 KECCAK256 PUSH0 DUP4 PUSH20 0xFFFFFFFFFFFFFFFFFFFFFFFFFFFFFFFFFFFFFFFF AND PUSH20 0xFFFFFFFFFFFFFFFFFFFFFFFFFFFFFFFFFFFFFFFF AND DUP2 MSTORE PUSH1 0x20 ADD SWAP1 DUP2 MSTORE PUSH1 0x20 ADD PUSH0 KECCAK256 PUSH0 SWAP1 SLOAD SWAP1 PUSH2 0x100 EXP SWAP1 DIV PUSH1 0xFF AND SWAP1 POP SWAP3 SWAP2 POP POP JUMP JUMPDEST PUSH0 PUSH32 0x1FFC9A700000000000000000000000000000000000000000000000000000000 PUSH28 0xFFFFFFFFFFFFFFFFFFFFFFFFFFFFFFFFFFFFFFFFFFFFFFFFFFFFFFFF NOT AND DUP3 PUSH28 0xFFFFFFFFFFFFFFFFFFFFFFFFFFFFFFFFFFFFFFFFFFFFFFFFFFFFFFFF NOT AND EQ SWAP1 POP SWAP2 SWAP1 POP JUMP JUMPDEST PUSH0 DUP1 PUSH2 0x10B9 DUP4 PUSH2 0x179F JUMP JUMPDEST SWAP1 POP PUSH0 PUSH20 0xFFFFFFFFFFFFFFFFFFFFFFFFFFFFFFFFFFFFFFFF AND DUP2 PUSH20 0xFFFFFFFFFFFFFFFFFFFFFFFFFFFFFFFFFFFFFFFF AND SUB PUSH2 0x112B JUMPI DUP3 PUSH1 0x40 MLOAD PUSH32 0x7E27328900000000000000000000000000000000000000000000000000000000 DUP2 MSTORE PUSH1 0x4 ADD PUSH2 0x1122 SWAP2 SWAP1 PUSH2 0x20E9 JUMP JUMPDEST PUSH1 0x40 MLOAD DUP1 SWAP2 SUB SWAP1 REVERT JUMPDEST DUP1 SWAP2 POP POP SWAP2 SWAP1 POP JUMP JUMPDEST PUSH0 PUSH1 0x4 PUSH0 DUP4 DUP2 MSTORE PUSH1 0x20 ADD SWAP1 DUP2 MSTORE PUSH1 0x20 ADD PUSH0 KECCAK256 PUSH0 SWAP1 SLOAD SWAP1 PUSH2 0x100 EXP SWAP1 DIV PUSH20 0xFFFFFFFFFFFFFFFFFFFFFFFFFFFFFFFFFFFFFFFF AND SWAP1 POP SWAP2 SWAP1 POP JUMP JUMPDEST PUSH0 CALLER SWAP1 POP SWAP1 JUMP JUMPDEST PUSH2 0x1181 DUP4 DUP4 DUP4 PUSH1 0x1 PUSH2 0x17D8 JUMP JUMPDEST POP POP POP JUMP JUMPDEST PUSH0 DUP1 PUSH2 0x1191 DUP5 PUSH2 0x179F JUMP JUMPDEST SWAP1 POP PUSH0 PUSH20 0xFFFFFFFFFFFFFFFFFFFFFFFFFFFFFFFFFFFFFFFF AND DUP4 PUSH20 0xFFFFFFFFFFFFFFFFFFFFFFFFFFFFFFFFFFFFFFFF AND EQ PUSH2 0x11D2 JUMPI PUSH2 0x11D1 DUP2 DUP5 DUP7 PUSH2 0x1997 JUMP JUMPDEST JUMPDEST PUSH0 PUSH20 0xFFFFFFFFFFFFFFFFFFFFFFFFFFFFFFFFFFFFFFFF AND DUP2 PUSH20 0xFFFFFFFFFFFFFFFFFFFFFFFFFFFFFFFFFFFFFFFF AND EQ PUSH2 0x125D JUMPI PUSH2 0x1211 PUSH0 DUP6 PUSH0 DUP1 PUSH2 0x17D8 JUMP JUMPDEST PUSH1 0x1 PUSH1 0x3 PUSH0 DUP4 PUSH20 0xFFFFFFFFFFFFFFFFFFFFFFFFFFFFFFFFFFFFFFFF AND PUSH20 0xFFFFFFFFFFFFFFFFFFFFFFFFFFFFFFFFFFFFFFFF AND DUP2 MSTORE PUSH1 0x20 ADD SWAP1 DUP2 MSTORE PUSH1 0x20 ADD PUSH0 KECCAK256 PUSH0 DUP3 DUP3 SLOAD SUB SWAP3 POP POP DUP2 SWAP1 SSTORE POP JUMPDEST PUSH0 PUSH20 0xFFFFFFFFFFFFFFFFFFFFFFFFFFFFFFFFFFFFFFFF AND DUP6 PUSH20 0xFFFFFFFFFFFFFFFFFFFFFFFFFFFFFFFFFFFFFFFF AND EQ PUSH2 0x12DC JUMPI PUSH1 0x1 PUSH1 0x3 PUSH0 DUP8 PUSH20 0xFFFFFFFFFFFFFFFFFFFFFFFFFFFFFFFFFFFFFFFF AND PUSH20 0xFFFFFFFFFFFFFFFFFFFFFFFFFFFFFFFFFFFFFFFF AND DUP2 MSTORE PUSH1 0x20 ADD SWAP1 DUP2 MSTORE PUSH1 0x20 ADD PUSH0 KECCAK256 PUSH0 DUP3 DUP3 SLOAD ADD SWAP3 POP POP DUP2 SWAP1 SSTORE POP JUMPDEST DUP5 PUSH1 0x2 PUSH0 DUP7 DUP2 MSTORE PUSH1 0x20 ADD SWAP1 DUP2 MSTORE PUSH1 0x20 ADD PUSH0 KECCAK256 PUSH0 PUSH2 0x100 EXP DUP2 SLOAD DUP2 PUSH20 0xFFFFFFFFFFFFFFFFFFFFFFFFFFFFFFFFFFFFFFFF MUL NOT AND SWAP1 DUP4 PUSH20 0xFFFFFFFFFFFFFFFFFFFFFFFFFFFFFFFFFFFFFFFF AND MUL OR SWAP1 SSTORE POP DUP4 DUP6 PUSH20 0xFFFFFFFFFFFFFFFFFFFFFFFFFFFFFFFFFFFFFFFF AND DUP3 PUSH20 0xFFFFFFFFFFFFFFFFFFFFFFFFFFFFFFFFFFFFFFFF AND PUSH32 0xDDF252AD1BE2C89B69C2B068FC378DAA952BA7F163C4A11628F55A4DF523B3EF PUSH1 0x40 MLOAD PUSH1 0x40 MLOAD DUP1 SWAP2 SUB SWAP1 LOG4 DUP1 SWAP2 POP POP SWAP4 SWAP3 POP POP POP JUMP JUMPDEST PUSH0 PUSH20 0xFFFFFFFFFFFFFFFFFFFFFFFFFFFFFFFFFFFFFFFF AND DUP3 PUSH20 0xFFFFFFFFFFFFFFFFFFFFFFFFFFFFFFFFFFFFFFFF AND SUB PUSH2 0x1401 JUMPI PUSH0 PUSH1 0x40 MLOAD PUSH32 0x64A0AE9200000000000000000000000000000000000000000000000000000000 DUP2 MSTORE PUSH1 0x4 ADD PUSH2 0x13F8 SWAP2 SWAP1 PUSH2 0x1D5D JUMP JUMPDEST PUSH1 0x40 MLOAD DUP1 SWAP2 SUB SWAP1 REVERT JUMPDEST PUSH0 PUSH2 0x140D DUP4 DUP4 PUSH0 PUSH2 0x1186 JUMP JUMPDEST SWAP1 POP PUSH0 PUSH20 0xFFFFFFFFFFFFFFFFFFFFFFFFFFFFFFFFFFFFFFFF AND DUP2 PUSH20 0xFFFFFFFFFFFFFFFFFFFFFFFFFFFFFFFFFFFFFFFF AND EQ PUSH2 0x147F JUMPI PUSH0 PUSH1 0x40 MLOAD PUSH32 0x73C6AC6E00000000000000000000000000000000000000000000000000000000 DUP2 MSTORE PUSH1 0x4 ADD PUSH2 0x1476 SWAP2 SWAP1 PUSH2 0x1D5D JUMP JUMPDEST PUSH1 0x40 MLOAD DUP1 SWAP2 SUB SWAP1 REVERT JUMPDEST POP POP POP JUMP JUMPDEST PUSH0 PUSH20 0xFFFFFFFFFFFFFFFFFFFFFFFFFFFFFFFFFFFFFFFF AND DUP3 PUSH20 0xFFFFFFFFFFFFFFFFFFFFFFFFFFFFFFFFFFFFFFFF AND SUB PUSH2 0x14F4 JUMPI DUP2 PUSH1 0x40 MLOAD PUSH32 0x5B08BA1800000000000000000000000000000000000000000000000000000000 DUP2 MSTORE PUSH1 0x4 ADD PUSH2 0x14EB SWAP2 SWAP1 PUSH2 0x1D5D JUMP JUMPDEST PUSH1 0x40 MLOAD DUP1 SWAP2 SUB SWAP1 REVERT JUMPDEST DUP1 PUSH1 0x5 PUSH0 DUP6 PUSH20 0xFFFFFFFFFFFFFFFFFFFFFFFFFFFFFFFFFFFFFFFF AND PUSH20 0xFFFFFFFFFFFFFFFFFFFFFFFFFFFFFFFFFFFFFFFF AND DUP2 MSTORE PUSH1 0x20 ADD SWAP1 DUP2 MSTORE PUSH1 0x20 ADD PUSH0 KECCAK256 PUSH0 DUP5 PUSH20 0xFFFFFFFFFFFFFFFFFFFFFFFFFFFFFFFFFFFFFFFF AND PUSH20 0xFFFFFFFFFFFFFFFFFFFFFFFFFFFFFFFFFFFFFFFF AND DUP2 MSTORE PUSH1 0x20 ADD SWAP1 DUP2 MSTORE PUSH1 0x20 ADD PUSH0 KECCAK256 PUSH0 PUSH2 0x100 EXP DUP2 SLOAD DUP2 PUSH1 0xFF MUL NOT AND SWAP1 DUP4 ISZERO ISZERO MUL OR SWAP1 SSTORE POP DUP2 PUSH20 0xFFFFFFFFFFFFFFFFFFFFFFFFFFFFFFFFFFFFFFFF AND DUP4 PUSH20 0xFFFFFFFFFFFFFFFFFFFFFFFFFFFFFFFFFFFFFFFF AND PUSH32 0x17307EAB39AB6107E8899845AD3D59BD9653F200F220920489CA2B5937696C31 DUP4 PUSH1 0x40 MLOAD PUSH2 0x15E0 SWAP2 SWAP1 PUSH2 0x1BFD JUMP JUMPDEST PUSH1 0x40 MLOAD DUP1 SWAP2 SUB SWAP1 LOG3 POP POP POP JUMP JUMPDEST PUSH0 DUP4 PUSH20 0xFFFFFFFFFFFFFFFFFFFFFFFFFFFFFFFFFFFFFFFF AND EXTCODESIZE GT ISZERO PUSH2 0x1799 JUMPI DUP3 PUSH20 0xFFFFFFFFFFFFFFFFFFFFFFFFFFFFFFFFFFFFFFFF AND PUSH4 0x150B7A02 PUSH2 0x1630 PUSH2 0x116D JUMP JUMPDEST DUP7 DUP6 DUP6 PUSH1 0x40 MLOAD DUP6 PUSH4 0xFFFFFFFF AND PUSH1 0xE0 SHL DUP2 MSTORE PUSH1 0x4 ADD PUSH2 0x1652 SWAP5 SWAP4 SWAP3 SWAP2 SWAP1 PUSH2 0x29B3 JUMP JUMPDEST PUSH1 0x20 PUSH1 0x40 MLOAD DUP1 DUP4 SUB DUP2 PUSH0 DUP8 GAS CALL SWAP3 POP POP POP DUP1 ISZERO PUSH2 0x168D JUMPI POP PUSH1 0x40 MLOAD RETURNDATASIZE PUSH1 0x1F NOT PUSH1 0x1F DUP3 ADD AND DUP3 ADD DUP1 PUSH1 0x40 MSTORE POP DUP2 ADD SWAP1 PUSH2 0x168A SWAP2 SWAP1 PUSH2 0x2A11 JUMP JUMPDEST PUSH1 0x1 JUMPDEST PUSH2 0x170E JUMPI RETURNDATASIZE DUP1 PUSH0 DUP2 EQ PUSH2 0x16BB JUMPI PUSH1 0x40 MLOAD SWAP2 POP PUSH1 0x1F NOT PUSH1 0x3F RETURNDATASIZE ADD AND DUP3 ADD PUSH1 0x40 MSTORE RETURNDATASIZE DUP3 MSTORE RETURNDATASIZE PUSH0 PUSH1 0x20 DUP5 ADD RETURNDATACOPY PUSH2 0x16C0 JUMP JUMPDEST PUSH1 0x60 SWAP2 POP JUMPDEST POP PUSH0 DUP2 MLOAD SUB PUSH2 0x1706 JUMPI DUP4 PUSH1 0x40 MLOAD PUSH32 0x64A0AE9200000000000000000000000000000000000000000000000000000000 DUP2 MSTORE PUSH1 0x4 ADD PUSH2 0x16FD SWAP2 SWAP1 PUSH2 0x1D5D JUMP JUMPDEST PUSH1 0x40 MLOAD DUP1 SWAP2 SUB SWAP1 REVERT JUMPDEST DUP1 MLOAD DUP2 PUSH1 0x20 ADD REVERT JUMPDEST PUSH4 0x150B7A02 PUSH1 0xE0 SHL PUSH28 0xFFFFFFFFFFFFFFFFFFFFFFFFFFFFFFFFFFFFFFFFFFFFFFFFFFFFFFFF NOT AND DUP2 PUSH28 0xFFFFFFFFFFFFFFFFFFFFFFFFFFFFFFFFFFFFFFFFFFFFFFFFFFFFFFFF NOT AND EQ PUSH2 0x1797 JUMPI DUP4 PUSH1 0x40 MLOAD PUSH32 0x64A0AE9200000000000000000000000000000000000000000000000000000000 DUP2 MSTORE PUSH1 0x4 ADD PUSH2 0x178E SWAP2 SWAP1 PUSH2 0x1D5D JUMP JUMPDEST PUSH1 0x40 MLOAD DUP1 SWAP2 SUB SWAP1 REVERT JUMPDEST POP JUMPDEST POP POP POP POP JUMP JUMPDEST PUSH0 PUSH1 0x2 PUSH0 DUP4 DUP2 MSTORE PUSH1 0x20 ADD SWAP1 DUP2 MSTORE PUSH1 0x20 ADD PUSH0 KECCAK256 PUSH0 SWAP1 SLOAD SWAP1 PUSH2 0x100 EXP SWAP1 DIV PUSH20 0xFFFFFFFFFFFFFFFFFFFFFFFFFFFFFFFFFFFFFFFF AND SWAP1 POP SWAP2 SWAP1 POP JUMP JUMPDEST DUP1 DUP1 PUSH2 0x1810 JUMPI POP PUSH0 PUSH20 0xFFFFFFFFFFFFFFFFFFFFFFFFFFFFFFFFFFFFFFFF AND DUP3 PUSH20 0xFFFFFFFFFFFFFFFFFFFFFFFFFFFFFFFFFFFFFFFF AND EQ ISZERO JUMPDEST ISZERO PUSH2 0x1942 JUMPI PUSH0 PUSH2 0x181F DUP5 PUSH2 0x10AE JUMP JUMPDEST SWAP1 POP PUSH0 PUSH20 0xFFFFFFFFFFFFFFFFFFFFFFFFFFFFFFFFFFFFFFFF AND DUP4 PUSH20 0xFFFFFFFFFFFFFFFFFFFFFFFFFFFFFFFFFFFFFFFF AND EQ ISZERO DUP1 ISZERO PUSH2 0x1889 JUMPI POP DUP3 PUSH20 0xFFFFFFFFFFFFFFFFFFFFFFFFFFFFFFFFFFFFFFFF AND DUP2 PUSH20 0xFFFFFFFFFFFFFFFFFFFFFFFFFFFFFFFFFFFFFFFF AND EQ ISZERO JUMPDEST DUP1 ISZERO PUSH2 0x189C JUMPI POP PUSH2 0x189A DUP2 DUP5 PUSH2 0xFB7 JUMP JUMPDEST ISZERO JUMPDEST ISZERO PUSH2 0x18DE JUMPI DUP3 PUSH1 0x40 MLOAD PUSH32 0xA9FBF51F00000000000000000000000000000000000000000000000000000000 DUP2 MSTORE PUSH1 0x4 ADD PUSH2 0x18D5 SWAP2 SWAP1 PUSH2 0x1D5D JUMP JUMPDEST PUSH1 0x40 MLOAD DUP1 SWAP2 SUB SWAP1 REVERT JUMPDEST DUP2 ISZERO PUSH2 0x1940 JUMPI DUP4 DUP6 PUSH20 0xFFFFFFFFFFFFFFFFFFFFFFFFFFFFFFFFFFFFFFFF AND DUP3 PUSH20 0xFFFFFFFFFFFFFFFFFFFFFFFFFFFFFFFFFFFFFFFF AND PUSH32 0x8C5BE1E5EBEC7D5BD14F71427D1E84F3DD0314C0F7B2291E5B200AC8C7C3B925 PUSH1 0x40 MLOAD PUSH1 0x40 MLOAD DUP1 SWAP2 SUB SWAP1 LOG4 JUMPDEST POP JUMPDEST DUP4 PUSH1 0x4 PUSH0 DUP6 DUP2 MSTORE PUSH1 0x20 ADD SWAP1 DUP2 MSTORE PUSH1 0x20 ADD PUSH0 KECCAK256 PUSH0 PUSH2 0x100 EXP DUP2 SLOAD DUP2 PUSH20 0xFFFFFFFFFFFFFFFFFFFFFFFFFFFFFFFFFFFFFFFF MUL NOT AND SWAP1 DUP4 PUSH20 0xFFFFFFFFFFFFFFFFFFFFFFFFFFFFFFFFFFFFFFFF AND MUL OR SWAP1 SSTORE POP POP POP POP POP JUMP JUMPDEST PUSH2 0x19A2 DUP4 DUP4 DUP4 PUSH2 0x1A5A JUMP JUMPDEST PUSH2 0x1A55 JUMPI PUSH0 PUSH20 0xFFFFFFFFFFFFFFFFFFFFFFFFFFFFFFFFFFFFFFFF AND DUP4 PUSH20 0xFFFFFFFFFFFFFFFFFFFFFFFFFFFFFFFFFFFFFFFF AND SUB PUSH2 0x1A16 JUMPI DUP1 PUSH1 0x40 MLOAD PUSH32 0x7E27328900000000000000000000000000000000000000000000000000000000 DUP2 MSTORE PUSH1 0x4 ADD PUSH2 0x1A0D SWAP2 SWAP1 PUSH2 0x20E9 JUMP JUMPDEST PUSH1 0x40 MLOAD DUP1 SWAP2 SUB SWAP1 REVERT JUMPDEST DUP2 DUP2 PUSH1 0x40 MLOAD PUSH32 0x177E802F00000000000000000000000000000000000000000000000000000000 DUP2 MSTORE PUSH1 0x4 ADD PUSH2 0x1A4C SWAP3 SWAP2 SWAP1 PUSH2 0x2A3C JUMP JUMPDEST PUSH1 0x40 MLOAD DUP1 SWAP2 SUB SWAP1 REVERT JUMPDEST POP POP POP JUMP JUMPDEST PUSH0 DUP1 PUSH20 0xFFFFFFFFFFFFFFFFFFFFFFFFFFFFFFFFFFFFFFFF AND DUP4 PUSH20 0xFFFFFFFFFFFFFFFFFFFFFFFFFFFFFFFFFFFFFFFF AND EQ ISZERO DUP1 ISZERO PUSH2 0x1B11 JUMPI POP DUP3 PUSH20 0xFFFFFFFFFFFFFFFFFFFFFFFFFFFFFFFFFFFFFFFF AND DUP5 PUSH20 0xFFFFFFFFFFFFFFFFFFFFFFFFFFFFFFFFFFFFFFFF AND EQ DUP1 PUSH2 0x1AD2 JUMPI POP PUSH2 0x1AD1 DUP5 DUP5 PUSH2 0xFB7 JUMP JUMPDEST JUMPDEST DUP1 PUSH2 0x1B10 JUMPI POP DUP3 PUSH20 0xFFFFFFFFFFFFFFFFFFFFFFFFFFFFFFFFFFFFFFFF AND PUSH2 0x1AF8 DUP4 PUSH2 0x1134 JUMP JUMPDEST PUSH20 0xFFFFFFFFFFFFFFFFFFFFFFFFFFFFFFFFFFFFFFFF AND EQ JUMPDEST JUMPDEST SWAP1 POP SWAP4 SWAP3 POP POP POP JUMP JUMPDEST PUSH1 0x40 MLOAD DUP1 PUSH1 0x40 ADD PUSH1 0x40 MSTORE DUP1 PUSH0 DUP2 MSTORE PUSH1 0x20 ADD PUSH2 0x1B33 PUSH2 0x1B39 JUMP JUMPDEST DUP2 MSTORE POP SWAP1 JUMP JUMPDEST PUSH1 0x40 MLOAD DUP1 PUSH1 0x40 ADD PUSH1 0x40 MSTORE DUP1 PUSH1 0x60 DUP2 MSTORE PUSH1 0x20 ADD PUSH0 DUP2 MSTORE POP SWAP1 JUMP JUMPDEST PUSH0 PUSH1 0x40 MLOAD SWAP1 POP SWAP1 JUMP JUMPDEST PUSH0 DUP1 REVERT JUMPDEST PUSH0 DUP1 REVERT JUMPDEST PUSH0 PUSH32 0xFFFFFFFF00000000000000000000000000000000000000000000000000000000 DUP3 AND SWAP1 POP SWAP2 SWAP1 POP JUMP JUMPDEST PUSH2 0x1B97 DUP2 PUSH2 0x1B63 JUMP JUMPDEST DUP2 EQ PUSH2 0x1BA1 JUMPI PUSH0 DUP1 REVERT JUMPDEST POP JUMP JUMPDEST PUSH0 DUP2 CALLDATALOAD SWAP1 POP PUSH2 0x1BB2 DUP2 PUSH2 0x1B8E JUMP JUMPDEST SWAP3 SWAP2 POP POP JUMP JUMPDEST PUSH0 PUSH1 0x20 DUP3 DUP5 SUB SLT ISZERO PUSH2 0x1BCD JUMPI PUSH2 0x1BCC PUSH2 0x1B5B JUMP JUMPDEST JUMPDEST PUSH0 PUSH2 0x1BDA DUP5 DUP3 DUP6 ADD PUSH2 0x1BA4 JUMP JUMPDEST SWAP2 POP POP SWAP3 SWAP2 POP POP JUMP JUMPDEST PUSH0 DUP2 ISZERO ISZERO SWAP1 POP SWAP2 SWAP1 POP JUMP JUMPDEST PUSH2 0x1BF7 DUP2 PUSH2 0x1BE3 JUMP JUMPDEST DUP3 MSTORE POP POP JUMP JUMPDEST PUSH0 PUSH1 0x20 DUP3 ADD SWAP1 POP PUSH2 0x1C10 PUSH0 DUP4 ADD DUP5 PUSH2 0x1BEE JUMP JUMPDEST SWAP3 SWAP2 POP POP JUMP JUMPDEST PUSH0 DUP2 MLOAD SWAP1 POP SWAP2 SWAP1 POP JUMP JUMPDEST PUSH0 DUP3 DUP3 MSTORE PUSH1 0x20 DUP3 ADD SWAP1 POP SWAP3 SWAP2 POP POP JUMP JUMPDEST PUSH0 JUMPDEST DUP4 DUP2 LT ISZERO PUSH2 0x1C4D JUMPI DUP1 DUP3 ADD MLOAD DUP2 DUP5 ADD MSTORE PUSH1 0x20 DUP2 ADD SWAP1 POP PUSH2 0x1C32 JUMP JUMPDEST PUSH0 DUP5 DUP5 ADD MSTORE POP POP POP POP JUMP JUMPDEST PUSH0 PUSH1 0x1F NOT PUSH1 0x1F DUP4 ADD AND SWAP1 POP SWAP2 SWAP1 POP JUMP JUMPDEST PUSH0 PUSH2 0x1C72 DUP3 PUSH2 0x1C16 JUMP JUMPDEST PUSH2 0x1C7C DUP2 DUP6 PUSH2 0x1C20 JUMP JUMPDEST SWAP4 POP PUSH2 0x1C8C DUP2 DUP6 PUSH1 0x20 DUP7 ADD PUSH2 0x1C30 JUMP JUMPDEST PUSH2 0x1C95 DUP2 PUSH2 0x1C58 JUMP JUMPDEST DUP5 ADD SWAP2 POP POP SWAP3 SWAP2 POP POP JUMP JUMPDEST PUSH0 PUSH1 0x20 DUP3 ADD SWAP1 POP DUP2 DUP2 SUB PUSH0 DUP4 ADD MSTORE PUSH2 0x1CB8 DUP2 DUP5 PUSH2 0x1C68 JUMP JUMPDEST SWAP1 POP SWAP3 SWAP2 POP POP JUMP JUMPDEST PUSH0 DUP2 SWAP1 POP SWAP2 SWAP1 POP JUMP JUMPDEST PUSH2 0x1CD2 DUP2 PUSH2 0x1CC0 JUMP JUMPDEST DUP2 EQ PUSH2 0x1CDC JUMPI PUSH0 DUP1 REVERT JUMPDEST POP JUMP JUMPDEST PUSH0 DUP2 CALLDATALOAD SWAP1 POP PUSH2 0x1CED DUP2 PUSH2 0x1CC9 JUMP JUMPDEST SWAP3 SWAP2 POP POP JUMP JUMPDEST PUSH0 PUSH1 0x20 DUP3 DUP5 SUB SLT ISZERO PUSH2 0x1D08 JUMPI PUSH2 0x1D07 PUSH2 0x1B5B JUMP JUMPDEST JUMPDEST PUSH0 PUSH2 0x1D15 DUP5 DUP3 DUP6 ADD PUSH2 0x1CDF JUMP JUMPDEST SWAP2 POP POP SWAP3 SWAP2 POP POP JUMP JUMPDEST PUSH0 PUSH20 0xFFFFFFFFFFFFFFFFFFFFFFFFFFFFFFFFFFFFFFFF DUP3 AND SWAP1 POP SWAP2 SWAP1 POP JUMP JUMPDEST PUSH0 PUSH2 0x1D47 DUP3 PUSH2 0x1D1E JUMP JUMPDEST SWAP1 POP SWAP2 SWAP1 POP JUMP JUMPDEST PUSH2 0x1D57 DUP2 PUSH2 0x1D3D JUMP JUMPDEST DUP3 MSTORE POP POP JUMP JUMPDEST PUSH0 PUSH1 0x20 DUP3 ADD SWAP1 POP PUSH2 0x1D70 PUSH0 DUP4 ADD DUP5 PUSH2 0x1D4E JUMP JUMPDEST SWAP3 SWAP2 POP POP JUMP JUMPDEST PUSH2 0x1D7F DUP2 PUSH2 0x1D3D JUMP JUMPDEST DUP2 EQ PUSH2 0x1D89 JUMPI PUSH0 DUP1 REVERT JUMPDEST POP JUMP JUMPDEST PUSH0 DUP2 CALLDATALOAD SWAP1 POP PUSH2 0x1D9A DUP2 PUSH2 0x1D76 JUMP JUMPDEST SWAP3 SWAP2 POP POP JUMP JUMPDEST PUSH0 DUP1 PUSH1 0x40 DUP4 DUP6 SUB SLT ISZERO PUSH2 0x1DB6 JUMPI PUSH2 0x1DB5 PUSH2 0x1B5B JUMP JUMPDEST JUMPDEST PUSH0 PUSH2 0x1DC3 DUP6 DUP3 DUP7 ADD PUSH2 0x1D8C JUMP JUMPDEST SWAP3 POP POP PUSH1 0x20 PUSH2 0x1DD4 DUP6 DUP3 DUP7 ADD PUSH2 0x1CDF JUMP JUMPDEST SWAP2 POP POP SWAP3 POP SWAP3 SWAP1 POP JUMP JUMPDEST PUSH0 PUSH1 0x20 DUP3 DUP5 SUB SLT ISZERO PUSH2 0x1DF3 JUMPI PUSH2 0x1DF2 PUSH2 0x1B5B JUMP JUMPDEST JUMPDEST PUSH0 PUSH2 0x1E00 DUP5 DUP3 DUP6 ADD PUSH2 0x1D8C JUMP JUMPDEST SWAP2 POP POP SWAP3 SWAP2 POP POP JUMP JUMPDEST PUSH0 DUP2 MLOAD SWAP1 POP SWAP2 SWAP1 POP JUMP JUMPDEST PUSH0 DUP3 DUP3 MSTORE PUSH1 0x20 DUP3 ADD SWAP1 POP SWAP3 SWAP2 POP POP JUMP JUMPDEST PUSH0 DUP2 SWAP1 POP PUSH1 0x20 DUP3 ADD SWAP1 POP SWAP2 SWAP1 POP JUMP JUMPDEST PUSH2 0x1E3B DUP2 PUSH2 0x1CC0 JUMP JUMPDEST DUP3 MSTORE POP POP JUMP JUMPDEST PUSH0 DUP3 DUP3 MSTORE PUSH1 0x20 DUP3 ADD SWAP1 POP SWAP3 SWAP2 POP POP JUMP JUMPDEST PUSH0 PUSH2 0x1E5B DUP3 PUSH2 0x1C16 JUMP JUMPDEST PUSH2 0x1E65 DUP2 DUP6 PUSH2 0x1E41 JUMP JUMPDEST SWAP4 POP PUSH2 0x1E75 DUP2 DUP6 PUSH1 0x20 DUP7 ADD PUSH2 0x1C30 JUMP JUMPDEST PUSH2 0x1E7E DUP2 PUSH2 0x1C58 JUMP JUMPDEST DUP5 ADD SWAP2 POP POP SWAP3 SWAP2 POP POP JUMP JUMPDEST PUSH0 PUSH1 0x40 DUP4 ADD PUSH0 DUP4 ADD MLOAD DUP5 DUP3 SUB PUSH0 DUP7 ADD MSTORE PUSH2 0x1EA3 DUP3 DUP3 PUSH2 0x1E51 JUMP JUMPDEST SWAP2 POP POP PUSH1 0x20 DUP4 ADD MLOAD PUSH2 0x1EB8 PUSH1 0x20 DUP7 ADD DUP3 PUSH2 0x1E32 JUMP JUMPDEST POP DUP1 SWAP2 POP POP SWAP3 SWAP2 POP POP JUMP JUMPDEST PUSH0 PUSH1 0x40 DUP4 ADD PUSH0 DUP4 ADD MLOAD PUSH2 0x1ED8 PUSH0 DUP7 ADD DUP3 PUSH2 0x1E32 JUMP JUMPDEST POP PUSH1 0x20 DUP4 ADD MLOAD DUP5 DUP3 SUB PUSH1 0x20 DUP7 ADD MSTORE PUSH2 0x1EF0 DUP3 DUP3 PUSH2 0x1E89 JUMP JUMPDEST SWAP2 POP POP DUP1 SWAP2 POP POP SWAP3 SWAP2 POP POP JUMP JUMPDEST PUSH0 PUSH2 0x1F08 DUP4 DUP4 PUSH2 0x1EC3 JUMP JUMPDEST SWAP1 POP SWAP3 SWAP2 POP POP JUMP JUMPDEST PUSH0 PUSH1 0x20 DUP3 ADD SWAP1 POP SWAP2 SWAP1 POP JUMP JUMPDEST PUSH0 PUSH2 0x1F26 DUP3 PUSH2 0x1E09 JUMP JUMPDEST PUSH2 0x1F30 DUP2 DUP6 PUSH2 0x1E13 JUMP JUMPDEST SWAP4 POP DUP4 PUSH1 0x20 DUP3 MUL DUP6 ADD PUSH2 0x1F42 DUP6 PUSH2 0x1E23 JUMP JUMPDEST DUP1 PUSH0 JUMPDEST DUP6 DUP2 LT ISZERO PUSH2 0x1F7D JUMPI DUP5 DUP5 SUB DUP10 MSTORE DUP2 MLOAD PUSH2 0x1F5E DUP6 DUP3 PUSH2 0x1EFD JUMP JUMPDEST SWAP5 POP PUSH2 0x1F69 DUP4 PUSH2 0x1F10 JUMP JUMPDEST SWAP3 POP PUSH1 0x20 DUP11 ADD SWAP10 POP POP PUSH1 0x1 DUP2 ADD SWAP1 POP PUSH2 0x1F45 JUMP JUMPDEST POP DUP3 SWAP8 POP DUP8 SWAP6 POP POP POP POP POP POP SWAP3 SWAP2 POP POP JUMP JUMPDEST PUSH0 PUSH1 0x20 DUP3 ADD SWAP1 POP DUP2 DUP2 SUB PUSH0 DUP4 ADD MSTORE PUSH2 0x1FA7 DUP2 DUP5 PUSH2 0x1F1C JUMP JUMPDEST SWAP1 POP SWAP3 SWAP2 POP POP JUMP JUMPDEST PUSH0 DUP1 PUSH0 PUSH1 0x60 DUP5 DUP7 SUB SLT ISZERO PUSH2 0x1FC6 JUMPI PUSH2 0x1FC5 PUSH2 0x1B5B JUMP JUMPDEST JUMPDEST PUSH0 PUSH2 0x1FD3 DUP7 DUP3 DUP8 ADD PUSH2 0x1D8C JUMP JUMPDEST SWAP4 POP POP PUSH1 0x20 PUSH2 0x1FE4 DUP7 DUP3 DUP8 ADD PUSH2 0x1D8C JUMP JUMPDEST SWAP3 POP POP PUSH1 0x40 PUSH2 0x1FF5 DUP7 DUP3 DUP8 ADD PUSH2 0x1CDF JUMP JUMPDEST SWAP2 POP POP SWAP3 POP SWAP3 POP SWAP3 JUMP JUMPDEST PUSH0 DUP2 MLOAD SWAP1 POP SWAP2 SWAP1 POP JUMP JUMPDEST PUSH0 DUP3 DUP3 MSTORE PUSH1 0x20 DUP3 ADD SWAP1 POP SWAP3 SWAP2 POP POP JUMP JUMPDEST PUSH0 DUP2 SWAP1 POP PUSH1 0x20 DUP3 ADD SWAP1 POP SWAP2 SWAP1 POP JUMP JUMPDEST PUSH0 PUSH2 0x2033 DUP4 DUP4 PUSH2 0x1E51 JUMP JUMPDEST SWAP1 POP SWAP3 SWAP2 POP POP JUMP JUMPDEST PUSH0 PUSH1 0x20 DUP3 ADD SWAP1 POP SWAP2 SWAP1 POP JUMP JUMPDEST PUSH0 PUSH2 0x2051 DUP3 PUSH2 0x1FFF JUMP JUMPDEST PUSH2 0x205B DUP2 DUP6 PUSH2 0x2009 JUMP JUMPDEST SWAP4 POP DUP4 PUSH1 0x20 DUP3 MUL DUP6 ADD PUSH2 0x206D DUP6 PUSH2 0x2019 JUMP JUMPDEST DUP1 PUSH0 JUMPDEST DUP6 DUP2 LT ISZERO PUSH2 0x20A8 JUMPI DUP5 DUP5 SUB DUP10 MSTORE DUP2 MLOAD PUSH2 0x2089 DUP6 DUP3 PUSH2 0x2028 JUMP JUMPDEST SWAP5 POP PUSH2 0x2094 DUP4 PUSH2 0x203B JUMP JUMPDEST SWAP3 POP PUSH1 0x20 DUP11 ADD SWAP10 POP POP PUSH1 0x1 DUP2 ADD SWAP1 POP PUSH2 0x2070 JUMP JUMPDEST POP DUP3 SWAP8 POP DUP8 SWAP6 POP POP POP POP POP POP SWAP3 SWAP2 POP POP JUMP JUMPDEST PUSH0 PUSH1 0x20 DUP3 ADD SWAP1 POP DUP2 DUP2 SUB PUSH0 DUP4 ADD MSTORE PUSH2 0x20D2 DUP2 DUP5 PUSH2 0x2047 JUMP JUMPDEST SWAP1 POP SWAP3 SWAP2 POP POP JUMP JUMPDEST PUSH2 0x20E3 DUP2 PUSH2 0x1CC0 JUMP JUMPDEST DUP3 MSTORE POP POP JUMP JUMPDEST PUSH0 PUSH1 0x20 DUP3 ADD SWAP1 POP PUSH2 0x20FC PUSH0 DUP4 ADD DUP5 PUSH2 0x20DA JUMP JUMPDEST SWAP3 SWAP2 POP POP JUMP JUMPDEST PUSH0 DUP1 REVERT JUMPDEST PUSH0 DUP1 REVERT JUMPDEST PUSH32 0x4E487B7100000000000000000000000000000000000000000000000000000000 PUSH0 MSTORE PUSH1 0x41 PUSH1 0x4 MSTORE PUSH1 0x24 PUSH0 REVERT JUMPDEST PUSH2 0x2140 DUP3 PUSH2 0x1C58 JUMP JUMPDEST DUP2 ADD DUP2 DUP2 LT PUSH8 0xFFFFFFFFFFFFFFFF DUP3 GT OR ISZERO PUSH2 0x215F JUMPI PUSH2 0x215E PUSH2 0x210A JUMP JUMPDEST JUMPDEST DUP1 PUSH1 0x40 MSTORE POP POP POP JUMP JUMPDEST PUSH0 PUSH2 0x2171 PUSH2 0x1B52 JUMP JUMPDEST SWAP1 POP PUSH2 0x217D DUP3 DUP3 PUSH2 0x2137 JUMP JUMPDEST SWAP2 SWAP1 POP JUMP JUMPDEST PUSH0 PUSH8 0xFFFFFFFFFFFFFFFF DUP3 GT ISZERO PUSH2 0x219C JUMPI PUSH2 0x219B PUSH2 0x210A JUMP JUMPDEST JUMPDEST PUSH2 0x21A5 DUP3 PUSH2 0x1C58 JUMP JUMPDEST SWAP1 POP PUSH1 0x20 DUP2 ADD SWAP1 POP SWAP2 SWAP1 POP JUMP JUMPDEST DUP3 DUP2 DUP4 CALLDATACOPY PUSH0 DUP4 DUP4 ADD MSTORE POP POP POP JUMP JUMPDEST PUSH0 PUSH2 0x21D2 PUSH2 0x21CD DUP5 PUSH2 0x2182 JUMP JUMPDEST PUSH2 0x2168 JUMP JUMPDEST SWAP1 POP DUP3 DUP2 MSTORE PUSH1 0x20 DUP2 ADD DUP5 DUP5 DUP5 ADD GT ISZERO PUSH2 0x21EE JUMPI PUSH2 0x21ED PUSH2 0x2106 JUMP JUMPDEST JUMPDEST PUSH2 0x21F9 DUP5 DUP3 DUP6 PUSH2 0x21B2 JUMP JUMPDEST POP SWAP4 SWAP3 POP POP POP JUMP JUMPDEST PUSH0 DUP3 PUSH1 0x1F DUP4 ADD SLT PUSH2 0x2215 JUMPI PUSH2 0x2214 PUSH2 0x2102 JUMP JUMPDEST JUMPDEST DUP2 CALLDATALOAD PUSH2 0x2225 DUP5 DUP3 PUSH1 0x20 DUP7 ADD PUSH2 0x21C0 JUMP JUMPDEST SWAP2 POP POP SWAP3 SWAP2 POP POP JUMP JUMPDEST PUSH0 PUSH1 0x20 DUP3 DUP5 SUB SLT ISZERO PUSH2 0x2243 JUMPI PUSH2 0x2242 PUSH2 0x1B5B JUMP JUMPDEST JUMPDEST PUSH0 DUP3 ADD CALLDATALOAD PUSH8 0xFFFFFFFFFFFFFFFF DUP2 GT ISZERO PUSH2 0x2260 JUMPI PUSH2 0x225F PUSH2 0x1B5F JUMP JUMPDEST JUMPDEST PUSH2 0x226C DUP5 DUP3 DUP6 ADD PUSH2 0x2201 JUMP JUMPDEST SWAP2 POP POP SWAP3 SWAP2 POP POP JUMP JUMPDEST PUSH0 DUP1 PUSH1 0x40 DUP4 DUP6 SUB SLT ISZERO PUSH2 0x228B JUMPI PUSH2 0x228A PUSH2 0x1B5B JUMP JUMPDEST JUMPDEST PUSH0 DUP4 ADD CALLDATALOAD PUSH8 0xFFFFFFFFFFFFFFFF DUP2 GT ISZERO PUSH2 0x22A8 JUMPI PUSH2 0x22A7 PUSH2 0x1B5F JUMP JUMPDEST JUMPDEST PUSH2 0x22B4 DUP6 DUP3 DUP7 ADD PUSH2 0x2201 JUMP JUMPDEST SWAP3 POP POP PUSH1 0x20 DUP4 ADD CALLDATALOAD PUSH8 0xFFFFFFFFFFFFFFFF DUP2 GT ISZERO PUSH2 0x22D5 JUMPI PUSH2 0x22D4 PUSH2 0x1B5F JUMP JUMPDEST JUMPDEST PUSH2 0x22E1 DUP6 DUP3 DUP7 ADD PUSH2 0x2201 JUMP JUMPDEST SWAP2 POP POP SWAP3 POP SWAP3 SWAP1 POP JUMP JUMPDEST PUSH2 0x22F4 DUP2 PUSH2 0x1BE3 JUMP JUMPDEST DUP2 EQ PUSH2 0x22FE JUMPI PUSH0 DUP1 REVERT JUMPDEST POP JUMP JUMPDEST PUSH0 DUP2 CALLDATALOAD SWAP1 POP PUSH2 0x230F DUP2 PUSH2 0x22EB JUMP JUMPDEST SWAP3 SWAP2 POP POP JUMP JUMPDEST PUSH0 DUP1 PUSH1 0x40 DUP4 DUP6 SUB SLT ISZERO PUSH2 0x232B JUMPI PUSH2 0x232A PUSH2 0x1B5B JUMP JUMPDEST JUMPDEST PUSH0 PUSH2 0x2338 DUP6 DUP3 DUP7 ADD PUSH2 0x1D8C JUMP JUMPDEST SWAP3 POP POP PUSH1 0x20 PUSH2 0x2349 DUP6 DUP3 DUP7 ADD PUSH2 0x2301 JUMP JUMPDEST SWAP2 POP POP SWAP3 POP SWAP3 SWAP1 POP JUMP JUMPDEST PUSH0 PUSH8 0xFFFFFFFFFFFFFFFF DUP3 GT ISZERO PUSH2 0x236D JUMPI PUSH2 0x236C PUSH2 0x210A JUMP JUMPDEST JUMPDEST PUSH2 0x2376 DUP3 PUSH2 0x1C58 JUMP JUMPDEST SWAP1 POP PUSH1 0x20 DUP2 ADD SWAP1 POP SWAP2 SWAP1 POP JUMP JUMPDEST PUSH0 PUSH2 0x2395 PUSH2 0x2390 DUP5 PUSH2 0x2353 JUMP JUMPDEST PUSH2 0x2168 JUMP JUMPDEST SWAP1 POP DUP3 DUP2 MSTORE PUSH1 0x20 DUP2 ADD DUP5 DUP5 DUP5 ADD GT ISZERO PUSH2 0x23B1 JUMPI PUSH2 0x23B0 PUSH2 0x2106 JUMP JUMPDEST JUMPDEST PUSH2 0x23BC DUP5 DUP3 DUP6 PUSH2 0x21B2 JUMP JUMPDEST POP SWAP4 SWAP3 POP POP POP JUMP JUMPDEST PUSH0 DUP3 PUSH1 0x1F DUP4 ADD SLT PUSH2 0x23D8 JUMPI PUSH2 0x23D7 PUSH2 0x2102 JUMP JUMPDEST JUMPDEST DUP2 CALLDATALOAD PUSH2 0x23E8 DUP5 DUP3 PUSH1 0x20 DUP7 ADD PUSH2 0x2383 JUMP JUMPDEST SWAP2 POP POP SWAP3 SWAP2 POP POP JUMP JUMPDEST PUSH0 DUP1 PUSH0 DUP1 PUSH1 0x80 DUP6 DUP8 SUB SLT ISZERO PUSH2 0x2409 JUMPI PUSH2 0x2408 PUSH2 0x1B5B JUMP JUMPDEST JUMPDEST PUSH0 PUSH2 0x2416 DUP8 DUP3 DUP9 ADD PUSH2 0x1D8C JUMP JUMPDEST SWAP5 POP POP PUSH1 0x20 PUSH2 0x2427 DUP8 DUP3 DUP9 ADD PUSH2 0x1D8C JUMP JUMPDEST SWAP4 POP POP PUSH1 0x40 PUSH2 0x2438 DUP8 DUP3 DUP9 ADD PUSH2 0x1CDF JUMP JUMPDEST SWAP3 POP POP PUSH1 0x60 DUP6 ADD CALLDATALOAD PUSH8 0xFFFFFFFFFFFFFFFF DUP2 GT ISZERO PUSH2 0x2459 JUMPI PUSH2 0x2458 PUSH2 0x1B5F JUMP JUMPDEST JUMPDEST PUSH2 0x2465 DUP8 DUP3 DUP9 ADD PUSH2 0x23C4 JUMP JUMPDEST SWAP2 POP POP SWAP3 SWAP6 SWAP2 SWAP5 POP SWAP3 POP JUMP JUMPDEST PUSH0 DUP1 PUSH1 0x40 DUP4 DUP6 SUB SLT ISZERO PUSH2 0x2487 JUMPI PUSH2 0x2486 PUSH2 0x1B5B JUMP JUMPDEST JUMPDEST PUSH0 PUSH2 0x2494 DUP6 DUP3 DUP7 ADD PUSH2 0x1D8C JUMP JUMPDEST SWAP3 POP POP PUSH1 0x20 PUSH2 0x24A5 DUP6 DUP3 DUP7 ADD PUSH2 0x1D8C JUMP JUMPDEST SWAP2 POP POP SWAP3 POP SWAP3 SWAP1 POP JUMP JUMPDEST PUSH32 0x4E487B7100000000000000000000000000000000000000000000000000000000 PUSH0 MSTORE PUSH1 0x22 PUSH1 0x4 MSTORE PUSH1 0x24 PUSH0 REVERT JUMPDEST PUSH0 PUSH1 0x2 DUP3 DIV SWAP1 POP PUSH1 0x1 DUP3 AND DUP1 PUSH2 0x24F3 JUMPI PUSH1 0x7F DUP3 AND SWAP2 POP JUMPDEST PUSH1 0x20 DUP3 LT DUP2 SUB PUSH2 0x2506 JUMPI PUSH2 0x2505 PUSH2 0x24AF JUMP JUMPDEST JUMPDEST POP SWAP2 SWAP1 POP JUMP JUMPDEST PUSH32 0x4E487B7100000000000000000000000000000000000000000000000000000000 PUSH0 MSTORE PUSH1 0x32 PUSH1 0x4 MSTORE PUSH1 0x24 PUSH0 REVERT JUMPDEST PUSH32 0x4E487B7100000000000000000000000000000000000000000000000000000000 PUSH0 MSTORE PUSH1 0x11 PUSH1 0x4 MSTORE PUSH1 0x24 PUSH0 REVERT JUMPDEST PUSH0 PUSH2 0x2570 DUP3 PUSH2 0x1CC0 JUMP JUMPDEST SWAP2 POP PUSH32 0xFFFFFFFFFFFFFFFFFFFFFFFFFFFFFFFFFFFFFFFFFFFFFFFFFFFFFFFFFFFFFFFF DUP3 SUB PUSH2 0x25A2 JUMPI PUSH2 0x25A1 PUSH2 0x2539 JUMP JUMPDEST JUMPDEST PUSH1 0x1 DUP3 ADD SWAP1 POP SWAP2 SWAP1 POP JUMP JUMPDEST PUSH0 PUSH1 0x60 DUP3 ADD SWAP1 POP PUSH2 0x25C0 PUSH0 DUP4 ADD DUP7 PUSH2 0x1D4E JUMP JUMPDEST PUSH2 0x25CD PUSH1 0x20 DUP4 ADD DUP6 PUSH2 0x20DA JUMP JUMPDEST PUSH2 0x25DA PUSH1 0x40 DUP4 ADD DUP5 PUSH2 0x1D4E JUMP JUMPDEST SWAP5 SWAP4 POP POP POP POP JUMP JUMPDEST PUSH0 DUP2 SWAP1 POP SWAP3 SWAP2 POP POP JUMP JUMPDEST PUSH0 PUSH2 0x25F6 DUP3 PUSH2 0x1C16 JUMP JUMPDEST PUSH2 0x2600 DUP2 DUP6 PUSH2 0x25E2 JUMP JUMPDEST SWAP4 POP PUSH2 0x2610 DUP2 DUP6 PUSH1 0x20 DUP7 ADD PUSH2 0x1C30 JUMP JUMPDEST DUP1 DUP5 ADD SWAP2 POP POP SWAP3 SWAP2 POP POP JUMP JUMPDEST PUSH0 PUSH2 0x2627 DUP3 DUP5 PUSH2 0x25EC JUMP JUMPDEST SWAP2 POP DUP2 SWAP1 POP SWAP3 SWAP2 POP POP JUMP JUMPDEST PUSH32 0x4E487B7100000000000000000000000000000000000000000000000000000000 PUSH0 MSTORE PUSH1 0x12 PUSH1 0x4 MSTORE PUSH1 0x24 PUSH0 REVERT JUMPDEST PUSH0 PUSH2 0x2669 DUP3 PUSH2 0x1CC0 JUMP JUMPDEST SWAP2 POP PUSH2 0x2674 DUP4 PUSH2 0x1CC0 JUMP JUMPDEST SWAP3 POP DUP3 PUSH2 0x2684 JUMPI PUSH2 0x2683 PUSH2 0x2632 JUMP JUMPDEST JUMPDEST DUP3 DUP3 MOD SWAP1 POP SWAP3 SWAP2 POP POP JUMP JUMPDEST PUSH0 PUSH2 0x2699 DUP3 PUSH2 0x1CC0 JUMP JUMPDEST SWAP2 POP PUSH2 0x26A4 DUP4 PUSH2 0x1CC0 JUMP JUMPDEST SWAP3 POP DUP3 DUP3 ADD SWAP1 POP DUP1 DUP3 GT ISZERO PUSH2 0x26BC JUMPI PUSH2 0x26BB PUSH2 0x2539 JUMP JUMPDEST JUMPDEST SWAP3 SWAP2 POP POP JUMP JUMPDEST PUSH0 DUP2 SWAP1 POP DUP2 PUSH0 MSTORE PUSH1 0x20 PUSH0 KECCAK256 SWAP1 POP SWAP2 SWAP1 POP JUMP JUMPDEST PUSH0 PUSH1 0x20 PUSH1 0x1F DUP4 ADD DIV SWAP1 POP SWAP2 SWAP1 POP JUMP JUMPDEST PUSH0 DUP3 DUP3 SHL SWAP1 POP SWAP3 SWAP2 POP POP JUMP JUMPDEST PUSH0 PUSH1 0x8 DUP4 MUL PUSH2 0x271E PUSH32 0xFFFFFFFFFFFFFFFFFFFFFFFFFFFFFFFFFFFFFFFFFFFFFFFFFFFFFFFFFFFFFFFF DUP3 PUSH2 0x26E3 JUMP JUMPDEST PUSH2 0x2728 DUP7 DUP4 PUSH2 0x26E3 JUMP JUMPDEST SWAP6 POP DUP1 NOT DUP5 AND SWAP4 POP DUP1 DUP7 AND DUP5 OR SWAP3 POP POP POP SWAP4 SWAP3 POP POP POP JUMP JUMPDEST PUSH0 DUP2 SWAP1 POP SWAP2 SWAP1 POP JUMP JUMPDEST PUSH0 PUSH2 0x2763 PUSH2 0x275E PUSH2 0x2759 DUP5 PUSH2 0x1CC0 JUMP JUMPDEST PUSH2 0x2740 JUMP JUMPDEST PUSH2 0x1CC0 JUMP JUMPDEST SWAP1 POP SWAP2 SWAP1 POP JUMP JUMPDEST PUSH0 DUP2 SWAP1 POP SWAP2 SWAP1 POP JUMP JUMPDEST PUSH2 0x277C DUP4 PUSH2 0x2749 JUMP JUMPDEST PUSH2 0x2790 PUSH2 0x2788 DUP3 PUSH2 0x276A JUMP JUMPDEST DUP5 DUP5 SLOAD PUSH2 0x26EF JUMP JUMPDEST DUP3 SSTORE POP POP POP POP JUMP JUMPDEST PUSH0 SWAP1 JUMP JUMPDEST PUSH2 0x27A4 PUSH2 0x2798 JUMP JUMPDEST PUSH2 0x27AF DUP2 DUP5 DUP5 PUSH2 0x2773 JUMP JUMPDEST POP POP POP JUMP JUMPDEST JUMPDEST DUP2 DUP2 LT ISZERO PUSH2 0x27D2 JUMPI PUSH2 0x27C7 PUSH0 DUP3 PUSH2 0x279C JUMP JUMPDEST PUSH1 0x1 DUP2 ADD SWAP1 POP PUSH2 0x27B5 JUMP JUMPDEST POP POP JUMP JUMPDEST PUSH1 0x1F DUP3 GT ISZERO PUSH2 0x2817 JUMPI PUSH2 0x27E8 DUP2 PUSH2 0x26C2 JUMP JUMPDEST PUSH2 0x27F1 DUP5 PUSH2 0x26D4 JUMP JUMPDEST DUP2 ADD PUSH1 0x20 DUP6 LT ISZERO PUSH2 0x2800 JUMPI DUP2 SWAP1 POP JUMPDEST PUSH2 0x2814 PUSH2 0x280C DUP6 PUSH2 0x26D4 JUMP JUMPDEST DUP4 ADD DUP3 PUSH2 0x27B4 JUMP JUMPDEST POP POP JUMPDEST POP POP POP JUMP JUMPDEST PUSH0 DUP3 DUP3 SHR SWAP1 POP SWAP3 SWAP2 POP POP JUMP JUMPDEST PUSH0 PUSH2 0x2837 PUSH0 NOT DUP5 PUSH1 0x8 MUL PUSH2 0x281C JUMP JUMPDEST NOT DUP1 DUP4 AND SWAP2 POP POP SWAP3 SWAP2 POP POP JUMP JUMPDEST PUSH0 PUSH2 0x284F DUP4 DUP4 PUSH2 0x2828 JUMP JUMPDEST SWAP2 POP DUP3 PUSH1 0x2 MUL DUP3 OR SWAP1 POP SWAP3 SWAP2 POP POP JUMP JUMPDEST PUSH2 0x2868 DUP3 PUSH2 0x1C16 JUMP JUMPDEST PUSH8 0xFFFFFFFFFFFFFFFF DUP2 GT ISZERO PUSH2 0x2881 JUMPI PUSH2 0x2880 PUSH2 0x210A JUMP JUMPDEST JUMPDEST PUSH2 0x288B DUP3 SLOAD PUSH2 0x24DC JUMP JUMPDEST PUSH2 0x2896 DUP3 DUP3 DUP6 PUSH2 0x27D6 JUMP JUMPDEST PUSH0 PUSH1 0x20 SWAP1 POP PUSH1 0x1F DUP4 GT PUSH1 0x1 DUP2 EQ PUSH2 0x28C7 JUMPI PUSH0 DUP5 ISZERO PUSH2 0x28B5 JUMPI DUP3 DUP8 ADD MLOAD SWAP1 POP JUMPDEST PUSH2 0x28BF DUP6 DUP3 PUSH2 0x2844 JUMP JUMPDEST DUP7 SSTORE POP PUSH2 0x2926 JUMP JUMPDEST PUSH1 0x1F NOT DUP5 AND PUSH2 0x28D5 DUP7 PUSH2 0x26C2 JUMP JUMPDEST PUSH0 JUMPDEST DUP3 DUP2 LT ISZERO PUSH2 0x28FC JUMPI DUP5 DUP10 ADD MLOAD DUP3 SSTORE PUSH1 0x1 DUP3 ADD SWAP2 POP PUSH1 0x20 DUP6 ADD SWAP5 POP PUSH1 0x20 DUP2 ADD SWAP1 POP PUSH2 0x28D7 JUMP JUMPDEST DUP7 DUP4 LT ISZERO PUSH2 0x2919 JUMPI DUP5 DUP10 ADD MLOAD PUSH2 0x2915 PUSH1 0x1F DUP10 AND DUP3 PUSH2 0x2828 JUMP JUMPDEST DUP4 SSTORE POP JUMPDEST PUSH1 0x1 PUSH1 0x2 DUP9 MUL ADD DUP9 SSTORE POP POP POP JUMPDEST POP POP POP POP POP POP JUMP JUMPDEST PUSH0 PUSH2 0x2938 DUP3 PUSH2 0x1CC0 JUMP JUMPDEST SWAP2 POP PUSH2 0x2943 DUP4 PUSH2 0x1CC0 JUMP JUMPDEST SWAP3 POP DUP3 DUP3 SUB SWAP1 POP DUP2 DUP2 GT ISZERO PUSH2 0x295B JUMPI PUSH2 0x295A PUSH2 0x2539 JUMP JUMPDEST JUMPDEST SWAP3 SWAP2 POP POP JUMP JUMPDEST PUSH0 DUP2 MLOAD SWAP1 POP SWAP2 SWAP1 POP JUMP JUMPDEST PUSH0 DUP3 DUP3 MSTORE PUSH1 0x20 DUP3 ADD SWAP1 POP SWAP3 SWAP2 POP POP JUMP JUMPDEST PUSH0 PUSH2 0x2985 DUP3 PUSH2 0x2961 JUMP JUMPDEST PUSH2 0x298F DUP2 DUP6 PUSH2 0x296B JUMP JUMPDEST SWAP4 POP PUSH2 0x299F DUP2 DUP6 PUSH1 0x20 DUP7 ADD PUSH2 0x1C30 JUMP JUMPDEST PUSH2 0x29A8 DUP2 PUSH2 0x1C58 JUMP JUMPDEST DUP5 ADD SWAP2 POP POP SWAP3 SWAP2 POP POP JUMP JUMPDEST PUSH0 PUSH1 0x80 DUP3 ADD SWAP1 POP PUSH2 0x29C6 PUSH0 DUP4 ADD DUP8 PUSH2 0x1D4E JUMP JUMPDEST PUSH2 0x29D3 PUSH1 0x20 DUP4 ADD DUP7 PUSH2 0x1D4E JUMP JUMPDEST PUSH2 0x29E0 PUSH1 0x40 DUP4 ADD DUP6 PUSH2 0x20DA JUMP JUMPDEST DUP2 DUP2 SUB PUSH1 0x60 DUP4 ADD MSTORE PUSH2 0x29F2 DUP2 DUP5 PUSH2 0x297B JUMP JUMPDEST SWAP1 POP SWAP6 SWAP5 POP POP POP POP POP JUMP JUMPDEST PUSH0 DUP2 MLOAD SWAP1 POP PUSH2 0x2A0B DUP2 PUSH2 0x1B8E JUMP JUMPDEST SWAP3 SWAP2 POP POP JUMP JUMPDEST PUSH0 PUSH1 0x20 DUP3 DUP5 SUB SLT ISZERO PUSH2 0x2A26 JUMPI PUSH2 0x2A25 PUSH2 0x1B5B JUMP JUMPDEST JUMPDEST PUSH0 PUSH2 0x2A33 DUP5 DUP3 DUP6 ADD PUSH2 0x29FD JUMP JUMPDEST SWAP2 POP POP SWAP3 SWAP2 POP POP JUMP JUMPDEST PUSH0 PUSH1 0x40 DUP3 ADD SWAP1 POP PUSH2 0x2A4F PUSH0 DUP4 ADD DUP6 PUSH2 0x1D4E JUMP JUMPDEST PUSH2 0x2A5C PUSH1 0x20 DUP4 ADD DUP5 PUSH2 0x20DA JUMP JUMPDEST SWAP4 SWAP3 POP POP POP JUMP INVALID LOG2 PUSH5 0x6970667358 0x22 SLT KECCAK256 SWAP12 INVALID PC DUP9 DUP11 0xE7 0xC2 0xDE 0x2F PUSH12 0x665A7F4A0DB10FB255AE76AC ISZERO 0xBB SWAP10 0xCB SWAP4 SAR PC EXP 0xE PUSH31 0x64736F6C634300081400330000000000000000000000000000000000000000 "
				},
				"gasEstimates": {
					"creation": {
						"codeDepositCost": "2181000",
						"executionCost": "infinite",
						"totalCost": "infinite"
					},
					"external": {
						"approve(address,uint256)": "infinite",
						"balanceOf(address)": "infinite",
						"getApproved(uint256)": "infinite",
						"getOwnerTokenMetaData(address)": "infinite",
						"getOwnerURIs(address)": "infinite",
						"getTokenRanking(uint256)": "infinite",
						"getTokenURI(uint256)": "infinite",
						"isApprovedForAll(address,address)": "infinite",
						"makeRandom(string)": "infinite",
						"minting(string,string)": "infinite",
						"name()": "infinite",
						"ownerOf(uint256)": "infinite",
						"safeTransferFrom(address,address,uint256)": "infinite",
						"safeTransferFrom(address,address,uint256,bytes)": "infinite",
						"setApprovalForAll(address,bool)": "infinite",
						"supportsInterface(bytes4)": "787",
						"symbol()": "infinite",
						"tokenURI(uint256)": "infinite",
						"transferFrom(address,address,uint256)": "infinite"
					},
					"internal": {
						"_baseURI()": "infinite"
					}
				},
				"methodIdentifiers": {
					"approve(address,uint256)": "095ea7b3",
					"balanceOf(address)": "70a08231",
					"getApproved(uint256)": "081812fc",
					"getOwnerTokenMetaData(address)": "0a48a1ac",
					"getOwnerURIs(address)": "5f0cac76",
					"getTokenRanking(uint256)": "d15a76d2",
					"getTokenURI(uint256)": "3bb3a24d",
					"isApprovedForAll(address,address)": "e985e9c5",
					"makeRandom(string)": "838e4537",
					"minting(string,string)": "8a55a50e",
					"name()": "06fdde03",
					"ownerOf(uint256)": "6352211e",
					"safeTransferFrom(address,address,uint256)": "42842e0e",
					"safeTransferFrom(address,address,uint256,bytes)": "b88d4fde",
					"setApprovalForAll(address,bool)": "a22cb465",
					"supportsInterface(bytes4)": "01ffc9a7",
					"symbol()": "95d89b41",
					"tokenURI(uint256)": "c87b56dd",
					"transferFrom(address,address,uint256)": "23b872dd"
				}
			},
			"storageLayout": {
				"storage": [
					{
						"astId": 451,
						"contract": "myNFT.sol:MyNFT",
						"label": "_name",
						"offset": 0,
						"slot": "0",
						"type": "t_string_storage"
					},
					{
						"astId": 453,
						"contract": "myNFT.sol:MyNFT",
						"label": "_symbol",
						"offset": 0,
						"slot": "1",
						"type": "t_string_storage"
					},
					{
						"astId": 457,
						"contract": "myNFT.sol:MyNFT",
						"label": "_owners",
						"offset": 0,
						"slot": "2",
						"type": "t_mapping(t_uint256,t_address)"
					},
					{
						"astId": 461,
						"contract": "myNFT.sol:MyNFT",
						"label": "_balances",
						"offset": 0,
						"slot": "3",
						"type": "t_mapping(t_address,t_uint256)"
					},
					{
						"astId": 465,
						"contract": "myNFT.sol:MyNFT",
						"label": "_tokenApprovals",
						"offset": 0,
						"slot": "4",
						"type": "t_mapping(t_uint256,t_address)"
					},
					{
						"astId": 471,
						"contract": "myNFT.sol:MyNFT",
						"label": "_operatorApprovals",
						"offset": 0,
						"slot": "5",
						"type": "t_mapping(t_address,t_mapping(t_address,t_bool))"
					},
					{
						"astId": 32,
						"contract": "myNFT.sol:MyNFT",
						"label": "_tokenMetaData",
						"offset": 0,
						"slot": "6",
						"type": "t_mapping(t_uint256,t_struct(TokenMetaData)21_storage)"
					},
					{
						"astId": 35,
						"contract": "myNFT.sol:MyNFT",
						"label": "totalSupply",
						"offset": 0,
						"slot": "7",
						"type": "t_uint256"
					},
					{
						"astId": 40,
						"contract": "myNFT.sol:MyNFT",
						"label": "addressIDs",
						"offset": 0,
						"slot": "8",
						"type": "t_mapping(t_address,t_array(t_uint256)dyn_storage)"
					}
				],
				"types": {
					"t_address": {
						"encoding": "inplace",
						"label": "address",
						"numberOfBytes": "20"
					},
					"t_array(t_uint256)dyn_storage": {
						"base": "t_uint256",
						"encoding": "dynamic_array",
						"label": "uint256[]",
						"numberOfBytes": "32"
					},
					"t_bool": {
						"encoding": "inplace",
						"label": "bool",
						"numberOfBytes": "1"
					},
					"t_mapping(t_address,t_array(t_uint256)dyn_storage)": {
						"encoding": "mapping",
						"key": "t_address",
						"label": "mapping(address => uint256[])",
						"numberOfBytes": "32",
						"value": "t_array(t_uint256)dyn_storage"
					},
					"t_mapping(t_address,t_bool)": {
						"encoding": "mapping",
						"key": "t_address",
						"label": "mapping(address => bool)",
						"numberOfBytes": "32",
						"value": "t_bool"
					},
					"t_mapping(t_address,t_mapping(t_address,t_bool))": {
						"encoding": "mapping",
						"key": "t_address",
						"label": "mapping(address => mapping(address => bool))",
						"numberOfBytes": "32",
						"value": "t_mapping(t_address,t_bool)"
					},
					"t_mapping(t_address,t_uint256)": {
						"encoding": "mapping",
						"key": "t_address",
						"label": "mapping(address => uint256)",
						"numberOfBytes": "32",
						"value": "t_uint256"
					},
					"t_mapping(t_uint256,t_address)": {
						"encoding": "mapping",
						"key": "t_uint256",
						"label": "mapping(uint256 => address)",
						"numberOfBytes": "32",
						"value": "t_address"
					},
					"t_mapping(t_uint256,t_struct(TokenMetaData)21_storage)": {
						"encoding": "mapping",
						"key": "t_uint256",
						"label": "mapping(uint256 => struct MyNFT.TokenMetaData)",
						"numberOfBytes": "32",
						"value": "t_struct(TokenMetaData)21_storage"
					},
					"t_string_storage": {
						"encoding": "bytes",
						"label": "string",
						"numberOfBytes": "32"
					},
					"t_struct(TokenMetaData)21_storage": {
						"encoding": "inplace",
						"label": "struct MyNFT.TokenMetaData",
						"members": [
							{
								"astId": 18,
								"contract": "myNFT.sol:MyNFT",
								"label": "tokenURI",
								"offset": 0,
								"slot": "0",
								"type": "t_string_storage"
							},
							{
								"astId": 20,
								"contract": "myNFT.sol:MyNFT",
								"label": "ranking",
								"offset": 0,
								"slot": "1",
								"type": "t_uint256"
							}
						],
						"numberOfBytes": "64"
					},
					"t_uint256": {
						"encoding": "inplace",
						"label": "uint256",
						"numberOfBytes": "32"
					}
				}
			},
			"userdoc": {
				"kind": "user",
				"methods": {},
				"version": 1
			}
		}
	}
}