{
	"myNFT.sol": {
		"MyNFT": {
			"abi": [
				{
					"inputs": [
						{
							"internalType": "string",
							"name": "_name",
							"type": "string"
						},
						{
							"internalType": "string",
							"name": "_symbol",
							"type": "string"
						}
					],
					"stateMutability": "nonpayable",
					"type": "constructor"
				},
				{
					"inputs": [
						{
							"internalType": "address",
							"name": "sender",
							"type": "address"
						},
						{
							"internalType": "uint256",
							"name": "tokenId",
							"type": "uint256"
						},
						{
							"internalType": "address",
							"name": "owner",
							"type": "address"
						}
					],
					"name": "ERC721IncorrectOwner",
					"type": "error"
				},
				{
					"inputs": [
						{
							"internalType": "address",
							"name": "operator",
							"type": "address"
						},
						{
							"internalType": "uint256",
							"name": "tokenId",
							"type": "uint256"
						}
					],
					"name": "ERC721InsufficientApproval",
					"type": "error"
				},
				{
					"inputs": [
						{
							"internalType": "address",
							"name": "approver",
							"type": "address"
						}
					],
					"name": "ERC721InvalidApprover",
					"type": "error"
				},
				{
					"inputs": [
						{
							"internalType": "address",
							"name": "operator",
							"type": "address"
						}
					],
					"name": "ERC721InvalidOperator",
					"type": "error"
				},
				{
					"inputs": [
						{
							"internalType": "address",
							"name": "owner",
							"type": "address"
						}
					],
					"name": "ERC721InvalidOwner",
					"type": "error"
				},
				{
					"inputs": [
						{
							"internalType": "address",
							"name": "receiver",
							"type": "address"
						}
					],
					"name": "ERC721InvalidReceiver",
					"type": "error"
				},
				{
					"inputs": [
						{
							"internalType": "address",
							"name": "sender",
							"type": "address"
						}
					],
					"name": "ERC721InvalidSender",
					"type": "error"
				},
				{
					"inputs": [
						{
							"internalType": "uint256",
							"name": "tokenId",
							"type": "uint256"
						}
					],
					"name": "ERC721NonexistentToken",
					"type": "error"
				},
				{
					"anonymous": false,
					"inputs": [
						{
							"indexed": true,
							"internalType": "address",
							"name": "owner",
							"type": "address"
						},
						{
							"indexed": true,
							"internalType": "address",
							"name": "approved",
							"type": "address"
						},
						{
							"indexed": true,
							"internalType": "uint256",
							"name": "tokenId",
							"type": "uint256"
						}
					],
					"name": "Approval",
					"type": "event"
				},
				{
					"anonymous": false,
					"inputs": [
						{
							"indexed": true,
							"internalType": "address",
							"name": "owner",
							"type": "address"
						},
						{
							"indexed": true,
							"internalType": "address",
							"name": "operator",
							"type": "address"
						},
						{
							"indexed": false,
							"internalType": "bool",
							"name": "approved",
							"type": "bool"
						}
					],
					"name": "ApprovalForAll",
					"type": "event"
				},
				{
					"anonymous": false,
					"inputs": [
						{
							"indexed": true,
							"internalType": "address",
							"name": "from",
							"type": "address"
						},
						{
							"indexed": true,
							"internalType": "address",
							"name": "to",
							"type": "address"
						},
						{
							"indexed": true,
							"internalType": "uint256",
							"name": "tokenId",
							"type": "uint256"
						}
					],
					"name": "Transfer",
					"type": "event"
				},
				{
					"inputs": [
						{
							"internalType": "address",
							"name": "to",
							"type": "address"
						},
						{
							"internalType": "uint256",
							"name": "tokenId",
							"type": "uint256"
						}
					],
					"name": "approve",
					"outputs": [],
					"stateMutability": "nonpayable",
					"type": "function"
				},
				{
					"inputs": [
						{
							"internalType": "address",
							"name": "owner",
							"type": "address"
						}
					],
					"name": "balanceOf",
					"outputs": [
						{
							"internalType": "uint256",
							"name": "",
							"type": "uint256"
						}
					],
					"stateMutability": "view",
					"type": "function"
				},
				{
					"inputs": [
						{
							"internalType": "uint256",
							"name": "tokenId",
							"type": "uint256"
						}
					],
					"name": "getApproved",
					"outputs": [
						{
							"internalType": "address",
							"name": "",
							"type": "address"
						}
					],
					"stateMutability": "view",
					"type": "function"
				},
				{
					"inputs": [
						{
							"internalType": "address",
							"name": "owner",
							"type": "address"
						}
					],
					"name": "getOwnerTokenMetaData",
					"outputs": [
						{
							"components": [
								{
									"internalType": "uint256",
									"name": "tokenId",
									"type": "uint256"
								},
								{
									"components": [
										{
											"internalType": "string",
											"name": "tokenURI",
											"type": "string"
										},
										{
											"internalType": "uint256",
											"name": "ranking",
											"type": "uint256"
										}
									],
									"internalType": "struct MyNFT.TokenMetaData",
									"name": "metaData",
									"type": "tuple"
								}
							],
							"internalType": "struct MyNFT.TokenIdMetaDataWrapper[]",
							"name": "",
							"type": "tuple[]"
						}
					],
					"stateMutability": "view",
					"type": "function"
				},
				{
					"inputs": [
						{
							"internalType": "address",
							"name": "owner",
							"type": "address"
						}
					],
					"name": "getOwnerURIs",
					"outputs": [
						{
							"internalType": "string[]",
							"name": "",
							"type": "string[]"
						}
					],
					"stateMutability": "view",
					"type": "function"
				},
				{
					"inputs": [
						{
							"internalType": "uint256",
							"name": "tokenId",
							"type": "uint256"
						}
					],
					"name": "getTokenRanking",
					"outputs": [
						{
							"internalType": "uint256",
							"name": "ranking",
							"type": "uint256"
						}
					],
					"stateMutability": "view",
					"type": "function"
				},
				{
					"inputs": [
						{
							"internalType": "uint256",
							"name": "tokenId",
							"type": "uint256"
						}
					],
					"name": "getTokenURI",
					"outputs": [
						{
							"internalType": "string",
							"name": "",
							"type": "string"
						}
					],
					"stateMutability": "view",
					"type": "function"
				},
				{
					"inputs": [
						{
							"internalType": "address",
							"name": "owner",
							"type": "address"
						},
						{
							"internalType": "address",
							"name": "operator",
							"type": "address"
						}
					],
					"name": "isApprovedForAll",
					"outputs": [
						{
							"internalType": "bool",
							"name": "",
							"type": "bool"
						}
					],
					"stateMutability": "view",
					"type": "function"
				},
				{
					"inputs": [
						{
							"internalType": "string",
							"name": "seed",
							"type": "string"
						}
					],
					"name": "makeRandom",
					"outputs": [
						{
							"internalType": "uint256",
							"name": "",
							"type": "uint256"
						}
					],
					"stateMutability": "pure",
					"type": "function"
				},
				{
					"inputs": [
						{
							"internalType": "string",
							"name": "_tokenURI",
							"type": "string"
						},
						{
							"internalType": "string",
							"name": "seed",
							"type": "string"
						}
					],
					"name": "minting",
					"outputs": [
						{
							"internalType": "string",
							"name": "",
							"type": "string"
						}
					],
					"stateMutability": "nonpayable",
					"type": "function"
				},
				{
					"inputs": [],
					"name": "name",
					"outputs": [
						{
							"internalType": "string",
							"name": "",
							"type": "string"
						}
					],
					"stateMutability": "view",
					"type": "function"
				},
				{
					"inputs": [
						{
							"internalType": "uint256",
							"name": "tokenId",
							"type": "uint256"
						}
					],
					"name": "ownerOf",
					"outputs": [
						{
							"internalType": "address",
							"name": "",
							"type": "address"
						}
					],
					"stateMutability": "view",
					"type": "function"
				},
				{
					"inputs": [
						{
							"internalType": "address",
							"name": "from",
							"type": "address"
						},
						{
							"internalType": "address",
							"name": "to",
							"type": "address"
						},
						{
							"internalType": "uint256",
							"name": "tokenId",
							"type": "uint256"
						}
					],
					"name": "safeTransferFrom",
					"outputs": [],
					"stateMutability": "nonpayable",
					"type": "function"
				},
				{
					"inputs": [
						{
							"internalType": "address",
							"name": "from",
							"type": "address"
						},
						{
							"internalType": "address",
							"name": "to",
							"type": "address"
						},
						{
							"internalType": "uint256",
							"name": "tokenId",
							"type": "uint256"
						},
						{
							"internalType": "bytes",
							"name": "data",
							"type": "bytes"
						}
					],
					"name": "safeTransferFrom",
					"outputs": [],
					"stateMutability": "nonpayable",
					"type": "function"
				},
				{
					"inputs": [
						{
							"internalType": "address",
							"name": "owner",
							"type": "address"
						},
						{
							"internalType": "address",
							"name": "operator",
							"type": "address"
						},
						{
							"internalType": "bool",
							"name": "approved",
							"type": "bool"
						}
					],
					"name": "setAppAll",
					"outputs": [],
					"stateMutability": "nonpayable",
					"type": "function"
				},
				{
					"inputs": [
						{
							"internalType": "address",
							"name": "operator",
							"type": "address"
						},
						{
							"internalType": "bool",
							"name": "approved",
							"type": "bool"
						}
					],
					"name": "setApprovalForAll",
					"outputs": [],
					"stateMutability": "nonpayable",
					"type": "function"
				},
				{
					"inputs": [
						{
							"internalType": "bytes4",
							"name": "interfaceId",
							"type": "bytes4"
						}
					],
					"name": "supportsInterface",
					"outputs": [
						{
							"internalType": "bool",
							"name": "",
							"type": "bool"
						}
					],
					"stateMutability": "view",
					"type": "function"
				},
				{
					"inputs": [],
					"name": "symbol",
					"outputs": [
						{
							"internalType": "string",
							"name": "",
							"type": "string"
						}
					],
					"stateMutability": "view",
					"type": "function"
				},
				{
					"inputs": [
						{
							"internalType": "uint256",
							"name": "_tokenId",
							"type": "uint256"
						}
					],
					"name": "tokenURI",
					"outputs": [
						{
							"internalType": "string",
							"name": "",
							"type": "string"
						}
					],
					"stateMutability": "view",
					"type": "function"
				},
				{
					"inputs": [
						{
							"internalType": "address",
							"name": "from",
							"type": "address"
						},
						{
							"internalType": "address",
							"name": "to",
							"type": "address"
						},
						{
							"internalType": "uint256",
							"name": "tokenId",
							"type": "uint256"
						}
					],
					"name": "transferFrom",
					"outputs": [],
					"stateMutability": "nonpayable",
					"type": "function"
				}
			],
			"devdoc": {
				"errors": {
					"ERC721IncorrectOwner(address,uint256,address)": [
						{
							"details": "Indicates an error related to the ownership over a particular token. Used in transfers.",
							"params": {
								"owner": "Address of the current owner of a token.",
								"sender": "Address whose tokens are being transferred.",
								"tokenId": "Identifier number of a token."
							}
						}
					],
					"ERC721InsufficientApproval(address,uint256)": [
						{
							"details": "Indicates a failure with the `operator`â€™s approval. Used in transfers.",
							"params": {
								"operator": "Address that may be allowed to operate on tokens without being their owner.",
								"tokenId": "Identifier number of a token."
							}
						}
					],
					"ERC721InvalidApprover(address)": [
						{
							"details": "Indicates a failure with the `approver` of a token to be approved. Used in approvals.",
							"params": {
								"approver": "Address initiating an approval operation."
							}
						}
					],
					"ERC721InvalidOperator(address)": [
						{
							"details": "Indicates a failure with the `operator` to be approved. Used in approvals.",
							"params": {
								"operator": "Address that may be allowed to operate on tokens without being their owner."
							}
						}
					],
					"ERC721InvalidOwner(address)": [
						{
							"details": "Indicates that an address can't be an owner. For example, `address(0)` is a forbidden owner in EIP-20. Used in balance queries.",
							"params": {
								"owner": "Address of the current owner of a token."
							}
						}
					],
					"ERC721InvalidReceiver(address)": [
						{
							"details": "Indicates a failure with the token `receiver`. Used in transfers.",
							"params": {
								"receiver": "Address to which tokens are being transferred."
							}
						}
					],
					"ERC721InvalidSender(address)": [
						{
							"details": "Indicates a failure with the token `sender`. Used in transfers.",
							"params": {
								"sender": "Address whose tokens are being transferred."
							}
						}
					],
					"ERC721NonexistentToken(uint256)": [
						{
							"details": "Indicates a `tokenId` whose `owner` is the zero address.",
							"params": {
								"tokenId": "Identifier number of a token."
							}
						}
					]
				},
				"events": {
					"Approval(address,address,uint256)": {
						"details": "Emitted when `owner` enables `approved` to manage the `tokenId` token."
					},
					"ApprovalForAll(address,address,bool)": {
						"details": "Emitted when `owner` enables or disables (`approved`) `operator` to manage all of its assets."
					},
					"Transfer(address,address,uint256)": {
						"details": "Emitted when `tokenId` token is transferred from `from` to `to`."
					}
				},
				"kind": "dev",
				"methods": {
					"approve(address,uint256)": {
						"details": "See {IERC721-approve}."
					},
					"balanceOf(address)": {
						"details": "See {IERC721-balanceOf}."
					},
					"getApproved(uint256)": {
						"details": "See {IERC721-getApproved}."
					},
					"isApprovedForAll(address,address)": {
						"details": "See {IERC721-isApprovedForAll}."
					},
					"name()": {
						"details": "See {IERC721Metadata-name}."
					},
					"ownerOf(uint256)": {
						"details": "See {IERC721-ownerOf}."
					},
					"safeTransferFrom(address,address,uint256)": {
						"details": "See {IERC721-safeTransferFrom}."
					},
					"safeTransferFrom(address,address,uint256,bytes)": {
						"details": "See {IERC721-safeTransferFrom}."
					},
					"setApprovalForAll(address,bool)": {
						"details": "See {IERC721-setApprovalForAll}."
					},
					"supportsInterface(bytes4)": {
						"details": "See {IERC165-supportsInterface}."
					},
					"symbol()": {
						"details": "See {IERC721Metadata-symbol}."
					},
					"transferFrom(address,address,uint256)": {
						"details": "See {IERC721-transferFrom}."
					}
				},
				"version": 1
			},
			"evm": {
				"assembly": "    /* \"myNFT.sol\":175:10550  contract MyNFT is ERC721 {... */\n  mstore(0x40, 0x80)\n    /* \"myNFT.sol\":2236:2237  0 */\n  0x00\n    /* \"myNFT.sol\":2214:2237  uint256 totalSupply = 0 */\n  0x07\n  sstore\n    /* \"myNFT.sol\":207:298  constructor( string memory _name, string memory _symbol ) ERC721(_name, _symbol) {... */\n  callvalue\n  dup1\n  iszero\n  tag_1\n  jumpi\n  0x00\n  dup1\n  revert\ntag_1:\n  pop\n  mload(0x40)\n  sub(codesize, bytecodeSize)\n  dup1\n  bytecodeSize\n  dup4\n  codecopy\n  dup2\n  dup2\n  add\n  0x40\n  mstore\n  dup2\n  add\n  swap1\n  tag_2\n  swap2\n  swap1\n  tag_3\n  jump\t// in\ntag_2:\n    /* \"myNFT.sol\":272:277  _name */\n  dup2\n    /* \"myNFT.sol\":279:286  _symbol */\n  dup2\n    /* \"node_modules/@openzeppelin/contracts/token/ERC721/ERC721.sol\":2788:2793  name_ */\n  dup2\n    /* \"node_modules/@openzeppelin/contracts/token/ERC721/ERC721.sol\":2780:2785  _name */\n  0x00\n    /* \"node_modules/@openzeppelin/contracts/token/ERC721/ERC721.sol\":2780:2793  _name = name_ */\n  swap1\n  dup2\n  tag_7\n  swap2\n  swap1\n  tag_8\n  jump\t// in\ntag_7:\n  pop\n    /* \"node_modules/@openzeppelin/contracts/token/ERC721/ERC721.sol\":2813:2820  symbol_ */\n  dup1\n    /* \"node_modules/@openzeppelin/contracts/token/ERC721/ERC721.sol\":2803:2810  _symbol */\n  0x01\n    /* \"node_modules/@openzeppelin/contracts/token/ERC721/ERC721.sol\":2803:2820  _symbol = symbol_ */\n  swap1\n  dup2\n  tag_9\n  swap2\n  swap1\n  tag_8\n  jump\t// in\ntag_9:\n  pop\n    /* \"node_modules/@openzeppelin/contracts/token/ERC721/ERC721.sol\":2714:2827  constructor(string memory name_, string memory symbol_) {... */\n  pop\n  pop\n    /* \"myNFT.sol\":207:298  constructor( string memory _name, string memory _symbol ) ERC721(_name, _symbol) {... */\n  pop\n  pop\n    /* \"myNFT.sol\":175:10550  contract MyNFT is ERC721 {... */\n  jump(tag_11)\n    /* \"#utility.yul\":7:82   */\ntag_12:\n    /* \"#utility.yul\":40:46   */\n  0x00\n    /* \"#utility.yul\":73:75   */\n  0x40\n    /* \"#utility.yul\":67:76   */\n  mload\n    /* \"#utility.yul\":57:76   */\n  swap1\n  pop\n    /* \"#utility.yul\":7:82   */\n  swap1\n  jump\t// out\n    /* \"#utility.yul\":88:205   */\ntag_13:\n    /* \"#utility.yul\":197:198   */\n  0x00\n    /* \"#utility.yul\":194:195   */\n  dup1\n    /* \"#utility.yul\":187:199   */\n  revert\n    /* \"#utility.yul\":211:328   */\ntag_14:\n    /* \"#utility.yul\":320:321   */\n  0x00\n    /* \"#utility.yul\":317:318   */\n  dup1\n    /* \"#utility.yul\":310:322   */\n  revert\n    /* \"#utility.yul\":334:451   */\ntag_15:\n    /* \"#utility.yul\":443:444   */\n  0x00\n    /* \"#utility.yul\":440:441   */\n  dup1\n    /* \"#utility.yul\":433:445   */\n  revert\n    /* \"#utility.yul\":457:574   */\ntag_16:\n    /* \"#utility.yul\":566:567   */\n  0x00\n    /* \"#utility.yul\":563:564   */\n  dup1\n    /* \"#utility.yul\":556:568   */\n  revert\n    /* \"#utility.yul\":580:682   */\ntag_17:\n    /* \"#utility.yul\":621:627   */\n  0x00\n    /* \"#utility.yul\":672:674   */\n  0x1f\n    /* \"#utility.yul\":668:675   */\n  not\n    /* \"#utility.yul\":663:665   */\n  0x1f\n    /* \"#utility.yul\":656:661   */\n  dup4\n    /* \"#utility.yul\":652:666   */\n  add\n    /* \"#utility.yul\":648:676   */\n  and\n    /* \"#utility.yul\":638:676   */\n  swap1\n  pop\n    /* \"#utility.yul\":580:682   */\n  swap2\n  swap1\n  pop\n  jump\t// out\n    /* \"#utility.yul\":688:868   */\ntag_18:\n    /* \"#utility.yul\":736:813   */\n  0x4e487b7100000000000000000000000000000000000000000000000000000000\n    /* \"#utility.yul\":733:734   */\n  0x00\n    /* \"#utility.yul\":726:814   */\n  mstore\n    /* \"#utility.yul\":833:837   */\n  0x41\n    /* \"#utility.yul\":830:831   */\n  0x04\n    /* \"#utility.yul\":823:838   */\n  mstore\n    /* \"#utility.yul\":857:861   */\n  0x24\n    /* \"#utility.yul\":854:855   */\n  0x00\n    /* \"#utility.yul\":847:862   */\n  revert\n    /* \"#utility.yul\":874:1155   */\ntag_19:\n    /* \"#utility.yul\":957:984   */\n  tag_53\n    /* \"#utility.yul\":979:983   */\n  dup3\n    /* \"#utility.yul\":957:984   */\n  tag_17\n  jump\t// in\ntag_53:\n    /* \"#utility.yul\":949:955   */\n  dup2\n    /* \"#utility.yul\":945:985   */\n  add\n    /* \"#utility.yul\":1087:1093   */\n  dup2\n    /* \"#utility.yul\":1075:1085   */\n  dup2\n    /* \"#utility.yul\":1072:1094   */\n  lt\n    /* \"#utility.yul\":1051:1069   */\n  0xffffffffffffffff\n    /* \"#utility.yul\":1039:1049   */\n  dup3\n    /* \"#utility.yul\":1036:1070   */\n  gt\n    /* \"#utility.yul\":1033:1095   */\n  or\n    /* \"#utility.yul\":1030:1118   */\n  iszero\n  tag_54\n  jumpi\n    /* \"#utility.yul\":1098:1116   */\n  tag_55\n  tag_18\n  jump\t// in\ntag_55:\n    /* \"#utility.yul\":1030:1118   */\ntag_54:\n    /* \"#utility.yul\":1138:1148   */\n  dup1\n    /* \"#utility.yul\":1134:1136   */\n  0x40\n    /* \"#utility.yul\":1127:1149   */\n  mstore\n    /* \"#utility.yul\":917:1155   */\n  pop\n    /* \"#utility.yul\":874:1155   */\n  pop\n  pop\n  jump\t// out\n    /* \"#utility.yul\":1161:1290   */\ntag_20:\n    /* \"#utility.yul\":1195:1201   */\n  0x00\n    /* \"#utility.yul\":1222:1242   */\n  tag_57\n  tag_12\n  jump\t// in\ntag_57:\n    /* \"#utility.yul\":1212:1242   */\n  swap1\n  pop\n    /* \"#utility.yul\":1251:1284   */\n  tag_58\n    /* \"#utility.yul\":1279:1283   */\n  dup3\n    /* \"#utility.yul\":1271:1277   */\n  dup3\n    /* \"#utility.yul\":1251:1284   */\n  tag_19\n  jump\t// in\ntag_58:\n    /* \"#utility.yul\":1161:1290   */\n  swap2\n  swap1\n  pop\n  jump\t// out\n    /* \"#utility.yul\":1296:1604   */\ntag_21:\n    /* \"#utility.yul\":1358:1362   */\n  0x00\n    /* \"#utility.yul\":1448:1466   */\n  0xffffffffffffffff\n    /* \"#utility.yul\":1440:1446   */\n  dup3\n    /* \"#utility.yul\":1437:1467   */\n  gt\n    /* \"#utility.yul\":1434:1490   */\n  iszero\n  tag_60\n  jumpi\n    /* \"#utility.yul\":1470:1488   */\n  tag_61\n  tag_18\n  jump\t// in\ntag_61:\n    /* \"#utility.yul\":1434:1490   */\ntag_60:\n    /* \"#utility.yul\":1508:1537   */\n  tag_62\n    /* \"#utility.yul\":1530:1536   */\n  dup3\n    /* \"#utility.yul\":1508:1537   */\n  tag_17\n  jump\t// in\ntag_62:\n    /* \"#utility.yul\":1500:1537   */\n  swap1\n  pop\n    /* \"#utility.yul\":1592:1596   */\n  0x20\n    /* \"#utility.yul\":1586:1590   */\n  dup2\n    /* \"#utility.yul\":1582:1597   */\n  add\n    /* \"#utility.yul\":1574:1597   */\n  swap1\n  pop\n    /* \"#utility.yul\":1296:1604   */\n  swap2\n  swap1\n  pop\n  jump\t// out\n    /* \"#utility.yul\":1610:1856   */\ntag_22:\n    /* \"#utility.yul\":1691:1692   */\n  0x00\n    /* \"#utility.yul\":1701:1814   */\ntag_64:\n    /* \"#utility.yul\":1715:1721   */\n  dup4\n    /* \"#utility.yul\":1712:1713   */\n  dup2\n    /* \"#utility.yul\":1709:1722   */\n  lt\n    /* \"#utility.yul\":1701:1814   */\n  iszero\n  tag_66\n  jumpi\n    /* \"#utility.yul\":1800:1801   */\n  dup1\n    /* \"#utility.yul\":1795:1798   */\n  dup3\n    /* \"#utility.yul\":1791:1802   */\n  add\n    /* \"#utility.yul\":1785:1803   */\n  mload\n    /* \"#utility.yul\":1781:1782   */\n  dup2\n    /* \"#utility.yul\":1776:1779   */\n  dup5\n    /* \"#utility.yul\":1772:1783   */\n  add\n    /* \"#utility.yul\":1765:1804   */\n  mstore\n    /* \"#utility.yul\":1737:1739   */\n  0x20\n    /* \"#utility.yul\":1734:1735   */\n  dup2\n    /* \"#utility.yul\":1730:1740   */\n  add\n    /* \"#utility.yul\":1725:1740   */\n  swap1\n  pop\n    /* \"#utility.yul\":1701:1814   */\n  jump(tag_64)\ntag_66:\n    /* \"#utility.yul\":1848:1849   */\n  0x00\n    /* \"#utility.yul\":1839:1845   */\n  dup5\n    /* \"#utility.yul\":1834:1837   */\n  dup5\n    /* \"#utility.yul\":1830:1846   */\n  add\n    /* \"#utility.yul\":1823:1850   */\n  mstore\n    /* \"#utility.yul\":1672:1856   */\n  pop\n    /* \"#utility.yul\":1610:1856   */\n  pop\n  pop\n  pop\n  jump\t// out\n    /* \"#utility.yul\":1862:2296   */\ntag_23:\n    /* \"#utility.yul\":1951:1956   */\n  0x00\n    /* \"#utility.yul\":1976:2042   */\n  tag_68\n    /* \"#utility.yul\":1992:2041   */\n  tag_69\n    /* \"#utility.yul\":2034:2040   */\n  dup5\n    /* \"#utility.yul\":1992:2041   */\n  tag_21\n  jump\t// in\ntag_69:\n    /* \"#utility.yul\":1976:2042   */\n  tag_20\n  jump\t// in\ntag_68:\n    /* \"#utility.yul\":1967:2042   */\n  swap1\n  pop\n    /* \"#utility.yul\":2065:2071   */\n  dup3\n    /* \"#utility.yul\":2058:2063   */\n  dup2\n    /* \"#utility.yul\":2051:2072   */\n  mstore\n    /* \"#utility.yul\":2103:2107   */\n  0x20\n    /* \"#utility.yul\":2096:2101   */\n  dup2\n    /* \"#utility.yul\":2092:2108   */\n  add\n    /* \"#utility.yul\":2141:2144   */\n  dup5\n    /* \"#utility.yul\":2132:2138   */\n  dup5\n    /* \"#utility.yul\":2127:2130   */\n  dup5\n    /* \"#utility.yul\":2123:2139   */\n  add\n    /* \"#utility.yul\":2120:2145   */\n  gt\n    /* \"#utility.yul\":2117:2229   */\n  iszero\n  tag_70\n  jumpi\n    /* \"#utility.yul\":2148:2227   */\n  tag_71\n  tag_16\n  jump\t// in\ntag_71:\n    /* \"#utility.yul\":2117:2229   */\ntag_70:\n    /* \"#utility.yul\":2238:2290   */\n  tag_72\n    /* \"#utility.yul\":2283:2289   */\n  dup5\n    /* \"#utility.yul\":2278:2281   */\n  dup3\n    /* \"#utility.yul\":2273:2276   */\n  dup6\n    /* \"#utility.yul\":2238:2290   */\n  tag_22\n  jump\t// in\ntag_72:\n    /* \"#utility.yul\":1957:2296   */\n  pop\n    /* \"#utility.yul\":1862:2296   */\n  swap4\n  swap3\n  pop\n  pop\n  pop\n  jump\t// out\n    /* \"#utility.yul\":2316:2671   */\ntag_24:\n    /* \"#utility.yul\":2383:2388   */\n  0x00\n    /* \"#utility.yul\":2432:2435   */\n  dup3\n    /* \"#utility.yul\":2425:2429   */\n  0x1f\n    /* \"#utility.yul\":2417:2423   */\n  dup4\n    /* \"#utility.yul\":2413:2430   */\n  add\n    /* \"#utility.yul\":2409:2436   */\n  slt\n    /* \"#utility.yul\":2399:2521   */\n  tag_74\n  jumpi\n    /* \"#utility.yul\":2440:2519   */\n  tag_75\n  tag_15\n  jump\t// in\ntag_75:\n    /* \"#utility.yul\":2399:2521   */\ntag_74:\n    /* \"#utility.yul\":2550:2556   */\n  dup2\n    /* \"#utility.yul\":2544:2557   */\n  mload\n    /* \"#utility.yul\":2575:2665   */\n  tag_76\n    /* \"#utility.yul\":2661:2664   */\n  dup5\n    /* \"#utility.yul\":2653:2659   */\n  dup3\n    /* \"#utility.yul\":2646:2650   */\n  0x20\n    /* \"#utility.yul\":2638:2644   */\n  dup7\n    /* \"#utility.yul\":2634:2651   */\n  add\n    /* \"#utility.yul\":2575:2665   */\n  tag_23\n  jump\t// in\ntag_76:\n    /* \"#utility.yul\":2566:2665   */\n  swap2\n  pop\n    /* \"#utility.yul\":2389:2671   */\n  pop\n    /* \"#utility.yul\":2316:2671   */\n  swap3\n  swap2\n  pop\n  pop\n  jump\t// out\n    /* \"#utility.yul\":2677:3530   */\ntag_3:\n    /* \"#utility.yul\":2776:2782   */\n  0x00\n    /* \"#utility.yul\":2784:2790   */\n  dup1\n    /* \"#utility.yul\":2833:2835   */\n  0x40\n    /* \"#utility.yul\":2821:2830   */\n  dup4\n    /* \"#utility.yul\":2812:2819   */\n  dup6\n    /* \"#utility.yul\":2808:2831   */\n  sub\n    /* \"#utility.yul\":2804:2836   */\n  slt\n    /* \"#utility.yul\":2801:2920   */\n  iszero\n  tag_78\n  jumpi\n    /* \"#utility.yul\":2839:2918   */\n  tag_79\n  tag_13\n  jump\t// in\ntag_79:\n    /* \"#utility.yul\":2801:2920   */\ntag_78:\n    /* \"#utility.yul\":2980:2981   */\n  0x00\n    /* \"#utility.yul\":2969:2978   */\n  dup4\n    /* \"#utility.yul\":2965:2982   */\n  add\n    /* \"#utility.yul\":2959:2983   */\n  mload\n    /* \"#utility.yul\":3010:3028   */\n  0xffffffffffffffff\n    /* \"#utility.yul\":3002:3008   */\n  dup2\n    /* \"#utility.yul\":2999:3029   */\n  gt\n    /* \"#utility.yul\":2996:3113   */\n  iszero\n  tag_80\n  jumpi\n    /* \"#utility.yul\":3032:3111   */\n  tag_81\n  tag_14\n  jump\t// in\ntag_81:\n    /* \"#utility.yul\":2996:3113   */\ntag_80:\n    /* \"#utility.yul\":3137:3211   */\n  tag_82\n    /* \"#utility.yul\":3203:3210   */\n  dup6\n    /* \"#utility.yul\":3194:3200   */\n  dup3\n    /* \"#utility.yul\":3183:3192   */\n  dup7\n    /* \"#utility.yul\":3179:3201   */\n  add\n    /* \"#utility.yul\":3137:3211   */\n  tag_24\n  jump\t// in\ntag_82:\n    /* \"#utility.yul\":3127:3211   */\n  swap3\n  pop\n    /* \"#utility.yul\":2930:3221   */\n  pop\n    /* \"#utility.yul\":3281:3283   */\n  0x20\n    /* \"#utility.yul\":3270:3279   */\n  dup4\n    /* \"#utility.yul\":3266:3284   */\n  add\n    /* \"#utility.yul\":3260:3285   */\n  mload\n    /* \"#utility.yul\":3312:3330   */\n  0xffffffffffffffff\n    /* \"#utility.yul\":3304:3310   */\n  dup2\n    /* \"#utility.yul\":3301:3331   */\n  gt\n    /* \"#utility.yul\":3298:3415   */\n  iszero\n  tag_83\n  jumpi\n    /* \"#utility.yul\":3334:3413   */\n  tag_84\n  tag_14\n  jump\t// in\ntag_84:\n    /* \"#utility.yul\":3298:3415   */\ntag_83:\n    /* \"#utility.yul\":3439:3513   */\n  tag_85\n    /* \"#utility.yul\":3505:3512   */\n  dup6\n    /* \"#utility.yul\":3496:3502   */\n  dup3\n    /* \"#utility.yul\":3485:3494   */\n  dup7\n    /* \"#utility.yul\":3481:3503   */\n  add\n    /* \"#utility.yul\":3439:3513   */\n  tag_24\n  jump\t// in\ntag_85:\n    /* \"#utility.yul\":3429:3513   */\n  swap2\n  pop\n    /* \"#utility.yul\":3231:3523   */\n  pop\n    /* \"#utility.yul\":2677:3530   */\n  swap3\n  pop\n  swap3\n  swap1\n  pop\n  jump\t// out\n    /* \"#utility.yul\":3536:3635   */\ntag_25:\n    /* \"#utility.yul\":3588:3594   */\n  0x00\n    /* \"#utility.yul\":3622:3627   */\n  dup2\n    /* \"#utility.yul\":3616:3628   */\n  mload\n    /* \"#utility.yul\":3606:3628   */\n  swap1\n  pop\n    /* \"#utility.yul\":3536:3635   */\n  swap2\n  swap1\n  pop\n  jump\t// out\n    /* \"#utility.yul\":3641:3821   */\ntag_26:\n    /* \"#utility.yul\":3689:3766   */\n  0x4e487b7100000000000000000000000000000000000000000000000000000000\n    /* \"#utility.yul\":3686:3687   */\n  0x00\n    /* \"#utility.yul\":3679:3767   */\n  mstore\n    /* \"#utility.yul\":3786:3790   */\n  0x22\n    /* \"#utility.yul\":3783:3784   */\n  0x04\n    /* \"#utility.yul\":3776:3791   */\n  mstore\n    /* \"#utility.yul\":3810:3814   */\n  0x24\n    /* \"#utility.yul\":3807:3808   */\n  0x00\n    /* \"#utility.yul\":3800:3815   */\n  revert\n    /* \"#utility.yul\":3827:4147   */\ntag_27:\n    /* \"#utility.yul\":3871:3877   */\n  0x00\n    /* \"#utility.yul\":3908:3909   */\n  0x02\n    /* \"#utility.yul\":3902:3906   */\n  dup3\n    /* \"#utility.yul\":3898:3910   */\n  div\n    /* \"#utility.yul\":3888:3910   */\n  swap1\n  pop\n    /* \"#utility.yul\":3955:3956   */\n  0x01\n    /* \"#utility.yul\":3949:3953   */\n  dup3\n    /* \"#utility.yul\":3945:3957   */\n  and\n    /* \"#utility.yul\":3976:3994   */\n  dup1\n    /* \"#utility.yul\":3966:4047   */\n  tag_89\n  jumpi\n    /* \"#utility.yul\":4032:4036   */\n  0x7f\n    /* \"#utility.yul\":4024:4030   */\n  dup3\n    /* \"#utility.yul\":4020:4037   */\n  and\n    /* \"#utility.yul\":4010:4037   */\n  swap2\n  pop\n    /* \"#utility.yul\":3966:4047   */\ntag_89:\n    /* \"#utility.yul\":4094:4096   */\n  0x20\n    /* \"#utility.yul\":4086:4092   */\n  dup3\n    /* \"#utility.yul\":4083:4097   */\n  lt\n    /* \"#utility.yul\":4063:4081   */\n  dup2\n    /* \"#utility.yul\":4060:4098   */\n  sub\n    /* \"#utility.yul\":4057:4141   */\n  tag_90\n  jumpi\n    /* \"#utility.yul\":4113:4131   */\n  tag_91\n  tag_26\n  jump\t// in\ntag_91:\n    /* \"#utility.yul\":4057:4141   */\ntag_90:\n    /* \"#utility.yul\":3878:4147   */\n  pop\n    /* \"#utility.yul\":3827:4147   */\n  swap2\n  swap1\n  pop\n  jump\t// out\n    /* \"#utility.yul\":4153:4294   */\ntag_28:\n    /* \"#utility.yul\":4202:4206   */\n  0x00\n    /* \"#utility.yul\":4225:4228   */\n  dup2\n    /* \"#utility.yul\":4217:4228   */\n  swap1\n  pop\n    /* \"#utility.yul\":4248:4251   */\n  dup2\n    /* \"#utility.yul\":4245:4246   */\n  0x00\n    /* \"#utility.yul\":4238:4252   */\n  mstore\n    /* \"#utility.yul\":4282:4286   */\n  0x20\n    /* \"#utility.yul\":4279:4280   */\n  0x00\n    /* \"#utility.yul\":4269:4287   */\n  keccak256\n    /* \"#utility.yul\":4261:4287   */\n  swap1\n  pop\n    /* \"#utility.yul\":4153:4294   */\n  swap2\n  swap1\n  pop\n  jump\t// out\n    /* \"#utility.yul\":4300:4393   */\ntag_29:\n    /* \"#utility.yul\":4337:4343   */\n  0x00\n    /* \"#utility.yul\":4384:4386   */\n  0x20\n    /* \"#utility.yul\":4379:4381   */\n  0x1f\n    /* \"#utility.yul\":4372:4377   */\n  dup4\n    /* \"#utility.yul\":4368:4382   */\n  add\n    /* \"#utility.yul\":4364:4387   */\n  div\n    /* \"#utility.yul\":4354:4387   */\n  swap1\n  pop\n    /* \"#utility.yul\":4300:4393   */\n  swap2\n  swap1\n  pop\n  jump\t// out\n    /* \"#utility.yul\":4399:4506   */\ntag_30:\n    /* \"#utility.yul\":4443:4451   */\n  0x00\n    /* \"#utility.yul\":4493:4498   */\n  dup3\n    /* \"#utility.yul\":4487:4491   */\n  dup3\n    /* \"#utility.yul\":4483:4499   */\n  shl\n    /* \"#utility.yul\":4462:4499   */\n  swap1\n  pop\n    /* \"#utility.yul\":4399:4506   */\n  swap3\n  swap2\n  pop\n  pop\n  jump\t// out\n    /* \"#utility.yul\":4512:4905   */\ntag_31:\n    /* \"#utility.yul\":4581:4587   */\n  0x00\n    /* \"#utility.yul\":4631:4632   */\n  0x08\n    /* \"#utility.yul\":4619:4629   */\n  dup4\n    /* \"#utility.yul\":4615:4633   */\n  mul\n    /* \"#utility.yul\":4654:4751   */\n  tag_96\n    /* \"#utility.yul\":4684:4750   */\n  0xffffffffffffffffffffffffffffffffffffffffffffffffffffffffffffffff\n    /* \"#utility.yul\":4673:4682   */\n  dup3\n    /* \"#utility.yul\":4654:4751   */\n  tag_30\n  jump\t// in\ntag_96:\n    /* \"#utility.yul\":4772:4811   */\n  tag_97\n    /* \"#utility.yul\":4802:4810   */\n  dup7\n    /* \"#utility.yul\":4791:4800   */\n  dup4\n    /* \"#utility.yul\":4772:4811   */\n  tag_30\n  jump\t// in\ntag_97:\n    /* \"#utility.yul\":4760:4811   */\n  swap6\n  pop\n    /* \"#utility.yul\":4844:4848   */\n  dup1\n    /* \"#utility.yul\":4840:4849   */\n  not\n    /* \"#utility.yul\":4833:4838   */\n  dup5\n    /* \"#utility.yul\":4829:4850   */\n  and\n    /* \"#utility.yul\":4820:4850   */\n  swap4\n  pop\n    /* \"#utility.yul\":4893:4897   */\n  dup1\n    /* \"#utility.yul\":4883:4891   */\n  dup7\n    /* \"#utility.yul\":4879:4898   */\n  and\n    /* \"#utility.yul\":4872:4877   */\n  dup5\n    /* \"#utility.yul\":4869:4899   */\n  or\n    /* \"#utility.yul\":4859:4899   */\n  swap3\n  pop\n    /* \"#utility.yul\":4588:4905   */\n  pop\n  pop\n    /* \"#utility.yul\":4512:4905   */\n  swap4\n  swap3\n  pop\n  pop\n  pop\n  jump\t// out\n    /* \"#utility.yul\":4911:4988   */\ntag_32:\n    /* \"#utility.yul\":4948:4955   */\n  0x00\n    /* \"#utility.yul\":4977:4982   */\n  dup2\n    /* \"#utility.yul\":4966:4982   */\n  swap1\n  pop\n    /* \"#utility.yul\":4911:4988   */\n  swap2\n  swap1\n  pop\n  jump\t// out\n    /* \"#utility.yul\":4994:5054   */\ntag_33:\n    /* \"#utility.yul\":5022:5025   */\n  0x00\n    /* \"#utility.yul\":5043:5048   */\n  dup2\n    /* \"#utility.yul\":5036:5048   */\n  swap1\n  pop\n    /* \"#utility.yul\":4994:5054   */\n  swap2\n  swap1\n  pop\n  jump\t// out\n    /* \"#utility.yul\":5060:5202   */\ntag_34:\n    /* \"#utility.yul\":5110:5119   */\n  0x00\n    /* \"#utility.yul\":5143:5196   */\n  tag_101\n    /* \"#utility.yul\":5161:5195   */\n  tag_102\n    /* \"#utility.yul\":5170:5194   */\n  tag_103\n    /* \"#utility.yul\":5188:5193   */\n  dup5\n    /* \"#utility.yul\":5170:5194   */\n  tag_32\n  jump\t// in\ntag_103:\n    /* \"#utility.yul\":5161:5195   */\n  tag_33\n  jump\t// in\ntag_102:\n    /* \"#utility.yul\":5143:5196   */\n  tag_32\n  jump\t// in\ntag_101:\n    /* \"#utility.yul\":5130:5196   */\n  swap1\n  pop\n    /* \"#utility.yul\":5060:5202   */\n  swap2\n  swap1\n  pop\n  jump\t// out\n    /* \"#utility.yul\":5208:5283   */\ntag_35:\n    /* \"#utility.yul\":5251:5254   */\n  0x00\n    /* \"#utility.yul\":5272:5277   */\n  dup2\n    /* \"#utility.yul\":5265:5277   */\n  swap1\n  pop\n    /* \"#utility.yul\":5208:5283   */\n  swap2\n  swap1\n  pop\n  jump\t// out\n    /* \"#utility.yul\":5289:5558   */\ntag_36:\n    /* \"#utility.yul\":5399:5438   */\n  tag_106\n    /* \"#utility.yul\":5430:5437   */\n  dup4\n    /* \"#utility.yul\":5399:5438   */\n  tag_34\n  jump\t// in\ntag_106:\n    /* \"#utility.yul\":5460:5551   */\n  tag_107\n    /* \"#utility.yul\":5509:5550   */\n  tag_108\n    /* \"#utility.yul\":5533:5549   */\n  dup3\n    /* \"#utility.yul\":5509:5550   */\n  tag_35\n  jump\t// in\ntag_108:\n    /* \"#utility.yul\":5501:5507   */\n  dup5\n    /* \"#utility.yul\":5494:5498   */\n  dup5\n    /* \"#utility.yul\":5488:5499   */\n  sload\n    /* \"#utility.yul\":5460:5551   */\n  tag_31\n  jump\t// in\ntag_107:\n    /* \"#utility.yul\":5454:5458   */\n  dup3\n    /* \"#utility.yul\":5447:5552   */\n  sstore\n    /* \"#utility.yul\":5365:5558   */\n  pop\n    /* \"#utility.yul\":5289:5558   */\n  pop\n  pop\n  pop\n  jump\t// out\n    /* \"#utility.yul\":5564:5637   */\ntag_37:\n    /* \"#utility.yul\":5609:5612   */\n  0x00\n    /* \"#utility.yul\":5564:5637   */\n  swap1\n  jump\t// out\n    /* \"#utility.yul\":5643:5832   */\ntag_38:\n    /* \"#utility.yul\":5720:5752   */\n  tag_111\n  tag_37\n  jump\t// in\ntag_111:\n    /* \"#utility.yul\":5761:5826   */\n  tag_112\n    /* \"#utility.yul\":5819:5825   */\n  dup2\n    /* \"#utility.yul\":5811:5817   */\n  dup5\n    /* \"#utility.yul\":5805:5809   */\n  dup5\n    /* \"#utility.yul\":5761:5826   */\n  tag_36\n  jump\t// in\ntag_112:\n    /* \"#utility.yul\":5696:5832   */\n  pop\n    /* \"#utility.yul\":5643:5832   */\n  pop\n  pop\n  jump\t// out\n    /* \"#utility.yul\":5838:6024   */\ntag_39:\n    /* \"#utility.yul\":5898:6018   */\ntag_114:\n    /* \"#utility.yul\":5915:5918   */\n  dup2\n    /* \"#utility.yul\":5908:5913   */\n  dup2\n    /* \"#utility.yul\":5905:5919   */\n  lt\n    /* \"#utility.yul\":5898:6018   */\n  iszero\n  tag_116\n  jumpi\n    /* \"#utility.yul\":5969:6008   */\n  tag_117\n    /* \"#utility.yul\":6006:6007   */\n  0x00\n    /* \"#utility.yul\":5999:6004   */\n  dup3\n    /* \"#utility.yul\":5969:6008   */\n  tag_38\n  jump\t// in\ntag_117:\n    /* \"#utility.yul\":5942:5943   */\n  0x01\n    /* \"#utility.yul\":5935:5940   */\n  dup2\n    /* \"#utility.yul\":5931:5944   */\n  add\n    /* \"#utility.yul\":5922:5944   */\n  swap1\n  pop\n    /* \"#utility.yul\":5898:6018   */\n  jump(tag_114)\ntag_116:\n    /* \"#utility.yul\":5838:6024   */\n  pop\n  pop\n  jump\t// out\n    /* \"#utility.yul\":6030:6573   */\ntag_40:\n    /* \"#utility.yul\":6131:6133   */\n  0x1f\n    /* \"#utility.yul\":6126:6129   */\n  dup3\n    /* \"#utility.yul\":6123:6134   */\n  gt\n    /* \"#utility.yul\":6120:6566   */\n  iszero\n  tag_119\n  jumpi\n    /* \"#utility.yul\":6165:6203   */\n  tag_120\n    /* \"#utility.yul\":6197:6202   */\n  dup2\n    /* \"#utility.yul\":6165:6203   */\n  tag_28\n  jump\t// in\ntag_120:\n    /* \"#utility.yul\":6249:6278   */\n  tag_121\n    /* \"#utility.yul\":6267:6277   */\n  dup5\n    /* \"#utility.yul\":6249:6278   */\n  tag_29\n  jump\t// in\ntag_121:\n    /* \"#utility.yul\":6239:6247   */\n  dup2\n    /* \"#utility.yul\":6235:6279   */\n  add\n    /* \"#utility.yul\":6432:6434   */\n  0x20\n    /* \"#utility.yul\":6420:6430   */\n  dup6\n    /* \"#utility.yul\":6417:6435   */\n  lt\n    /* \"#utility.yul\":6414:6463   */\n  iszero\n  tag_122\n  jumpi\n    /* \"#utility.yul\":6453:6461   */\n  dup2\n    /* \"#utility.yul\":6438:6461   */\n  swap1\n  pop\n    /* \"#utility.yul\":6414:6463   */\ntag_122:\n    /* \"#utility.yul\":6476:6556   */\n  tag_123\n    /* \"#utility.yul\":6532:6554   */\n  tag_124\n    /* \"#utility.yul\":6550:6553   */\n  dup6\n    /* \"#utility.yul\":6532:6554   */\n  tag_29\n  jump\t// in\ntag_124:\n    /* \"#utility.yul\":6522:6530   */\n  dup4\n    /* \"#utility.yul\":6518:6555   */\n  add\n    /* \"#utility.yul\":6505:6516   */\n  dup3\n    /* \"#utility.yul\":6476:6556   */\n  tag_39\n  jump\t// in\ntag_123:\n    /* \"#utility.yul\":6135:6566   */\n  pop\n  pop\n    /* \"#utility.yul\":6120:6566   */\ntag_119:\n    /* \"#utility.yul\":6030:6573   */\n  pop\n  pop\n  pop\n  jump\t// out\n    /* \"#utility.yul\":6579:6696   */\ntag_41:\n    /* \"#utility.yul\":6633:6641   */\n  0x00\n    /* \"#utility.yul\":6683:6688   */\n  dup3\n    /* \"#utility.yul\":6677:6681   */\n  dup3\n    /* \"#utility.yul\":6673:6689   */\n  shr\n    /* \"#utility.yul\":6652:6689   */\n  swap1\n  pop\n    /* \"#utility.yul\":6579:6696   */\n  swap3\n  swap2\n  pop\n  pop\n  jump\t// out\n    /* \"#utility.yul\":6702:6871   */\ntag_42:\n    /* \"#utility.yul\":6746:6752   */\n  0x00\n    /* \"#utility.yul\":6779:6830   */\n  tag_127\n    /* \"#utility.yul\":6827:6828   */\n  0x00\n    /* \"#utility.yul\":6823:6829   */\n  not\n    /* \"#utility.yul\":6815:6820   */\n  dup5\n    /* \"#utility.yul\":6812:6813   */\n  0x08\n    /* \"#utility.yul\":6808:6821   */\n  mul\n    /* \"#utility.yul\":6779:6830   */\n  tag_41\n  jump\t// in\ntag_127:\n    /* \"#utility.yul\":6775:6831   */\n  not\n    /* \"#utility.yul\":6860:6864   */\n  dup1\n    /* \"#utility.yul\":6854:6858   */\n  dup4\n    /* \"#utility.yul\":6850:6865   */\n  and\n    /* \"#utility.yul\":6840:6865   */\n  swap2\n  pop\n    /* \"#utility.yul\":6753:6871   */\n  pop\n    /* \"#utility.yul\":6702:6871   */\n  swap3\n  swap2\n  pop\n  pop\n  jump\t// out\n    /* \"#utility.yul\":6876:7171   */\ntag_43:\n    /* \"#utility.yul\":6952:6956   */\n  0x00\n    /* \"#utility.yul\":7098:7127   */\n  tag_129\n    /* \"#utility.yul\":7123:7126   */\n  dup4\n    /* \"#utility.yul\":7117:7121   */\n  dup4\n    /* \"#utility.yul\":7098:7127   */\n  tag_42\n  jump\t// in\ntag_129:\n    /* \"#utility.yul\":7090:7127   */\n  swap2\n  pop\n    /* \"#utility.yul\":7160:7163   */\n  dup3\n    /* \"#utility.yul\":7157:7158   */\n  0x02\n    /* \"#utility.yul\":7153:7164   */\n  mul\n    /* \"#utility.yul\":7147:7151   */\n  dup3\n    /* \"#utility.yul\":7144:7165   */\n  or\n    /* \"#utility.yul\":7136:7165   */\n  swap1\n  pop\n    /* \"#utility.yul\":6876:7171   */\n  swap3\n  swap2\n  pop\n  pop\n  jump\t// out\n    /* \"#utility.yul\":7176:8571   */\ntag_8:\n    /* \"#utility.yul\":7293:7330   */\n  tag_131\n    /* \"#utility.yul\":7326:7329   */\n  dup3\n    /* \"#utility.yul\":7293:7330   */\n  tag_25\n  jump\t// in\ntag_131:\n    /* \"#utility.yul\":7395:7413   */\n  0xffffffffffffffff\n    /* \"#utility.yul\":7387:7393   */\n  dup2\n    /* \"#utility.yul\":7384:7414   */\n  gt\n    /* \"#utility.yul\":7381:7437   */\n  iszero\n  tag_132\n  jumpi\n    /* \"#utility.yul\":7417:7435   */\n  tag_133\n  tag_18\n  jump\t// in\ntag_133:\n    /* \"#utility.yul\":7381:7437   */\ntag_132:\n    /* \"#utility.yul\":7461:7499   */\n  tag_134\n    /* \"#utility.yul\":7493:7497   */\n  dup3\n    /* \"#utility.yul\":7487:7498   */\n  sload\n    /* \"#utility.yul\":7461:7499   */\n  tag_27\n  jump\t// in\ntag_134:\n    /* \"#utility.yul\":7546:7613   */\n  tag_135\n    /* \"#utility.yul\":7606:7612   */\n  dup3\n    /* \"#utility.yul\":7598:7604   */\n  dup3\n    /* \"#utility.yul\":7592:7596   */\n  dup6\n    /* \"#utility.yul\":7546:7613   */\n  tag_40\n  jump\t// in\ntag_135:\n    /* \"#utility.yul\":7640:7641   */\n  0x00\n    /* \"#utility.yul\":7664:7668   */\n  0x20\n    /* \"#utility.yul\":7651:7668   */\n  swap1\n  pop\n    /* \"#utility.yul\":7696:7698   */\n  0x1f\n    /* \"#utility.yul\":7688:7694   */\n  dup4\n    /* \"#utility.yul\":7685:7699   */\n  gt\n    /* \"#utility.yul\":7713:7714   */\n  0x01\n    /* \"#utility.yul\":7708:8326   */\n  dup2\n  eq\n  tag_137\n  jumpi\n    /* \"#utility.yul\":8370:8371   */\n  0x00\n    /* \"#utility.yul\":8387:8393   */\n  dup5\n    /* \"#utility.yul\":8384:8461   */\n  iszero\n  tag_138\n  jumpi\n    /* \"#utility.yul\":8436:8445   */\n  dup3\n    /* \"#utility.yul\":8431:8434   */\n  dup8\n    /* \"#utility.yul\":8427:8446   */\n  add\n    /* \"#utility.yul\":8421:8447   */\n  mload\n    /* \"#utility.yul\":8412:8447   */\n  swap1\n  pop\n    /* \"#utility.yul\":8384:8461   */\ntag_138:\n    /* \"#utility.yul\":8487:8554   */\n  tag_139\n    /* \"#utility.yul\":8547:8553   */\n  dup6\n    /* \"#utility.yul\":8540:8545   */\n  dup3\n    /* \"#utility.yul\":8487:8554   */\n  tag_43\n  jump\t// in\ntag_139:\n    /* \"#utility.yul\":8481:8485   */\n  dup7\n    /* \"#utility.yul\":8474:8555   */\n  sstore\n    /* \"#utility.yul\":8343:8565   */\n  pop\n    /* \"#utility.yul\":7678:8565   */\n  jump(tag_136)\n    /* \"#utility.yul\":7708:8326   */\ntag_137:\n    /* \"#utility.yul\":7760:7764   */\n  0x1f\n    /* \"#utility.yul\":7756:7765   */\n  not\n    /* \"#utility.yul\":7748:7754   */\n  dup5\n    /* \"#utility.yul\":7744:7766   */\n  and\n    /* \"#utility.yul\":7794:7831   */\n  tag_140\n    /* \"#utility.yul\":7826:7830   */\n  dup7\n    /* \"#utility.yul\":7794:7831   */\n  tag_28\n  jump\t// in\ntag_140:\n    /* \"#utility.yul\":7853:7854   */\n  0x00\n    /* \"#utility.yul\":7867:8075   */\ntag_141:\n    /* \"#utility.yul\":7881:7888   */\n  dup3\n    /* \"#utility.yul\":7878:7879   */\n  dup2\n    /* \"#utility.yul\":7875:7889   */\n  lt\n    /* \"#utility.yul\":7867:8075   */\n  iszero\n  tag_143\n  jumpi\n    /* \"#utility.yul\":7960:7969   */\n  dup5\n    /* \"#utility.yul\":7955:7958   */\n  dup10\n    /* \"#utility.yul\":7951:7970   */\n  add\n    /* \"#utility.yul\":7945:7971   */\n  mload\n    /* \"#utility.yul\":7937:7943   */\n  dup3\n    /* \"#utility.yul\":7930:7972   */\n  sstore\n    /* \"#utility.yul\":8011:8012   */\n  0x01\n    /* \"#utility.yul\":8003:8009   */\n  dup3\n    /* \"#utility.yul\":7999:8013   */\n  add\n    /* \"#utility.yul\":7989:8013   */\n  swap2\n  pop\n    /* \"#utility.yul\":8058:8060   */\n  0x20\n    /* \"#utility.yul\":8047:8056   */\n  dup6\n    /* \"#utility.yul\":8043:8061   */\n  add\n    /* \"#utility.yul\":8030:8061   */\n  swap5\n  pop\n    /* \"#utility.yul\":7904:7908   */\n  0x20\n    /* \"#utility.yul\":7901:7902   */\n  dup2\n    /* \"#utility.yul\":7897:7909   */\n  add\n    /* \"#utility.yul\":7892:7909   */\n  swap1\n  pop\n    /* \"#utility.yul\":7867:8075   */\n  jump(tag_141)\ntag_143:\n    /* \"#utility.yul\":8103:8109   */\n  dup7\n    /* \"#utility.yul\":8094:8101   */\n  dup4\n    /* \"#utility.yul\":8091:8110   */\n  lt\n    /* \"#utility.yul\":8088:8267   */\n  iszero\n  tag_144\n  jumpi\n    /* \"#utility.yul\":8161:8170   */\n  dup5\n    /* \"#utility.yul\":8156:8159   */\n  dup10\n    /* \"#utility.yul\":8152:8171   */\n  add\n    /* \"#utility.yul\":8146:8172   */\n  mload\n    /* \"#utility.yul\":8204:8252   */\n  tag_145\n    /* \"#utility.yul\":8246:8250   */\n  0x1f\n    /* \"#utility.yul\":8238:8244   */\n  dup10\n    /* \"#utility.yul\":8234:8251   */\n  and\n    /* \"#utility.yul\":8223:8232   */\n  dup3\n    /* \"#utility.yul\":8204:8252   */\n  tag_42\n  jump\t// in\ntag_145:\n    /* \"#utility.yul\":8196:8202   */\n  dup4\n    /* \"#utility.yul\":8189:8253   */\n  sstore\n    /* \"#utility.yul\":8111:8267   */\n  pop\n    /* \"#utility.yul\":8088:8267   */\ntag_144:\n    /* \"#utility.yul\":8313:8314   */\n  0x01\n    /* \"#utility.yul\":8309:8310   */\n  0x02\n    /* \"#utility.yul\":8301:8307   */\n  dup9\n    /* \"#utility.yul\":8297:8311   */\n  mul\n    /* \"#utility.yul\":8293:8315   */\n  add\n    /* \"#utility.yul\":8287:8291   */\n  dup9\n    /* \"#utility.yul\":8280:8316   */\n  sstore\n    /* \"#utility.yul\":7715:8326   */\n  pop\n  pop\n  pop\n    /* \"#utility.yul\":7678:8565   */\ntag_136:\n  pop\n    /* \"#utility.yul\":7268:8571   */\n  pop\n  pop\n  pop\n    /* \"#utility.yul\":7176:8571   */\n  pop\n  pop\n  jump\t// out\n    /* \"myNFT.sol\":175:10550  contract MyNFT is ERC721 {... */\ntag_11:\n  dataSize(sub_0)\n  dup1\n  dataOffset(sub_0)\n  0x00\n  codecopy\n  0x00\n  return\nstop\n\nsub_0: assembly {\n        /* \"myNFT.sol\":175:10550  contract MyNFT is ERC721 {... */\n      mstore(0x40, 0x80)\n      callvalue\n      dup1\n      iszero\n      tag_1\n      jumpi\n      0x00\n      dup1\n      revert\n    tag_1:\n      pop\n      jumpi(tag_2, lt(calldatasize, 0x04))\n      shr(0xe0, calldataload(0x00))\n      dup1\n      0x6352211e\n      gt\n      tag_23\n      jumpi\n      dup1\n      0xa22cb465\n      gt\n      tag_24\n      jumpi\n      dup1\n      0xa22cb465\n      eq\n      tag_18\n      jumpi\n      dup1\n      0xb88d4fde\n      eq\n      tag_19\n      jumpi\n      dup1\n      0xc87b56dd\n      eq\n      tag_20\n      jumpi\n      dup1\n      0xd15a76d2\n      eq\n      tag_21\n      jumpi\n      dup1\n      0xe985e9c5\n      eq\n      tag_22\n      jumpi\n      jump(tag_2)\n    tag_24:\n      dup1\n      0x6352211e\n      eq\n      tag_13\n      jumpi\n      dup1\n      0x70a08231\n      eq\n      tag_14\n      jumpi\n      dup1\n      0x838e4537\n      eq\n      tag_15\n      jumpi\n      dup1\n      0x8a55a50e\n      eq\n      tag_16\n      jumpi\n      dup1\n      0x95d89b41\n      eq\n      tag_17\n      jumpi\n      jump(tag_2)\n    tag_23:\n      dup1\n      0x23b872dd\n      gt\n      tag_25\n      jumpi\n      dup1\n      0x23b872dd\n      eq\n      tag_8\n      jumpi\n      dup1\n      0x29d6724e\n      eq\n      tag_9\n      jumpi\n      dup1\n      0x3bb3a24d\n      eq\n      tag_10\n      jumpi\n      dup1\n      0x42842e0e\n      eq\n      tag_11\n      jumpi\n      dup1\n      0x5f0cac76\n      eq\n      tag_12\n      jumpi\n      jump(tag_2)\n    tag_25:\n      dup1\n      0x01ffc9a7\n      eq\n      tag_3\n      jumpi\n      dup1\n      0x06fdde03\n      eq\n      tag_4\n      jumpi\n      dup1\n      0x081812fc\n      eq\n      tag_5\n      jumpi\n      dup1\n      0x095ea7b3\n      eq\n      tag_6\n      jumpi\n      dup1\n      0x0a48a1ac\n      eq\n      tag_7\n      jumpi\n    tag_2:\n      0x00\n      dup1\n      revert\n        /* \"node_modules/@openzeppelin/contracts/token/ERC721/ERC721.sol\":3063:3363  function supportsInterface(bytes4 interfaceId) public view virtual override(ERC165, IERC165) returns (bool) {... */\n    tag_3:\n      tag_26\n      0x04\n      dup1\n      calldatasize\n      sub\n      dup2\n      add\n      swap1\n      tag_27\n      swap2\n      swap1\n      tag_28\n      jump\t// in\n    tag_27:\n      tag_29\n      jump\t// in\n    tag_26:\n      mload(0x40)\n      tag_30\n      swap2\n      swap1\n      tag_31\n      jump\t// in\n    tag_30:\n      mload(0x40)\n      dup1\n      swap2\n      sub\n      swap1\n      return\n        /* \"node_modules/@openzeppelin/contracts/token/ERC721/ERC721.sol\":4208:4297  function name() public view virtual returns (string memory) {... */\n    tag_4:\n      tag_32\n      tag_33\n      jump\t// in\n    tag_32:\n      mload(0x40)\n      tag_34\n      swap2\n      swap1\n      tag_35\n      jump\t// in\n    tag_34:\n      mload(0x40)\n      dup1\n      swap2\n      sub\n      swap1\n      return\n        /* \"node_modules/@openzeppelin/contracts/token/ERC721/ERC721.sol\":6521:6675  function getApproved(uint256 tokenId) public view virtual returns (address) {... */\n    tag_5:\n      tag_36\n      0x04\n      dup1\n      calldatasize\n      sub\n      dup2\n      add\n      swap1\n      tag_37\n      swap2\n      swap1\n      tag_38\n      jump\t// in\n    tag_37:\n      tag_39\n      jump\t// in\n    tag_36:\n      mload(0x40)\n      tag_40\n      swap2\n      swap1\n      tag_41\n      jump\t// in\n    tag_40:\n      mload(0x40)\n      dup1\n      swap2\n      sub\n      swap1\n      return\n        /* \"node_modules/@openzeppelin/contracts/token/ERC721/ERC721.sol\":6347:6460  function approve(address to, uint256 tokenId) public virtual {... */\n    tag_6:\n      tag_42\n      0x04\n      dup1\n      calldatasize\n      sub\n      dup2\n      add\n      swap1\n      tag_43\n      swap2\n      swap1\n      tag_44\n      jump\t// in\n    tag_43:\n      tag_45\n      jump\t// in\n    tag_42:\n      stop\n        /* \"myNFT.sol\":6633:8301  function getOwnerTokenMetaData(address owner) public view returns (TokenIdMetaDataWrapper[] memory) {... */\n    tag_7:\n      tag_46\n      0x04\n      dup1\n      calldatasize\n      sub\n      dup2\n      add\n      swap1\n      tag_47\n      swap2\n      swap1\n      tag_48\n      jump\t// in\n    tag_47:\n      tag_49\n      jump\t// in\n    tag_46:\n      mload(0x40)\n      tag_50\n      swap2\n      swap1\n      tag_51\n      jump\t// in\n    tag_50:\n      mload(0x40)\n      dup1\n      swap2\n      sub\n      swap1\n      return\n        /* \"node_modules/@openzeppelin/contracts/token/ERC721/ERC721.sol\":7167:7745  function transferFrom(address from, address to, uint256 tokenId) public virtual {... */\n    tag_8:\n      tag_52\n      0x04\n      dup1\n      calldatasize\n      sub\n      dup2\n      add\n      swap1\n      tag_53\n      swap2\n      swap1\n      tag_54\n      jump\t// in\n    tag_53:\n      tag_55\n      jump\t// in\n    tag_52:\n      stop\n        /* \"myNFT.sol\":9626:10547  function setAppAll(address owner, address operator, bool approved) public {... */\n    tag_9:\n      tag_56\n      0x04\n      dup1\n      calldatasize\n      sub\n      dup2\n      add\n      swap1\n      tag_57\n      swap2\n      swap1\n      tag_58\n      jump\t// in\n    tag_57:\n      tag_59\n      jump\t// in\n    tag_56:\n      stop\n        /* \"myNFT.sol\":4603:4735  function getTokenURI(uint256 tokenId) public view returns (string memory) {... */\n    tag_10:\n      tag_60\n      0x04\n      dup1\n      calldatasize\n      sub\n      dup2\n      add\n      swap1\n      tag_61\n      swap2\n      swap1\n      tag_38\n      jump\t// in\n    tag_61:\n      tag_62\n      jump\t// in\n    tag_60:\n      mload(0x40)\n      tag_63\n      swap2\n      swap1\n      tag_35\n      jump\t// in\n    tag_63:\n      mload(0x40)\n      dup1\n      swap2\n      sub\n      swap1\n      return\n        /* \"node_modules/@openzeppelin/contracts/token/ERC721/ERC721.sol\":7811:7943  function safeTransferFrom(address from, address to, uint256 tokenId) public {... */\n    tag_11:\n      tag_64\n      0x04\n      dup1\n      calldatasize\n      sub\n      dup2\n      add\n      swap1\n      tag_65\n      swap2\n      swap1\n      tag_54\n      jump\t// in\n    tag_65:\n      tag_66\n      jump\t// in\n    tag_64:\n      stop\n        /* \"myNFT.sol\":5056:6544  function getOwnerURIs(address owner) public view returns (string[] memory) {... */\n    tag_12:\n      tag_67\n      0x04\n      dup1\n      calldatasize\n      sub\n      dup2\n      add\n      swap1\n      tag_68\n      swap2\n      swap1\n      tag_48\n      jump\t// in\n    tag_68:\n      tag_69\n      jump\t// in\n    tag_67:\n      mload(0x40)\n      tag_70\n      swap2\n      swap1\n      tag_71\n      jump\t// in\n    tag_70:\n      mload(0x40)\n      dup1\n      swap2\n      sub\n      swap1\n      return\n        /* \"node_modules/@openzeppelin/contracts/token/ERC721/ERC721.sol\":3995:4113  function ownerOf(uint256 tokenId) public view virtual returns (address) {... */\n    tag_13:\n      tag_72\n      0x04\n      dup1\n      calldatasize\n      sub\n      dup2\n      add\n      swap1\n      tag_73\n      swap2\n      swap1\n      tag_38\n      jump\t// in\n    tag_73:\n      tag_74\n      jump\t// in\n    tag_72:\n      mload(0x40)\n      tag_75\n      swap2\n      swap1\n      tag_41\n      jump\t// in\n    tag_75:\n      mload(0x40)\n      dup1\n      swap2\n      sub\n      swap1\n      return\n        /* \"node_modules/@openzeppelin/contracts/token/ERC721/ERC721.sol\":3551:3759  function balanceOf(address owner) public view virtual returns (uint256) {... */\n    tag_14:\n      tag_76\n      0x04\n      dup1\n      calldatasize\n      sub\n      dup2\n      add\n      swap1\n      tag_77\n      swap2\n      swap1\n      tag_48\n      jump\t// in\n    tag_77:\n      tag_78\n      jump\t// in\n    tag_76:\n      mload(0x40)\n      tag_79\n      swap2\n      swap1\n      tag_80\n      jump\t// in\n    tag_79:\n      mload(0x40)\n      dup1\n      swap2\n      sub\n      swap1\n      return\n        /* \"myNFT.sol\":2636:3008  function makeRandom(string memory seed) public pure returns (uint256) {... */\n    tag_15:\n      tag_81\n      0x04\n      dup1\n      calldatasize\n      sub\n      dup2\n      add\n      swap1\n      tag_82\n      swap2\n      swap1\n      tag_83\n      jump\t// in\n    tag_82:\n      tag_84\n      jump\t// in\n    tag_81:\n      mload(0x40)\n      tag_85\n      swap2\n      swap1\n      tag_80\n      jump\t// in\n    tag_85:\n      mload(0x40)\n      dup1\n      swap2\n      sub\n      swap1\n      return\n        /* \"myNFT.sol\":3388:4530  function minting(string memory _tokenURI , string memory seed) public returns (string memory) {... */\n    tag_16:\n      tag_86\n      0x04\n      dup1\n      calldatasize\n      sub\n      dup2\n      add\n      swap1\n      tag_87\n      swap2\n      swap1\n      tag_88\n      jump\t// in\n    tag_87:\n      tag_89\n      jump\t// in\n    tag_86:\n      mload(0x40)\n      tag_90\n      swap2\n      swap1\n      tag_35\n      jump\t// in\n    tag_90:\n      mload(0x40)\n      dup1\n      swap2\n      sub\n      swap1\n      return\n        /* \"node_modules/@openzeppelin/contracts/token/ERC721/ERC721.sol\":4361:4454  function symbol() public view virtual returns (string memory) {... */\n    tag_17:\n      tag_91\n      tag_92\n      jump\t// in\n    tag_91:\n      mload(0x40)\n      tag_93\n      swap2\n      swap1\n      tag_35\n      jump\t// in\n    tag_93:\n      mload(0x40)\n      dup1\n      swap2\n      sub\n      swap1\n      return\n        /* \"node_modules/@openzeppelin/contracts/token/ERC721/ERC721.sol\":6742:6886  function setApprovalForAll(address operator, bool approved) public virtual {... */\n    tag_18:\n      tag_94\n      0x04\n      dup1\n      calldatasize\n      sub\n      dup2\n      add\n      swap1\n      tag_95\n      swap2\n      swap1\n      tag_96\n      jump\t// in\n    tag_95:\n      tag_97\n      jump\t// in\n    tag_94:\n      stop\n        /* \"node_modules/@openzeppelin/contracts/token/ERC721/ERC721.sol\":8009:8217  function safeTransferFrom(address from, address to, uint256 tokenId, bytes memory data) public virtual {... */\n    tag_19:\n      tag_98\n      0x04\n      dup1\n      calldatasize\n      sub\n      dup2\n      add\n      swap1\n      tag_99\n      swap2\n      swap1\n      tag_100\n      jump\t// in\n    tag_99:\n      tag_101\n      jump\t// in\n    tag_98:\n      stop\n        /* \"myNFT.sol\":8521:8982  function tokenURI( uint256 _tokenId) public view override returns(string memory){... */\n    tag_20:\n      tag_102\n      0x04\n      dup1\n      calldatasize\n      sub\n      dup2\n      add\n      swap1\n      tag_103\n      swap2\n      swap1\n      tag_38\n      jump\t// in\n    tag_103:\n      tag_104\n      jump\t// in\n    tag_102:\n      mload(0x40)\n      tag_105\n      swap2\n      swap1\n      tag_35\n      jump\t// in\n    tag_105:\n      mload(0x40)\n      dup1\n      swap2\n      sub\n      swap1\n      return\n        /* \"myNFT.sol\":4814:4950  function getTokenRanking(uint256 tokenId) public view returns (uint256 ranking){... */\n    tag_21:\n      tag_106\n      0x04\n      dup1\n      calldatasize\n      sub\n      dup2\n      add\n      swap1\n      tag_107\n      swap2\n      swap1\n      tag_38\n      jump\t// in\n    tag_107:\n      tag_108\n      jump\t// in\n    tag_106:\n      mload(0x40)\n      tag_109\n      swap2\n      swap1\n      tag_80\n      jump\t// in\n    tag_109:\n      mload(0x40)\n      dup1\n      swap2\n      sub\n      swap1\n      return\n        /* \"node_modules/@openzeppelin/contracts/token/ERC721/ERC721.sol\":6952:7105  function isApprovedForAll(address owner, address operator) public view virtual returns (bool) {... */\n    tag_22:\n      tag_110\n      0x04\n      dup1\n      calldatasize\n      sub\n      dup2\n      add\n      swap1\n      tag_111\n      swap2\n      swap1\n      tag_112\n      jump\t// in\n    tag_111:\n      tag_113\n      jump\t// in\n    tag_110:\n      mload(0x40)\n      tag_114\n      swap2\n      swap1\n      tag_31\n      jump\t// in\n    tag_114:\n      mload(0x40)\n      dup1\n      swap2\n      sub\n      swap1\n      return\n        /* \"node_modules/@openzeppelin/contracts/token/ERC721/ERC721.sol\":3063:3363  function supportsInterface(bytes4 interfaceId) public view virtual override(ERC165, IERC165) returns (bool) {... */\n    tag_29:\n        /* \"node_modules/@openzeppelin/contracts/token/ERC721/ERC721.sol\":3165:3169  bool */\n      0x00\n        /* \"node_modules/@openzeppelin/contracts/token/ERC721/ERC721.sol\":3215:3240  type(IERC721).interfaceId */\n      0x80ac58cd00000000000000000000000000000000000000000000000000000000\n        /* \"node_modules/@openzeppelin/contracts/token/ERC721/ERC721.sol\":3200:3240  interfaceId == type(IERC721).interfaceId */\n      not(0xffffffffffffffffffffffffffffffffffffffffffffffffffffffff)\n      and\n        /* \"node_modules/@openzeppelin/contracts/token/ERC721/ERC721.sol\":3200:3211  interfaceId */\n      dup3\n        /* \"node_modules/@openzeppelin/contracts/token/ERC721/ERC721.sol\":3200:3240  interfaceId == type(IERC721).interfaceId */\n      not(0xffffffffffffffffffffffffffffffffffffffffffffffffffffffff)\n      and\n      eq\n        /* \"node_modules/@openzeppelin/contracts/token/ERC721/ERC721.sol\":3200:3304  interfaceId == type(IERC721).interfaceId ||... */\n      dup1\n      tag_116\n      jumpi\n      pop\n        /* \"node_modules/@openzeppelin/contracts/token/ERC721/ERC721.sol\":3271:3304  type(IERC721Metadata).interfaceId */\n      0x5b5e139f00000000000000000000000000000000000000000000000000000000\n        /* \"node_modules/@openzeppelin/contracts/token/ERC721/ERC721.sol\":3256:3304  interfaceId == type(IERC721Metadata).interfaceId */\n      not(0xffffffffffffffffffffffffffffffffffffffffffffffffffffffff)\n      and\n        /* \"node_modules/@openzeppelin/contracts/token/ERC721/ERC721.sol\":3256:3267  interfaceId */\n      dup3\n        /* \"node_modules/@openzeppelin/contracts/token/ERC721/ERC721.sol\":3256:3304  interfaceId == type(IERC721Metadata).interfaceId */\n      not(0xffffffffffffffffffffffffffffffffffffffffffffffffffffffff)\n      and\n      eq\n        /* \"node_modules/@openzeppelin/contracts/token/ERC721/ERC721.sol\":3200:3304  interfaceId == type(IERC721).interfaceId ||... */\n    tag_116:\n        /* \"node_modules/@openzeppelin/contracts/token/ERC721/ERC721.sol\":3200:3356  interfaceId == type(IERC721).interfaceId ||... */\n      dup1\n      tag_117\n      jumpi\n      pop\n        /* \"node_modules/@openzeppelin/contracts/token/ERC721/ERC721.sol\":3320:3356  super.supportsInterface(interfaceId) */\n      tag_118\n        /* \"node_modules/@openzeppelin/contracts/token/ERC721/ERC721.sol\":3344:3355  interfaceId */\n      dup3\n        /* \"node_modules/@openzeppelin/contracts/token/ERC721/ERC721.sol\":3320:3343  super.supportsInterface */\n      tag_119\n        /* \"node_modules/@openzeppelin/contracts/token/ERC721/ERC721.sol\":3320:3356  super.supportsInterface(interfaceId) */\n      jump\t// in\n    tag_118:\n        /* \"node_modules/@openzeppelin/contracts/token/ERC721/ERC721.sol\":3200:3356  interfaceId == type(IERC721).interfaceId ||... */\n    tag_117:\n        /* \"node_modules/@openzeppelin/contracts/token/ERC721/ERC721.sol\":3181:3356  return... */\n      swap1\n      pop\n        /* \"node_modules/@openzeppelin/contracts/token/ERC721/ERC721.sol\":3063:3363  function supportsInterface(bytes4 interfaceId) public view virtual override(ERC165, IERC165) returns (bool) {... */\n      swap2\n      swap1\n      pop\n      jump\t// out\n        /* \"node_modules/@openzeppelin/contracts/token/ERC721/ERC721.sol\":4208:4297  function name() public view virtual returns (string memory) {... */\n    tag_33:\n        /* \"node_modules/@openzeppelin/contracts/token/ERC721/ERC721.sol\":4253:4266  string memory */\n      0x60\n        /* \"node_modules/@openzeppelin/contracts/token/ERC721/ERC721.sol\":4285:4290  _name */\n      0x00\n        /* \"node_modules/@openzeppelin/contracts/token/ERC721/ERC721.sol\":4278:4290  return _name */\n      dup1\n      sload\n      tag_121\n      swap1\n      tag_122\n      jump\t// in\n    tag_121:\n      dup1\n      0x1f\n      add\n      0x20\n      dup1\n      swap2\n      div\n      mul\n      0x20\n      add\n      mload(0x40)\n      swap1\n      dup2\n      add\n      0x40\n      mstore\n      dup1\n      swap3\n      swap2\n      swap1\n      dup2\n      dup2\n      mstore\n      0x20\n      add\n      dup3\n      dup1\n      sload\n      tag_123\n      swap1\n      tag_122\n      jump\t// in\n    tag_123:\n      dup1\n      iszero\n      tag_124\n      jumpi\n      dup1\n      0x1f\n      lt\n      tag_125\n      jumpi\n      0x0100\n      dup1\n      dup4\n      sload\n      div\n      mul\n      dup4\n      mstore\n      swap2\n      0x20\n      add\n      swap2\n      jump(tag_124)\n    tag_125:\n      dup3\n      add\n      swap2\n      swap1\n      0x00\n      mstore\n      keccak256(0x00, 0x20)\n      swap1\n    tag_126:\n      dup2\n      sload\n      dup2\n      mstore\n      swap1\n      0x01\n      add\n      swap1\n      0x20\n      add\n      dup1\n      dup4\n      gt\n      tag_126\n      jumpi\n      dup3\n      swap1\n      sub\n      0x1f\n      and\n      dup3\n      add\n      swap2\n    tag_124:\n      pop\n      pop\n      pop\n      pop\n      pop\n      swap1\n      pop\n        /* \"node_modules/@openzeppelin/contracts/token/ERC721/ERC721.sol\":4208:4297  function name() public view virtual returns (string memory) {... */\n      swap1\n      jump\t// out\n        /* \"node_modules/@openzeppelin/contracts/token/ERC721/ERC721.sol\":6521:6675  function getApproved(uint256 tokenId) public view virtual returns (address) {... */\n    tag_39:\n        /* \"node_modules/@openzeppelin/contracts/token/ERC721/ERC721.sol\":6588:6595  address */\n      0x00\n        /* \"node_modules/@openzeppelin/contracts/token/ERC721/ERC721.sol\":6607:6629  _requireOwned(tokenId) */\n      tag_128\n        /* \"node_modules/@openzeppelin/contracts/token/ERC721/ERC721.sol\":6621:6628  tokenId */\n      dup3\n        /* \"node_modules/@openzeppelin/contracts/token/ERC721/ERC721.sol\":6607:6620  _requireOwned */\n      tag_129\n        /* \"node_modules/@openzeppelin/contracts/token/ERC721/ERC721.sol\":6607:6629  _requireOwned(tokenId) */\n      jump\t// in\n    tag_128:\n      pop\n        /* \"node_modules/@openzeppelin/contracts/token/ERC721/ERC721.sol\":6647:6668  _getApproved(tokenId) */\n      tag_130\n        /* \"node_modules/@openzeppelin/contracts/token/ERC721/ERC721.sol\":6660:6667  tokenId */\n      dup3\n        /* \"node_modules/@openzeppelin/contracts/token/ERC721/ERC721.sol\":6647:6659  _getApproved */\n      tag_131\n        /* \"node_modules/@openzeppelin/contracts/token/ERC721/ERC721.sol\":6647:6668  _getApproved(tokenId) */\n      jump\t// in\n    tag_130:\n        /* \"node_modules/@openzeppelin/contracts/token/ERC721/ERC721.sol\":6640:6668  return _getApproved(tokenId) */\n      swap1\n      pop\n        /* \"node_modules/@openzeppelin/contracts/token/ERC721/ERC721.sol\":6521:6675  function getApproved(uint256 tokenId) public view virtual returns (address) {... */\n      swap2\n      swap1\n      pop\n      jump\t// out\n        /* \"node_modules/@openzeppelin/contracts/token/ERC721/ERC721.sol\":6347:6460  function approve(address to, uint256 tokenId) public virtual {... */\n    tag_45:\n        /* \"node_modules/@openzeppelin/contracts/token/ERC721/ERC721.sol\":6418:6453  _approve(to, tokenId, _msgSender()) */\n      tag_133\n        /* \"node_modules/@openzeppelin/contracts/token/ERC721/ERC721.sol\":6427:6429  to */\n      dup3\n        /* \"node_modules/@openzeppelin/contracts/token/ERC721/ERC721.sol\":6431:6438  tokenId */\n      dup3\n        /* \"node_modules/@openzeppelin/contracts/token/ERC721/ERC721.sol\":6440:6452  _msgSender() */\n      tag_134\n        /* \"node_modules/@openzeppelin/contracts/token/ERC721/ERC721.sol\":6440:6450  _msgSender */\n      tag_135\n        /* \"node_modules/@openzeppelin/contracts/token/ERC721/ERC721.sol\":6440:6452  _msgSender() */\n      jump\t// in\n    tag_134:\n        /* \"node_modules/@openzeppelin/contracts/token/ERC721/ERC721.sol\":6418:6426  _approve */\n      tag_136\n        /* \"node_modules/@openzeppelin/contracts/token/ERC721/ERC721.sol\":6418:6453  _approve(to, tokenId, _msgSender()) */\n      jump\t// in\n    tag_133:\n        /* \"node_modules/@openzeppelin/contracts/token/ERC721/ERC721.sol\":6347:6460  function approve(address to, uint256 tokenId) public virtual {... */\n      pop\n      pop\n      jump\t// out\n        /* \"myNFT.sol\":6633:8301  function getOwnerTokenMetaData(address owner) public view returns (TokenIdMetaDataWrapper[] memory) {... */\n    tag_49:\n        /* \"myNFT.sol\":6700:6731  TokenIdMetaDataWrapper[] memory */\n      0x60\n        /* \"myNFT.sol\":6744:6769  uint256[] memory tokenIds */\n      0x00\n        /* \"myNFT.sol\":6772:6782  addressIDs */\n      0x08\n        /* \"myNFT.sol\":6772:6789  addressIDs[owner] */\n      0x00\n        /* \"myNFT.sol\":6783:6788  owner */\n      dup5\n        /* \"myNFT.sol\":6772:6789  addressIDs[owner] */\n      0xffffffffffffffffffffffffffffffffffffffff\n      and\n      0xffffffffffffffffffffffffffffffffffffffff\n      and\n      dup2\n      mstore\n      0x20\n      add\n      swap1\n      dup2\n      mstore\n      0x20\n      add\n      0x00\n      keccak256\n        /* \"myNFT.sol\":6744:6789  uint256[] memory tokenIds = addressIDs[owner] */\n      dup1\n      sload\n      dup1\n      0x20\n      mul\n      0x20\n      add\n      mload(0x40)\n      swap1\n      dup2\n      add\n      0x40\n      mstore\n      dup1\n      swap3\n      swap2\n      swap1\n      dup2\n      dup2\n      mstore\n      0x20\n      add\n      dup3\n      dup1\n      sload\n      dup1\n      iszero\n      tag_138\n      jumpi\n      0x20\n      mul\n      dup3\n      add\n      swap2\n      swap1\n      0x00\n      mstore\n      keccak256(0x00, 0x20)\n      swap1\n    tag_139:\n      dup2\n      sload\n      dup2\n      mstore\n      0x20\n      add\n      swap1\n      0x01\n      add\n      swap1\n      dup1\n      dup4\n      gt\n      tag_139\n      jumpi\n    tag_138:\n      pop\n      pop\n      pop\n      pop\n      pop\n      swap1\n      pop\n        /* \"myNFT.sol\":6984:7029  TokenIdMetaDataWrapper[] memory ownerMetaData */\n      0x00\n        /* \"myNFT.sol\":7061:7069  tokenIds */\n      dup2\n        /* \"myNFT.sol\":7061:7076  tokenIds.length */\n      mload\n        /* \"myNFT.sol\":7032:7077  new TokenIdMetaDataWrapper[](tokenIds.length) */\n      0xffffffffffffffff\n      dup2\n      gt\n      iszero\n      tag_140\n      jumpi\n      tag_141\n      tag_142\n      jump\t// in\n    tag_141:\n    tag_140:\n      mload(0x40)\n      swap1\n      dup1\n      dup3\n      mstore\n      dup1\n      0x20\n      mul\n      0x20\n      add\n      dup3\n      add\n      0x40\n      mstore\n      dup1\n      iszero\n      tag_143\n      jumpi\n      dup2\n      0x20\n      add\n    tag_144:\n      tag_145\n      tag_146\n      jump\t// in\n    tag_145:\n      dup2\n      mstore\n      0x20\n      add\n      swap1\n      0x01\n      swap1\n      sub\n      swap1\n      dup2\n      tag_144\n      jumpi\n      swap1\n      pop\n    tag_143:\n      pop\n        /* \"myNFT.sol\":6984:7077  TokenIdMetaDataWrapper[] memory ownerMetaData = new TokenIdMetaDataWrapper[](tokenIds.length) */\n      swap1\n      pop\n        /* \"myNFT.sol\":7561:7570  uint256 i */\n      0x00\n        /* \"myNFT.sol\":7556:7785  for (uint256 i = 0; i < tokenIds.length; i++) {... */\n    tag_147:\n        /* \"myNFT.sol\":7580:7588  tokenIds */\n      dup3\n        /* \"myNFT.sol\":7580:7595  tokenIds.length */\n      mload\n        /* \"myNFT.sol\":7576:7577  i */\n      dup2\n        /* \"myNFT.sol\":7576:7595  i < tokenIds.length */\n      lt\n        /* \"myNFT.sol\":7556:7785  for (uint256 i = 0; i < tokenIds.length; i++) {... */\n      iszero\n      tag_148\n      jumpi\n        /* \"myNFT.sol\":7636:7773  TokenIdMetaDataWrapper({... */\n      mload(0x40)\n      dup1\n      0x40\n      add\n      0x40\n      mstore\n      dup1\n        /* \"myNFT.sol\":7688:7696  tokenIds */\n      dup5\n        /* \"myNFT.sol\":7697:7698  i */\n      dup4\n        /* \"myNFT.sol\":7688:7699  tokenIds[i] */\n      dup2\n      mload\n      dup2\n      lt\n      tag_150\n      jumpi\n      tag_151\n      tag_152\n      jump\t// in\n    tag_151:\n    tag_150:\n      0x20\n      mul\n      0x20\n      add\n      add\n      mload\n        /* \"myNFT.sol\":7636:7773  TokenIdMetaDataWrapper({... */\n      dup2\n      mstore\n      0x20\n      add\n        /* \"myNFT.sol\":7730:7744  _tokenMetaData */\n      0x06\n        /* \"myNFT.sol\":7730:7757  _tokenMetaData[tokenIds[i]] */\n      0x00\n        /* \"myNFT.sol\":7745:7753  tokenIds */\n      dup7\n        /* \"myNFT.sol\":7754:7755  i */\n      dup6\n        /* \"myNFT.sol\":7745:7756  tokenIds[i] */\n      dup2\n      mload\n      dup2\n      lt\n      tag_153\n      jumpi\n      tag_154\n      tag_152\n      jump\t// in\n    tag_154:\n    tag_153:\n      0x20\n      mul\n      0x20\n      add\n      add\n      mload\n        /* \"myNFT.sol\":7730:7757  _tokenMetaData[tokenIds[i]] */\n      dup2\n      mstore\n      0x20\n      add\n      swap1\n      dup2\n      mstore\n      0x20\n      add\n      0x00\n      keccak256\n        /* \"myNFT.sol\":7636:7773  TokenIdMetaDataWrapper({... */\n      mload(0x40)\n      dup1\n      0x40\n      add\n      0x40\n      mstore\n      swap1\n      dup2\n      0x00\n      dup3\n      add\n      dup1\n      sload\n      tag_155\n      swap1\n      tag_122\n      jump\t// in\n    tag_155:\n      dup1\n      0x1f\n      add\n      0x20\n      dup1\n      swap2\n      div\n      mul\n      0x20\n      add\n      mload(0x40)\n      swap1\n      dup2\n      add\n      0x40\n      mstore\n      dup1\n      swap3\n      swap2\n      swap1\n      dup2\n      dup2\n      mstore\n      0x20\n      add\n      dup3\n      dup1\n      sload\n      tag_156\n      swap1\n      tag_122\n      jump\t// in\n    tag_156:\n      dup1\n      iszero\n      tag_157\n      jumpi\n      dup1\n      0x1f\n      lt\n      tag_158\n      jumpi\n      0x0100\n      dup1\n      dup4\n      sload\n      div\n      mul\n      dup4\n      mstore\n      swap2\n      0x20\n      add\n      swap2\n      jump(tag_157)\n    tag_158:\n      dup3\n      add\n      swap2\n      swap1\n      0x00\n      mstore\n      keccak256(0x00, 0x20)\n      swap1\n    tag_159:\n      dup2\n      sload\n      dup2\n      mstore\n      swap1\n      0x01\n      add\n      swap1\n      0x20\n      add\n      dup1\n      dup4\n      gt\n      tag_159\n      jumpi\n      dup3\n      swap1\n      sub\n      0x1f\n      and\n      dup3\n      add\n      swap2\n    tag_157:\n      pop\n      pop\n      pop\n      pop\n      pop\n      dup2\n      mstore\n      0x20\n      add\n      0x01\n      dup3\n      add\n      sload\n      dup2\n      mstore\n      pop\n      pop\n      dup2\n      mstore\n      pop\n        /* \"myNFT.sol\":7617:7630  ownerMetaData */\n      dup3\n        /* \"myNFT.sol\":7631:7632  i */\n      dup3\n        /* \"myNFT.sol\":7617:7633  ownerMetaData[i] */\n      dup2\n      mload\n      dup2\n      lt\n      tag_160\n      jumpi\n      tag_161\n      tag_152\n      jump\t// in\n    tag_161:\n    tag_160:\n      0x20\n      mul\n      0x20\n      add\n      add\n        /* \"myNFT.sol\":7617:7773  ownerMetaData[i] = TokenIdMetaDataWrapper({... */\n      dup2\n      swap1\n      mstore\n      pop\n        /* \"myNFT.sol\":7597:7600  i++ */\n      dup1\n      dup1\n      tag_162\n      swap1\n      tag_163\n      jump\t// in\n    tag_162:\n      swap2\n      pop\n      pop\n        /* \"myNFT.sol\":7556:7785  for (uint256 i = 0; i < tokenIds.length; i++) {... */\n      jump(tag_147)\n    tag_148:\n      pop\n        /* \"myNFT.sol\":8033:8046  ownerMetaData */\n      dup1\n        /* \"myNFT.sol\":8026:8046  return ownerMetaData */\n      swap3\n      pop\n      pop\n      pop\n        /* \"myNFT.sol\":6633:8301  function getOwnerTokenMetaData(address owner) public view returns (TokenIdMetaDataWrapper[] memory) {... */\n      swap2\n      swap1\n      pop\n      jump\t// out\n        /* \"node_modules/@openzeppelin/contracts/token/ERC721/ERC721.sol\":7167:7745  function transferFrom(address from, address to, uint256 tokenId) public virtual {... */\n    tag_55:\n        /* \"node_modules/@openzeppelin/contracts/token/ERC721/ERC721.sol\":7275:7276  0 */\n      0x00\n        /* \"node_modules/@openzeppelin/contracts/token/ERC721/ERC721.sol\":7261:7277  to == address(0) */\n      0xffffffffffffffffffffffffffffffffffffffff\n      and\n        /* \"node_modules/@openzeppelin/contracts/token/ERC721/ERC721.sol\":7261:7263  to */\n      dup3\n        /* \"node_modules/@openzeppelin/contracts/token/ERC721/ERC721.sol\":7261:7277  to == address(0) */\n      0xffffffffffffffffffffffffffffffffffffffff\n      and\n      sub\n        /* \"node_modules/@openzeppelin/contracts/token/ERC721/ERC721.sol\":7257:7344  if (to == address(0)) {... */\n      tag_165\n      jumpi\n        /* \"node_modules/@openzeppelin/contracts/token/ERC721/ERC721.sol\":7330:7331  0 */\n      0x00\n        /* \"node_modules/@openzeppelin/contracts/token/ERC721/ERC721.sol\":7300:7333  ERC721InvalidReceiver(address(0)) */\n      mload(0x40)\n      0x64a0ae9200000000000000000000000000000000000000000000000000000000\n      dup2\n      mstore\n      0x04\n      add\n      tag_166\n      swap2\n      swap1\n      tag_41\n      jump\t// in\n    tag_166:\n      mload(0x40)\n      dup1\n      swap2\n      sub\n      swap1\n      revert\n        /* \"node_modules/@openzeppelin/contracts/token/ERC721/ERC721.sol\":7257:7344  if (to == address(0)) {... */\n    tag_165:\n        /* \"node_modules/@openzeppelin/contracts/token/ERC721/ERC721.sol\":7562:7583  address previousOwner */\n      0x00\n        /* \"node_modules/@openzeppelin/contracts/token/ERC721/ERC721.sol\":7586:7620  _update(to, tokenId, _msgSender()) */\n      tag_167\n        /* \"node_modules/@openzeppelin/contracts/token/ERC721/ERC721.sol\":7594:7596  to */\n      dup4\n        /* \"node_modules/@openzeppelin/contracts/token/ERC721/ERC721.sol\":7598:7605  tokenId */\n      dup4\n        /* \"node_modules/@openzeppelin/contracts/token/ERC721/ERC721.sol\":7607:7619  _msgSender() */\n      tag_168\n        /* \"node_modules/@openzeppelin/contracts/token/ERC721/ERC721.sol\":7607:7617  _msgSender */\n      tag_135\n        /* \"node_modules/@openzeppelin/contracts/token/ERC721/ERC721.sol\":7607:7619  _msgSender() */\n      jump\t// in\n    tag_168:\n        /* \"node_modules/@openzeppelin/contracts/token/ERC721/ERC721.sol\":7586:7593  _update */\n      tag_169\n        /* \"node_modules/@openzeppelin/contracts/token/ERC721/ERC721.sol\":7586:7620  _update(to, tokenId, _msgSender()) */\n      jump\t// in\n    tag_167:\n        /* \"node_modules/@openzeppelin/contracts/token/ERC721/ERC721.sol\":7562:7620  address previousOwner = _update(to, tokenId, _msgSender()) */\n      swap1\n      pop\n        /* \"node_modules/@openzeppelin/contracts/token/ERC721/ERC721.sol\":7651:7655  from */\n      dup4\n        /* \"node_modules/@openzeppelin/contracts/token/ERC721/ERC721.sol\":7634:7655  previousOwner != from */\n      0xffffffffffffffffffffffffffffffffffffffff\n      and\n        /* \"node_modules/@openzeppelin/contracts/token/ERC721/ERC721.sol\":7634:7647  previousOwner */\n      dup2\n        /* \"node_modules/@openzeppelin/contracts/token/ERC721/ERC721.sol\":7634:7655  previousOwner != from */\n      0xffffffffffffffffffffffffffffffffffffffff\n      and\n      eq\n        /* \"node_modules/@openzeppelin/contracts/token/ERC721/ERC721.sol\":7630:7739  if (previousOwner != from) {... */\n      tag_170\n      jumpi\n        /* \"node_modules/@openzeppelin/contracts/token/ERC721/ERC721.sol\":7699:7703  from */\n      dup4\n        /* \"node_modules/@openzeppelin/contracts/token/ERC721/ERC721.sol\":7705:7712  tokenId */\n      dup3\n        /* \"node_modules/@openzeppelin/contracts/token/ERC721/ERC721.sol\":7714:7727  previousOwner */\n      dup3\n        /* \"node_modules/@openzeppelin/contracts/token/ERC721/ERC721.sol\":7678:7728  ERC721IncorrectOwner(from, tokenId, previousOwner) */\n      mload(0x40)\n      0x64283d7b00000000000000000000000000000000000000000000000000000000\n      dup2\n      mstore\n      0x04\n      add\n      tag_171\n      swap4\n      swap3\n      swap2\n      swap1\n      tag_172\n      jump\t// in\n    tag_171:\n      mload(0x40)\n      dup1\n      swap2\n      sub\n      swap1\n      revert\n        /* \"node_modules/@openzeppelin/contracts/token/ERC721/ERC721.sol\":7630:7739  if (previousOwner != from) {... */\n    tag_170:\n        /* \"node_modules/@openzeppelin/contracts/token/ERC721/ERC721.sol\":7247:7745  {... */\n      pop\n        /* \"node_modules/@openzeppelin/contracts/token/ERC721/ERC721.sol\":7167:7745  function transferFrom(address from, address to, uint256 tokenId) public virtual {... */\n      pop\n      pop\n      pop\n      jump\t// out\n        /* \"myNFT.sol\":9626:10547  function setAppAll(address owner, address operator, bool approved) public {... */\n    tag_59:\n        /* \"myNFT.sol\":10000:10037  setApprovalForAll(operator, approved) */\n      tag_174\n        /* \"myNFT.sol\":10018:10026  operator */\n      dup3\n        /* \"myNFT.sol\":10028:10036  approved */\n      dup3\n        /* \"myNFT.sol\":10000:10017  setApprovalForAll */\n      tag_97\n        /* \"myNFT.sol\":10000:10037  setApprovalForAll(operator, approved) */\n      jump\t// in\n    tag_174:\n        /* \"myNFT.sol\":9626:10547  function setAppAll(address owner, address operator, bool approved) public {... */\n      pop\n      pop\n      pop\n      jump\t// out\n        /* \"myNFT.sol\":4603:4735  function getTokenURI(uint256 tokenId) public view returns (string memory) {... */\n    tag_62:\n        /* \"myNFT.sol\":4662:4675  string memory */\n      0x60\n        /* \"myNFT.sol\":4695:4709  _tokenMetaData */\n      0x06\n        /* \"myNFT.sol\":4695:4718  _tokenMetaData[tokenId] */\n      0x00\n        /* \"myNFT.sol\":4710:4717  tokenId */\n      dup4\n        /* \"myNFT.sol\":4695:4718  _tokenMetaData[tokenId] */\n      dup2\n      mstore\n      0x20\n      add\n      swap1\n      dup2\n      mstore\n      0x20\n      add\n      0x00\n      keccak256\n        /* \"myNFT.sol\":4695:4727  _tokenMetaData[tokenId].tokenURI */\n      0x00\n      add\n        /* \"myNFT.sol\":4688:4727  return _tokenMetaData[tokenId].tokenURI */\n      dup1\n      sload\n      tag_176\n      swap1\n      tag_122\n      jump\t// in\n    tag_176:\n      dup1\n      0x1f\n      add\n      0x20\n      dup1\n      swap2\n      div\n      mul\n      0x20\n      add\n      mload(0x40)\n      swap1\n      dup2\n      add\n      0x40\n      mstore\n      dup1\n      swap3\n      swap2\n      swap1\n      dup2\n      dup2\n      mstore\n      0x20\n      add\n      dup3\n      dup1\n      sload\n      tag_177\n      swap1\n      tag_122\n      jump\t// in\n    tag_177:\n      dup1\n      iszero\n      tag_178\n      jumpi\n      dup1\n      0x1f\n      lt\n      tag_179\n      jumpi\n      0x0100\n      dup1\n      dup4\n      sload\n      div\n      mul\n      dup4\n      mstore\n      swap2\n      0x20\n      add\n      swap2\n      jump(tag_178)\n    tag_179:\n      dup3\n      add\n      swap2\n      swap1\n      0x00\n      mstore\n      keccak256(0x00, 0x20)\n      swap1\n    tag_180:\n      dup2\n      sload\n      dup2\n      mstore\n      swap1\n      0x01\n      add\n      swap1\n      0x20\n      add\n      dup1\n      dup4\n      gt\n      tag_180\n      jumpi\n      dup3\n      swap1\n      sub\n      0x1f\n      and\n      dup3\n      add\n      swap2\n    tag_178:\n      pop\n      pop\n      pop\n      pop\n      pop\n      swap1\n      pop\n        /* \"myNFT.sol\":4603:4735  function getTokenURI(uint256 tokenId) public view returns (string memory) {... */\n      swap2\n      swap1\n      pop\n      jump\t// out\n        /* \"node_modules/@openzeppelin/contracts/token/ERC721/ERC721.sol\":7811:7943  function safeTransferFrom(address from, address to, uint256 tokenId) public {... */\n    tag_66:\n        /* \"node_modules/@openzeppelin/contracts/token/ERC721/ERC721.sol\":7897:7936  safeTransferFrom(from, to, tokenId, \"\") */\n      tag_182\n        /* \"node_modules/@openzeppelin/contracts/token/ERC721/ERC721.sol\":7914:7918  from */\n      dup4\n        /* \"node_modules/@openzeppelin/contracts/token/ERC721/ERC721.sol\":7920:7922  to */\n      dup4\n        /* \"node_modules/@openzeppelin/contracts/token/ERC721/ERC721.sol\":7924:7931  tokenId */\n      dup4\n        /* \"node_modules/@openzeppelin/contracts/token/ERC721/ERC721.sol\":7897:7936  safeTransferFrom(from, to, tokenId, \"\") */\n      mload(0x40)\n      dup1\n      0x20\n      add\n      0x40\n      mstore\n      dup1\n      0x00\n      dup2\n      mstore\n      pop\n        /* \"node_modules/@openzeppelin/contracts/token/ERC721/ERC721.sol\":7897:7913  safeTransferFrom */\n      tag_101\n        /* \"node_modules/@openzeppelin/contracts/token/ERC721/ERC721.sol\":7897:7936  safeTransferFrom(from, to, tokenId, \"\") */\n      jump\t// in\n    tag_182:\n        /* \"node_modules/@openzeppelin/contracts/token/ERC721/ERC721.sol\":7811:7943  function safeTransferFrom(address from, address to, uint256 tokenId) public {... */\n      pop\n      pop\n      pop\n      jump\t// out\n        /* \"myNFT.sol\":5056:6544  function getOwnerURIs(address owner) public view returns (string[] memory) {... */\n    tag_69:\n        /* \"myNFT.sol\":5114:5129  string[] memory */\n      0x60\n        /* \"myNFT.sol\":5233:5258  uint256[] memory tokenIds */\n      0x00\n        /* \"myNFT.sol\":5261:5271  addressIDs */\n      0x08\n        /* \"myNFT.sol\":5261:5278  addressIDs[owner] */\n      0x00\n        /* \"myNFT.sol\":5272:5277  owner */\n      dup5\n        /* \"myNFT.sol\":5261:5278  addressIDs[owner] */\n      0xffffffffffffffffffffffffffffffffffffffff\n      and\n      0xffffffffffffffffffffffffffffffffffffffff\n      and\n      dup2\n      mstore\n      0x20\n      add\n      swap1\n      dup2\n      mstore\n      0x20\n      add\n      0x00\n      keccak256\n        /* \"myNFT.sol\":5233:5278  uint256[] memory tokenIds = addressIDs[owner] */\n      dup1\n      sload\n      dup1\n      0x20\n      mul\n      0x20\n      add\n      mload(0x40)\n      swap1\n      dup2\n      add\n      0x40\n      mstore\n      dup1\n      swap3\n      swap2\n      swap1\n      dup2\n      dup2\n      mstore\n      0x20\n      add\n      dup3\n      dup1\n      sload\n      dup1\n      iszero\n      tag_184\n      jumpi\n      0x20\n      mul\n      dup3\n      add\n      swap2\n      swap1\n      0x00\n      mstore\n      keccak256(0x00, 0x20)\n      swap1\n    tag_185:\n      dup2\n      sload\n      dup2\n      mstore\n      0x20\n      add\n      swap1\n      0x01\n      add\n      swap1\n      dup1\n      dup4\n      gt\n      tag_185\n      jumpi\n    tag_184:\n      pop\n      pop\n      pop\n      pop\n      pop\n      swap1\n      pop\n        /* \"myNFT.sol\":5587:5612  string[] memory ownerURIs */\n      0x00\n        /* \"myNFT.sol\":5628:5636  tokenIds */\n      dup2\n        /* \"myNFT.sol\":5628:5643  tokenIds.length */\n      mload\n        /* \"myNFT.sol\":5615:5644  new string[](tokenIds.length) */\n      0xffffffffffffffff\n      dup2\n      gt\n      iszero\n      tag_186\n      jumpi\n      tag_187\n      tag_142\n      jump\t// in\n    tag_187:\n    tag_186:\n      mload(0x40)\n      swap1\n      dup1\n      dup3\n      mstore\n      dup1\n      0x20\n      mul\n      0x20\n      add\n      dup3\n      add\n      0x40\n      mstore\n      dup1\n      iszero\n      tag_188\n      jumpi\n      dup2\n      0x20\n      add\n    tag_189:\n      0x60\n      dup2\n      mstore\n      0x20\n      add\n      swap1\n      0x01\n      swap1\n      sub\n      swap1\n      dup2\n      tag_189\n      jumpi\n      swap1\n      pop\n    tag_188:\n      pop\n        /* \"myNFT.sol\":5587:5644  string[] memory ownerURIs = new string[](tokenIds.length) */\n      swap1\n      pop\n        /* \"myNFT.sol\":5984:5993  uint256 i */\n      0x00\n        /* \"myNFT.sol\":5979:6502  for (uint256 i = 0; i < tokenIds.length; i++) {... */\n    tag_190:\n        /* \"myNFT.sol\":6003:6011  tokenIds */\n      dup3\n        /* \"myNFT.sol\":6003:6018  tokenIds.length */\n      mload\n        /* \"myNFT.sol\":5999:6000  i */\n      dup2\n        /* \"myNFT.sol\":5999:6018  i < tokenIds.length */\n      lt\n        /* \"myNFT.sol\":5979:6502  for (uint256 i = 0; i < tokenIds.length; i++) {... */\n      iszero\n      tag_191\n      jumpi\n        /* \"myNFT.sol\":6055:6069  _tokenMetaData */\n      0x06\n        /* \"myNFT.sol\":6055:6082  _tokenMetaData[tokenIds[i]] */\n      0x00\n        /* \"myNFT.sol\":6070:6078  tokenIds */\n      dup5\n        /* \"myNFT.sol\":6079:6080  i */\n      dup4\n        /* \"myNFT.sol\":6070:6081  tokenIds[i] */\n      dup2\n      mload\n      dup2\n      lt\n      tag_193\n      jumpi\n      tag_194\n      tag_152\n      jump\t// in\n    tag_194:\n    tag_193:\n      0x20\n      mul\n      0x20\n      add\n      add\n      mload\n        /* \"myNFT.sol\":6055:6082  _tokenMetaData[tokenIds[i]] */\n      dup2\n      mstore\n      0x20\n      add\n      swap1\n      dup2\n      mstore\n      0x20\n      add\n      0x00\n      keccak256\n        /* \"myNFT.sol\":6055:6091  _tokenMetaData[tokenIds[i]].tokenURI */\n      0x00\n      add\n        /* \"myNFT.sol\":6040:6091  ownerURIs[i] = _tokenMetaData[tokenIds[i]].tokenURI */\n      dup1\n      sload\n      tag_195\n      swap1\n      tag_122\n      jump\t// in\n    tag_195:\n      dup1\n      0x1f\n      add\n      0x20\n      dup1\n      swap2\n      div\n      mul\n      0x20\n      add\n      mload(0x40)\n      swap1\n      dup2\n      add\n      0x40\n      mstore\n      dup1\n      swap3\n      swap2\n      swap1\n      dup2\n      dup2\n      mstore\n      0x20\n      add\n      dup3\n      dup1\n      sload\n      tag_196\n      swap1\n      tag_122\n      jump\t// in\n    tag_196:\n      dup1\n      iszero\n      tag_197\n      jumpi\n      dup1\n      0x1f\n      lt\n      tag_198\n      jumpi\n      0x0100\n      dup1\n      dup4\n      sload\n      div\n      mul\n      dup4\n      mstore\n      swap2\n      0x20\n      add\n      swap2\n      jump(tag_197)\n    tag_198:\n      dup3\n      add\n      swap2\n      swap1\n      0x00\n      mstore\n      keccak256(0x00, 0x20)\n      swap1\n    tag_199:\n      dup2\n      sload\n      dup2\n      mstore\n      swap1\n      0x01\n      add\n      swap1\n      0x20\n      add\n      dup1\n      dup4\n      gt\n      tag_199\n      jumpi\n      dup3\n      swap1\n      sub\n      0x1f\n      and\n      dup3\n      add\n      swap2\n    tag_197:\n      pop\n      pop\n      pop\n      pop\n      pop\n        /* \"myNFT.sol\":6040:6049  ownerURIs */\n      dup3\n        /* \"myNFT.sol\":6050:6051  i */\n      dup3\n        /* \"myNFT.sol\":6040:6052  ownerURIs[i] */\n      dup2\n      mload\n      dup2\n      lt\n      tag_200\n      jumpi\n      tag_201\n      tag_152\n      jump\t// in\n    tag_201:\n    tag_200:\n      0x20\n      mul\n      0x20\n      add\n      add\n        /* \"myNFT.sol\":6040:6091  ownerURIs[i] = _tokenMetaData[tokenIds[i]].tokenURI */\n      dup2\n      swap1\n      mstore\n      pop\n        /* \"myNFT.sol\":6020:6023  i++ */\n      dup1\n      dup1\n      tag_202\n      swap1\n      tag_163\n      jump\t// in\n    tag_202:\n      swap2\n      pop\n      pop\n        /* \"myNFT.sol\":5979:6502  for (uint256 i = 0; i < tokenIds.length; i++) {... */\n      jump(tag_190)\n    tag_191:\n      pop\n        /* \"myNFT.sol\":6519:6528  ownerURIs */\n      dup1\n        /* \"myNFT.sol\":6512:6528  return ownerURIs */\n      swap3\n      pop\n      pop\n      pop\n        /* \"myNFT.sol\":5056:6544  function getOwnerURIs(address owner) public view returns (string[] memory) {... */\n      swap2\n      swap1\n      pop\n      jump\t// out\n        /* \"node_modules/@openzeppelin/contracts/token/ERC721/ERC721.sol\":3995:4113  function ownerOf(uint256 tokenId) public view virtual returns (address) {... */\n    tag_74:\n        /* \"node_modules/@openzeppelin/contracts/token/ERC721/ERC721.sol\":4058:4065  address */\n      0x00\n        /* \"node_modules/@openzeppelin/contracts/token/ERC721/ERC721.sol\":4084:4106  _requireOwned(tokenId) */\n      tag_204\n        /* \"node_modules/@openzeppelin/contracts/token/ERC721/ERC721.sol\":4098:4105  tokenId */\n      dup3\n        /* \"node_modules/@openzeppelin/contracts/token/ERC721/ERC721.sol\":4084:4097  _requireOwned */\n      tag_129\n        /* \"node_modules/@openzeppelin/contracts/token/ERC721/ERC721.sol\":4084:4106  _requireOwned(tokenId) */\n      jump\t// in\n    tag_204:\n        /* \"node_modules/@openzeppelin/contracts/token/ERC721/ERC721.sol\":4077:4106  return _requireOwned(tokenId) */\n      swap1\n      pop\n        /* \"node_modules/@openzeppelin/contracts/token/ERC721/ERC721.sol\":3995:4113  function ownerOf(uint256 tokenId) public view virtual returns (address) {... */\n      swap2\n      swap1\n      pop\n      jump\t// out\n        /* \"node_modules/@openzeppelin/contracts/token/ERC721/ERC721.sol\":3551:3759  function balanceOf(address owner) public view virtual returns (uint256) {... */\n    tag_78:\n        /* \"node_modules/@openzeppelin/contracts/token/ERC721/ERC721.sol\":3614:3621  uint256 */\n      0x00\n        /* \"node_modules/@openzeppelin/contracts/token/ERC721/ERC721.sol\":3654:3655  0 */\n      dup1\n        /* \"node_modules/@openzeppelin/contracts/token/ERC721/ERC721.sol\":3637:3656  owner == address(0) */\n      0xffffffffffffffffffffffffffffffffffffffff\n      and\n        /* \"node_modules/@openzeppelin/contracts/token/ERC721/ERC721.sol\":3637:3642  owner */\n      dup3\n        /* \"node_modules/@openzeppelin/contracts/token/ERC721/ERC721.sol\":3637:3656  owner == address(0) */\n      0xffffffffffffffffffffffffffffffffffffffff\n      and\n      sub\n        /* \"node_modules/@openzeppelin/contracts/token/ERC721/ERC721.sol\":3633:3720  if (owner == address(0)) {... */\n      tag_206\n      jumpi\n        /* \"node_modules/@openzeppelin/contracts/token/ERC721/ERC721.sol\":3706:3707  0 */\n      0x00\n        /* \"node_modules/@openzeppelin/contracts/token/ERC721/ERC721.sol\":3679:3709  ERC721InvalidOwner(address(0)) */\n      mload(0x40)\n      0x89c62b6400000000000000000000000000000000000000000000000000000000\n      dup2\n      mstore\n      0x04\n      add\n      tag_207\n      swap2\n      swap1\n      tag_41\n      jump\t// in\n    tag_207:\n      mload(0x40)\n      dup1\n      swap2\n      sub\n      swap1\n      revert\n        /* \"node_modules/@openzeppelin/contracts/token/ERC721/ERC721.sol\":3633:3720  if (owner == address(0)) {... */\n    tag_206:\n        /* \"node_modules/@openzeppelin/contracts/token/ERC721/ERC721.sol\":3736:3745  _balances */\n      0x03\n        /* \"node_modules/@openzeppelin/contracts/token/ERC721/ERC721.sol\":3736:3752  _balances[owner] */\n      0x00\n        /* \"node_modules/@openzeppelin/contracts/token/ERC721/ERC721.sol\":3746:3751  owner */\n      dup4\n        /* \"node_modules/@openzeppelin/contracts/token/ERC721/ERC721.sol\":3736:3752  _balances[owner] */\n      0xffffffffffffffffffffffffffffffffffffffff\n      and\n      0xffffffffffffffffffffffffffffffffffffffff\n      and\n      dup2\n      mstore\n      0x20\n      add\n      swap1\n      dup2\n      mstore\n      0x20\n      add\n      0x00\n      keccak256\n      sload\n        /* \"node_modules/@openzeppelin/contracts/token/ERC721/ERC721.sol\":3729:3752  return _balances[owner] */\n      swap1\n      pop\n        /* \"node_modules/@openzeppelin/contracts/token/ERC721/ERC721.sol\":3551:3759  function balanceOf(address owner) public view virtual returns (uint256) {... */\n      swap2\n      swap1\n      pop\n      jump\t// out\n        /* \"myNFT.sol\":2636:3008  function makeRandom(string memory seed) public pure returns (uint256) {... */\n    tag_84:\n        /* \"myNFT.sol\":2697:2704  uint256 */\n      0x00\n        /* \"myNFT.sol\":2777:2778  1 */\n      0x01\n        /* \"myNFT.sol\":2770:2772  10 */\n      0x0a\n        /* \"myNFT.sol\":2760:2764  seed */\n      dup4\n        /* \"myNFT.sol\":2743:2765  abi.encodePacked(seed) */\n      add(0x20, mload(0x40))\n      tag_209\n      swap2\n      swap1\n      tag_210\n      jump\t// in\n    tag_209:\n      mload(0x40)\n      0x20\n      dup2\n      dup4\n      sub\n      sub\n      dup2\n      mstore\n      swap1\n      0x40\n      mstore\n        /* \"myNFT.sol\":2733:2766  keccak256(abi.encodePacked(seed)) */\n      dup1\n      mload\n      swap1\n      0x20\n      add\n      keccak256\n        /* \"myNFT.sol\":2725:2767  uint256(keccak256(abi.encodePacked(seed))) */\n      0x00\n      shr\n        /* \"myNFT.sol\":2725:2772  uint256(keccak256(abi.encodePacked(seed))) % 10 */\n      tag_211\n      swap2\n      swap1\n      tag_212\n      jump\t// in\n    tag_211:\n        /* \"myNFT.sol\":2724:2778  (uint256(keccak256(abi.encodePacked(seed))) % 10 ) + 1 */\n      tag_213\n      swap2\n      swap1\n      tag_214\n      jump\t// in\n    tag_213:\n        /* \"myNFT.sol\":2717:2778  return (uint256(keccak256(abi.encodePacked(seed))) % 10 ) + 1 */\n      swap1\n      pop\n        /* \"myNFT.sol\":2636:3008  function makeRandom(string memory seed) public pure returns (uint256) {... */\n      swap2\n      swap1\n      pop\n      jump\t// out\n        /* \"myNFT.sol\":3388:4530  function minting(string memory _tokenURI , string memory seed) public returns (string memory) {... */\n    tag_89:\n        /* \"myNFT.sol\":3467:3480  string memory */\n      0x60\n        /* \"myNFT.sol\":3566:3587  uint256 randomRanking */\n      0x00\n        /* \"myNFT.sol\":3590:3606  makeRandom(seed) */\n      tag_216\n        /* \"myNFT.sol\":3601:3605  seed */\n      dup4\n        /* \"myNFT.sol\":3590:3600  makeRandom */\n      tag_84\n        /* \"myNFT.sol\":3590:3606  makeRandom(seed) */\n      jump\t// in\n    tag_216:\n        /* \"myNFT.sol\":3566:3606  uint256 randomRanking = makeRandom(seed) */\n      swap1\n      pop\n        /* \"myNFT.sol\":3744:3958  TokenMetaData({... */\n      mload(0x40)\n      dup1\n      0x40\n      add\n      0x40\n      mstore\n      dup1\n        /* \"myNFT.sol\":3788:3797  _tokenURI */\n      dup6\n        /* \"myNFT.sol\":3744:3958  TokenMetaData({... */\n      dup2\n      mstore\n      0x20\n      add\n        /* \"myNFT.sol\":3883:3896  randomRanking */\n      dup3\n        /* \"myNFT.sol\":3744:3958  TokenMetaData({... */\n      dup2\n      mstore\n      pop\n        /* \"myNFT.sol\":3714:3728  _tokenMetaData */\n      0x06\n        /* \"myNFT.sol\":3714:3741  _tokenMetaData[totalSupply] */\n      0x00\n        /* \"myNFT.sol\":3729:3740  totalSupply */\n      sload(0x07)\n        /* \"myNFT.sol\":3714:3741  _tokenMetaData[totalSupply] */\n      dup2\n      mstore\n      0x20\n      add\n      swap1\n      dup2\n      mstore\n      0x20\n      add\n      0x00\n      keccak256\n        /* \"myNFT.sol\":3714:3958  _tokenMetaData[totalSupply] = TokenMetaData({... */\n      0x00\n      dup3\n      add\n      mload\n      dup2\n      0x00\n      add\n      swap1\n      dup2\n      tag_217\n      swap2\n      swap1\n      tag_218\n      jump\t// in\n    tag_217:\n      pop\n      0x20\n      dup3\n      add\n      mload\n      dup2\n      0x01\n      add\n      sstore\n      swap1\n      pop\n      pop\n        /* \"myNFT.sol\":4156:4186  _mint(msg.sender, totalSupply) */\n      tag_219\n        /* \"myNFT.sol\":4162:4172  msg.sender */\n      caller\n        /* \"myNFT.sol\":4174:4185  totalSupply */\n      sload(0x07)\n        /* \"myNFT.sol\":4156:4161  _mint */\n      tag_220\n        /* \"myNFT.sol\":4156:4186  _mint(msg.sender, totalSupply) */\n      jump\t// in\n    tag_219:\n        /* \"myNFT.sol\":4240:4250  addressIDs */\n      0x08\n        /* \"myNFT.sol\":4240:4262  addressIDs[msg.sender] */\n      0x00\n        /* \"myNFT.sol\":4251:4261  msg.sender */\n      caller\n        /* \"myNFT.sol\":4240:4262  addressIDs[msg.sender] */\n      0xffffffffffffffffffffffffffffffffffffffff\n      and\n      0xffffffffffffffffffffffffffffffffffffffff\n      and\n      dup2\n      mstore\n      0x20\n      add\n      swap1\n      dup2\n      mstore\n      0x20\n      add\n      0x00\n      keccak256\n        /* \"myNFT.sol\":4268:4279  totalSupply */\n      sload(0x07)\n        /* \"myNFT.sol\":4240:4280  addressIDs[msg.sender].push(totalSupply) */\n      swap1\n      dup1\n      0x01\n      dup2\n      sload\n      add\n      dup1\n      dup3\n      sstore\n      dup1\n      swap2\n      pop\n      pop\n      0x01\n      swap1\n      sub\n      swap1\n      0x00\n      mstore\n      keccak256(0x00, 0x20)\n      add\n      0x00\n      swap1\n      swap2\n      swap1\n      swap2\n      swap1\n      swap2\n      pop\n      sstore\n        /* \"myNFT.sol\":4388:4389  1 */\n      0x01\n        /* \"myNFT.sol\":4373:4384  totalSupply */\n      0x07\n      0x00\n        /* \"myNFT.sol\":4373:4389  totalSupply += 1 */\n      dup3\n      dup3\n      sload\n      tag_222\n      swap2\n      swap1\n      tag_214\n      jump\t// in\n    tag_222:\n      swap3\n      pop\n      pop\n      dup2\n      swap1\n      sstore\n      pop\n        /* \"myNFT.sol\":4416:4430  _tokenMetaData */\n      0x06\n        /* \"myNFT.sol\":4416:4446  _tokenMetaData[totalSupply -1] */\n      0x00\n        /* \"myNFT.sol\":4444:4445  1 */\n      0x01\n        /* \"myNFT.sol\":4431:4442  totalSupply */\n      sload(0x07)\n        /* \"myNFT.sol\":4431:4445  totalSupply -1 */\n      tag_223\n      swap2\n      swap1\n      tag_224\n      jump\t// in\n    tag_223:\n        /* \"myNFT.sol\":4416:4446  _tokenMetaData[totalSupply -1] */\n      dup2\n      mstore\n      0x20\n      add\n      swap1\n      dup2\n      mstore\n      0x20\n      add\n      0x00\n      keccak256\n        /* \"myNFT.sol\":4416:4455  _tokenMetaData[totalSupply -1].tokenURI */\n      0x00\n      add\n        /* \"myNFT.sol\":4409:4455  return _tokenMetaData[totalSupply -1].tokenURI */\n      dup1\n      sload\n      tag_225\n      swap1\n      tag_122\n      jump\t// in\n    tag_225:\n      dup1\n      0x1f\n      add\n      0x20\n      dup1\n      swap2\n      div\n      mul\n      0x20\n      add\n      mload(0x40)\n      swap1\n      dup2\n      add\n      0x40\n      mstore\n      dup1\n      swap3\n      swap2\n      swap1\n      dup2\n      dup2\n      mstore\n      0x20\n      add\n      dup3\n      dup1\n      sload\n      tag_226\n      swap1\n      tag_122\n      jump\t// in\n    tag_226:\n      dup1\n      iszero\n      tag_227\n      jumpi\n      dup1\n      0x1f\n      lt\n      tag_228\n      jumpi\n      0x0100\n      dup1\n      dup4\n      sload\n      div\n      mul\n      dup4\n      mstore\n      swap2\n      0x20\n      add\n      swap2\n      jump(tag_227)\n    tag_228:\n      dup3\n      add\n      swap2\n      swap1\n      0x00\n      mstore\n      keccak256(0x00, 0x20)\n      swap1\n    tag_229:\n      dup2\n      sload\n      dup2\n      mstore\n      swap1\n      0x01\n      add\n      swap1\n      0x20\n      add\n      dup1\n      dup4\n      gt\n      tag_229\n      jumpi\n      dup3\n      swap1\n      sub\n      0x1f\n      and\n      dup3\n      add\n      swap2\n    tag_227:\n      pop\n      pop\n      pop\n      pop\n      pop\n      swap2\n      pop\n      pop\n        /* \"myNFT.sol\":3388:4530  function minting(string memory _tokenURI , string memory seed) public returns (string memory) {... */\n      swap3\n      swap2\n      pop\n      pop\n      jump\t// out\n        /* \"node_modules/@openzeppelin/contracts/token/ERC721/ERC721.sol\":4361:4454  function symbol() public view virtual returns (string memory) {... */\n    tag_92:\n        /* \"node_modules/@openzeppelin/contracts/token/ERC721/ERC721.sol\":4408:4421  string memory */\n      0x60\n        /* \"node_modules/@openzeppelin/contracts/token/ERC721/ERC721.sol\":4440:4447  _symbol */\n      0x01\n        /* \"node_modules/@openzeppelin/contracts/token/ERC721/ERC721.sol\":4433:4447  return _symbol */\n      dup1\n      sload\n      tag_231\n      swap1\n      tag_122\n      jump\t// in\n    tag_231:\n      dup1\n      0x1f\n      add\n      0x20\n      dup1\n      swap2\n      div\n      mul\n      0x20\n      add\n      mload(0x40)\n      swap1\n      dup2\n      add\n      0x40\n      mstore\n      dup1\n      swap3\n      swap2\n      swap1\n      dup2\n      dup2\n      mstore\n      0x20\n      add\n      dup3\n      dup1\n      sload\n      tag_232\n      swap1\n      tag_122\n      jump\t// in\n    tag_232:\n      dup1\n      iszero\n      tag_233\n      jumpi\n      dup1\n      0x1f\n      lt\n      tag_234\n      jumpi\n      0x0100\n      dup1\n      dup4\n      sload\n      div\n      mul\n      dup4\n      mstore\n      swap2\n      0x20\n      add\n      swap2\n      jump(tag_233)\n    tag_234:\n      dup3\n      add\n      swap2\n      swap1\n      0x00\n      mstore\n      keccak256(0x00, 0x20)\n      swap1\n    tag_235:\n      dup2\n      sload\n      dup2\n      mstore\n      swap1\n      0x01\n      add\n      swap1\n      0x20\n      add\n      dup1\n      dup4\n      gt\n      tag_235\n      jumpi\n      dup3\n      swap1\n      sub\n      0x1f\n      and\n      dup3\n      add\n      swap2\n    tag_233:\n      pop\n      pop\n      pop\n      pop\n      pop\n      swap1\n      pop\n        /* \"node_modules/@openzeppelin/contracts/token/ERC721/ERC721.sol\":4361:4454  function symbol() public view virtual returns (string memory) {... */\n      swap1\n      jump\t// out\n        /* \"node_modules/@openzeppelin/contracts/token/ERC721/ERC721.sol\":6742:6886  function setApprovalForAll(address operator, bool approved) public virtual {... */\n    tag_97:\n        /* \"node_modules/@openzeppelin/contracts/token/ERC721/ERC721.sol\":6827:6879  _setApprovalForAll(_msgSender(), operator, approved) */\n      tag_237\n        /* \"node_modules/@openzeppelin/contracts/token/ERC721/ERC721.sol\":6846:6858  _msgSender() */\n      tag_238\n        /* \"node_modules/@openzeppelin/contracts/token/ERC721/ERC721.sol\":6846:6856  _msgSender */\n      tag_135\n        /* \"node_modules/@openzeppelin/contracts/token/ERC721/ERC721.sol\":6846:6858  _msgSender() */\n      jump\t// in\n    tag_238:\n        /* \"node_modules/@openzeppelin/contracts/token/ERC721/ERC721.sol\":6860:6868  operator */\n      dup4\n        /* \"node_modules/@openzeppelin/contracts/token/ERC721/ERC721.sol\":6870:6878  approved */\n      dup4\n        /* \"node_modules/@openzeppelin/contracts/token/ERC721/ERC721.sol\":6827:6845  _setApprovalForAll */\n      tag_239\n        /* \"node_modules/@openzeppelin/contracts/token/ERC721/ERC721.sol\":6827:6879  _setApprovalForAll(_msgSender(), operator, approved) */\n      jump\t// in\n    tag_237:\n        /* \"node_modules/@openzeppelin/contracts/token/ERC721/ERC721.sol\":6742:6886  function setApprovalForAll(address operator, bool approved) public virtual {... */\n      pop\n      pop\n      jump\t// out\n        /* \"node_modules/@openzeppelin/contracts/token/ERC721/ERC721.sol\":8009:8217  function safeTransferFrom(address from, address to, uint256 tokenId, bytes memory data) public virtual {... */\n    tag_101:\n        /* \"node_modules/@openzeppelin/contracts/token/ERC721/ERC721.sol\":8122:8153  transferFrom(from, to, tokenId) */\n      tag_241\n        /* \"node_modules/@openzeppelin/contracts/token/ERC721/ERC721.sol\":8135:8139  from */\n      dup5\n        /* \"node_modules/@openzeppelin/contracts/token/ERC721/ERC721.sol\":8141:8143  to */\n      dup5\n        /* \"node_modules/@openzeppelin/contracts/token/ERC721/ERC721.sol\":8145:8152  tokenId */\n      dup5\n        /* \"node_modules/@openzeppelin/contracts/token/ERC721/ERC721.sol\":8122:8134  transferFrom */\n      tag_55\n        /* \"node_modules/@openzeppelin/contracts/token/ERC721/ERC721.sol\":8122:8153  transferFrom(from, to, tokenId) */\n      jump\t// in\n    tag_241:\n        /* \"node_modules/@openzeppelin/contracts/token/ERC721/ERC721.sol\":8163:8210  _checkOnERC721Received(from, to, tokenId, data) */\n      tag_242\n        /* \"node_modules/@openzeppelin/contracts/token/ERC721/ERC721.sol\":8186:8190  from */\n      dup5\n        /* \"node_modules/@openzeppelin/contracts/token/ERC721/ERC721.sol\":8192:8194  to */\n      dup5\n        /* \"node_modules/@openzeppelin/contracts/token/ERC721/ERC721.sol\":8196:8203  tokenId */\n      dup5\n        /* \"node_modules/@openzeppelin/contracts/token/ERC721/ERC721.sol\":8205:8209  data */\n      dup5\n        /* \"node_modules/@openzeppelin/contracts/token/ERC721/ERC721.sol\":8163:8185  _checkOnERC721Received */\n      tag_243\n        /* \"node_modules/@openzeppelin/contracts/token/ERC721/ERC721.sol\":8163:8210  _checkOnERC721Received(from, to, tokenId, data) */\n      jump\t// in\n    tag_242:\n        /* \"node_modules/@openzeppelin/contracts/token/ERC721/ERC721.sol\":8009:8217  function safeTransferFrom(address from, address to, uint256 tokenId, bytes memory data) public virtual {... */\n      pop\n      pop\n      pop\n      pop\n      jump\t// out\n        /* \"myNFT.sol\":8521:8982  function tokenURI( uint256 _tokenId) public view override returns(string memory){... */\n    tag_104:\n        /* \"myNFT.sol\":8587:8600  string memory */\n      0x60\n        /* \"myNFT.sol\":8673:8687  _tokenMetaData */\n      0x06\n        /* \"myNFT.sol\":8673:8697  _tokenMetaData[_tokenId] */\n      0x00\n        /* \"myNFT.sol\":8688:8696  _tokenId */\n      dup4\n        /* \"myNFT.sol\":8673:8697  _tokenMetaData[_tokenId] */\n      dup2\n      mstore\n      0x20\n      add\n      swap1\n      dup2\n      mstore\n      0x20\n      add\n      0x00\n      keccak256\n        /* \"myNFT.sol\":8673:8706  _tokenMetaData[_tokenId].tokenURI */\n      0x00\n      add\n        /* \"myNFT.sol\":8666:8706  return _tokenMetaData[_tokenId].tokenURI */\n      dup1\n      sload\n      tag_245\n      swap1\n      tag_122\n      jump\t// in\n    tag_245:\n      dup1\n      0x1f\n      add\n      0x20\n      dup1\n      swap2\n      div\n      mul\n      0x20\n      add\n      mload(0x40)\n      swap1\n      dup2\n      add\n      0x40\n      mstore\n      dup1\n      swap3\n      swap2\n      swap1\n      dup2\n      dup2\n      mstore\n      0x20\n      add\n      dup3\n      dup1\n      sload\n      tag_246\n      swap1\n      tag_122\n      jump\t// in\n    tag_246:\n      dup1\n      iszero\n      tag_247\n      jumpi\n      dup1\n      0x1f\n      lt\n      tag_248\n      jumpi\n      0x0100\n      dup1\n      dup4\n      sload\n      div\n      mul\n      dup4\n      mstore\n      swap2\n      0x20\n      add\n      swap2\n      jump(tag_247)\n    tag_248:\n      dup3\n      add\n      swap2\n      swap1\n      0x00\n      mstore\n      keccak256(0x00, 0x20)\n      swap1\n    tag_249:\n      dup2\n      sload\n      dup2\n      mstore\n      swap1\n      0x01\n      add\n      swap1\n      0x20\n      add\n      dup1\n      dup4\n      gt\n      tag_249\n      jumpi\n      dup3\n      swap1\n      sub\n      0x1f\n      and\n      dup3\n      add\n      swap2\n    tag_247:\n      pop\n      pop\n      pop\n      pop\n      pop\n      swap1\n      pop\n        /* \"myNFT.sol\":8521:8982  function tokenURI( uint256 _tokenId) public view override returns(string memory){... */\n      swap2\n      swap1\n      pop\n      jump\t// out\n        /* \"myNFT.sol\":4814:4950  function getTokenRanking(uint256 tokenId) public view returns (uint256 ranking){... */\n    tag_108:\n        /* \"myNFT.sol\":4877:4892  uint256 ranking */\n      0x00\n        /* \"myNFT.sol\":4911:4925  _tokenMetaData */\n      0x06\n        /* \"myNFT.sol\":4911:4934  _tokenMetaData[tokenId] */\n      0x00\n        /* \"myNFT.sol\":4926:4933  tokenId */\n      dup4\n        /* \"myNFT.sol\":4911:4934  _tokenMetaData[tokenId] */\n      dup2\n      mstore\n      0x20\n      add\n      swap1\n      dup2\n      mstore\n      0x20\n      add\n      0x00\n      keccak256\n        /* \"myNFT.sol\":4911:4942  _tokenMetaData[tokenId].ranking */\n      0x01\n      add\n      sload\n        /* \"myNFT.sol\":4904:4942  return _tokenMetaData[tokenId].ranking */\n      swap1\n      pop\n        /* \"myNFT.sol\":4814:4950  function getTokenRanking(uint256 tokenId) public view returns (uint256 ranking){... */\n      swap2\n      swap1\n      pop\n      jump\t// out\n        /* \"node_modules/@openzeppelin/contracts/token/ERC721/ERC721.sol\":6952:7105  function isApprovedForAll(address owner, address operator) public view virtual returns (bool) {... */\n    tag_113:\n        /* \"node_modules/@openzeppelin/contracts/token/ERC721/ERC721.sol\":7040:7044  bool */\n      0x00\n        /* \"node_modules/@openzeppelin/contracts/token/ERC721/ERC721.sol\":7063:7081  _operatorApprovals */\n      0x05\n        /* \"node_modules/@openzeppelin/contracts/token/ERC721/ERC721.sol\":7063:7088  _operatorApprovals[owner] */\n      0x00\n        /* \"node_modules/@openzeppelin/contracts/token/ERC721/ERC721.sol\":7082:7087  owner */\n      dup5\n        /* \"node_modules/@openzeppelin/contracts/token/ERC721/ERC721.sol\":7063:7088  _operatorApprovals[owner] */\n      0xffffffffffffffffffffffffffffffffffffffff\n      and\n      0xffffffffffffffffffffffffffffffffffffffff\n      and\n      dup2\n      mstore\n      0x20\n      add\n      swap1\n      dup2\n      mstore\n      0x20\n      add\n      0x00\n      keccak256\n        /* \"node_modules/@openzeppelin/contracts/token/ERC721/ERC721.sol\":7063:7098  _operatorApprovals[owner][operator] */\n      0x00\n        /* \"node_modules/@openzeppelin/contracts/token/ERC721/ERC721.sol\":7089:7097  operator */\n      dup4\n        /* \"node_modules/@openzeppelin/contracts/token/ERC721/ERC721.sol\":7063:7098  _operatorApprovals[owner][operator] */\n      0xffffffffffffffffffffffffffffffffffffffff\n      and\n      0xffffffffffffffffffffffffffffffffffffffff\n      and\n      dup2\n      mstore\n      0x20\n      add\n      swap1\n      dup2\n      mstore\n      0x20\n      add\n      0x00\n      keccak256\n      0x00\n      swap1\n      sload\n      swap1\n      0x0100\n      exp\n      swap1\n      div\n      0xff\n      and\n        /* \"node_modules/@openzeppelin/contracts/token/ERC721/ERC721.sol\":7056:7098  return _operatorApprovals[owner][operator] */\n      swap1\n      pop\n        /* \"node_modules/@openzeppelin/contracts/token/ERC721/ERC721.sol\":6952:7105  function isApprovedForAll(address owner, address operator) public view virtual returns (bool) {... */\n      swap3\n      swap2\n      pop\n      pop\n      jump\t// out\n        /* \"node_modules/@openzeppelin/contracts/utils/introspection/ERC165.sol\":762:908  function supportsInterface(bytes4 interfaceId) public view virtual returns (bool) {... */\n    tag_119:\n        /* \"node_modules/@openzeppelin/contracts/utils/introspection/ERC165.sol\":838:842  bool */\n      0x00\n        /* \"node_modules/@openzeppelin/contracts/utils/introspection/ERC165.sol\":876:901  type(IERC165).interfaceId */\n      0x01ffc9a700000000000000000000000000000000000000000000000000000000\n        /* \"node_modules/@openzeppelin/contracts/utils/introspection/ERC165.sol\":861:901  interfaceId == type(IERC165).interfaceId */\n      not(0xffffffffffffffffffffffffffffffffffffffffffffffffffffffff)\n      and\n        /* \"node_modules/@openzeppelin/contracts/utils/introspection/ERC165.sol\":861:872  interfaceId */\n      dup3\n        /* \"node_modules/@openzeppelin/contracts/utils/introspection/ERC165.sol\":861:901  interfaceId == type(IERC165).interfaceId */\n      not(0xffffffffffffffffffffffffffffffffffffffffffffffffffffffff)\n      and\n      eq\n        /* \"node_modules/@openzeppelin/contracts/utils/introspection/ERC165.sol\":854:901  return interfaceId == type(IERC165).interfaceId */\n      swap1\n      pop\n        /* \"node_modules/@openzeppelin/contracts/utils/introspection/ERC165.sol\":762:908  function supportsInterface(bytes4 interfaceId) public view virtual returns (bool) {... */\n      swap2\n      swap1\n      pop\n      jump\t// out\n        /* \"node_modules/@openzeppelin/contracts/token/ERC721/ERC721.sol\":19162:19403  function _requireOwned(uint256 tokenId) internal view returns (address) {... */\n    tag_129:\n        /* \"node_modules/@openzeppelin/contracts/token/ERC721/ERC721.sol\":19225:19232  address */\n      0x00\n        /* \"node_modules/@openzeppelin/contracts/token/ERC721/ERC721.sol\":19244:19257  address owner */\n      dup1\n        /* \"node_modules/@openzeppelin/contracts/token/ERC721/ERC721.sol\":19260:19277  _ownerOf(tokenId) */\n      tag_254\n        /* \"node_modules/@openzeppelin/contracts/token/ERC721/ERC721.sol\":19269:19276  tokenId */\n      dup4\n        /* \"node_modules/@openzeppelin/contracts/token/ERC721/ERC721.sol\":19260:19268  _ownerOf */\n      tag_255\n        /* \"node_modules/@openzeppelin/contracts/token/ERC721/ERC721.sol\":19260:19277  _ownerOf(tokenId) */\n      jump\t// in\n    tag_254:\n        /* \"node_modules/@openzeppelin/contracts/token/ERC721/ERC721.sol\":19244:19277  address owner = _ownerOf(tokenId) */\n      swap1\n      pop\n        /* \"node_modules/@openzeppelin/contracts/token/ERC721/ERC721.sol\":19308:19309  0 */\n      0x00\n        /* \"node_modules/@openzeppelin/contracts/token/ERC721/ERC721.sol\":19291:19310  owner == address(0) */\n      0xffffffffffffffffffffffffffffffffffffffff\n      and\n        /* \"node_modules/@openzeppelin/contracts/token/ERC721/ERC721.sol\":19291:19296  owner */\n      dup2\n        /* \"node_modules/@openzeppelin/contracts/token/ERC721/ERC721.sol\":19291:19310  owner == address(0) */\n      0xffffffffffffffffffffffffffffffffffffffff\n      and\n      sub\n        /* \"node_modules/@openzeppelin/contracts/token/ERC721/ERC721.sol\":19287:19375  if (owner == address(0)) {... */\n      tag_256\n      jumpi\n        /* \"node_modules/@openzeppelin/contracts/token/ERC721/ERC721.sol\":19356:19363  tokenId */\n      dup3\n        /* \"node_modules/@openzeppelin/contracts/token/ERC721/ERC721.sol\":19333:19364  ERC721NonexistentToken(tokenId) */\n      mload(0x40)\n      0x7e27328900000000000000000000000000000000000000000000000000000000\n      dup2\n      mstore\n      0x04\n      add\n      tag_257\n      swap2\n      swap1\n      tag_80\n      jump\t// in\n    tag_257:\n      mload(0x40)\n      dup1\n      swap2\n      sub\n      swap1\n      revert\n        /* \"node_modules/@openzeppelin/contracts/token/ERC721/ERC721.sol\":19287:19375  if (owner == address(0)) {... */\n    tag_256:\n        /* \"node_modules/@openzeppelin/contracts/token/ERC721/ERC721.sol\":19391:19396  owner */\n      dup1\n        /* \"node_modules/@openzeppelin/contracts/token/ERC721/ERC721.sol\":19384:19396  return owner */\n      swap2\n      pop\n      pop\n        /* \"node_modules/@openzeppelin/contracts/token/ERC721/ERC721.sol\":19162:19403  function _requireOwned(uint256 tokenId) internal view returns (address) {... */\n      swap2\n      swap1\n      pop\n      jump\t// out\n        /* \"node_modules/@openzeppelin/contracts/token/ERC721/ERC721.sol\":8962:9089  function _getApproved(uint256 tokenId) internal view virtual returns (address) {... */\n    tag_131:\n        /* \"node_modules/@openzeppelin/contracts/token/ERC721/ERC721.sol\":9032:9039  address */\n      0x00\n        /* \"node_modules/@openzeppelin/contracts/token/ERC721/ERC721.sol\":9058:9073  _tokenApprovals */\n      0x04\n        /* \"node_modules/@openzeppelin/contracts/token/ERC721/ERC721.sol\":9058:9082  _tokenApprovals[tokenId] */\n      0x00\n        /* \"node_modules/@openzeppelin/contracts/token/ERC721/ERC721.sol\":9074:9081  tokenId */\n      dup4\n        /* \"node_modules/@openzeppelin/contracts/token/ERC721/ERC721.sol\":9058:9082  _tokenApprovals[tokenId] */\n      dup2\n      mstore\n      0x20\n      add\n      swap1\n      dup2\n      mstore\n      0x20\n      add\n      0x00\n      keccak256\n      0x00\n      swap1\n      sload\n      swap1\n      0x0100\n      exp\n      swap1\n      div\n      0xffffffffffffffffffffffffffffffffffffffff\n      and\n        /* \"node_modules/@openzeppelin/contracts/token/ERC721/ERC721.sol\":9051:9082  return _tokenApprovals[tokenId] */\n      swap1\n      pop\n        /* \"node_modules/@openzeppelin/contracts/token/ERC721/ERC721.sol\":8962:9089  function _getApproved(uint256 tokenId) internal view virtual returns (address) {... */\n      swap2\n      swap1\n      pop\n      jump\t// out\n        /* \"node_modules/@openzeppelin/contracts/utils/Context.sol\":656:752  function _msgSender() internal view virtual returns (address) {... */\n    tag_135:\n        /* \"node_modules/@openzeppelin/contracts/utils/Context.sol\":709:716  address */\n      0x00\n        /* \"node_modules/@openzeppelin/contracts/utils/Context.sol\":735:745  msg.sender */\n      caller\n        /* \"node_modules/@openzeppelin/contracts/utils/Context.sol\":728:745  return msg.sender */\n      swap1\n      pop\n        /* \"node_modules/@openzeppelin/contracts/utils/Context.sol\":656:752  function _msgSender() internal view virtual returns (address) {... */\n      swap1\n      jump\t// out\n        /* \"node_modules/@openzeppelin/contracts/token/ERC721/ERC721.sol\":17442:17562  function _approve(address to, uint256 tokenId, address auth) internal {... */\n    tag_136:\n        /* \"node_modules/@openzeppelin/contracts/token/ERC721/ERC721.sol\":17522:17555  _approve(to, tokenId, auth, true) */\n      tag_261\n        /* \"node_modules/@openzeppelin/contracts/token/ERC721/ERC721.sol\":17531:17533  to */\n      dup4\n        /* \"node_modules/@openzeppelin/contracts/token/ERC721/ERC721.sol\":17535:17542  tokenId */\n      dup4\n        /* \"node_modules/@openzeppelin/contracts/token/ERC721/ERC721.sol\":17544:17548  auth */\n      dup4\n        /* \"node_modules/@openzeppelin/contracts/token/ERC721/ERC721.sol\":17550:17554  true */\n      0x01\n        /* \"node_modules/@openzeppelin/contracts/token/ERC721/ERC721.sol\":17522:17530  _approve */\n      tag_262\n        /* \"node_modules/@openzeppelin/contracts/token/ERC721/ERC721.sol\":17522:17555  _approve(to, tokenId, auth, true) */\n      jump\t// in\n    tag_261:\n        /* \"node_modules/@openzeppelin/contracts/token/ERC721/ERC721.sol\":17442:17562  function _approve(address to, uint256 tokenId, address auth) internal {... */\n      pop\n      pop\n      pop\n      jump\t// out\n        /* \"node_modules/@openzeppelin/contracts/token/ERC721/ERC721.sol\":11862:12657  function _update(address to, uint256 tokenId, address auth) internal virtual returns (address) {... */\n    tag_169:\n        /* \"node_modules/@openzeppelin/contracts/token/ERC721/ERC721.sol\":11948:11955  address */\n      0x00\n        /* \"node_modules/@openzeppelin/contracts/token/ERC721/ERC721.sol\":11967:11979  address from */\n      dup1\n        /* \"node_modules/@openzeppelin/contracts/token/ERC721/ERC721.sol\":11982:11999  _ownerOf(tokenId) */\n      tag_264\n        /* \"node_modules/@openzeppelin/contracts/token/ERC721/ERC721.sol\":11991:11998  tokenId */\n      dup5\n        /* \"node_modules/@openzeppelin/contracts/token/ERC721/ERC721.sol\":11982:11990  _ownerOf */\n      tag_255\n        /* \"node_modules/@openzeppelin/contracts/token/ERC721/ERC721.sol\":11982:11999  _ownerOf(tokenId) */\n      jump\t// in\n    tag_264:\n        /* \"node_modules/@openzeppelin/contracts/token/ERC721/ERC721.sol\":11967:11999  address from = _ownerOf(tokenId) */\n      swap1\n      pop\n        /* \"node_modules/@openzeppelin/contracts/token/ERC721/ERC721.sol\":12075:12076  0 */\n      0x00\n        /* \"node_modules/@openzeppelin/contracts/token/ERC721/ERC721.sol\":12059:12077  auth != address(0) */\n      0xffffffffffffffffffffffffffffffffffffffff\n      and\n        /* \"node_modules/@openzeppelin/contracts/token/ERC721/ERC721.sol\":12059:12063  auth */\n      dup4\n        /* \"node_modules/@openzeppelin/contracts/token/ERC721/ERC721.sol\":12059:12077  auth != address(0) */\n      0xffffffffffffffffffffffffffffffffffffffff\n      and\n      eq\n        /* \"node_modules/@openzeppelin/contracts/token/ERC721/ERC721.sol\":12055:12141  if (auth != address(0)) {... */\n      tag_265\n      jumpi\n        /* \"node_modules/@openzeppelin/contracts/token/ERC721/ERC721.sol\":12093:12130  _checkAuthorized(from, auth, tokenId) */\n      tag_266\n        /* \"node_modules/@openzeppelin/contracts/token/ERC721/ERC721.sol\":12110:12114  from */\n      dup2\n        /* \"node_modules/@openzeppelin/contracts/token/ERC721/ERC721.sol\":12116:12120  auth */\n      dup5\n        /* \"node_modules/@openzeppelin/contracts/token/ERC721/ERC721.sol\":12122:12129  tokenId */\n      dup7\n        /* \"node_modules/@openzeppelin/contracts/token/ERC721/ERC721.sol\":12093:12109  _checkAuthorized */\n      tag_267\n        /* \"node_modules/@openzeppelin/contracts/token/ERC721/ERC721.sol\":12093:12130  _checkAuthorized(from, auth, tokenId) */\n      jump\t// in\n    tag_266:\n        /* \"node_modules/@openzeppelin/contracts/token/ERC721/ERC721.sol\":12055:12141  if (auth != address(0)) {... */\n    tag_265:\n        /* \"node_modules/@openzeppelin/contracts/token/ERC721/ERC721.sol\":12201:12202  0 */\n      0x00\n        /* \"node_modules/@openzeppelin/contracts/token/ERC721/ERC721.sol\":12185:12203  from != address(0) */\n      0xffffffffffffffffffffffffffffffffffffffff\n      and\n        /* \"node_modules/@openzeppelin/contracts/token/ERC721/ERC721.sol\":12185:12189  from */\n      dup2\n        /* \"node_modules/@openzeppelin/contracts/token/ERC721/ERC721.sol\":12185:12203  from != address(0) */\n      0xffffffffffffffffffffffffffffffffffffffff\n      and\n      eq\n        /* \"node_modules/@openzeppelin/contracts/token/ERC721/ERC721.sol\":12181:12437  if (from != address(0)) {... */\n      tag_268\n      jumpi\n        /* \"node_modules/@openzeppelin/contracts/token/ERC721/ERC721.sol\":12301:12349  _approve(address(0), tokenId, address(0), false) */\n      tag_269\n        /* \"node_modules/@openzeppelin/contracts/token/ERC721/ERC721.sol\":12318:12319  0 */\n      0x00\n        /* \"node_modules/@openzeppelin/contracts/token/ERC721/ERC721.sol\":12322:12329  tokenId */\n      dup6\n        /* \"node_modules/@openzeppelin/contracts/token/ERC721/ERC721.sol\":12339:12340  0 */\n      0x00\n        /* \"node_modules/@openzeppelin/contracts/token/ERC721/ERC721.sol\":12343:12348  false */\n      dup1\n        /* \"node_modules/@openzeppelin/contracts/token/ERC721/ERC721.sol\":12301:12309  _approve */\n      tag_262\n        /* \"node_modules/@openzeppelin/contracts/token/ERC721/ERC721.sol\":12301:12349  _approve(address(0), tokenId, address(0), false) */\n      jump\t// in\n    tag_269:\n        /* \"node_modules/@openzeppelin/contracts/token/ERC721/ERC721.sol\":12411:12412  1 */\n      0x01\n        /* \"node_modules/@openzeppelin/contracts/token/ERC721/ERC721.sol\":12392:12401  _balances */\n      0x03\n        /* \"node_modules/@openzeppelin/contracts/token/ERC721/ERC721.sol\":12392:12407  _balances[from] */\n      0x00\n        /* \"node_modules/@openzeppelin/contracts/token/ERC721/ERC721.sol\":12402:12406  from */\n      dup4\n        /* \"node_modules/@openzeppelin/contracts/token/ERC721/ERC721.sol\":12392:12407  _balances[from] */\n      0xffffffffffffffffffffffffffffffffffffffff\n      and\n      0xffffffffffffffffffffffffffffffffffffffff\n      and\n      dup2\n      mstore\n      0x20\n      add\n      swap1\n      dup2\n      mstore\n      0x20\n      add\n      0x00\n      keccak256\n      0x00\n        /* \"node_modules/@openzeppelin/contracts/token/ERC721/ERC721.sol\":12392:12412  _balances[from] -= 1 */\n      dup3\n      dup3\n      sload\n      sub\n      swap3\n      pop\n      pop\n      dup2\n      swap1\n      sstore\n      pop\n        /* \"node_modules/@openzeppelin/contracts/token/ERC721/ERC721.sol\":12181:12437  if (from != address(0)) {... */\n    tag_268:\n        /* \"node_modules/@openzeppelin/contracts/token/ERC721/ERC721.sol\":12465:12466  0 */\n      0x00\n        /* \"node_modules/@openzeppelin/contracts/token/ERC721/ERC721.sol\":12451:12467  to != address(0) */\n      0xffffffffffffffffffffffffffffffffffffffff\n      and\n        /* \"node_modules/@openzeppelin/contracts/token/ERC721/ERC721.sol\":12451:12453  to */\n      dup6\n        /* \"node_modules/@openzeppelin/contracts/token/ERC721/ERC721.sol\":12451:12467  to != address(0) */\n      0xffffffffffffffffffffffffffffffffffffffff\n      and\n      eq\n        /* \"node_modules/@openzeppelin/contracts/token/ERC721/ERC721.sol\":12447:12554  if (to != address(0)) {... */\n      tag_270\n      jumpi\n        /* \"node_modules/@openzeppelin/contracts/token/ERC721/ERC721.sol\":12528:12529  1 */\n      0x01\n        /* \"node_modules/@openzeppelin/contracts/token/ERC721/ERC721.sol\":12511:12520  _balances */\n      0x03\n        /* \"node_modules/@openzeppelin/contracts/token/ERC721/ERC721.sol\":12511:12524  _balances[to] */\n      0x00\n        /* \"node_modules/@openzeppelin/contracts/token/ERC721/ERC721.sol\":12521:12523  to */\n      dup8\n        /* \"node_modules/@openzeppelin/contracts/token/ERC721/ERC721.sol\":12511:12524  _balances[to] */\n      0xffffffffffffffffffffffffffffffffffffffff\n      and\n      0xffffffffffffffffffffffffffffffffffffffff\n      and\n      dup2\n      mstore\n      0x20\n      add\n      swap1\n      dup2\n      mstore\n      0x20\n      add\n      0x00\n      keccak256\n      0x00\n        /* \"node_modules/@openzeppelin/contracts/token/ERC721/ERC721.sol\":12511:12529  _balances[to] += 1 */\n      dup3\n      dup3\n      sload\n      add\n      swap3\n      pop\n      pop\n      dup2\n      swap1\n      sstore\n      pop\n        /* \"node_modules/@openzeppelin/contracts/token/ERC721/ERC721.sol\":12447:12554  if (to != address(0)) {... */\n    tag_270:\n        /* \"node_modules/@openzeppelin/contracts/token/ERC721/ERC721.sol\":12583:12585  to */\n      dup5\n        /* \"node_modules/@openzeppelin/contracts/token/ERC721/ERC721.sol\":12564:12571  _owners */\n      0x02\n        /* \"node_modules/@openzeppelin/contracts/token/ERC721/ERC721.sol\":12564:12580  _owners[tokenId] */\n      0x00\n        /* \"node_modules/@openzeppelin/contracts/token/ERC721/ERC721.sol\":12572:12579  tokenId */\n      dup7\n        /* \"node_modules/@openzeppelin/contracts/token/ERC721/ERC721.sol\":12564:12580  _owners[tokenId] */\n      dup2\n      mstore\n      0x20\n      add\n      swap1\n      dup2\n      mstore\n      0x20\n      add\n      0x00\n      keccak256\n      0x00\n        /* \"node_modules/@openzeppelin/contracts/token/ERC721/ERC721.sol\":12564:12585  _owners[tokenId] = to */\n      0x0100\n      exp\n      dup2\n      sload\n      dup2\n      0xffffffffffffffffffffffffffffffffffffffff\n      mul\n      not\n      and\n      swap1\n      dup4\n      0xffffffffffffffffffffffffffffffffffffffff\n      and\n      mul\n      or\n      swap1\n      sstore\n      pop\n        /* \"node_modules/@openzeppelin/contracts/token/ERC721/ERC721.sol\":12620:12627  tokenId */\n      dup4\n        /* \"node_modules/@openzeppelin/contracts/token/ERC721/ERC721.sol\":12616:12618  to */\n      dup6\n        /* \"node_modules/@openzeppelin/contracts/token/ERC721/ERC721.sol\":12601:12628  Transfer(from, to, tokenId) */\n      0xffffffffffffffffffffffffffffffffffffffff\n      and\n        /* \"node_modules/@openzeppelin/contracts/token/ERC721/ERC721.sol\":12610:12614  from */\n      dup3\n        /* \"node_modules/@openzeppelin/contracts/token/ERC721/ERC721.sol\":12601:12628  Transfer(from, to, tokenId) */\n      0xffffffffffffffffffffffffffffffffffffffff\n      and\n      0xddf252ad1be2c89b69c2b068fc378daa952ba7f163c4a11628f55a4df523b3ef\n      mload(0x40)\n      mload(0x40)\n      dup1\n      swap2\n      sub\n      swap1\n      log4\n        /* \"node_modules/@openzeppelin/contracts/token/ERC721/ERC721.sol\":12646:12650  from */\n      dup1\n        /* \"node_modules/@openzeppelin/contracts/token/ERC721/ERC721.sol\":12639:12650  return from */\n      swap2\n      pop\n      pop\n        /* \"node_modules/@openzeppelin/contracts/token/ERC721/ERC721.sol\":11862:12657  function _update(address to, uint256 tokenId, address auth) internal virtual returns (address) {... */\n      swap4\n      swap3\n      pop\n      pop\n      pop\n      jump\t// out\n        /* \"node_modules/@openzeppelin/contracts/token/ERC721/ERC721.sol\":12979:13306  function _mint(address to, uint256 tokenId) internal {... */\n    tag_220:\n        /* \"node_modules/@openzeppelin/contracts/token/ERC721/ERC721.sol\":13060:13061  0 */\n      0x00\n        /* \"node_modules/@openzeppelin/contracts/token/ERC721/ERC721.sol\":13046:13062  to == address(0) */\n      0xffffffffffffffffffffffffffffffffffffffff\n      and\n        /* \"node_modules/@openzeppelin/contracts/token/ERC721/ERC721.sol\":13046:13048  to */\n      dup3\n        /* \"node_modules/@openzeppelin/contracts/token/ERC721/ERC721.sol\":13046:13062  to == address(0) */\n      0xffffffffffffffffffffffffffffffffffffffff\n      and\n      sub\n        /* \"node_modules/@openzeppelin/contracts/token/ERC721/ERC721.sol\":13042:13129  if (to == address(0)) {... */\n      tag_272\n      jumpi\n        /* \"node_modules/@openzeppelin/contracts/token/ERC721/ERC721.sol\":13115:13116  0 */\n      0x00\n        /* \"node_modules/@openzeppelin/contracts/token/ERC721/ERC721.sol\":13085:13118  ERC721InvalidReceiver(address(0)) */\n      mload(0x40)\n      0x64a0ae9200000000000000000000000000000000000000000000000000000000\n      dup2\n      mstore\n      0x04\n      add\n      tag_273\n      swap2\n      swap1\n      tag_41\n      jump\t// in\n    tag_273:\n      mload(0x40)\n      dup1\n      swap2\n      sub\n      swap1\n      revert\n        /* \"node_modules/@openzeppelin/contracts/token/ERC721/ERC721.sol\":13042:13129  if (to == address(0)) {... */\n    tag_272:\n        /* \"node_modules/@openzeppelin/contracts/token/ERC721/ERC721.sol\":13138:13159  address previousOwner */\n      0x00\n        /* \"node_modules/@openzeppelin/contracts/token/ERC721/ERC721.sol\":13162:13194  _update(to, tokenId, address(0)) */\n      tag_274\n        /* \"node_modules/@openzeppelin/contracts/token/ERC721/ERC721.sol\":13170:13172  to */\n      dup4\n        /* \"node_modules/@openzeppelin/contracts/token/ERC721/ERC721.sol\":13174:13181  tokenId */\n      dup4\n        /* \"node_modules/@openzeppelin/contracts/token/ERC721/ERC721.sol\":13191:13192  0 */\n      0x00\n        /* \"node_modules/@openzeppelin/contracts/token/ERC721/ERC721.sol\":13162:13169  _update */\n      tag_169\n        /* \"node_modules/@openzeppelin/contracts/token/ERC721/ERC721.sol\":13162:13194  _update(to, tokenId, address(0)) */\n      jump\t// in\n    tag_274:\n        /* \"node_modules/@openzeppelin/contracts/token/ERC721/ERC721.sol\":13138:13194  address previousOwner = _update(to, tokenId, address(0)) */\n      swap1\n      pop\n        /* \"node_modules/@openzeppelin/contracts/token/ERC721/ERC721.sol\":13233:13234  0 */\n      0x00\n        /* \"node_modules/@openzeppelin/contracts/token/ERC721/ERC721.sol\":13208:13235  previousOwner != address(0) */\n      0xffffffffffffffffffffffffffffffffffffffff\n      and\n        /* \"node_modules/@openzeppelin/contracts/token/ERC721/ERC721.sol\":13208:13221  previousOwner */\n      dup2\n        /* \"node_modules/@openzeppelin/contracts/token/ERC721/ERC721.sol\":13208:13235  previousOwner != address(0) */\n      0xffffffffffffffffffffffffffffffffffffffff\n      and\n      eq\n        /* \"node_modules/@openzeppelin/contracts/token/ERC721/ERC721.sol\":13204:13300  if (previousOwner != address(0)) {... */\n      tag_275\n      jumpi\n        /* \"node_modules/@openzeppelin/contracts/token/ERC721/ERC721.sol\":13286:13287  0 */\n      0x00\n        /* \"node_modules/@openzeppelin/contracts/token/ERC721/ERC721.sol\":13258:13289  ERC721InvalidSender(address(0)) */\n      mload(0x40)\n      0x73c6ac6e00000000000000000000000000000000000000000000000000000000\n      dup2\n      mstore\n      0x04\n      add\n      tag_276\n      swap2\n      swap1\n      tag_41\n      jump\t// in\n    tag_276:\n      mload(0x40)\n      dup1\n      swap2\n      sub\n      swap1\n      revert\n        /* \"node_modules/@openzeppelin/contracts/token/ERC721/ERC721.sol\":13204:13300  if (previousOwner != address(0)) {... */\n    tag_275:\n        /* \"node_modules/@openzeppelin/contracts/token/ERC721/ERC721.sol\":13032:13306  {... */\n      pop\n        /* \"node_modules/@openzeppelin/contracts/token/ERC721/ERC721.sol\":12979:13306  function _mint(address to, uint256 tokenId) internal {... */\n      pop\n      pop\n      jump\t// out\n        /* \"node_modules/@openzeppelin/contracts/token/ERC721/ERC721.sol\":18615:18927  function _setApprovalForAll(address owner, address operator, bool approved) internal virtual {... */\n    tag_239:\n        /* \"node_modules/@openzeppelin/contracts/token/ERC721/ERC721.sol\":18742:18743  0 */\n      0x00\n        /* \"node_modules/@openzeppelin/contracts/token/ERC721/ERC721.sol\":18722:18744  operator == address(0) */\n      0xffffffffffffffffffffffffffffffffffffffff\n      and\n        /* \"node_modules/@openzeppelin/contracts/token/ERC721/ERC721.sol\":18722:18730  operator */\n      dup3\n        /* \"node_modules/@openzeppelin/contracts/token/ERC721/ERC721.sol\":18722:18744  operator == address(0) */\n      0xffffffffffffffffffffffffffffffffffffffff\n      and\n      sub\n        /* \"node_modules/@openzeppelin/contracts/token/ERC721/ERC721.sol\":18718:18809  if (operator == address(0)) {... */\n      tag_278\n      jumpi\n        /* \"node_modules/@openzeppelin/contracts/token/ERC721/ERC721.sol\":18789:18797  operator */\n      dup2\n        /* \"node_modules/@openzeppelin/contracts/token/ERC721/ERC721.sol\":18767:18798  ERC721InvalidOperator(operator) */\n      mload(0x40)\n      0x5b08ba1800000000000000000000000000000000000000000000000000000000\n      dup2\n      mstore\n      0x04\n      add\n      tag_279\n      swap2\n      swap1\n      tag_41\n      jump\t// in\n    tag_279:\n      mload(0x40)\n      dup1\n      swap2\n      sub\n      swap1\n      revert\n        /* \"node_modules/@openzeppelin/contracts/token/ERC721/ERC721.sol\":18718:18809  if (operator == address(0)) {... */\n    tag_278:\n        /* \"node_modules/@openzeppelin/contracts/token/ERC721/ERC721.sol\":18856:18864  approved */\n      dup1\n        /* \"node_modules/@openzeppelin/contracts/token/ERC721/ERC721.sol\":18818:18836  _operatorApprovals */\n      0x05\n        /* \"node_modules/@openzeppelin/contracts/token/ERC721/ERC721.sol\":18818:18843  _operatorApprovals[owner] */\n      0x00\n        /* \"node_modules/@openzeppelin/contracts/token/ERC721/ERC721.sol\":18837:18842  owner */\n      dup6\n        /* \"node_modules/@openzeppelin/contracts/token/ERC721/ERC721.sol\":18818:18843  _operatorApprovals[owner] */\n      0xffffffffffffffffffffffffffffffffffffffff\n      and\n      0xffffffffffffffffffffffffffffffffffffffff\n      and\n      dup2\n      mstore\n      0x20\n      add\n      swap1\n      dup2\n      mstore\n      0x20\n      add\n      0x00\n      keccak256\n        /* \"node_modules/@openzeppelin/contracts/token/ERC721/ERC721.sol\":18818:18853  _operatorApprovals[owner][operator] */\n      0x00\n        /* \"node_modules/@openzeppelin/contracts/token/ERC721/ERC721.sol\":18844:18852  operator */\n      dup5\n        /* \"node_modules/@openzeppelin/contracts/token/ERC721/ERC721.sol\":18818:18853  _operatorApprovals[owner][operator] */\n      0xffffffffffffffffffffffffffffffffffffffff\n      and\n      0xffffffffffffffffffffffffffffffffffffffff\n      and\n      dup2\n      mstore\n      0x20\n      add\n      swap1\n      dup2\n      mstore\n      0x20\n      add\n      0x00\n      keccak256\n      0x00\n        /* \"node_modules/@openzeppelin/contracts/token/ERC721/ERC721.sol\":18818:18864  _operatorApprovals[owner][operator] = approved */\n      0x0100\n      exp\n      dup2\n      sload\n      dup2\n      0xff\n      mul\n      not\n      and\n      swap1\n      dup4\n      iszero\n      iszero\n      mul\n      or\n      swap1\n      sstore\n      pop\n        /* \"node_modules/@openzeppelin/contracts/token/ERC721/ERC721.sol\":18901:18909  operator */\n      dup2\n        /* \"node_modules/@openzeppelin/contracts/token/ERC721/ERC721.sol\":18879:18920  ApprovalForAll(owner, operator, approved) */\n      0xffffffffffffffffffffffffffffffffffffffff\n      and\n        /* \"node_modules/@openzeppelin/contracts/token/ERC721/ERC721.sol\":18894:18899  owner */\n      dup4\n        /* \"node_modules/@openzeppelin/contracts/token/ERC721/ERC721.sol\":18879:18920  ApprovalForAll(owner, operator, approved) */\n      0xffffffffffffffffffffffffffffffffffffffff\n      and\n      0x17307eab39ab6107e8899845ad3d59bd9653f200f220920489ca2b5937696c31\n        /* \"node_modules/@openzeppelin/contracts/token/ERC721/ERC721.sol\":18911:18919  approved */\n      dup4\n        /* \"node_modules/@openzeppelin/contracts/token/ERC721/ERC721.sol\":18879:18920  ApprovalForAll(owner, operator, approved) */\n      mload(0x40)\n      tag_280\n      swap2\n      swap1\n      tag_31\n      jump\t// in\n    tag_280:\n      mload(0x40)\n      dup1\n      swap2\n      sub\n      swap1\n      log3\n        /* \"node_modules/@openzeppelin/contracts/token/ERC721/ERC721.sol\":18615:18927  function _setApprovalForAll(address owner, address operator, bool approved) internal virtual {... */\n      pop\n      pop\n      pop\n      jump\t// out\n        /* \"node_modules/@openzeppelin/contracts/token/ERC721/ERC721.sol\":19942:20724  function _checkOnERC721Received(address from, address to, uint256 tokenId, bytes memory data) private {... */\n    tag_243:\n        /* \"node_modules/@openzeppelin/contracts/token/ERC721/ERC721.sol\":20075:20076  0 */\n      0x00\n        /* \"node_modules/@openzeppelin/contracts/token/ERC721/ERC721.sol\":20058:20060  to */\n      dup4\n        /* \"node_modules/@openzeppelin/contracts/token/ERC721/ERC721.sol\":20058:20072  to.code.length */\n      0xffffffffffffffffffffffffffffffffffffffff\n      and\n      extcodesize\n        /* \"node_modules/@openzeppelin/contracts/token/ERC721/ERC721.sol\":20058:20076  to.code.length > 0 */\n      gt\n        /* \"node_modules/@openzeppelin/contracts/token/ERC721/ERC721.sol\":20054:20718  if (to.code.length > 0) {... */\n      iszero\n      tag_282\n      jumpi\n        /* \"node_modules/@openzeppelin/contracts/token/ERC721/ERC721.sol\":20112:20114  to */\n      dup3\n        /* \"node_modules/@openzeppelin/contracts/token/ERC721/ERC721.sol\":20096:20132  IERC721Receiver(to).onERC721Received */\n      0xffffffffffffffffffffffffffffffffffffffff\n      and\n      0x150b7a02\n        /* \"node_modules/@openzeppelin/contracts/token/ERC721/ERC721.sol\":20133:20145  _msgSender() */\n      tag_283\n        /* \"node_modules/@openzeppelin/contracts/token/ERC721/ERC721.sol\":20133:20143  _msgSender */\n      tag_135\n        /* \"node_modules/@openzeppelin/contracts/token/ERC721/ERC721.sol\":20133:20145  _msgSender() */\n      jump\t// in\n    tag_283:\n        /* \"node_modules/@openzeppelin/contracts/token/ERC721/ERC721.sol\":20147:20151  from */\n      dup7\n        /* \"node_modules/@openzeppelin/contracts/token/ERC721/ERC721.sol\":20153:20160  tokenId */\n      dup6\n        /* \"node_modules/@openzeppelin/contracts/token/ERC721/ERC721.sol\":20162:20166  data */\n      dup6\n        /* \"node_modules/@openzeppelin/contracts/token/ERC721/ERC721.sol\":20096:20167  IERC721Receiver(to).onERC721Received(_msgSender(), from, tokenId, data) */\n      mload(0x40)\n      dup6\n      0xffffffff\n      and\n      0xe0\n      shl\n      dup2\n      mstore\n      0x04\n      add\n      tag_284\n      swap5\n      swap4\n      swap3\n      swap2\n      swap1\n      tag_285\n      jump\t// in\n    tag_284:\n      0x20\n      mload(0x40)\n      dup1\n      dup4\n      sub\n      dup2\n      0x00\n      dup8\n      gas\n      call\n      swap3\n      pop\n      pop\n      pop\n      dup1\n      iszero\n      tag_286\n      jumpi\n      pop\n      mload(0x40)\n      returndatasize\n      not(0x1f)\n      0x1f\n      dup3\n      add\n      and\n      dup3\n      add\n      dup1\n      0x40\n      mstore\n      pop\n      dup2\n      add\n      swap1\n      tag_287\n      swap2\n      swap1\n      tag_288\n      jump\t// in\n    tag_287:\n      0x01\n    tag_286:\n        /* \"node_modules/@openzeppelin/contracts/token/ERC721/ERC721.sol\":20092:20708  try IERC721Receiver(to).onERC721Received(_msgSender(), from, tokenId, data) returns (bytes4 retval) {... */\n      tag_289\n      jumpi\n      returndatasize\n      dup1\n      0x00\n      dup2\n      eq\n      tag_294\n      jumpi\n      mload(0x40)\n      swap2\n      pop\n      and(add(returndatasize, 0x3f), not(0x1f))\n      dup3\n      add\n      0x40\n      mstore\n      returndatasize\n      dup3\n      mstore\n      returndatasize\n      0x00\n      0x20\n      dup5\n      add\n      returndatacopy\n      jump(tag_293)\n    tag_294:\n      0x60\n      swap2\n      pop\n    tag_293:\n      pop\n        /* \"node_modules/@openzeppelin/contracts/token/ERC721/ERC721.sol\":20422:20423  0 */\n      0x00\n        /* \"node_modules/@openzeppelin/contracts/token/ERC721/ERC721.sol\":20405:20411  reason */\n      dup2\n        /* \"node_modules/@openzeppelin/contracts/token/ERC721/ERC721.sol\":20405:20418  reason.length */\n      mload\n        /* \"node_modules/@openzeppelin/contracts/token/ERC721/ERC721.sol\":20405:20423  reason.length == 0 */\n      sub\n        /* \"node_modules/@openzeppelin/contracts/token/ERC721/ERC721.sol\":20401:20694  if (reason.length == 0) {... */\n      tag_295\n      jumpi\n        /* \"node_modules/@openzeppelin/contracts/token/ERC721/ERC721.sol\":20476:20478  to */\n      dup4\n        /* \"node_modules/@openzeppelin/contracts/token/ERC721/ERC721.sol\":20454:20479  ERC721InvalidReceiver(to) */\n      mload(0x40)\n      0x64a0ae9200000000000000000000000000000000000000000000000000000000\n      dup2\n      mstore\n      0x04\n      add\n      tag_296\n      swap2\n      swap1\n      tag_41\n      jump\t// in\n    tag_296:\n      mload(0x40)\n      dup1\n      swap2\n      sub\n      swap1\n      revert\n        /* \"node_modules/@openzeppelin/contracts/token/ERC721/ERC721.sol\":20401:20694  if (reason.length == 0) {... */\n    tag_295:\n        /* \"node_modules/@openzeppelin/contracts/token/ERC721/ERC721.sol\":20646:20652  reason */\n      dup1\n        /* \"node_modules/@openzeppelin/contracts/token/ERC721/ERC721.sol\":20640:20653  mload(reason) */\n      mload\n        /* \"node_modules/@openzeppelin/contracts/token/ERC721/ERC721.sol\":20631:20637  reason */\n      dup2\n        /* \"node_modules/@openzeppelin/contracts/token/ERC721/ERC721.sol\":20627:20629  32 */\n      0x20\n        /* \"node_modules/@openzeppelin/contracts/token/ERC721/ERC721.sol\":20623:20638  add(32, reason) */\n      add\n        /* \"node_modules/@openzeppelin/contracts/token/ERC721/ERC721.sol\":20616:20654  revert(add(32, reason), mload(reason)) */\n      revert\n        /* \"node_modules/@openzeppelin/contracts/token/ERC721/ERC721.sol\":20092:20708  try IERC721Receiver(to).onERC721Received(_msgSender(), from, tokenId, data) returns (bytes4 retval) {... */\n    tag_289:\n        /* \"node_modules/@openzeppelin/contracts/token/ERC721/ERC721.sol\":20224:20265  IERC721Receiver.onERC721Received.selector */\n      shl(0xe0, 0x150b7a02)\n        /* \"node_modules/@openzeppelin/contracts/token/ERC721/ERC721.sol\":20214:20265  retval != IERC721Receiver.onERC721Received.selector */\n      not(0xffffffffffffffffffffffffffffffffffffffffffffffffffffffff)\n      and\n        /* \"node_modules/@openzeppelin/contracts/token/ERC721/ERC721.sol\":20214:20220  retval */\n      dup2\n        /* \"node_modules/@openzeppelin/contracts/token/ERC721/ERC721.sol\":20214:20265  retval != IERC721Receiver.onERC721Received.selector */\n      not(0xffffffffffffffffffffffffffffffffffffffffffffffffffffffff)\n      and\n      eq\n        /* \"node_modules/@openzeppelin/contracts/token/ERC721/ERC721.sol\":20210:20340  if (retval != IERC721Receiver.onERC721Received.selector) {... */\n      tag_299\n      jumpi\n        /* \"node_modules/@openzeppelin/contracts/token/ERC721/ERC721.sol\":20318:20320  to */\n      dup4\n        /* \"node_modules/@openzeppelin/contracts/token/ERC721/ERC721.sol\":20296:20321  ERC721InvalidReceiver(to) */\n      mload(0x40)\n      0x64a0ae9200000000000000000000000000000000000000000000000000000000\n      dup2\n      mstore\n      0x04\n      add\n      tag_300\n      swap2\n      swap1\n      tag_41\n      jump\t// in\n    tag_300:\n      mload(0x40)\n      dup1\n      swap2\n      sub\n      swap1\n      revert\n        /* \"node_modules/@openzeppelin/contracts/token/ERC721/ERC721.sol\":20210:20340  if (retval != IERC721Receiver.onERC721Received.selector) {... */\n    tag_299:\n        /* \"node_modules/@openzeppelin/contracts/token/ERC721/ERC721.sol\":20168:20354  returns (bytes4 retval) {... */\n      pop\n        /* \"node_modules/@openzeppelin/contracts/token/ERC721/ERC721.sol\":20054:20718  if (to.code.length > 0) {... */\n    tag_282:\n        /* \"node_modules/@openzeppelin/contracts/token/ERC721/ERC721.sol\":19942:20724  function _checkOnERC721Received(address from, address to, uint256 tokenId, bytes memory data) private {... */\n      pop\n      pop\n      pop\n      pop\n      jump\t// out\n        /* \"node_modules/@openzeppelin/contracts/token/ERC721/ERC721.sol\":8731:8846  function _ownerOf(uint256 tokenId) internal view virtual returns (address) {... */\n    tag_255:\n        /* \"node_modules/@openzeppelin/contracts/token/ERC721/ERC721.sol\":8797:8804  address */\n      0x00\n        /* \"node_modules/@openzeppelin/contracts/token/ERC721/ERC721.sol\":8823:8830  _owners */\n      0x02\n        /* \"node_modules/@openzeppelin/contracts/token/ERC721/ERC721.sol\":8823:8839  _owners[tokenId] */\n      0x00\n        /* \"node_modules/@openzeppelin/contracts/token/ERC721/ERC721.sol\":8831:8838  tokenId */\n      dup4\n        /* \"node_modules/@openzeppelin/contracts/token/ERC721/ERC721.sol\":8823:8839  _owners[tokenId] */\n      dup2\n      mstore\n      0x20\n      add\n      swap1\n      dup2\n      mstore\n      0x20\n      add\n      0x00\n      keccak256\n      0x00\n      swap1\n      sload\n      swap1\n      0x0100\n      exp\n      swap1\n      div\n      0xffffffffffffffffffffffffffffffffffffffff\n      and\n        /* \"node_modules/@openzeppelin/contracts/token/ERC721/ERC721.sol\":8816:8839  return _owners[tokenId] */\n      swap1\n      pop\n        /* \"node_modules/@openzeppelin/contracts/token/ERC721/ERC721.sol\":8731:8846  function _ownerOf(uint256 tokenId) internal view virtual returns (address) {... */\n      swap2\n      swap1\n      pop\n      jump\t// out\n        /* \"node_modules/@openzeppelin/contracts/token/ERC721/ERC721.sol\":17744:18406  function _approve(address to, uint256 tokenId, address auth, bool emitEvent) internal virtual {... */\n    tag_262:\n        /* \"node_modules/@openzeppelin/contracts/token/ERC721/ERC721.sol\":17904:17913  emitEvent */\n      dup1\n        /* \"node_modules/@openzeppelin/contracts/token/ERC721/ERC721.sol\":17904:17935  emitEvent || auth != address(0) */\n      dup1\n      tag_303\n      jumpi\n      pop\n        /* \"node_modules/@openzeppelin/contracts/token/ERC721/ERC721.sol\":17933:17934  0 */\n      0x00\n        /* \"node_modules/@openzeppelin/contracts/token/ERC721/ERC721.sol\":17917:17935  auth != address(0) */\n      0xffffffffffffffffffffffffffffffffffffffff\n      and\n        /* \"node_modules/@openzeppelin/contracts/token/ERC721/ERC721.sol\":17917:17921  auth */\n      dup3\n        /* \"node_modules/@openzeppelin/contracts/token/ERC721/ERC721.sol\":17917:17935  auth != address(0) */\n      0xffffffffffffffffffffffffffffffffffffffff\n      and\n      eq\n      iszero\n        /* \"node_modules/@openzeppelin/contracts/token/ERC721/ERC721.sol\":17904:17935  emitEvent || auth != address(0) */\n    tag_303:\n        /* \"node_modules/@openzeppelin/contracts/token/ERC721/ERC721.sol\":17900:18360  if (emitEvent || auth != address(0)) {... */\n      iszero\n      tag_304\n      jumpi\n        /* \"node_modules/@openzeppelin/contracts/token/ERC721/ERC721.sol\":17951:17964  address owner */\n      0x00\n        /* \"node_modules/@openzeppelin/contracts/token/ERC721/ERC721.sol\":17967:17989  _requireOwned(tokenId) */\n      tag_305\n        /* \"node_modules/@openzeppelin/contracts/token/ERC721/ERC721.sol\":17981:17988  tokenId */\n      dup5\n        /* \"node_modules/@openzeppelin/contracts/token/ERC721/ERC721.sol\":17967:17980  _requireOwned */\n      tag_129\n        /* \"node_modules/@openzeppelin/contracts/token/ERC721/ERC721.sol\":17967:17989  _requireOwned(tokenId) */\n      jump\t// in\n    tag_305:\n        /* \"node_modules/@openzeppelin/contracts/token/ERC721/ERC721.sol\":17951:17989  address owner = _requireOwned(tokenId) */\n      swap1\n      pop\n        /* \"node_modules/@openzeppelin/contracts/token/ERC721/ERC721.sol\":18133:18134  0 */\n      0x00\n        /* \"node_modules/@openzeppelin/contracts/token/ERC721/ERC721.sol\":18117:18135  auth != address(0) */\n      0xffffffffffffffffffffffffffffffffffffffff\n      and\n        /* \"node_modules/@openzeppelin/contracts/token/ERC721/ERC721.sol\":18117:18121  auth */\n      dup4\n        /* \"node_modules/@openzeppelin/contracts/token/ERC721/ERC721.sol\":18117:18135  auth != address(0) */\n      0xffffffffffffffffffffffffffffffffffffffff\n      and\n      eq\n      iszero\n        /* \"node_modules/@openzeppelin/contracts/token/ERC721/ERC721.sol\":18117:18152  auth != address(0) && owner != auth */\n      dup1\n      iszero\n      tag_306\n      jumpi\n      pop\n        /* \"node_modules/@openzeppelin/contracts/token/ERC721/ERC721.sol\":18148:18152  auth */\n      dup3\n        /* \"node_modules/@openzeppelin/contracts/token/ERC721/ERC721.sol\":18139:18152  owner != auth */\n      0xffffffffffffffffffffffffffffffffffffffff\n      and\n        /* \"node_modules/@openzeppelin/contracts/token/ERC721/ERC721.sol\":18139:18144  owner */\n      dup2\n        /* \"node_modules/@openzeppelin/contracts/token/ERC721/ERC721.sol\":18139:18152  owner != auth */\n      0xffffffffffffffffffffffffffffffffffffffff\n      and\n      eq\n      iszero\n        /* \"node_modules/@openzeppelin/contracts/token/ERC721/ERC721.sol\":18117:18152  auth != address(0) && owner != auth */\n    tag_306:\n        /* \"node_modules/@openzeppelin/contracts/token/ERC721/ERC721.sol\":18117:18186  auth != address(0) && owner != auth && !isApprovedForAll(owner, auth) */\n      dup1\n      iszero\n      tag_307\n      jumpi\n      pop\n        /* \"node_modules/@openzeppelin/contracts/token/ERC721/ERC721.sol\":18157:18186  isApprovedForAll(owner, auth) */\n      tag_308\n        /* \"node_modules/@openzeppelin/contracts/token/ERC721/ERC721.sol\":18174:18179  owner */\n      dup2\n        /* \"node_modules/@openzeppelin/contracts/token/ERC721/ERC721.sol\":18181:18185  auth */\n      dup5\n        /* \"node_modules/@openzeppelin/contracts/token/ERC721/ERC721.sol\":18157:18173  isApprovedForAll */\n      tag_113\n        /* \"node_modules/@openzeppelin/contracts/token/ERC721/ERC721.sol\":18157:18186  isApprovedForAll(owner, auth) */\n      jump\t// in\n    tag_308:\n        /* \"node_modules/@openzeppelin/contracts/token/ERC721/ERC721.sol\":18156:18186  !isApprovedForAll(owner, auth) */\n      iszero\n        /* \"node_modules/@openzeppelin/contracts/token/ERC721/ERC721.sol\":18117:18186  auth != address(0) && owner != auth && !isApprovedForAll(owner, auth) */\n    tag_307:\n        /* \"node_modules/@openzeppelin/contracts/token/ERC721/ERC721.sol\":18113:18255  if (auth != address(0) && owner != auth && !isApprovedForAll(owner, auth)) {... */\n      iszero\n      tag_309\n      jumpi\n        /* \"node_modules/@openzeppelin/contracts/token/ERC721/ERC721.sol\":18235:18239  auth */\n      dup3\n        /* \"node_modules/@openzeppelin/contracts/token/ERC721/ERC721.sol\":18213:18240  ERC721InvalidApprover(auth) */\n      mload(0x40)\n      0xa9fbf51f00000000000000000000000000000000000000000000000000000000\n      dup2\n      mstore\n      0x04\n      add\n      tag_310\n      swap2\n      swap1\n      tag_41\n      jump\t// in\n    tag_310:\n      mload(0x40)\n      dup1\n      swap2\n      sub\n      swap1\n      revert\n        /* \"node_modules/@openzeppelin/contracts/token/ERC721/ERC721.sol\":18113:18255  if (auth != address(0) && owner != auth && !isApprovedForAll(owner, auth)) {... */\n    tag_309:\n        /* \"node_modules/@openzeppelin/contracts/token/ERC721/ERC721.sol\":18273:18282  emitEvent */\n      dup2\n        /* \"node_modules/@openzeppelin/contracts/token/ERC721/ERC721.sol\":18269:18350  if (emitEvent) {... */\n      iszero\n      tag_311\n      jumpi\n        /* \"node_modules/@openzeppelin/contracts/token/ERC721/ERC721.sol\":18327:18334  tokenId */\n      dup4\n        /* \"node_modules/@openzeppelin/contracts/token/ERC721/ERC721.sol\":18323:18325  to */\n      dup6\n        /* \"node_modules/@openzeppelin/contracts/token/ERC721/ERC721.sol\":18307:18335  Approval(owner, to, tokenId) */\n      0xffffffffffffffffffffffffffffffffffffffff\n      and\n        /* \"node_modules/@openzeppelin/contracts/token/ERC721/ERC721.sol\":18316:18321  owner */\n      dup3\n        /* \"node_modules/@openzeppelin/contracts/token/ERC721/ERC721.sol\":18307:18335  Approval(owner, to, tokenId) */\n      0xffffffffffffffffffffffffffffffffffffffff\n      and\n      0x8c5be1e5ebec7d5bd14f71427d1e84f3dd0314c0f7b2291e5b200ac8c7c3b925\n      mload(0x40)\n      mload(0x40)\n      dup1\n      swap2\n      sub\n      swap1\n      log4\n        /* \"node_modules/@openzeppelin/contracts/token/ERC721/ERC721.sol\":18269:18350  if (emitEvent) {... */\n    tag_311:\n        /* \"node_modules/@openzeppelin/contracts/token/ERC721/ERC721.sol\":17937:18360  {... */\n      pop\n        /* \"node_modules/@openzeppelin/contracts/token/ERC721/ERC721.sol\":17900:18360  if (emitEvent || auth != address(0)) {... */\n    tag_304:\n        /* \"node_modules/@openzeppelin/contracts/token/ERC721/ERC721.sol\":18397:18399  to */\n      dup4\n        /* \"node_modules/@openzeppelin/contracts/token/ERC721/ERC721.sol\":18370:18385  _tokenApprovals */\n      0x04\n        /* \"node_modules/@openzeppelin/contracts/token/ERC721/ERC721.sol\":18370:18394  _tokenApprovals[tokenId] */\n      0x00\n        /* \"node_modules/@openzeppelin/contracts/token/ERC721/ERC721.sol\":18386:18393  tokenId */\n      dup6\n        /* \"node_modules/@openzeppelin/contracts/token/ERC721/ERC721.sol\":18370:18394  _tokenApprovals[tokenId] */\n      dup2\n      mstore\n      0x20\n      add\n      swap1\n      dup2\n      mstore\n      0x20\n      add\n      0x00\n      keccak256\n      0x00\n        /* \"node_modules/@openzeppelin/contracts/token/ERC721/ERC721.sol\":18370:18399  _tokenApprovals[tokenId] = to */\n      0x0100\n      exp\n      dup2\n      sload\n      dup2\n      0xffffffffffffffffffffffffffffffffffffffff\n      mul\n      not\n      and\n      swap1\n      dup4\n      0xffffffffffffffffffffffffffffffffffffffff\n      and\n      mul\n      or\n      swap1\n      sstore\n      pop\n        /* \"node_modules/@openzeppelin/contracts/token/ERC721/ERC721.sol\":17744:18406  function _approve(address to, uint256 tokenId, address auth, bool emitEvent) internal virtual {... */\n      pop\n      pop\n      pop\n      pop\n      jump\t// out\n        /* \"node_modules/@openzeppelin/contracts/token/ERC721/ERC721.sol\":10106:10474  function _checkAuthorized(address owner, address spender, uint256 tokenId) internal view virtual {... */\n    tag_267:\n        /* \"node_modules/@openzeppelin/contracts/token/ERC721/ERC721.sol\":10218:10256  _isAuthorized(owner, spender, tokenId) */\n      tag_313\n        /* \"node_modules/@openzeppelin/contracts/token/ERC721/ERC721.sol\":10232:10237  owner */\n      dup4\n        /* \"node_modules/@openzeppelin/contracts/token/ERC721/ERC721.sol\":10239:10246  spender */\n      dup4\n        /* \"node_modules/@openzeppelin/contracts/token/ERC721/ERC721.sol\":10248:10255  tokenId */\n      dup4\n        /* \"node_modules/@openzeppelin/contracts/token/ERC721/ERC721.sol\":10218:10231  _isAuthorized */\n      tag_314\n        /* \"node_modules/@openzeppelin/contracts/token/ERC721/ERC721.sol\":10218:10256  _isAuthorized(owner, spender, tokenId) */\n      jump\t// in\n    tag_313:\n        /* \"node_modules/@openzeppelin/contracts/token/ERC721/ERC721.sol\":10213:10468  if (!_isAuthorized(owner, spender, tokenId)) {... */\n      tag_315\n      jumpi\n        /* \"node_modules/@openzeppelin/contracts/token/ERC721/ERC721.sol\":10293:10294  0 */\n      0x00\n        /* \"node_modules/@openzeppelin/contracts/token/ERC721/ERC721.sol\":10276:10295  owner == address(0) */\n      0xffffffffffffffffffffffffffffffffffffffff\n      and\n        /* \"node_modules/@openzeppelin/contracts/token/ERC721/ERC721.sol\":10276:10281  owner */\n      dup4\n        /* \"node_modules/@openzeppelin/contracts/token/ERC721/ERC721.sol\":10276:10295  owner == address(0) */\n      0xffffffffffffffffffffffffffffffffffffffff\n      and\n      sub\n        /* \"node_modules/@openzeppelin/contracts/token/ERC721/ERC721.sol\":10272:10458  if (owner == address(0)) {... */\n      tag_316\n      jumpi\n        /* \"node_modules/@openzeppelin/contracts/token/ERC721/ERC721.sol\":10345:10352  tokenId */\n      dup1\n        /* \"node_modules/@openzeppelin/contracts/token/ERC721/ERC721.sol\":10322:10353  ERC721NonexistentToken(tokenId) */\n      mload(0x40)\n      0x7e27328900000000000000000000000000000000000000000000000000000000\n      dup2\n      mstore\n      0x04\n      add\n      tag_317\n      swap2\n      swap1\n      tag_80\n      jump\t// in\n    tag_317:\n      mload(0x40)\n      dup1\n      swap2\n      sub\n      swap1\n      revert\n        /* \"node_modules/@openzeppelin/contracts/token/ERC721/ERC721.sol\":10272:10458  if (owner == address(0)) {... */\n    tag_316:\n        /* \"node_modules/@openzeppelin/contracts/token/ERC721/ERC721.sol\":10426:10433  spender */\n      dup2\n        /* \"node_modules/@openzeppelin/contracts/token/ERC721/ERC721.sol\":10435:10442  tokenId */\n      dup2\n        /* \"node_modules/@openzeppelin/contracts/token/ERC721/ERC721.sol\":10399:10443  ERC721InsufficientApproval(spender, tokenId) */\n      mload(0x40)\n      0x177e802f00000000000000000000000000000000000000000000000000000000\n      dup2\n      mstore\n      0x04\n      add\n      tag_319\n      swap3\n      swap2\n      swap1\n      tag_320\n      jump\t// in\n    tag_319:\n      mload(0x40)\n      dup1\n      swap2\n      sub\n      swap1\n      revert\n        /* \"node_modules/@openzeppelin/contracts/token/ERC721/ERC721.sol\":10213:10468  if (!_isAuthorized(owner, spender, tokenId)) {... */\n    tag_315:\n        /* \"node_modules/@openzeppelin/contracts/token/ERC721/ERC721.sol\":10106:10474  function _checkAuthorized(address owner, address spender, uint256 tokenId) internal view virtual {... */\n      pop\n      pop\n      pop\n      jump\t// out\n        /* \"node_modules/@openzeppelin/contracts/token/ERC721/ERC721.sol\":9400:9672  function _isAuthorized(address owner, address spender, uint256 tokenId) internal view virtual returns (bool) {... */\n    tag_314:\n        /* \"node_modules/@openzeppelin/contracts/token/ERC721/ERC721.sol\":9503:9507  bool */\n      0x00\n        /* \"node_modules/@openzeppelin/contracts/token/ERC721/ERC721.sol\":9557:9558  0 */\n      dup1\n        /* \"node_modules/@openzeppelin/contracts/token/ERC721/ERC721.sol\":9538:9559  spender != address(0) */\n      0xffffffffffffffffffffffffffffffffffffffff\n      and\n        /* \"node_modules/@openzeppelin/contracts/token/ERC721/ERC721.sol\":9538:9545  spender */\n      dup4\n        /* \"node_modules/@openzeppelin/contracts/token/ERC721/ERC721.sol\":9538:9559  spender != address(0) */\n      0xffffffffffffffffffffffffffffffffffffffff\n      and\n      eq\n      iszero\n        /* \"node_modules/@openzeppelin/contracts/token/ERC721/ERC721.sol\":9538:9665  spender != address(0) &&... */\n      dup1\n      iszero\n      tag_322\n      jumpi\n      pop\n        /* \"node_modules/@openzeppelin/contracts/token/ERC721/ERC721.sol\":9585:9592  spender */\n      dup3\n        /* \"node_modules/@openzeppelin/contracts/token/ERC721/ERC721.sol\":9576:9592  owner == spender */\n      0xffffffffffffffffffffffffffffffffffffffff\n      and\n        /* \"node_modules/@openzeppelin/contracts/token/ERC721/ERC721.sol\":9576:9581  owner */\n      dup5\n        /* \"node_modules/@openzeppelin/contracts/token/ERC721/ERC721.sol\":9576:9592  owner == spender */\n      0xffffffffffffffffffffffffffffffffffffffff\n      and\n      eq\n        /* \"node_modules/@openzeppelin/contracts/token/ERC721/ERC721.sol\":9576:9628  owner == spender || isApprovedForAll(owner, spender) */\n      dup1\n      tag_323\n      jumpi\n      pop\n        /* \"node_modules/@openzeppelin/contracts/token/ERC721/ERC721.sol\":9596:9628  isApprovedForAll(owner, spender) */\n      tag_324\n        /* \"node_modules/@openzeppelin/contracts/token/ERC721/ERC721.sol\":9613:9618  owner */\n      dup5\n        /* \"node_modules/@openzeppelin/contracts/token/ERC721/ERC721.sol\":9620:9627  spender */\n      dup5\n        /* \"node_modules/@openzeppelin/contracts/token/ERC721/ERC721.sol\":9596:9612  isApprovedForAll */\n      tag_113\n        /* \"node_modules/@openzeppelin/contracts/token/ERC721/ERC721.sol\":9596:9628  isApprovedForAll(owner, spender) */\n      jump\t// in\n    tag_324:\n        /* \"node_modules/@openzeppelin/contracts/token/ERC721/ERC721.sol\":9576:9628  owner == spender || isApprovedForAll(owner, spender) */\n    tag_323:\n        /* \"node_modules/@openzeppelin/contracts/token/ERC721/ERC721.sol\":9576:9664  owner == spender || isApprovedForAll(owner, spender) || _getApproved(tokenId) == spender */\n      dup1\n      tag_325\n      jumpi\n      pop\n        /* \"node_modules/@openzeppelin/contracts/token/ERC721/ERC721.sol\":9657:9664  spender */\n      dup3\n        /* \"node_modules/@openzeppelin/contracts/token/ERC721/ERC721.sol\":9632:9664  _getApproved(tokenId) == spender */\n      0xffffffffffffffffffffffffffffffffffffffff\n      and\n        /* \"node_modules/@openzeppelin/contracts/token/ERC721/ERC721.sol\":9632:9653  _getApproved(tokenId) */\n      tag_326\n        /* \"node_modules/@openzeppelin/contracts/token/ERC721/ERC721.sol\":9645:9652  tokenId */\n      dup4\n        /* \"node_modules/@openzeppelin/contracts/token/ERC721/ERC721.sol\":9632:9644  _getApproved */\n      tag_131\n        /* \"node_modules/@openzeppelin/contracts/token/ERC721/ERC721.sol\":9632:9653  _getApproved(tokenId) */\n      jump\t// in\n    tag_326:\n        /* \"node_modules/@openzeppelin/contracts/token/ERC721/ERC721.sol\":9632:9664  _getApproved(tokenId) == spender */\n      0xffffffffffffffffffffffffffffffffffffffff\n      and\n      eq\n        /* \"node_modules/@openzeppelin/contracts/token/ERC721/ERC721.sol\":9576:9664  owner == spender || isApprovedForAll(owner, spender) || _getApproved(tokenId) == spender */\n    tag_325:\n        /* \"node_modules/@openzeppelin/contracts/token/ERC721/ERC721.sol\":9538:9665  spender != address(0) &&... */\n    tag_322:\n        /* \"node_modules/@openzeppelin/contracts/token/ERC721/ERC721.sol\":9519:9665  return... */\n      swap1\n      pop\n        /* \"node_modules/@openzeppelin/contracts/token/ERC721/ERC721.sol\":9400:9672  function _isAuthorized(address owner, address spender, uint256 tokenId) internal view virtual returns (bool) {... */\n      swap4\n      swap3\n      pop\n      pop\n      pop\n      jump\t// out\n    tag_146:\n      mload(0x40)\n      dup1\n      0x40\n      add\n      0x40\n      mstore\n      dup1\n      0x00\n      dup2\n      mstore\n      0x20\n      add\n      tag_327\n      tag_328\n      jump\t// in\n    tag_327:\n      dup2\n      mstore\n      pop\n      swap1\n      jump\t// out\n    tag_328:\n      mload(0x40)\n      dup1\n      0x40\n      add\n      0x40\n      mstore\n      dup1\n      0x60\n      dup2\n      mstore\n      0x20\n      add\n      0x00\n      dup2\n      mstore\n      pop\n      swap1\n      jump\t// out\n        /* \"#utility.yul\":7:82   */\n    tag_329:\n        /* \"#utility.yul\":40:46   */\n      0x00\n        /* \"#utility.yul\":73:75   */\n      0x40\n        /* \"#utility.yul\":67:76   */\n      mload\n        /* \"#utility.yul\":57:76   */\n      swap1\n      pop\n        /* \"#utility.yul\":7:82   */\n      swap1\n      jump\t// out\n        /* \"#utility.yul\":88:205   */\n    tag_330:\n        /* \"#utility.yul\":197:198   */\n      0x00\n        /* \"#utility.yul\":194:195   */\n      dup1\n        /* \"#utility.yul\":187:199   */\n      revert\n        /* \"#utility.yul\":211:328   */\n    tag_331:\n        /* \"#utility.yul\":320:321   */\n      0x00\n        /* \"#utility.yul\":317:318   */\n      dup1\n        /* \"#utility.yul\":310:322   */\n      revert\n        /* \"#utility.yul\":334:483   */\n    tag_332:\n        /* \"#utility.yul\":370:377   */\n      0x00\n        /* \"#utility.yul\":410:476   */\n      0xffffffff00000000000000000000000000000000000000000000000000000000\n        /* \"#utility.yul\":403:408   */\n      dup3\n        /* \"#utility.yul\":399:477   */\n      and\n        /* \"#utility.yul\":388:477   */\n      swap1\n      pop\n        /* \"#utility.yul\":334:483   */\n      swap2\n      swap1\n      pop\n      jump\t// out\n        /* \"#utility.yul\":489:609   */\n    tag_333:\n        /* \"#utility.yul\":561:584   */\n      tag_411\n        /* \"#utility.yul\":578:583   */\n      dup2\n        /* \"#utility.yul\":561:584   */\n      tag_332\n      jump\t// in\n    tag_411:\n        /* \"#utility.yul\":554:559   */\n      dup2\n        /* \"#utility.yul\":551:585   */\n      eq\n        /* \"#utility.yul\":541:603   */\n      tag_412\n      jumpi\n        /* \"#utility.yul\":599:600   */\n      0x00\n        /* \"#utility.yul\":596:597   */\n      dup1\n        /* \"#utility.yul\":589:601   */\n      revert\n        /* \"#utility.yul\":541:603   */\n    tag_412:\n        /* \"#utility.yul\":489:609   */\n      pop\n      jump\t// out\n        /* \"#utility.yul\":615:752   */\n    tag_334:\n        /* \"#utility.yul\":660:665   */\n      0x00\n        /* \"#utility.yul\":698:704   */\n      dup2\n        /* \"#utility.yul\":685:705   */\n      calldataload\n        /* \"#utility.yul\":676:705   */\n      swap1\n      pop\n        /* \"#utility.yul\":714:746   */\n      tag_414\n        /* \"#utility.yul\":740:745   */\n      dup2\n        /* \"#utility.yul\":714:746   */\n      tag_333\n      jump\t// in\n    tag_414:\n        /* \"#utility.yul\":615:752   */\n      swap3\n      swap2\n      pop\n      pop\n      jump\t// out\n        /* \"#utility.yul\":758:1085   */\n    tag_28:\n        /* \"#utility.yul\":816:822   */\n      0x00\n        /* \"#utility.yul\":865:867   */\n      0x20\n        /* \"#utility.yul\":853:862   */\n      dup3\n        /* \"#utility.yul\":844:851   */\n      dup5\n        /* \"#utility.yul\":840:863   */\n      sub\n        /* \"#utility.yul\":836:868   */\n      slt\n        /* \"#utility.yul\":833:952   */\n      iszero\n      tag_416\n      jumpi\n        /* \"#utility.yul\":871:950   */\n      tag_417\n      tag_330\n      jump\t// in\n    tag_417:\n        /* \"#utility.yul\":833:952   */\n    tag_416:\n        /* \"#utility.yul\":991:992   */\n      0x00\n        /* \"#utility.yul\":1016:1068   */\n      tag_418\n        /* \"#utility.yul\":1060:1067   */\n      dup5\n        /* \"#utility.yul\":1051:1057   */\n      dup3\n        /* \"#utility.yul\":1040:1049   */\n      dup6\n        /* \"#utility.yul\":1036:1058   */\n      add\n        /* \"#utility.yul\":1016:1068   */\n      tag_334\n      jump\t// in\n    tag_418:\n        /* \"#utility.yul\":1006:1068   */\n      swap2\n      pop\n        /* \"#utility.yul\":962:1078   */\n      pop\n        /* \"#utility.yul\":758:1085   */\n      swap3\n      swap2\n      pop\n      pop\n      jump\t// out\n        /* \"#utility.yul\":1091:1181   */\n    tag_335:\n        /* \"#utility.yul\":1125:1132   */\n      0x00\n        /* \"#utility.yul\":1168:1173   */\n      dup2\n        /* \"#utility.yul\":1161:1174   */\n      iszero\n        /* \"#utility.yul\":1154:1175   */\n      iszero\n        /* \"#utility.yul\":1143:1175   */\n      swap1\n      pop\n        /* \"#utility.yul\":1091:1181   */\n      swap2\n      swap1\n      pop\n      jump\t// out\n        /* \"#utility.yul\":1187:1296   */\n    tag_336:\n        /* \"#utility.yul\":1268:1289   */\n      tag_421\n        /* \"#utility.yul\":1283:1288   */\n      dup2\n        /* \"#utility.yul\":1268:1289   */\n      tag_335\n      jump\t// in\n    tag_421:\n        /* \"#utility.yul\":1263:1266   */\n      dup3\n        /* \"#utility.yul\":1256:1290   */\n      mstore\n        /* \"#utility.yul\":1187:1296   */\n      pop\n      pop\n      jump\t// out\n        /* \"#utility.yul\":1302:1512   */\n    tag_31:\n        /* \"#utility.yul\":1389:1393   */\n      0x00\n        /* \"#utility.yul\":1427:1429   */\n      0x20\n        /* \"#utility.yul\":1416:1425   */\n      dup3\n        /* \"#utility.yul\":1412:1430   */\n      add\n        /* \"#utility.yul\":1404:1430   */\n      swap1\n      pop\n        /* \"#utility.yul\":1440:1505   */\n      tag_423\n        /* \"#utility.yul\":1502:1503   */\n      0x00\n        /* \"#utility.yul\":1491:1500   */\n      dup4\n        /* \"#utility.yul\":1487:1504   */\n      add\n        /* \"#utility.yul\":1478:1484   */\n      dup5\n        /* \"#utility.yul\":1440:1505   */\n      tag_336\n      jump\t// in\n    tag_423:\n        /* \"#utility.yul\":1302:1512   */\n      swap3\n      swap2\n      pop\n      pop\n      jump\t// out\n        /* \"#utility.yul\":1518:1617   */\n    tag_337:\n        /* \"#utility.yul\":1570:1576   */\n      0x00\n        /* \"#utility.yul\":1604:1609   */\n      dup2\n        /* \"#utility.yul\":1598:1610   */\n      mload\n        /* \"#utility.yul\":1588:1610   */\n      swap1\n      pop\n        /* \"#utility.yul\":1518:1617   */\n      swap2\n      swap1\n      pop\n      jump\t// out\n        /* \"#utility.yul\":1623:1792   */\n    tag_338:\n        /* \"#utility.yul\":1707:1718   */\n      0x00\n        /* \"#utility.yul\":1741:1747   */\n      dup3\n        /* \"#utility.yul\":1736:1739   */\n      dup3\n        /* \"#utility.yul\":1729:1748   */\n      mstore\n        /* \"#utility.yul\":1781:1785   */\n      0x20\n        /* \"#utility.yul\":1776:1779   */\n      dup3\n        /* \"#utility.yul\":1772:1786   */\n      add\n        /* \"#utility.yul\":1757:1786   */\n      swap1\n      pop\n        /* \"#utility.yul\":1623:1792   */\n      swap3\n      swap2\n      pop\n      pop\n      jump\t// out\n        /* \"#utility.yul\":1798:2044   */\n    tag_339:\n        /* \"#utility.yul\":1879:1880   */\n      0x00\n        /* \"#utility.yul\":1889:2002   */\n    tag_427:\n        /* \"#utility.yul\":1903:1909   */\n      dup4\n        /* \"#utility.yul\":1900:1901   */\n      dup2\n        /* \"#utility.yul\":1897:1910   */\n      lt\n        /* \"#utility.yul\":1889:2002   */\n      iszero\n      tag_429\n      jumpi\n        /* \"#utility.yul\":1988:1989   */\n      dup1\n        /* \"#utility.yul\":1983:1986   */\n      dup3\n        /* \"#utility.yul\":1979:1990   */\n      add\n        /* \"#utility.yul\":1973:1991   */\n      mload\n        /* \"#utility.yul\":1969:1970   */\n      dup2\n        /* \"#utility.yul\":1964:1967   */\n      dup5\n        /* \"#utility.yul\":1960:1971   */\n      add\n        /* \"#utility.yul\":1953:1992   */\n      mstore\n        /* \"#utility.yul\":1925:1927   */\n      0x20\n        /* \"#utility.yul\":1922:1923   */\n      dup2\n        /* \"#utility.yul\":1918:1928   */\n      add\n        /* \"#utility.yul\":1913:1928   */\n      swap1\n      pop\n        /* \"#utility.yul\":1889:2002   */\n      jump(tag_427)\n    tag_429:\n        /* \"#utility.yul\":2036:2037   */\n      0x00\n        /* \"#utility.yul\":2027:2033   */\n      dup5\n        /* \"#utility.yul\":2022:2025   */\n      dup5\n        /* \"#utility.yul\":2018:2034   */\n      add\n        /* \"#utility.yul\":2011:2038   */\n      mstore\n        /* \"#utility.yul\":1860:2044   */\n      pop\n        /* \"#utility.yul\":1798:2044   */\n      pop\n      pop\n      pop\n      jump\t// out\n        /* \"#utility.yul\":2050:2152   */\n    tag_340:\n        /* \"#utility.yul\":2091:2097   */\n      0x00\n        /* \"#utility.yul\":2142:2144   */\n      0x1f\n        /* \"#utility.yul\":2138:2145   */\n      not\n        /* \"#utility.yul\":2133:2135   */\n      0x1f\n        /* \"#utility.yul\":2126:2131   */\n      dup4\n        /* \"#utility.yul\":2122:2136   */\n      add\n        /* \"#utility.yul\":2118:2146   */\n      and\n        /* \"#utility.yul\":2108:2146   */\n      swap1\n      pop\n        /* \"#utility.yul\":2050:2152   */\n      swap2\n      swap1\n      pop\n      jump\t// out\n        /* \"#utility.yul\":2158:2535   */\n    tag_341:\n        /* \"#utility.yul\":2246:2249   */\n      0x00\n        /* \"#utility.yul\":2274:2313   */\n      tag_432\n        /* \"#utility.yul\":2307:2312   */\n      dup3\n        /* \"#utility.yul\":2274:2313   */\n      tag_337\n      jump\t// in\n    tag_432:\n        /* \"#utility.yul\":2329:2400   */\n      tag_433\n        /* \"#utility.yul\":2393:2399   */\n      dup2\n        /* \"#utility.yul\":2388:2391   */\n      dup6\n        /* \"#utility.yul\":2329:2400   */\n      tag_338\n      jump\t// in\n    tag_433:\n        /* \"#utility.yul\":2322:2400   */\n      swap4\n      pop\n        /* \"#utility.yul\":2409:2474   */\n      tag_434\n        /* \"#utility.yul\":2467:2473   */\n      dup2\n        /* \"#utility.yul\":2462:2465   */\n      dup6\n        /* \"#utility.yul\":2455:2459   */\n      0x20\n        /* \"#utility.yul\":2448:2453   */\n      dup7\n        /* \"#utility.yul\":2444:2460   */\n      add\n        /* \"#utility.yul\":2409:2474   */\n      tag_339\n      jump\t// in\n    tag_434:\n        /* \"#utility.yul\":2499:2528   */\n      tag_435\n        /* \"#utility.yul\":2521:2527   */\n      dup2\n        /* \"#utility.yul\":2499:2528   */\n      tag_340\n      jump\t// in\n    tag_435:\n        /* \"#utility.yul\":2494:2497   */\n      dup5\n        /* \"#utility.yul\":2490:2529   */\n      add\n        /* \"#utility.yul\":2483:2529   */\n      swap2\n      pop\n        /* \"#utility.yul\":2250:2535   */\n      pop\n        /* \"#utility.yul\":2158:2535   */\n      swap3\n      swap2\n      pop\n      pop\n      jump\t// out\n        /* \"#utility.yul\":2541:2854   */\n    tag_35:\n        /* \"#utility.yul\":2654:2658   */\n      0x00\n        /* \"#utility.yul\":2692:2694   */\n      0x20\n        /* \"#utility.yul\":2681:2690   */\n      dup3\n        /* \"#utility.yul\":2677:2695   */\n      add\n        /* \"#utility.yul\":2669:2695   */\n      swap1\n      pop\n        /* \"#utility.yul\":2741:2750   */\n      dup2\n        /* \"#utility.yul\":2735:2739   */\n      dup2\n        /* \"#utility.yul\":2731:2751   */\n      sub\n        /* \"#utility.yul\":2727:2728   */\n      0x00\n        /* \"#utility.yul\":2716:2725   */\n      dup4\n        /* \"#utility.yul\":2712:2729   */\n      add\n        /* \"#utility.yul\":2705:2752   */\n      mstore\n        /* \"#utility.yul\":2769:2847   */\n      tag_437\n        /* \"#utility.yul\":2842:2846   */\n      dup2\n        /* \"#utility.yul\":2833:2839   */\n      dup5\n        /* \"#utility.yul\":2769:2847   */\n      tag_341\n      jump\t// in\n    tag_437:\n        /* \"#utility.yul\":2761:2847   */\n      swap1\n      pop\n        /* \"#utility.yul\":2541:2854   */\n      swap3\n      swap2\n      pop\n      pop\n      jump\t// out\n        /* \"#utility.yul\":2860:2937   */\n    tag_342:\n        /* \"#utility.yul\":2897:2904   */\n      0x00\n        /* \"#utility.yul\":2926:2931   */\n      dup2\n        /* \"#utility.yul\":2915:2931   */\n      swap1\n      pop\n        /* \"#utility.yul\":2860:2937   */\n      swap2\n      swap1\n      pop\n      jump\t// out\n        /* \"#utility.yul\":2943:3065   */\n    tag_343:\n        /* \"#utility.yul\":3016:3040   */\n      tag_440\n        /* \"#utility.yul\":3034:3039   */\n      dup2\n        /* \"#utility.yul\":3016:3040   */\n      tag_342\n      jump\t// in\n    tag_440:\n        /* \"#utility.yul\":3009:3014   */\n      dup2\n        /* \"#utility.yul\":3006:3041   */\n      eq\n        /* \"#utility.yul\":2996:3059   */\n      tag_441\n      jumpi\n        /* \"#utility.yul\":3055:3056   */\n      0x00\n        /* \"#utility.yul\":3052:3053   */\n      dup1\n        /* \"#utility.yul\":3045:3057   */\n      revert\n        /* \"#utility.yul\":2996:3059   */\n    tag_441:\n        /* \"#utility.yul\":2943:3065   */\n      pop\n      jump\t// out\n        /* \"#utility.yul\":3071:3210   */\n    tag_344:\n        /* \"#utility.yul\":3117:3122   */\n      0x00\n        /* \"#utility.yul\":3155:3161   */\n      dup2\n        /* \"#utility.yul\":3142:3162   */\n      calldataload\n        /* \"#utility.yul\":3133:3162   */\n      swap1\n      pop\n        /* \"#utility.yul\":3171:3204   */\n      tag_443\n        /* \"#utility.yul\":3198:3203   */\n      dup2\n        /* \"#utility.yul\":3171:3204   */\n      tag_343\n      jump\t// in\n    tag_443:\n        /* \"#utility.yul\":3071:3210   */\n      swap3\n      swap2\n      pop\n      pop\n      jump\t// out\n        /* \"#utility.yul\":3216:3545   */\n    tag_38:\n        /* \"#utility.yul\":3275:3281   */\n      0x00\n        /* \"#utility.yul\":3324:3326   */\n      0x20\n        /* \"#utility.yul\":3312:3321   */\n      dup3\n        /* \"#utility.yul\":3303:3310   */\n      dup5\n        /* \"#utility.yul\":3299:3322   */\n      sub\n        /* \"#utility.yul\":3295:3327   */\n      slt\n        /* \"#utility.yul\":3292:3411   */\n      iszero\n      tag_445\n      jumpi\n        /* \"#utility.yul\":3330:3409   */\n      tag_446\n      tag_330\n      jump\t// in\n    tag_446:\n        /* \"#utility.yul\":3292:3411   */\n    tag_445:\n        /* \"#utility.yul\":3450:3451   */\n      0x00\n        /* \"#utility.yul\":3475:3528   */\n      tag_447\n        /* \"#utility.yul\":3520:3527   */\n      dup5\n        /* \"#utility.yul\":3511:3517   */\n      dup3\n        /* \"#utility.yul\":3500:3509   */\n      dup6\n        /* \"#utility.yul\":3496:3518   */\n      add\n        /* \"#utility.yul\":3475:3528   */\n      tag_344\n      jump\t// in\n    tag_447:\n        /* \"#utility.yul\":3465:3528   */\n      swap2\n      pop\n        /* \"#utility.yul\":3421:3538   */\n      pop\n        /* \"#utility.yul\":3216:3545   */\n      swap3\n      swap2\n      pop\n      pop\n      jump\t// out\n        /* \"#utility.yul\":3551:3677   */\n    tag_345:\n        /* \"#utility.yul\":3588:3595   */\n      0x00\n        /* \"#utility.yul\":3628:3670   */\n      0xffffffffffffffffffffffffffffffffffffffff\n        /* \"#utility.yul\":3621:3626   */\n      dup3\n        /* \"#utility.yul\":3617:3671   */\n      and\n        /* \"#utility.yul\":3606:3671   */\n      swap1\n      pop\n        /* \"#utility.yul\":3551:3677   */\n      swap2\n      swap1\n      pop\n      jump\t// out\n        /* \"#utility.yul\":3683:3779   */\n    tag_346:\n        /* \"#utility.yul\":3720:3727   */\n      0x00\n        /* \"#utility.yul\":3749:3773   */\n      tag_450\n        /* \"#utility.yul\":3767:3772   */\n      dup3\n        /* \"#utility.yul\":3749:3773   */\n      tag_345\n      jump\t// in\n    tag_450:\n        /* \"#utility.yul\":3738:3773   */\n      swap1\n      pop\n        /* \"#utility.yul\":3683:3779   */\n      swap2\n      swap1\n      pop\n      jump\t// out\n        /* \"#utility.yul\":3785:3903   */\n    tag_347:\n        /* \"#utility.yul\":3872:3896   */\n      tag_452\n        /* \"#utility.yul\":3890:3895   */\n      dup2\n        /* \"#utility.yul\":3872:3896   */\n      tag_346\n      jump\t// in\n    tag_452:\n        /* \"#utility.yul\":3867:3870   */\n      dup3\n        /* \"#utility.yul\":3860:3897   */\n      mstore\n        /* \"#utility.yul\":3785:3903   */\n      pop\n      pop\n      jump\t// out\n        /* \"#utility.yul\":3909:4131   */\n    tag_41:\n        /* \"#utility.yul\":4002:4006   */\n      0x00\n        /* \"#utility.yul\":4040:4042   */\n      0x20\n        /* \"#utility.yul\":4029:4038   */\n      dup3\n        /* \"#utility.yul\":4025:4043   */\n      add\n        /* \"#utility.yul\":4017:4043   */\n      swap1\n      pop\n        /* \"#utility.yul\":4053:4124   */\n      tag_454\n        /* \"#utility.yul\":4121:4122   */\n      0x00\n        /* \"#utility.yul\":4110:4119   */\n      dup4\n        /* \"#utility.yul\":4106:4123   */\n      add\n        /* \"#utility.yul\":4097:4103   */\n      dup5\n        /* \"#utility.yul\":4053:4124   */\n      tag_347\n      jump\t// in\n    tag_454:\n        /* \"#utility.yul\":3909:4131   */\n      swap3\n      swap2\n      pop\n      pop\n      jump\t// out\n        /* \"#utility.yul\":4137:4259   */\n    tag_348:\n        /* \"#utility.yul\":4210:4234   */\n      tag_456\n        /* \"#utility.yul\":4228:4233   */\n      dup2\n        /* \"#utility.yul\":4210:4234   */\n      tag_346\n      jump\t// in\n    tag_456:\n        /* \"#utility.yul\":4203:4208   */\n      dup2\n        /* \"#utility.yul\":4200:4235   */\n      eq\n        /* \"#utility.yul\":4190:4253   */\n      tag_457\n      jumpi\n        /* \"#utility.yul\":4249:4250   */\n      0x00\n        /* \"#utility.yul\":4246:4247   */\n      dup1\n        /* \"#utility.yul\":4239:4251   */\n      revert\n        /* \"#utility.yul\":4190:4253   */\n    tag_457:\n        /* \"#utility.yul\":4137:4259   */\n      pop\n      jump\t// out\n        /* \"#utility.yul\":4265:4404   */\n    tag_349:\n        /* \"#utility.yul\":4311:4316   */\n      0x00\n        /* \"#utility.yul\":4349:4355   */\n      dup2\n        /* \"#utility.yul\":4336:4356   */\n      calldataload\n        /* \"#utility.yul\":4327:4356   */\n      swap1\n      pop\n        /* \"#utility.yul\":4365:4398   */\n      tag_459\n        /* \"#utility.yul\":4392:4397   */\n      dup2\n        /* \"#utility.yul\":4365:4398   */\n      tag_348\n      jump\t// in\n    tag_459:\n        /* \"#utility.yul\":4265:4404   */\n      swap3\n      swap2\n      pop\n      pop\n      jump\t// out\n        /* \"#utility.yul\":4410:4884   */\n    tag_44:\n        /* \"#utility.yul\":4478:4484   */\n      0x00\n        /* \"#utility.yul\":4486:4492   */\n      dup1\n        /* \"#utility.yul\":4535:4537   */\n      0x40\n        /* \"#utility.yul\":4523:4532   */\n      dup4\n        /* \"#utility.yul\":4514:4521   */\n      dup6\n        /* \"#utility.yul\":4510:4533   */\n      sub\n        /* \"#utility.yul\":4506:4538   */\n      slt\n        /* \"#utility.yul\":4503:4622   */\n      iszero\n      tag_461\n      jumpi\n        /* \"#utility.yul\":4541:4620   */\n      tag_462\n      tag_330\n      jump\t// in\n    tag_462:\n        /* \"#utility.yul\":4503:4622   */\n    tag_461:\n        /* \"#utility.yul\":4661:4662   */\n      0x00\n        /* \"#utility.yul\":4686:4739   */\n      tag_463\n        /* \"#utility.yul\":4731:4738   */\n      dup6\n        /* \"#utility.yul\":4722:4728   */\n      dup3\n        /* \"#utility.yul\":4711:4720   */\n      dup7\n        /* \"#utility.yul\":4707:4729   */\n      add\n        /* \"#utility.yul\":4686:4739   */\n      tag_349\n      jump\t// in\n    tag_463:\n        /* \"#utility.yul\":4676:4739   */\n      swap3\n      pop\n        /* \"#utility.yul\":4632:4749   */\n      pop\n        /* \"#utility.yul\":4788:4790   */\n      0x20\n        /* \"#utility.yul\":4814:4867   */\n      tag_464\n        /* \"#utility.yul\":4859:4866   */\n      dup6\n        /* \"#utility.yul\":4850:4856   */\n      dup3\n        /* \"#utility.yul\":4839:4848   */\n      dup7\n        /* \"#utility.yul\":4835:4857   */\n      add\n        /* \"#utility.yul\":4814:4867   */\n      tag_344\n      jump\t// in\n    tag_464:\n        /* \"#utility.yul\":4804:4867   */\n      swap2\n      pop\n        /* \"#utility.yul\":4759:4877   */\n      pop\n        /* \"#utility.yul\":4410:4884   */\n      swap3\n      pop\n      swap3\n      swap1\n      pop\n      jump\t// out\n        /* \"#utility.yul\":4890:5219   */\n    tag_48:\n        /* \"#utility.yul\":4949:4955   */\n      0x00\n        /* \"#utility.yul\":4998:5000   */\n      0x20\n        /* \"#utility.yul\":4986:4995   */\n      dup3\n        /* \"#utility.yul\":4977:4984   */\n      dup5\n        /* \"#utility.yul\":4973:4996   */\n      sub\n        /* \"#utility.yul\":4969:5001   */\n      slt\n        /* \"#utility.yul\":4966:5085   */\n      iszero\n      tag_466\n      jumpi\n        /* \"#utility.yul\":5004:5083   */\n      tag_467\n      tag_330\n      jump\t// in\n    tag_467:\n        /* \"#utility.yul\":4966:5085   */\n    tag_466:\n        /* \"#utility.yul\":5124:5125   */\n      0x00\n        /* \"#utility.yul\":5149:5202   */\n      tag_468\n        /* \"#utility.yul\":5194:5201   */\n      dup5\n        /* \"#utility.yul\":5185:5191   */\n      dup3\n        /* \"#utility.yul\":5174:5183   */\n      dup6\n        /* \"#utility.yul\":5170:5192   */\n      add\n        /* \"#utility.yul\":5149:5202   */\n      tag_349\n      jump\t// in\n    tag_468:\n        /* \"#utility.yul\":5139:5202   */\n      swap2\n      pop\n        /* \"#utility.yul\":5095:5212   */\n      pop\n        /* \"#utility.yul\":4890:5219   */\n      swap3\n      swap2\n      pop\n      pop\n      jump\t// out\n        /* \"#utility.yul\":5225:5377   */\n    tag_350:\n        /* \"#utility.yul\":5330:5336   */\n      0x00\n        /* \"#utility.yul\":5364:5369   */\n      dup2\n        /* \"#utility.yul\":5358:5370   */\n      mload\n        /* \"#utility.yul\":5348:5370   */\n      swap1\n      pop\n        /* \"#utility.yul\":5225:5377   */\n      swap2\n      swap1\n      pop\n      jump\t// out\n        /* \"#utility.yul\":5383:5605   */\n    tag_351:\n        /* \"#utility.yul\":5520:5531   */\n      0x00\n        /* \"#utility.yul\":5554:5560   */\n      dup3\n        /* \"#utility.yul\":5549:5552   */\n      dup3\n        /* \"#utility.yul\":5542:5561   */\n      mstore\n        /* \"#utility.yul\":5594:5598   */\n      0x20\n        /* \"#utility.yul\":5589:5592   */\n      dup3\n        /* \"#utility.yul\":5585:5599   */\n      add\n        /* \"#utility.yul\":5570:5599   */\n      swap1\n      pop\n        /* \"#utility.yul\":5383:5605   */\n      swap3\n      swap2\n      pop\n      pop\n      jump\t// out\n        /* \"#utility.yul\":5611:5781   */\n    tag_352:\n        /* \"#utility.yul\":5716:5720   */\n      0x00\n        /* \"#utility.yul\":5739:5742   */\n      dup2\n        /* \"#utility.yul\":5731:5742   */\n      swap1\n      pop\n        /* \"#utility.yul\":5769:5773   */\n      0x20\n        /* \"#utility.yul\":5764:5767   */\n      dup3\n        /* \"#utility.yul\":5760:5774   */\n      add\n        /* \"#utility.yul\":5752:5774   */\n      swap1\n      pop\n        /* \"#utility.yul\":5611:5781   */\n      swap2\n      swap1\n      pop\n      jump\t// out\n        /* \"#utility.yul\":5787:5895   */\n    tag_353:\n        /* \"#utility.yul\":5864:5888   */\n      tag_473\n        /* \"#utility.yul\":5882:5887   */\n      dup2\n        /* \"#utility.yul\":5864:5888   */\n      tag_342\n      jump\t// in\n    tag_473:\n        /* \"#utility.yul\":5859:5862   */\n      dup3\n        /* \"#utility.yul\":5852:5889   */\n      mstore\n        /* \"#utility.yul\":5787:5895   */\n      pop\n      pop\n      jump\t// out\n        /* \"#utility.yul\":5901:6060   */\n    tag_354:\n        /* \"#utility.yul\":5975:5986   */\n      0x00\n        /* \"#utility.yul\":6009:6015   */\n      dup3\n        /* \"#utility.yul\":6004:6007   */\n      dup3\n        /* \"#utility.yul\":5997:6016   */\n      mstore\n        /* \"#utility.yul\":6049:6053   */\n      0x20\n        /* \"#utility.yul\":6044:6047   */\n      dup3\n        /* \"#utility.yul\":6040:6054   */\n      add\n        /* \"#utility.yul\":6025:6054   */\n      swap1\n      pop\n        /* \"#utility.yul\":5901:6060   */\n      swap3\n      swap2\n      pop\n      pop\n      jump\t// out\n        /* \"#utility.yul\":6066:6423   */\n    tag_355:\n        /* \"#utility.yul\":6144:6147   */\n      0x00\n        /* \"#utility.yul\":6172:6211   */\n      tag_476\n        /* \"#utility.yul\":6205:6210   */\n      dup3\n        /* \"#utility.yul\":6172:6211   */\n      tag_337\n      jump\t// in\n    tag_476:\n        /* \"#utility.yul\":6227:6288   */\n      tag_477\n        /* \"#utility.yul\":6281:6287   */\n      dup2\n        /* \"#utility.yul\":6276:6279   */\n      dup6\n        /* \"#utility.yul\":6227:6288   */\n      tag_354\n      jump\t// in\n    tag_477:\n        /* \"#utility.yul\":6220:6288   */\n      swap4\n      pop\n        /* \"#utility.yul\":6297:6362   */\n      tag_478\n        /* \"#utility.yul\":6355:6361   */\n      dup2\n        /* \"#utility.yul\":6350:6353   */\n      dup6\n        /* \"#utility.yul\":6343:6347   */\n      0x20\n        /* \"#utility.yul\":6336:6341   */\n      dup7\n        /* \"#utility.yul\":6332:6348   */\n      add\n        /* \"#utility.yul\":6297:6362   */\n      tag_339\n      jump\t// in\n    tag_478:\n        /* \"#utility.yul\":6387:6416   */\n      tag_479\n        /* \"#utility.yul\":6409:6415   */\n      dup2\n        /* \"#utility.yul\":6387:6416   */\n      tag_340\n      jump\t// in\n    tag_479:\n        /* \"#utility.yul\":6382:6385   */\n      dup5\n        /* \"#utility.yul\":6378:6417   */\n      add\n        /* \"#utility.yul\":6371:6417   */\n      swap2\n      pop\n        /* \"#utility.yul\":6148:6423   */\n      pop\n        /* \"#utility.yul\":6066:6423   */\n      swap3\n      swap2\n      pop\n      pop\n      jump\t// out\n        /* \"#utility.yul\":6493:7104   */\n    tag_356:\n        /* \"#utility.yul\":6610:6613   */\n      0x00\n        /* \"#utility.yul\":6646:6650   */\n      0x40\n        /* \"#utility.yul\":6641:6644   */\n      dup4\n        /* \"#utility.yul\":6637:6651   */\n      add\n        /* \"#utility.yul\":6737:6741   */\n      0x00\n        /* \"#utility.yul\":6730:6735   */\n      dup4\n        /* \"#utility.yul\":6726:6742   */\n      add\n        /* \"#utility.yul\":6720:6743   */\n      mload\n        /* \"#utility.yul\":6790:6793   */\n      dup5\n        /* \"#utility.yul\":6784:6788   */\n      dup3\n        /* \"#utility.yul\":6780:6794   */\n      sub\n        /* \"#utility.yul\":6773:6777   */\n      0x00\n        /* \"#utility.yul\":6768:6771   */\n      dup7\n        /* \"#utility.yul\":6764:6778   */\n      add\n        /* \"#utility.yul\":6757:6795   */\n      mstore\n        /* \"#utility.yul\":6816:6889   */\n      tag_481\n        /* \"#utility.yul\":6884:6888   */\n      dup3\n        /* \"#utility.yul\":6870:6882   */\n      dup3\n        /* \"#utility.yul\":6816:6889   */\n      tag_355\n      jump\t// in\n    tag_481:\n        /* \"#utility.yul\":6808:6889   */\n      swap2\n      pop\n        /* \"#utility.yul\":6661:6900   */\n      pop\n        /* \"#utility.yul\":6985:6989   */\n      0x20\n        /* \"#utility.yul\":6978:6983   */\n      dup4\n        /* \"#utility.yul\":6974:6990   */\n      add\n        /* \"#utility.yul\":6968:6991   */\n      mload\n        /* \"#utility.yul\":7004:7067   */\n      tag_482\n        /* \"#utility.yul\":7061:7065   */\n      0x20\n        /* \"#utility.yul\":7056:7059   */\n      dup7\n        /* \"#utility.yul\":7052:7066   */\n      add\n        /* \"#utility.yul\":7038:7050   */\n      dup3\n        /* \"#utility.yul\":7004:7067   */\n      tag_353\n      jump\t// in\n    tag_482:\n        /* \"#utility.yul\":6910:7077   */\n      pop\n        /* \"#utility.yul\":7094:7098   */\n      dup1\n        /* \"#utility.yul\":7087:7098   */\n      swap2\n      pop\n        /* \"#utility.yul\":6615:7104   */\n      pop\n        /* \"#utility.yul\":6493:7104   */\n      swap3\n      swap2\n      pop\n      pop\n      jump\t// out\n        /* \"#utility.yul\":7192:7859   */\n    tag_357:\n        /* \"#utility.yul\":7327:7330   */\n      0x00\n        /* \"#utility.yul\":7363:7367   */\n      0x40\n        /* \"#utility.yul\":7358:7361   */\n      dup4\n        /* \"#utility.yul\":7354:7368   */\n      add\n        /* \"#utility.yul\":7453:7457   */\n      0x00\n        /* \"#utility.yul\":7446:7451   */\n      dup4\n        /* \"#utility.yul\":7442:7458   */\n      add\n        /* \"#utility.yul\":7436:7459   */\n      mload\n        /* \"#utility.yul\":7472:7535   */\n      tag_484\n        /* \"#utility.yul\":7529:7533   */\n      0x00\n        /* \"#utility.yul\":7524:7527   */\n      dup7\n        /* \"#utility.yul\":7520:7534   */\n      add\n        /* \"#utility.yul\":7506:7518   */\n      dup3\n        /* \"#utility.yul\":7472:7535   */\n      tag_353\n      jump\t// in\n    tag_484:\n        /* \"#utility.yul\":7378:7545   */\n      pop\n        /* \"#utility.yul\":7631:7635   */\n      0x20\n        /* \"#utility.yul\":7624:7629   */\n      dup4\n        /* \"#utility.yul\":7620:7636   */\n      add\n        /* \"#utility.yul\":7614:7637   */\n      mload\n        /* \"#utility.yul\":7684:7687   */\n      dup5\n        /* \"#utility.yul\":7678:7682   */\n      dup3\n        /* \"#utility.yul\":7674:7688   */\n      sub\n        /* \"#utility.yul\":7667:7671   */\n      0x20\n        /* \"#utility.yul\":7662:7665   */\n      dup7\n        /* \"#utility.yul\":7658:7672   */\n      add\n        /* \"#utility.yul\":7651:7689   */\n      mstore\n        /* \"#utility.yul\":7710:7821   */\n      tag_485\n        /* \"#utility.yul\":7816:7820   */\n      dup3\n        /* \"#utility.yul\":7802:7814   */\n      dup3\n        /* \"#utility.yul\":7710:7821   */\n      tag_356\n      jump\t// in\n    tag_485:\n        /* \"#utility.yul\":7702:7821   */\n      swap2\n      pop\n        /* \"#utility.yul\":7555:7832   */\n      pop\n        /* \"#utility.yul\":7849:7853   */\n      dup1\n        /* \"#utility.yul\":7842:7853   */\n      swap2\n      pop\n        /* \"#utility.yul\":7332:7859   */\n      pop\n        /* \"#utility.yul\":7192:7859   */\n      swap3\n      swap2\n      pop\n      pop\n      jump\t// out\n        /* \"#utility.yul\":7865:8173   */\n    tag_358:\n        /* \"#utility.yul\":8010:8020   */\n      0x00\n        /* \"#utility.yul\":8045:8167   */\n      tag_487\n        /* \"#utility.yul\":8163:8166   */\n      dup4\n        /* \"#utility.yul\":8155:8161   */\n      dup4\n        /* \"#utility.yul\":8045:8167   */\n      tag_357\n      jump\t// in\n    tag_487:\n        /* \"#utility.yul\":8031:8167   */\n      swap1\n      pop\n        /* \"#utility.yul\":7865:8173   */\n      swap3\n      swap2\n      pop\n      pop\n      jump\t// out\n        /* \"#utility.yul\":8179:8330   */\n    tag_359:\n        /* \"#utility.yul\":8287:8291   */\n      0x00\n        /* \"#utility.yul\":8319:8323   */\n      0x20\n        /* \"#utility.yul\":8314:8317   */\n      dup3\n        /* \"#utility.yul\":8310:8324   */\n      add\n        /* \"#utility.yul\":8302:8324   */\n      swap1\n      pop\n        /* \"#utility.yul\":8179:8330   */\n      swap2\n      swap1\n      pop\n      jump\t// out\n        /* \"#utility.yul\":8422:9637   */\n    tag_360:\n        /* \"#utility.yul\":8617:8620   */\n      0x00\n        /* \"#utility.yul\":8646:8738   */\n      tag_490\n        /* \"#utility.yul\":8732:8737   */\n      dup3\n        /* \"#utility.yul\":8646:8738   */\n      tag_350\n      jump\t// in\n    tag_490:\n        /* \"#utility.yul\":8754:8878   */\n      tag_491\n        /* \"#utility.yul\":8871:8877   */\n      dup2\n        /* \"#utility.yul\":8866:8869   */\n      dup6\n        /* \"#utility.yul\":8754:8878   */\n      tag_351\n      jump\t// in\n    tag_491:\n        /* \"#utility.yul\":8747:8878   */\n      swap4\n      pop\n        /* \"#utility.yul\":8904:8907   */\n      dup4\n        /* \"#utility.yul\":8949:8953   */\n      0x20\n        /* \"#utility.yul\":8941:8947   */\n      dup3\n        /* \"#utility.yul\":8937:8954   */\n      mul\n        /* \"#utility.yul\":8932:8935   */\n      dup6\n        /* \"#utility.yul\":8928:8955   */\n      add\n        /* \"#utility.yul\":8979:9073   */\n      tag_492\n        /* \"#utility.yul\":9067:9072   */\n      dup6\n        /* \"#utility.yul\":8979:9073   */\n      tag_352\n      jump\t// in\n    tag_492:\n        /* \"#utility.yul\":9096:9103   */\n      dup1\n        /* \"#utility.yul\":9127:9128   */\n      0x00\n        /* \"#utility.yul\":9112:9592   */\n    tag_493:\n        /* \"#utility.yul\":9137:9143   */\n      dup6\n        /* \"#utility.yul\":9134:9135   */\n      dup2\n        /* \"#utility.yul\":9131:9144   */\n      lt\n        /* \"#utility.yul\":9112:9592   */\n      iszero\n      tag_495\n      jumpi\n        /* \"#utility.yul\":9208:9217   */\n      dup5\n        /* \"#utility.yul\":9202:9206   */\n      dup5\n        /* \"#utility.yul\":9198:9218   */\n      sub\n        /* \"#utility.yul\":9193:9196   */\n      dup10\n        /* \"#utility.yul\":9186:9219   */\n      mstore\n        /* \"#utility.yul\":9259:9265   */\n      dup2\n        /* \"#utility.yul\":9253:9266   */\n      mload\n        /* \"#utility.yul\":9287:9427   */\n      tag_496\n        /* \"#utility.yul\":9422:9426   */\n      dup6\n        /* \"#utility.yul\":9407:9420   */\n      dup3\n        /* \"#utility.yul\":9287:9427   */\n      tag_358\n      jump\t// in\n    tag_496:\n        /* \"#utility.yul\":9279:9427   */\n      swap5\n      pop\n        /* \"#utility.yul\":9450:9548   */\n      tag_497\n        /* \"#utility.yul\":9541:9547   */\n      dup4\n        /* \"#utility.yul\":9450:9548   */\n      tag_359\n      jump\t// in\n    tag_497:\n        /* \"#utility.yul\":9440:9548   */\n      swap3\n      pop\n        /* \"#utility.yul\":9577:9581   */\n      0x20\n        /* \"#utility.yul\":9572:9575   */\n      dup11\n        /* \"#utility.yul\":9568:9582   */\n      add\n        /* \"#utility.yul\":9561:9582   */\n      swap10\n      pop\n        /* \"#utility.yul\":9172:9592   */\n      pop\n        /* \"#utility.yul\":9159:9160   */\n      0x01\n        /* \"#utility.yul\":9156:9157   */\n      dup2\n        /* \"#utility.yul\":9152:9161   */\n      add\n        /* \"#utility.yul\":9147:9161   */\n      swap1\n      pop\n        /* \"#utility.yul\":9112:9592   */\n      jump(tag_493)\n    tag_495:\n        /* \"#utility.yul\":9116:9130   */\n      pop\n        /* \"#utility.yul\":9608:9612   */\n      dup3\n        /* \"#utility.yul\":9601:9612   */\n      swap8\n      pop\n        /* \"#utility.yul\":9628:9631   */\n      dup8\n        /* \"#utility.yul\":9621:9631   */\n      swap6\n      pop\n        /* \"#utility.yul\":8622:9637   */\n      pop\n      pop\n      pop\n      pop\n      pop\n        /* \"#utility.yul\":8422:9637   */\n      swap3\n      swap2\n      pop\n      pop\n      jump\t// out\n        /* \"#utility.yul\":9643:10168   */\n    tag_51:\n        /* \"#utility.yul\":9862:9866   */\n      0x00\n        /* \"#utility.yul\":9900:9902   */\n      0x20\n        /* \"#utility.yul\":9889:9898   */\n      dup3\n        /* \"#utility.yul\":9885:9903   */\n      add\n        /* \"#utility.yul\":9877:9903   */\n      swap1\n      pop\n        /* \"#utility.yul\":9949:9958   */\n      dup2\n        /* \"#utility.yul\":9943:9947   */\n      dup2\n        /* \"#utility.yul\":9939:9959   */\n      sub\n        /* \"#utility.yul\":9935:9936   */\n      0x00\n        /* \"#utility.yul\":9924:9933   */\n      dup4\n        /* \"#utility.yul\":9920:9937   */\n      add\n        /* \"#utility.yul\":9913:9960   */\n      mstore\n        /* \"#utility.yul\":9977:10161   */\n      tag_499\n        /* \"#utility.yul\":10156:10160   */\n      dup2\n        /* \"#utility.yul\":10147:10153   */\n      dup5\n        /* \"#utility.yul\":9977:10161   */\n      tag_360\n      jump\t// in\n    tag_499:\n        /* \"#utility.yul\":9969:10161   */\n      swap1\n      pop\n        /* \"#utility.yul\":9643:10168   */\n      swap3\n      swap2\n      pop\n      pop\n      jump\t// out\n        /* \"#utility.yul\":10174:10793   */\n    tag_54:\n        /* \"#utility.yul\":10251:10257   */\n      0x00\n        /* \"#utility.yul\":10259:10265   */\n      dup1\n        /* \"#utility.yul\":10267:10273   */\n      0x00\n        /* \"#utility.yul\":10316:10318   */\n      0x60\n        /* \"#utility.yul\":10304:10313   */\n      dup5\n        /* \"#utility.yul\":10295:10302   */\n      dup7\n        /* \"#utility.yul\":10291:10314   */\n      sub\n        /* \"#utility.yul\":10287:10319   */\n      slt\n        /* \"#utility.yul\":10284:10403   */\n      iszero\n      tag_501\n      jumpi\n        /* \"#utility.yul\":10322:10401   */\n      tag_502\n      tag_330\n      jump\t// in\n    tag_502:\n        /* \"#utility.yul\":10284:10403   */\n    tag_501:\n        /* \"#utility.yul\":10442:10443   */\n      0x00\n        /* \"#utility.yul\":10467:10520   */\n      tag_503\n        /* \"#utility.yul\":10512:10519   */\n      dup7\n        /* \"#utility.yul\":10503:10509   */\n      dup3\n        /* \"#utility.yul\":10492:10501   */\n      dup8\n        /* \"#utility.yul\":10488:10510   */\n      add\n        /* \"#utility.yul\":10467:10520   */\n      tag_349\n      jump\t// in\n    tag_503:\n        /* \"#utility.yul\":10457:10520   */\n      swap4\n      pop\n        /* \"#utility.yul\":10413:10530   */\n      pop\n        /* \"#utility.yul\":10569:10571   */\n      0x20\n        /* \"#utility.yul\":10595:10648   */\n      tag_504\n        /* \"#utility.yul\":10640:10647   */\n      dup7\n        /* \"#utility.yul\":10631:10637   */\n      dup3\n        /* \"#utility.yul\":10620:10629   */\n      dup8\n        /* \"#utility.yul\":10616:10638   */\n      add\n        /* \"#utility.yul\":10595:10648   */\n      tag_349\n      jump\t// in\n    tag_504:\n        /* \"#utility.yul\":10585:10648   */\n      swap3\n      pop\n        /* \"#utility.yul\":10540:10658   */\n      pop\n        /* \"#utility.yul\":10697:10699   */\n      0x40\n        /* \"#utility.yul\":10723:10776   */\n      tag_505\n        /* \"#utility.yul\":10768:10775   */\n      dup7\n        /* \"#utility.yul\":10759:10765   */\n      dup3\n        /* \"#utility.yul\":10748:10757   */\n      dup8\n        /* \"#utility.yul\":10744:10766   */\n      add\n        /* \"#utility.yul\":10723:10776   */\n      tag_344\n      jump\t// in\n    tag_505:\n        /* \"#utility.yul\":10713:10776   */\n      swap2\n      pop\n        /* \"#utility.yul\":10668:10786   */\n      pop\n        /* \"#utility.yul\":10174:10793   */\n      swap3\n      pop\n      swap3\n      pop\n      swap3\n      jump\t// out\n        /* \"#utility.yul\":10799:10915   */\n    tag_361:\n        /* \"#utility.yul\":10869:10890   */\n      tag_507\n        /* \"#utility.yul\":10884:10889   */\n      dup2\n        /* \"#utility.yul\":10869:10890   */\n      tag_335\n      jump\t// in\n    tag_507:\n        /* \"#utility.yul\":10862:10867   */\n      dup2\n        /* \"#utility.yul\":10859:10891   */\n      eq\n        /* \"#utility.yul\":10849:10909   */\n      tag_508\n      jumpi\n        /* \"#utility.yul\":10905:10906   */\n      0x00\n        /* \"#utility.yul\":10902:10903   */\n      dup1\n        /* \"#utility.yul\":10895:10907   */\n      revert\n        /* \"#utility.yul\":10849:10909   */\n    tag_508:\n        /* \"#utility.yul\":10799:10915   */\n      pop\n      jump\t// out\n        /* \"#utility.yul\":10921:11054   */\n    tag_362:\n        /* \"#utility.yul\":10964:10969   */\n      0x00\n        /* \"#utility.yul\":11002:11008   */\n      dup2\n        /* \"#utility.yul\":10989:11009   */\n      calldataload\n        /* \"#utility.yul\":10980:11009   */\n      swap1\n      pop\n        /* \"#utility.yul\":11018:11048   */\n      tag_510\n        /* \"#utility.yul\":11042:11047   */\n      dup2\n        /* \"#utility.yul\":11018:11048   */\n      tag_361\n      jump\t// in\n    tag_510:\n        /* \"#utility.yul\":10921:11054   */\n      swap3\n      swap2\n      pop\n      pop\n      jump\t// out\n        /* \"#utility.yul\":11060:11673   */\n    tag_58:\n        /* \"#utility.yul\":11134:11140   */\n      0x00\n        /* \"#utility.yul\":11142:11148   */\n      dup1\n        /* \"#utility.yul\":11150:11156   */\n      0x00\n        /* \"#utility.yul\":11199:11201   */\n      0x60\n        /* \"#utility.yul\":11187:11196   */\n      dup5\n        /* \"#utility.yul\":11178:11185   */\n      dup7\n        /* \"#utility.yul\":11174:11197   */\n      sub\n        /* \"#utility.yul\":11170:11202   */\n      slt\n        /* \"#utility.yul\":11167:11286   */\n      iszero\n      tag_512\n      jumpi\n        /* \"#utility.yul\":11205:11284   */\n      tag_513\n      tag_330\n      jump\t// in\n    tag_513:\n        /* \"#utility.yul\":11167:11286   */\n    tag_512:\n        /* \"#utility.yul\":11325:11326   */\n      0x00\n        /* \"#utility.yul\":11350:11403   */\n      tag_514\n        /* \"#utility.yul\":11395:11402   */\n      dup7\n        /* \"#utility.yul\":11386:11392   */\n      dup3\n        /* \"#utility.yul\":11375:11384   */\n      dup8\n        /* \"#utility.yul\":11371:11393   */\n      add\n        /* \"#utility.yul\":11350:11403   */\n      tag_349\n      jump\t// in\n    tag_514:\n        /* \"#utility.yul\":11340:11403   */\n      swap4\n      pop\n        /* \"#utility.yul\":11296:11413   */\n      pop\n        /* \"#utility.yul\":11452:11454   */\n      0x20\n        /* \"#utility.yul\":11478:11531   */\n      tag_515\n        /* \"#utility.yul\":11523:11530   */\n      dup7\n        /* \"#utility.yul\":11514:11520   */\n      dup3\n        /* \"#utility.yul\":11503:11512   */\n      dup8\n        /* \"#utility.yul\":11499:11521   */\n      add\n        /* \"#utility.yul\":11478:11531   */\n      tag_349\n      jump\t// in\n    tag_515:\n        /* \"#utility.yul\":11468:11531   */\n      swap3\n      pop\n        /* \"#utility.yul\":11423:11541   */\n      pop\n        /* \"#utility.yul\":11580:11582   */\n      0x40\n        /* \"#utility.yul\":11606:11656   */\n      tag_516\n        /* \"#utility.yul\":11648:11655   */\n      dup7\n        /* \"#utility.yul\":11639:11645   */\n      dup3\n        /* \"#utility.yul\":11628:11637   */\n      dup8\n        /* \"#utility.yul\":11624:11646   */\n      add\n        /* \"#utility.yul\":11606:11656   */\n      tag_362\n      jump\t// in\n    tag_516:\n        /* \"#utility.yul\":11596:11656   */\n      swap2\n      pop\n        /* \"#utility.yul\":11551:11666   */\n      pop\n        /* \"#utility.yul\":11060:11673   */\n      swap3\n      pop\n      swap3\n      pop\n      swap3\n      jump\t// out\n        /* \"#utility.yul\":11679:11803   */\n    tag_363:\n        /* \"#utility.yul\":11756:11762   */\n      0x00\n        /* \"#utility.yul\":11790:11795   */\n      dup2\n        /* \"#utility.yul\":11784:11796   */\n      mload\n        /* \"#utility.yul\":11774:11796   */\n      swap1\n      pop\n        /* \"#utility.yul\":11679:11803   */\n      swap2\n      swap1\n      pop\n      jump\t// out\n        /* \"#utility.yul\":11809:12003   */\n    tag_364:\n        /* \"#utility.yul\":11918:11929   */\n      0x00\n        /* \"#utility.yul\":11952:11958   */\n      dup3\n        /* \"#utility.yul\":11947:11950   */\n      dup3\n        /* \"#utility.yul\":11940:11959   */\n      mstore\n        /* \"#utility.yul\":11992:11996   */\n      0x20\n        /* \"#utility.yul\":11987:11990   */\n      dup3\n        /* \"#utility.yul\":11983:11997   */\n      add\n        /* \"#utility.yul\":11968:11997   */\n      swap1\n      pop\n        /* \"#utility.yul\":11809:12003   */\n      swap3\n      swap2\n      pop\n      pop\n      jump\t// out\n        /* \"#utility.yul\":12009:12151   */\n    tag_365:\n        /* \"#utility.yul\":12086:12090   */\n      0x00\n        /* \"#utility.yul\":12109:12112   */\n      dup2\n        /* \"#utility.yul\":12101:12112   */\n      swap1\n      pop\n        /* \"#utility.yul\":12139:12143   */\n      0x20\n        /* \"#utility.yul\":12134:12137   */\n      dup3\n        /* \"#utility.yul\":12130:12144   */\n      add\n        /* \"#utility.yul\":12122:12144   */\n      swap1\n      pop\n        /* \"#utility.yul\":12009:12151   */\n      swap2\n      swap1\n      pop\n      jump\t// out\n        /* \"#utility.yul\":12157:12353   */\n    tag_366:\n        /* \"#utility.yul\":12246:12256   */\n      0x00\n        /* \"#utility.yul\":12281:12347   */\n      tag_521\n        /* \"#utility.yul\":12343:12346   */\n      dup4\n        /* \"#utility.yul\":12335:12341   */\n      dup4\n        /* \"#utility.yul\":12281:12347   */\n      tag_355\n      jump\t// in\n    tag_521:\n        /* \"#utility.yul\":12267:12347   */\n      swap1\n      pop\n        /* \"#utility.yul\":12157:12353   */\n      swap3\n      swap2\n      pop\n      pop\n      jump\t// out\n        /* \"#utility.yul\":12359:12482   */\n    tag_367:\n        /* \"#utility.yul\":12439:12443   */\n      0x00\n        /* \"#utility.yul\":12471:12475   */\n      0x20\n        /* \"#utility.yul\":12466:12469   */\n      dup3\n        /* \"#utility.yul\":12462:12476   */\n      add\n        /* \"#utility.yul\":12454:12476   */\n      swap1\n      pop\n        /* \"#utility.yul\":12359:12482   */\n      swap2\n      swap1\n      pop\n      jump\t// out\n        /* \"#utility.yul\":12516:13507   */\n    tag_368:\n        /* \"#utility.yul\":12655:12658   */\n      0x00\n        /* \"#utility.yul\":12684:12748   */\n      tag_524\n        /* \"#utility.yul\":12742:12747   */\n      dup3\n        /* \"#utility.yul\":12684:12748   */\n      tag_363\n      jump\t// in\n    tag_524:\n        /* \"#utility.yul\":12764:12860   */\n      tag_525\n        /* \"#utility.yul\":12853:12859   */\n      dup2\n        /* \"#utility.yul\":12848:12851   */\n      dup6\n        /* \"#utility.yul\":12764:12860   */\n      tag_364\n      jump\t// in\n    tag_525:\n        /* \"#utility.yul\":12757:12860   */\n      swap4\n      pop\n        /* \"#utility.yul\":12886:12889   */\n      dup4\n        /* \"#utility.yul\":12931:12935   */\n      0x20\n        /* \"#utility.yul\":12923:12929   */\n      dup3\n        /* \"#utility.yul\":12919:12936   */\n      mul\n        /* \"#utility.yul\":12914:12917   */\n      dup6\n        /* \"#utility.yul\":12910:12937   */\n      add\n        /* \"#utility.yul\":12961:13027   */\n      tag_526\n        /* \"#utility.yul\":13021:13026   */\n      dup6\n        /* \"#utility.yul\":12961:13027   */\n      tag_365\n      jump\t// in\n    tag_526:\n        /* \"#utility.yul\":13050:13057   */\n      dup1\n        /* \"#utility.yul\":13081:13082   */\n      0x00\n        /* \"#utility.yul\":13066:13462   */\n    tag_527:\n        /* \"#utility.yul\":13091:13097   */\n      dup6\n        /* \"#utility.yul\":13088:13089   */\n      dup2\n        /* \"#utility.yul\":13085:13098   */\n      lt\n        /* \"#utility.yul\":13066:13462   */\n      iszero\n      tag_529\n      jumpi\n        /* \"#utility.yul\":13162:13171   */\n      dup5\n        /* \"#utility.yul\":13156:13160   */\n      dup5\n        /* \"#utility.yul\":13152:13172   */\n      sub\n        /* \"#utility.yul\":13147:13150   */\n      dup10\n        /* \"#utility.yul\":13140:13173   */\n      mstore\n        /* \"#utility.yul\":13213:13219   */\n      dup2\n        /* \"#utility.yul\":13207:13220   */\n      mload\n        /* \"#utility.yul\":13241:13325   */\n      tag_530\n        /* \"#utility.yul\":13320:13324   */\n      dup6\n        /* \"#utility.yul\":13305:13318   */\n      dup3\n        /* \"#utility.yul\":13241:13325   */\n      tag_366\n      jump\t// in\n    tag_530:\n        /* \"#utility.yul\":13233:13325   */\n      swap5\n      pop\n        /* \"#utility.yul\":13348:13418   */\n      tag_531\n        /* \"#utility.yul\":13411:13417   */\n      dup4\n        /* \"#utility.yul\":13348:13418   */\n      tag_367\n      jump\t// in\n    tag_531:\n        /* \"#utility.yul\":13338:13418   */\n      swap3\n      pop\n        /* \"#utility.yul\":13447:13451   */\n      0x20\n        /* \"#utility.yul\":13442:13445   */\n      dup11\n        /* \"#utility.yul\":13438:13452   */\n      add\n        /* \"#utility.yul\":13431:13452   */\n      swap10\n      pop\n        /* \"#utility.yul\":13126:13462   */\n      pop\n        /* \"#utility.yul\":13113:13114   */\n      0x01\n        /* \"#utility.yul\":13110:13111   */\n      dup2\n        /* \"#utility.yul\":13106:13115   */\n      add\n        /* \"#utility.yul\":13101:13115   */\n      swap1\n      pop\n        /* \"#utility.yul\":13066:13462   */\n      jump(tag_527)\n    tag_529:\n        /* \"#utility.yul\":13070:13084   */\n      pop\n        /* \"#utility.yul\":13478:13482   */\n      dup3\n        /* \"#utility.yul\":13471:13482   */\n      swap8\n      pop\n        /* \"#utility.yul\":13498:13501   */\n      dup8\n        /* \"#utility.yul\":13491:13501   */\n      swap6\n      pop\n        /* \"#utility.yul\":12660:13507   */\n      pop\n      pop\n      pop\n      pop\n      pop\n        /* \"#utility.yul\":12516:13507   */\n      swap3\n      swap2\n      pop\n      pop\n      jump\t// out\n        /* \"#utility.yul\":13513:13926   */\n    tag_71:\n        /* \"#utility.yul\":13676:13680   */\n      0x00\n        /* \"#utility.yul\":13714:13716   */\n      0x20\n        /* \"#utility.yul\":13703:13712   */\n      dup3\n        /* \"#utility.yul\":13699:13717   */\n      add\n        /* \"#utility.yul\":13691:13717   */\n      swap1\n      pop\n        /* \"#utility.yul\":13763:13772   */\n      dup2\n        /* \"#utility.yul\":13757:13761   */\n      dup2\n        /* \"#utility.yul\":13753:13773   */\n      sub\n        /* \"#utility.yul\":13749:13750   */\n      0x00\n        /* \"#utility.yul\":13738:13747   */\n      dup4\n        /* \"#utility.yul\":13734:13751   */\n      add\n        /* \"#utility.yul\":13727:13774   */\n      mstore\n        /* \"#utility.yul\":13791:13919   */\n      tag_533\n        /* \"#utility.yul\":13914:13918   */\n      dup2\n        /* \"#utility.yul\":13905:13911   */\n      dup5\n        /* \"#utility.yul\":13791:13919   */\n      tag_368\n      jump\t// in\n    tag_533:\n        /* \"#utility.yul\":13783:13919   */\n      swap1\n      pop\n        /* \"#utility.yul\":13513:13926   */\n      swap3\n      swap2\n      pop\n      pop\n      jump\t// out\n        /* \"#utility.yul\":13932:14050   */\n    tag_369:\n        /* \"#utility.yul\":14019:14043   */\n      tag_535\n        /* \"#utility.yul\":14037:14042   */\n      dup2\n        /* \"#utility.yul\":14019:14043   */\n      tag_342\n      jump\t// in\n    tag_535:\n        /* \"#utility.yul\":14014:14017   */\n      dup3\n        /* \"#utility.yul\":14007:14044   */\n      mstore\n        /* \"#utility.yul\":13932:14050   */\n      pop\n      pop\n      jump\t// out\n        /* \"#utility.yul\":14056:14278   */\n    tag_80:\n        /* \"#utility.yul\":14149:14153   */\n      0x00\n        /* \"#utility.yul\":14187:14189   */\n      0x20\n        /* \"#utility.yul\":14176:14185   */\n      dup3\n        /* \"#utility.yul\":14172:14190   */\n      add\n        /* \"#utility.yul\":14164:14190   */\n      swap1\n      pop\n        /* \"#utility.yul\":14200:14271   */\n      tag_537\n        /* \"#utility.yul\":14268:14269   */\n      0x00\n        /* \"#utility.yul\":14257:14266   */\n      dup4\n        /* \"#utility.yul\":14253:14270   */\n      add\n        /* \"#utility.yul\":14244:14250   */\n      dup5\n        /* \"#utility.yul\":14200:14271   */\n      tag_369\n      jump\t// in\n    tag_537:\n        /* \"#utility.yul\":14056:14278   */\n      swap3\n      swap2\n      pop\n      pop\n      jump\t// out\n        /* \"#utility.yul\":14284:14401   */\n    tag_370:\n        /* \"#utility.yul\":14393:14394   */\n      0x00\n        /* \"#utility.yul\":14390:14391   */\n      dup1\n        /* \"#utility.yul\":14383:14395   */\n      revert\n        /* \"#utility.yul\":14407:14524   */\n    tag_371:\n        /* \"#utility.yul\":14516:14517   */\n      0x00\n        /* \"#utility.yul\":14513:14514   */\n      dup1\n        /* \"#utility.yul\":14506:14518   */\n      revert\n        /* \"#utility.yul\":14530:14710   */\n    tag_142:\n        /* \"#utility.yul\":14578:14655   */\n      0x4e487b7100000000000000000000000000000000000000000000000000000000\n        /* \"#utility.yul\":14575:14576   */\n      0x00\n        /* \"#utility.yul\":14568:14656   */\n      mstore\n        /* \"#utility.yul\":14675:14679   */\n      0x41\n        /* \"#utility.yul\":14672:14673   */\n      0x04\n        /* \"#utility.yul\":14665:14680   */\n      mstore\n        /* \"#utility.yul\":14699:14703   */\n      0x24\n        /* \"#utility.yul\":14696:14697   */\n      0x00\n        /* \"#utility.yul\":14689:14704   */\n      revert\n        /* \"#utility.yul\":14716:14997   */\n    tag_372:\n        /* \"#utility.yul\":14799:14826   */\n      tag_542\n        /* \"#utility.yul\":14821:14825   */\n      dup3\n        /* \"#utility.yul\":14799:14826   */\n      tag_340\n      jump\t// in\n    tag_542:\n        /* \"#utility.yul\":14791:14797   */\n      dup2\n        /* \"#utility.yul\":14787:14827   */\n      add\n        /* \"#utility.yul\":14929:14935   */\n      dup2\n        /* \"#utility.yul\":14917:14927   */\n      dup2\n        /* \"#utility.yul\":14914:14936   */\n      lt\n        /* \"#utility.yul\":14893:14911   */\n      0xffffffffffffffff\n        /* \"#utility.yul\":14881:14891   */\n      dup3\n        /* \"#utility.yul\":14878:14912   */\n      gt\n        /* \"#utility.yul\":14875:14937   */\n      or\n        /* \"#utility.yul\":14872:14960   */\n      iszero\n      tag_543\n      jumpi\n        /* \"#utility.yul\":14940:14958   */\n      tag_544\n      tag_142\n      jump\t// in\n    tag_544:\n        /* \"#utility.yul\":14872:14960   */\n    tag_543:\n        /* \"#utility.yul\":14980:14990   */\n      dup1\n        /* \"#utility.yul\":14976:14978   */\n      0x40\n        /* \"#utility.yul\":14969:14991   */\n      mstore\n        /* \"#utility.yul\":14759:14997   */\n      pop\n        /* \"#utility.yul\":14716:14997   */\n      pop\n      pop\n      jump\t// out\n        /* \"#utility.yul\":15003:15132   */\n    tag_373:\n        /* \"#utility.yul\":15037:15043   */\n      0x00\n        /* \"#utility.yul\":15064:15084   */\n      tag_546\n      tag_329\n      jump\t// in\n    tag_546:\n        /* \"#utility.yul\":15054:15084   */\n      swap1\n      pop\n        /* \"#utility.yul\":15093:15126   */\n      tag_547\n        /* \"#utility.yul\":15121:15125   */\n      dup3\n        /* \"#utility.yul\":15113:15119   */\n      dup3\n        /* \"#utility.yul\":15093:15126   */\n      tag_372\n      jump\t// in\n    tag_547:\n        /* \"#utility.yul\":15003:15132   */\n      swap2\n      swap1\n      pop\n      jump\t// out\n        /* \"#utility.yul\":15138:15446   */\n    tag_374:\n        /* \"#utility.yul\":15200:15204   */\n      0x00\n        /* \"#utility.yul\":15290:15308   */\n      0xffffffffffffffff\n        /* \"#utility.yul\":15282:15288   */\n      dup3\n        /* \"#utility.yul\":15279:15309   */\n      gt\n        /* \"#utility.yul\":15276:15332   */\n      iszero\n      tag_549\n      jumpi\n        /* \"#utility.yul\":15312:15330   */\n      tag_550\n      tag_142\n      jump\t// in\n    tag_550:\n        /* \"#utility.yul\":15276:15332   */\n    tag_549:\n        /* \"#utility.yul\":15350:15379   */\n      tag_551\n        /* \"#utility.yul\":15372:15378   */\n      dup3\n        /* \"#utility.yul\":15350:15379   */\n      tag_340\n      jump\t// in\n    tag_551:\n        /* \"#utility.yul\":15342:15379   */\n      swap1\n      pop\n        /* \"#utility.yul\":15434:15438   */\n      0x20\n        /* \"#utility.yul\":15428:15432   */\n      dup2\n        /* \"#utility.yul\":15424:15439   */\n      add\n        /* \"#utility.yul\":15416:15439   */\n      swap1\n      pop\n        /* \"#utility.yul\":15138:15446   */\n      swap2\n      swap1\n      pop\n      jump\t// out\n        /* \"#utility.yul\":15452:15598   */\n    tag_375:\n        /* \"#utility.yul\":15549:15555   */\n      dup3\n        /* \"#utility.yul\":15544:15547   */\n      dup2\n        /* \"#utility.yul\":15539:15542   */\n      dup4\n        /* \"#utility.yul\":15526:15556   */\n      calldatacopy\n        /* \"#utility.yul\":15590:15591   */\n      0x00\n        /* \"#utility.yul\":15581:15587   */\n      dup4\n        /* \"#utility.yul\":15576:15579   */\n      dup4\n        /* \"#utility.yul\":15572:15588   */\n      add\n        /* \"#utility.yul\":15565:15592   */\n      mstore\n        /* \"#utility.yul\":15452:15598   */\n      pop\n      pop\n      pop\n      jump\t// out\n        /* \"#utility.yul\":15604:16029   */\n    tag_376:\n        /* \"#utility.yul\":15682:15687   */\n      0x00\n        /* \"#utility.yul\":15707:15773   */\n      tag_554\n        /* \"#utility.yul\":15723:15772   */\n      tag_555\n        /* \"#utility.yul\":15765:15771   */\n      dup5\n        /* \"#utility.yul\":15723:15772   */\n      tag_374\n      jump\t// in\n    tag_555:\n        /* \"#utility.yul\":15707:15773   */\n      tag_373\n      jump\t// in\n    tag_554:\n        /* \"#utility.yul\":15698:15773   */\n      swap1\n      pop\n        /* \"#utility.yul\":15796:15802   */\n      dup3\n        /* \"#utility.yul\":15789:15794   */\n      dup2\n        /* \"#utility.yul\":15782:15803   */\n      mstore\n        /* \"#utility.yul\":15834:15838   */\n      0x20\n        /* \"#utility.yul\":15827:15832   */\n      dup2\n        /* \"#utility.yul\":15823:15839   */\n      add\n        /* \"#utility.yul\":15872:15875   */\n      dup5\n        /* \"#utility.yul\":15863:15869   */\n      dup5\n        /* \"#utility.yul\":15858:15861   */\n      dup5\n        /* \"#utility.yul\":15854:15870   */\n      add\n        /* \"#utility.yul\":15851:15876   */\n      gt\n        /* \"#utility.yul\":15848:15960   */\n      iszero\n      tag_556\n      jumpi\n        /* \"#utility.yul\":15879:15958   */\n      tag_557\n      tag_371\n      jump\t// in\n    tag_557:\n        /* \"#utility.yul\":15848:15960   */\n    tag_556:\n        /* \"#utility.yul\":15969:16023   */\n      tag_558\n        /* \"#utility.yul\":16016:16022   */\n      dup5\n        /* \"#utility.yul\":16011:16014   */\n      dup3\n        /* \"#utility.yul\":16006:16009   */\n      dup6\n        /* \"#utility.yul\":15969:16023   */\n      tag_375\n      jump\t// in\n    tag_558:\n        /* \"#utility.yul\":15688:16029   */\n      pop\n        /* \"#utility.yul\":15604:16029   */\n      swap4\n      swap3\n      pop\n      pop\n      pop\n      jump\t// out\n        /* \"#utility.yul\":16049:16389   */\n    tag_377:\n        /* \"#utility.yul\":16105:16110   */\n      0x00\n        /* \"#utility.yul\":16154:16157   */\n      dup3\n        /* \"#utility.yul\":16147:16151   */\n      0x1f\n        /* \"#utility.yul\":16139:16145   */\n      dup4\n        /* \"#utility.yul\":16135:16152   */\n      add\n        /* \"#utility.yul\":16131:16158   */\n      slt\n        /* \"#utility.yul\":16121:16243   */\n      tag_560\n      jumpi\n        /* \"#utility.yul\":16162:16241   */\n      tag_561\n      tag_370\n      jump\t// in\n    tag_561:\n        /* \"#utility.yul\":16121:16243   */\n    tag_560:\n        /* \"#utility.yul\":16279:16285   */\n      dup2\n        /* \"#utility.yul\":16266:16286   */\n      calldataload\n        /* \"#utility.yul\":16304:16383   */\n      tag_562\n        /* \"#utility.yul\":16379:16382   */\n      dup5\n        /* \"#utility.yul\":16371:16377   */\n      dup3\n        /* \"#utility.yul\":16364:16368   */\n      0x20\n        /* \"#utility.yul\":16356:16362   */\n      dup7\n        /* \"#utility.yul\":16352:16369   */\n      add\n        /* \"#utility.yul\":16304:16383   */\n      tag_376\n      jump\t// in\n    tag_562:\n        /* \"#utility.yul\":16295:16383   */\n      swap2\n      pop\n        /* \"#utility.yul\":16111:16389   */\n      pop\n        /* \"#utility.yul\":16049:16389   */\n      swap3\n      swap2\n      pop\n      pop\n      jump\t// out\n        /* \"#utility.yul\":16395:16904   */\n    tag_83:\n        /* \"#utility.yul\":16464:16470   */\n      0x00\n        /* \"#utility.yul\":16513:16515   */\n      0x20\n        /* \"#utility.yul\":16501:16510   */\n      dup3\n        /* \"#utility.yul\":16492:16499   */\n      dup5\n        /* \"#utility.yul\":16488:16511   */\n      sub\n        /* \"#utility.yul\":16484:16516   */\n      slt\n        /* \"#utility.yul\":16481:16600   */\n      iszero\n      tag_564\n      jumpi\n        /* \"#utility.yul\":16519:16598   */\n      tag_565\n      tag_330\n      jump\t// in\n    tag_565:\n        /* \"#utility.yul\":16481:16600   */\n    tag_564:\n        /* \"#utility.yul\":16667:16668   */\n      0x00\n        /* \"#utility.yul\":16656:16665   */\n      dup3\n        /* \"#utility.yul\":16652:16669   */\n      add\n        /* \"#utility.yul\":16639:16670   */\n      calldataload\n        /* \"#utility.yul\":16697:16715   */\n      0xffffffffffffffff\n        /* \"#utility.yul\":16689:16695   */\n      dup2\n        /* \"#utility.yul\":16686:16716   */\n      gt\n        /* \"#utility.yul\":16683:16800   */\n      iszero\n      tag_566\n      jumpi\n        /* \"#utility.yul\":16719:16798   */\n      tag_567\n      tag_331\n      jump\t// in\n    tag_567:\n        /* \"#utility.yul\":16683:16800   */\n    tag_566:\n        /* \"#utility.yul\":16824:16887   */\n      tag_568\n        /* \"#utility.yul\":16879:16886   */\n      dup5\n        /* \"#utility.yul\":16870:16876   */\n      dup3\n        /* \"#utility.yul\":16859:16868   */\n      dup6\n        /* \"#utility.yul\":16855:16877   */\n      add\n        /* \"#utility.yul\":16824:16887   */\n      tag_377\n      jump\t// in\n    tag_568:\n        /* \"#utility.yul\":16814:16887   */\n      swap2\n      pop\n        /* \"#utility.yul\":16610:16897   */\n      pop\n        /* \"#utility.yul\":16395:16904   */\n      swap3\n      swap2\n      pop\n      pop\n      jump\t// out\n        /* \"#utility.yul\":16910:17744   */\n    tag_88:\n        /* \"#utility.yul\":16998:17004   */\n      0x00\n        /* \"#utility.yul\":17006:17012   */\n      dup1\n        /* \"#utility.yul\":17055:17057   */\n      0x40\n        /* \"#utility.yul\":17043:17052   */\n      dup4\n        /* \"#utility.yul\":17034:17041   */\n      dup6\n        /* \"#utility.yul\":17030:17053   */\n      sub\n        /* \"#utility.yul\":17026:17058   */\n      slt\n        /* \"#utility.yul\":17023:17142   */\n      iszero\n      tag_570\n      jumpi\n        /* \"#utility.yul\":17061:17140   */\n      tag_571\n      tag_330\n      jump\t// in\n    tag_571:\n        /* \"#utility.yul\":17023:17142   */\n    tag_570:\n        /* \"#utility.yul\":17209:17210   */\n      0x00\n        /* \"#utility.yul\":17198:17207   */\n      dup4\n        /* \"#utility.yul\":17194:17211   */\n      add\n        /* \"#utility.yul\":17181:17212   */\n      calldataload\n        /* \"#utility.yul\":17239:17257   */\n      0xffffffffffffffff\n        /* \"#utility.yul\":17231:17237   */\n      dup2\n        /* \"#utility.yul\":17228:17258   */\n      gt\n        /* \"#utility.yul\":17225:17342   */\n      iszero\n      tag_572\n      jumpi\n        /* \"#utility.yul\":17261:17340   */\n      tag_573\n      tag_331\n      jump\t// in\n    tag_573:\n        /* \"#utility.yul\":17225:17342   */\n    tag_572:\n        /* \"#utility.yul\":17366:17429   */\n      tag_574\n        /* \"#utility.yul\":17421:17428   */\n      dup6\n        /* \"#utility.yul\":17412:17418   */\n      dup3\n        /* \"#utility.yul\":17401:17410   */\n      dup7\n        /* \"#utility.yul\":17397:17419   */\n      add\n        /* \"#utility.yul\":17366:17429   */\n      tag_377\n      jump\t// in\n    tag_574:\n        /* \"#utility.yul\":17356:17429   */\n      swap3\n      pop\n        /* \"#utility.yul\":17152:17439   */\n      pop\n        /* \"#utility.yul\":17506:17508   */\n      0x20\n        /* \"#utility.yul\":17495:17504   */\n      dup4\n        /* \"#utility.yul\":17491:17509   */\n      add\n        /* \"#utility.yul\":17478:17510   */\n      calldataload\n        /* \"#utility.yul\":17537:17555   */\n      0xffffffffffffffff\n        /* \"#utility.yul\":17529:17535   */\n      dup2\n        /* \"#utility.yul\":17526:17556   */\n      gt\n        /* \"#utility.yul\":17523:17640   */\n      iszero\n      tag_575\n      jumpi\n        /* \"#utility.yul\":17559:17638   */\n      tag_576\n      tag_331\n      jump\t// in\n    tag_576:\n        /* \"#utility.yul\":17523:17640   */\n    tag_575:\n        /* \"#utility.yul\":17664:17727   */\n      tag_577\n        /* \"#utility.yul\":17719:17726   */\n      dup6\n        /* \"#utility.yul\":17710:17716   */\n      dup3\n        /* \"#utility.yul\":17699:17708   */\n      dup7\n        /* \"#utility.yul\":17695:17717   */\n      add\n        /* \"#utility.yul\":17664:17727   */\n      tag_377\n      jump\t// in\n    tag_577:\n        /* \"#utility.yul\":17654:17727   */\n      swap2\n      pop\n        /* \"#utility.yul\":17449:17737   */\n      pop\n        /* \"#utility.yul\":16910:17744   */\n      swap3\n      pop\n      swap3\n      swap1\n      pop\n      jump\t// out\n        /* \"#utility.yul\":17750:18218   */\n    tag_96:\n        /* \"#utility.yul\":17815:17821   */\n      0x00\n        /* \"#utility.yul\":17823:17829   */\n      dup1\n        /* \"#utility.yul\":17872:17874   */\n      0x40\n        /* \"#utility.yul\":17860:17869   */\n      dup4\n        /* \"#utility.yul\":17851:17858   */\n      dup6\n        /* \"#utility.yul\":17847:17870   */\n      sub\n        /* \"#utility.yul\":17843:17875   */\n      slt\n        /* \"#utility.yul\":17840:17959   */\n      iszero\n      tag_579\n      jumpi\n        /* \"#utility.yul\":17878:17957   */\n      tag_580\n      tag_330\n      jump\t// in\n    tag_580:\n        /* \"#utility.yul\":17840:17959   */\n    tag_579:\n        /* \"#utility.yul\":17998:17999   */\n      0x00\n        /* \"#utility.yul\":18023:18076   */\n      tag_581\n        /* \"#utility.yul\":18068:18075   */\n      dup6\n        /* \"#utility.yul\":18059:18065   */\n      dup3\n        /* \"#utility.yul\":18048:18057   */\n      dup7\n        /* \"#utility.yul\":18044:18066   */\n      add\n        /* \"#utility.yul\":18023:18076   */\n      tag_349\n      jump\t// in\n    tag_581:\n        /* \"#utility.yul\":18013:18076   */\n      swap3\n      pop\n        /* \"#utility.yul\":17969:18086   */\n      pop\n        /* \"#utility.yul\":18125:18127   */\n      0x20\n        /* \"#utility.yul\":18151:18201   */\n      tag_582\n        /* \"#utility.yul\":18193:18200   */\n      dup6\n        /* \"#utility.yul\":18184:18190   */\n      dup3\n        /* \"#utility.yul\":18173:18182   */\n      dup7\n        /* \"#utility.yul\":18169:18191   */\n      add\n        /* \"#utility.yul\":18151:18201   */\n      tag_362\n      jump\t// in\n    tag_582:\n        /* \"#utility.yul\":18141:18201   */\n      swap2\n      pop\n        /* \"#utility.yul\":18096:18211   */\n      pop\n        /* \"#utility.yul\":17750:18218   */\n      swap3\n      pop\n      swap3\n      swap1\n      pop\n      jump\t// out\n        /* \"#utility.yul\":18224:18531   */\n    tag_378:\n        /* \"#utility.yul\":18285:18289   */\n      0x00\n        /* \"#utility.yul\":18375:18393   */\n      0xffffffffffffffff\n        /* \"#utility.yul\":18367:18373   */\n      dup3\n        /* \"#utility.yul\":18364:18394   */\n      gt\n        /* \"#utility.yul\":18361:18417   */\n      iszero\n      tag_584\n      jumpi\n        /* \"#utility.yul\":18397:18415   */\n      tag_585\n      tag_142\n      jump\t// in\n    tag_585:\n        /* \"#utility.yul\":18361:18417   */\n    tag_584:\n        /* \"#utility.yul\":18435:18464   */\n      tag_586\n        /* \"#utility.yul\":18457:18463   */\n      dup3\n        /* \"#utility.yul\":18435:18464   */\n      tag_340\n      jump\t// in\n    tag_586:\n        /* \"#utility.yul\":18427:18464   */\n      swap1\n      pop\n        /* \"#utility.yul\":18519:18523   */\n      0x20\n        /* \"#utility.yul\":18513:18517   */\n      dup2\n        /* \"#utility.yul\":18509:18524   */\n      add\n        /* \"#utility.yul\":18501:18524   */\n      swap1\n      pop\n        /* \"#utility.yul\":18224:18531   */\n      swap2\n      swap1\n      pop\n      jump\t// out\n        /* \"#utility.yul\":18537:18960   */\n    tag_379:\n        /* \"#utility.yul\":18614:18619   */\n      0x00\n        /* \"#utility.yul\":18639:18704   */\n      tag_588\n        /* \"#utility.yul\":18655:18703   */\n      tag_589\n        /* \"#utility.yul\":18696:18702   */\n      dup5\n        /* \"#utility.yul\":18655:18703   */\n      tag_378\n      jump\t// in\n    tag_589:\n        /* \"#utility.yul\":18639:18704   */\n      tag_373\n      jump\t// in\n    tag_588:\n        /* \"#utility.yul\":18630:18704   */\n      swap1\n      pop\n        /* \"#utility.yul\":18727:18733   */\n      dup3\n        /* \"#utility.yul\":18720:18725   */\n      dup2\n        /* \"#utility.yul\":18713:18734   */\n      mstore\n        /* \"#utility.yul\":18765:18769   */\n      0x20\n        /* \"#utility.yul\":18758:18763   */\n      dup2\n        /* \"#utility.yul\":18754:18770   */\n      add\n        /* \"#utility.yul\":18803:18806   */\n      dup5\n        /* \"#utility.yul\":18794:18800   */\n      dup5\n        /* \"#utility.yul\":18789:18792   */\n      dup5\n        /* \"#utility.yul\":18785:18801   */\n      add\n        /* \"#utility.yul\":18782:18807   */\n      gt\n        /* \"#utility.yul\":18779:18891   */\n      iszero\n      tag_590\n      jumpi\n        /* \"#utility.yul\":18810:18889   */\n      tag_591\n      tag_371\n      jump\t// in\n    tag_591:\n        /* \"#utility.yul\":18779:18891   */\n    tag_590:\n        /* \"#utility.yul\":18900:18954   */\n      tag_592\n        /* \"#utility.yul\":18947:18953   */\n      dup5\n        /* \"#utility.yul\":18942:18945   */\n      dup3\n        /* \"#utility.yul\":18937:18940   */\n      dup6\n        /* \"#utility.yul\":18900:18954   */\n      tag_375\n      jump\t// in\n    tag_592:\n        /* \"#utility.yul\":18620:18960   */\n      pop\n        /* \"#utility.yul\":18537:18960   */\n      swap4\n      swap3\n      pop\n      pop\n      pop\n      jump\t// out\n        /* \"#utility.yul\":18979:19317   */\n    tag_380:\n        /* \"#utility.yul\":19034:19039   */\n      0x00\n        /* \"#utility.yul\":19083:19086   */\n      dup3\n        /* \"#utility.yul\":19076:19080   */\n      0x1f\n        /* \"#utility.yul\":19068:19074   */\n      dup4\n        /* \"#utility.yul\":19064:19081   */\n      add\n        /* \"#utility.yul\":19060:19087   */\n      slt\n        /* \"#utility.yul\":19050:19172   */\n      tag_594\n      jumpi\n        /* \"#utility.yul\":19091:19170   */\n      tag_595\n      tag_370\n      jump\t// in\n    tag_595:\n        /* \"#utility.yul\":19050:19172   */\n    tag_594:\n        /* \"#utility.yul\":19208:19214   */\n      dup2\n        /* \"#utility.yul\":19195:19215   */\n      calldataload\n        /* \"#utility.yul\":19233:19311   */\n      tag_596\n        /* \"#utility.yul\":19307:19310   */\n      dup5\n        /* \"#utility.yul\":19299:19305   */\n      dup3\n        /* \"#utility.yul\":19292:19296   */\n      0x20\n        /* \"#utility.yul\":19284:19290   */\n      dup7\n        /* \"#utility.yul\":19280:19297   */\n      add\n        /* \"#utility.yul\":19233:19311   */\n      tag_379\n      jump\t// in\n    tag_596:\n        /* \"#utility.yul\":19224:19311   */\n      swap2\n      pop\n        /* \"#utility.yul\":19040:19317   */\n      pop\n        /* \"#utility.yul\":18979:19317   */\n      swap3\n      swap2\n      pop\n      pop\n      jump\t// out\n        /* \"#utility.yul\":19323:20266   */\n    tag_100:\n        /* \"#utility.yul\":19418:19424   */\n      0x00\n        /* \"#utility.yul\":19426:19432   */\n      dup1\n        /* \"#utility.yul\":19434:19440   */\n      0x00\n        /* \"#utility.yul\":19442:19448   */\n      dup1\n        /* \"#utility.yul\":19491:19494   */\n      0x80\n        /* \"#utility.yul\":19479:19488   */\n      dup6\n        /* \"#utility.yul\":19470:19477   */\n      dup8\n        /* \"#utility.yul\":19466:19489   */\n      sub\n        /* \"#utility.yul\":19462:19495   */\n      slt\n        /* \"#utility.yul\":19459:19579   */\n      iszero\n      tag_598\n      jumpi\n        /* \"#utility.yul\":19498:19577   */\n      tag_599\n      tag_330\n      jump\t// in\n    tag_599:\n        /* \"#utility.yul\":19459:19579   */\n    tag_598:\n        /* \"#utility.yul\":19618:19619   */\n      0x00\n        /* \"#utility.yul\":19643:19696   */\n      tag_600\n        /* \"#utility.yul\":19688:19695   */\n      dup8\n        /* \"#utility.yul\":19679:19685   */\n      dup3\n        /* \"#utility.yul\":19668:19677   */\n      dup9\n        /* \"#utility.yul\":19664:19686   */\n      add\n        /* \"#utility.yul\":19643:19696   */\n      tag_349\n      jump\t// in\n    tag_600:\n        /* \"#utility.yul\":19633:19696   */\n      swap5\n      pop\n        /* \"#utility.yul\":19589:19706   */\n      pop\n        /* \"#utility.yul\":19745:19747   */\n      0x20\n        /* \"#utility.yul\":19771:19824   */\n      tag_601\n        /* \"#utility.yul\":19816:19823   */\n      dup8\n        /* \"#utility.yul\":19807:19813   */\n      dup3\n        /* \"#utility.yul\":19796:19805   */\n      dup9\n        /* \"#utility.yul\":19792:19814   */\n      add\n        /* \"#utility.yul\":19771:19824   */\n      tag_349\n      jump\t// in\n    tag_601:\n        /* \"#utility.yul\":19761:19824   */\n      swap4\n      pop\n        /* \"#utility.yul\":19716:19834   */\n      pop\n        /* \"#utility.yul\":19873:19875   */\n      0x40\n        /* \"#utility.yul\":19899:19952   */\n      tag_602\n        /* \"#utility.yul\":19944:19951   */\n      dup8\n        /* \"#utility.yul\":19935:19941   */\n      dup3\n        /* \"#utility.yul\":19924:19933   */\n      dup9\n        /* \"#utility.yul\":19920:19942   */\n      add\n        /* \"#utility.yul\":19899:19952   */\n      tag_344\n      jump\t// in\n    tag_602:\n        /* \"#utility.yul\":19889:19952   */\n      swap3\n      pop\n        /* \"#utility.yul\":19844:19962   */\n      pop\n        /* \"#utility.yul\":20029:20031   */\n      0x60\n        /* \"#utility.yul\":20018:20027   */\n      dup6\n        /* \"#utility.yul\":20014:20032   */\n      add\n        /* \"#utility.yul\":20001:20033   */\n      calldataload\n        /* \"#utility.yul\":20060:20078   */\n      0xffffffffffffffff\n        /* \"#utility.yul\":20052:20058   */\n      dup2\n        /* \"#utility.yul\":20049:20079   */\n      gt\n        /* \"#utility.yul\":20046:20163   */\n      iszero\n      tag_603\n      jumpi\n        /* \"#utility.yul\":20082:20161   */\n      tag_604\n      tag_331\n      jump\t// in\n    tag_604:\n        /* \"#utility.yul\":20046:20163   */\n    tag_603:\n        /* \"#utility.yul\":20187:20249   */\n      tag_605\n        /* \"#utility.yul\":20241:20248   */\n      dup8\n        /* \"#utility.yul\":20232:20238   */\n      dup3\n        /* \"#utility.yul\":20221:20230   */\n      dup9\n        /* \"#utility.yul\":20217:20239   */\n      add\n        /* \"#utility.yul\":20187:20249   */\n      tag_380\n      jump\t// in\n    tag_605:\n        /* \"#utility.yul\":20177:20249   */\n      swap2\n      pop\n        /* \"#utility.yul\":19972:20259   */\n      pop\n        /* \"#utility.yul\":19323:20266   */\n      swap3\n      swap6\n      swap2\n      swap5\n      pop\n      swap3\n      pop\n      jump\t// out\n        /* \"#utility.yul\":20272:20746   */\n    tag_112:\n        /* \"#utility.yul\":20340:20346   */\n      0x00\n        /* \"#utility.yul\":20348:20354   */\n      dup1\n        /* \"#utility.yul\":20397:20399   */\n      0x40\n        /* \"#utility.yul\":20385:20394   */\n      dup4\n        /* \"#utility.yul\":20376:20383   */\n      dup6\n        /* \"#utility.yul\":20372:20395   */\n      sub\n        /* \"#utility.yul\":20368:20400   */\n      slt\n        /* \"#utility.yul\":20365:20484   */\n      iszero\n      tag_607\n      jumpi\n        /* \"#utility.yul\":20403:20482   */\n      tag_608\n      tag_330\n      jump\t// in\n    tag_608:\n        /* \"#utility.yul\":20365:20484   */\n    tag_607:\n        /* \"#utility.yul\":20523:20524   */\n      0x00\n        /* \"#utility.yul\":20548:20601   */\n      tag_609\n        /* \"#utility.yul\":20593:20600   */\n      dup6\n        /* \"#utility.yul\":20584:20590   */\n      dup3\n        /* \"#utility.yul\":20573:20582   */\n      dup7\n        /* \"#utility.yul\":20569:20591   */\n      add\n        /* \"#utility.yul\":20548:20601   */\n      tag_349\n      jump\t// in\n    tag_609:\n        /* \"#utility.yul\":20538:20601   */\n      swap3\n      pop\n        /* \"#utility.yul\":20494:20611   */\n      pop\n        /* \"#utility.yul\":20650:20652   */\n      0x20\n        /* \"#utility.yul\":20676:20729   */\n      tag_610\n        /* \"#utility.yul\":20721:20728   */\n      dup6\n        /* \"#utility.yul\":20712:20718   */\n      dup3\n        /* \"#utility.yul\":20701:20710   */\n      dup7\n        /* \"#utility.yul\":20697:20719   */\n      add\n        /* \"#utility.yul\":20676:20729   */\n      tag_349\n      jump\t// in\n    tag_610:\n        /* \"#utility.yul\":20666:20729   */\n      swap2\n      pop\n        /* \"#utility.yul\":20621:20739   */\n      pop\n        /* \"#utility.yul\":20272:20746   */\n      swap3\n      pop\n      swap3\n      swap1\n      pop\n      jump\t// out\n        /* \"#utility.yul\":20752:20932   */\n    tag_381:\n        /* \"#utility.yul\":20800:20877   */\n      0x4e487b7100000000000000000000000000000000000000000000000000000000\n        /* \"#utility.yul\":20797:20798   */\n      0x00\n        /* \"#utility.yul\":20790:20878   */\n      mstore\n        /* \"#utility.yul\":20897:20901   */\n      0x22\n        /* \"#utility.yul\":20894:20895   */\n      0x04\n        /* \"#utility.yul\":20887:20902   */\n      mstore\n        /* \"#utility.yul\":20921:20925   */\n      0x24\n        /* \"#utility.yul\":20918:20919   */\n      0x00\n        /* \"#utility.yul\":20911:20926   */\n      revert\n        /* \"#utility.yul\":20938:21258   */\n    tag_122:\n        /* \"#utility.yul\":20982:20988   */\n      0x00\n        /* \"#utility.yul\":21019:21020   */\n      0x02\n        /* \"#utility.yul\":21013:21017   */\n      dup3\n        /* \"#utility.yul\":21009:21021   */\n      div\n        /* \"#utility.yul\":20999:21021   */\n      swap1\n      pop\n        /* \"#utility.yul\":21066:21067   */\n      0x01\n        /* \"#utility.yul\":21060:21064   */\n      dup3\n        /* \"#utility.yul\":21056:21068   */\n      and\n        /* \"#utility.yul\":21087:21105   */\n      dup1\n        /* \"#utility.yul\":21077:21158   */\n      tag_613\n      jumpi\n        /* \"#utility.yul\":21143:21147   */\n      0x7f\n        /* \"#utility.yul\":21135:21141   */\n      dup3\n        /* \"#utility.yul\":21131:21148   */\n      and\n        /* \"#utility.yul\":21121:21148   */\n      swap2\n      pop\n        /* \"#utility.yul\":21077:21158   */\n    tag_613:\n        /* \"#utility.yul\":21205:21207   */\n      0x20\n        /* \"#utility.yul\":21197:21203   */\n      dup3\n        /* \"#utility.yul\":21194:21208   */\n      lt\n        /* \"#utility.yul\":21174:21192   */\n      dup2\n        /* \"#utility.yul\":21171:21209   */\n      sub\n        /* \"#utility.yul\":21168:21252   */\n      tag_614\n      jumpi\n        /* \"#utility.yul\":21224:21242   */\n      tag_615\n      tag_381\n      jump\t// in\n    tag_615:\n        /* \"#utility.yul\":21168:21252   */\n    tag_614:\n        /* \"#utility.yul\":20989:21258   */\n      pop\n        /* \"#utility.yul\":20938:21258   */\n      swap2\n      swap1\n      pop\n      jump\t// out\n        /* \"#utility.yul\":21264:21444   */\n    tag_152:\n        /* \"#utility.yul\":21312:21389   */\n      0x4e487b7100000000000000000000000000000000000000000000000000000000\n        /* \"#utility.yul\":21309:21310   */\n      0x00\n        /* \"#utility.yul\":21302:21390   */\n      mstore\n        /* \"#utility.yul\":21409:21413   */\n      0x32\n        /* \"#utility.yul\":21406:21407   */\n      0x04\n        /* \"#utility.yul\":21399:21414   */\n      mstore\n        /* \"#utility.yul\":21433:21437   */\n      0x24\n        /* \"#utility.yul\":21430:21431   */\n      0x00\n        /* \"#utility.yul\":21423:21438   */\n      revert\n        /* \"#utility.yul\":21450:21630   */\n    tag_382:\n        /* \"#utility.yul\":21498:21575   */\n      0x4e487b7100000000000000000000000000000000000000000000000000000000\n        /* \"#utility.yul\":21495:21496   */\n      0x00\n        /* \"#utility.yul\":21488:21576   */\n      mstore\n        /* \"#utility.yul\":21595:21599   */\n      0x11\n        /* \"#utility.yul\":21592:21593   */\n      0x04\n        /* \"#utility.yul\":21585:21600   */\n      mstore\n        /* \"#utility.yul\":21619:21623   */\n      0x24\n        /* \"#utility.yul\":21616:21617   */\n      0x00\n        /* \"#utility.yul\":21609:21624   */\n      revert\n        /* \"#utility.yul\":21636:21869   */\n    tag_163:\n        /* \"#utility.yul\":21675:21678   */\n      0x00\n        /* \"#utility.yul\":21698:21722   */\n      tag_619\n        /* \"#utility.yul\":21716:21721   */\n      dup3\n        /* \"#utility.yul\":21698:21722   */\n      tag_342\n      jump\t// in\n    tag_619:\n        /* \"#utility.yul\":21689:21722   */\n      swap2\n      pop\n        /* \"#utility.yul\":21744:21810   */\n      0xffffffffffffffffffffffffffffffffffffffffffffffffffffffffffffffff\n        /* \"#utility.yul\":21737:21742   */\n      dup3\n        /* \"#utility.yul\":21734:21811   */\n      sub\n        /* \"#utility.yul\":21731:21834   */\n      tag_620\n      jumpi\n        /* \"#utility.yul\":21814:21832   */\n      tag_621\n      tag_382\n      jump\t// in\n    tag_621:\n        /* \"#utility.yul\":21731:21834   */\n    tag_620:\n        /* \"#utility.yul\":21861:21862   */\n      0x01\n        /* \"#utility.yul\":21854:21859   */\n      dup3\n        /* \"#utility.yul\":21850:21863   */\n      add\n        /* \"#utility.yul\":21843:21863   */\n      swap1\n      pop\n        /* \"#utility.yul\":21636:21869   */\n      swap2\n      swap1\n      pop\n      jump\t// out\n        /* \"#utility.yul\":21875:22317   */\n    tag_172:\n        /* \"#utility.yul\":22024:22028   */\n      0x00\n        /* \"#utility.yul\":22062:22064   */\n      0x60\n        /* \"#utility.yul\":22051:22060   */\n      dup3\n        /* \"#utility.yul\":22047:22065   */\n      add\n        /* \"#utility.yul\":22039:22065   */\n      swap1\n      pop\n        /* \"#utility.yul\":22075:22146   */\n      tag_623\n        /* \"#utility.yul\":22143:22144   */\n      0x00\n        /* \"#utility.yul\":22132:22141   */\n      dup4\n        /* \"#utility.yul\":22128:22145   */\n      add\n        /* \"#utility.yul\":22119:22125   */\n      dup7\n        /* \"#utility.yul\":22075:22146   */\n      tag_347\n      jump\t// in\n    tag_623:\n        /* \"#utility.yul\":22156:22228   */\n      tag_624\n        /* \"#utility.yul\":22224:22226   */\n      0x20\n        /* \"#utility.yul\":22213:22222   */\n      dup4\n        /* \"#utility.yul\":22209:22227   */\n      add\n        /* \"#utility.yul\":22200:22206   */\n      dup6\n        /* \"#utility.yul\":22156:22228   */\n      tag_369\n      jump\t// in\n    tag_624:\n        /* \"#utility.yul\":22238:22310   */\n      tag_625\n        /* \"#utility.yul\":22306:22308   */\n      0x40\n        /* \"#utility.yul\":22295:22304   */\n      dup4\n        /* \"#utility.yul\":22291:22309   */\n      add\n        /* \"#utility.yul\":22282:22288   */\n      dup5\n        /* \"#utility.yul\":22238:22310   */\n      tag_347\n      jump\t// in\n    tag_625:\n        /* \"#utility.yul\":21875:22317   */\n      swap5\n      swap4\n      pop\n      pop\n      pop\n      pop\n      jump\t// out\n        /* \"#utility.yul\":22323:22471   */\n    tag_383:\n        /* \"#utility.yul\":22425:22436   */\n      0x00\n        /* \"#utility.yul\":22462:22465   */\n      dup2\n        /* \"#utility.yul\":22447:22465   */\n      swap1\n      pop\n        /* \"#utility.yul\":22323:22471   */\n      swap3\n      swap2\n      pop\n      pop\n      jump\t// out\n        /* \"#utility.yul\":22477:22867   */\n    tag_384:\n        /* \"#utility.yul\":22583:22586   */\n      0x00\n        /* \"#utility.yul\":22611:22650   */\n      tag_628\n        /* \"#utility.yul\":22644:22649   */\n      dup3\n        /* \"#utility.yul\":22611:22650   */\n      tag_337\n      jump\t// in\n    tag_628:\n        /* \"#utility.yul\":22666:22755   */\n      tag_629\n        /* \"#utility.yul\":22748:22754   */\n      dup2\n        /* \"#utility.yul\":22743:22746   */\n      dup6\n        /* \"#utility.yul\":22666:22755   */\n      tag_383\n      jump\t// in\n    tag_629:\n        /* \"#utility.yul\":22659:22755   */\n      swap4\n      pop\n        /* \"#utility.yul\":22764:22829   */\n      tag_630\n        /* \"#utility.yul\":22822:22828   */\n      dup2\n        /* \"#utility.yul\":22817:22820   */\n      dup6\n        /* \"#utility.yul\":22810:22814   */\n      0x20\n        /* \"#utility.yul\":22803:22808   */\n      dup7\n        /* \"#utility.yul\":22799:22815   */\n      add\n        /* \"#utility.yul\":22764:22829   */\n      tag_339\n      jump\t// in\n    tag_630:\n        /* \"#utility.yul\":22854:22860   */\n      dup1\n        /* \"#utility.yul\":22849:22852   */\n      dup5\n        /* \"#utility.yul\":22845:22861   */\n      add\n        /* \"#utility.yul\":22838:22861   */\n      swap2\n      pop\n        /* \"#utility.yul\":22587:22867   */\n      pop\n        /* \"#utility.yul\":22477:22867   */\n      swap3\n      swap2\n      pop\n      pop\n      jump\t// out\n        /* \"#utility.yul\":22873:23148   */\n    tag_210:\n        /* \"#utility.yul\":23005:23008   */\n      0x00\n        /* \"#utility.yul\":23027:23122   */\n      tag_632\n        /* \"#utility.yul\":23118:23121   */\n      dup3\n        /* \"#utility.yul\":23109:23115   */\n      dup5\n        /* \"#utility.yul\":23027:23122   */\n      tag_384\n      jump\t// in\n    tag_632:\n        /* \"#utility.yul\":23020:23122   */\n      swap2\n      pop\n        /* \"#utility.yul\":23139:23142   */\n      dup2\n        /* \"#utility.yul\":23132:23142   */\n      swap1\n      pop\n        /* \"#utility.yul\":22873:23148   */\n      swap3\n      swap2\n      pop\n      pop\n      jump\t// out\n        /* \"#utility.yul\":23154:23334   */\n    tag_385:\n        /* \"#utility.yul\":23202:23279   */\n      0x4e487b7100000000000000000000000000000000000000000000000000000000\n        /* \"#utility.yul\":23199:23200   */\n      0x00\n        /* \"#utility.yul\":23192:23280   */\n      mstore\n        /* \"#utility.yul\":23299:23303   */\n      0x12\n        /* \"#utility.yul\":23296:23297   */\n      0x04\n        /* \"#utility.yul\":23289:23304   */\n      mstore\n        /* \"#utility.yul\":23323:23327   */\n      0x24\n        /* \"#utility.yul\":23320:23321   */\n      0x00\n        /* \"#utility.yul\":23313:23328   */\n      revert\n        /* \"#utility.yul\":23340:23516   */\n    tag_212:\n        /* \"#utility.yul\":23372:23373   */\n      0x00\n        /* \"#utility.yul\":23389:23409   */\n      tag_635\n        /* \"#utility.yul\":23407:23408   */\n      dup3\n        /* \"#utility.yul\":23389:23409   */\n      tag_342\n      jump\t// in\n    tag_635:\n        /* \"#utility.yul\":23384:23409   */\n      swap2\n      pop\n        /* \"#utility.yul\":23423:23443   */\n      tag_636\n        /* \"#utility.yul\":23441:23442   */\n      dup4\n        /* \"#utility.yul\":23423:23443   */\n      tag_342\n      jump\t// in\n    tag_636:\n        /* \"#utility.yul\":23418:23443   */\n      swap3\n      pop\n        /* \"#utility.yul\":23462:23463   */\n      dup3\n        /* \"#utility.yul\":23452:23487   */\n      tag_637\n      jumpi\n        /* \"#utility.yul\":23467:23485   */\n      tag_638\n      tag_385\n      jump\t// in\n    tag_638:\n        /* \"#utility.yul\":23452:23487   */\n    tag_637:\n        /* \"#utility.yul\":23508:23509   */\n      dup3\n        /* \"#utility.yul\":23505:23506   */\n      dup3\n        /* \"#utility.yul\":23501:23510   */\n      mod\n        /* \"#utility.yul\":23496:23510   */\n      swap1\n      pop\n        /* \"#utility.yul\":23340:23516   */\n      swap3\n      swap2\n      pop\n      pop\n      jump\t// out\n        /* \"#utility.yul\":23522:23713   */\n    tag_214:\n        /* \"#utility.yul\":23562:23565   */\n      0x00\n        /* \"#utility.yul\":23581:23601   */\n      tag_640\n        /* \"#utility.yul\":23599:23600   */\n      dup3\n        /* \"#utility.yul\":23581:23601   */\n      tag_342\n      jump\t// in\n    tag_640:\n        /* \"#utility.yul\":23576:23601   */\n      swap2\n      pop\n        /* \"#utility.yul\":23615:23635   */\n      tag_641\n        /* \"#utility.yul\":23633:23634   */\n      dup4\n        /* \"#utility.yul\":23615:23635   */\n      tag_342\n      jump\t// in\n    tag_641:\n        /* \"#utility.yul\":23610:23635   */\n      swap3\n      pop\n        /* \"#utility.yul\":23658:23659   */\n      dup3\n        /* \"#utility.yul\":23655:23656   */\n      dup3\n        /* \"#utility.yul\":23651:23660   */\n      add\n        /* \"#utility.yul\":23644:23660   */\n      swap1\n      pop\n        /* \"#utility.yul\":23679:23682   */\n      dup1\n        /* \"#utility.yul\":23676:23677   */\n      dup3\n        /* \"#utility.yul\":23673:23683   */\n      gt\n        /* \"#utility.yul\":23670:23706   */\n      iszero\n      tag_642\n      jumpi\n        /* \"#utility.yul\":23686:23704   */\n      tag_643\n      tag_382\n      jump\t// in\n    tag_643:\n        /* \"#utility.yul\":23670:23706   */\n    tag_642:\n        /* \"#utility.yul\":23522:23713   */\n      swap3\n      swap2\n      pop\n      pop\n      jump\t// out\n        /* \"#utility.yul\":23719:23860   */\n    tag_386:\n        /* \"#utility.yul\":23768:23772   */\n      0x00\n        /* \"#utility.yul\":23791:23794   */\n      dup2\n        /* \"#utility.yul\":23783:23794   */\n      swap1\n      pop\n        /* \"#utility.yul\":23814:23817   */\n      dup2\n        /* \"#utility.yul\":23811:23812   */\n      0x00\n        /* \"#utility.yul\":23804:23818   */\n      mstore\n        /* \"#utility.yul\":23848:23852   */\n      0x20\n        /* \"#utility.yul\":23845:23846   */\n      0x00\n        /* \"#utility.yul\":23835:23853   */\n      keccak256\n        /* \"#utility.yul\":23827:23853   */\n      swap1\n      pop\n        /* \"#utility.yul\":23719:23860   */\n      swap2\n      swap1\n      pop\n      jump\t// out\n        /* \"#utility.yul\":23866:23959   */\n    tag_387:\n        /* \"#utility.yul\":23903:23909   */\n      0x00\n        /* \"#utility.yul\":23950:23952   */\n      0x20\n        /* \"#utility.yul\":23945:23947   */\n      0x1f\n        /* \"#utility.yul\":23938:23943   */\n      dup4\n        /* \"#utility.yul\":23934:23948   */\n      add\n        /* \"#utility.yul\":23930:23953   */\n      div\n        /* \"#utility.yul\":23920:23953   */\n      swap1\n      pop\n        /* \"#utility.yul\":23866:23959   */\n      swap2\n      swap1\n      pop\n      jump\t// out\n        /* \"#utility.yul\":23965:24072   */\n    tag_388:\n        /* \"#utility.yul\":24009:24017   */\n      0x00\n        /* \"#utility.yul\":24059:24064   */\n      dup3\n        /* \"#utility.yul\":24053:24057   */\n      dup3\n        /* \"#utility.yul\":24049:24065   */\n      shl\n        /* \"#utility.yul\":24028:24065   */\n      swap1\n      pop\n        /* \"#utility.yul\":23965:24072   */\n      swap3\n      swap2\n      pop\n      pop\n      jump\t// out\n        /* \"#utility.yul\":24078:24471   */\n    tag_389:\n        /* \"#utility.yul\":24147:24153   */\n      0x00\n        /* \"#utility.yul\":24197:24198   */\n      0x08\n        /* \"#utility.yul\":24185:24195   */\n      dup4\n        /* \"#utility.yul\":24181:24199   */\n      mul\n        /* \"#utility.yul\":24220:24317   */\n      tag_648\n        /* \"#utility.yul\":24250:24316   */\n      0xffffffffffffffffffffffffffffffffffffffffffffffffffffffffffffffff\n        /* \"#utility.yul\":24239:24248   */\n      dup3\n        /* \"#utility.yul\":24220:24317   */\n      tag_388\n      jump\t// in\n    tag_648:\n        /* \"#utility.yul\":24338:24377   */\n      tag_649\n        /* \"#utility.yul\":24368:24376   */\n      dup7\n        /* \"#utility.yul\":24357:24366   */\n      dup4\n        /* \"#utility.yul\":24338:24377   */\n      tag_388\n      jump\t// in\n    tag_649:\n        /* \"#utility.yul\":24326:24377   */\n      swap6\n      pop\n        /* \"#utility.yul\":24410:24414   */\n      dup1\n        /* \"#utility.yul\":24406:24415   */\n      not\n        /* \"#utility.yul\":24399:24404   */\n      dup5\n        /* \"#utility.yul\":24395:24416   */\n      and\n        /* \"#utility.yul\":24386:24416   */\n      swap4\n      pop\n        /* \"#utility.yul\":24459:24463   */\n      dup1\n        /* \"#utility.yul\":24449:24457   */\n      dup7\n        /* \"#utility.yul\":24445:24464   */\n      and\n        /* \"#utility.yul\":24438:24443   */\n      dup5\n        /* \"#utility.yul\":24435:24465   */\n      or\n        /* \"#utility.yul\":24425:24465   */\n      swap3\n      pop\n        /* \"#utility.yul\":24154:24471   */\n      pop\n      pop\n        /* \"#utility.yul\":24078:24471   */\n      swap4\n      swap3\n      pop\n      pop\n      pop\n      jump\t// out\n        /* \"#utility.yul\":24477:24537   */\n    tag_390:\n        /* \"#utility.yul\":24505:24508   */\n      0x00\n        /* \"#utility.yul\":24526:24531   */\n      dup2\n        /* \"#utility.yul\":24519:24531   */\n      swap1\n      pop\n        /* \"#utility.yul\":24477:24537   */\n      swap2\n      swap1\n      pop\n      jump\t// out\n        /* \"#utility.yul\":24543:24685   */\n    tag_391:\n        /* \"#utility.yul\":24593:24602   */\n      0x00\n        /* \"#utility.yul\":24626:24679   */\n      tag_652\n        /* \"#utility.yul\":24644:24678   */\n      tag_653\n        /* \"#utility.yul\":24653:24677   */\n      tag_654\n        /* \"#utility.yul\":24671:24676   */\n      dup5\n        /* \"#utility.yul\":24653:24677   */\n      tag_342\n      jump\t// in\n    tag_654:\n        /* \"#utility.yul\":24644:24678   */\n      tag_390\n      jump\t// in\n    tag_653:\n        /* \"#utility.yul\":24626:24679   */\n      tag_342\n      jump\t// in\n    tag_652:\n        /* \"#utility.yul\":24613:24679   */\n      swap1\n      pop\n        /* \"#utility.yul\":24543:24685   */\n      swap2\n      swap1\n      pop\n      jump\t// out\n        /* \"#utility.yul\":24691:24766   */\n    tag_392:\n        /* \"#utility.yul\":24734:24737   */\n      0x00\n        /* \"#utility.yul\":24755:24760   */\n      dup2\n        /* \"#utility.yul\":24748:24760   */\n      swap1\n      pop\n        /* \"#utility.yul\":24691:24766   */\n      swap2\n      swap1\n      pop\n      jump\t// out\n        /* \"#utility.yul\":24772:25041   */\n    tag_393:\n        /* \"#utility.yul\":24882:24921   */\n      tag_657\n        /* \"#utility.yul\":24913:24920   */\n      dup4\n        /* \"#utility.yul\":24882:24921   */\n      tag_391\n      jump\t// in\n    tag_657:\n        /* \"#utility.yul\":24943:25034   */\n      tag_658\n        /* \"#utility.yul\":24992:25033   */\n      tag_659\n        /* \"#utility.yul\":25016:25032   */\n      dup3\n        /* \"#utility.yul\":24992:25033   */\n      tag_392\n      jump\t// in\n    tag_659:\n        /* \"#utility.yul\":24984:24990   */\n      dup5\n        /* \"#utility.yul\":24977:24981   */\n      dup5\n        /* \"#utility.yul\":24971:24982   */\n      sload\n        /* \"#utility.yul\":24943:25034   */\n      tag_389\n      jump\t// in\n    tag_658:\n        /* \"#utility.yul\":24937:24941   */\n      dup3\n        /* \"#utility.yul\":24930:25035   */\n      sstore\n        /* \"#utility.yul\":24848:25041   */\n      pop\n        /* \"#utility.yul\":24772:25041   */\n      pop\n      pop\n      pop\n      jump\t// out\n        /* \"#utility.yul\":25047:25120   */\n    tag_394:\n        /* \"#utility.yul\":25092:25095   */\n      0x00\n        /* \"#utility.yul\":25047:25120   */\n      swap1\n      jump\t// out\n        /* \"#utility.yul\":25126:25315   */\n    tag_395:\n        /* \"#utility.yul\":25203:25235   */\n      tag_662\n      tag_394\n      jump\t// in\n    tag_662:\n        /* \"#utility.yul\":25244:25309   */\n      tag_663\n        /* \"#utility.yul\":25302:25308   */\n      dup2\n        /* \"#utility.yul\":25294:25300   */\n      dup5\n        /* \"#utility.yul\":25288:25292   */\n      dup5\n        /* \"#utility.yul\":25244:25309   */\n      tag_393\n      jump\t// in\n    tag_663:\n        /* \"#utility.yul\":25179:25315   */\n      pop\n        /* \"#utility.yul\":25126:25315   */\n      pop\n      pop\n      jump\t// out\n        /* \"#utility.yul\":25321:25507   */\n    tag_396:\n        /* \"#utility.yul\":25381:25501   */\n    tag_665:\n        /* \"#utility.yul\":25398:25401   */\n      dup2\n        /* \"#utility.yul\":25391:25396   */\n      dup2\n        /* \"#utility.yul\":25388:25402   */\n      lt\n        /* \"#utility.yul\":25381:25501   */\n      iszero\n      tag_667\n      jumpi\n        /* \"#utility.yul\":25452:25491   */\n      tag_668\n        /* \"#utility.yul\":25489:25490   */\n      0x00\n        /* \"#utility.yul\":25482:25487   */\n      dup3\n        /* \"#utility.yul\":25452:25491   */\n      tag_395\n      jump\t// in\n    tag_668:\n        /* \"#utility.yul\":25425:25426   */\n      0x01\n        /* \"#utility.yul\":25418:25423   */\n      dup2\n        /* \"#utility.yul\":25414:25427   */\n      add\n        /* \"#utility.yul\":25405:25427   */\n      swap1\n      pop\n        /* \"#utility.yul\":25381:25501   */\n      jump(tag_665)\n    tag_667:\n        /* \"#utility.yul\":25321:25507   */\n      pop\n      pop\n      jump\t// out\n        /* \"#utility.yul\":25513:26056   */\n    tag_397:\n        /* \"#utility.yul\":25614:25616   */\n      0x1f\n        /* \"#utility.yul\":25609:25612   */\n      dup3\n        /* \"#utility.yul\":25606:25617   */\n      gt\n        /* \"#utility.yul\":25603:26049   */\n      iszero\n      tag_670\n      jumpi\n        /* \"#utility.yul\":25648:25686   */\n      tag_671\n        /* \"#utility.yul\":25680:25685   */\n      dup2\n        /* \"#utility.yul\":25648:25686   */\n      tag_386\n      jump\t// in\n    tag_671:\n        /* \"#utility.yul\":25732:25761   */\n      tag_672\n        /* \"#utility.yul\":25750:25760   */\n      dup5\n        /* \"#utility.yul\":25732:25761   */\n      tag_387\n      jump\t// in\n    tag_672:\n        /* \"#utility.yul\":25722:25730   */\n      dup2\n        /* \"#utility.yul\":25718:25762   */\n      add\n        /* \"#utility.yul\":25915:25917   */\n      0x20\n        /* \"#utility.yul\":25903:25913   */\n      dup6\n        /* \"#utility.yul\":25900:25918   */\n      lt\n        /* \"#utility.yul\":25897:25946   */\n      iszero\n      tag_673\n      jumpi\n        /* \"#utility.yul\":25936:25944   */\n      dup2\n        /* \"#utility.yul\":25921:25944   */\n      swap1\n      pop\n        /* \"#utility.yul\":25897:25946   */\n    tag_673:\n        /* \"#utility.yul\":25959:26039   */\n      tag_674\n        /* \"#utility.yul\":26015:26037   */\n      tag_675\n        /* \"#utility.yul\":26033:26036   */\n      dup6\n        /* \"#utility.yul\":26015:26037   */\n      tag_387\n      jump\t// in\n    tag_675:\n        /* \"#utility.yul\":26005:26013   */\n      dup4\n        /* \"#utility.yul\":26001:26038   */\n      add\n        /* \"#utility.yul\":25988:25999   */\n      dup3\n        /* \"#utility.yul\":25959:26039   */\n      tag_396\n      jump\t// in\n    tag_674:\n        /* \"#utility.yul\":25618:26049   */\n      pop\n      pop\n        /* \"#utility.yul\":25603:26049   */\n    tag_670:\n        /* \"#utility.yul\":25513:26056   */\n      pop\n      pop\n      pop\n      jump\t// out\n        /* \"#utility.yul\":26062:26179   */\n    tag_398:\n        /* \"#utility.yul\":26116:26124   */\n      0x00\n        /* \"#utility.yul\":26166:26171   */\n      dup3\n        /* \"#utility.yul\":26160:26164   */\n      dup3\n        /* \"#utility.yul\":26156:26172   */\n      shr\n        /* \"#utility.yul\":26135:26172   */\n      swap1\n      pop\n        /* \"#utility.yul\":26062:26179   */\n      swap3\n      swap2\n      pop\n      pop\n      jump\t// out\n        /* \"#utility.yul\":26185:26354   */\n    tag_399:\n        /* \"#utility.yul\":26229:26235   */\n      0x00\n        /* \"#utility.yul\":26262:26313   */\n      tag_678\n        /* \"#utility.yul\":26310:26311   */\n      0x00\n        /* \"#utility.yul\":26306:26312   */\n      not\n        /* \"#utility.yul\":26298:26303   */\n      dup5\n        /* \"#utility.yul\":26295:26296   */\n      0x08\n        /* \"#utility.yul\":26291:26304   */\n      mul\n        /* \"#utility.yul\":26262:26313   */\n      tag_398\n      jump\t// in\n    tag_678:\n        /* \"#utility.yul\":26258:26314   */\n      not\n        /* \"#utility.yul\":26343:26347   */\n      dup1\n        /* \"#utility.yul\":26337:26341   */\n      dup4\n        /* \"#utility.yul\":26333:26348   */\n      and\n        /* \"#utility.yul\":26323:26348   */\n      swap2\n      pop\n        /* \"#utility.yul\":26236:26354   */\n      pop\n        /* \"#utility.yul\":26185:26354   */\n      swap3\n      swap2\n      pop\n      pop\n      jump\t// out\n        /* \"#utility.yul\":26359:26654   */\n    tag_400:\n        /* \"#utility.yul\":26435:26439   */\n      0x00\n        /* \"#utility.yul\":26581:26610   */\n      tag_680\n        /* \"#utility.yul\":26606:26609   */\n      dup4\n        /* \"#utility.yul\":26600:26604   */\n      dup4\n        /* \"#utility.yul\":26581:26610   */\n      tag_399\n      jump\t// in\n    tag_680:\n        /* \"#utility.yul\":26573:26610   */\n      swap2\n      pop\n        /* \"#utility.yul\":26643:26646   */\n      dup3\n        /* \"#utility.yul\":26640:26641   */\n      0x02\n        /* \"#utility.yul\":26636:26647   */\n      mul\n        /* \"#utility.yul\":26630:26634   */\n      dup3\n        /* \"#utility.yul\":26627:26648   */\n      or\n        /* \"#utility.yul\":26619:26648   */\n      swap1\n      pop\n        /* \"#utility.yul\":26359:26654   */\n      swap3\n      swap2\n      pop\n      pop\n      jump\t// out\n        /* \"#utility.yul\":26659:28054   */\n    tag_218:\n        /* \"#utility.yul\":26776:26813   */\n      tag_682\n        /* \"#utility.yul\":26809:26812   */\n      dup3\n        /* \"#utility.yul\":26776:26813   */\n      tag_337\n      jump\t// in\n    tag_682:\n        /* \"#utility.yul\":26878:26896   */\n      0xffffffffffffffff\n        /* \"#utility.yul\":26870:26876   */\n      dup2\n        /* \"#utility.yul\":26867:26897   */\n      gt\n        /* \"#utility.yul\":26864:26920   */\n      iszero\n      tag_683\n      jumpi\n        /* \"#utility.yul\":26900:26918   */\n      tag_684\n      tag_142\n      jump\t// in\n    tag_684:\n        /* \"#utility.yul\":26864:26920   */\n    tag_683:\n        /* \"#utility.yul\":26944:26982   */\n      tag_685\n        /* \"#utility.yul\":26976:26980   */\n      dup3\n        /* \"#utility.yul\":26970:26981   */\n      sload\n        /* \"#utility.yul\":26944:26982   */\n      tag_122\n      jump\t// in\n    tag_685:\n        /* \"#utility.yul\":27029:27096   */\n      tag_686\n        /* \"#utility.yul\":27089:27095   */\n      dup3\n        /* \"#utility.yul\":27081:27087   */\n      dup3\n        /* \"#utility.yul\":27075:27079   */\n      dup6\n        /* \"#utility.yul\":27029:27096   */\n      tag_397\n      jump\t// in\n    tag_686:\n        /* \"#utility.yul\":27123:27124   */\n      0x00\n        /* \"#utility.yul\":27147:27151   */\n      0x20\n        /* \"#utility.yul\":27134:27151   */\n      swap1\n      pop\n        /* \"#utility.yul\":27179:27181   */\n      0x1f\n        /* \"#utility.yul\":27171:27177   */\n      dup4\n        /* \"#utility.yul\":27168:27182   */\n      gt\n        /* \"#utility.yul\":27196:27197   */\n      0x01\n        /* \"#utility.yul\":27191:27809   */\n      dup2\n      eq\n      tag_688\n      jumpi\n        /* \"#utility.yul\":27853:27854   */\n      0x00\n        /* \"#utility.yul\":27870:27876   */\n      dup5\n        /* \"#utility.yul\":27867:27944   */\n      iszero\n      tag_689\n      jumpi\n        /* \"#utility.yul\":27919:27928   */\n      dup3\n        /* \"#utility.yul\":27914:27917   */\n      dup8\n        /* \"#utility.yul\":27910:27929   */\n      add\n        /* \"#utility.yul\":27904:27930   */\n      mload\n        /* \"#utility.yul\":27895:27930   */\n      swap1\n      pop\n        /* \"#utility.yul\":27867:27944   */\n    tag_689:\n        /* \"#utility.yul\":27970:28037   */\n      tag_690\n        /* \"#utility.yul\":28030:28036   */\n      dup6\n        /* \"#utility.yul\":28023:28028   */\n      dup3\n        /* \"#utility.yul\":27970:28037   */\n      tag_400\n      jump\t// in\n    tag_690:\n        /* \"#utility.yul\":27964:27968   */\n      dup7\n        /* \"#utility.yul\":27957:28038   */\n      sstore\n        /* \"#utility.yul\":27826:28048   */\n      pop\n        /* \"#utility.yul\":27161:28048   */\n      jump(tag_687)\n        /* \"#utility.yul\":27191:27809   */\n    tag_688:\n        /* \"#utility.yul\":27243:27247   */\n      0x1f\n        /* \"#utility.yul\":27239:27248   */\n      not\n        /* \"#utility.yul\":27231:27237   */\n      dup5\n        /* \"#utility.yul\":27227:27249   */\n      and\n        /* \"#utility.yul\":27277:27314   */\n      tag_691\n        /* \"#utility.yul\":27309:27313   */\n      dup7\n        /* \"#utility.yul\":27277:27314   */\n      tag_386\n      jump\t// in\n    tag_691:\n        /* \"#utility.yul\":27336:27337   */\n      0x00\n        /* \"#utility.yul\":27350:27558   */\n    tag_692:\n        /* \"#utility.yul\":27364:27371   */\n      dup3\n        /* \"#utility.yul\":27361:27362   */\n      dup2\n        /* \"#utility.yul\":27358:27372   */\n      lt\n        /* \"#utility.yul\":27350:27558   */\n      iszero\n      tag_694\n      jumpi\n        /* \"#utility.yul\":27443:27452   */\n      dup5\n        /* \"#utility.yul\":27438:27441   */\n      dup10\n        /* \"#utility.yul\":27434:27453   */\n      add\n        /* \"#utility.yul\":27428:27454   */\n      mload\n        /* \"#utility.yul\":27420:27426   */\n      dup3\n        /* \"#utility.yul\":27413:27455   */\n      sstore\n        /* \"#utility.yul\":27494:27495   */\n      0x01\n        /* \"#utility.yul\":27486:27492   */\n      dup3\n        /* \"#utility.yul\":27482:27496   */\n      add\n        /* \"#utility.yul\":27472:27496   */\n      swap2\n      pop\n        /* \"#utility.yul\":27541:27543   */\n      0x20\n        /* \"#utility.yul\":27530:27539   */\n      dup6\n        /* \"#utility.yul\":27526:27544   */\n      add\n        /* \"#utility.yul\":27513:27544   */\n      swap5\n      pop\n        /* \"#utility.yul\":27387:27391   */\n      0x20\n        /* \"#utility.yul\":27384:27385   */\n      dup2\n        /* \"#utility.yul\":27380:27392   */\n      add\n        /* \"#utility.yul\":27375:27392   */\n      swap1\n      pop\n        /* \"#utility.yul\":27350:27558   */\n      jump(tag_692)\n    tag_694:\n        /* \"#utility.yul\":27586:27592   */\n      dup7\n        /* \"#utility.yul\":27577:27584   */\n      dup4\n        /* \"#utility.yul\":27574:27593   */\n      lt\n        /* \"#utility.yul\":27571:27750   */\n      iszero\n      tag_695\n      jumpi\n        /* \"#utility.yul\":27644:27653   */\n      dup5\n        /* \"#utility.yul\":27639:27642   */\n      dup10\n        /* \"#utility.yul\":27635:27654   */\n      add\n        /* \"#utility.yul\":27629:27655   */\n      mload\n        /* \"#utility.yul\":27687:27735   */\n      tag_696\n        /* \"#utility.yul\":27729:27733   */\n      0x1f\n        /* \"#utility.yul\":27721:27727   */\n      dup10\n        /* \"#utility.yul\":27717:27734   */\n      and\n        /* \"#utility.yul\":27706:27715   */\n      dup3\n        /* \"#utility.yul\":27687:27735   */\n      tag_399\n      jump\t// in\n    tag_696:\n        /* \"#utility.yul\":27679:27685   */\n      dup4\n        /* \"#utility.yul\":27672:27736   */\n      sstore\n        /* \"#utility.yul\":27594:27750   */\n      pop\n        /* \"#utility.yul\":27571:27750   */\n    tag_695:\n        /* \"#utility.yul\":27796:27797   */\n      0x01\n        /* \"#utility.yul\":27792:27793   */\n      0x02\n        /* \"#utility.yul\":27784:27790   */\n      dup9\n        /* \"#utility.yul\":27780:27794   */\n      mul\n        /* \"#utility.yul\":27776:27798   */\n      add\n        /* \"#utility.yul\":27770:27774   */\n      dup9\n        /* \"#utility.yul\":27763:27799   */\n      sstore\n        /* \"#utility.yul\":27198:27809   */\n      pop\n      pop\n      pop\n        /* \"#utility.yul\":27161:28048   */\n    tag_687:\n      pop\n        /* \"#utility.yul\":26751:28054   */\n      pop\n      pop\n      pop\n        /* \"#utility.yul\":26659:28054   */\n      pop\n      pop\n      jump\t// out\n        /* \"#utility.yul\":28060:28254   */\n    tag_224:\n        /* \"#utility.yul\":28100:28104   */\n      0x00\n        /* \"#utility.yul\":28120:28140   */\n      tag_698\n        /* \"#utility.yul\":28138:28139   */\n      dup3\n        /* \"#utility.yul\":28120:28140   */\n      tag_342\n      jump\t// in\n    tag_698:\n        /* \"#utility.yul\":28115:28140   */\n      swap2\n      pop\n        /* \"#utility.yul\":28154:28174   */\n      tag_699\n        /* \"#utility.yul\":28172:28173   */\n      dup4\n        /* \"#utility.yul\":28154:28174   */\n      tag_342\n      jump\t// in\n    tag_699:\n        /* \"#utility.yul\":28149:28174   */\n      swap3\n      pop\n        /* \"#utility.yul\":28198:28199   */\n      dup3\n        /* \"#utility.yul\":28195:28196   */\n      dup3\n        /* \"#utility.yul\":28191:28200   */\n      sub\n        /* \"#utility.yul\":28183:28200   */\n      swap1\n      pop\n        /* \"#utility.yul\":28222:28223   */\n      dup2\n        /* \"#utility.yul\":28216:28220   */\n      dup2\n        /* \"#utility.yul\":28213:28224   */\n      gt\n        /* \"#utility.yul\":28210:28247   */\n      iszero\n      tag_700\n      jumpi\n        /* \"#utility.yul\":28227:28245   */\n      tag_701\n      tag_382\n      jump\t// in\n    tag_701:\n        /* \"#utility.yul\":28210:28247   */\n    tag_700:\n        /* \"#utility.yul\":28060:28254   */\n      swap3\n      swap2\n      pop\n      pop\n      jump\t// out\n        /* \"#utility.yul\":28260:28358   */\n    tag_401:\n        /* \"#utility.yul\":28311:28317   */\n      0x00\n        /* \"#utility.yul\":28345:28350   */\n      dup2\n        /* \"#utility.yul\":28339:28351   */\n      mload\n        /* \"#utility.yul\":28329:28351   */\n      swap1\n      pop\n        /* \"#utility.yul\":28260:28358   */\n      swap2\n      swap1\n      pop\n      jump\t// out\n        /* \"#utility.yul\":28364:28532   */\n    tag_402:\n        /* \"#utility.yul\":28447:28458   */\n      0x00\n        /* \"#utility.yul\":28481:28487   */\n      dup3\n        /* \"#utility.yul\":28476:28479   */\n      dup3\n        /* \"#utility.yul\":28469:28488   */\n      mstore\n        /* \"#utility.yul\":28521:28525   */\n      0x20\n        /* \"#utility.yul\":28516:28519   */\n      dup3\n        /* \"#utility.yul\":28512:28526   */\n      add\n        /* \"#utility.yul\":28497:28526   */\n      swap1\n      pop\n        /* \"#utility.yul\":28364:28532   */\n      swap3\n      swap2\n      pop\n      pop\n      jump\t// out\n        /* \"#utility.yul\":28538:28911   */\n    tag_403:\n        /* \"#utility.yul\":28624:28627   */\n      0x00\n        /* \"#utility.yul\":28652:28690   */\n      tag_705\n        /* \"#utility.yul\":28684:28689   */\n      dup3\n        /* \"#utility.yul\":28652:28690   */\n      tag_401\n      jump\t// in\n    tag_705:\n        /* \"#utility.yul\":28706:28776   */\n      tag_706\n        /* \"#utility.yul\":28769:28775   */\n      dup2\n        /* \"#utility.yul\":28764:28767   */\n      dup6\n        /* \"#utility.yul\":28706:28776   */\n      tag_402\n      jump\t// in\n    tag_706:\n        /* \"#utility.yul\":28699:28776   */\n      swap4\n      pop\n        /* \"#utility.yul\":28785:28850   */\n      tag_707\n        /* \"#utility.yul\":28843:28849   */\n      dup2\n        /* \"#utility.yul\":28838:28841   */\n      dup6\n        /* \"#utility.yul\":28831:28835   */\n      0x20\n        /* \"#utility.yul\":28824:28829   */\n      dup7\n        /* \"#utility.yul\":28820:28836   */\n      add\n        /* \"#utility.yul\":28785:28850   */\n      tag_339\n      jump\t// in\n    tag_707:\n        /* \"#utility.yul\":28875:28904   */\n      tag_708\n        /* \"#utility.yul\":28897:28903   */\n      dup2\n        /* \"#utility.yul\":28875:28904   */\n      tag_340\n      jump\t// in\n    tag_708:\n        /* \"#utility.yul\":28870:28873   */\n      dup5\n        /* \"#utility.yul\":28866:28905   */\n      add\n        /* \"#utility.yul\":28859:28905   */\n      swap2\n      pop\n        /* \"#utility.yul\":28628:28911   */\n      pop\n        /* \"#utility.yul\":28538:28911   */\n      swap3\n      swap2\n      pop\n      pop\n      jump\t// out\n        /* \"#utility.yul\":28917:29557   */\n    tag_285:\n        /* \"#utility.yul\":29112:29116   */\n      0x00\n        /* \"#utility.yul\":29150:29153   */\n      0x80\n        /* \"#utility.yul\":29139:29148   */\n      dup3\n        /* \"#utility.yul\":29135:29154   */\n      add\n        /* \"#utility.yul\":29127:29154   */\n      swap1\n      pop\n        /* \"#utility.yul\":29164:29235   */\n      tag_710\n        /* \"#utility.yul\":29232:29233   */\n      0x00\n        /* \"#utility.yul\":29221:29230   */\n      dup4\n        /* \"#utility.yul\":29217:29234   */\n      add\n        /* \"#utility.yul\":29208:29214   */\n      dup8\n        /* \"#utility.yul\":29164:29235   */\n      tag_347\n      jump\t// in\n    tag_710:\n        /* \"#utility.yul\":29245:29317   */\n      tag_711\n        /* \"#utility.yul\":29313:29315   */\n      0x20\n        /* \"#utility.yul\":29302:29311   */\n      dup4\n        /* \"#utility.yul\":29298:29316   */\n      add\n        /* \"#utility.yul\":29289:29295   */\n      dup7\n        /* \"#utility.yul\":29245:29317   */\n      tag_347\n      jump\t// in\n    tag_711:\n        /* \"#utility.yul\":29327:29399   */\n      tag_712\n        /* \"#utility.yul\":29395:29397   */\n      0x40\n        /* \"#utility.yul\":29384:29393   */\n      dup4\n        /* \"#utility.yul\":29380:29398   */\n      add\n        /* \"#utility.yul\":29371:29377   */\n      dup6\n        /* \"#utility.yul\":29327:29399   */\n      tag_369\n      jump\t// in\n    tag_712:\n        /* \"#utility.yul\":29446:29455   */\n      dup2\n        /* \"#utility.yul\":29440:29444   */\n      dup2\n        /* \"#utility.yul\":29436:29456   */\n      sub\n        /* \"#utility.yul\":29431:29433   */\n      0x60\n        /* \"#utility.yul\":29420:29429   */\n      dup4\n        /* \"#utility.yul\":29416:29434   */\n      add\n        /* \"#utility.yul\":29409:29457   */\n      mstore\n        /* \"#utility.yul\":29474:29550   */\n      tag_713\n        /* \"#utility.yul\":29545:29549   */\n      dup2\n        /* \"#utility.yul\":29536:29542   */\n      dup5\n        /* \"#utility.yul\":29474:29550   */\n      tag_403\n      jump\t// in\n    tag_713:\n        /* \"#utility.yul\":29466:29550   */\n      swap1\n      pop\n        /* \"#utility.yul\":28917:29557   */\n      swap6\n      swap5\n      pop\n      pop\n      pop\n      pop\n      pop\n      jump\t// out\n        /* \"#utility.yul\":29563:29704   */\n    tag_404:\n        /* \"#utility.yul\":29619:29624   */\n      0x00\n        /* \"#utility.yul\":29650:29656   */\n      dup2\n        /* \"#utility.yul\":29644:29657   */\n      mload\n        /* \"#utility.yul\":29635:29657   */\n      swap1\n      pop\n        /* \"#utility.yul\":29666:29698   */\n      tag_715\n        /* \"#utility.yul\":29692:29697   */\n      dup2\n        /* \"#utility.yul\":29666:29698   */\n      tag_333\n      jump\t// in\n    tag_715:\n        /* \"#utility.yul\":29563:29704   */\n      swap3\n      swap2\n      pop\n      pop\n      jump\t// out\n        /* \"#utility.yul\":29710:30059   */\n    tag_288:\n        /* \"#utility.yul\":29779:29785   */\n      0x00\n        /* \"#utility.yul\":29828:29830   */\n      0x20\n        /* \"#utility.yul\":29816:29825   */\n      dup3\n        /* \"#utility.yul\":29807:29814   */\n      dup5\n        /* \"#utility.yul\":29803:29826   */\n      sub\n        /* \"#utility.yul\":29799:29831   */\n      slt\n        /* \"#utility.yul\":29796:29915   */\n      iszero\n      tag_717\n      jumpi\n        /* \"#utility.yul\":29834:29913   */\n      tag_718\n      tag_330\n      jump\t// in\n    tag_718:\n        /* \"#utility.yul\":29796:29915   */\n    tag_717:\n        /* \"#utility.yul\":29954:29955   */\n      0x00\n        /* \"#utility.yul\":29979:30042   */\n      tag_719\n        /* \"#utility.yul\":30034:30041   */\n      dup5\n        /* \"#utility.yul\":30025:30031   */\n      dup3\n        /* \"#utility.yul\":30014:30023   */\n      dup6\n        /* \"#utility.yul\":30010:30032   */\n      add\n        /* \"#utility.yul\":29979:30042   */\n      tag_404\n      jump\t// in\n    tag_719:\n        /* \"#utility.yul\":29969:30042   */\n      swap2\n      pop\n        /* \"#utility.yul\":29925:30052   */\n      pop\n        /* \"#utility.yul\":29710:30059   */\n      swap3\n      swap2\n      pop\n      pop\n      jump\t// out\n        /* \"#utility.yul\":30065:30397   */\n    tag_320:\n        /* \"#utility.yul\":30186:30190   */\n      0x00\n        /* \"#utility.yul\":30224:30226   */\n      0x40\n        /* \"#utility.yul\":30213:30222   */\n      dup3\n        /* \"#utility.yul\":30209:30227   */\n      add\n        /* \"#utility.yul\":30201:30227   */\n      swap1\n      pop\n        /* \"#utility.yul\":30237:30308   */\n      tag_721\n        /* \"#utility.yul\":30305:30306   */\n      0x00\n        /* \"#utility.yul\":30294:30303   */\n      dup4\n        /* \"#utility.yul\":30290:30307   */\n      add\n        /* \"#utility.yul\":30281:30287   */\n      dup6\n        /* \"#utility.yul\":30237:30308   */\n      tag_347\n      jump\t// in\n    tag_721:\n        /* \"#utility.yul\":30318:30390   */\n      tag_722\n        /* \"#utility.yul\":30386:30388   */\n      0x20\n        /* \"#utility.yul\":30375:30384   */\n      dup4\n        /* \"#utility.yul\":30371:30389   */\n      add\n        /* \"#utility.yul\":30362:30368   */\n      dup5\n        /* \"#utility.yul\":30318:30390   */\n      tag_369\n      jump\t// in\n    tag_722:\n        /* \"#utility.yul\":30065:30397   */\n      swap4\n      swap3\n      pop\n      pop\n      pop\n      jump\t// out\n\n    auxdata: 0xa26469706673582212204fd87b09ccec83b02a7fe0c9d17eaf217b1a0b9b27ec9227c67bf1cef840d04c64736f6c63430008140033\n}\n",
				"bytecode": {
					"linkReferences": {},
					"object": "60806040525f60075534801562000014575f80fd5b50604051620030b9380380620030b983398181016040528101906200003a9190620001ee565b8181815f90816200004c9190620004a8565b5080600190816200005e9190620004a8565b50505050506200058c565b5f604051905090565b5f80fd5b5f80fd5b5f80fd5b5f80fd5b5f601f19601f8301169050919050565b7f4e487b71000000000000000000000000000000000000000000000000000000005f52604160045260245ffd5b620000ca8262000082565b810181811067ffffffffffffffff82111715620000ec57620000eb62000092565b5b80604052505050565b5f6200010062000069565b90506200010e8282620000bf565b919050565b5f67ffffffffffffffff82111562000130576200012f62000092565b5b6200013b8262000082565b9050602081019050919050565b5f5b83811015620001675780820151818401526020810190506200014a565b5f8484015250505050565b5f62000188620001828462000113565b620000f5565b905082815260208101848484011115620001a757620001a66200007e565b5b620001b484828562000148565b509392505050565b5f82601f830112620001d357620001d26200007a565b5b8151620001e584826020860162000172565b91505092915050565b5f806040838503121562000207576200020662000072565b5b5f83015167ffffffffffffffff81111562000227576200022662000076565b5b6200023585828601620001bc565b925050602083015167ffffffffffffffff81111562000259576200025862000076565b5b6200026785828601620001bc565b9150509250929050565b5f81519050919050565b7f4e487b71000000000000000000000000000000000000000000000000000000005f52602260045260245ffd5b5f6002820490506001821680620002c057607f821691505b602082108103620002d657620002d56200027b565b5b50919050565b5f819050815f5260205f209050919050565b5f6020601f8301049050919050565b5f82821b905092915050565b5f600883026200033a7fffffffffffffffffffffffffffffffffffffffffffffffffffffffffffffffff82620002fd565b620003468683620002fd565b95508019841693508086168417925050509392505050565b5f819050919050565b5f819050919050565b5f620003906200038a62000384846200035e565b62000367565b6200035e565b9050919050565b5f819050919050565b620003ab8362000370565b620003c3620003ba8262000397565b84845462000309565b825550505050565b5f90565b620003d9620003cb565b620003e6818484620003a0565b505050565b5b818110156200040d57620004015f82620003cf565b600181019050620003ec565b5050565b601f8211156200045c576200042681620002dc565b6200043184620002ee565b8101602085101562000441578190505b620004596200045085620002ee565b830182620003eb565b50505b505050565b5f82821c905092915050565b5f6200047e5f198460080262000461565b1980831691505092915050565b5f6200049883836200046d565b9150826002028217905092915050565b620004b38262000271565b67ffffffffffffffff811115620004cf57620004ce62000092565b5b620004db8254620002a8565b620004e882828562000411565b5f60209050601f8311600181146200051e575f841562000509578287015190505b6200051585826200048b565b86555062000584565b601f1984166200052e86620002dc565b5f5b82811015620005575784890151825560018201915060208501945060208101905062000530565b8683101562000577578489015162000573601f8916826200046d565b8355505b6001600288020188555050505b505050505050565b612b1f806200059a5f395ff3fe608060405234801561000f575f80fd5b506004361061012a575f3560e01c80636352211e116100ab578063a22cb4651161006f578063a22cb4651461038a578063b88d4fde146103a6578063c87b56dd146103c2578063d15a76d2146103f2578063e985e9c5146104225761012a565b80636352211e146102ac57806370a08231146102dc578063838e45371461030c5780638a55a50e1461033c57806395d89b411461036c5761012a565b806323b872dd116100f257806323b872dd146101f857806329d6724e146102145780633bb3a24d1461023057806342842e0e146102605780635f0cac761461027c5761012a565b806301ffc9a71461012e57806306fdde031461015e578063081812fc1461017c578063095ea7b3146101ac5780630a48a1ac146101c8575b5f80fd5b61014860048036038101906101439190611bee565b610452565b6040516101559190611c33565b60405180910390f35b610166610533565b6040516101739190611cd6565b60405180910390f35b61019660048036038101906101919190611d29565b6105c2565b6040516101a39190611d93565b60405180910390f35b6101c660048036038101906101c19190611dd6565b6105dd565b005b6101e260048036038101906101dd9190611e14565b6105f3565b6040516101ef9190611fc5565b60405180910390f35b610212600480360381019061020d9190611fe5565b61081e565b005b61022e6004803603810190610229919061205f565b61091d565b005b61024a60048036038101906102459190611d29565b61092c565b6040516102579190611cd6565b60405180910390f35b61027a60048036038101906102759190611fe5565b6109cf565b005b61029660048036038101906102919190611e14565b6109ee565b6040516102a3919061216a565b60405180910390f35b6102c660048036038101906102c19190611d29565b610bca565b6040516102d39190611d93565b60405180910390f35b6102f660048036038101906102f19190611e14565b610bdb565b6040516103039190612199565b60405180910390f35b610326600480360381019061032191906122de565b610c91565b6040516103339190612199565b60405180910390f35b61035660048036038101906103519190612325565b610cda565b6040516103639190611cd6565b60405180910390f35b610374610e6a565b6040516103819190611cd6565b60405180910390f35b6103a4600480360381019061039f919061239b565b610efa565b005b6103c060048036038101906103bb9190612477565b610f10565b005b6103dc60048036038101906103d79190611d29565b610f2d565b6040516103e99190611cd6565b60405180910390f35b61040c60048036038101906104079190611d29565b610fd0565b6040516104199190612199565b60405180910390f35b61043c600480360381019061043791906124f7565b610fed565b6040516104499190611c33565b60405180910390f35b5f7f80ac58cd000000000000000000000000000000000000000000000000000000007bffffffffffffffffffffffffffffffffffffffffffffffffffffffff1916827bffffffffffffffffffffffffffffffffffffffffffffffffffffffff1916148061051c57507f5b5e139f000000000000000000000000000000000000000000000000000000007bffffffffffffffffffffffffffffffffffffffffffffffffffffffff1916827bffffffffffffffffffffffffffffffffffffffffffffffffffffffff1916145b8061052c575061052b8261107b565b5b9050919050565b60605f805461054190612562565b80601f016020809104026020016040519081016040528092919081815260200182805461056d90612562565b80156105b85780601f1061058f576101008083540402835291602001916105b8565b820191905f5260205f20905b81548152906001019060200180831161059b57829003601f168201915b5050505050905090565b5f6105cc826110e4565b506105d68261116a565b9050919050565b6105ef82826105ea6111a3565b6111aa565b5050565b60605f60085f8473ffffffffffffffffffffffffffffffffffffffff1673ffffffffffffffffffffffffffffffffffffffff1681526020019081526020015f2080548060200260200160405190810160405280929190818152602001828054801561067b57602002820191905f5260205f20905b815481526020019060010190808311610667575b505050505090505f815167ffffffffffffffff81111561069e5761069d6121ba565b5b6040519080825280602002602001820160405280156106d757816020015b6106c4611b50565b8152602001906001900390816106bc5790505b5090505f5b825181101561081357604051806040016040528084838151811061070357610702612592565b5b6020026020010151815260200160065f86858151811061072657610725612592565b5b602002602001015181526020019081526020015f206040518060400160405290815f8201805461075590612562565b80601f016020809104026020016040519081016040528092919081815260200182805461078190612562565b80156107cc5780601f106107a3576101008083540402835291602001916107cc565b820191905f5260205f20905b8154815290600101906020018083116107af57829003601f168201915b505050505081526020016001820154815250508152508282815181106107f5576107f4612592565b5b6020026020010181905250808061080b906125ec565b9150506106dc565b508092505050919050565b5f73ffffffffffffffffffffffffffffffffffffffff168273ffffffffffffffffffffffffffffffffffffffff160361088e575f6040517f64a0ae920000000000000000000000000000000000000000000000000000000081526004016108859190611d93565b60405180910390fd5b5f6108a1838361089c6111a3565b6111bc565b90508373ffffffffffffffffffffffffffffffffffffffff168173ffffffffffffffffffffffffffffffffffffffff1614610917578382826040517f64283d7b00000000000000000000000000000000000000000000000000000000815260040161090e93929190612633565b60405180910390fd5b50505050565b6109278282610efa565b505050565b606060065f8381526020019081526020015f205f01805461094c90612562565b80601f016020809104026020016040519081016040528092919081815260200182805461097890612562565b80156109c35780601f1061099a576101008083540402835291602001916109c3565b820191905f5260205f20905b8154815290600101906020018083116109a657829003601f168201915b50505050509050919050565b6109e983838360405180602001604052805f815250610f10565b505050565b60605f60085f8473ffffffffffffffffffffffffffffffffffffffff1673ffffffffffffffffffffffffffffffffffffffff1681526020019081526020015f20805480602002602001604051908101604052809291908181526020018280548015610a7657602002820191905f5260205f20905b815481526020019060010190808311610a62575b505050505090505f815167ffffffffffffffff811115610a9957610a986121ba565b5b604051908082528060200260200182016040528015610acc57816020015b6060815260200190600190039081610ab75790505b5090505f5b8251811015610bbf5760065f848381518110610af057610aef612592565b5b602002602001015181526020019081526020015f205f018054610b1290612562565b80601f0160208091040260200160405190810160405280929190818152602001828054610b3e90612562565b8015610b895780601f10610b6057610100808354040283529160200191610b89565b820191905f5260205f20905b815481529060010190602001808311610b6c57829003601f168201915b5050505050828281518110610ba157610ba0612592565b5b60200260200101819052508080610bb7906125ec565b915050610ad1565b508092505050919050565b5f610bd4826110e4565b9050919050565b5f8073ffffffffffffffffffffffffffffffffffffffff168273ffffffffffffffffffffffffffffffffffffffff1603610c4c575f6040517f89c62b64000000000000000000000000000000000000000000000000000000008152600401610c439190611d93565b60405180910390fd5b60035f8373ffffffffffffffffffffffffffffffffffffffff1673ffffffffffffffffffffffffffffffffffffffff1681526020019081526020015f20549050919050565b5f6001600a83604051602001610ca791906126a2565b604051602081830303815290604052805190602001205f1c610cc991906126e5565b610cd39190612715565b9050919050565b60605f610ce683610c91565b905060405180604001604052808581526020018281525060065f60075481526020019081526020015f205f820151815f019081610d2391906128e5565b5060208201518160010155905050610d3d336007546113c7565b60085f3373ffffffffffffffffffffffffffffffffffffffff1673ffffffffffffffffffffffffffffffffffffffff1681526020019081526020015f20600754908060018154018082558091505060019003905f5260205f20015f9091909190915055600160075f828254610db29190612715565b9250508190555060065f6001600754610dcb91906129b4565b81526020019081526020015f205f018054610de590612562565b80601f0160208091040260200160405190810160405280929190818152602001828054610e1190612562565b8015610e5c5780601f10610e3357610100808354040283529160200191610e5c565b820191905f5260205f20905b815481529060010190602001808311610e3f57829003601f168201915b505050505091505092915050565b606060018054610e7990612562565b80601f0160208091040260200160405190810160405280929190818152602001828054610ea590612562565b8015610ef05780601f10610ec757610100808354040283529160200191610ef0565b820191905f5260205f20905b815481529060010190602001808311610ed357829003601f168201915b5050505050905090565b610f0c610f056111a3565b83836114ba565b5050565b610f1b84848461081e565b610f2784848484611623565b50505050565b606060065f8381526020019081526020015f205f018054610f4d90612562565b80601f0160208091040260200160405190810160405280929190818152602001828054610f7990612562565b8015610fc45780601f10610f9b57610100808354040283529160200191610fc4565b820191905f5260205f20905b815481529060010190602001808311610fa757829003601f168201915b50505050509050919050565b5f60065f8381526020019081526020015f20600101549050919050565b5f60055f8473ffffffffffffffffffffffffffffffffffffffff1673ffffffffffffffffffffffffffffffffffffffff1681526020019081526020015f205f8373ffffffffffffffffffffffffffffffffffffffff1673ffffffffffffffffffffffffffffffffffffffff1681526020019081526020015f205f9054906101000a900460ff16905092915050565b5f7f01ffc9a7000000000000000000000000000000000000000000000000000000007bffffffffffffffffffffffffffffffffffffffffffffffffffffffff1916827bffffffffffffffffffffffffffffffffffffffffffffffffffffffff1916149050919050565b5f806110ef836117d5565b90505f73ffffffffffffffffffffffffffffffffffffffff168173ffffffffffffffffffffffffffffffffffffffff160361116157826040517f7e2732890000000000000000000000000000000000000000000000000000000081526004016111589190612199565b60405180910390fd5b80915050919050565b5f60045f8381526020019081526020015f205f9054906101000a900473ffffffffffffffffffffffffffffffffffffffff169050919050565b5f33905090565b6111b7838383600161180e565b505050565b5f806111c7846117d5565b90505f73ffffffffffffffffffffffffffffffffffffffff168373ffffffffffffffffffffffffffffffffffffffff1614611208576112078184866119cd565b5b5f73ffffffffffffffffffffffffffffffffffffffff168173ffffffffffffffffffffffffffffffffffffffff1614611293576112475f855f8061180e565b600160035f8373ffffffffffffffffffffffffffffffffffffffff1673ffffffffffffffffffffffffffffffffffffffff1681526020019081526020015f205f82825403925050819055505b5f73ffffffffffffffffffffffffffffffffffffffff168573ffffffffffffffffffffffffffffffffffffffff161461131257600160035f8773ffffffffffffffffffffffffffffffffffffffff1673ffffffffffffffffffffffffffffffffffffffff1681526020019081526020015f205f82825401925050819055505b8460025f8681526020019081526020015f205f6101000a81548173ffffffffffffffffffffffffffffffffffffffff021916908373ffffffffffffffffffffffffffffffffffffffff160217905550838573ffffffffffffffffffffffffffffffffffffffff168273ffffffffffffffffffffffffffffffffffffffff167fddf252ad1be2c89b69c2b068fc378daa952ba7f163c4a11628f55a4df523b3ef60405160405180910390a4809150509392505050565b5f73ffffffffffffffffffffffffffffffffffffffff168273ffffffffffffffffffffffffffffffffffffffff1603611437575f6040517f64a0ae9200000000000000000000000000000000000000000000000000000000815260040161142e9190611d93565b60405180910390fd5b5f61144383835f6111bc565b90505f73ffffffffffffffffffffffffffffffffffffffff168173ffffffffffffffffffffffffffffffffffffffff16146114b5575f6040517f73c6ac6e0000000000000000000000000000000000000000000000000000000081526004016114ac9190611d93565b60405180910390fd5b505050565b5f73ffffffffffffffffffffffffffffffffffffffff168273ffffffffffffffffffffffffffffffffffffffff160361152a57816040517f5b08ba180000000000000000000000000000000000000000000000000000000081526004016115219190611d93565b60405180910390fd5b8060055f8573ffffffffffffffffffffffffffffffffffffffff1673ffffffffffffffffffffffffffffffffffffffff1681526020019081526020015f205f8473ffffffffffffffffffffffffffffffffffffffff1673ffffffffffffffffffffffffffffffffffffffff1681526020019081526020015f205f6101000a81548160ff0219169083151502179055508173ffffffffffffffffffffffffffffffffffffffff168373ffffffffffffffffffffffffffffffffffffffff167f17307eab39ab6107e8899845ad3d59bd9653f200f220920489ca2b5937696c31836040516116169190611c33565b60405180910390a3505050565b5f8373ffffffffffffffffffffffffffffffffffffffff163b11156117cf578273ffffffffffffffffffffffffffffffffffffffff1663150b7a026116666111a3565b8685856040518563ffffffff1660e01b81526004016116889493929190612a39565b6020604051808303815f875af19250505080156116c357506040513d601f19601f820116820180604052508101906116c09190612a97565b60015b611744573d805f81146116f1576040519150601f19603f3d011682016040523d82523d5f602084013e6116f6565b606091505b505f81510361173c57836040517f64a0ae920000000000000000000000000000000000000000000000000000000081526004016117339190611d93565b60405180910390fd5b805181602001fd5b63150b7a0260e01b7bffffffffffffffffffffffffffffffffffffffffffffffffffffffff1916817bffffffffffffffffffffffffffffffffffffffffffffffffffffffff1916146117cd57836040517f64a0ae920000000000000000000000000000000000000000000000000000000081526004016117c49190611d93565b60405180910390fd5b505b50505050565b5f60025f8381526020019081526020015f205f9054906101000a900473ffffffffffffffffffffffffffffffffffffffff169050919050565b808061184657505f73ffffffffffffffffffffffffffffffffffffffff168273ffffffffffffffffffffffffffffffffffffffff1614155b15611978575f611855846110e4565b90505f73ffffffffffffffffffffffffffffffffffffffff168373ffffffffffffffffffffffffffffffffffffffff16141580156118bf57508273ffffffffffffffffffffffffffffffffffffffff168173ffffffffffffffffffffffffffffffffffffffff1614155b80156118d257506118d08184610fed565b155b1561191457826040517fa9fbf51f00000000000000000000000000000000000000000000000000000000815260040161190b9190611d93565b60405180910390fd5b811561197657838573ffffffffffffffffffffffffffffffffffffffff168273ffffffffffffffffffffffffffffffffffffffff167f8c5be1e5ebec7d5bd14f71427d1e84f3dd0314c0f7b2291e5b200ac8c7c3b92560405160405180910390a45b505b8360045f8581526020019081526020015f205f6101000a81548173ffffffffffffffffffffffffffffffffffffffff021916908373ffffffffffffffffffffffffffffffffffffffff16021790555050505050565b6119d8838383611a90565b611a8b575f73ffffffffffffffffffffffffffffffffffffffff168373ffffffffffffffffffffffffffffffffffffffff1603611a4c57806040517f7e273289000000000000000000000000000000000000000000000000000000008152600401611a439190612199565b60405180910390fd5b81816040517f177e802f000000000000000000000000000000000000000000000000000000008152600401611a82929190612ac2565b60405180910390fd5b505050565b5f8073ffffffffffffffffffffffffffffffffffffffff168373ffffffffffffffffffffffffffffffffffffffff1614158015611b4757508273ffffffffffffffffffffffffffffffffffffffff168473ffffffffffffffffffffffffffffffffffffffff161480611b085750611b078484610fed565b5b80611b4657508273ffffffffffffffffffffffffffffffffffffffff16611b2e8361116a565b73ffffffffffffffffffffffffffffffffffffffff16145b5b90509392505050565b60405180604001604052805f8152602001611b69611b6f565b81525090565b6040518060400160405280606081526020015f81525090565b5f604051905090565b5f80fd5b5f80fd5b5f7fffffffff0000000000000000000000000000000000000000000000000000000082169050919050565b611bcd81611b99565b8114611bd7575f80fd5b50565b5f81359050611be881611bc4565b92915050565b5f60208284031215611c0357611c02611b91565b5b5f611c1084828501611bda565b91505092915050565b5f8115159050919050565b611c2d81611c19565b82525050565b5f602082019050611c465f830184611c24565b92915050565b5f81519050919050565b5f82825260208201905092915050565b5f5b83811015611c83578082015181840152602081019050611c68565b5f8484015250505050565b5f601f19601f8301169050919050565b5f611ca882611c4c565b611cb28185611c56565b9350611cc2818560208601611c66565b611ccb81611c8e565b840191505092915050565b5f6020820190508181035f830152611cee8184611c9e565b905092915050565b5f819050919050565b611d0881611cf6565b8114611d12575f80fd5b50565b5f81359050611d2381611cff565b92915050565b5f60208284031215611d3e57611d3d611b91565b5b5f611d4b84828501611d15565b91505092915050565b5f73ffffffffffffffffffffffffffffffffffffffff82169050919050565b5f611d7d82611d54565b9050919050565b611d8d81611d73565b82525050565b5f602082019050611da65f830184611d84565b92915050565b611db581611d73565b8114611dbf575f80fd5b50565b5f81359050611dd081611dac565b92915050565b5f8060408385031215611dec57611deb611b91565b5b5f611df985828601611dc2565b9250506020611e0a85828601611d15565b9150509250929050565b5f60208284031215611e2957611e28611b91565b5b5f611e3684828501611dc2565b91505092915050565b5f81519050919050565b5f82825260208201905092915050565b5f819050602082019050919050565b611e7181611cf6565b82525050565b5f82825260208201905092915050565b5f611e9182611c4c565b611e9b8185611e77565b9350611eab818560208601611c66565b611eb481611c8e565b840191505092915050565b5f604083015f8301518482035f860152611ed98282611e87565b9150506020830151611eee6020860182611e68565b508091505092915050565b5f604083015f830151611f0e5f860182611e68565b5060208301518482036020860152611f268282611ebf565b9150508091505092915050565b5f611f3e8383611ef9565b905092915050565b5f602082019050919050565b5f611f5c82611e3f565b611f668185611e49565b935083602082028501611f7885611e59565b805f5b85811015611fb35784840389528151611f948582611f33565b9450611f9f83611f46565b925060208a01995050600181019050611f7b565b50829750879550505050505092915050565b5f6020820190508181035f830152611fdd8184611f52565b905092915050565b5f805f60608486031215611ffc57611ffb611b91565b5b5f61200986828701611dc2565b935050602061201a86828701611dc2565b925050604061202b86828701611d15565b9150509250925092565b61203e81611c19565b8114612048575f80fd5b50565b5f8135905061205981612035565b92915050565b5f805f6060848603121561207657612075611b91565b5b5f61208386828701611dc2565b935050602061209486828701611dc2565b92505060406120a58682870161204b565b9150509250925092565b5f81519050919050565b5f82825260208201905092915050565b5f819050602082019050919050565b5f6120e38383611e87565b905092915050565b5f602082019050919050565b5f612101826120af565b61210b81856120b9565b93508360208202850161211d856120c9565b805f5b85811015612158578484038952815161213985826120d8565b9450612144836120eb565b925060208a01995050600181019050612120565b50829750879550505050505092915050565b5f6020820190508181035f83015261218281846120f7565b905092915050565b61219381611cf6565b82525050565b5f6020820190506121ac5f83018461218a565b92915050565b5f80fd5b5f80fd5b7f4e487b71000000000000000000000000000000000000000000000000000000005f52604160045260245ffd5b6121f082611c8e565b810181811067ffffffffffffffff8211171561220f5761220e6121ba565b5b80604052505050565b5f612221611b88565b905061222d82826121e7565b919050565b5f67ffffffffffffffff82111561224c5761224b6121ba565b5b61225582611c8e565b9050602081019050919050565b828183375f83830152505050565b5f61228261227d84612232565b612218565b90508281526020810184848401111561229e5761229d6121b6565b5b6122a9848285612262565b509392505050565b5f82601f8301126122c5576122c46121b2565b5b81356122d5848260208601612270565b91505092915050565b5f602082840312156122f3576122f2611b91565b5b5f82013567ffffffffffffffff8111156123105761230f611b95565b5b61231c848285016122b1565b91505092915050565b5f806040838503121561233b5761233a611b91565b5b5f83013567ffffffffffffffff81111561235857612357611b95565b5b612364858286016122b1565b925050602083013567ffffffffffffffff81111561238557612384611b95565b5b612391858286016122b1565b9150509250929050565b5f80604083850312156123b1576123b0611b91565b5b5f6123be85828601611dc2565b92505060206123cf8582860161204b565b9150509250929050565b5f67ffffffffffffffff8211156123f3576123f26121ba565b5b6123fc82611c8e565b9050602081019050919050565b5f61241b612416846123d9565b612218565b905082815260208101848484011115612437576124366121b6565b5b612442848285612262565b509392505050565b5f82601f83011261245e5761245d6121b2565b5b813561246e848260208601612409565b91505092915050565b5f805f806080858703121561248f5761248e611b91565b5b5f61249c87828801611dc2565b94505060206124ad87828801611dc2565b93505060406124be87828801611d15565b925050606085013567ffffffffffffffff8111156124df576124de611b95565b5b6124eb8782880161244a565b91505092959194509250565b5f806040838503121561250d5761250c611b91565b5b5f61251a85828601611dc2565b925050602061252b85828601611dc2565b9150509250929050565b7f4e487b71000000000000000000000000000000000000000000000000000000005f52602260045260245ffd5b5f600282049050600182168061257957607f821691505b60208210810361258c5761258b612535565b5b50919050565b7f4e487b71000000000000000000000000000000000000000000000000000000005f52603260045260245ffd5b7f4e487b71000000000000000000000000000000000000000000000000000000005f52601160045260245ffd5b5f6125f682611cf6565b91507fffffffffffffffffffffffffffffffffffffffffffffffffffffffffffffffff8203612628576126276125bf565b5b600182019050919050565b5f6060820190506126465f830186611d84565b612653602083018561218a565b6126606040830184611d84565b949350505050565b5f81905092915050565b5f61267c82611c4c565b6126868185612668565b9350612696818560208601611c66565b80840191505092915050565b5f6126ad8284612672565b915081905092915050565b7f4e487b71000000000000000000000000000000000000000000000000000000005f52601260045260245ffd5b5f6126ef82611cf6565b91506126fa83611cf6565b92508261270a576127096126b8565b5b828206905092915050565b5f61271f82611cf6565b915061272a83611cf6565b9250828201905080821115612742576127416125bf565b5b92915050565b5f819050815f5260205f209050919050565b5f6020601f8301049050919050565b5f82821b905092915050565b5f600883026127a47fffffffffffffffffffffffffffffffffffffffffffffffffffffffffffffffff82612769565b6127ae8683612769565b95508019841693508086168417925050509392505050565b5f819050919050565b5f6127e96127e46127df84611cf6565b6127c6565b611cf6565b9050919050565b5f819050919050565b612802836127cf565b61281661280e826127f0565b848454612775565b825550505050565b5f90565b61282a61281e565b6128358184846127f9565b505050565b5b818110156128585761284d5f82612822565b60018101905061283b565b5050565b601f82111561289d5761286e81612748565b6128778461275a565b81016020851015612886578190505b61289a6128928561275a565b83018261283a565b50505b505050565b5f82821c905092915050565b5f6128bd5f19846008026128a2565b1980831691505092915050565b5f6128d583836128ae565b9150826002028217905092915050565b6128ee82611c4c565b67ffffffffffffffff811115612907576129066121ba565b5b6129118254612562565b61291c82828561285c565b5f60209050601f83116001811461294d575f841561293b578287015190505b61294585826128ca565b8655506129ac565b601f19841661295b86612748565b5f5b828110156129825784890151825560018201915060208501945060208101905061295d565b8683101561299f578489015161299b601f8916826128ae565b8355505b6001600288020188555050505b505050505050565b5f6129be82611cf6565b91506129c983611cf6565b92508282039050818111156129e1576129e06125bf565b5b92915050565b5f81519050919050565b5f82825260208201905092915050565b5f612a0b826129e7565b612a1581856129f1565b9350612a25818560208601611c66565b612a2e81611c8e565b840191505092915050565b5f608082019050612a4c5f830187611d84565b612a596020830186611d84565b612a66604083018561218a565b8181036060830152612a788184612a01565b905095945050505050565b5f81519050612a9181611bc4565b92915050565b5f60208284031215612aac57612aab611b91565b5b5f612ab984828501612a83565b91505092915050565b5f604082019050612ad55f830185611d84565b612ae2602083018461218a565b939250505056fea26469706673582212204fd87b09ccec83b02a7fe0c9d17eaf217b1a0b9b27ec9227c67bf1cef840d04c64736f6c63430008140033",
					"opcodes": "PUSH1 0x80 PUSH1 0x40 MSTORE PUSH0 PUSH1 0x7 SSTORE CALLVALUE DUP1 ISZERO PUSH3 0x14 JUMPI PUSH0 DUP1 REVERT JUMPDEST POP PUSH1 0x40 MLOAD PUSH3 0x30B9 CODESIZE SUB DUP1 PUSH3 0x30B9 DUP4 CODECOPY DUP2 DUP2 ADD PUSH1 0x40 MSTORE DUP2 ADD SWAP1 PUSH3 0x3A SWAP2 SWAP1 PUSH3 0x1EE JUMP JUMPDEST DUP2 DUP2 DUP2 PUSH0 SWAP1 DUP2 PUSH3 0x4C SWAP2 SWAP1 PUSH3 0x4A8 JUMP JUMPDEST POP DUP1 PUSH1 0x1 SWAP1 DUP2 PUSH3 0x5E SWAP2 SWAP1 PUSH3 0x4A8 JUMP JUMPDEST POP POP POP POP POP PUSH3 0x58C JUMP JUMPDEST PUSH0 PUSH1 0x40 MLOAD SWAP1 POP SWAP1 JUMP JUMPDEST PUSH0 DUP1 REVERT JUMPDEST PUSH0 DUP1 REVERT JUMPDEST PUSH0 DUP1 REVERT JUMPDEST PUSH0 DUP1 REVERT JUMPDEST PUSH0 PUSH1 0x1F NOT PUSH1 0x1F DUP4 ADD AND SWAP1 POP SWAP2 SWAP1 POP JUMP JUMPDEST PUSH32 0x4E487B7100000000000000000000000000000000000000000000000000000000 PUSH0 MSTORE PUSH1 0x41 PUSH1 0x4 MSTORE PUSH1 0x24 PUSH0 REVERT JUMPDEST PUSH3 0xCA DUP3 PUSH3 0x82 JUMP JUMPDEST DUP2 ADD DUP2 DUP2 LT PUSH8 0xFFFFFFFFFFFFFFFF DUP3 GT OR ISZERO PUSH3 0xEC JUMPI PUSH3 0xEB PUSH3 0x92 JUMP JUMPDEST JUMPDEST DUP1 PUSH1 0x40 MSTORE POP POP POP JUMP JUMPDEST PUSH0 PUSH3 0x100 PUSH3 0x69 JUMP JUMPDEST SWAP1 POP PUSH3 0x10E DUP3 DUP3 PUSH3 0xBF JUMP JUMPDEST SWAP2 SWAP1 POP JUMP JUMPDEST PUSH0 PUSH8 0xFFFFFFFFFFFFFFFF DUP3 GT ISZERO PUSH3 0x130 JUMPI PUSH3 0x12F PUSH3 0x92 JUMP JUMPDEST JUMPDEST PUSH3 0x13B DUP3 PUSH3 0x82 JUMP JUMPDEST SWAP1 POP PUSH1 0x20 DUP2 ADD SWAP1 POP SWAP2 SWAP1 POP JUMP JUMPDEST PUSH0 JUMPDEST DUP4 DUP2 LT ISZERO PUSH3 0x167 JUMPI DUP1 DUP3 ADD MLOAD DUP2 DUP5 ADD MSTORE PUSH1 0x20 DUP2 ADD SWAP1 POP PUSH3 0x14A JUMP JUMPDEST PUSH0 DUP5 DUP5 ADD MSTORE POP POP POP POP JUMP JUMPDEST PUSH0 PUSH3 0x188 PUSH3 0x182 DUP5 PUSH3 0x113 JUMP JUMPDEST PUSH3 0xF5 JUMP JUMPDEST SWAP1 POP DUP3 DUP2 MSTORE PUSH1 0x20 DUP2 ADD DUP5 DUP5 DUP5 ADD GT ISZERO PUSH3 0x1A7 JUMPI PUSH3 0x1A6 PUSH3 0x7E JUMP JUMPDEST JUMPDEST PUSH3 0x1B4 DUP5 DUP3 DUP6 PUSH3 0x148 JUMP JUMPDEST POP SWAP4 SWAP3 POP POP POP JUMP JUMPDEST PUSH0 DUP3 PUSH1 0x1F DUP4 ADD SLT PUSH3 0x1D3 JUMPI PUSH3 0x1D2 PUSH3 0x7A JUMP JUMPDEST JUMPDEST DUP2 MLOAD PUSH3 0x1E5 DUP5 DUP3 PUSH1 0x20 DUP7 ADD PUSH3 0x172 JUMP JUMPDEST SWAP2 POP POP SWAP3 SWAP2 POP POP JUMP JUMPDEST PUSH0 DUP1 PUSH1 0x40 DUP4 DUP6 SUB SLT ISZERO PUSH3 0x207 JUMPI PUSH3 0x206 PUSH3 0x72 JUMP JUMPDEST JUMPDEST PUSH0 DUP4 ADD MLOAD PUSH8 0xFFFFFFFFFFFFFFFF DUP2 GT ISZERO PUSH3 0x227 JUMPI PUSH3 0x226 PUSH3 0x76 JUMP JUMPDEST JUMPDEST PUSH3 0x235 DUP6 DUP3 DUP7 ADD PUSH3 0x1BC JUMP JUMPDEST SWAP3 POP POP PUSH1 0x20 DUP4 ADD MLOAD PUSH8 0xFFFFFFFFFFFFFFFF DUP2 GT ISZERO PUSH3 0x259 JUMPI PUSH3 0x258 PUSH3 0x76 JUMP JUMPDEST JUMPDEST PUSH3 0x267 DUP6 DUP3 DUP7 ADD PUSH3 0x1BC JUMP JUMPDEST SWAP2 POP POP SWAP3 POP SWAP3 SWAP1 POP JUMP JUMPDEST PUSH0 DUP2 MLOAD SWAP1 POP SWAP2 SWAP1 POP JUMP JUMPDEST PUSH32 0x4E487B7100000000000000000000000000000000000000000000000000000000 PUSH0 MSTORE PUSH1 0x22 PUSH1 0x4 MSTORE PUSH1 0x24 PUSH0 REVERT JUMPDEST PUSH0 PUSH1 0x2 DUP3 DIV SWAP1 POP PUSH1 0x1 DUP3 AND DUP1 PUSH3 0x2C0 JUMPI PUSH1 0x7F DUP3 AND SWAP2 POP JUMPDEST PUSH1 0x20 DUP3 LT DUP2 SUB PUSH3 0x2D6 JUMPI PUSH3 0x2D5 PUSH3 0x27B JUMP JUMPDEST JUMPDEST POP SWAP2 SWAP1 POP JUMP JUMPDEST PUSH0 DUP2 SWAP1 POP DUP2 PUSH0 MSTORE PUSH1 0x20 PUSH0 KECCAK256 SWAP1 POP SWAP2 SWAP1 POP JUMP JUMPDEST PUSH0 PUSH1 0x20 PUSH1 0x1F DUP4 ADD DIV SWAP1 POP SWAP2 SWAP1 POP JUMP JUMPDEST PUSH0 DUP3 DUP3 SHL SWAP1 POP SWAP3 SWAP2 POP POP JUMP JUMPDEST PUSH0 PUSH1 0x8 DUP4 MUL PUSH3 0x33A PUSH32 0xFFFFFFFFFFFFFFFFFFFFFFFFFFFFFFFFFFFFFFFFFFFFFFFFFFFFFFFFFFFFFFFF DUP3 PUSH3 0x2FD JUMP JUMPDEST PUSH3 0x346 DUP7 DUP4 PUSH3 0x2FD JUMP JUMPDEST SWAP6 POP DUP1 NOT DUP5 AND SWAP4 POP DUP1 DUP7 AND DUP5 OR SWAP3 POP POP POP SWAP4 SWAP3 POP POP POP JUMP JUMPDEST PUSH0 DUP2 SWAP1 POP SWAP2 SWAP1 POP JUMP JUMPDEST PUSH0 DUP2 SWAP1 POP SWAP2 SWAP1 POP JUMP JUMPDEST PUSH0 PUSH3 0x390 PUSH3 0x38A PUSH3 0x384 DUP5 PUSH3 0x35E JUMP JUMPDEST PUSH3 0x367 JUMP JUMPDEST PUSH3 0x35E JUMP JUMPDEST SWAP1 POP SWAP2 SWAP1 POP JUMP JUMPDEST PUSH0 DUP2 SWAP1 POP SWAP2 SWAP1 POP JUMP JUMPDEST PUSH3 0x3AB DUP4 PUSH3 0x370 JUMP JUMPDEST PUSH3 0x3C3 PUSH3 0x3BA DUP3 PUSH3 0x397 JUMP JUMPDEST DUP5 DUP5 SLOAD PUSH3 0x309 JUMP JUMPDEST DUP3 SSTORE POP POP POP POP JUMP JUMPDEST PUSH0 SWAP1 JUMP JUMPDEST PUSH3 0x3D9 PUSH3 0x3CB JUMP JUMPDEST PUSH3 0x3E6 DUP2 DUP5 DUP5 PUSH3 0x3A0 JUMP JUMPDEST POP POP POP JUMP JUMPDEST JUMPDEST DUP2 DUP2 LT ISZERO PUSH3 0x40D JUMPI PUSH3 0x401 PUSH0 DUP3 PUSH3 0x3CF JUMP JUMPDEST PUSH1 0x1 DUP2 ADD SWAP1 POP PUSH3 0x3EC JUMP JUMPDEST POP POP JUMP JUMPDEST PUSH1 0x1F DUP3 GT ISZERO PUSH3 0x45C JUMPI PUSH3 0x426 DUP2 PUSH3 0x2DC JUMP JUMPDEST PUSH3 0x431 DUP5 PUSH3 0x2EE JUMP JUMPDEST DUP2 ADD PUSH1 0x20 DUP6 LT ISZERO PUSH3 0x441 JUMPI DUP2 SWAP1 POP JUMPDEST PUSH3 0x459 PUSH3 0x450 DUP6 PUSH3 0x2EE JUMP JUMPDEST DUP4 ADD DUP3 PUSH3 0x3EB JUMP JUMPDEST POP POP JUMPDEST POP POP POP JUMP JUMPDEST PUSH0 DUP3 DUP3 SHR SWAP1 POP SWAP3 SWAP2 POP POP JUMP JUMPDEST PUSH0 PUSH3 0x47E PUSH0 NOT DUP5 PUSH1 0x8 MUL PUSH3 0x461 JUMP JUMPDEST NOT DUP1 DUP4 AND SWAP2 POP POP SWAP3 SWAP2 POP POP JUMP JUMPDEST PUSH0 PUSH3 0x498 DUP4 DUP4 PUSH3 0x46D JUMP JUMPDEST SWAP2 POP DUP3 PUSH1 0x2 MUL DUP3 OR SWAP1 POP SWAP3 SWAP2 POP POP JUMP JUMPDEST PUSH3 0x4B3 DUP3 PUSH3 0x271 JUMP JUMPDEST PUSH8 0xFFFFFFFFFFFFFFFF DUP2 GT ISZERO PUSH3 0x4CF JUMPI PUSH3 0x4CE PUSH3 0x92 JUMP JUMPDEST JUMPDEST PUSH3 0x4DB DUP3 SLOAD PUSH3 0x2A8 JUMP JUMPDEST PUSH3 0x4E8 DUP3 DUP3 DUP6 PUSH3 0x411 JUMP JUMPDEST PUSH0 PUSH1 0x20 SWAP1 POP PUSH1 0x1F DUP4 GT PUSH1 0x1 DUP2 EQ PUSH3 0x51E JUMPI PUSH0 DUP5 ISZERO PUSH3 0x509 JUMPI DUP3 DUP8 ADD MLOAD SWAP1 POP JUMPDEST PUSH3 0x515 DUP6 DUP3 PUSH3 0x48B JUMP JUMPDEST DUP7 SSTORE POP PUSH3 0x584 JUMP JUMPDEST PUSH1 0x1F NOT DUP5 AND PUSH3 0x52E DUP7 PUSH3 0x2DC JUMP JUMPDEST PUSH0 JUMPDEST DUP3 DUP2 LT ISZERO PUSH3 0x557 JUMPI DUP5 DUP10 ADD MLOAD DUP3 SSTORE PUSH1 0x1 DUP3 ADD SWAP2 POP PUSH1 0x20 DUP6 ADD SWAP5 POP PUSH1 0x20 DUP2 ADD SWAP1 POP PUSH3 0x530 JUMP JUMPDEST DUP7 DUP4 LT ISZERO PUSH3 0x577 JUMPI DUP5 DUP10 ADD MLOAD PUSH3 0x573 PUSH1 0x1F DUP10 AND DUP3 PUSH3 0x46D JUMP JUMPDEST DUP4 SSTORE POP JUMPDEST PUSH1 0x1 PUSH1 0x2 DUP9 MUL ADD DUP9 SSTORE POP POP POP JUMPDEST POP POP POP POP POP POP JUMP JUMPDEST PUSH2 0x2B1F DUP1 PUSH3 0x59A PUSH0 CODECOPY PUSH0 RETURN INVALID PUSH1 0x80 PUSH1 0x40 MSTORE CALLVALUE DUP1 ISZERO PUSH2 0xF JUMPI PUSH0 DUP1 REVERT JUMPDEST POP PUSH1 0x4 CALLDATASIZE LT PUSH2 0x12A JUMPI PUSH0 CALLDATALOAD PUSH1 0xE0 SHR DUP1 PUSH4 0x6352211E GT PUSH2 0xAB JUMPI DUP1 PUSH4 0xA22CB465 GT PUSH2 0x6F JUMPI DUP1 PUSH4 0xA22CB465 EQ PUSH2 0x38A JUMPI DUP1 PUSH4 0xB88D4FDE EQ PUSH2 0x3A6 JUMPI DUP1 PUSH4 0xC87B56DD EQ PUSH2 0x3C2 JUMPI DUP1 PUSH4 0xD15A76D2 EQ PUSH2 0x3F2 JUMPI DUP1 PUSH4 0xE985E9C5 EQ PUSH2 0x422 JUMPI PUSH2 0x12A JUMP JUMPDEST DUP1 PUSH4 0x6352211E EQ PUSH2 0x2AC JUMPI DUP1 PUSH4 0x70A08231 EQ PUSH2 0x2DC JUMPI DUP1 PUSH4 0x838E4537 EQ PUSH2 0x30C JUMPI DUP1 PUSH4 0x8A55A50E EQ PUSH2 0x33C JUMPI DUP1 PUSH4 0x95D89B41 EQ PUSH2 0x36C JUMPI PUSH2 0x12A JUMP JUMPDEST DUP1 PUSH4 0x23B872DD GT PUSH2 0xF2 JUMPI DUP1 PUSH4 0x23B872DD EQ PUSH2 0x1F8 JUMPI DUP1 PUSH4 0x29D6724E EQ PUSH2 0x214 JUMPI DUP1 PUSH4 0x3BB3A24D EQ PUSH2 0x230 JUMPI DUP1 PUSH4 0x42842E0E EQ PUSH2 0x260 JUMPI DUP1 PUSH4 0x5F0CAC76 EQ PUSH2 0x27C JUMPI PUSH2 0x12A JUMP JUMPDEST DUP1 PUSH4 0x1FFC9A7 EQ PUSH2 0x12E JUMPI DUP1 PUSH4 0x6FDDE03 EQ PUSH2 0x15E JUMPI DUP1 PUSH4 0x81812FC EQ PUSH2 0x17C JUMPI DUP1 PUSH4 0x95EA7B3 EQ PUSH2 0x1AC JUMPI DUP1 PUSH4 0xA48A1AC EQ PUSH2 0x1C8 JUMPI JUMPDEST PUSH0 DUP1 REVERT JUMPDEST PUSH2 0x148 PUSH1 0x4 DUP1 CALLDATASIZE SUB DUP2 ADD SWAP1 PUSH2 0x143 SWAP2 SWAP1 PUSH2 0x1BEE JUMP JUMPDEST PUSH2 0x452 JUMP JUMPDEST PUSH1 0x40 MLOAD PUSH2 0x155 SWAP2 SWAP1 PUSH2 0x1C33 JUMP JUMPDEST PUSH1 0x40 MLOAD DUP1 SWAP2 SUB SWAP1 RETURN JUMPDEST PUSH2 0x166 PUSH2 0x533 JUMP JUMPDEST PUSH1 0x40 MLOAD PUSH2 0x173 SWAP2 SWAP1 PUSH2 0x1CD6 JUMP JUMPDEST PUSH1 0x40 MLOAD DUP1 SWAP2 SUB SWAP1 RETURN JUMPDEST PUSH2 0x196 PUSH1 0x4 DUP1 CALLDATASIZE SUB DUP2 ADD SWAP1 PUSH2 0x191 SWAP2 SWAP1 PUSH2 0x1D29 JUMP JUMPDEST PUSH2 0x5C2 JUMP JUMPDEST PUSH1 0x40 MLOAD PUSH2 0x1A3 SWAP2 SWAP1 PUSH2 0x1D93 JUMP JUMPDEST PUSH1 0x40 MLOAD DUP1 SWAP2 SUB SWAP1 RETURN JUMPDEST PUSH2 0x1C6 PUSH1 0x4 DUP1 CALLDATASIZE SUB DUP2 ADD SWAP1 PUSH2 0x1C1 SWAP2 SWAP1 PUSH2 0x1DD6 JUMP JUMPDEST PUSH2 0x5DD JUMP JUMPDEST STOP JUMPDEST PUSH2 0x1E2 PUSH1 0x4 DUP1 CALLDATASIZE SUB DUP2 ADD SWAP1 PUSH2 0x1DD SWAP2 SWAP1 PUSH2 0x1E14 JUMP JUMPDEST PUSH2 0x5F3 JUMP JUMPDEST PUSH1 0x40 MLOAD PUSH2 0x1EF SWAP2 SWAP1 PUSH2 0x1FC5 JUMP JUMPDEST PUSH1 0x40 MLOAD DUP1 SWAP2 SUB SWAP1 RETURN JUMPDEST PUSH2 0x212 PUSH1 0x4 DUP1 CALLDATASIZE SUB DUP2 ADD SWAP1 PUSH2 0x20D SWAP2 SWAP1 PUSH2 0x1FE5 JUMP JUMPDEST PUSH2 0x81E JUMP JUMPDEST STOP JUMPDEST PUSH2 0x22E PUSH1 0x4 DUP1 CALLDATASIZE SUB DUP2 ADD SWAP1 PUSH2 0x229 SWAP2 SWAP1 PUSH2 0x205F JUMP JUMPDEST PUSH2 0x91D JUMP JUMPDEST STOP JUMPDEST PUSH2 0x24A PUSH1 0x4 DUP1 CALLDATASIZE SUB DUP2 ADD SWAP1 PUSH2 0x245 SWAP2 SWAP1 PUSH2 0x1D29 JUMP JUMPDEST PUSH2 0x92C JUMP JUMPDEST PUSH1 0x40 MLOAD PUSH2 0x257 SWAP2 SWAP1 PUSH2 0x1CD6 JUMP JUMPDEST PUSH1 0x40 MLOAD DUP1 SWAP2 SUB SWAP1 RETURN JUMPDEST PUSH2 0x27A PUSH1 0x4 DUP1 CALLDATASIZE SUB DUP2 ADD SWAP1 PUSH2 0x275 SWAP2 SWAP1 PUSH2 0x1FE5 JUMP JUMPDEST PUSH2 0x9CF JUMP JUMPDEST STOP JUMPDEST PUSH2 0x296 PUSH1 0x4 DUP1 CALLDATASIZE SUB DUP2 ADD SWAP1 PUSH2 0x291 SWAP2 SWAP1 PUSH2 0x1E14 JUMP JUMPDEST PUSH2 0x9EE JUMP JUMPDEST PUSH1 0x40 MLOAD PUSH2 0x2A3 SWAP2 SWAP1 PUSH2 0x216A JUMP JUMPDEST PUSH1 0x40 MLOAD DUP1 SWAP2 SUB SWAP1 RETURN JUMPDEST PUSH2 0x2C6 PUSH1 0x4 DUP1 CALLDATASIZE SUB DUP2 ADD SWAP1 PUSH2 0x2C1 SWAP2 SWAP1 PUSH2 0x1D29 JUMP JUMPDEST PUSH2 0xBCA JUMP JUMPDEST PUSH1 0x40 MLOAD PUSH2 0x2D3 SWAP2 SWAP1 PUSH2 0x1D93 JUMP JUMPDEST PUSH1 0x40 MLOAD DUP1 SWAP2 SUB SWAP1 RETURN JUMPDEST PUSH2 0x2F6 PUSH1 0x4 DUP1 CALLDATASIZE SUB DUP2 ADD SWAP1 PUSH2 0x2F1 SWAP2 SWAP1 PUSH2 0x1E14 JUMP JUMPDEST PUSH2 0xBDB JUMP JUMPDEST PUSH1 0x40 MLOAD PUSH2 0x303 SWAP2 SWAP1 PUSH2 0x2199 JUMP JUMPDEST PUSH1 0x40 MLOAD DUP1 SWAP2 SUB SWAP1 RETURN JUMPDEST PUSH2 0x326 PUSH1 0x4 DUP1 CALLDATASIZE SUB DUP2 ADD SWAP1 PUSH2 0x321 SWAP2 SWAP1 PUSH2 0x22DE JUMP JUMPDEST PUSH2 0xC91 JUMP JUMPDEST PUSH1 0x40 MLOAD PUSH2 0x333 SWAP2 SWAP1 PUSH2 0x2199 JUMP JUMPDEST PUSH1 0x40 MLOAD DUP1 SWAP2 SUB SWAP1 RETURN JUMPDEST PUSH2 0x356 PUSH1 0x4 DUP1 CALLDATASIZE SUB DUP2 ADD SWAP1 PUSH2 0x351 SWAP2 SWAP1 PUSH2 0x2325 JUMP JUMPDEST PUSH2 0xCDA JUMP JUMPDEST PUSH1 0x40 MLOAD PUSH2 0x363 SWAP2 SWAP1 PUSH2 0x1CD6 JUMP JUMPDEST PUSH1 0x40 MLOAD DUP1 SWAP2 SUB SWAP1 RETURN JUMPDEST PUSH2 0x374 PUSH2 0xE6A JUMP JUMPDEST PUSH1 0x40 MLOAD PUSH2 0x381 SWAP2 SWAP1 PUSH2 0x1CD6 JUMP JUMPDEST PUSH1 0x40 MLOAD DUP1 SWAP2 SUB SWAP1 RETURN JUMPDEST PUSH2 0x3A4 PUSH1 0x4 DUP1 CALLDATASIZE SUB DUP2 ADD SWAP1 PUSH2 0x39F SWAP2 SWAP1 PUSH2 0x239B JUMP JUMPDEST PUSH2 0xEFA JUMP JUMPDEST STOP JUMPDEST PUSH2 0x3C0 PUSH1 0x4 DUP1 CALLDATASIZE SUB DUP2 ADD SWAP1 PUSH2 0x3BB SWAP2 SWAP1 PUSH2 0x2477 JUMP JUMPDEST PUSH2 0xF10 JUMP JUMPDEST STOP JUMPDEST PUSH2 0x3DC PUSH1 0x4 DUP1 CALLDATASIZE SUB DUP2 ADD SWAP1 PUSH2 0x3D7 SWAP2 SWAP1 PUSH2 0x1D29 JUMP JUMPDEST PUSH2 0xF2D JUMP JUMPDEST PUSH1 0x40 MLOAD PUSH2 0x3E9 SWAP2 SWAP1 PUSH2 0x1CD6 JUMP JUMPDEST PUSH1 0x40 MLOAD DUP1 SWAP2 SUB SWAP1 RETURN JUMPDEST PUSH2 0x40C PUSH1 0x4 DUP1 CALLDATASIZE SUB DUP2 ADD SWAP1 PUSH2 0x407 SWAP2 SWAP1 PUSH2 0x1D29 JUMP JUMPDEST PUSH2 0xFD0 JUMP JUMPDEST PUSH1 0x40 MLOAD PUSH2 0x419 SWAP2 SWAP1 PUSH2 0x2199 JUMP JUMPDEST PUSH1 0x40 MLOAD DUP1 SWAP2 SUB SWAP1 RETURN JUMPDEST PUSH2 0x43C PUSH1 0x4 DUP1 CALLDATASIZE SUB DUP2 ADD SWAP1 PUSH2 0x437 SWAP2 SWAP1 PUSH2 0x24F7 JUMP JUMPDEST PUSH2 0xFED JUMP JUMPDEST PUSH1 0x40 MLOAD PUSH2 0x449 SWAP2 SWAP1 PUSH2 0x1C33 JUMP JUMPDEST PUSH1 0x40 MLOAD DUP1 SWAP2 SUB SWAP1 RETURN JUMPDEST PUSH0 PUSH32 0x80AC58CD00000000000000000000000000000000000000000000000000000000 PUSH28 0xFFFFFFFFFFFFFFFFFFFFFFFFFFFFFFFFFFFFFFFFFFFFFFFFFFFFFFFF NOT AND DUP3 PUSH28 0xFFFFFFFFFFFFFFFFFFFFFFFFFFFFFFFFFFFFFFFFFFFFFFFFFFFFFFFF NOT AND EQ DUP1 PUSH2 0x51C JUMPI POP PUSH32 0x5B5E139F00000000000000000000000000000000000000000000000000000000 PUSH28 0xFFFFFFFFFFFFFFFFFFFFFFFFFFFFFFFFFFFFFFFFFFFFFFFFFFFFFFFF NOT AND DUP3 PUSH28 0xFFFFFFFFFFFFFFFFFFFFFFFFFFFFFFFFFFFFFFFFFFFFFFFFFFFFFFFF NOT AND EQ JUMPDEST DUP1 PUSH2 0x52C JUMPI POP PUSH2 0x52B DUP3 PUSH2 0x107B JUMP JUMPDEST JUMPDEST SWAP1 POP SWAP2 SWAP1 POP JUMP JUMPDEST PUSH1 0x60 PUSH0 DUP1 SLOAD PUSH2 0x541 SWAP1 PUSH2 0x2562 JUMP JUMPDEST DUP1 PUSH1 0x1F ADD PUSH1 0x20 DUP1 SWAP2 DIV MUL PUSH1 0x20 ADD PUSH1 0x40 MLOAD SWAP1 DUP2 ADD PUSH1 0x40 MSTORE DUP1 SWAP3 SWAP2 SWAP1 DUP2 DUP2 MSTORE PUSH1 0x20 ADD DUP3 DUP1 SLOAD PUSH2 0x56D SWAP1 PUSH2 0x2562 JUMP JUMPDEST DUP1 ISZERO PUSH2 0x5B8 JUMPI DUP1 PUSH1 0x1F LT PUSH2 0x58F JUMPI PUSH2 0x100 DUP1 DUP4 SLOAD DIV MUL DUP4 MSTORE SWAP2 PUSH1 0x20 ADD SWAP2 PUSH2 0x5B8 JUMP JUMPDEST DUP3 ADD SWAP2 SWAP1 PUSH0 MSTORE PUSH1 0x20 PUSH0 KECCAK256 SWAP1 JUMPDEST DUP2 SLOAD DUP2 MSTORE SWAP1 PUSH1 0x1 ADD SWAP1 PUSH1 0x20 ADD DUP1 DUP4 GT PUSH2 0x59B JUMPI DUP3 SWAP1 SUB PUSH1 0x1F AND DUP3 ADD SWAP2 JUMPDEST POP POP POP POP POP SWAP1 POP SWAP1 JUMP JUMPDEST PUSH0 PUSH2 0x5CC DUP3 PUSH2 0x10E4 JUMP JUMPDEST POP PUSH2 0x5D6 DUP3 PUSH2 0x116A JUMP JUMPDEST SWAP1 POP SWAP2 SWAP1 POP JUMP JUMPDEST PUSH2 0x5EF DUP3 DUP3 PUSH2 0x5EA PUSH2 0x11A3 JUMP JUMPDEST PUSH2 0x11AA JUMP JUMPDEST POP POP JUMP JUMPDEST PUSH1 0x60 PUSH0 PUSH1 0x8 PUSH0 DUP5 PUSH20 0xFFFFFFFFFFFFFFFFFFFFFFFFFFFFFFFFFFFFFFFF AND PUSH20 0xFFFFFFFFFFFFFFFFFFFFFFFFFFFFFFFFFFFFFFFF AND DUP2 MSTORE PUSH1 0x20 ADD SWAP1 DUP2 MSTORE PUSH1 0x20 ADD PUSH0 KECCAK256 DUP1 SLOAD DUP1 PUSH1 0x20 MUL PUSH1 0x20 ADD PUSH1 0x40 MLOAD SWAP1 DUP2 ADD PUSH1 0x40 MSTORE DUP1 SWAP3 SWAP2 SWAP1 DUP2 DUP2 MSTORE PUSH1 0x20 ADD DUP3 DUP1 SLOAD DUP1 ISZERO PUSH2 0x67B JUMPI PUSH1 0x20 MUL DUP3 ADD SWAP2 SWAP1 PUSH0 MSTORE PUSH1 0x20 PUSH0 KECCAK256 SWAP1 JUMPDEST DUP2 SLOAD DUP2 MSTORE PUSH1 0x20 ADD SWAP1 PUSH1 0x1 ADD SWAP1 DUP1 DUP4 GT PUSH2 0x667 JUMPI JUMPDEST POP POP POP POP POP SWAP1 POP PUSH0 DUP2 MLOAD PUSH8 0xFFFFFFFFFFFFFFFF DUP2 GT ISZERO PUSH2 0x69E JUMPI PUSH2 0x69D PUSH2 0x21BA JUMP JUMPDEST JUMPDEST PUSH1 0x40 MLOAD SWAP1 DUP1 DUP3 MSTORE DUP1 PUSH1 0x20 MUL PUSH1 0x20 ADD DUP3 ADD PUSH1 0x40 MSTORE DUP1 ISZERO PUSH2 0x6D7 JUMPI DUP2 PUSH1 0x20 ADD JUMPDEST PUSH2 0x6C4 PUSH2 0x1B50 JUMP JUMPDEST DUP2 MSTORE PUSH1 0x20 ADD SWAP1 PUSH1 0x1 SWAP1 SUB SWAP1 DUP2 PUSH2 0x6BC JUMPI SWAP1 POP JUMPDEST POP SWAP1 POP PUSH0 JUMPDEST DUP3 MLOAD DUP2 LT ISZERO PUSH2 0x813 JUMPI PUSH1 0x40 MLOAD DUP1 PUSH1 0x40 ADD PUSH1 0x40 MSTORE DUP1 DUP5 DUP4 DUP2 MLOAD DUP2 LT PUSH2 0x703 JUMPI PUSH2 0x702 PUSH2 0x2592 JUMP JUMPDEST JUMPDEST PUSH1 0x20 MUL PUSH1 0x20 ADD ADD MLOAD DUP2 MSTORE PUSH1 0x20 ADD PUSH1 0x6 PUSH0 DUP7 DUP6 DUP2 MLOAD DUP2 LT PUSH2 0x726 JUMPI PUSH2 0x725 PUSH2 0x2592 JUMP JUMPDEST JUMPDEST PUSH1 0x20 MUL PUSH1 0x20 ADD ADD MLOAD DUP2 MSTORE PUSH1 0x20 ADD SWAP1 DUP2 MSTORE PUSH1 0x20 ADD PUSH0 KECCAK256 PUSH1 0x40 MLOAD DUP1 PUSH1 0x40 ADD PUSH1 0x40 MSTORE SWAP1 DUP2 PUSH0 DUP3 ADD DUP1 SLOAD PUSH2 0x755 SWAP1 PUSH2 0x2562 JUMP JUMPDEST DUP1 PUSH1 0x1F ADD PUSH1 0x20 DUP1 SWAP2 DIV MUL PUSH1 0x20 ADD PUSH1 0x40 MLOAD SWAP1 DUP2 ADD PUSH1 0x40 MSTORE DUP1 SWAP3 SWAP2 SWAP1 DUP2 DUP2 MSTORE PUSH1 0x20 ADD DUP3 DUP1 SLOAD PUSH2 0x781 SWAP1 PUSH2 0x2562 JUMP JUMPDEST DUP1 ISZERO PUSH2 0x7CC JUMPI DUP1 PUSH1 0x1F LT PUSH2 0x7A3 JUMPI PUSH2 0x100 DUP1 DUP4 SLOAD DIV MUL DUP4 MSTORE SWAP2 PUSH1 0x20 ADD SWAP2 PUSH2 0x7CC JUMP JUMPDEST DUP3 ADD SWAP2 SWAP1 PUSH0 MSTORE PUSH1 0x20 PUSH0 KECCAK256 SWAP1 JUMPDEST DUP2 SLOAD DUP2 MSTORE SWAP1 PUSH1 0x1 ADD SWAP1 PUSH1 0x20 ADD DUP1 DUP4 GT PUSH2 0x7AF JUMPI DUP3 SWAP1 SUB PUSH1 0x1F AND DUP3 ADD SWAP2 JUMPDEST POP POP POP POP POP DUP2 MSTORE PUSH1 0x20 ADD PUSH1 0x1 DUP3 ADD SLOAD DUP2 MSTORE POP POP DUP2 MSTORE POP DUP3 DUP3 DUP2 MLOAD DUP2 LT PUSH2 0x7F5 JUMPI PUSH2 0x7F4 PUSH2 0x2592 JUMP JUMPDEST JUMPDEST PUSH1 0x20 MUL PUSH1 0x20 ADD ADD DUP2 SWAP1 MSTORE POP DUP1 DUP1 PUSH2 0x80B SWAP1 PUSH2 0x25EC JUMP JUMPDEST SWAP2 POP POP PUSH2 0x6DC JUMP JUMPDEST POP DUP1 SWAP3 POP POP POP SWAP2 SWAP1 POP JUMP JUMPDEST PUSH0 PUSH20 0xFFFFFFFFFFFFFFFFFFFFFFFFFFFFFFFFFFFFFFFF AND DUP3 PUSH20 0xFFFFFFFFFFFFFFFFFFFFFFFFFFFFFFFFFFFFFFFF AND SUB PUSH2 0x88E JUMPI PUSH0 PUSH1 0x40 MLOAD PUSH32 0x64A0AE9200000000000000000000000000000000000000000000000000000000 DUP2 MSTORE PUSH1 0x4 ADD PUSH2 0x885 SWAP2 SWAP1 PUSH2 0x1D93 JUMP JUMPDEST PUSH1 0x40 MLOAD DUP1 SWAP2 SUB SWAP1 REVERT JUMPDEST PUSH0 PUSH2 0x8A1 DUP4 DUP4 PUSH2 0x89C PUSH2 0x11A3 JUMP JUMPDEST PUSH2 0x11BC JUMP JUMPDEST SWAP1 POP DUP4 PUSH20 0xFFFFFFFFFFFFFFFFFFFFFFFFFFFFFFFFFFFFFFFF AND DUP2 PUSH20 0xFFFFFFFFFFFFFFFFFFFFFFFFFFFFFFFFFFFFFFFF AND EQ PUSH2 0x917 JUMPI DUP4 DUP3 DUP3 PUSH1 0x40 MLOAD PUSH32 0x64283D7B00000000000000000000000000000000000000000000000000000000 DUP2 MSTORE PUSH1 0x4 ADD PUSH2 0x90E SWAP4 SWAP3 SWAP2 SWAP1 PUSH2 0x2633 JUMP JUMPDEST PUSH1 0x40 MLOAD DUP1 SWAP2 SUB SWAP1 REVERT JUMPDEST POP POP POP POP JUMP JUMPDEST PUSH2 0x927 DUP3 DUP3 PUSH2 0xEFA JUMP JUMPDEST POP POP POP JUMP JUMPDEST PUSH1 0x60 PUSH1 0x6 PUSH0 DUP4 DUP2 MSTORE PUSH1 0x20 ADD SWAP1 DUP2 MSTORE PUSH1 0x20 ADD PUSH0 KECCAK256 PUSH0 ADD DUP1 SLOAD PUSH2 0x94C SWAP1 PUSH2 0x2562 JUMP JUMPDEST DUP1 PUSH1 0x1F ADD PUSH1 0x20 DUP1 SWAP2 DIV MUL PUSH1 0x20 ADD PUSH1 0x40 MLOAD SWAP1 DUP2 ADD PUSH1 0x40 MSTORE DUP1 SWAP3 SWAP2 SWAP1 DUP2 DUP2 MSTORE PUSH1 0x20 ADD DUP3 DUP1 SLOAD PUSH2 0x978 SWAP1 PUSH2 0x2562 JUMP JUMPDEST DUP1 ISZERO PUSH2 0x9C3 JUMPI DUP1 PUSH1 0x1F LT PUSH2 0x99A JUMPI PUSH2 0x100 DUP1 DUP4 SLOAD DIV MUL DUP4 MSTORE SWAP2 PUSH1 0x20 ADD SWAP2 PUSH2 0x9C3 JUMP JUMPDEST DUP3 ADD SWAP2 SWAP1 PUSH0 MSTORE PUSH1 0x20 PUSH0 KECCAK256 SWAP1 JUMPDEST DUP2 SLOAD DUP2 MSTORE SWAP1 PUSH1 0x1 ADD SWAP1 PUSH1 0x20 ADD DUP1 DUP4 GT PUSH2 0x9A6 JUMPI DUP3 SWAP1 SUB PUSH1 0x1F AND DUP3 ADD SWAP2 JUMPDEST POP POP POP POP POP SWAP1 POP SWAP2 SWAP1 POP JUMP JUMPDEST PUSH2 0x9E9 DUP4 DUP4 DUP4 PUSH1 0x40 MLOAD DUP1 PUSH1 0x20 ADD PUSH1 0x40 MSTORE DUP1 PUSH0 DUP2 MSTORE POP PUSH2 0xF10 JUMP JUMPDEST POP POP POP JUMP JUMPDEST PUSH1 0x60 PUSH0 PUSH1 0x8 PUSH0 DUP5 PUSH20 0xFFFFFFFFFFFFFFFFFFFFFFFFFFFFFFFFFFFFFFFF AND PUSH20 0xFFFFFFFFFFFFFFFFFFFFFFFFFFFFFFFFFFFFFFFF AND DUP2 MSTORE PUSH1 0x20 ADD SWAP1 DUP2 MSTORE PUSH1 0x20 ADD PUSH0 KECCAK256 DUP1 SLOAD DUP1 PUSH1 0x20 MUL PUSH1 0x20 ADD PUSH1 0x40 MLOAD SWAP1 DUP2 ADD PUSH1 0x40 MSTORE DUP1 SWAP3 SWAP2 SWAP1 DUP2 DUP2 MSTORE PUSH1 0x20 ADD DUP3 DUP1 SLOAD DUP1 ISZERO PUSH2 0xA76 JUMPI PUSH1 0x20 MUL DUP3 ADD SWAP2 SWAP1 PUSH0 MSTORE PUSH1 0x20 PUSH0 KECCAK256 SWAP1 JUMPDEST DUP2 SLOAD DUP2 MSTORE PUSH1 0x20 ADD SWAP1 PUSH1 0x1 ADD SWAP1 DUP1 DUP4 GT PUSH2 0xA62 JUMPI JUMPDEST POP POP POP POP POP SWAP1 POP PUSH0 DUP2 MLOAD PUSH8 0xFFFFFFFFFFFFFFFF DUP2 GT ISZERO PUSH2 0xA99 JUMPI PUSH2 0xA98 PUSH2 0x21BA JUMP JUMPDEST JUMPDEST PUSH1 0x40 MLOAD SWAP1 DUP1 DUP3 MSTORE DUP1 PUSH1 0x20 MUL PUSH1 0x20 ADD DUP3 ADD PUSH1 0x40 MSTORE DUP1 ISZERO PUSH2 0xACC JUMPI DUP2 PUSH1 0x20 ADD JUMPDEST PUSH1 0x60 DUP2 MSTORE PUSH1 0x20 ADD SWAP1 PUSH1 0x1 SWAP1 SUB SWAP1 DUP2 PUSH2 0xAB7 JUMPI SWAP1 POP JUMPDEST POP SWAP1 POP PUSH0 JUMPDEST DUP3 MLOAD DUP2 LT ISZERO PUSH2 0xBBF JUMPI PUSH1 0x6 PUSH0 DUP5 DUP4 DUP2 MLOAD DUP2 LT PUSH2 0xAF0 JUMPI PUSH2 0xAEF PUSH2 0x2592 JUMP JUMPDEST JUMPDEST PUSH1 0x20 MUL PUSH1 0x20 ADD ADD MLOAD DUP2 MSTORE PUSH1 0x20 ADD SWAP1 DUP2 MSTORE PUSH1 0x20 ADD PUSH0 KECCAK256 PUSH0 ADD DUP1 SLOAD PUSH2 0xB12 SWAP1 PUSH2 0x2562 JUMP JUMPDEST DUP1 PUSH1 0x1F ADD PUSH1 0x20 DUP1 SWAP2 DIV MUL PUSH1 0x20 ADD PUSH1 0x40 MLOAD SWAP1 DUP2 ADD PUSH1 0x40 MSTORE DUP1 SWAP3 SWAP2 SWAP1 DUP2 DUP2 MSTORE PUSH1 0x20 ADD DUP3 DUP1 SLOAD PUSH2 0xB3E SWAP1 PUSH2 0x2562 JUMP JUMPDEST DUP1 ISZERO PUSH2 0xB89 JUMPI DUP1 PUSH1 0x1F LT PUSH2 0xB60 JUMPI PUSH2 0x100 DUP1 DUP4 SLOAD DIV MUL DUP4 MSTORE SWAP2 PUSH1 0x20 ADD SWAP2 PUSH2 0xB89 JUMP JUMPDEST DUP3 ADD SWAP2 SWAP1 PUSH0 MSTORE PUSH1 0x20 PUSH0 KECCAK256 SWAP1 JUMPDEST DUP2 SLOAD DUP2 MSTORE SWAP1 PUSH1 0x1 ADD SWAP1 PUSH1 0x20 ADD DUP1 DUP4 GT PUSH2 0xB6C JUMPI DUP3 SWAP1 SUB PUSH1 0x1F AND DUP3 ADD SWAP2 JUMPDEST POP POP POP POP POP DUP3 DUP3 DUP2 MLOAD DUP2 LT PUSH2 0xBA1 JUMPI PUSH2 0xBA0 PUSH2 0x2592 JUMP JUMPDEST JUMPDEST PUSH1 0x20 MUL PUSH1 0x20 ADD ADD DUP2 SWAP1 MSTORE POP DUP1 DUP1 PUSH2 0xBB7 SWAP1 PUSH2 0x25EC JUMP JUMPDEST SWAP2 POP POP PUSH2 0xAD1 JUMP JUMPDEST POP DUP1 SWAP3 POP POP POP SWAP2 SWAP1 POP JUMP JUMPDEST PUSH0 PUSH2 0xBD4 DUP3 PUSH2 0x10E4 JUMP JUMPDEST SWAP1 POP SWAP2 SWAP1 POP JUMP JUMPDEST PUSH0 DUP1 PUSH20 0xFFFFFFFFFFFFFFFFFFFFFFFFFFFFFFFFFFFFFFFF AND DUP3 PUSH20 0xFFFFFFFFFFFFFFFFFFFFFFFFFFFFFFFFFFFFFFFF AND SUB PUSH2 0xC4C JUMPI PUSH0 PUSH1 0x40 MLOAD PUSH32 0x89C62B6400000000000000000000000000000000000000000000000000000000 DUP2 MSTORE PUSH1 0x4 ADD PUSH2 0xC43 SWAP2 SWAP1 PUSH2 0x1D93 JUMP JUMPDEST PUSH1 0x40 MLOAD DUP1 SWAP2 SUB SWAP1 REVERT JUMPDEST PUSH1 0x3 PUSH0 DUP4 PUSH20 0xFFFFFFFFFFFFFFFFFFFFFFFFFFFFFFFFFFFFFFFF AND PUSH20 0xFFFFFFFFFFFFFFFFFFFFFFFFFFFFFFFFFFFFFFFF AND DUP2 MSTORE PUSH1 0x20 ADD SWAP1 DUP2 MSTORE PUSH1 0x20 ADD PUSH0 KECCAK256 SLOAD SWAP1 POP SWAP2 SWAP1 POP JUMP JUMPDEST PUSH0 PUSH1 0x1 PUSH1 0xA DUP4 PUSH1 0x40 MLOAD PUSH1 0x20 ADD PUSH2 0xCA7 SWAP2 SWAP1 PUSH2 0x26A2 JUMP JUMPDEST PUSH1 0x40 MLOAD PUSH1 0x20 DUP2 DUP4 SUB SUB DUP2 MSTORE SWAP1 PUSH1 0x40 MSTORE DUP1 MLOAD SWAP1 PUSH1 0x20 ADD KECCAK256 PUSH0 SHR PUSH2 0xCC9 SWAP2 SWAP1 PUSH2 0x26E5 JUMP JUMPDEST PUSH2 0xCD3 SWAP2 SWAP1 PUSH2 0x2715 JUMP JUMPDEST SWAP1 POP SWAP2 SWAP1 POP JUMP JUMPDEST PUSH1 0x60 PUSH0 PUSH2 0xCE6 DUP4 PUSH2 0xC91 JUMP JUMPDEST SWAP1 POP PUSH1 0x40 MLOAD DUP1 PUSH1 0x40 ADD PUSH1 0x40 MSTORE DUP1 DUP6 DUP2 MSTORE PUSH1 0x20 ADD DUP3 DUP2 MSTORE POP PUSH1 0x6 PUSH0 PUSH1 0x7 SLOAD DUP2 MSTORE PUSH1 0x20 ADD SWAP1 DUP2 MSTORE PUSH1 0x20 ADD PUSH0 KECCAK256 PUSH0 DUP3 ADD MLOAD DUP2 PUSH0 ADD SWAP1 DUP2 PUSH2 0xD23 SWAP2 SWAP1 PUSH2 0x28E5 JUMP JUMPDEST POP PUSH1 0x20 DUP3 ADD MLOAD DUP2 PUSH1 0x1 ADD SSTORE SWAP1 POP POP PUSH2 0xD3D CALLER PUSH1 0x7 SLOAD PUSH2 0x13C7 JUMP JUMPDEST PUSH1 0x8 PUSH0 CALLER PUSH20 0xFFFFFFFFFFFFFFFFFFFFFFFFFFFFFFFFFFFFFFFF AND PUSH20 0xFFFFFFFFFFFFFFFFFFFFFFFFFFFFFFFFFFFFFFFF AND DUP2 MSTORE PUSH1 0x20 ADD SWAP1 DUP2 MSTORE PUSH1 0x20 ADD PUSH0 KECCAK256 PUSH1 0x7 SLOAD SWAP1 DUP1 PUSH1 0x1 DUP2 SLOAD ADD DUP1 DUP3 SSTORE DUP1 SWAP2 POP POP PUSH1 0x1 SWAP1 SUB SWAP1 PUSH0 MSTORE PUSH1 0x20 PUSH0 KECCAK256 ADD PUSH0 SWAP1 SWAP2 SWAP1 SWAP2 SWAP1 SWAP2 POP SSTORE PUSH1 0x1 PUSH1 0x7 PUSH0 DUP3 DUP3 SLOAD PUSH2 0xDB2 SWAP2 SWAP1 PUSH2 0x2715 JUMP JUMPDEST SWAP3 POP POP DUP2 SWAP1 SSTORE POP PUSH1 0x6 PUSH0 PUSH1 0x1 PUSH1 0x7 SLOAD PUSH2 0xDCB SWAP2 SWAP1 PUSH2 0x29B4 JUMP JUMPDEST DUP2 MSTORE PUSH1 0x20 ADD SWAP1 DUP2 MSTORE PUSH1 0x20 ADD PUSH0 KECCAK256 PUSH0 ADD DUP1 SLOAD PUSH2 0xDE5 SWAP1 PUSH2 0x2562 JUMP JUMPDEST DUP1 PUSH1 0x1F ADD PUSH1 0x20 DUP1 SWAP2 DIV MUL PUSH1 0x20 ADD PUSH1 0x40 MLOAD SWAP1 DUP2 ADD PUSH1 0x40 MSTORE DUP1 SWAP3 SWAP2 SWAP1 DUP2 DUP2 MSTORE PUSH1 0x20 ADD DUP3 DUP1 SLOAD PUSH2 0xE11 SWAP1 PUSH2 0x2562 JUMP JUMPDEST DUP1 ISZERO PUSH2 0xE5C JUMPI DUP1 PUSH1 0x1F LT PUSH2 0xE33 JUMPI PUSH2 0x100 DUP1 DUP4 SLOAD DIV MUL DUP4 MSTORE SWAP2 PUSH1 0x20 ADD SWAP2 PUSH2 0xE5C JUMP JUMPDEST DUP3 ADD SWAP2 SWAP1 PUSH0 MSTORE PUSH1 0x20 PUSH0 KECCAK256 SWAP1 JUMPDEST DUP2 SLOAD DUP2 MSTORE SWAP1 PUSH1 0x1 ADD SWAP1 PUSH1 0x20 ADD DUP1 DUP4 GT PUSH2 0xE3F JUMPI DUP3 SWAP1 SUB PUSH1 0x1F AND DUP3 ADD SWAP2 JUMPDEST POP POP POP POP POP SWAP2 POP POP SWAP3 SWAP2 POP POP JUMP JUMPDEST PUSH1 0x60 PUSH1 0x1 DUP1 SLOAD PUSH2 0xE79 SWAP1 PUSH2 0x2562 JUMP JUMPDEST DUP1 PUSH1 0x1F ADD PUSH1 0x20 DUP1 SWAP2 DIV MUL PUSH1 0x20 ADD PUSH1 0x40 MLOAD SWAP1 DUP2 ADD PUSH1 0x40 MSTORE DUP1 SWAP3 SWAP2 SWAP1 DUP2 DUP2 MSTORE PUSH1 0x20 ADD DUP3 DUP1 SLOAD PUSH2 0xEA5 SWAP1 PUSH2 0x2562 JUMP JUMPDEST DUP1 ISZERO PUSH2 0xEF0 JUMPI DUP1 PUSH1 0x1F LT PUSH2 0xEC7 JUMPI PUSH2 0x100 DUP1 DUP4 SLOAD DIV MUL DUP4 MSTORE SWAP2 PUSH1 0x20 ADD SWAP2 PUSH2 0xEF0 JUMP JUMPDEST DUP3 ADD SWAP2 SWAP1 PUSH0 MSTORE PUSH1 0x20 PUSH0 KECCAK256 SWAP1 JUMPDEST DUP2 SLOAD DUP2 MSTORE SWAP1 PUSH1 0x1 ADD SWAP1 PUSH1 0x20 ADD DUP1 DUP4 GT PUSH2 0xED3 JUMPI DUP3 SWAP1 SUB PUSH1 0x1F AND DUP3 ADD SWAP2 JUMPDEST POP POP POP POP POP SWAP1 POP SWAP1 JUMP JUMPDEST PUSH2 0xF0C PUSH2 0xF05 PUSH2 0x11A3 JUMP JUMPDEST DUP4 DUP4 PUSH2 0x14BA JUMP JUMPDEST POP POP JUMP JUMPDEST PUSH2 0xF1B DUP5 DUP5 DUP5 PUSH2 0x81E JUMP JUMPDEST PUSH2 0xF27 DUP5 DUP5 DUP5 DUP5 PUSH2 0x1623 JUMP JUMPDEST POP POP POP POP JUMP JUMPDEST PUSH1 0x60 PUSH1 0x6 PUSH0 DUP4 DUP2 MSTORE PUSH1 0x20 ADD SWAP1 DUP2 MSTORE PUSH1 0x20 ADD PUSH0 KECCAK256 PUSH0 ADD DUP1 SLOAD PUSH2 0xF4D SWAP1 PUSH2 0x2562 JUMP JUMPDEST DUP1 PUSH1 0x1F ADD PUSH1 0x20 DUP1 SWAP2 DIV MUL PUSH1 0x20 ADD PUSH1 0x40 MLOAD SWAP1 DUP2 ADD PUSH1 0x40 MSTORE DUP1 SWAP3 SWAP2 SWAP1 DUP2 DUP2 MSTORE PUSH1 0x20 ADD DUP3 DUP1 SLOAD PUSH2 0xF79 SWAP1 PUSH2 0x2562 JUMP JUMPDEST DUP1 ISZERO PUSH2 0xFC4 JUMPI DUP1 PUSH1 0x1F LT PUSH2 0xF9B JUMPI PUSH2 0x100 DUP1 DUP4 SLOAD DIV MUL DUP4 MSTORE SWAP2 PUSH1 0x20 ADD SWAP2 PUSH2 0xFC4 JUMP JUMPDEST DUP3 ADD SWAP2 SWAP1 PUSH0 MSTORE PUSH1 0x20 PUSH0 KECCAK256 SWAP1 JUMPDEST DUP2 SLOAD DUP2 MSTORE SWAP1 PUSH1 0x1 ADD SWAP1 PUSH1 0x20 ADD DUP1 DUP4 GT PUSH2 0xFA7 JUMPI DUP3 SWAP1 SUB PUSH1 0x1F AND DUP3 ADD SWAP2 JUMPDEST POP POP POP POP POP SWAP1 POP SWAP2 SWAP1 POP JUMP JUMPDEST PUSH0 PUSH1 0x6 PUSH0 DUP4 DUP2 MSTORE PUSH1 0x20 ADD SWAP1 DUP2 MSTORE PUSH1 0x20 ADD PUSH0 KECCAK256 PUSH1 0x1 ADD SLOAD SWAP1 POP SWAP2 SWAP1 POP JUMP JUMPDEST PUSH0 PUSH1 0x5 PUSH0 DUP5 PUSH20 0xFFFFFFFFFFFFFFFFFFFFFFFFFFFFFFFFFFFFFFFF AND PUSH20 0xFFFFFFFFFFFFFFFFFFFFFFFFFFFFFFFFFFFFFFFF AND DUP2 MSTORE PUSH1 0x20 ADD SWAP1 DUP2 MSTORE PUSH1 0x20 ADD PUSH0 KECCAK256 PUSH0 DUP4 PUSH20 0xFFFFFFFFFFFFFFFFFFFFFFFFFFFFFFFFFFFFFFFF AND PUSH20 0xFFFFFFFFFFFFFFFFFFFFFFFFFFFFFFFFFFFFFFFF AND DUP2 MSTORE PUSH1 0x20 ADD SWAP1 DUP2 MSTORE PUSH1 0x20 ADD PUSH0 KECCAK256 PUSH0 SWAP1 SLOAD SWAP1 PUSH2 0x100 EXP SWAP1 DIV PUSH1 0xFF AND SWAP1 POP SWAP3 SWAP2 POP POP JUMP JUMPDEST PUSH0 PUSH32 0x1FFC9A700000000000000000000000000000000000000000000000000000000 PUSH28 0xFFFFFFFFFFFFFFFFFFFFFFFFFFFFFFFFFFFFFFFFFFFFFFFFFFFFFFFF NOT AND DUP3 PUSH28 0xFFFFFFFFFFFFFFFFFFFFFFFFFFFFFFFFFFFFFFFFFFFFFFFFFFFFFFFF NOT AND EQ SWAP1 POP SWAP2 SWAP1 POP JUMP JUMPDEST PUSH0 DUP1 PUSH2 0x10EF DUP4 PUSH2 0x17D5 JUMP JUMPDEST SWAP1 POP PUSH0 PUSH20 0xFFFFFFFFFFFFFFFFFFFFFFFFFFFFFFFFFFFFFFFF AND DUP2 PUSH20 0xFFFFFFFFFFFFFFFFFFFFFFFFFFFFFFFFFFFFFFFF AND SUB PUSH2 0x1161 JUMPI DUP3 PUSH1 0x40 MLOAD PUSH32 0x7E27328900000000000000000000000000000000000000000000000000000000 DUP2 MSTORE PUSH1 0x4 ADD PUSH2 0x1158 SWAP2 SWAP1 PUSH2 0x2199 JUMP JUMPDEST PUSH1 0x40 MLOAD DUP1 SWAP2 SUB SWAP1 REVERT JUMPDEST DUP1 SWAP2 POP POP SWAP2 SWAP1 POP JUMP JUMPDEST PUSH0 PUSH1 0x4 PUSH0 DUP4 DUP2 MSTORE PUSH1 0x20 ADD SWAP1 DUP2 MSTORE PUSH1 0x20 ADD PUSH0 KECCAK256 PUSH0 SWAP1 SLOAD SWAP1 PUSH2 0x100 EXP SWAP1 DIV PUSH20 0xFFFFFFFFFFFFFFFFFFFFFFFFFFFFFFFFFFFFFFFF AND SWAP1 POP SWAP2 SWAP1 POP JUMP JUMPDEST PUSH0 CALLER SWAP1 POP SWAP1 JUMP JUMPDEST PUSH2 0x11B7 DUP4 DUP4 DUP4 PUSH1 0x1 PUSH2 0x180E JUMP JUMPDEST POP POP POP JUMP JUMPDEST PUSH0 DUP1 PUSH2 0x11C7 DUP5 PUSH2 0x17D5 JUMP JUMPDEST SWAP1 POP PUSH0 PUSH20 0xFFFFFFFFFFFFFFFFFFFFFFFFFFFFFFFFFFFFFFFF AND DUP4 PUSH20 0xFFFFFFFFFFFFFFFFFFFFFFFFFFFFFFFFFFFFFFFF AND EQ PUSH2 0x1208 JUMPI PUSH2 0x1207 DUP2 DUP5 DUP7 PUSH2 0x19CD JUMP JUMPDEST JUMPDEST PUSH0 PUSH20 0xFFFFFFFFFFFFFFFFFFFFFFFFFFFFFFFFFFFFFFFF AND DUP2 PUSH20 0xFFFFFFFFFFFFFFFFFFFFFFFFFFFFFFFFFFFFFFFF AND EQ PUSH2 0x1293 JUMPI PUSH2 0x1247 PUSH0 DUP6 PUSH0 DUP1 PUSH2 0x180E JUMP JUMPDEST PUSH1 0x1 PUSH1 0x3 PUSH0 DUP4 PUSH20 0xFFFFFFFFFFFFFFFFFFFFFFFFFFFFFFFFFFFFFFFF AND PUSH20 0xFFFFFFFFFFFFFFFFFFFFFFFFFFFFFFFFFFFFFFFF AND DUP2 MSTORE PUSH1 0x20 ADD SWAP1 DUP2 MSTORE PUSH1 0x20 ADD PUSH0 KECCAK256 PUSH0 DUP3 DUP3 SLOAD SUB SWAP3 POP POP DUP2 SWAP1 SSTORE POP JUMPDEST PUSH0 PUSH20 0xFFFFFFFFFFFFFFFFFFFFFFFFFFFFFFFFFFFFFFFF AND DUP6 PUSH20 0xFFFFFFFFFFFFFFFFFFFFFFFFFFFFFFFFFFFFFFFF AND EQ PUSH2 0x1312 JUMPI PUSH1 0x1 PUSH1 0x3 PUSH0 DUP8 PUSH20 0xFFFFFFFFFFFFFFFFFFFFFFFFFFFFFFFFFFFFFFFF AND PUSH20 0xFFFFFFFFFFFFFFFFFFFFFFFFFFFFFFFFFFFFFFFF AND DUP2 MSTORE PUSH1 0x20 ADD SWAP1 DUP2 MSTORE PUSH1 0x20 ADD PUSH0 KECCAK256 PUSH0 DUP3 DUP3 SLOAD ADD SWAP3 POP POP DUP2 SWAP1 SSTORE POP JUMPDEST DUP5 PUSH1 0x2 PUSH0 DUP7 DUP2 MSTORE PUSH1 0x20 ADD SWAP1 DUP2 MSTORE PUSH1 0x20 ADD PUSH0 KECCAK256 PUSH0 PUSH2 0x100 EXP DUP2 SLOAD DUP2 PUSH20 0xFFFFFFFFFFFFFFFFFFFFFFFFFFFFFFFFFFFFFFFF MUL NOT AND SWAP1 DUP4 PUSH20 0xFFFFFFFFFFFFFFFFFFFFFFFFFFFFFFFFFFFFFFFF AND MUL OR SWAP1 SSTORE POP DUP4 DUP6 PUSH20 0xFFFFFFFFFFFFFFFFFFFFFFFFFFFFFFFFFFFFFFFF AND DUP3 PUSH20 0xFFFFFFFFFFFFFFFFFFFFFFFFFFFFFFFFFFFFFFFF AND PUSH32 0xDDF252AD1BE2C89B69C2B068FC378DAA952BA7F163C4A11628F55A4DF523B3EF PUSH1 0x40 MLOAD PUSH1 0x40 MLOAD DUP1 SWAP2 SUB SWAP1 LOG4 DUP1 SWAP2 POP POP SWAP4 SWAP3 POP POP POP JUMP JUMPDEST PUSH0 PUSH20 0xFFFFFFFFFFFFFFFFFFFFFFFFFFFFFFFFFFFFFFFF AND DUP3 PUSH20 0xFFFFFFFFFFFFFFFFFFFFFFFFFFFFFFFFFFFFFFFF AND SUB PUSH2 0x1437 JUMPI PUSH0 PUSH1 0x40 MLOAD PUSH32 0x64A0AE9200000000000000000000000000000000000000000000000000000000 DUP2 MSTORE PUSH1 0x4 ADD PUSH2 0x142E SWAP2 SWAP1 PUSH2 0x1D93 JUMP JUMPDEST PUSH1 0x40 MLOAD DUP1 SWAP2 SUB SWAP1 REVERT JUMPDEST PUSH0 PUSH2 0x1443 DUP4 DUP4 PUSH0 PUSH2 0x11BC JUMP JUMPDEST SWAP1 POP PUSH0 PUSH20 0xFFFFFFFFFFFFFFFFFFFFFFFFFFFFFFFFFFFFFFFF AND DUP2 PUSH20 0xFFFFFFFFFFFFFFFFFFFFFFFFFFFFFFFFFFFFFFFF AND EQ PUSH2 0x14B5 JUMPI PUSH0 PUSH1 0x40 MLOAD PUSH32 0x73C6AC6E00000000000000000000000000000000000000000000000000000000 DUP2 MSTORE PUSH1 0x4 ADD PUSH2 0x14AC SWAP2 SWAP1 PUSH2 0x1D93 JUMP JUMPDEST PUSH1 0x40 MLOAD DUP1 SWAP2 SUB SWAP1 REVERT JUMPDEST POP POP POP JUMP JUMPDEST PUSH0 PUSH20 0xFFFFFFFFFFFFFFFFFFFFFFFFFFFFFFFFFFFFFFFF AND DUP3 PUSH20 0xFFFFFFFFFFFFFFFFFFFFFFFFFFFFFFFFFFFFFFFF AND SUB PUSH2 0x152A JUMPI DUP2 PUSH1 0x40 MLOAD PUSH32 0x5B08BA1800000000000000000000000000000000000000000000000000000000 DUP2 MSTORE PUSH1 0x4 ADD PUSH2 0x1521 SWAP2 SWAP1 PUSH2 0x1D93 JUMP JUMPDEST PUSH1 0x40 MLOAD DUP1 SWAP2 SUB SWAP1 REVERT JUMPDEST DUP1 PUSH1 0x5 PUSH0 DUP6 PUSH20 0xFFFFFFFFFFFFFFFFFFFFFFFFFFFFFFFFFFFFFFFF AND PUSH20 0xFFFFFFFFFFFFFFFFFFFFFFFFFFFFFFFFFFFFFFFF AND DUP2 MSTORE PUSH1 0x20 ADD SWAP1 DUP2 MSTORE PUSH1 0x20 ADD PUSH0 KECCAK256 PUSH0 DUP5 PUSH20 0xFFFFFFFFFFFFFFFFFFFFFFFFFFFFFFFFFFFFFFFF AND PUSH20 0xFFFFFFFFFFFFFFFFFFFFFFFFFFFFFFFFFFFFFFFF AND DUP2 MSTORE PUSH1 0x20 ADD SWAP1 DUP2 MSTORE PUSH1 0x20 ADD PUSH0 KECCAK256 PUSH0 PUSH2 0x100 EXP DUP2 SLOAD DUP2 PUSH1 0xFF MUL NOT AND SWAP1 DUP4 ISZERO ISZERO MUL OR SWAP1 SSTORE POP DUP2 PUSH20 0xFFFFFFFFFFFFFFFFFFFFFFFFFFFFFFFFFFFFFFFF AND DUP4 PUSH20 0xFFFFFFFFFFFFFFFFFFFFFFFFFFFFFFFFFFFFFFFF AND PUSH32 0x17307EAB39AB6107E8899845AD3D59BD9653F200F220920489CA2B5937696C31 DUP4 PUSH1 0x40 MLOAD PUSH2 0x1616 SWAP2 SWAP1 PUSH2 0x1C33 JUMP JUMPDEST PUSH1 0x40 MLOAD DUP1 SWAP2 SUB SWAP1 LOG3 POP POP POP JUMP JUMPDEST PUSH0 DUP4 PUSH20 0xFFFFFFFFFFFFFFFFFFFFFFFFFFFFFFFFFFFFFFFF AND EXTCODESIZE GT ISZERO PUSH2 0x17CF JUMPI DUP3 PUSH20 0xFFFFFFFFFFFFFFFFFFFFFFFFFFFFFFFFFFFFFFFF AND PUSH4 0x150B7A02 PUSH2 0x1666 PUSH2 0x11A3 JUMP JUMPDEST DUP7 DUP6 DUP6 PUSH1 0x40 MLOAD DUP6 PUSH4 0xFFFFFFFF AND PUSH1 0xE0 SHL DUP2 MSTORE PUSH1 0x4 ADD PUSH2 0x1688 SWAP5 SWAP4 SWAP3 SWAP2 SWAP1 PUSH2 0x2A39 JUMP JUMPDEST PUSH1 0x20 PUSH1 0x40 MLOAD DUP1 DUP4 SUB DUP2 PUSH0 DUP8 GAS CALL SWAP3 POP POP POP DUP1 ISZERO PUSH2 0x16C3 JUMPI POP PUSH1 0x40 MLOAD RETURNDATASIZE PUSH1 0x1F NOT PUSH1 0x1F DUP3 ADD AND DUP3 ADD DUP1 PUSH1 0x40 MSTORE POP DUP2 ADD SWAP1 PUSH2 0x16C0 SWAP2 SWAP1 PUSH2 0x2A97 JUMP JUMPDEST PUSH1 0x1 JUMPDEST PUSH2 0x1744 JUMPI RETURNDATASIZE DUP1 PUSH0 DUP2 EQ PUSH2 0x16F1 JUMPI PUSH1 0x40 MLOAD SWAP2 POP PUSH1 0x1F NOT PUSH1 0x3F RETURNDATASIZE ADD AND DUP3 ADD PUSH1 0x40 MSTORE RETURNDATASIZE DUP3 MSTORE RETURNDATASIZE PUSH0 PUSH1 0x20 DUP5 ADD RETURNDATACOPY PUSH2 0x16F6 JUMP JUMPDEST PUSH1 0x60 SWAP2 POP JUMPDEST POP PUSH0 DUP2 MLOAD SUB PUSH2 0x173C JUMPI DUP4 PUSH1 0x40 MLOAD PUSH32 0x64A0AE9200000000000000000000000000000000000000000000000000000000 DUP2 MSTORE PUSH1 0x4 ADD PUSH2 0x1733 SWAP2 SWAP1 PUSH2 0x1D93 JUMP JUMPDEST PUSH1 0x40 MLOAD DUP1 SWAP2 SUB SWAP1 REVERT JUMPDEST DUP1 MLOAD DUP2 PUSH1 0x20 ADD REVERT JUMPDEST PUSH4 0x150B7A02 PUSH1 0xE0 SHL PUSH28 0xFFFFFFFFFFFFFFFFFFFFFFFFFFFFFFFFFFFFFFFFFFFFFFFFFFFFFFFF NOT AND DUP2 PUSH28 0xFFFFFFFFFFFFFFFFFFFFFFFFFFFFFFFFFFFFFFFFFFFFFFFFFFFFFFFF NOT AND EQ PUSH2 0x17CD JUMPI DUP4 PUSH1 0x40 MLOAD PUSH32 0x64A0AE9200000000000000000000000000000000000000000000000000000000 DUP2 MSTORE PUSH1 0x4 ADD PUSH2 0x17C4 SWAP2 SWAP1 PUSH2 0x1D93 JUMP JUMPDEST PUSH1 0x40 MLOAD DUP1 SWAP2 SUB SWAP1 REVERT JUMPDEST POP JUMPDEST POP POP POP POP JUMP JUMPDEST PUSH0 PUSH1 0x2 PUSH0 DUP4 DUP2 MSTORE PUSH1 0x20 ADD SWAP1 DUP2 MSTORE PUSH1 0x20 ADD PUSH0 KECCAK256 PUSH0 SWAP1 SLOAD SWAP1 PUSH2 0x100 EXP SWAP1 DIV PUSH20 0xFFFFFFFFFFFFFFFFFFFFFFFFFFFFFFFFFFFFFFFF AND SWAP1 POP SWAP2 SWAP1 POP JUMP JUMPDEST DUP1 DUP1 PUSH2 0x1846 JUMPI POP PUSH0 PUSH20 0xFFFFFFFFFFFFFFFFFFFFFFFFFFFFFFFFFFFFFFFF AND DUP3 PUSH20 0xFFFFFFFFFFFFFFFFFFFFFFFFFFFFFFFFFFFFFFFF AND EQ ISZERO JUMPDEST ISZERO PUSH2 0x1978 JUMPI PUSH0 PUSH2 0x1855 DUP5 PUSH2 0x10E4 JUMP JUMPDEST SWAP1 POP PUSH0 PUSH20 0xFFFFFFFFFFFFFFFFFFFFFFFFFFFFFFFFFFFFFFFF AND DUP4 PUSH20 0xFFFFFFFFFFFFFFFFFFFFFFFFFFFFFFFFFFFFFFFF AND EQ ISZERO DUP1 ISZERO PUSH2 0x18BF JUMPI POP DUP3 PUSH20 0xFFFFFFFFFFFFFFFFFFFFFFFFFFFFFFFFFFFFFFFF AND DUP2 PUSH20 0xFFFFFFFFFFFFFFFFFFFFFFFFFFFFFFFFFFFFFFFF AND EQ ISZERO JUMPDEST DUP1 ISZERO PUSH2 0x18D2 JUMPI POP PUSH2 0x18D0 DUP2 DUP5 PUSH2 0xFED JUMP JUMPDEST ISZERO JUMPDEST ISZERO PUSH2 0x1914 JUMPI DUP3 PUSH1 0x40 MLOAD PUSH32 0xA9FBF51F00000000000000000000000000000000000000000000000000000000 DUP2 MSTORE PUSH1 0x4 ADD PUSH2 0x190B SWAP2 SWAP1 PUSH2 0x1D93 JUMP JUMPDEST PUSH1 0x40 MLOAD DUP1 SWAP2 SUB SWAP1 REVERT JUMPDEST DUP2 ISZERO PUSH2 0x1976 JUMPI DUP4 DUP6 PUSH20 0xFFFFFFFFFFFFFFFFFFFFFFFFFFFFFFFFFFFFFFFF AND DUP3 PUSH20 0xFFFFFFFFFFFFFFFFFFFFFFFFFFFFFFFFFFFFFFFF AND PUSH32 0x8C5BE1E5EBEC7D5BD14F71427D1E84F3DD0314C0F7B2291E5B200AC8C7C3B925 PUSH1 0x40 MLOAD PUSH1 0x40 MLOAD DUP1 SWAP2 SUB SWAP1 LOG4 JUMPDEST POP JUMPDEST DUP4 PUSH1 0x4 PUSH0 DUP6 DUP2 MSTORE PUSH1 0x20 ADD SWAP1 DUP2 MSTORE PUSH1 0x20 ADD PUSH0 KECCAK256 PUSH0 PUSH2 0x100 EXP DUP2 SLOAD DUP2 PUSH20 0xFFFFFFFFFFFFFFFFFFFFFFFFFFFFFFFFFFFFFFFF MUL NOT AND SWAP1 DUP4 PUSH20 0xFFFFFFFFFFFFFFFFFFFFFFFFFFFFFFFFFFFFFFFF AND MUL OR SWAP1 SSTORE POP POP POP POP POP JUMP JUMPDEST PUSH2 0x19D8 DUP4 DUP4 DUP4 PUSH2 0x1A90 JUMP JUMPDEST PUSH2 0x1A8B JUMPI PUSH0 PUSH20 0xFFFFFFFFFFFFFFFFFFFFFFFFFFFFFFFFFFFFFFFF AND DUP4 PUSH20 0xFFFFFFFFFFFFFFFFFFFFFFFFFFFFFFFFFFFFFFFF AND SUB PUSH2 0x1A4C JUMPI DUP1 PUSH1 0x40 MLOAD PUSH32 0x7E27328900000000000000000000000000000000000000000000000000000000 DUP2 MSTORE PUSH1 0x4 ADD PUSH2 0x1A43 SWAP2 SWAP1 PUSH2 0x2199 JUMP JUMPDEST PUSH1 0x40 MLOAD DUP1 SWAP2 SUB SWAP1 REVERT JUMPDEST DUP2 DUP2 PUSH1 0x40 MLOAD PUSH32 0x177E802F00000000000000000000000000000000000000000000000000000000 DUP2 MSTORE PUSH1 0x4 ADD PUSH2 0x1A82 SWAP3 SWAP2 SWAP1 PUSH2 0x2AC2 JUMP JUMPDEST PUSH1 0x40 MLOAD DUP1 SWAP2 SUB SWAP1 REVERT JUMPDEST POP POP POP JUMP JUMPDEST PUSH0 DUP1 PUSH20 0xFFFFFFFFFFFFFFFFFFFFFFFFFFFFFFFFFFFFFFFF AND DUP4 PUSH20 0xFFFFFFFFFFFFFFFFFFFFFFFFFFFFFFFFFFFFFFFF AND EQ ISZERO DUP1 ISZERO PUSH2 0x1B47 JUMPI POP DUP3 PUSH20 0xFFFFFFFFFFFFFFFFFFFFFFFFFFFFFFFFFFFFFFFF AND DUP5 PUSH20 0xFFFFFFFFFFFFFFFFFFFFFFFFFFFFFFFFFFFFFFFF AND EQ DUP1 PUSH2 0x1B08 JUMPI POP PUSH2 0x1B07 DUP5 DUP5 PUSH2 0xFED JUMP JUMPDEST JUMPDEST DUP1 PUSH2 0x1B46 JUMPI POP DUP3 PUSH20 0xFFFFFFFFFFFFFFFFFFFFFFFFFFFFFFFFFFFFFFFF AND PUSH2 0x1B2E DUP4 PUSH2 0x116A JUMP JUMPDEST PUSH20 0xFFFFFFFFFFFFFFFFFFFFFFFFFFFFFFFFFFFFFFFF AND EQ JUMPDEST JUMPDEST SWAP1 POP SWAP4 SWAP3 POP POP POP JUMP JUMPDEST PUSH1 0x40 MLOAD DUP1 PUSH1 0x40 ADD PUSH1 0x40 MSTORE DUP1 PUSH0 DUP2 MSTORE PUSH1 0x20 ADD PUSH2 0x1B69 PUSH2 0x1B6F JUMP JUMPDEST DUP2 MSTORE POP SWAP1 JUMP JUMPDEST PUSH1 0x40 MLOAD DUP1 PUSH1 0x40 ADD PUSH1 0x40 MSTORE DUP1 PUSH1 0x60 DUP2 MSTORE PUSH1 0x20 ADD PUSH0 DUP2 MSTORE POP SWAP1 JUMP JUMPDEST PUSH0 PUSH1 0x40 MLOAD SWAP1 POP SWAP1 JUMP JUMPDEST PUSH0 DUP1 REVERT JUMPDEST PUSH0 DUP1 REVERT JUMPDEST PUSH0 PUSH32 0xFFFFFFFF00000000000000000000000000000000000000000000000000000000 DUP3 AND SWAP1 POP SWAP2 SWAP1 POP JUMP JUMPDEST PUSH2 0x1BCD DUP2 PUSH2 0x1B99 JUMP JUMPDEST DUP2 EQ PUSH2 0x1BD7 JUMPI PUSH0 DUP1 REVERT JUMPDEST POP JUMP JUMPDEST PUSH0 DUP2 CALLDATALOAD SWAP1 POP PUSH2 0x1BE8 DUP2 PUSH2 0x1BC4 JUMP JUMPDEST SWAP3 SWAP2 POP POP JUMP JUMPDEST PUSH0 PUSH1 0x20 DUP3 DUP5 SUB SLT ISZERO PUSH2 0x1C03 JUMPI PUSH2 0x1C02 PUSH2 0x1B91 JUMP JUMPDEST JUMPDEST PUSH0 PUSH2 0x1C10 DUP5 DUP3 DUP6 ADD PUSH2 0x1BDA JUMP JUMPDEST SWAP2 POP POP SWAP3 SWAP2 POP POP JUMP JUMPDEST PUSH0 DUP2 ISZERO ISZERO SWAP1 POP SWAP2 SWAP1 POP JUMP JUMPDEST PUSH2 0x1C2D DUP2 PUSH2 0x1C19 JUMP JUMPDEST DUP3 MSTORE POP POP JUMP JUMPDEST PUSH0 PUSH1 0x20 DUP3 ADD SWAP1 POP PUSH2 0x1C46 PUSH0 DUP4 ADD DUP5 PUSH2 0x1C24 JUMP JUMPDEST SWAP3 SWAP2 POP POP JUMP JUMPDEST PUSH0 DUP2 MLOAD SWAP1 POP SWAP2 SWAP1 POP JUMP JUMPDEST PUSH0 DUP3 DUP3 MSTORE PUSH1 0x20 DUP3 ADD SWAP1 POP SWAP3 SWAP2 POP POP JUMP JUMPDEST PUSH0 JUMPDEST DUP4 DUP2 LT ISZERO PUSH2 0x1C83 JUMPI DUP1 DUP3 ADD MLOAD DUP2 DUP5 ADD MSTORE PUSH1 0x20 DUP2 ADD SWAP1 POP PUSH2 0x1C68 JUMP JUMPDEST PUSH0 DUP5 DUP5 ADD MSTORE POP POP POP POP JUMP JUMPDEST PUSH0 PUSH1 0x1F NOT PUSH1 0x1F DUP4 ADD AND SWAP1 POP SWAP2 SWAP1 POP JUMP JUMPDEST PUSH0 PUSH2 0x1CA8 DUP3 PUSH2 0x1C4C JUMP JUMPDEST PUSH2 0x1CB2 DUP2 DUP6 PUSH2 0x1C56 JUMP JUMPDEST SWAP4 POP PUSH2 0x1CC2 DUP2 DUP6 PUSH1 0x20 DUP7 ADD PUSH2 0x1C66 JUMP JUMPDEST PUSH2 0x1CCB DUP2 PUSH2 0x1C8E JUMP JUMPDEST DUP5 ADD SWAP2 POP POP SWAP3 SWAP2 POP POP JUMP JUMPDEST PUSH0 PUSH1 0x20 DUP3 ADD SWAP1 POP DUP2 DUP2 SUB PUSH0 DUP4 ADD MSTORE PUSH2 0x1CEE DUP2 DUP5 PUSH2 0x1C9E JUMP JUMPDEST SWAP1 POP SWAP3 SWAP2 POP POP JUMP JUMPDEST PUSH0 DUP2 SWAP1 POP SWAP2 SWAP1 POP JUMP JUMPDEST PUSH2 0x1D08 DUP2 PUSH2 0x1CF6 JUMP JUMPDEST DUP2 EQ PUSH2 0x1D12 JUMPI PUSH0 DUP1 REVERT JUMPDEST POP JUMP JUMPDEST PUSH0 DUP2 CALLDATALOAD SWAP1 POP PUSH2 0x1D23 DUP2 PUSH2 0x1CFF JUMP JUMPDEST SWAP3 SWAP2 POP POP JUMP JUMPDEST PUSH0 PUSH1 0x20 DUP3 DUP5 SUB SLT ISZERO PUSH2 0x1D3E JUMPI PUSH2 0x1D3D PUSH2 0x1B91 JUMP JUMPDEST JUMPDEST PUSH0 PUSH2 0x1D4B DUP5 DUP3 DUP6 ADD PUSH2 0x1D15 JUMP JUMPDEST SWAP2 POP POP SWAP3 SWAP2 POP POP JUMP JUMPDEST PUSH0 PUSH20 0xFFFFFFFFFFFFFFFFFFFFFFFFFFFFFFFFFFFFFFFF DUP3 AND SWAP1 POP SWAP2 SWAP1 POP JUMP JUMPDEST PUSH0 PUSH2 0x1D7D DUP3 PUSH2 0x1D54 JUMP JUMPDEST SWAP1 POP SWAP2 SWAP1 POP JUMP JUMPDEST PUSH2 0x1D8D DUP2 PUSH2 0x1D73 JUMP JUMPDEST DUP3 MSTORE POP POP JUMP JUMPDEST PUSH0 PUSH1 0x20 DUP3 ADD SWAP1 POP PUSH2 0x1DA6 PUSH0 DUP4 ADD DUP5 PUSH2 0x1D84 JUMP JUMPDEST SWAP3 SWAP2 POP POP JUMP JUMPDEST PUSH2 0x1DB5 DUP2 PUSH2 0x1D73 JUMP JUMPDEST DUP2 EQ PUSH2 0x1DBF JUMPI PUSH0 DUP1 REVERT JUMPDEST POP JUMP JUMPDEST PUSH0 DUP2 CALLDATALOAD SWAP1 POP PUSH2 0x1DD0 DUP2 PUSH2 0x1DAC JUMP JUMPDEST SWAP3 SWAP2 POP POP JUMP JUMPDEST PUSH0 DUP1 PUSH1 0x40 DUP4 DUP6 SUB SLT ISZERO PUSH2 0x1DEC JUMPI PUSH2 0x1DEB PUSH2 0x1B91 JUMP JUMPDEST JUMPDEST PUSH0 PUSH2 0x1DF9 DUP6 DUP3 DUP7 ADD PUSH2 0x1DC2 JUMP JUMPDEST SWAP3 POP POP PUSH1 0x20 PUSH2 0x1E0A DUP6 DUP3 DUP7 ADD PUSH2 0x1D15 JUMP JUMPDEST SWAP2 POP POP SWAP3 POP SWAP3 SWAP1 POP JUMP JUMPDEST PUSH0 PUSH1 0x20 DUP3 DUP5 SUB SLT ISZERO PUSH2 0x1E29 JUMPI PUSH2 0x1E28 PUSH2 0x1B91 JUMP JUMPDEST JUMPDEST PUSH0 PUSH2 0x1E36 DUP5 DUP3 DUP6 ADD PUSH2 0x1DC2 JUMP JUMPDEST SWAP2 POP POP SWAP3 SWAP2 POP POP JUMP JUMPDEST PUSH0 DUP2 MLOAD SWAP1 POP SWAP2 SWAP1 POP JUMP JUMPDEST PUSH0 DUP3 DUP3 MSTORE PUSH1 0x20 DUP3 ADD SWAP1 POP SWAP3 SWAP2 POP POP JUMP JUMPDEST PUSH0 DUP2 SWAP1 POP PUSH1 0x20 DUP3 ADD SWAP1 POP SWAP2 SWAP1 POP JUMP JUMPDEST PUSH2 0x1E71 DUP2 PUSH2 0x1CF6 JUMP JUMPDEST DUP3 MSTORE POP POP JUMP JUMPDEST PUSH0 DUP3 DUP3 MSTORE PUSH1 0x20 DUP3 ADD SWAP1 POP SWAP3 SWAP2 POP POP JUMP JUMPDEST PUSH0 PUSH2 0x1E91 DUP3 PUSH2 0x1C4C JUMP JUMPDEST PUSH2 0x1E9B DUP2 DUP6 PUSH2 0x1E77 JUMP JUMPDEST SWAP4 POP PUSH2 0x1EAB DUP2 DUP6 PUSH1 0x20 DUP7 ADD PUSH2 0x1C66 JUMP JUMPDEST PUSH2 0x1EB4 DUP2 PUSH2 0x1C8E JUMP JUMPDEST DUP5 ADD SWAP2 POP POP SWAP3 SWAP2 POP POP JUMP JUMPDEST PUSH0 PUSH1 0x40 DUP4 ADD PUSH0 DUP4 ADD MLOAD DUP5 DUP3 SUB PUSH0 DUP7 ADD MSTORE PUSH2 0x1ED9 DUP3 DUP3 PUSH2 0x1E87 JUMP JUMPDEST SWAP2 POP POP PUSH1 0x20 DUP4 ADD MLOAD PUSH2 0x1EEE PUSH1 0x20 DUP7 ADD DUP3 PUSH2 0x1E68 JUMP JUMPDEST POP DUP1 SWAP2 POP POP SWAP3 SWAP2 POP POP JUMP JUMPDEST PUSH0 PUSH1 0x40 DUP4 ADD PUSH0 DUP4 ADD MLOAD PUSH2 0x1F0E PUSH0 DUP7 ADD DUP3 PUSH2 0x1E68 JUMP JUMPDEST POP PUSH1 0x20 DUP4 ADD MLOAD DUP5 DUP3 SUB PUSH1 0x20 DUP7 ADD MSTORE PUSH2 0x1F26 DUP3 DUP3 PUSH2 0x1EBF JUMP JUMPDEST SWAP2 POP POP DUP1 SWAP2 POP POP SWAP3 SWAP2 POP POP JUMP JUMPDEST PUSH0 PUSH2 0x1F3E DUP4 DUP4 PUSH2 0x1EF9 JUMP JUMPDEST SWAP1 POP SWAP3 SWAP2 POP POP JUMP JUMPDEST PUSH0 PUSH1 0x20 DUP3 ADD SWAP1 POP SWAP2 SWAP1 POP JUMP JUMPDEST PUSH0 PUSH2 0x1F5C DUP3 PUSH2 0x1E3F JUMP JUMPDEST PUSH2 0x1F66 DUP2 DUP6 PUSH2 0x1E49 JUMP JUMPDEST SWAP4 POP DUP4 PUSH1 0x20 DUP3 MUL DUP6 ADD PUSH2 0x1F78 DUP6 PUSH2 0x1E59 JUMP JUMPDEST DUP1 PUSH0 JUMPDEST DUP6 DUP2 LT ISZERO PUSH2 0x1FB3 JUMPI DUP5 DUP5 SUB DUP10 MSTORE DUP2 MLOAD PUSH2 0x1F94 DUP6 DUP3 PUSH2 0x1F33 JUMP JUMPDEST SWAP5 POP PUSH2 0x1F9F DUP4 PUSH2 0x1F46 JUMP JUMPDEST SWAP3 POP PUSH1 0x20 DUP11 ADD SWAP10 POP POP PUSH1 0x1 DUP2 ADD SWAP1 POP PUSH2 0x1F7B JUMP JUMPDEST POP DUP3 SWAP8 POP DUP8 SWAP6 POP POP POP POP POP POP SWAP3 SWAP2 POP POP JUMP JUMPDEST PUSH0 PUSH1 0x20 DUP3 ADD SWAP1 POP DUP2 DUP2 SUB PUSH0 DUP4 ADD MSTORE PUSH2 0x1FDD DUP2 DUP5 PUSH2 0x1F52 JUMP JUMPDEST SWAP1 POP SWAP3 SWAP2 POP POP JUMP JUMPDEST PUSH0 DUP1 PUSH0 PUSH1 0x60 DUP5 DUP7 SUB SLT ISZERO PUSH2 0x1FFC JUMPI PUSH2 0x1FFB PUSH2 0x1B91 JUMP JUMPDEST JUMPDEST PUSH0 PUSH2 0x2009 DUP7 DUP3 DUP8 ADD PUSH2 0x1DC2 JUMP JUMPDEST SWAP4 POP POP PUSH1 0x20 PUSH2 0x201A DUP7 DUP3 DUP8 ADD PUSH2 0x1DC2 JUMP JUMPDEST SWAP3 POP POP PUSH1 0x40 PUSH2 0x202B DUP7 DUP3 DUP8 ADD PUSH2 0x1D15 JUMP JUMPDEST SWAP2 POP POP SWAP3 POP SWAP3 POP SWAP3 JUMP JUMPDEST PUSH2 0x203E DUP2 PUSH2 0x1C19 JUMP JUMPDEST DUP2 EQ PUSH2 0x2048 JUMPI PUSH0 DUP1 REVERT JUMPDEST POP JUMP JUMPDEST PUSH0 DUP2 CALLDATALOAD SWAP1 POP PUSH2 0x2059 DUP2 PUSH2 0x2035 JUMP JUMPDEST SWAP3 SWAP2 POP POP JUMP JUMPDEST PUSH0 DUP1 PUSH0 PUSH1 0x60 DUP5 DUP7 SUB SLT ISZERO PUSH2 0x2076 JUMPI PUSH2 0x2075 PUSH2 0x1B91 JUMP JUMPDEST JUMPDEST PUSH0 PUSH2 0x2083 DUP7 DUP3 DUP8 ADD PUSH2 0x1DC2 JUMP JUMPDEST SWAP4 POP POP PUSH1 0x20 PUSH2 0x2094 DUP7 DUP3 DUP8 ADD PUSH2 0x1DC2 JUMP JUMPDEST SWAP3 POP POP PUSH1 0x40 PUSH2 0x20A5 DUP7 DUP3 DUP8 ADD PUSH2 0x204B JUMP JUMPDEST SWAP2 POP POP SWAP3 POP SWAP3 POP SWAP3 JUMP JUMPDEST PUSH0 DUP2 MLOAD SWAP1 POP SWAP2 SWAP1 POP JUMP JUMPDEST PUSH0 DUP3 DUP3 MSTORE PUSH1 0x20 DUP3 ADD SWAP1 POP SWAP3 SWAP2 POP POP JUMP JUMPDEST PUSH0 DUP2 SWAP1 POP PUSH1 0x20 DUP3 ADD SWAP1 POP SWAP2 SWAP1 POP JUMP JUMPDEST PUSH0 PUSH2 0x20E3 DUP4 DUP4 PUSH2 0x1E87 JUMP JUMPDEST SWAP1 POP SWAP3 SWAP2 POP POP JUMP JUMPDEST PUSH0 PUSH1 0x20 DUP3 ADD SWAP1 POP SWAP2 SWAP1 POP JUMP JUMPDEST PUSH0 PUSH2 0x2101 DUP3 PUSH2 0x20AF JUMP JUMPDEST PUSH2 0x210B DUP2 DUP6 PUSH2 0x20B9 JUMP JUMPDEST SWAP4 POP DUP4 PUSH1 0x20 DUP3 MUL DUP6 ADD PUSH2 0x211D DUP6 PUSH2 0x20C9 JUMP JUMPDEST DUP1 PUSH0 JUMPDEST DUP6 DUP2 LT ISZERO PUSH2 0x2158 JUMPI DUP5 DUP5 SUB DUP10 MSTORE DUP2 MLOAD PUSH2 0x2139 DUP6 DUP3 PUSH2 0x20D8 JUMP JUMPDEST SWAP5 POP PUSH2 0x2144 DUP4 PUSH2 0x20EB JUMP JUMPDEST SWAP3 POP PUSH1 0x20 DUP11 ADD SWAP10 POP POP PUSH1 0x1 DUP2 ADD SWAP1 POP PUSH2 0x2120 JUMP JUMPDEST POP DUP3 SWAP8 POP DUP8 SWAP6 POP POP POP POP POP POP SWAP3 SWAP2 POP POP JUMP JUMPDEST PUSH0 PUSH1 0x20 DUP3 ADD SWAP1 POP DUP2 DUP2 SUB PUSH0 DUP4 ADD MSTORE PUSH2 0x2182 DUP2 DUP5 PUSH2 0x20F7 JUMP JUMPDEST SWAP1 POP SWAP3 SWAP2 POP POP JUMP JUMPDEST PUSH2 0x2193 DUP2 PUSH2 0x1CF6 JUMP JUMPDEST DUP3 MSTORE POP POP JUMP JUMPDEST PUSH0 PUSH1 0x20 DUP3 ADD SWAP1 POP PUSH2 0x21AC PUSH0 DUP4 ADD DUP5 PUSH2 0x218A JUMP JUMPDEST SWAP3 SWAP2 POP POP JUMP JUMPDEST PUSH0 DUP1 REVERT JUMPDEST PUSH0 DUP1 REVERT JUMPDEST PUSH32 0x4E487B7100000000000000000000000000000000000000000000000000000000 PUSH0 MSTORE PUSH1 0x41 PUSH1 0x4 MSTORE PUSH1 0x24 PUSH0 REVERT JUMPDEST PUSH2 0x21F0 DUP3 PUSH2 0x1C8E JUMP JUMPDEST DUP2 ADD DUP2 DUP2 LT PUSH8 0xFFFFFFFFFFFFFFFF DUP3 GT OR ISZERO PUSH2 0x220F JUMPI PUSH2 0x220E PUSH2 0x21BA JUMP JUMPDEST JUMPDEST DUP1 PUSH1 0x40 MSTORE POP POP POP JUMP JUMPDEST PUSH0 PUSH2 0x2221 PUSH2 0x1B88 JUMP JUMPDEST SWAP1 POP PUSH2 0x222D DUP3 DUP3 PUSH2 0x21E7 JUMP JUMPDEST SWAP2 SWAP1 POP JUMP JUMPDEST PUSH0 PUSH8 0xFFFFFFFFFFFFFFFF DUP3 GT ISZERO PUSH2 0x224C JUMPI PUSH2 0x224B PUSH2 0x21BA JUMP JUMPDEST JUMPDEST PUSH2 0x2255 DUP3 PUSH2 0x1C8E JUMP JUMPDEST SWAP1 POP PUSH1 0x20 DUP2 ADD SWAP1 POP SWAP2 SWAP1 POP JUMP JUMPDEST DUP3 DUP2 DUP4 CALLDATACOPY PUSH0 DUP4 DUP4 ADD MSTORE POP POP POP JUMP JUMPDEST PUSH0 PUSH2 0x2282 PUSH2 0x227D DUP5 PUSH2 0x2232 JUMP JUMPDEST PUSH2 0x2218 JUMP JUMPDEST SWAP1 POP DUP3 DUP2 MSTORE PUSH1 0x20 DUP2 ADD DUP5 DUP5 DUP5 ADD GT ISZERO PUSH2 0x229E JUMPI PUSH2 0x229D PUSH2 0x21B6 JUMP JUMPDEST JUMPDEST PUSH2 0x22A9 DUP5 DUP3 DUP6 PUSH2 0x2262 JUMP JUMPDEST POP SWAP4 SWAP3 POP POP POP JUMP JUMPDEST PUSH0 DUP3 PUSH1 0x1F DUP4 ADD SLT PUSH2 0x22C5 JUMPI PUSH2 0x22C4 PUSH2 0x21B2 JUMP JUMPDEST JUMPDEST DUP2 CALLDATALOAD PUSH2 0x22D5 DUP5 DUP3 PUSH1 0x20 DUP7 ADD PUSH2 0x2270 JUMP JUMPDEST SWAP2 POP POP SWAP3 SWAP2 POP POP JUMP JUMPDEST PUSH0 PUSH1 0x20 DUP3 DUP5 SUB SLT ISZERO PUSH2 0x22F3 JUMPI PUSH2 0x22F2 PUSH2 0x1B91 JUMP JUMPDEST JUMPDEST PUSH0 DUP3 ADD CALLDATALOAD PUSH8 0xFFFFFFFFFFFFFFFF DUP2 GT ISZERO PUSH2 0x2310 JUMPI PUSH2 0x230F PUSH2 0x1B95 JUMP JUMPDEST JUMPDEST PUSH2 0x231C DUP5 DUP3 DUP6 ADD PUSH2 0x22B1 JUMP JUMPDEST SWAP2 POP POP SWAP3 SWAP2 POP POP JUMP JUMPDEST PUSH0 DUP1 PUSH1 0x40 DUP4 DUP6 SUB SLT ISZERO PUSH2 0x233B JUMPI PUSH2 0x233A PUSH2 0x1B91 JUMP JUMPDEST JUMPDEST PUSH0 DUP4 ADD CALLDATALOAD PUSH8 0xFFFFFFFFFFFFFFFF DUP2 GT ISZERO PUSH2 0x2358 JUMPI PUSH2 0x2357 PUSH2 0x1B95 JUMP JUMPDEST JUMPDEST PUSH2 0x2364 DUP6 DUP3 DUP7 ADD PUSH2 0x22B1 JUMP JUMPDEST SWAP3 POP POP PUSH1 0x20 DUP4 ADD CALLDATALOAD PUSH8 0xFFFFFFFFFFFFFFFF DUP2 GT ISZERO PUSH2 0x2385 JUMPI PUSH2 0x2384 PUSH2 0x1B95 JUMP JUMPDEST JUMPDEST PUSH2 0x2391 DUP6 DUP3 DUP7 ADD PUSH2 0x22B1 JUMP JUMPDEST SWAP2 POP POP SWAP3 POP SWAP3 SWAP1 POP JUMP JUMPDEST PUSH0 DUP1 PUSH1 0x40 DUP4 DUP6 SUB SLT ISZERO PUSH2 0x23B1 JUMPI PUSH2 0x23B0 PUSH2 0x1B91 JUMP JUMPDEST JUMPDEST PUSH0 PUSH2 0x23BE DUP6 DUP3 DUP7 ADD PUSH2 0x1DC2 JUMP JUMPDEST SWAP3 POP POP PUSH1 0x20 PUSH2 0x23CF DUP6 DUP3 DUP7 ADD PUSH2 0x204B JUMP JUMPDEST SWAP2 POP POP SWAP3 POP SWAP3 SWAP1 POP JUMP JUMPDEST PUSH0 PUSH8 0xFFFFFFFFFFFFFFFF DUP3 GT ISZERO PUSH2 0x23F3 JUMPI PUSH2 0x23F2 PUSH2 0x21BA JUMP JUMPDEST JUMPDEST PUSH2 0x23FC DUP3 PUSH2 0x1C8E JUMP JUMPDEST SWAP1 POP PUSH1 0x20 DUP2 ADD SWAP1 POP SWAP2 SWAP1 POP JUMP JUMPDEST PUSH0 PUSH2 0x241B PUSH2 0x2416 DUP5 PUSH2 0x23D9 JUMP JUMPDEST PUSH2 0x2218 JUMP JUMPDEST SWAP1 POP DUP3 DUP2 MSTORE PUSH1 0x20 DUP2 ADD DUP5 DUP5 DUP5 ADD GT ISZERO PUSH2 0x2437 JUMPI PUSH2 0x2436 PUSH2 0x21B6 JUMP JUMPDEST JUMPDEST PUSH2 0x2442 DUP5 DUP3 DUP6 PUSH2 0x2262 JUMP JUMPDEST POP SWAP4 SWAP3 POP POP POP JUMP JUMPDEST PUSH0 DUP3 PUSH1 0x1F DUP4 ADD SLT PUSH2 0x245E JUMPI PUSH2 0x245D PUSH2 0x21B2 JUMP JUMPDEST JUMPDEST DUP2 CALLDATALOAD PUSH2 0x246E DUP5 DUP3 PUSH1 0x20 DUP7 ADD PUSH2 0x2409 JUMP JUMPDEST SWAP2 POP POP SWAP3 SWAP2 POP POP JUMP JUMPDEST PUSH0 DUP1 PUSH0 DUP1 PUSH1 0x80 DUP6 DUP8 SUB SLT ISZERO PUSH2 0x248F JUMPI PUSH2 0x248E PUSH2 0x1B91 JUMP JUMPDEST JUMPDEST PUSH0 PUSH2 0x249C DUP8 DUP3 DUP9 ADD PUSH2 0x1DC2 JUMP JUMPDEST SWAP5 POP POP PUSH1 0x20 PUSH2 0x24AD DUP8 DUP3 DUP9 ADD PUSH2 0x1DC2 JUMP JUMPDEST SWAP4 POP POP PUSH1 0x40 PUSH2 0x24BE DUP8 DUP3 DUP9 ADD PUSH2 0x1D15 JUMP JUMPDEST SWAP3 POP POP PUSH1 0x60 DUP6 ADD CALLDATALOAD PUSH8 0xFFFFFFFFFFFFFFFF DUP2 GT ISZERO PUSH2 0x24DF JUMPI PUSH2 0x24DE PUSH2 0x1B95 JUMP JUMPDEST JUMPDEST PUSH2 0x24EB DUP8 DUP3 DUP9 ADD PUSH2 0x244A JUMP JUMPDEST SWAP2 POP POP SWAP3 SWAP6 SWAP2 SWAP5 POP SWAP3 POP JUMP JUMPDEST PUSH0 DUP1 PUSH1 0x40 DUP4 DUP6 SUB SLT ISZERO PUSH2 0x250D JUMPI PUSH2 0x250C PUSH2 0x1B91 JUMP JUMPDEST JUMPDEST PUSH0 PUSH2 0x251A DUP6 DUP3 DUP7 ADD PUSH2 0x1DC2 JUMP JUMPDEST SWAP3 POP POP PUSH1 0x20 PUSH2 0x252B DUP6 DUP3 DUP7 ADD PUSH2 0x1DC2 JUMP JUMPDEST SWAP2 POP POP SWAP3 POP SWAP3 SWAP1 POP JUMP JUMPDEST PUSH32 0x4E487B7100000000000000000000000000000000000000000000000000000000 PUSH0 MSTORE PUSH1 0x22 PUSH1 0x4 MSTORE PUSH1 0x24 PUSH0 REVERT JUMPDEST PUSH0 PUSH1 0x2 DUP3 DIV SWAP1 POP PUSH1 0x1 DUP3 AND DUP1 PUSH2 0x2579 JUMPI PUSH1 0x7F DUP3 AND SWAP2 POP JUMPDEST PUSH1 0x20 DUP3 LT DUP2 SUB PUSH2 0x258C JUMPI PUSH2 0x258B PUSH2 0x2535 JUMP JUMPDEST JUMPDEST POP SWAP2 SWAP1 POP JUMP JUMPDEST PUSH32 0x4E487B7100000000000000000000000000000000000000000000000000000000 PUSH0 MSTORE PUSH1 0x32 PUSH1 0x4 MSTORE PUSH1 0x24 PUSH0 REVERT JUMPDEST PUSH32 0x4E487B7100000000000000000000000000000000000000000000000000000000 PUSH0 MSTORE PUSH1 0x11 PUSH1 0x4 MSTORE PUSH1 0x24 PUSH0 REVERT JUMPDEST PUSH0 PUSH2 0x25F6 DUP3 PUSH2 0x1CF6 JUMP JUMPDEST SWAP2 POP PUSH32 0xFFFFFFFFFFFFFFFFFFFFFFFFFFFFFFFFFFFFFFFFFFFFFFFFFFFFFFFFFFFFFFFF DUP3 SUB PUSH2 0x2628 JUMPI PUSH2 0x2627 PUSH2 0x25BF JUMP JUMPDEST JUMPDEST PUSH1 0x1 DUP3 ADD SWAP1 POP SWAP2 SWAP1 POP JUMP JUMPDEST PUSH0 PUSH1 0x60 DUP3 ADD SWAP1 POP PUSH2 0x2646 PUSH0 DUP4 ADD DUP7 PUSH2 0x1D84 JUMP JUMPDEST PUSH2 0x2653 PUSH1 0x20 DUP4 ADD DUP6 PUSH2 0x218A JUMP JUMPDEST PUSH2 0x2660 PUSH1 0x40 DUP4 ADD DUP5 PUSH2 0x1D84 JUMP JUMPDEST SWAP5 SWAP4 POP POP POP POP JUMP JUMPDEST PUSH0 DUP2 SWAP1 POP SWAP3 SWAP2 POP POP JUMP JUMPDEST PUSH0 PUSH2 0x267C DUP3 PUSH2 0x1C4C JUMP JUMPDEST PUSH2 0x2686 DUP2 DUP6 PUSH2 0x2668 JUMP JUMPDEST SWAP4 POP PUSH2 0x2696 DUP2 DUP6 PUSH1 0x20 DUP7 ADD PUSH2 0x1C66 JUMP JUMPDEST DUP1 DUP5 ADD SWAP2 POP POP SWAP3 SWAP2 POP POP JUMP JUMPDEST PUSH0 PUSH2 0x26AD DUP3 DUP5 PUSH2 0x2672 JUMP JUMPDEST SWAP2 POP DUP2 SWAP1 POP SWAP3 SWAP2 POP POP JUMP JUMPDEST PUSH32 0x4E487B7100000000000000000000000000000000000000000000000000000000 PUSH0 MSTORE PUSH1 0x12 PUSH1 0x4 MSTORE PUSH1 0x24 PUSH0 REVERT JUMPDEST PUSH0 PUSH2 0x26EF DUP3 PUSH2 0x1CF6 JUMP JUMPDEST SWAP2 POP PUSH2 0x26FA DUP4 PUSH2 0x1CF6 JUMP JUMPDEST SWAP3 POP DUP3 PUSH2 0x270A JUMPI PUSH2 0x2709 PUSH2 0x26B8 JUMP JUMPDEST JUMPDEST DUP3 DUP3 MOD SWAP1 POP SWAP3 SWAP2 POP POP JUMP JUMPDEST PUSH0 PUSH2 0x271F DUP3 PUSH2 0x1CF6 JUMP JUMPDEST SWAP2 POP PUSH2 0x272A DUP4 PUSH2 0x1CF6 JUMP JUMPDEST SWAP3 POP DUP3 DUP3 ADD SWAP1 POP DUP1 DUP3 GT ISZERO PUSH2 0x2742 JUMPI PUSH2 0x2741 PUSH2 0x25BF JUMP JUMPDEST JUMPDEST SWAP3 SWAP2 POP POP JUMP JUMPDEST PUSH0 DUP2 SWAP1 POP DUP2 PUSH0 MSTORE PUSH1 0x20 PUSH0 KECCAK256 SWAP1 POP SWAP2 SWAP1 POP JUMP JUMPDEST PUSH0 PUSH1 0x20 PUSH1 0x1F DUP4 ADD DIV SWAP1 POP SWAP2 SWAP1 POP JUMP JUMPDEST PUSH0 DUP3 DUP3 SHL SWAP1 POP SWAP3 SWAP2 POP POP JUMP JUMPDEST PUSH0 PUSH1 0x8 DUP4 MUL PUSH2 0x27A4 PUSH32 0xFFFFFFFFFFFFFFFFFFFFFFFFFFFFFFFFFFFFFFFFFFFFFFFFFFFFFFFFFFFFFFFF DUP3 PUSH2 0x2769 JUMP JUMPDEST PUSH2 0x27AE DUP7 DUP4 PUSH2 0x2769 JUMP JUMPDEST SWAP6 POP DUP1 NOT DUP5 AND SWAP4 POP DUP1 DUP7 AND DUP5 OR SWAP3 POP POP POP SWAP4 SWAP3 POP POP POP JUMP JUMPDEST PUSH0 DUP2 SWAP1 POP SWAP2 SWAP1 POP JUMP JUMPDEST PUSH0 PUSH2 0x27E9 PUSH2 0x27E4 PUSH2 0x27DF DUP5 PUSH2 0x1CF6 JUMP JUMPDEST PUSH2 0x27C6 JUMP JUMPDEST PUSH2 0x1CF6 JUMP JUMPDEST SWAP1 POP SWAP2 SWAP1 POP JUMP JUMPDEST PUSH0 DUP2 SWAP1 POP SWAP2 SWAP1 POP JUMP JUMPDEST PUSH2 0x2802 DUP4 PUSH2 0x27CF JUMP JUMPDEST PUSH2 0x2816 PUSH2 0x280E DUP3 PUSH2 0x27F0 JUMP JUMPDEST DUP5 DUP5 SLOAD PUSH2 0x2775 JUMP JUMPDEST DUP3 SSTORE POP POP POP POP JUMP JUMPDEST PUSH0 SWAP1 JUMP JUMPDEST PUSH2 0x282A PUSH2 0x281E JUMP JUMPDEST PUSH2 0x2835 DUP2 DUP5 DUP5 PUSH2 0x27F9 JUMP JUMPDEST POP POP POP JUMP JUMPDEST JUMPDEST DUP2 DUP2 LT ISZERO PUSH2 0x2858 JUMPI PUSH2 0x284D PUSH0 DUP3 PUSH2 0x2822 JUMP JUMPDEST PUSH1 0x1 DUP2 ADD SWAP1 POP PUSH2 0x283B JUMP JUMPDEST POP POP JUMP JUMPDEST PUSH1 0x1F DUP3 GT ISZERO PUSH2 0x289D JUMPI PUSH2 0x286E DUP2 PUSH2 0x2748 JUMP JUMPDEST PUSH2 0x2877 DUP5 PUSH2 0x275A JUMP JUMPDEST DUP2 ADD PUSH1 0x20 DUP6 LT ISZERO PUSH2 0x2886 JUMPI DUP2 SWAP1 POP JUMPDEST PUSH2 0x289A PUSH2 0x2892 DUP6 PUSH2 0x275A JUMP JUMPDEST DUP4 ADD DUP3 PUSH2 0x283A JUMP JUMPDEST POP POP JUMPDEST POP POP POP JUMP JUMPDEST PUSH0 DUP3 DUP3 SHR SWAP1 POP SWAP3 SWAP2 POP POP JUMP JUMPDEST PUSH0 PUSH2 0x28BD PUSH0 NOT DUP5 PUSH1 0x8 MUL PUSH2 0x28A2 JUMP JUMPDEST NOT DUP1 DUP4 AND SWAP2 POP POP SWAP3 SWAP2 POP POP JUMP JUMPDEST PUSH0 PUSH2 0x28D5 DUP4 DUP4 PUSH2 0x28AE JUMP JUMPDEST SWAP2 POP DUP3 PUSH1 0x2 MUL DUP3 OR SWAP1 POP SWAP3 SWAP2 POP POP JUMP JUMPDEST PUSH2 0x28EE DUP3 PUSH2 0x1C4C JUMP JUMPDEST PUSH8 0xFFFFFFFFFFFFFFFF DUP2 GT ISZERO PUSH2 0x2907 JUMPI PUSH2 0x2906 PUSH2 0x21BA JUMP JUMPDEST JUMPDEST PUSH2 0x2911 DUP3 SLOAD PUSH2 0x2562 JUMP JUMPDEST PUSH2 0x291C DUP3 DUP3 DUP6 PUSH2 0x285C JUMP JUMPDEST PUSH0 PUSH1 0x20 SWAP1 POP PUSH1 0x1F DUP4 GT PUSH1 0x1 DUP2 EQ PUSH2 0x294D JUMPI PUSH0 DUP5 ISZERO PUSH2 0x293B JUMPI DUP3 DUP8 ADD MLOAD SWAP1 POP JUMPDEST PUSH2 0x2945 DUP6 DUP3 PUSH2 0x28CA JUMP JUMPDEST DUP7 SSTORE POP PUSH2 0x29AC JUMP JUMPDEST PUSH1 0x1F NOT DUP5 AND PUSH2 0x295B DUP7 PUSH2 0x2748 JUMP JUMPDEST PUSH0 JUMPDEST DUP3 DUP2 LT ISZERO PUSH2 0x2982 JUMPI DUP5 DUP10 ADD MLOAD DUP3 SSTORE PUSH1 0x1 DUP3 ADD SWAP2 POP PUSH1 0x20 DUP6 ADD SWAP5 POP PUSH1 0x20 DUP2 ADD SWAP1 POP PUSH2 0x295D JUMP JUMPDEST DUP7 DUP4 LT ISZERO PUSH2 0x299F JUMPI DUP5 DUP10 ADD MLOAD PUSH2 0x299B PUSH1 0x1F DUP10 AND DUP3 PUSH2 0x28AE JUMP JUMPDEST DUP4 SSTORE POP JUMPDEST PUSH1 0x1 PUSH1 0x2 DUP9 MUL ADD DUP9 SSTORE POP POP POP JUMPDEST POP POP POP POP POP POP JUMP JUMPDEST PUSH0 PUSH2 0x29BE DUP3 PUSH2 0x1CF6 JUMP JUMPDEST SWAP2 POP PUSH2 0x29C9 DUP4 PUSH2 0x1CF6 JUMP JUMPDEST SWAP3 POP DUP3 DUP3 SUB SWAP1 POP DUP2 DUP2 GT ISZERO PUSH2 0x29E1 JUMPI PUSH2 0x29E0 PUSH2 0x25BF JUMP JUMPDEST JUMPDEST SWAP3 SWAP2 POP POP JUMP JUMPDEST PUSH0 DUP2 MLOAD SWAP1 POP SWAP2 SWAP1 POP JUMP JUMPDEST PUSH0 DUP3 DUP3 MSTORE PUSH1 0x20 DUP3 ADD SWAP1 POP SWAP3 SWAP2 POP POP JUMP JUMPDEST PUSH0 PUSH2 0x2A0B DUP3 PUSH2 0x29E7 JUMP JUMPDEST PUSH2 0x2A15 DUP2 DUP6 PUSH2 0x29F1 JUMP JUMPDEST SWAP4 POP PUSH2 0x2A25 DUP2 DUP6 PUSH1 0x20 DUP7 ADD PUSH2 0x1C66 JUMP JUMPDEST PUSH2 0x2A2E DUP2 PUSH2 0x1C8E JUMP JUMPDEST DUP5 ADD SWAP2 POP POP SWAP3 SWAP2 POP POP JUMP JUMPDEST PUSH0 PUSH1 0x80 DUP3 ADD SWAP1 POP PUSH2 0x2A4C PUSH0 DUP4 ADD DUP8 PUSH2 0x1D84 JUMP JUMPDEST PUSH2 0x2A59 PUSH1 0x20 DUP4 ADD DUP7 PUSH2 0x1D84 JUMP JUMPDEST PUSH2 0x2A66 PUSH1 0x40 DUP4 ADD DUP6 PUSH2 0x218A JUMP JUMPDEST DUP2 DUP2 SUB PUSH1 0x60 DUP4 ADD MSTORE PUSH2 0x2A78 DUP2 DUP5 PUSH2 0x2A01 JUMP JUMPDEST SWAP1 POP SWAP6 SWAP5 POP POP POP POP POP JUMP JUMPDEST PUSH0 DUP2 MLOAD SWAP1 POP PUSH2 0x2A91 DUP2 PUSH2 0x1BC4 JUMP JUMPDEST SWAP3 SWAP2 POP POP JUMP JUMPDEST PUSH0 PUSH1 0x20 DUP3 DUP5 SUB SLT ISZERO PUSH2 0x2AAC JUMPI PUSH2 0x2AAB PUSH2 0x1B91 JUMP JUMPDEST JUMPDEST PUSH0 PUSH2 0x2AB9 DUP5 DUP3 DUP6 ADD PUSH2 0x2A83 JUMP JUMPDEST SWAP2 POP POP SWAP3 SWAP2 POP POP JUMP JUMPDEST PUSH0 PUSH1 0x40 DUP3 ADD SWAP1 POP PUSH2 0x2AD5 PUSH0 DUP4 ADD DUP6 PUSH2 0x1D84 JUMP JUMPDEST PUSH2 0x2AE2 PUSH1 0x20 DUP4 ADD DUP5 PUSH2 0x218A JUMP JUMPDEST SWAP4 SWAP3 POP POP POP JUMP INVALID LOG2 PUSH5 0x6970667358 0x22 SLT KECCAK256 0x4F 0xD8 PUSH28 0x9CCEC83B02A7FE0C9D17EAF217B1A0B9B27EC9227C67BF1CEF840D0 0x4C PUSH5 0x736F6C6343 STOP ADDMOD EQ STOP CALLER "
				},
				"gasEstimates": {
					"creation": {
						"codeDepositCost": "2207800",
						"executionCost": "infinite",
						"totalCost": "infinite"
					},
					"external": {
						"approve(address,uint256)": "infinite",
						"balanceOf(address)": "infinite",
						"getApproved(uint256)": "infinite",
						"getOwnerTokenMetaData(address)": "infinite",
						"getOwnerURIs(address)": "infinite",
						"getTokenRanking(uint256)": "infinite",
						"getTokenURI(uint256)": "infinite",
						"isApprovedForAll(address,address)": "infinite",
						"makeRandom(string)": "infinite",
						"minting(string,string)": "infinite",
						"name()": "infinite",
						"ownerOf(uint256)": "infinite",
						"safeTransferFrom(address,address,uint256)": "infinite",
						"safeTransferFrom(address,address,uint256,bytes)": "infinite",
						"setAppAll(address,address,bool)": "infinite",
						"setApprovalForAll(address,bool)": "infinite",
						"supportsInterface(bytes4)": "787",
						"symbol()": "infinite",
						"tokenURI(uint256)": "infinite",
						"transferFrom(address,address,uint256)": "infinite"
					},
					"internal": {
						"_baseURI()": "infinite"
					}
				},
				"methodIdentifiers": {
					"approve(address,uint256)": "095ea7b3",
					"balanceOf(address)": "70a08231",
					"getApproved(uint256)": "081812fc",
					"getOwnerTokenMetaData(address)": "0a48a1ac",
					"getOwnerURIs(address)": "5f0cac76",
					"getTokenRanking(uint256)": "d15a76d2",
					"getTokenURI(uint256)": "3bb3a24d",
					"isApprovedForAll(address,address)": "e985e9c5",
					"makeRandom(string)": "838e4537",
					"minting(string,string)": "8a55a50e",
					"name()": "06fdde03",
					"ownerOf(uint256)": "6352211e",
					"safeTransferFrom(address,address,uint256)": "42842e0e",
					"safeTransferFrom(address,address,uint256,bytes)": "b88d4fde",
					"setAppAll(address,address,bool)": "29d6724e",
					"setApprovalForAll(address,bool)": "a22cb465",
					"supportsInterface(bytes4)": "01ffc9a7",
					"symbol()": "95d89b41",
					"tokenURI(uint256)": "c87b56dd",
					"transferFrom(address,address,uint256)": "23b872dd"
				}
			},
			"storageLayout": {
				"storage": [
					{
						"astId": 466,
						"contract": "myNFT.sol:MyNFT",
						"label": "_name",
						"offset": 0,
						"slot": "0",
						"type": "t_string_storage"
					},
					{
						"astId": 468,
						"contract": "myNFT.sol:MyNFT",
						"label": "_symbol",
						"offset": 0,
						"slot": "1",
						"type": "t_string_storage"
					},
					{
						"astId": 472,
						"contract": "myNFT.sol:MyNFT",
						"label": "_owners",
						"offset": 0,
						"slot": "2",
						"type": "t_mapping(t_uint256,t_address)"
					},
					{
						"astId": 476,
						"contract": "myNFT.sol:MyNFT",
						"label": "_balances",
						"offset": 0,
						"slot": "3",
						"type": "t_mapping(t_address,t_uint256)"
					},
					{
						"astId": 480,
						"contract": "myNFT.sol:MyNFT",
						"label": "_tokenApprovals",
						"offset": 0,
						"slot": "4",
						"type": "t_mapping(t_uint256,t_address)"
					},
					{
						"astId": 486,
						"contract": "myNFT.sol:MyNFT",
						"label": "_operatorApprovals",
						"offset": 0,
						"slot": "5",
						"type": "t_mapping(t_address,t_mapping(t_address,t_bool))"
					},
					{
						"astId": 32,
						"contract": "myNFT.sol:MyNFT",
						"label": "_tokenMetaData",
						"offset": 0,
						"slot": "6",
						"type": "t_mapping(t_uint256,t_struct(TokenMetaData)21_storage)"
					},
					{
						"astId": 35,
						"contract": "myNFT.sol:MyNFT",
						"label": "totalSupply",
						"offset": 0,
						"slot": "7",
						"type": "t_uint256"
					},
					{
						"astId": 40,
						"contract": "myNFT.sol:MyNFT",
						"label": "addressIDs",
						"offset": 0,
						"slot": "8",
						"type": "t_mapping(t_address,t_array(t_uint256)dyn_storage)"
					}
				],
				"types": {
					"t_address": {
						"encoding": "inplace",
						"label": "address",
						"numberOfBytes": "20"
					},
					"t_array(t_uint256)dyn_storage": {
						"base": "t_uint256",
						"encoding": "dynamic_array",
						"label": "uint256[]",
						"numberOfBytes": "32"
					},
					"t_bool": {
						"encoding": "inplace",
						"label": "bool",
						"numberOfBytes": "1"
					},
					"t_mapping(t_address,t_array(t_uint256)dyn_storage)": {
						"encoding": "mapping",
						"key": "t_address",
						"label": "mapping(address => uint256[])",
						"numberOfBytes": "32",
						"value": "t_array(t_uint256)dyn_storage"
					},
					"t_mapping(t_address,t_bool)": {
						"encoding": "mapping",
						"key": "t_address",
						"label": "mapping(address => bool)",
						"numberOfBytes": "32",
						"value": "t_bool"
					},
					"t_mapping(t_address,t_mapping(t_address,t_bool))": {
						"encoding": "mapping",
						"key": "t_address",
						"label": "mapping(address => mapping(address => bool))",
						"numberOfBytes": "32",
						"value": "t_mapping(t_address,t_bool)"
					},
					"t_mapping(t_address,t_uint256)": {
						"encoding": "mapping",
						"key": "t_address",
						"label": "mapping(address => uint256)",
						"numberOfBytes": "32",
						"value": "t_uint256"
					},
					"t_mapping(t_uint256,t_address)": {
						"encoding": "mapping",
						"key": "t_uint256",
						"label": "mapping(uint256 => address)",
						"numberOfBytes": "32",
						"value": "t_address"
					},
					"t_mapping(t_uint256,t_struct(TokenMetaData)21_storage)": {
						"encoding": "mapping",
						"key": "t_uint256",
						"label": "mapping(uint256 => struct MyNFT.TokenMetaData)",
						"numberOfBytes": "32",
						"value": "t_struct(TokenMetaData)21_storage"
					},
					"t_string_storage": {
						"encoding": "bytes",
						"label": "string",
						"numberOfBytes": "32"
					},
					"t_struct(TokenMetaData)21_storage": {
						"encoding": "inplace",
						"label": "struct MyNFT.TokenMetaData",
						"members": [
							{
								"astId": 18,
								"contract": "myNFT.sol:MyNFT",
								"label": "tokenURI",
								"offset": 0,
								"slot": "0",
								"type": "t_string_storage"
							},
							{
								"astId": 20,
								"contract": "myNFT.sol:MyNFT",
								"label": "ranking",
								"offset": 0,
								"slot": "1",
								"type": "t_uint256"
							}
						],
						"numberOfBytes": "64"
					},
					"t_uint256": {
						"encoding": "inplace",
						"label": "uint256",
						"numberOfBytes": "32"
					}
				}
			},
			"userdoc": {
				"kind": "user",
				"methods": {},
				"version": 1
			}
		}
	}
}