{
	"data": {
		"bytecode": {
			"linkReferences": {},
			"object": "60806040525f60075534801562000014575f80fd5b50604051620030b9380380620030b983398181016040528101906200003a9190620001ee565b8181815f90816200004c9190620004a8565b5080600190816200005e9190620004a8565b50505050506200058c565b5f604051905090565b5f80fd5b5f80fd5b5f80fd5b5f80fd5b5f601f19601f8301169050919050565b7f4e487b71000000000000000000000000000000000000000000000000000000005f52604160045260245ffd5b620000ca8262000082565b810181811067ffffffffffffffff82111715620000ec57620000eb62000092565b5b80604052505050565b5f6200010062000069565b90506200010e8282620000bf565b919050565b5f67ffffffffffffffff82111562000130576200012f62000092565b5b6200013b8262000082565b9050602081019050919050565b5f5b83811015620001675780820151818401526020810190506200014a565b5f8484015250505050565b5f62000188620001828462000113565b620000f5565b905082815260208101848484011115620001a757620001a66200007e565b5b620001b484828562000148565b509392505050565b5f82601f830112620001d357620001d26200007a565b5b8151620001e584826020860162000172565b91505092915050565b5f806040838503121562000207576200020662000072565b5b5f83015167ffffffffffffffff81111562000227576200022662000076565b5b6200023585828601620001bc565b925050602083015167ffffffffffffffff81111562000259576200025862000076565b5b6200026785828601620001bc565b9150509250929050565b5f81519050919050565b7f4e487b71000000000000000000000000000000000000000000000000000000005f52602260045260245ffd5b5f6002820490506001821680620002c057607f821691505b602082108103620002d657620002d56200027b565b5b50919050565b5f819050815f5260205f209050919050565b5f6020601f8301049050919050565b5f82821b905092915050565b5f600883026200033a7fffffffffffffffffffffffffffffffffffffffffffffffffffffffffffffffff82620002fd565b620003468683620002fd565b95508019841693508086168417925050509392505050565b5f819050919050565b5f819050919050565b5f620003906200038a62000384846200035e565b62000367565b6200035e565b9050919050565b5f819050919050565b620003ab8362000370565b620003c3620003ba8262000397565b84845462000309565b825550505050565b5f90565b620003d9620003cb565b620003e6818484620003a0565b505050565b5b818110156200040d57620004015f82620003cf565b600181019050620003ec565b5050565b601f8211156200045c576200042681620002dc565b6200043184620002ee565b8101602085101562000441578190505b620004596200045085620002ee565b830182620003eb565b50505b505050565b5f82821c905092915050565b5f6200047e5f198460080262000461565b1980831691505092915050565b5f6200049883836200046d565b9150826002028217905092915050565b620004b38262000271565b67ffffffffffffffff811115620004cf57620004ce62000092565b5b620004db8254620002a8565b620004e882828562000411565b5f60209050601f8311600181146200051e575f841562000509578287015190505b6200051585826200048b565b86555062000584565b601f1984166200052e86620002dc565b5f5b82811015620005575784890151825560018201915060208501945060208101905062000530565b8683101562000577578489015162000573601f8916826200046d565b8355505b6001600288020188555050505b505050505050565b612b1f806200059a5f395ff3fe608060405234801561000f575f80fd5b506004361061012a575f3560e01c80636352211e116100ab578063a22cb4651161006f578063a22cb4651461038a578063b88d4fde146103a6578063c87b56dd146103c2578063d15a76d2146103f2578063e985e9c5146104225761012a565b80636352211e146102ac57806370a08231146102dc578063838e45371461030c5780638a55a50e1461033c57806395d89b411461036c5761012a565b806323b872dd116100f257806323b872dd146101f857806329d6724e146102145780633bb3a24d1461023057806342842e0e146102605780635f0cac761461027c5761012a565b806301ffc9a71461012e57806306fdde031461015e578063081812fc1461017c578063095ea7b3146101ac5780630a48a1ac146101c8575b5f80fd5b61014860048036038101906101439190611bee565b610452565b6040516101559190611c33565b60405180910390f35b610166610533565b6040516101739190611cd6565b60405180910390f35b61019660048036038101906101919190611d29565b6105c2565b6040516101a39190611d93565b60405180910390f35b6101c660048036038101906101c19190611dd6565b6105dd565b005b6101e260048036038101906101dd9190611e14565b6105f3565b6040516101ef9190611fc5565b60405180910390f35b610212600480360381019061020d9190611fe5565b61081e565b005b61022e6004803603810190610229919061205f565b61091d565b005b61024a60048036038101906102459190611d29565b61092c565b6040516102579190611cd6565b60405180910390f35b61027a60048036038101906102759190611fe5565b6109cf565b005b61029660048036038101906102919190611e14565b6109ee565b6040516102a3919061216a565b60405180910390f35b6102c660048036038101906102c19190611d29565b610bca565b6040516102d39190611d93565b60405180910390f35b6102f660048036038101906102f19190611e14565b610bdb565b6040516103039190612199565b60405180910390f35b610326600480360381019061032191906122de565b610c91565b6040516103339190612199565b60405180910390f35b61035660048036038101906103519190612325565b610cda565b6040516103639190611cd6565b60405180910390f35b610374610e6a565b6040516103819190611cd6565b60405180910390f35b6103a4600480360381019061039f919061239b565b610efa565b005b6103c060048036038101906103bb9190612477565b610f10565b005b6103dc60048036038101906103d79190611d29565b610f2d565b6040516103e99190611cd6565b60405180910390f35b61040c60048036038101906104079190611d29565b610fd0565b6040516104199190612199565b60405180910390f35b61043c600480360381019061043791906124f7565b610fed565b6040516104499190611c33565b60405180910390f35b5f7f80ac58cd000000000000000000000000000000000000000000000000000000007bffffffffffffffffffffffffffffffffffffffffffffffffffffffff1916827bffffffffffffffffffffffffffffffffffffffffffffffffffffffff1916148061051c57507f5b5e139f000000000000000000000000000000000000000000000000000000007bffffffffffffffffffffffffffffffffffffffffffffffffffffffff1916827bffffffffffffffffffffffffffffffffffffffffffffffffffffffff1916145b8061052c575061052b8261107b565b5b9050919050565b60605f805461054190612562565b80601f016020809104026020016040519081016040528092919081815260200182805461056d90612562565b80156105b85780601f1061058f576101008083540402835291602001916105b8565b820191905f5260205f20905b81548152906001019060200180831161059b57829003601f168201915b5050505050905090565b5f6105cc826110e4565b506105d68261116a565b9050919050565b6105ef82826105ea6111a3565b6111aa565b5050565b60605f60085f8473ffffffffffffffffffffffffffffffffffffffff1673ffffffffffffffffffffffffffffffffffffffff1681526020019081526020015f2080548060200260200160405190810160405280929190818152602001828054801561067b57602002820191905f5260205f20905b815481526020019060010190808311610667575b505050505090505f815167ffffffffffffffff81111561069e5761069d6121ba565b5b6040519080825280602002602001820160405280156106d757816020015b6106c4611b50565b8152602001906001900390816106bc5790505b5090505f5b825181101561081357604051806040016040528084838151811061070357610702612592565b5b6020026020010151815260200160065f86858151811061072657610725612592565b5b602002602001015181526020019081526020015f206040518060400160405290815f8201805461075590612562565b80601f016020809104026020016040519081016040528092919081815260200182805461078190612562565b80156107cc5780601f106107a3576101008083540402835291602001916107cc565b820191905f5260205f20905b8154815290600101906020018083116107af57829003601f168201915b505050505081526020016001820154815250508152508282815181106107f5576107f4612592565b5b6020026020010181905250808061080b906125ec565b9150506106dc565b508092505050919050565b5f73ffffffffffffffffffffffffffffffffffffffff168273ffffffffffffffffffffffffffffffffffffffff160361088e575f6040517f64a0ae920000000000000000000000000000000000000000000000000000000081526004016108859190611d93565b60405180910390fd5b5f6108a1838361089c6111a3565b6111bc565b90508373ffffffffffffffffffffffffffffffffffffffff168173ffffffffffffffffffffffffffffffffffffffff1614610917578382826040517f64283d7b00000000000000000000000000000000000000000000000000000000815260040161090e93929190612633565b60405180910390fd5b50505050565b6109278282610efa565b505050565b606060065f8381526020019081526020015f205f01805461094c90612562565b80601f016020809104026020016040519081016040528092919081815260200182805461097890612562565b80156109c35780601f1061099a576101008083540402835291602001916109c3565b820191905f5260205f20905b8154815290600101906020018083116109a657829003601f168201915b50505050509050919050565b6109e983838360405180602001604052805f815250610f10565b505050565b60605f60085f8473ffffffffffffffffffffffffffffffffffffffff1673ffffffffffffffffffffffffffffffffffffffff1681526020019081526020015f20805480602002602001604051908101604052809291908181526020018280548015610a7657602002820191905f5260205f20905b815481526020019060010190808311610a62575b505050505090505f815167ffffffffffffffff811115610a9957610a986121ba565b5b604051908082528060200260200182016040528015610acc57816020015b6060815260200190600190039081610ab75790505b5090505f5b8251811015610bbf5760065f848381518110610af057610aef612592565b5b602002602001015181526020019081526020015f205f018054610b1290612562565b80601f0160208091040260200160405190810160405280929190818152602001828054610b3e90612562565b8015610b895780601f10610b6057610100808354040283529160200191610b89565b820191905f5260205f20905b815481529060010190602001808311610b6c57829003601f168201915b5050505050828281518110610ba157610ba0612592565b5b60200260200101819052508080610bb7906125ec565b915050610ad1565b508092505050919050565b5f610bd4826110e4565b9050919050565b5f8073ffffffffffffffffffffffffffffffffffffffff168273ffffffffffffffffffffffffffffffffffffffff1603610c4c575f6040517f89c62b64000000000000000000000000000000000000000000000000000000008152600401610c439190611d93565b60405180910390fd5b60035f8373ffffffffffffffffffffffffffffffffffffffff1673ffffffffffffffffffffffffffffffffffffffff1681526020019081526020015f20549050919050565b5f6001600a83604051602001610ca791906126a2565b604051602081830303815290604052805190602001205f1c610cc991906126e5565b610cd39190612715565b9050919050565b60605f610ce683610c91565b905060405180604001604052808581526020018281525060065f60075481526020019081526020015f205f820151815f019081610d2391906128e5565b5060208201518160010155905050610d3d336007546113c7565b60085f3373ffffffffffffffffffffffffffffffffffffffff1673ffffffffffffffffffffffffffffffffffffffff1681526020019081526020015f20600754908060018154018082558091505060019003905f5260205f20015f9091909190915055600160075f828254610db29190612715565b9250508190555060065f6001600754610dcb91906129b4565b81526020019081526020015f205f018054610de590612562565b80601f0160208091040260200160405190810160405280929190818152602001828054610e1190612562565b8015610e5c5780601f10610e3357610100808354040283529160200191610e5c565b820191905f5260205f20905b815481529060010190602001808311610e3f57829003601f168201915b505050505091505092915050565b606060018054610e7990612562565b80601f0160208091040260200160405190810160405280929190818152602001828054610ea590612562565b8015610ef05780601f10610ec757610100808354040283529160200191610ef0565b820191905f5260205f20905b815481529060010190602001808311610ed357829003601f168201915b5050505050905090565b610f0c610f056111a3565b83836114ba565b5050565b610f1b84848461081e565b610f2784848484611623565b50505050565b606060065f8381526020019081526020015f205f018054610f4d90612562565b80601f0160208091040260200160405190810160405280929190818152602001828054610f7990612562565b8015610fc45780601f10610f9b57610100808354040283529160200191610fc4565b820191905f5260205f20905b815481529060010190602001808311610fa757829003601f168201915b50505050509050919050565b5f60065f8381526020019081526020015f20600101549050919050565b5f60055f8473ffffffffffffffffffffffffffffffffffffffff1673ffffffffffffffffffffffffffffffffffffffff1681526020019081526020015f205f8373ffffffffffffffffffffffffffffffffffffffff1673ffffffffffffffffffffffffffffffffffffffff1681526020019081526020015f205f9054906101000a900460ff16905092915050565b5f7f01ffc9a7000000000000000000000000000000000000000000000000000000007bffffffffffffffffffffffffffffffffffffffffffffffffffffffff1916827bffffffffffffffffffffffffffffffffffffffffffffffffffffffff1916149050919050565b5f806110ef836117d5565b90505f73ffffffffffffffffffffffffffffffffffffffff168173ffffffffffffffffffffffffffffffffffffffff160361116157826040517f7e2732890000000000000000000000000000000000000000000000000000000081526004016111589190612199565b60405180910390fd5b80915050919050565b5f60045f8381526020019081526020015f205f9054906101000a900473ffffffffffffffffffffffffffffffffffffffff169050919050565b5f33905090565b6111b7838383600161180e565b505050565b5f806111c7846117d5565b90505f73ffffffffffffffffffffffffffffffffffffffff168373ffffffffffffffffffffffffffffffffffffffff1614611208576112078184866119cd565b5b5f73ffffffffffffffffffffffffffffffffffffffff168173ffffffffffffffffffffffffffffffffffffffff1614611293576112475f855f8061180e565b600160035f8373ffffffffffffffffffffffffffffffffffffffff1673ffffffffffffffffffffffffffffffffffffffff1681526020019081526020015f205f82825403925050819055505b5f73ffffffffffffffffffffffffffffffffffffffff168573ffffffffffffffffffffffffffffffffffffffff161461131257600160035f8773ffffffffffffffffffffffffffffffffffffffff1673ffffffffffffffffffffffffffffffffffffffff1681526020019081526020015f205f82825401925050819055505b8460025f8681526020019081526020015f205f6101000a81548173ffffffffffffffffffffffffffffffffffffffff021916908373ffffffffffffffffffffffffffffffffffffffff160217905550838573ffffffffffffffffffffffffffffffffffffffff168273ffffffffffffffffffffffffffffffffffffffff167fddf252ad1be2c89b69c2b068fc378daa952ba7f163c4a11628f55a4df523b3ef60405160405180910390a4809150509392505050565b5f73ffffffffffffffffffffffffffffffffffffffff168273ffffffffffffffffffffffffffffffffffffffff1603611437575f6040517f64a0ae9200000000000000000000000000000000000000000000000000000000815260040161142e9190611d93565b60405180910390fd5b5f61144383835f6111bc565b90505f73ffffffffffffffffffffffffffffffffffffffff168173ffffffffffffffffffffffffffffffffffffffff16146114b5575f6040517f73c6ac6e0000000000000000000000000000000000000000000000000000000081526004016114ac9190611d93565b60405180910390fd5b505050565b5f73ffffffffffffffffffffffffffffffffffffffff168273ffffffffffffffffffffffffffffffffffffffff160361152a57816040517f5b08ba180000000000000000000000000000000000000000000000000000000081526004016115219190611d93565b60405180910390fd5b8060055f8573ffffffffffffffffffffffffffffffffffffffff1673ffffffffffffffffffffffffffffffffffffffff1681526020019081526020015f205f8473ffffffffffffffffffffffffffffffffffffffff1673ffffffffffffffffffffffffffffffffffffffff1681526020019081526020015f205f6101000a81548160ff0219169083151502179055508173ffffffffffffffffffffffffffffffffffffffff168373ffffffffffffffffffffffffffffffffffffffff167f17307eab39ab6107e8899845ad3d59bd9653f200f220920489ca2b5937696c31836040516116169190611c33565b60405180910390a3505050565b5f8373ffffffffffffffffffffffffffffffffffffffff163b11156117cf578273ffffffffffffffffffffffffffffffffffffffff1663150b7a026116666111a3565b8685856040518563ffffffff1660e01b81526004016116889493929190612a39565b6020604051808303815f875af19250505080156116c357506040513d601f19601f820116820180604052508101906116c09190612a97565b60015b611744573d805f81146116f1576040519150601f19603f3d011682016040523d82523d5f602084013e6116f6565b606091505b505f81510361173c57836040517f64a0ae920000000000000000000000000000000000000000000000000000000081526004016117339190611d93565b60405180910390fd5b805181602001fd5b63150b7a0260e01b7bffffffffffffffffffffffffffffffffffffffffffffffffffffffff1916817bffffffffffffffffffffffffffffffffffffffffffffffffffffffff1916146117cd57836040517f64a0ae920000000000000000000000000000000000000000000000000000000081526004016117c49190611d93565b60405180910390fd5b505b50505050565b5f60025f8381526020019081526020015f205f9054906101000a900473ffffffffffffffffffffffffffffffffffffffff169050919050565b808061184657505f73ffffffffffffffffffffffffffffffffffffffff168273ffffffffffffffffffffffffffffffffffffffff1614155b15611978575f611855846110e4565b90505f73ffffffffffffffffffffffffffffffffffffffff168373ffffffffffffffffffffffffffffffffffffffff16141580156118bf57508273ffffffffffffffffffffffffffffffffffffffff168173ffffffffffffffffffffffffffffffffffffffff1614155b80156118d257506118d08184610fed565b155b1561191457826040517fa9fbf51f00000000000000000000000000000000000000000000000000000000815260040161190b9190611d93565b60405180910390fd5b811561197657838573ffffffffffffffffffffffffffffffffffffffff168273ffffffffffffffffffffffffffffffffffffffff167f8c5be1e5ebec7d5bd14f71427d1e84f3dd0314c0f7b2291e5b200ac8c7c3b92560405160405180910390a45b505b8360045f8581526020019081526020015f205f6101000a81548173ffffffffffffffffffffffffffffffffffffffff021916908373ffffffffffffffffffffffffffffffffffffffff16021790555050505050565b6119d8838383611a90565b611a8b575f73ffffffffffffffffffffffffffffffffffffffff168373ffffffffffffffffffffffffffffffffffffffff1603611a4c57806040517f7e273289000000000000000000000000000000000000000000000000000000008152600401611a439190612199565b60405180910390fd5b81816040517f177e802f000000000000000000000000000000000000000000000000000000008152600401611a82929190612ac2565b60405180910390fd5b505050565b5f8073ffffffffffffffffffffffffffffffffffffffff168373ffffffffffffffffffffffffffffffffffffffff1614158015611b4757508273ffffffffffffffffffffffffffffffffffffffff168473ffffffffffffffffffffffffffffffffffffffff161480611b085750611b078484610fed565b5b80611b4657508273ffffffffffffffffffffffffffffffffffffffff16611b2e8361116a565b73ffffffffffffffffffffffffffffffffffffffff16145b5b90509392505050565b60405180604001604052805f8152602001611b69611b6f565b81525090565b6040518060400160405280606081526020015f81525090565b5f604051905090565b5f80fd5b5f80fd5b5f7fffffffff0000000000000000000000000000000000000000000000000000000082169050919050565b611bcd81611b99565b8114611bd7575f80fd5b50565b5f81359050611be881611bc4565b92915050565b5f60208284031215611c0357611c02611b91565b5b5f611c1084828501611bda565b91505092915050565b5f8115159050919050565b611c2d81611c19565b82525050565b5f602082019050611c465f830184611c24565b92915050565b5f81519050919050565b5f82825260208201905092915050565b5f5b83811015611c83578082015181840152602081019050611c68565b5f8484015250505050565b5f601f19601f8301169050919050565b5f611ca882611c4c565b611cb28185611c56565b9350611cc2818560208601611c66565b611ccb81611c8e565b840191505092915050565b5f6020820190508181035f830152611cee8184611c9e565b905092915050565b5f819050919050565b611d0881611cf6565b8114611d12575f80fd5b50565b5f81359050611d2381611cff565b92915050565b5f60208284031215611d3e57611d3d611b91565b5b5f611d4b84828501611d15565b91505092915050565b5f73ffffffffffffffffffffffffffffffffffffffff82169050919050565b5f611d7d82611d54565b9050919050565b611d8d81611d73565b82525050565b5f602082019050611da65f830184611d84565b92915050565b611db581611d73565b8114611dbf575f80fd5b50565b5f81359050611dd081611dac565b92915050565b5f8060408385031215611dec57611deb611b91565b5b5f611df985828601611dc2565b9250506020611e0a85828601611d15565b9150509250929050565b5f60208284031215611e2957611e28611b91565b5b5f611e3684828501611dc2565b91505092915050565b5f81519050919050565b5f82825260208201905092915050565b5f819050602082019050919050565b611e7181611cf6565b82525050565b5f82825260208201905092915050565b5f611e9182611c4c565b611e9b8185611e77565b9350611eab818560208601611c66565b611eb481611c8e565b840191505092915050565b5f604083015f8301518482035f860152611ed98282611e87565b9150506020830151611eee6020860182611e68565b508091505092915050565b5f604083015f830151611f0e5f860182611e68565b5060208301518482036020860152611f268282611ebf565b9150508091505092915050565b5f611f3e8383611ef9565b905092915050565b5f602082019050919050565b5f611f5c82611e3f565b611f668185611e49565b935083602082028501611f7885611e59565b805f5b85811015611fb35784840389528151611f948582611f33565b9450611f9f83611f46565b925060208a01995050600181019050611f7b565b50829750879550505050505092915050565b5f6020820190508181035f830152611fdd8184611f52565b905092915050565b5f805f60608486031215611ffc57611ffb611b91565b5b5f61200986828701611dc2565b935050602061201a86828701611dc2565b925050604061202b86828701611d15565b9150509250925092565b61203e81611c19565b8114612048575f80fd5b50565b5f8135905061205981612035565b92915050565b5f805f6060848603121561207657612075611b91565b5b5f61208386828701611dc2565b935050602061209486828701611dc2565b92505060406120a58682870161204b565b9150509250925092565b5f81519050919050565b5f82825260208201905092915050565b5f819050602082019050919050565b5f6120e38383611e87565b905092915050565b5f602082019050919050565b5f612101826120af565b61210b81856120b9565b93508360208202850161211d856120c9565b805f5b85811015612158578484038952815161213985826120d8565b9450612144836120eb565b925060208a01995050600181019050612120565b50829750879550505050505092915050565b5f6020820190508181035f83015261218281846120f7565b905092915050565b61219381611cf6565b82525050565b5f6020820190506121ac5f83018461218a565b92915050565b5f80fd5b5f80fd5b7f4e487b71000000000000000000000000000000000000000000000000000000005f52604160045260245ffd5b6121f082611c8e565b810181811067ffffffffffffffff8211171561220f5761220e6121ba565b5b80604052505050565b5f612221611b88565b905061222d82826121e7565b919050565b5f67ffffffffffffffff82111561224c5761224b6121ba565b5b61225582611c8e565b9050602081019050919050565b828183375f83830152505050565b5f61228261227d84612232565b612218565b90508281526020810184848401111561229e5761229d6121b6565b5b6122a9848285612262565b509392505050565b5f82601f8301126122c5576122c46121b2565b5b81356122d5848260208601612270565b91505092915050565b5f602082840312156122f3576122f2611b91565b5b5f82013567ffffffffffffffff8111156123105761230f611b95565b5b61231c848285016122b1565b91505092915050565b5f806040838503121561233b5761233a611b91565b5b5f83013567ffffffffffffffff81111561235857612357611b95565b5b612364858286016122b1565b925050602083013567ffffffffffffffff81111561238557612384611b95565b5b612391858286016122b1565b9150509250929050565b5f80604083850312156123b1576123b0611b91565b5b5f6123be85828601611dc2565b92505060206123cf8582860161204b565b9150509250929050565b5f67ffffffffffffffff8211156123f3576123f26121ba565b5b6123fc82611c8e565b9050602081019050919050565b5f61241b612416846123d9565b612218565b905082815260208101848484011115612437576124366121b6565b5b612442848285612262565b509392505050565b5f82601f83011261245e5761245d6121b2565b5b813561246e848260208601612409565b91505092915050565b5f805f806080858703121561248f5761248e611b91565b5b5f61249c87828801611dc2565b94505060206124ad87828801611dc2565b93505060406124be87828801611d15565b925050606085013567ffffffffffffffff8111156124df576124de611b95565b5b6124eb8782880161244a565b91505092959194509250565b5f806040838503121561250d5761250c611b91565b5b5f61251a85828601611dc2565b925050602061252b85828601611dc2565b9150509250929050565b7f4e487b71000000000000000000000000000000000000000000000000000000005f52602260045260245ffd5b5f600282049050600182168061257957607f821691505b60208210810361258c5761258b612535565b5b50919050565b7f4e487b71000000000000000000000000000000000000000000000000000000005f52603260045260245ffd5b7f4e487b71000000000000000000000000000000000000000000000000000000005f52601160045260245ffd5b5f6125f682611cf6565b91507fffffffffffffffffffffffffffffffffffffffffffffffffffffffffffffffff8203612628576126276125bf565b5b600182019050919050565b5f6060820190506126465f830186611d84565b612653602083018561218a565b6126606040830184611d84565b949350505050565b5f81905092915050565b5f61267c82611c4c565b6126868185612668565b9350612696818560208601611c66565b80840191505092915050565b5f6126ad8284612672565b915081905092915050565b7f4e487b71000000000000000000000000000000000000000000000000000000005f52601260045260245ffd5b5f6126ef82611cf6565b91506126fa83611cf6565b92508261270a576127096126b8565b5b828206905092915050565b5f61271f82611cf6565b915061272a83611cf6565b9250828201905080821115612742576127416125bf565b5b92915050565b5f819050815f5260205f209050919050565b5f6020601f8301049050919050565b5f82821b905092915050565b5f600883026127a47fffffffffffffffffffffffffffffffffffffffffffffffffffffffffffffffff82612769565b6127ae8683612769565b95508019841693508086168417925050509392505050565b5f819050919050565b5f6127e96127e46127df84611cf6565b6127c6565b611cf6565b9050919050565b5f819050919050565b612802836127cf565b61281661280e826127f0565b848454612775565b825550505050565b5f90565b61282a61281e565b6128358184846127f9565b505050565b5b818110156128585761284d5f82612822565b60018101905061283b565b5050565b601f82111561289d5761286e81612748565b6128778461275a565b81016020851015612886578190505b61289a6128928561275a565b83018261283a565b50505b505050565b5f82821c905092915050565b5f6128bd5f19846008026128a2565b1980831691505092915050565b5f6128d583836128ae565b9150826002028217905092915050565b6128ee82611c4c565b67ffffffffffffffff811115612907576129066121ba565b5b6129118254612562565b61291c82828561285c565b5f60209050601f83116001811461294d575f841561293b578287015190505b61294585826128ca565b8655506129ac565b601f19841661295b86612748565b5f5b828110156129825784890151825560018201915060208501945060208101905061295d565b8683101561299f578489015161299b601f8916826128ae565b8355505b6001600288020188555050505b505050505050565b5f6129be82611cf6565b91506129c983611cf6565b92508282039050818111156129e1576129e06125bf565b5b92915050565b5f81519050919050565b5f82825260208201905092915050565b5f612a0b826129e7565b612a1581856129f1565b9350612a25818560208601611c66565b612a2e81611c8e565b840191505092915050565b5f608082019050612a4c5f830187611d84565b612a596020830186611d84565b612a66604083018561218a565b8181036060830152612a788184612a01565b905095945050505050565b5f81519050612a9181611bc4565b92915050565b5f60208284031215612aac57612aab611b91565b5b5f612ab984828501612a83565b91505092915050565b5f604082019050612ad55f830185611d84565b612ae2602083018461218a565b939250505056fea26469706673582212204fd87b09ccec83b02a7fe0c9d17eaf217b1a0b9b27ec9227c67bf1cef840d04c64736f6c63430008140033",
			"opcodes": "PUSH1 0x80 PUSH1 0x40 MSTORE PUSH0 PUSH1 0x7 SSTORE CALLVALUE DUP1 ISZERO PUSH3 0x14 JUMPI PUSH0 DUP1 REVERT JUMPDEST POP PUSH1 0x40 MLOAD PUSH3 0x30B9 CODESIZE SUB DUP1 PUSH3 0x30B9 DUP4 CODECOPY DUP2 DUP2 ADD PUSH1 0x40 MSTORE DUP2 ADD SWAP1 PUSH3 0x3A SWAP2 SWAP1 PUSH3 0x1EE JUMP JUMPDEST DUP2 DUP2 DUP2 PUSH0 SWAP1 DUP2 PUSH3 0x4C SWAP2 SWAP1 PUSH3 0x4A8 JUMP JUMPDEST POP DUP1 PUSH1 0x1 SWAP1 DUP2 PUSH3 0x5E SWAP2 SWAP1 PUSH3 0x4A8 JUMP JUMPDEST POP POP POP POP POP PUSH3 0x58C JUMP JUMPDEST PUSH0 PUSH1 0x40 MLOAD SWAP1 POP SWAP1 JUMP JUMPDEST PUSH0 DUP1 REVERT JUMPDEST PUSH0 DUP1 REVERT JUMPDEST PUSH0 DUP1 REVERT JUMPDEST PUSH0 DUP1 REVERT JUMPDEST PUSH0 PUSH1 0x1F NOT PUSH1 0x1F DUP4 ADD AND SWAP1 POP SWAP2 SWAP1 POP JUMP JUMPDEST PUSH32 0x4E487B7100000000000000000000000000000000000000000000000000000000 PUSH0 MSTORE PUSH1 0x41 PUSH1 0x4 MSTORE PUSH1 0x24 PUSH0 REVERT JUMPDEST PUSH3 0xCA DUP3 PUSH3 0x82 JUMP JUMPDEST DUP2 ADD DUP2 DUP2 LT PUSH8 0xFFFFFFFFFFFFFFFF DUP3 GT OR ISZERO PUSH3 0xEC JUMPI PUSH3 0xEB PUSH3 0x92 JUMP JUMPDEST JUMPDEST DUP1 PUSH1 0x40 MSTORE POP POP POP JUMP JUMPDEST PUSH0 PUSH3 0x100 PUSH3 0x69 JUMP JUMPDEST SWAP1 POP PUSH3 0x10E DUP3 DUP3 PUSH3 0xBF JUMP JUMPDEST SWAP2 SWAP1 POP JUMP JUMPDEST PUSH0 PUSH8 0xFFFFFFFFFFFFFFFF DUP3 GT ISZERO PUSH3 0x130 JUMPI PUSH3 0x12F PUSH3 0x92 JUMP JUMPDEST JUMPDEST PUSH3 0x13B DUP3 PUSH3 0x82 JUMP JUMPDEST SWAP1 POP PUSH1 0x20 DUP2 ADD SWAP1 POP SWAP2 SWAP1 POP JUMP JUMPDEST PUSH0 JUMPDEST DUP4 DUP2 LT ISZERO PUSH3 0x167 JUMPI DUP1 DUP3 ADD MLOAD DUP2 DUP5 ADD MSTORE PUSH1 0x20 DUP2 ADD SWAP1 POP PUSH3 0x14A JUMP JUMPDEST PUSH0 DUP5 DUP5 ADD MSTORE POP POP POP POP JUMP JUMPDEST PUSH0 PUSH3 0x188 PUSH3 0x182 DUP5 PUSH3 0x113 JUMP JUMPDEST PUSH3 0xF5 JUMP JUMPDEST SWAP1 POP DUP3 DUP2 MSTORE PUSH1 0x20 DUP2 ADD DUP5 DUP5 DUP5 ADD GT ISZERO PUSH3 0x1A7 JUMPI PUSH3 0x1A6 PUSH3 0x7E JUMP JUMPDEST JUMPDEST PUSH3 0x1B4 DUP5 DUP3 DUP6 PUSH3 0x148 JUMP JUMPDEST POP SWAP4 SWAP3 POP POP POP JUMP JUMPDEST PUSH0 DUP3 PUSH1 0x1F DUP4 ADD SLT PUSH3 0x1D3 JUMPI PUSH3 0x1D2 PUSH3 0x7A JUMP JUMPDEST JUMPDEST DUP2 MLOAD PUSH3 0x1E5 DUP5 DUP3 PUSH1 0x20 DUP7 ADD PUSH3 0x172 JUMP JUMPDEST SWAP2 POP POP SWAP3 SWAP2 POP POP JUMP JUMPDEST PUSH0 DUP1 PUSH1 0x40 DUP4 DUP6 SUB SLT ISZERO PUSH3 0x207 JUMPI PUSH3 0x206 PUSH3 0x72 JUMP JUMPDEST JUMPDEST PUSH0 DUP4 ADD MLOAD PUSH8 0xFFFFFFFFFFFFFFFF DUP2 GT ISZERO PUSH3 0x227 JUMPI PUSH3 0x226 PUSH3 0x76 JUMP JUMPDEST JUMPDEST PUSH3 0x235 DUP6 DUP3 DUP7 ADD PUSH3 0x1BC JUMP JUMPDEST SWAP3 POP POP PUSH1 0x20 DUP4 ADD MLOAD PUSH8 0xFFFFFFFFFFFFFFFF DUP2 GT ISZERO PUSH3 0x259 JUMPI PUSH3 0x258 PUSH3 0x76 JUMP JUMPDEST JUMPDEST PUSH3 0x267 DUP6 DUP3 DUP7 ADD PUSH3 0x1BC JUMP JUMPDEST SWAP2 POP POP SWAP3 POP SWAP3 SWAP1 POP JUMP JUMPDEST PUSH0 DUP2 MLOAD SWAP1 POP SWAP2 SWAP1 POP JUMP JUMPDEST PUSH32 0x4E487B7100000000000000000000000000000000000000000000000000000000 PUSH0 MSTORE PUSH1 0x22 PUSH1 0x4 MSTORE PUSH1 0x24 PUSH0 REVERT JUMPDEST PUSH0 PUSH1 0x2 DUP3 DIV SWAP1 POP PUSH1 0x1 DUP3 AND DUP1 PUSH3 0x2C0 JUMPI PUSH1 0x7F DUP3 AND SWAP2 POP JUMPDEST PUSH1 0x20 DUP3 LT DUP2 SUB PUSH3 0x2D6 JUMPI PUSH3 0x2D5 PUSH3 0x27B JUMP JUMPDEST JUMPDEST POP SWAP2 SWAP1 POP JUMP JUMPDEST PUSH0 DUP2 SWAP1 POP DUP2 PUSH0 MSTORE PUSH1 0x20 PUSH0 KECCAK256 SWAP1 POP SWAP2 SWAP1 POP JUMP JUMPDEST PUSH0 PUSH1 0x20 PUSH1 0x1F DUP4 ADD DIV SWAP1 POP SWAP2 SWAP1 POP JUMP JUMPDEST PUSH0 DUP3 DUP3 SHL SWAP1 POP SWAP3 SWAP2 POP POP JUMP JUMPDEST PUSH0 PUSH1 0x8 DUP4 MUL PUSH3 0x33A PUSH32 0xFFFFFFFFFFFFFFFFFFFFFFFFFFFFFFFFFFFFFFFFFFFFFFFFFFFFFFFFFFFFFFFF DUP3 PUSH3 0x2FD JUMP JUMPDEST PUSH3 0x346 DUP7 DUP4 PUSH3 0x2FD JUMP JUMPDEST SWAP6 POP DUP1 NOT DUP5 AND SWAP4 POP DUP1 DUP7 AND DUP5 OR SWAP3 POP POP POP SWAP4 SWAP3 POP POP POP JUMP JUMPDEST PUSH0 DUP2 SWAP1 POP SWAP2 SWAP1 POP JUMP JUMPDEST PUSH0 DUP2 SWAP1 POP SWAP2 SWAP1 POP JUMP JUMPDEST PUSH0 PUSH3 0x390 PUSH3 0x38A PUSH3 0x384 DUP5 PUSH3 0x35E JUMP JUMPDEST PUSH3 0x367 JUMP JUMPDEST PUSH3 0x35E JUMP JUMPDEST SWAP1 POP SWAP2 SWAP1 POP JUMP JUMPDEST PUSH0 DUP2 SWAP1 POP SWAP2 SWAP1 POP JUMP JUMPDEST PUSH3 0x3AB DUP4 PUSH3 0x370 JUMP JUMPDEST PUSH3 0x3C3 PUSH3 0x3BA DUP3 PUSH3 0x397 JUMP JUMPDEST DUP5 DUP5 SLOAD PUSH3 0x309 JUMP JUMPDEST DUP3 SSTORE POP POP POP POP JUMP JUMPDEST PUSH0 SWAP1 JUMP JUMPDEST PUSH3 0x3D9 PUSH3 0x3CB JUMP JUMPDEST PUSH3 0x3E6 DUP2 DUP5 DUP5 PUSH3 0x3A0 JUMP JUMPDEST POP POP POP JUMP JUMPDEST JUMPDEST DUP2 DUP2 LT ISZERO PUSH3 0x40D JUMPI PUSH3 0x401 PUSH0 DUP3 PUSH3 0x3CF JUMP JUMPDEST PUSH1 0x1 DUP2 ADD SWAP1 POP PUSH3 0x3EC JUMP JUMPDEST POP POP JUMP JUMPDEST PUSH1 0x1F DUP3 GT ISZERO PUSH3 0x45C JUMPI PUSH3 0x426 DUP2 PUSH3 0x2DC JUMP JUMPDEST PUSH3 0x431 DUP5 PUSH3 0x2EE JUMP JUMPDEST DUP2 ADD PUSH1 0x20 DUP6 LT ISZERO PUSH3 0x441 JUMPI DUP2 SWAP1 POP JUMPDEST PUSH3 0x459 PUSH3 0x450 DUP6 PUSH3 0x2EE JUMP JUMPDEST DUP4 ADD DUP3 PUSH3 0x3EB JUMP JUMPDEST POP POP JUMPDEST POP POP POP JUMP JUMPDEST PUSH0 DUP3 DUP3 SHR SWAP1 POP SWAP3 SWAP2 POP POP JUMP JUMPDEST PUSH0 PUSH3 0x47E PUSH0 NOT DUP5 PUSH1 0x8 MUL PUSH3 0x461 JUMP JUMPDEST NOT DUP1 DUP4 AND SWAP2 POP POP SWAP3 SWAP2 POP POP JUMP JUMPDEST PUSH0 PUSH3 0x498 DUP4 DUP4 PUSH3 0x46D JUMP JUMPDEST SWAP2 POP DUP3 PUSH1 0x2 MUL DUP3 OR SWAP1 POP SWAP3 SWAP2 POP POP JUMP JUMPDEST PUSH3 0x4B3 DUP3 PUSH3 0x271 JUMP JUMPDEST PUSH8 0xFFFFFFFFFFFFFFFF DUP2 GT ISZERO PUSH3 0x4CF JUMPI PUSH3 0x4CE PUSH3 0x92 JUMP JUMPDEST JUMPDEST PUSH3 0x4DB DUP3 SLOAD PUSH3 0x2A8 JUMP JUMPDEST PUSH3 0x4E8 DUP3 DUP3 DUP6 PUSH3 0x411 JUMP JUMPDEST PUSH0 PUSH1 0x20 SWAP1 POP PUSH1 0x1F DUP4 GT PUSH1 0x1 DUP2 EQ PUSH3 0x51E JUMPI PUSH0 DUP5 ISZERO PUSH3 0x509 JUMPI DUP3 DUP8 ADD MLOAD SWAP1 POP JUMPDEST PUSH3 0x515 DUP6 DUP3 PUSH3 0x48B JUMP JUMPDEST DUP7 SSTORE POP PUSH3 0x584 JUMP JUMPDEST PUSH1 0x1F NOT DUP5 AND PUSH3 0x52E DUP7 PUSH3 0x2DC JUMP JUMPDEST PUSH0 JUMPDEST DUP3 DUP2 LT ISZERO PUSH3 0x557 JUMPI DUP5 DUP10 ADD MLOAD DUP3 SSTORE PUSH1 0x1 DUP3 ADD SWAP2 POP PUSH1 0x20 DUP6 ADD SWAP5 POP PUSH1 0x20 DUP2 ADD SWAP1 POP PUSH3 0x530 JUMP JUMPDEST DUP7 DUP4 LT ISZERO PUSH3 0x577 JUMPI DUP5 DUP10 ADD MLOAD PUSH3 0x573 PUSH1 0x1F DUP10 AND DUP3 PUSH3 0x46D JUMP JUMPDEST DUP4 SSTORE POP JUMPDEST PUSH1 0x1 PUSH1 0x2 DUP9 MUL ADD DUP9 SSTORE POP POP POP JUMPDEST POP POP POP POP POP POP JUMP JUMPDEST PUSH2 0x2B1F DUP1 PUSH3 0x59A PUSH0 CODECOPY PUSH0 RETURN INVALID PUSH1 0x80 PUSH1 0x40 MSTORE CALLVALUE DUP1 ISZERO PUSH2 0xF JUMPI PUSH0 DUP1 REVERT JUMPDEST POP PUSH1 0x4 CALLDATASIZE LT PUSH2 0x12A JUMPI PUSH0 CALLDATALOAD PUSH1 0xE0 SHR DUP1 PUSH4 0x6352211E GT PUSH2 0xAB JUMPI DUP1 PUSH4 0xA22CB465 GT PUSH2 0x6F JUMPI DUP1 PUSH4 0xA22CB465 EQ PUSH2 0x38A JUMPI DUP1 PUSH4 0xB88D4FDE EQ PUSH2 0x3A6 JUMPI DUP1 PUSH4 0xC87B56DD EQ PUSH2 0x3C2 JUMPI DUP1 PUSH4 0xD15A76D2 EQ PUSH2 0x3F2 JUMPI DUP1 PUSH4 0xE985E9C5 EQ PUSH2 0x422 JUMPI PUSH2 0x12A JUMP JUMPDEST DUP1 PUSH4 0x6352211E EQ PUSH2 0x2AC JUMPI DUP1 PUSH4 0x70A08231 EQ PUSH2 0x2DC JUMPI DUP1 PUSH4 0x838E4537 EQ PUSH2 0x30C JUMPI DUP1 PUSH4 0x8A55A50E EQ PUSH2 0x33C JUMPI DUP1 PUSH4 0x95D89B41 EQ PUSH2 0x36C JUMPI PUSH2 0x12A JUMP JUMPDEST DUP1 PUSH4 0x23B872DD GT PUSH2 0xF2 JUMPI DUP1 PUSH4 0x23B872DD EQ PUSH2 0x1F8 JUMPI DUP1 PUSH4 0x29D6724E EQ PUSH2 0x214 JUMPI DUP1 PUSH4 0x3BB3A24D EQ PUSH2 0x230 JUMPI DUP1 PUSH4 0x42842E0E EQ PUSH2 0x260 JUMPI DUP1 PUSH4 0x5F0CAC76 EQ PUSH2 0x27C JUMPI PUSH2 0x12A JUMP JUMPDEST DUP1 PUSH4 0x1FFC9A7 EQ PUSH2 0x12E JUMPI DUP1 PUSH4 0x6FDDE03 EQ PUSH2 0x15E JUMPI DUP1 PUSH4 0x81812FC EQ PUSH2 0x17C JUMPI DUP1 PUSH4 0x95EA7B3 EQ PUSH2 0x1AC JUMPI DUP1 PUSH4 0xA48A1AC EQ PUSH2 0x1C8 JUMPI JUMPDEST PUSH0 DUP1 REVERT JUMPDEST PUSH2 0x148 PUSH1 0x4 DUP1 CALLDATASIZE SUB DUP2 ADD SWAP1 PUSH2 0x143 SWAP2 SWAP1 PUSH2 0x1BEE JUMP JUMPDEST PUSH2 0x452 JUMP JUMPDEST PUSH1 0x40 MLOAD PUSH2 0x155 SWAP2 SWAP1 PUSH2 0x1C33 JUMP JUMPDEST PUSH1 0x40 MLOAD DUP1 SWAP2 SUB SWAP1 RETURN JUMPDEST PUSH2 0x166 PUSH2 0x533 JUMP JUMPDEST PUSH1 0x40 MLOAD PUSH2 0x173 SWAP2 SWAP1 PUSH2 0x1CD6 JUMP JUMPDEST PUSH1 0x40 MLOAD DUP1 SWAP2 SUB SWAP1 RETURN JUMPDEST PUSH2 0x196 PUSH1 0x4 DUP1 CALLDATASIZE SUB DUP2 ADD SWAP1 PUSH2 0x191 SWAP2 SWAP1 PUSH2 0x1D29 JUMP JUMPDEST PUSH2 0x5C2 JUMP JUMPDEST PUSH1 0x40 MLOAD PUSH2 0x1A3 SWAP2 SWAP1 PUSH2 0x1D93 JUMP JUMPDEST PUSH1 0x40 MLOAD DUP1 SWAP2 SUB SWAP1 RETURN JUMPDEST PUSH2 0x1C6 PUSH1 0x4 DUP1 CALLDATASIZE SUB DUP2 ADD SWAP1 PUSH2 0x1C1 SWAP2 SWAP1 PUSH2 0x1DD6 JUMP JUMPDEST PUSH2 0x5DD JUMP JUMPDEST STOP JUMPDEST PUSH2 0x1E2 PUSH1 0x4 DUP1 CALLDATASIZE SUB DUP2 ADD SWAP1 PUSH2 0x1DD SWAP2 SWAP1 PUSH2 0x1E14 JUMP JUMPDEST PUSH2 0x5F3 JUMP JUMPDEST PUSH1 0x40 MLOAD PUSH2 0x1EF SWAP2 SWAP1 PUSH2 0x1FC5 JUMP JUMPDEST PUSH1 0x40 MLOAD DUP1 SWAP2 SUB SWAP1 RETURN JUMPDEST PUSH2 0x212 PUSH1 0x4 DUP1 CALLDATASIZE SUB DUP2 ADD SWAP1 PUSH2 0x20D SWAP2 SWAP1 PUSH2 0x1FE5 JUMP JUMPDEST PUSH2 0x81E JUMP JUMPDEST STOP JUMPDEST PUSH2 0x22E PUSH1 0x4 DUP1 CALLDATASIZE SUB DUP2 ADD SWAP1 PUSH2 0x229 SWAP2 SWAP1 PUSH2 0x205F JUMP JUMPDEST PUSH2 0x91D JUMP JUMPDEST STOP JUMPDEST PUSH2 0x24A PUSH1 0x4 DUP1 CALLDATASIZE SUB DUP2 ADD SWAP1 PUSH2 0x245 SWAP2 SWAP1 PUSH2 0x1D29 JUMP JUMPDEST PUSH2 0x92C JUMP JUMPDEST PUSH1 0x40 MLOAD PUSH2 0x257 SWAP2 SWAP1 PUSH2 0x1CD6 JUMP JUMPDEST PUSH1 0x40 MLOAD DUP1 SWAP2 SUB SWAP1 RETURN JUMPDEST PUSH2 0x27A PUSH1 0x4 DUP1 CALLDATASIZE SUB DUP2 ADD SWAP1 PUSH2 0x275 SWAP2 SWAP1 PUSH2 0x1FE5 JUMP JUMPDEST PUSH2 0x9CF JUMP JUMPDEST STOP JUMPDEST PUSH2 0x296 PUSH1 0x4 DUP1 CALLDATASIZE SUB DUP2 ADD SWAP1 PUSH2 0x291 SWAP2 SWAP1 PUSH2 0x1E14 JUMP JUMPDEST PUSH2 0x9EE JUMP JUMPDEST PUSH1 0x40 MLOAD PUSH2 0x2A3 SWAP2 SWAP1 PUSH2 0x216A JUMP JUMPDEST PUSH1 0x40 MLOAD DUP1 SWAP2 SUB SWAP1 RETURN JUMPDEST PUSH2 0x2C6 PUSH1 0x4 DUP1 CALLDATASIZE SUB DUP2 ADD SWAP1 PUSH2 0x2C1 SWAP2 SWAP1 PUSH2 0x1D29 JUMP JUMPDEST PUSH2 0xBCA JUMP JUMPDEST PUSH1 0x40 MLOAD PUSH2 0x2D3 SWAP2 SWAP1 PUSH2 0x1D93 JUMP JUMPDEST PUSH1 0x40 MLOAD DUP1 SWAP2 SUB SWAP1 RETURN JUMPDEST PUSH2 0x2F6 PUSH1 0x4 DUP1 CALLDATASIZE SUB DUP2 ADD SWAP1 PUSH2 0x2F1 SWAP2 SWAP1 PUSH2 0x1E14 JUMP JUMPDEST PUSH2 0xBDB JUMP JUMPDEST PUSH1 0x40 MLOAD PUSH2 0x303 SWAP2 SWAP1 PUSH2 0x2199 JUMP JUMPDEST PUSH1 0x40 MLOAD DUP1 SWAP2 SUB SWAP1 RETURN JUMPDEST PUSH2 0x326 PUSH1 0x4 DUP1 CALLDATASIZE SUB DUP2 ADD SWAP1 PUSH2 0x321 SWAP2 SWAP1 PUSH2 0x22DE JUMP JUMPDEST PUSH2 0xC91 JUMP JUMPDEST PUSH1 0x40 MLOAD PUSH2 0x333 SWAP2 SWAP1 PUSH2 0x2199 JUMP JUMPDEST PUSH1 0x40 MLOAD DUP1 SWAP2 SUB SWAP1 RETURN JUMPDEST PUSH2 0x356 PUSH1 0x4 DUP1 CALLDATASIZE SUB DUP2 ADD SWAP1 PUSH2 0x351 SWAP2 SWAP1 PUSH2 0x2325 JUMP JUMPDEST PUSH2 0xCDA JUMP JUMPDEST PUSH1 0x40 MLOAD PUSH2 0x363 SWAP2 SWAP1 PUSH2 0x1CD6 JUMP JUMPDEST PUSH1 0x40 MLOAD DUP1 SWAP2 SUB SWAP1 RETURN JUMPDEST PUSH2 0x374 PUSH2 0xE6A JUMP JUMPDEST PUSH1 0x40 MLOAD PUSH2 0x381 SWAP2 SWAP1 PUSH2 0x1CD6 JUMP JUMPDEST PUSH1 0x40 MLOAD DUP1 SWAP2 SUB SWAP1 RETURN JUMPDEST PUSH2 0x3A4 PUSH1 0x4 DUP1 CALLDATASIZE SUB DUP2 ADD SWAP1 PUSH2 0x39F SWAP2 SWAP1 PUSH2 0x239B JUMP JUMPDEST PUSH2 0xEFA JUMP JUMPDEST STOP JUMPDEST PUSH2 0x3C0 PUSH1 0x4 DUP1 CALLDATASIZE SUB DUP2 ADD SWAP1 PUSH2 0x3BB SWAP2 SWAP1 PUSH2 0x2477 JUMP JUMPDEST PUSH2 0xF10 JUMP JUMPDEST STOP JUMPDEST PUSH2 0x3DC PUSH1 0x4 DUP1 CALLDATASIZE SUB DUP2 ADD SWAP1 PUSH2 0x3D7 SWAP2 SWAP1 PUSH2 0x1D29 JUMP JUMPDEST PUSH2 0xF2D JUMP JUMPDEST PUSH1 0x40 MLOAD PUSH2 0x3E9 SWAP2 SWAP1 PUSH2 0x1CD6 JUMP JUMPDEST PUSH1 0x40 MLOAD DUP1 SWAP2 SUB SWAP1 RETURN JUMPDEST PUSH2 0x40C PUSH1 0x4 DUP1 CALLDATASIZE SUB DUP2 ADD SWAP1 PUSH2 0x407 SWAP2 SWAP1 PUSH2 0x1D29 JUMP JUMPDEST PUSH2 0xFD0 JUMP JUMPDEST PUSH1 0x40 MLOAD PUSH2 0x419 SWAP2 SWAP1 PUSH2 0x2199 JUMP JUMPDEST PUSH1 0x40 MLOAD DUP1 SWAP2 SUB SWAP1 RETURN JUMPDEST PUSH2 0x43C PUSH1 0x4 DUP1 CALLDATASIZE SUB DUP2 ADD SWAP1 PUSH2 0x437 SWAP2 SWAP1 PUSH2 0x24F7 JUMP JUMPDEST PUSH2 0xFED JUMP JUMPDEST PUSH1 0x40 MLOAD PUSH2 0x449 SWAP2 SWAP1 PUSH2 0x1C33 JUMP JUMPDEST PUSH1 0x40 MLOAD DUP1 SWAP2 SUB SWAP1 RETURN JUMPDEST PUSH0 PUSH32 0x80AC58CD00000000000000000000000000000000000000000000000000000000 PUSH28 0xFFFFFFFFFFFFFFFFFFFFFFFFFFFFFFFFFFFFFFFFFFFFFFFFFFFFFFFF NOT AND DUP3 PUSH28 0xFFFFFFFFFFFFFFFFFFFFFFFFFFFFFFFFFFFFFFFFFFFFFFFFFFFFFFFF NOT AND EQ DUP1 PUSH2 0x51C JUMPI POP PUSH32 0x5B5E139F00000000000000000000000000000000000000000000000000000000 PUSH28 0xFFFFFFFFFFFFFFFFFFFFFFFFFFFFFFFFFFFFFFFFFFFFFFFFFFFFFFFF NOT AND DUP3 PUSH28 0xFFFFFFFFFFFFFFFFFFFFFFFFFFFFFFFFFFFFFFFFFFFFFFFFFFFFFFFF NOT AND EQ JUMPDEST DUP1 PUSH2 0x52C JUMPI POP PUSH2 0x52B DUP3 PUSH2 0x107B JUMP JUMPDEST JUMPDEST SWAP1 POP SWAP2 SWAP1 POP JUMP JUMPDEST PUSH1 0x60 PUSH0 DUP1 SLOAD PUSH2 0x541 SWAP1 PUSH2 0x2562 JUMP JUMPDEST DUP1 PUSH1 0x1F ADD PUSH1 0x20 DUP1 SWAP2 DIV MUL PUSH1 0x20 ADD PUSH1 0x40 MLOAD SWAP1 DUP2 ADD PUSH1 0x40 MSTORE DUP1 SWAP3 SWAP2 SWAP1 DUP2 DUP2 MSTORE PUSH1 0x20 ADD DUP3 DUP1 SLOAD PUSH2 0x56D SWAP1 PUSH2 0x2562 JUMP JUMPDEST DUP1 ISZERO PUSH2 0x5B8 JUMPI DUP1 PUSH1 0x1F LT PUSH2 0x58F JUMPI PUSH2 0x100 DUP1 DUP4 SLOAD DIV MUL DUP4 MSTORE SWAP2 PUSH1 0x20 ADD SWAP2 PUSH2 0x5B8 JUMP JUMPDEST DUP3 ADD SWAP2 SWAP1 PUSH0 MSTORE PUSH1 0x20 PUSH0 KECCAK256 SWAP1 JUMPDEST DUP2 SLOAD DUP2 MSTORE SWAP1 PUSH1 0x1 ADD SWAP1 PUSH1 0x20 ADD DUP1 DUP4 GT PUSH2 0x59B JUMPI DUP3 SWAP1 SUB PUSH1 0x1F AND DUP3 ADD SWAP2 JUMPDEST POP POP POP POP POP SWAP1 POP SWAP1 JUMP JUMPDEST PUSH0 PUSH2 0x5CC DUP3 PUSH2 0x10E4 JUMP JUMPDEST POP PUSH2 0x5D6 DUP3 PUSH2 0x116A JUMP JUMPDEST SWAP1 POP SWAP2 SWAP1 POP JUMP JUMPDEST PUSH2 0x5EF DUP3 DUP3 PUSH2 0x5EA PUSH2 0x11A3 JUMP JUMPDEST PUSH2 0x11AA JUMP JUMPDEST POP POP JUMP JUMPDEST PUSH1 0x60 PUSH0 PUSH1 0x8 PUSH0 DUP5 PUSH20 0xFFFFFFFFFFFFFFFFFFFFFFFFFFFFFFFFFFFFFFFF AND PUSH20 0xFFFFFFFFFFFFFFFFFFFFFFFFFFFFFFFFFFFFFFFF AND DUP2 MSTORE PUSH1 0x20 ADD SWAP1 DUP2 MSTORE PUSH1 0x20 ADD PUSH0 KECCAK256 DUP1 SLOAD DUP1 PUSH1 0x20 MUL PUSH1 0x20 ADD PUSH1 0x40 MLOAD SWAP1 DUP2 ADD PUSH1 0x40 MSTORE DUP1 SWAP3 SWAP2 SWAP1 DUP2 DUP2 MSTORE PUSH1 0x20 ADD DUP3 DUP1 SLOAD DUP1 ISZERO PUSH2 0x67B JUMPI PUSH1 0x20 MUL DUP3 ADD SWAP2 SWAP1 PUSH0 MSTORE PUSH1 0x20 PUSH0 KECCAK256 SWAP1 JUMPDEST DUP2 SLOAD DUP2 MSTORE PUSH1 0x20 ADD SWAP1 PUSH1 0x1 ADD SWAP1 DUP1 DUP4 GT PUSH2 0x667 JUMPI JUMPDEST POP POP POP POP POP SWAP1 POP PUSH0 DUP2 MLOAD PUSH8 0xFFFFFFFFFFFFFFFF DUP2 GT ISZERO PUSH2 0x69E JUMPI PUSH2 0x69D PUSH2 0x21BA JUMP JUMPDEST JUMPDEST PUSH1 0x40 MLOAD SWAP1 DUP1 DUP3 MSTORE DUP1 PUSH1 0x20 MUL PUSH1 0x20 ADD DUP3 ADD PUSH1 0x40 MSTORE DUP1 ISZERO PUSH2 0x6D7 JUMPI DUP2 PUSH1 0x20 ADD JUMPDEST PUSH2 0x6C4 PUSH2 0x1B50 JUMP JUMPDEST DUP2 MSTORE PUSH1 0x20 ADD SWAP1 PUSH1 0x1 SWAP1 SUB SWAP1 DUP2 PUSH2 0x6BC JUMPI SWAP1 POP JUMPDEST POP SWAP1 POP PUSH0 JUMPDEST DUP3 MLOAD DUP2 LT ISZERO PUSH2 0x813 JUMPI PUSH1 0x40 MLOAD DUP1 PUSH1 0x40 ADD PUSH1 0x40 MSTORE DUP1 DUP5 DUP4 DUP2 MLOAD DUP2 LT PUSH2 0x703 JUMPI PUSH2 0x702 PUSH2 0x2592 JUMP JUMPDEST JUMPDEST PUSH1 0x20 MUL PUSH1 0x20 ADD ADD MLOAD DUP2 MSTORE PUSH1 0x20 ADD PUSH1 0x6 PUSH0 DUP7 DUP6 DUP2 MLOAD DUP2 LT PUSH2 0x726 JUMPI PUSH2 0x725 PUSH2 0x2592 JUMP JUMPDEST JUMPDEST PUSH1 0x20 MUL PUSH1 0x20 ADD ADD MLOAD DUP2 MSTORE PUSH1 0x20 ADD SWAP1 DUP2 MSTORE PUSH1 0x20 ADD PUSH0 KECCAK256 PUSH1 0x40 MLOAD DUP1 PUSH1 0x40 ADD PUSH1 0x40 MSTORE SWAP1 DUP2 PUSH0 DUP3 ADD DUP1 SLOAD PUSH2 0x755 SWAP1 PUSH2 0x2562 JUMP JUMPDEST DUP1 PUSH1 0x1F ADD PUSH1 0x20 DUP1 SWAP2 DIV MUL PUSH1 0x20 ADD PUSH1 0x40 MLOAD SWAP1 DUP2 ADD PUSH1 0x40 MSTORE DUP1 SWAP3 SWAP2 SWAP1 DUP2 DUP2 MSTORE PUSH1 0x20 ADD DUP3 DUP1 SLOAD PUSH2 0x781 SWAP1 PUSH2 0x2562 JUMP JUMPDEST DUP1 ISZERO PUSH2 0x7CC JUMPI DUP1 PUSH1 0x1F LT PUSH2 0x7A3 JUMPI PUSH2 0x100 DUP1 DUP4 SLOAD DIV MUL DUP4 MSTORE SWAP2 PUSH1 0x20 ADD SWAP2 PUSH2 0x7CC JUMP JUMPDEST DUP3 ADD SWAP2 SWAP1 PUSH0 MSTORE PUSH1 0x20 PUSH0 KECCAK256 SWAP1 JUMPDEST DUP2 SLOAD DUP2 MSTORE SWAP1 PUSH1 0x1 ADD SWAP1 PUSH1 0x20 ADD DUP1 DUP4 GT PUSH2 0x7AF JUMPI DUP3 SWAP1 SUB PUSH1 0x1F AND DUP3 ADD SWAP2 JUMPDEST POP POP POP POP POP DUP2 MSTORE PUSH1 0x20 ADD PUSH1 0x1 DUP3 ADD SLOAD DUP2 MSTORE POP POP DUP2 MSTORE POP DUP3 DUP3 DUP2 MLOAD DUP2 LT PUSH2 0x7F5 JUMPI PUSH2 0x7F4 PUSH2 0x2592 JUMP JUMPDEST JUMPDEST PUSH1 0x20 MUL PUSH1 0x20 ADD ADD DUP2 SWAP1 MSTORE POP DUP1 DUP1 PUSH2 0x80B SWAP1 PUSH2 0x25EC JUMP JUMPDEST SWAP2 POP POP PUSH2 0x6DC JUMP JUMPDEST POP DUP1 SWAP3 POP POP POP SWAP2 SWAP1 POP JUMP JUMPDEST PUSH0 PUSH20 0xFFFFFFFFFFFFFFFFFFFFFFFFFFFFFFFFFFFFFFFF AND DUP3 PUSH20 0xFFFFFFFFFFFFFFFFFFFFFFFFFFFFFFFFFFFFFFFF AND SUB PUSH2 0x88E JUMPI PUSH0 PUSH1 0x40 MLOAD PUSH32 0x64A0AE9200000000000000000000000000000000000000000000000000000000 DUP2 MSTORE PUSH1 0x4 ADD PUSH2 0x885 SWAP2 SWAP1 PUSH2 0x1D93 JUMP JUMPDEST PUSH1 0x40 MLOAD DUP1 SWAP2 SUB SWAP1 REVERT JUMPDEST PUSH0 PUSH2 0x8A1 DUP4 DUP4 PUSH2 0x89C PUSH2 0x11A3 JUMP JUMPDEST PUSH2 0x11BC JUMP JUMPDEST SWAP1 POP DUP4 PUSH20 0xFFFFFFFFFFFFFFFFFFFFFFFFFFFFFFFFFFFFFFFF AND DUP2 PUSH20 0xFFFFFFFFFFFFFFFFFFFFFFFFFFFFFFFFFFFFFFFF AND EQ PUSH2 0x917 JUMPI DUP4 DUP3 DUP3 PUSH1 0x40 MLOAD PUSH32 0x64283D7B00000000000000000000000000000000000000000000000000000000 DUP2 MSTORE PUSH1 0x4 ADD PUSH2 0x90E SWAP4 SWAP3 SWAP2 SWAP1 PUSH2 0x2633 JUMP JUMPDEST PUSH1 0x40 MLOAD DUP1 SWAP2 SUB SWAP1 REVERT JUMPDEST POP POP POP POP JUMP JUMPDEST PUSH2 0x927 DUP3 DUP3 PUSH2 0xEFA JUMP JUMPDEST POP POP POP JUMP JUMPDEST PUSH1 0x60 PUSH1 0x6 PUSH0 DUP4 DUP2 MSTORE PUSH1 0x20 ADD SWAP1 DUP2 MSTORE PUSH1 0x20 ADD PUSH0 KECCAK256 PUSH0 ADD DUP1 SLOAD PUSH2 0x94C SWAP1 PUSH2 0x2562 JUMP JUMPDEST DUP1 PUSH1 0x1F ADD PUSH1 0x20 DUP1 SWAP2 DIV MUL PUSH1 0x20 ADD PUSH1 0x40 MLOAD SWAP1 DUP2 ADD PUSH1 0x40 MSTORE DUP1 SWAP3 SWAP2 SWAP1 DUP2 DUP2 MSTORE PUSH1 0x20 ADD DUP3 DUP1 SLOAD PUSH2 0x978 SWAP1 PUSH2 0x2562 JUMP JUMPDEST DUP1 ISZERO PUSH2 0x9C3 JUMPI DUP1 PUSH1 0x1F LT PUSH2 0x99A JUMPI PUSH2 0x100 DUP1 DUP4 SLOAD DIV MUL DUP4 MSTORE SWAP2 PUSH1 0x20 ADD SWAP2 PUSH2 0x9C3 JUMP JUMPDEST DUP3 ADD SWAP2 SWAP1 PUSH0 MSTORE PUSH1 0x20 PUSH0 KECCAK256 SWAP1 JUMPDEST DUP2 SLOAD DUP2 MSTORE SWAP1 PUSH1 0x1 ADD SWAP1 PUSH1 0x20 ADD DUP1 DUP4 GT PUSH2 0x9A6 JUMPI DUP3 SWAP1 SUB PUSH1 0x1F AND DUP3 ADD SWAP2 JUMPDEST POP POP POP POP POP SWAP1 POP SWAP2 SWAP1 POP JUMP JUMPDEST PUSH2 0x9E9 DUP4 DUP4 DUP4 PUSH1 0x40 MLOAD DUP1 PUSH1 0x20 ADD PUSH1 0x40 MSTORE DUP1 PUSH0 DUP2 MSTORE POP PUSH2 0xF10 JUMP JUMPDEST POP POP POP JUMP JUMPDEST PUSH1 0x60 PUSH0 PUSH1 0x8 PUSH0 DUP5 PUSH20 0xFFFFFFFFFFFFFFFFFFFFFFFFFFFFFFFFFFFFFFFF AND PUSH20 0xFFFFFFFFFFFFFFFFFFFFFFFFFFFFFFFFFFFFFFFF AND DUP2 MSTORE PUSH1 0x20 ADD SWAP1 DUP2 MSTORE PUSH1 0x20 ADD PUSH0 KECCAK256 DUP1 SLOAD DUP1 PUSH1 0x20 MUL PUSH1 0x20 ADD PUSH1 0x40 MLOAD SWAP1 DUP2 ADD PUSH1 0x40 MSTORE DUP1 SWAP3 SWAP2 SWAP1 DUP2 DUP2 MSTORE PUSH1 0x20 ADD DUP3 DUP1 SLOAD DUP1 ISZERO PUSH2 0xA76 JUMPI PUSH1 0x20 MUL DUP3 ADD SWAP2 SWAP1 PUSH0 MSTORE PUSH1 0x20 PUSH0 KECCAK256 SWAP1 JUMPDEST DUP2 SLOAD DUP2 MSTORE PUSH1 0x20 ADD SWAP1 PUSH1 0x1 ADD SWAP1 DUP1 DUP4 GT PUSH2 0xA62 JUMPI JUMPDEST POP POP POP POP POP SWAP1 POP PUSH0 DUP2 MLOAD PUSH8 0xFFFFFFFFFFFFFFFF DUP2 GT ISZERO PUSH2 0xA99 JUMPI PUSH2 0xA98 PUSH2 0x21BA JUMP JUMPDEST JUMPDEST PUSH1 0x40 MLOAD SWAP1 DUP1 DUP3 MSTORE DUP1 PUSH1 0x20 MUL PUSH1 0x20 ADD DUP3 ADD PUSH1 0x40 MSTORE DUP1 ISZERO PUSH2 0xACC JUMPI DUP2 PUSH1 0x20 ADD JUMPDEST PUSH1 0x60 DUP2 MSTORE PUSH1 0x20 ADD SWAP1 PUSH1 0x1 SWAP1 SUB SWAP1 DUP2 PUSH2 0xAB7 JUMPI SWAP1 POP JUMPDEST POP SWAP1 POP PUSH0 JUMPDEST DUP3 MLOAD DUP2 LT ISZERO PUSH2 0xBBF JUMPI PUSH1 0x6 PUSH0 DUP5 DUP4 DUP2 MLOAD DUP2 LT PUSH2 0xAF0 JUMPI PUSH2 0xAEF PUSH2 0x2592 JUMP JUMPDEST JUMPDEST PUSH1 0x20 MUL PUSH1 0x20 ADD ADD MLOAD DUP2 MSTORE PUSH1 0x20 ADD SWAP1 DUP2 MSTORE PUSH1 0x20 ADD PUSH0 KECCAK256 PUSH0 ADD DUP1 SLOAD PUSH2 0xB12 SWAP1 PUSH2 0x2562 JUMP JUMPDEST DUP1 PUSH1 0x1F ADD PUSH1 0x20 DUP1 SWAP2 DIV MUL PUSH1 0x20 ADD PUSH1 0x40 MLOAD SWAP1 DUP2 ADD PUSH1 0x40 MSTORE DUP1 SWAP3 SWAP2 SWAP1 DUP2 DUP2 MSTORE PUSH1 0x20 ADD DUP3 DUP1 SLOAD PUSH2 0xB3E SWAP1 PUSH2 0x2562 JUMP JUMPDEST DUP1 ISZERO PUSH2 0xB89 JUMPI DUP1 PUSH1 0x1F LT PUSH2 0xB60 JUMPI PUSH2 0x100 DUP1 DUP4 SLOAD DIV MUL DUP4 MSTORE SWAP2 PUSH1 0x20 ADD SWAP2 PUSH2 0xB89 JUMP JUMPDEST DUP3 ADD SWAP2 SWAP1 PUSH0 MSTORE PUSH1 0x20 PUSH0 KECCAK256 SWAP1 JUMPDEST DUP2 SLOAD DUP2 MSTORE SWAP1 PUSH1 0x1 ADD SWAP1 PUSH1 0x20 ADD DUP1 DUP4 GT PUSH2 0xB6C JUMPI DUP3 SWAP1 SUB PUSH1 0x1F AND DUP3 ADD SWAP2 JUMPDEST POP POP POP POP POP DUP3 DUP3 DUP2 MLOAD DUP2 LT PUSH2 0xBA1 JUMPI PUSH2 0xBA0 PUSH2 0x2592 JUMP JUMPDEST JUMPDEST PUSH1 0x20 MUL PUSH1 0x20 ADD ADD DUP2 SWAP1 MSTORE POP DUP1 DUP1 PUSH2 0xBB7 SWAP1 PUSH2 0x25EC JUMP JUMPDEST SWAP2 POP POP PUSH2 0xAD1 JUMP JUMPDEST POP DUP1 SWAP3 POP POP POP SWAP2 SWAP1 POP JUMP JUMPDEST PUSH0 PUSH2 0xBD4 DUP3 PUSH2 0x10E4 JUMP JUMPDEST SWAP1 POP SWAP2 SWAP1 POP JUMP JUMPDEST PUSH0 DUP1 PUSH20 0xFFFFFFFFFFFFFFFFFFFFFFFFFFFFFFFFFFFFFFFF AND DUP3 PUSH20 0xFFFFFFFFFFFFFFFFFFFFFFFFFFFFFFFFFFFFFFFF AND SUB PUSH2 0xC4C JUMPI PUSH0 PUSH1 0x40 MLOAD PUSH32 0x89C62B6400000000000000000000000000000000000000000000000000000000 DUP2 MSTORE PUSH1 0x4 ADD PUSH2 0xC43 SWAP2 SWAP1 PUSH2 0x1D93 JUMP JUMPDEST PUSH1 0x40 MLOAD DUP1 SWAP2 SUB SWAP1 REVERT JUMPDEST PUSH1 0x3 PUSH0 DUP4 PUSH20 0xFFFFFFFFFFFFFFFFFFFFFFFFFFFFFFFFFFFFFFFF AND PUSH20 0xFFFFFFFFFFFFFFFFFFFFFFFFFFFFFFFFFFFFFFFF AND DUP2 MSTORE PUSH1 0x20 ADD SWAP1 DUP2 MSTORE PUSH1 0x20 ADD PUSH0 KECCAK256 SLOAD SWAP1 POP SWAP2 SWAP1 POP JUMP JUMPDEST PUSH0 PUSH1 0x1 PUSH1 0xA DUP4 PUSH1 0x40 MLOAD PUSH1 0x20 ADD PUSH2 0xCA7 SWAP2 SWAP1 PUSH2 0x26A2 JUMP JUMPDEST PUSH1 0x40 MLOAD PUSH1 0x20 DUP2 DUP4 SUB SUB DUP2 MSTORE SWAP1 PUSH1 0x40 MSTORE DUP1 MLOAD SWAP1 PUSH1 0x20 ADD KECCAK256 PUSH0 SHR PUSH2 0xCC9 SWAP2 SWAP1 PUSH2 0x26E5 JUMP JUMPDEST PUSH2 0xCD3 SWAP2 SWAP1 PUSH2 0x2715 JUMP JUMPDEST SWAP1 POP SWAP2 SWAP1 POP JUMP JUMPDEST PUSH1 0x60 PUSH0 PUSH2 0xCE6 DUP4 PUSH2 0xC91 JUMP JUMPDEST SWAP1 POP PUSH1 0x40 MLOAD DUP1 PUSH1 0x40 ADD PUSH1 0x40 MSTORE DUP1 DUP6 DUP2 MSTORE PUSH1 0x20 ADD DUP3 DUP2 MSTORE POP PUSH1 0x6 PUSH0 PUSH1 0x7 SLOAD DUP2 MSTORE PUSH1 0x20 ADD SWAP1 DUP2 MSTORE PUSH1 0x20 ADD PUSH0 KECCAK256 PUSH0 DUP3 ADD MLOAD DUP2 PUSH0 ADD SWAP1 DUP2 PUSH2 0xD23 SWAP2 SWAP1 PUSH2 0x28E5 JUMP JUMPDEST POP PUSH1 0x20 DUP3 ADD MLOAD DUP2 PUSH1 0x1 ADD SSTORE SWAP1 POP POP PUSH2 0xD3D CALLER PUSH1 0x7 SLOAD PUSH2 0x13C7 JUMP JUMPDEST PUSH1 0x8 PUSH0 CALLER PUSH20 0xFFFFFFFFFFFFFFFFFFFFFFFFFFFFFFFFFFFFFFFF AND PUSH20 0xFFFFFFFFFFFFFFFFFFFFFFFFFFFFFFFFFFFFFFFF AND DUP2 MSTORE PUSH1 0x20 ADD SWAP1 DUP2 MSTORE PUSH1 0x20 ADD PUSH0 KECCAK256 PUSH1 0x7 SLOAD SWAP1 DUP1 PUSH1 0x1 DUP2 SLOAD ADD DUP1 DUP3 SSTORE DUP1 SWAP2 POP POP PUSH1 0x1 SWAP1 SUB SWAP1 PUSH0 MSTORE PUSH1 0x20 PUSH0 KECCAK256 ADD PUSH0 SWAP1 SWAP2 SWAP1 SWAP2 SWAP1 SWAP2 POP SSTORE PUSH1 0x1 PUSH1 0x7 PUSH0 DUP3 DUP3 SLOAD PUSH2 0xDB2 SWAP2 SWAP1 PUSH2 0x2715 JUMP JUMPDEST SWAP3 POP POP DUP2 SWAP1 SSTORE POP PUSH1 0x6 PUSH0 PUSH1 0x1 PUSH1 0x7 SLOAD PUSH2 0xDCB SWAP2 SWAP1 PUSH2 0x29B4 JUMP JUMPDEST DUP2 MSTORE PUSH1 0x20 ADD SWAP1 DUP2 MSTORE PUSH1 0x20 ADD PUSH0 KECCAK256 PUSH0 ADD DUP1 SLOAD PUSH2 0xDE5 SWAP1 PUSH2 0x2562 JUMP JUMPDEST DUP1 PUSH1 0x1F ADD PUSH1 0x20 DUP1 SWAP2 DIV MUL PUSH1 0x20 ADD PUSH1 0x40 MLOAD SWAP1 DUP2 ADD PUSH1 0x40 MSTORE DUP1 SWAP3 SWAP2 SWAP1 DUP2 DUP2 MSTORE PUSH1 0x20 ADD DUP3 DUP1 SLOAD PUSH2 0xE11 SWAP1 PUSH2 0x2562 JUMP JUMPDEST DUP1 ISZERO PUSH2 0xE5C JUMPI DUP1 PUSH1 0x1F LT PUSH2 0xE33 JUMPI PUSH2 0x100 DUP1 DUP4 SLOAD DIV MUL DUP4 MSTORE SWAP2 PUSH1 0x20 ADD SWAP2 PUSH2 0xE5C JUMP JUMPDEST DUP3 ADD SWAP2 SWAP1 PUSH0 MSTORE PUSH1 0x20 PUSH0 KECCAK256 SWAP1 JUMPDEST DUP2 SLOAD DUP2 MSTORE SWAP1 PUSH1 0x1 ADD SWAP1 PUSH1 0x20 ADD DUP1 DUP4 GT PUSH2 0xE3F JUMPI DUP3 SWAP1 SUB PUSH1 0x1F AND DUP3 ADD SWAP2 JUMPDEST POP POP POP POP POP SWAP2 POP POP SWAP3 SWAP2 POP POP JUMP JUMPDEST PUSH1 0x60 PUSH1 0x1 DUP1 SLOAD PUSH2 0xE79 SWAP1 PUSH2 0x2562 JUMP JUMPDEST DUP1 PUSH1 0x1F ADD PUSH1 0x20 DUP1 SWAP2 DIV MUL PUSH1 0x20 ADD PUSH1 0x40 MLOAD SWAP1 DUP2 ADD PUSH1 0x40 MSTORE DUP1 SWAP3 SWAP2 SWAP1 DUP2 DUP2 MSTORE PUSH1 0x20 ADD DUP3 DUP1 SLOAD PUSH2 0xEA5 SWAP1 PUSH2 0x2562 JUMP JUMPDEST DUP1 ISZERO PUSH2 0xEF0 JUMPI DUP1 PUSH1 0x1F LT PUSH2 0xEC7 JUMPI PUSH2 0x100 DUP1 DUP4 SLOAD DIV MUL DUP4 MSTORE SWAP2 PUSH1 0x20 ADD SWAP2 PUSH2 0xEF0 JUMP JUMPDEST DUP3 ADD SWAP2 SWAP1 PUSH0 MSTORE PUSH1 0x20 PUSH0 KECCAK256 SWAP1 JUMPDEST DUP2 SLOAD DUP2 MSTORE SWAP1 PUSH1 0x1 ADD SWAP1 PUSH1 0x20 ADD DUP1 DUP4 GT PUSH2 0xED3 JUMPI DUP3 SWAP1 SUB PUSH1 0x1F AND DUP3 ADD SWAP2 JUMPDEST POP POP POP POP POP SWAP1 POP SWAP1 JUMP JUMPDEST PUSH2 0xF0C PUSH2 0xF05 PUSH2 0x11A3 JUMP JUMPDEST DUP4 DUP4 PUSH2 0x14BA JUMP JUMPDEST POP POP JUMP JUMPDEST PUSH2 0xF1B DUP5 DUP5 DUP5 PUSH2 0x81E JUMP JUMPDEST PUSH2 0xF27 DUP5 DUP5 DUP5 DUP5 PUSH2 0x1623 JUMP JUMPDEST POP POP POP POP JUMP JUMPDEST PUSH1 0x60 PUSH1 0x6 PUSH0 DUP4 DUP2 MSTORE PUSH1 0x20 ADD SWAP1 DUP2 MSTORE PUSH1 0x20 ADD PUSH0 KECCAK256 PUSH0 ADD DUP1 SLOAD PUSH2 0xF4D SWAP1 PUSH2 0x2562 JUMP JUMPDEST DUP1 PUSH1 0x1F ADD PUSH1 0x20 DUP1 SWAP2 DIV MUL PUSH1 0x20 ADD PUSH1 0x40 MLOAD SWAP1 DUP2 ADD PUSH1 0x40 MSTORE DUP1 SWAP3 SWAP2 SWAP1 DUP2 DUP2 MSTORE PUSH1 0x20 ADD DUP3 DUP1 SLOAD PUSH2 0xF79 SWAP1 PUSH2 0x2562 JUMP JUMPDEST DUP1 ISZERO PUSH2 0xFC4 JUMPI DUP1 PUSH1 0x1F LT PUSH2 0xF9B JUMPI PUSH2 0x100 DUP1 DUP4 SLOAD DIV MUL DUP4 MSTORE SWAP2 PUSH1 0x20 ADD SWAP2 PUSH2 0xFC4 JUMP JUMPDEST DUP3 ADD SWAP2 SWAP1 PUSH0 MSTORE PUSH1 0x20 PUSH0 KECCAK256 SWAP1 JUMPDEST DUP2 SLOAD DUP2 MSTORE SWAP1 PUSH1 0x1 ADD SWAP1 PUSH1 0x20 ADD DUP1 DUP4 GT PUSH2 0xFA7 JUMPI DUP3 SWAP1 SUB PUSH1 0x1F AND DUP3 ADD SWAP2 JUMPDEST POP POP POP POP POP SWAP1 POP SWAP2 SWAP1 POP JUMP JUMPDEST PUSH0 PUSH1 0x6 PUSH0 DUP4 DUP2 MSTORE PUSH1 0x20 ADD SWAP1 DUP2 MSTORE PUSH1 0x20 ADD PUSH0 KECCAK256 PUSH1 0x1 ADD SLOAD SWAP1 POP SWAP2 SWAP1 POP JUMP JUMPDEST PUSH0 PUSH1 0x5 PUSH0 DUP5 PUSH20 0xFFFFFFFFFFFFFFFFFFFFFFFFFFFFFFFFFFFFFFFF AND PUSH20 0xFFFFFFFFFFFFFFFFFFFFFFFFFFFFFFFFFFFFFFFF AND DUP2 MSTORE PUSH1 0x20 ADD SWAP1 DUP2 MSTORE PUSH1 0x20 ADD PUSH0 KECCAK256 PUSH0 DUP4 PUSH20 0xFFFFFFFFFFFFFFFFFFFFFFFFFFFFFFFFFFFFFFFF AND PUSH20 0xFFFFFFFFFFFFFFFFFFFFFFFFFFFFFFFFFFFFFFFF AND DUP2 MSTORE PUSH1 0x20 ADD SWAP1 DUP2 MSTORE PUSH1 0x20 ADD PUSH0 KECCAK256 PUSH0 SWAP1 SLOAD SWAP1 PUSH2 0x100 EXP SWAP1 DIV PUSH1 0xFF AND SWAP1 POP SWAP3 SWAP2 POP POP JUMP JUMPDEST PUSH0 PUSH32 0x1FFC9A700000000000000000000000000000000000000000000000000000000 PUSH28 0xFFFFFFFFFFFFFFFFFFFFFFFFFFFFFFFFFFFFFFFFFFFFFFFFFFFFFFFF NOT AND DUP3 PUSH28 0xFFFFFFFFFFFFFFFFFFFFFFFFFFFFFFFFFFFFFFFFFFFFFFFFFFFFFFFF NOT AND EQ SWAP1 POP SWAP2 SWAP1 POP JUMP JUMPDEST PUSH0 DUP1 PUSH2 0x10EF DUP4 PUSH2 0x17D5 JUMP JUMPDEST SWAP1 POP PUSH0 PUSH20 0xFFFFFFFFFFFFFFFFFFFFFFFFFFFFFFFFFFFFFFFF AND DUP2 PUSH20 0xFFFFFFFFFFFFFFFFFFFFFFFFFFFFFFFFFFFFFFFF AND SUB PUSH2 0x1161 JUMPI DUP3 PUSH1 0x40 MLOAD PUSH32 0x7E27328900000000000000000000000000000000000000000000000000000000 DUP2 MSTORE PUSH1 0x4 ADD PUSH2 0x1158 SWAP2 SWAP1 PUSH2 0x2199 JUMP JUMPDEST PUSH1 0x40 MLOAD DUP1 SWAP2 SUB SWAP1 REVERT JUMPDEST DUP1 SWAP2 POP POP SWAP2 SWAP1 POP JUMP JUMPDEST PUSH0 PUSH1 0x4 PUSH0 DUP4 DUP2 MSTORE PUSH1 0x20 ADD SWAP1 DUP2 MSTORE PUSH1 0x20 ADD PUSH0 KECCAK256 PUSH0 SWAP1 SLOAD SWAP1 PUSH2 0x100 EXP SWAP1 DIV PUSH20 0xFFFFFFFFFFFFFFFFFFFFFFFFFFFFFFFFFFFFFFFF AND SWAP1 POP SWAP2 SWAP1 POP JUMP JUMPDEST PUSH0 CALLER SWAP1 POP SWAP1 JUMP JUMPDEST PUSH2 0x11B7 DUP4 DUP4 DUP4 PUSH1 0x1 PUSH2 0x180E JUMP JUMPDEST POP POP POP JUMP JUMPDEST PUSH0 DUP1 PUSH2 0x11C7 DUP5 PUSH2 0x17D5 JUMP JUMPDEST SWAP1 POP PUSH0 PUSH20 0xFFFFFFFFFFFFFFFFFFFFFFFFFFFFFFFFFFFFFFFF AND DUP4 PUSH20 0xFFFFFFFFFFFFFFFFFFFFFFFFFFFFFFFFFFFFFFFF AND EQ PUSH2 0x1208 JUMPI PUSH2 0x1207 DUP2 DUP5 DUP7 PUSH2 0x19CD JUMP JUMPDEST JUMPDEST PUSH0 PUSH20 0xFFFFFFFFFFFFFFFFFFFFFFFFFFFFFFFFFFFFFFFF AND DUP2 PUSH20 0xFFFFFFFFFFFFFFFFFFFFFFFFFFFFFFFFFFFFFFFF AND EQ PUSH2 0x1293 JUMPI PUSH2 0x1247 PUSH0 DUP6 PUSH0 DUP1 PUSH2 0x180E JUMP JUMPDEST PUSH1 0x1 PUSH1 0x3 PUSH0 DUP4 PUSH20 0xFFFFFFFFFFFFFFFFFFFFFFFFFFFFFFFFFFFFFFFF AND PUSH20 0xFFFFFFFFFFFFFFFFFFFFFFFFFFFFFFFFFFFFFFFF AND DUP2 MSTORE PUSH1 0x20 ADD SWAP1 DUP2 MSTORE PUSH1 0x20 ADD PUSH0 KECCAK256 PUSH0 DUP3 DUP3 SLOAD SUB SWAP3 POP POP DUP2 SWAP1 SSTORE POP JUMPDEST PUSH0 PUSH20 0xFFFFFFFFFFFFFFFFFFFFFFFFFFFFFFFFFFFFFFFF AND DUP6 PUSH20 0xFFFFFFFFFFFFFFFFFFFFFFFFFFFFFFFFFFFFFFFF AND EQ PUSH2 0x1312 JUMPI PUSH1 0x1 PUSH1 0x3 PUSH0 DUP8 PUSH20 0xFFFFFFFFFFFFFFFFFFFFFFFFFFFFFFFFFFFFFFFF AND PUSH20 0xFFFFFFFFFFFFFFFFFFFFFFFFFFFFFFFFFFFFFFFF AND DUP2 MSTORE PUSH1 0x20 ADD SWAP1 DUP2 MSTORE PUSH1 0x20 ADD PUSH0 KECCAK256 PUSH0 DUP3 DUP3 SLOAD ADD SWAP3 POP POP DUP2 SWAP1 SSTORE POP JUMPDEST DUP5 PUSH1 0x2 PUSH0 DUP7 DUP2 MSTORE PUSH1 0x20 ADD SWAP1 DUP2 MSTORE PUSH1 0x20 ADD PUSH0 KECCAK256 PUSH0 PUSH2 0x100 EXP DUP2 SLOAD DUP2 PUSH20 0xFFFFFFFFFFFFFFFFFFFFFFFFFFFFFFFFFFFFFFFF MUL NOT AND SWAP1 DUP4 PUSH20 0xFFFFFFFFFFFFFFFFFFFFFFFFFFFFFFFFFFFFFFFF AND MUL OR SWAP1 SSTORE POP DUP4 DUP6 PUSH20 0xFFFFFFFFFFFFFFFFFFFFFFFFFFFFFFFFFFFFFFFF AND DUP3 PUSH20 0xFFFFFFFFFFFFFFFFFFFFFFFFFFFFFFFFFFFFFFFF AND PUSH32 0xDDF252AD1BE2C89B69C2B068FC378DAA952BA7F163C4A11628F55A4DF523B3EF PUSH1 0x40 MLOAD PUSH1 0x40 MLOAD DUP1 SWAP2 SUB SWAP1 LOG4 DUP1 SWAP2 POP POP SWAP4 SWAP3 POP POP POP JUMP JUMPDEST PUSH0 PUSH20 0xFFFFFFFFFFFFFFFFFFFFFFFFFFFFFFFFFFFFFFFF AND DUP3 PUSH20 0xFFFFFFFFFFFFFFFFFFFFFFFFFFFFFFFFFFFFFFFF AND SUB PUSH2 0x1437 JUMPI PUSH0 PUSH1 0x40 MLOAD PUSH32 0x64A0AE9200000000000000000000000000000000000000000000000000000000 DUP2 MSTORE PUSH1 0x4 ADD PUSH2 0x142E SWAP2 SWAP1 PUSH2 0x1D93 JUMP JUMPDEST PUSH1 0x40 MLOAD DUP1 SWAP2 SUB SWAP1 REVERT JUMPDEST PUSH0 PUSH2 0x1443 DUP4 DUP4 PUSH0 PUSH2 0x11BC JUMP JUMPDEST SWAP1 POP PUSH0 PUSH20 0xFFFFFFFFFFFFFFFFFFFFFFFFFFFFFFFFFFFFFFFF AND DUP2 PUSH20 0xFFFFFFFFFFFFFFFFFFFFFFFFFFFFFFFFFFFFFFFF AND EQ PUSH2 0x14B5 JUMPI PUSH0 PUSH1 0x40 MLOAD PUSH32 0x73C6AC6E00000000000000000000000000000000000000000000000000000000 DUP2 MSTORE PUSH1 0x4 ADD PUSH2 0x14AC SWAP2 SWAP1 PUSH2 0x1D93 JUMP JUMPDEST PUSH1 0x40 MLOAD DUP1 SWAP2 SUB SWAP1 REVERT JUMPDEST POP POP POP JUMP JUMPDEST PUSH0 PUSH20 0xFFFFFFFFFFFFFFFFFFFFFFFFFFFFFFFFFFFFFFFF AND DUP3 PUSH20 0xFFFFFFFFFFFFFFFFFFFFFFFFFFFFFFFFFFFFFFFF AND SUB PUSH2 0x152A JUMPI DUP2 PUSH1 0x40 MLOAD PUSH32 0x5B08BA1800000000000000000000000000000000000000000000000000000000 DUP2 MSTORE PUSH1 0x4 ADD PUSH2 0x1521 SWAP2 SWAP1 PUSH2 0x1D93 JUMP JUMPDEST PUSH1 0x40 MLOAD DUP1 SWAP2 SUB SWAP1 REVERT JUMPDEST DUP1 PUSH1 0x5 PUSH0 DUP6 PUSH20 0xFFFFFFFFFFFFFFFFFFFFFFFFFFFFFFFFFFFFFFFF AND PUSH20 0xFFFFFFFFFFFFFFFFFFFFFFFFFFFFFFFFFFFFFFFF AND DUP2 MSTORE PUSH1 0x20 ADD SWAP1 DUP2 MSTORE PUSH1 0x20 ADD PUSH0 KECCAK256 PUSH0 DUP5 PUSH20 0xFFFFFFFFFFFFFFFFFFFFFFFFFFFFFFFFFFFFFFFF AND PUSH20 0xFFFFFFFFFFFFFFFFFFFFFFFFFFFFFFFFFFFFFFFF AND DUP2 MSTORE PUSH1 0x20 ADD SWAP1 DUP2 MSTORE PUSH1 0x20 ADD PUSH0 KECCAK256 PUSH0 PUSH2 0x100 EXP DUP2 SLOAD DUP2 PUSH1 0xFF MUL NOT AND SWAP1 DUP4 ISZERO ISZERO MUL OR SWAP1 SSTORE POP DUP2 PUSH20 0xFFFFFFFFFFFFFFFFFFFFFFFFFFFFFFFFFFFFFFFF AND DUP4 PUSH20 0xFFFFFFFFFFFFFFFFFFFFFFFFFFFFFFFFFFFFFFFF AND PUSH32 0x17307EAB39AB6107E8899845AD3D59BD9653F200F220920489CA2B5937696C31 DUP4 PUSH1 0x40 MLOAD PUSH2 0x1616 SWAP2 SWAP1 PUSH2 0x1C33 JUMP JUMPDEST PUSH1 0x40 MLOAD DUP1 SWAP2 SUB SWAP1 LOG3 POP POP POP JUMP JUMPDEST PUSH0 DUP4 PUSH20 0xFFFFFFFFFFFFFFFFFFFFFFFFFFFFFFFFFFFFFFFF AND EXTCODESIZE GT ISZERO PUSH2 0x17CF JUMPI DUP3 PUSH20 0xFFFFFFFFFFFFFFFFFFFFFFFFFFFFFFFFFFFFFFFF AND PUSH4 0x150B7A02 PUSH2 0x1666 PUSH2 0x11A3 JUMP JUMPDEST DUP7 DUP6 DUP6 PUSH1 0x40 MLOAD DUP6 PUSH4 0xFFFFFFFF AND PUSH1 0xE0 SHL DUP2 MSTORE PUSH1 0x4 ADD PUSH2 0x1688 SWAP5 SWAP4 SWAP3 SWAP2 SWAP1 PUSH2 0x2A39 JUMP JUMPDEST PUSH1 0x20 PUSH1 0x40 MLOAD DUP1 DUP4 SUB DUP2 PUSH0 DUP8 GAS CALL SWAP3 POP POP POP DUP1 ISZERO PUSH2 0x16C3 JUMPI POP PUSH1 0x40 MLOAD RETURNDATASIZE PUSH1 0x1F NOT PUSH1 0x1F DUP3 ADD AND DUP3 ADD DUP1 PUSH1 0x40 MSTORE POP DUP2 ADD SWAP1 PUSH2 0x16C0 SWAP2 SWAP1 PUSH2 0x2A97 JUMP JUMPDEST PUSH1 0x1 JUMPDEST PUSH2 0x1744 JUMPI RETURNDATASIZE DUP1 PUSH0 DUP2 EQ PUSH2 0x16F1 JUMPI PUSH1 0x40 MLOAD SWAP2 POP PUSH1 0x1F NOT PUSH1 0x3F RETURNDATASIZE ADD AND DUP3 ADD PUSH1 0x40 MSTORE RETURNDATASIZE DUP3 MSTORE RETURNDATASIZE PUSH0 PUSH1 0x20 DUP5 ADD RETURNDATACOPY PUSH2 0x16F6 JUMP JUMPDEST PUSH1 0x60 SWAP2 POP JUMPDEST POP PUSH0 DUP2 MLOAD SUB PUSH2 0x173C JUMPI DUP4 PUSH1 0x40 MLOAD PUSH32 0x64A0AE9200000000000000000000000000000000000000000000000000000000 DUP2 MSTORE PUSH1 0x4 ADD PUSH2 0x1733 SWAP2 SWAP1 PUSH2 0x1D93 JUMP JUMPDEST PUSH1 0x40 MLOAD DUP1 SWAP2 SUB SWAP1 REVERT JUMPDEST DUP1 MLOAD DUP2 PUSH1 0x20 ADD REVERT JUMPDEST PUSH4 0x150B7A02 PUSH1 0xE0 SHL PUSH28 0xFFFFFFFFFFFFFFFFFFFFFFFFFFFFFFFFFFFFFFFFFFFFFFFFFFFFFFFF NOT AND DUP2 PUSH28 0xFFFFFFFFFFFFFFFFFFFFFFFFFFFFFFFFFFFFFFFFFFFFFFFFFFFFFFFF NOT AND EQ PUSH2 0x17CD JUMPI DUP4 PUSH1 0x40 MLOAD PUSH32 0x64A0AE9200000000000000000000000000000000000000000000000000000000 DUP2 MSTORE PUSH1 0x4 ADD PUSH2 0x17C4 SWAP2 SWAP1 PUSH2 0x1D93 JUMP JUMPDEST PUSH1 0x40 MLOAD DUP1 SWAP2 SUB SWAP1 REVERT JUMPDEST POP JUMPDEST POP POP POP POP JUMP JUMPDEST PUSH0 PUSH1 0x2 PUSH0 DUP4 DUP2 MSTORE PUSH1 0x20 ADD SWAP1 DUP2 MSTORE PUSH1 0x20 ADD PUSH0 KECCAK256 PUSH0 SWAP1 SLOAD SWAP1 PUSH2 0x100 EXP SWAP1 DIV PUSH20 0xFFFFFFFFFFFFFFFFFFFFFFFFFFFFFFFFFFFFFFFF AND SWAP1 POP SWAP2 SWAP1 POP JUMP JUMPDEST DUP1 DUP1 PUSH2 0x1846 JUMPI POP PUSH0 PUSH20 0xFFFFFFFFFFFFFFFFFFFFFFFFFFFFFFFFFFFFFFFF AND DUP3 PUSH20 0xFFFFFFFFFFFFFFFFFFFFFFFFFFFFFFFFFFFFFFFF AND EQ ISZERO JUMPDEST ISZERO PUSH2 0x1978 JUMPI PUSH0 PUSH2 0x1855 DUP5 PUSH2 0x10E4 JUMP JUMPDEST SWAP1 POP PUSH0 PUSH20 0xFFFFFFFFFFFFFFFFFFFFFFFFFFFFFFFFFFFFFFFF AND DUP4 PUSH20 0xFFFFFFFFFFFFFFFFFFFFFFFFFFFFFFFFFFFFFFFF AND EQ ISZERO DUP1 ISZERO PUSH2 0x18BF JUMPI POP DUP3 PUSH20 0xFFFFFFFFFFFFFFFFFFFFFFFFFFFFFFFFFFFFFFFF AND DUP2 PUSH20 0xFFFFFFFFFFFFFFFFFFFFFFFFFFFFFFFFFFFFFFFF AND EQ ISZERO JUMPDEST DUP1 ISZERO PUSH2 0x18D2 JUMPI POP PUSH2 0x18D0 DUP2 DUP5 PUSH2 0xFED JUMP JUMPDEST ISZERO JUMPDEST ISZERO PUSH2 0x1914 JUMPI DUP3 PUSH1 0x40 MLOAD PUSH32 0xA9FBF51F00000000000000000000000000000000000000000000000000000000 DUP2 MSTORE PUSH1 0x4 ADD PUSH2 0x190B SWAP2 SWAP1 PUSH2 0x1D93 JUMP JUMPDEST PUSH1 0x40 MLOAD DUP1 SWAP2 SUB SWAP1 REVERT JUMPDEST DUP2 ISZERO PUSH2 0x1976 JUMPI DUP4 DUP6 PUSH20 0xFFFFFFFFFFFFFFFFFFFFFFFFFFFFFFFFFFFFFFFF AND DUP3 PUSH20 0xFFFFFFFFFFFFFFFFFFFFFFFFFFFFFFFFFFFFFFFF AND PUSH32 0x8C5BE1E5EBEC7D5BD14F71427D1E84F3DD0314C0F7B2291E5B200AC8C7C3B925 PUSH1 0x40 MLOAD PUSH1 0x40 MLOAD DUP1 SWAP2 SUB SWAP1 LOG4 JUMPDEST POP JUMPDEST DUP4 PUSH1 0x4 PUSH0 DUP6 DUP2 MSTORE PUSH1 0x20 ADD SWAP1 DUP2 MSTORE PUSH1 0x20 ADD PUSH0 KECCAK256 PUSH0 PUSH2 0x100 EXP DUP2 SLOAD DUP2 PUSH20 0xFFFFFFFFFFFFFFFFFFFFFFFFFFFFFFFFFFFFFFFF MUL NOT AND SWAP1 DUP4 PUSH20 0xFFFFFFFFFFFFFFFFFFFFFFFFFFFFFFFFFFFFFFFF AND MUL OR SWAP1 SSTORE POP POP POP POP POP JUMP JUMPDEST PUSH2 0x19D8 DUP4 DUP4 DUP4 PUSH2 0x1A90 JUMP JUMPDEST PUSH2 0x1A8B JUMPI PUSH0 PUSH20 0xFFFFFFFFFFFFFFFFFFFFFFFFFFFFFFFFFFFFFFFF AND DUP4 PUSH20 0xFFFFFFFFFFFFFFFFFFFFFFFFFFFFFFFFFFFFFFFF AND SUB PUSH2 0x1A4C JUMPI DUP1 PUSH1 0x40 MLOAD PUSH32 0x7E27328900000000000000000000000000000000000000000000000000000000 DUP2 MSTORE PUSH1 0x4 ADD PUSH2 0x1A43 SWAP2 SWAP1 PUSH2 0x2199 JUMP JUMPDEST PUSH1 0x40 MLOAD DUP1 SWAP2 SUB SWAP1 REVERT JUMPDEST DUP2 DUP2 PUSH1 0x40 MLOAD PUSH32 0x177E802F00000000000000000000000000000000000000000000000000000000 DUP2 MSTORE PUSH1 0x4 ADD PUSH2 0x1A82 SWAP3 SWAP2 SWAP1 PUSH2 0x2AC2 JUMP JUMPDEST PUSH1 0x40 MLOAD DUP1 SWAP2 SUB SWAP1 REVERT JUMPDEST POP POP POP JUMP JUMPDEST PUSH0 DUP1 PUSH20 0xFFFFFFFFFFFFFFFFFFFFFFFFFFFFFFFFFFFFFFFF AND DUP4 PUSH20 0xFFFFFFFFFFFFFFFFFFFFFFFFFFFFFFFFFFFFFFFF AND EQ ISZERO DUP1 ISZERO PUSH2 0x1B47 JUMPI POP DUP3 PUSH20 0xFFFFFFFFFFFFFFFFFFFFFFFFFFFFFFFFFFFFFFFF AND DUP5 PUSH20 0xFFFFFFFFFFFFFFFFFFFFFFFFFFFFFFFFFFFFFFFF AND EQ DUP1 PUSH2 0x1B08 JUMPI POP PUSH2 0x1B07 DUP5 DUP5 PUSH2 0xFED JUMP JUMPDEST JUMPDEST DUP1 PUSH2 0x1B46 JUMPI POP DUP3 PUSH20 0xFFFFFFFFFFFFFFFFFFFFFFFFFFFFFFFFFFFFFFFF AND PUSH2 0x1B2E DUP4 PUSH2 0x116A JUMP JUMPDEST PUSH20 0xFFFFFFFFFFFFFFFFFFFFFFFFFFFFFFFFFFFFFFFF AND EQ JUMPDEST JUMPDEST SWAP1 POP SWAP4 SWAP3 POP POP POP JUMP JUMPDEST PUSH1 0x40 MLOAD DUP1 PUSH1 0x40 ADD PUSH1 0x40 MSTORE DUP1 PUSH0 DUP2 MSTORE PUSH1 0x20 ADD PUSH2 0x1B69 PUSH2 0x1B6F JUMP JUMPDEST DUP2 MSTORE POP SWAP1 JUMP JUMPDEST PUSH1 0x40 MLOAD DUP1 PUSH1 0x40 ADD PUSH1 0x40 MSTORE DUP1 PUSH1 0x60 DUP2 MSTORE PUSH1 0x20 ADD PUSH0 DUP2 MSTORE POP SWAP1 JUMP JUMPDEST PUSH0 PUSH1 0x40 MLOAD SWAP1 POP SWAP1 JUMP JUMPDEST PUSH0 DUP1 REVERT JUMPDEST PUSH0 DUP1 REVERT JUMPDEST PUSH0 PUSH32 0xFFFFFFFF00000000000000000000000000000000000000000000000000000000 DUP3 AND SWAP1 POP SWAP2 SWAP1 POP JUMP JUMPDEST PUSH2 0x1BCD DUP2 PUSH2 0x1B99 JUMP JUMPDEST DUP2 EQ PUSH2 0x1BD7 JUMPI PUSH0 DUP1 REVERT JUMPDEST POP JUMP JUMPDEST PUSH0 DUP2 CALLDATALOAD SWAP1 POP PUSH2 0x1BE8 DUP2 PUSH2 0x1BC4 JUMP JUMPDEST SWAP3 SWAP2 POP POP JUMP JUMPDEST PUSH0 PUSH1 0x20 DUP3 DUP5 SUB SLT ISZERO PUSH2 0x1C03 JUMPI PUSH2 0x1C02 PUSH2 0x1B91 JUMP JUMPDEST JUMPDEST PUSH0 PUSH2 0x1C10 DUP5 DUP3 DUP6 ADD PUSH2 0x1BDA JUMP JUMPDEST SWAP2 POP POP SWAP3 SWAP2 POP POP JUMP JUMPDEST PUSH0 DUP2 ISZERO ISZERO SWAP1 POP SWAP2 SWAP1 POP JUMP JUMPDEST PUSH2 0x1C2D DUP2 PUSH2 0x1C19 JUMP JUMPDEST DUP3 MSTORE POP POP JUMP JUMPDEST PUSH0 PUSH1 0x20 DUP3 ADD SWAP1 POP PUSH2 0x1C46 PUSH0 DUP4 ADD DUP5 PUSH2 0x1C24 JUMP JUMPDEST SWAP3 SWAP2 POP POP JUMP JUMPDEST PUSH0 DUP2 MLOAD SWAP1 POP SWAP2 SWAP1 POP JUMP JUMPDEST PUSH0 DUP3 DUP3 MSTORE PUSH1 0x20 DUP3 ADD SWAP1 POP SWAP3 SWAP2 POP POP JUMP JUMPDEST PUSH0 JUMPDEST DUP4 DUP2 LT ISZERO PUSH2 0x1C83 JUMPI DUP1 DUP3 ADD MLOAD DUP2 DUP5 ADD MSTORE PUSH1 0x20 DUP2 ADD SWAP1 POP PUSH2 0x1C68 JUMP JUMPDEST PUSH0 DUP5 DUP5 ADD MSTORE POP POP POP POP JUMP JUMPDEST PUSH0 PUSH1 0x1F NOT PUSH1 0x1F DUP4 ADD AND SWAP1 POP SWAP2 SWAP1 POP JUMP JUMPDEST PUSH0 PUSH2 0x1CA8 DUP3 PUSH2 0x1C4C JUMP JUMPDEST PUSH2 0x1CB2 DUP2 DUP6 PUSH2 0x1C56 JUMP JUMPDEST SWAP4 POP PUSH2 0x1CC2 DUP2 DUP6 PUSH1 0x20 DUP7 ADD PUSH2 0x1C66 JUMP JUMPDEST PUSH2 0x1CCB DUP2 PUSH2 0x1C8E JUMP JUMPDEST DUP5 ADD SWAP2 POP POP SWAP3 SWAP2 POP POP JUMP JUMPDEST PUSH0 PUSH1 0x20 DUP3 ADD SWAP1 POP DUP2 DUP2 SUB PUSH0 DUP4 ADD MSTORE PUSH2 0x1CEE DUP2 DUP5 PUSH2 0x1C9E JUMP JUMPDEST SWAP1 POP SWAP3 SWAP2 POP POP JUMP JUMPDEST PUSH0 DUP2 SWAP1 POP SWAP2 SWAP1 POP JUMP JUMPDEST PUSH2 0x1D08 DUP2 PUSH2 0x1CF6 JUMP JUMPDEST DUP2 EQ PUSH2 0x1D12 JUMPI PUSH0 DUP1 REVERT JUMPDEST POP JUMP JUMPDEST PUSH0 DUP2 CALLDATALOAD SWAP1 POP PUSH2 0x1D23 DUP2 PUSH2 0x1CFF JUMP JUMPDEST SWAP3 SWAP2 POP POP JUMP JUMPDEST PUSH0 PUSH1 0x20 DUP3 DUP5 SUB SLT ISZERO PUSH2 0x1D3E JUMPI PUSH2 0x1D3D PUSH2 0x1B91 JUMP JUMPDEST JUMPDEST PUSH0 PUSH2 0x1D4B DUP5 DUP3 DUP6 ADD PUSH2 0x1D15 JUMP JUMPDEST SWAP2 POP POP SWAP3 SWAP2 POP POP JUMP JUMPDEST PUSH0 PUSH20 0xFFFFFFFFFFFFFFFFFFFFFFFFFFFFFFFFFFFFFFFF DUP3 AND SWAP1 POP SWAP2 SWAP1 POP JUMP JUMPDEST PUSH0 PUSH2 0x1D7D DUP3 PUSH2 0x1D54 JUMP JUMPDEST SWAP1 POP SWAP2 SWAP1 POP JUMP JUMPDEST PUSH2 0x1D8D DUP2 PUSH2 0x1D73 JUMP JUMPDEST DUP3 MSTORE POP POP JUMP JUMPDEST PUSH0 PUSH1 0x20 DUP3 ADD SWAP1 POP PUSH2 0x1DA6 PUSH0 DUP4 ADD DUP5 PUSH2 0x1D84 JUMP JUMPDEST SWAP3 SWAP2 POP POP JUMP JUMPDEST PUSH2 0x1DB5 DUP2 PUSH2 0x1D73 JUMP JUMPDEST DUP2 EQ PUSH2 0x1DBF JUMPI PUSH0 DUP1 REVERT JUMPDEST POP JUMP JUMPDEST PUSH0 DUP2 CALLDATALOAD SWAP1 POP PUSH2 0x1DD0 DUP2 PUSH2 0x1DAC JUMP JUMPDEST SWAP3 SWAP2 POP POP JUMP JUMPDEST PUSH0 DUP1 PUSH1 0x40 DUP4 DUP6 SUB SLT ISZERO PUSH2 0x1DEC JUMPI PUSH2 0x1DEB PUSH2 0x1B91 JUMP JUMPDEST JUMPDEST PUSH0 PUSH2 0x1DF9 DUP6 DUP3 DUP7 ADD PUSH2 0x1DC2 JUMP JUMPDEST SWAP3 POP POP PUSH1 0x20 PUSH2 0x1E0A DUP6 DUP3 DUP7 ADD PUSH2 0x1D15 JUMP JUMPDEST SWAP2 POP POP SWAP3 POP SWAP3 SWAP1 POP JUMP JUMPDEST PUSH0 PUSH1 0x20 DUP3 DUP5 SUB SLT ISZERO PUSH2 0x1E29 JUMPI PUSH2 0x1E28 PUSH2 0x1B91 JUMP JUMPDEST JUMPDEST PUSH0 PUSH2 0x1E36 DUP5 DUP3 DUP6 ADD PUSH2 0x1DC2 JUMP JUMPDEST SWAP2 POP POP SWAP3 SWAP2 POP POP JUMP JUMPDEST PUSH0 DUP2 MLOAD SWAP1 POP SWAP2 SWAP1 POP JUMP JUMPDEST PUSH0 DUP3 DUP3 MSTORE PUSH1 0x20 DUP3 ADD SWAP1 POP SWAP3 SWAP2 POP POP JUMP JUMPDEST PUSH0 DUP2 SWAP1 POP PUSH1 0x20 DUP3 ADD SWAP1 POP SWAP2 SWAP1 POP JUMP JUMPDEST PUSH2 0x1E71 DUP2 PUSH2 0x1CF6 JUMP JUMPDEST DUP3 MSTORE POP POP JUMP JUMPDEST PUSH0 DUP3 DUP3 MSTORE PUSH1 0x20 DUP3 ADD SWAP1 POP SWAP3 SWAP2 POP POP JUMP JUMPDEST PUSH0 PUSH2 0x1E91 DUP3 PUSH2 0x1C4C JUMP JUMPDEST PUSH2 0x1E9B DUP2 DUP6 PUSH2 0x1E77 JUMP JUMPDEST SWAP4 POP PUSH2 0x1EAB DUP2 DUP6 PUSH1 0x20 DUP7 ADD PUSH2 0x1C66 JUMP JUMPDEST PUSH2 0x1EB4 DUP2 PUSH2 0x1C8E JUMP JUMPDEST DUP5 ADD SWAP2 POP POP SWAP3 SWAP2 POP POP JUMP JUMPDEST PUSH0 PUSH1 0x40 DUP4 ADD PUSH0 DUP4 ADD MLOAD DUP5 DUP3 SUB PUSH0 DUP7 ADD MSTORE PUSH2 0x1ED9 DUP3 DUP3 PUSH2 0x1E87 JUMP JUMPDEST SWAP2 POP POP PUSH1 0x20 DUP4 ADD MLOAD PUSH2 0x1EEE PUSH1 0x20 DUP7 ADD DUP3 PUSH2 0x1E68 JUMP JUMPDEST POP DUP1 SWAP2 POP POP SWAP3 SWAP2 POP POP JUMP JUMPDEST PUSH0 PUSH1 0x40 DUP4 ADD PUSH0 DUP4 ADD MLOAD PUSH2 0x1F0E PUSH0 DUP7 ADD DUP3 PUSH2 0x1E68 JUMP JUMPDEST POP PUSH1 0x20 DUP4 ADD MLOAD DUP5 DUP3 SUB PUSH1 0x20 DUP7 ADD MSTORE PUSH2 0x1F26 DUP3 DUP3 PUSH2 0x1EBF JUMP JUMPDEST SWAP2 POP POP DUP1 SWAP2 POP POP SWAP3 SWAP2 POP POP JUMP JUMPDEST PUSH0 PUSH2 0x1F3E DUP4 DUP4 PUSH2 0x1EF9 JUMP JUMPDEST SWAP1 POP SWAP3 SWAP2 POP POP JUMP JUMPDEST PUSH0 PUSH1 0x20 DUP3 ADD SWAP1 POP SWAP2 SWAP1 POP JUMP JUMPDEST PUSH0 PUSH2 0x1F5C DUP3 PUSH2 0x1E3F JUMP JUMPDEST PUSH2 0x1F66 DUP2 DUP6 PUSH2 0x1E49 JUMP JUMPDEST SWAP4 POP DUP4 PUSH1 0x20 DUP3 MUL DUP6 ADD PUSH2 0x1F78 DUP6 PUSH2 0x1E59 JUMP JUMPDEST DUP1 PUSH0 JUMPDEST DUP6 DUP2 LT ISZERO PUSH2 0x1FB3 JUMPI DUP5 DUP5 SUB DUP10 MSTORE DUP2 MLOAD PUSH2 0x1F94 DUP6 DUP3 PUSH2 0x1F33 JUMP JUMPDEST SWAP5 POP PUSH2 0x1F9F DUP4 PUSH2 0x1F46 JUMP JUMPDEST SWAP3 POP PUSH1 0x20 DUP11 ADD SWAP10 POP POP PUSH1 0x1 DUP2 ADD SWAP1 POP PUSH2 0x1F7B JUMP JUMPDEST POP DUP3 SWAP8 POP DUP8 SWAP6 POP POP POP POP POP POP SWAP3 SWAP2 POP POP JUMP JUMPDEST PUSH0 PUSH1 0x20 DUP3 ADD SWAP1 POP DUP2 DUP2 SUB PUSH0 DUP4 ADD MSTORE PUSH2 0x1FDD DUP2 DUP5 PUSH2 0x1F52 JUMP JUMPDEST SWAP1 POP SWAP3 SWAP2 POP POP JUMP JUMPDEST PUSH0 DUP1 PUSH0 PUSH1 0x60 DUP5 DUP7 SUB SLT ISZERO PUSH2 0x1FFC JUMPI PUSH2 0x1FFB PUSH2 0x1B91 JUMP JUMPDEST JUMPDEST PUSH0 PUSH2 0x2009 DUP7 DUP3 DUP8 ADD PUSH2 0x1DC2 JUMP JUMPDEST SWAP4 POP POP PUSH1 0x20 PUSH2 0x201A DUP7 DUP3 DUP8 ADD PUSH2 0x1DC2 JUMP JUMPDEST SWAP3 POP POP PUSH1 0x40 PUSH2 0x202B DUP7 DUP3 DUP8 ADD PUSH2 0x1D15 JUMP JUMPDEST SWAP2 POP POP SWAP3 POP SWAP3 POP SWAP3 JUMP JUMPDEST PUSH2 0x203E DUP2 PUSH2 0x1C19 JUMP JUMPDEST DUP2 EQ PUSH2 0x2048 JUMPI PUSH0 DUP1 REVERT JUMPDEST POP JUMP JUMPDEST PUSH0 DUP2 CALLDATALOAD SWAP1 POP PUSH2 0x2059 DUP2 PUSH2 0x2035 JUMP JUMPDEST SWAP3 SWAP2 POP POP JUMP JUMPDEST PUSH0 DUP1 PUSH0 PUSH1 0x60 DUP5 DUP7 SUB SLT ISZERO PUSH2 0x2076 JUMPI PUSH2 0x2075 PUSH2 0x1B91 JUMP JUMPDEST JUMPDEST PUSH0 PUSH2 0x2083 DUP7 DUP3 DUP8 ADD PUSH2 0x1DC2 JUMP JUMPDEST SWAP4 POP POP PUSH1 0x20 PUSH2 0x2094 DUP7 DUP3 DUP8 ADD PUSH2 0x1DC2 JUMP JUMPDEST SWAP3 POP POP PUSH1 0x40 PUSH2 0x20A5 DUP7 DUP3 DUP8 ADD PUSH2 0x204B JUMP JUMPDEST SWAP2 POP POP SWAP3 POP SWAP3 POP SWAP3 JUMP JUMPDEST PUSH0 DUP2 MLOAD SWAP1 POP SWAP2 SWAP1 POP JUMP JUMPDEST PUSH0 DUP3 DUP3 MSTORE PUSH1 0x20 DUP3 ADD SWAP1 POP SWAP3 SWAP2 POP POP JUMP JUMPDEST PUSH0 DUP2 SWAP1 POP PUSH1 0x20 DUP3 ADD SWAP1 POP SWAP2 SWAP1 POP JUMP JUMPDEST PUSH0 PUSH2 0x20E3 DUP4 DUP4 PUSH2 0x1E87 JUMP JUMPDEST SWAP1 POP SWAP3 SWAP2 POP POP JUMP JUMPDEST PUSH0 PUSH1 0x20 DUP3 ADD SWAP1 POP SWAP2 SWAP1 POP JUMP JUMPDEST PUSH0 PUSH2 0x2101 DUP3 PUSH2 0x20AF JUMP JUMPDEST PUSH2 0x210B DUP2 DUP6 PUSH2 0x20B9 JUMP JUMPDEST SWAP4 POP DUP4 PUSH1 0x20 DUP3 MUL DUP6 ADD PUSH2 0x211D DUP6 PUSH2 0x20C9 JUMP JUMPDEST DUP1 PUSH0 JUMPDEST DUP6 DUP2 LT ISZERO PUSH2 0x2158 JUMPI DUP5 DUP5 SUB DUP10 MSTORE DUP2 MLOAD PUSH2 0x2139 DUP6 DUP3 PUSH2 0x20D8 JUMP JUMPDEST SWAP5 POP PUSH2 0x2144 DUP4 PUSH2 0x20EB JUMP JUMPDEST SWAP3 POP PUSH1 0x20 DUP11 ADD SWAP10 POP POP PUSH1 0x1 DUP2 ADD SWAP1 POP PUSH2 0x2120 JUMP JUMPDEST POP DUP3 SWAP8 POP DUP8 SWAP6 POP POP POP POP POP POP SWAP3 SWAP2 POP POP JUMP JUMPDEST PUSH0 PUSH1 0x20 DUP3 ADD SWAP1 POP DUP2 DUP2 SUB PUSH0 DUP4 ADD MSTORE PUSH2 0x2182 DUP2 DUP5 PUSH2 0x20F7 JUMP JUMPDEST SWAP1 POP SWAP3 SWAP2 POP POP JUMP JUMPDEST PUSH2 0x2193 DUP2 PUSH2 0x1CF6 JUMP JUMPDEST DUP3 MSTORE POP POP JUMP JUMPDEST PUSH0 PUSH1 0x20 DUP3 ADD SWAP1 POP PUSH2 0x21AC PUSH0 DUP4 ADD DUP5 PUSH2 0x218A JUMP JUMPDEST SWAP3 SWAP2 POP POP JUMP JUMPDEST PUSH0 DUP1 REVERT JUMPDEST PUSH0 DUP1 REVERT JUMPDEST PUSH32 0x4E487B7100000000000000000000000000000000000000000000000000000000 PUSH0 MSTORE PUSH1 0x41 PUSH1 0x4 MSTORE PUSH1 0x24 PUSH0 REVERT JUMPDEST PUSH2 0x21F0 DUP3 PUSH2 0x1C8E JUMP JUMPDEST DUP2 ADD DUP2 DUP2 LT PUSH8 0xFFFFFFFFFFFFFFFF DUP3 GT OR ISZERO PUSH2 0x220F JUMPI PUSH2 0x220E PUSH2 0x21BA JUMP JUMPDEST JUMPDEST DUP1 PUSH1 0x40 MSTORE POP POP POP JUMP JUMPDEST PUSH0 PUSH2 0x2221 PUSH2 0x1B88 JUMP JUMPDEST SWAP1 POP PUSH2 0x222D DUP3 DUP3 PUSH2 0x21E7 JUMP JUMPDEST SWAP2 SWAP1 POP JUMP JUMPDEST PUSH0 PUSH8 0xFFFFFFFFFFFFFFFF DUP3 GT ISZERO PUSH2 0x224C JUMPI PUSH2 0x224B PUSH2 0x21BA JUMP JUMPDEST JUMPDEST PUSH2 0x2255 DUP3 PUSH2 0x1C8E JUMP JUMPDEST SWAP1 POP PUSH1 0x20 DUP2 ADD SWAP1 POP SWAP2 SWAP1 POP JUMP JUMPDEST DUP3 DUP2 DUP4 CALLDATACOPY PUSH0 DUP4 DUP4 ADD MSTORE POP POP POP JUMP JUMPDEST PUSH0 PUSH2 0x2282 PUSH2 0x227D DUP5 PUSH2 0x2232 JUMP JUMPDEST PUSH2 0x2218 JUMP JUMPDEST SWAP1 POP DUP3 DUP2 MSTORE PUSH1 0x20 DUP2 ADD DUP5 DUP5 DUP5 ADD GT ISZERO PUSH2 0x229E JUMPI PUSH2 0x229D PUSH2 0x21B6 JUMP JUMPDEST JUMPDEST PUSH2 0x22A9 DUP5 DUP3 DUP6 PUSH2 0x2262 JUMP JUMPDEST POP SWAP4 SWAP3 POP POP POP JUMP JUMPDEST PUSH0 DUP3 PUSH1 0x1F DUP4 ADD SLT PUSH2 0x22C5 JUMPI PUSH2 0x22C4 PUSH2 0x21B2 JUMP JUMPDEST JUMPDEST DUP2 CALLDATALOAD PUSH2 0x22D5 DUP5 DUP3 PUSH1 0x20 DUP7 ADD PUSH2 0x2270 JUMP JUMPDEST SWAP2 POP POP SWAP3 SWAP2 POP POP JUMP JUMPDEST PUSH0 PUSH1 0x20 DUP3 DUP5 SUB SLT ISZERO PUSH2 0x22F3 JUMPI PUSH2 0x22F2 PUSH2 0x1B91 JUMP JUMPDEST JUMPDEST PUSH0 DUP3 ADD CALLDATALOAD PUSH8 0xFFFFFFFFFFFFFFFF DUP2 GT ISZERO PUSH2 0x2310 JUMPI PUSH2 0x230F PUSH2 0x1B95 JUMP JUMPDEST JUMPDEST PUSH2 0x231C DUP5 DUP3 DUP6 ADD PUSH2 0x22B1 JUMP JUMPDEST SWAP2 POP POP SWAP3 SWAP2 POP POP JUMP JUMPDEST PUSH0 DUP1 PUSH1 0x40 DUP4 DUP6 SUB SLT ISZERO PUSH2 0x233B JUMPI PUSH2 0x233A PUSH2 0x1B91 JUMP JUMPDEST JUMPDEST PUSH0 DUP4 ADD CALLDATALOAD PUSH8 0xFFFFFFFFFFFFFFFF DUP2 GT ISZERO PUSH2 0x2358 JUMPI PUSH2 0x2357 PUSH2 0x1B95 JUMP JUMPDEST JUMPDEST PUSH2 0x2364 DUP6 DUP3 DUP7 ADD PUSH2 0x22B1 JUMP JUMPDEST SWAP3 POP POP PUSH1 0x20 DUP4 ADD CALLDATALOAD PUSH8 0xFFFFFFFFFFFFFFFF DUP2 GT ISZERO PUSH2 0x2385 JUMPI PUSH2 0x2384 PUSH2 0x1B95 JUMP JUMPDEST JUMPDEST PUSH2 0x2391 DUP6 DUP3 DUP7 ADD PUSH2 0x22B1 JUMP JUMPDEST SWAP2 POP POP SWAP3 POP SWAP3 SWAP1 POP JUMP JUMPDEST PUSH0 DUP1 PUSH1 0x40 DUP4 DUP6 SUB SLT ISZERO PUSH2 0x23B1 JUMPI PUSH2 0x23B0 PUSH2 0x1B91 JUMP JUMPDEST JUMPDEST PUSH0 PUSH2 0x23BE DUP6 DUP3 DUP7 ADD PUSH2 0x1DC2 JUMP JUMPDEST SWAP3 POP POP PUSH1 0x20 PUSH2 0x23CF DUP6 DUP3 DUP7 ADD PUSH2 0x204B JUMP JUMPDEST SWAP2 POP POP SWAP3 POP SWAP3 SWAP1 POP JUMP JUMPDEST PUSH0 PUSH8 0xFFFFFFFFFFFFFFFF DUP3 GT ISZERO PUSH2 0x23F3 JUMPI PUSH2 0x23F2 PUSH2 0x21BA JUMP JUMPDEST JUMPDEST PUSH2 0x23FC DUP3 PUSH2 0x1C8E JUMP JUMPDEST SWAP1 POP PUSH1 0x20 DUP2 ADD SWAP1 POP SWAP2 SWAP1 POP JUMP JUMPDEST PUSH0 PUSH2 0x241B PUSH2 0x2416 DUP5 PUSH2 0x23D9 JUMP JUMPDEST PUSH2 0x2218 JUMP JUMPDEST SWAP1 POP DUP3 DUP2 MSTORE PUSH1 0x20 DUP2 ADD DUP5 DUP5 DUP5 ADD GT ISZERO PUSH2 0x2437 JUMPI PUSH2 0x2436 PUSH2 0x21B6 JUMP JUMPDEST JUMPDEST PUSH2 0x2442 DUP5 DUP3 DUP6 PUSH2 0x2262 JUMP JUMPDEST POP SWAP4 SWAP3 POP POP POP JUMP JUMPDEST PUSH0 DUP3 PUSH1 0x1F DUP4 ADD SLT PUSH2 0x245E JUMPI PUSH2 0x245D PUSH2 0x21B2 JUMP JUMPDEST JUMPDEST DUP2 CALLDATALOAD PUSH2 0x246E DUP5 DUP3 PUSH1 0x20 DUP7 ADD PUSH2 0x2409 JUMP JUMPDEST SWAP2 POP POP SWAP3 SWAP2 POP POP JUMP JUMPDEST PUSH0 DUP1 PUSH0 DUP1 PUSH1 0x80 DUP6 DUP8 SUB SLT ISZERO PUSH2 0x248F JUMPI PUSH2 0x248E PUSH2 0x1B91 JUMP JUMPDEST JUMPDEST PUSH0 PUSH2 0x249C DUP8 DUP3 DUP9 ADD PUSH2 0x1DC2 JUMP JUMPDEST SWAP5 POP POP PUSH1 0x20 PUSH2 0x24AD DUP8 DUP3 DUP9 ADD PUSH2 0x1DC2 JUMP JUMPDEST SWAP4 POP POP PUSH1 0x40 PUSH2 0x24BE DUP8 DUP3 DUP9 ADD PUSH2 0x1D15 JUMP JUMPDEST SWAP3 POP POP PUSH1 0x60 DUP6 ADD CALLDATALOAD PUSH8 0xFFFFFFFFFFFFFFFF DUP2 GT ISZERO PUSH2 0x24DF JUMPI PUSH2 0x24DE PUSH2 0x1B95 JUMP JUMPDEST JUMPDEST PUSH2 0x24EB DUP8 DUP3 DUP9 ADD PUSH2 0x244A JUMP JUMPDEST SWAP2 POP POP SWAP3 SWAP6 SWAP2 SWAP5 POP SWAP3 POP JUMP JUMPDEST PUSH0 DUP1 PUSH1 0x40 DUP4 DUP6 SUB SLT ISZERO PUSH2 0x250D JUMPI PUSH2 0x250C PUSH2 0x1B91 JUMP JUMPDEST JUMPDEST PUSH0 PUSH2 0x251A DUP6 DUP3 DUP7 ADD PUSH2 0x1DC2 JUMP JUMPDEST SWAP3 POP POP PUSH1 0x20 PUSH2 0x252B DUP6 DUP3 DUP7 ADD PUSH2 0x1DC2 JUMP JUMPDEST SWAP2 POP POP SWAP3 POP SWAP3 SWAP1 POP JUMP JUMPDEST PUSH32 0x4E487B7100000000000000000000000000000000000000000000000000000000 PUSH0 MSTORE PUSH1 0x22 PUSH1 0x4 MSTORE PUSH1 0x24 PUSH0 REVERT JUMPDEST PUSH0 PUSH1 0x2 DUP3 DIV SWAP1 POP PUSH1 0x1 DUP3 AND DUP1 PUSH2 0x2579 JUMPI PUSH1 0x7F DUP3 AND SWAP2 POP JUMPDEST PUSH1 0x20 DUP3 LT DUP2 SUB PUSH2 0x258C JUMPI PUSH2 0x258B PUSH2 0x2535 JUMP JUMPDEST JUMPDEST POP SWAP2 SWAP1 POP JUMP JUMPDEST PUSH32 0x4E487B7100000000000000000000000000000000000000000000000000000000 PUSH0 MSTORE PUSH1 0x32 PUSH1 0x4 MSTORE PUSH1 0x24 PUSH0 REVERT JUMPDEST PUSH32 0x4E487B7100000000000000000000000000000000000000000000000000000000 PUSH0 MSTORE PUSH1 0x11 PUSH1 0x4 MSTORE PUSH1 0x24 PUSH0 REVERT JUMPDEST PUSH0 PUSH2 0x25F6 DUP3 PUSH2 0x1CF6 JUMP JUMPDEST SWAP2 POP PUSH32 0xFFFFFFFFFFFFFFFFFFFFFFFFFFFFFFFFFFFFFFFFFFFFFFFFFFFFFFFFFFFFFFFF DUP3 SUB PUSH2 0x2628 JUMPI PUSH2 0x2627 PUSH2 0x25BF JUMP JUMPDEST JUMPDEST PUSH1 0x1 DUP3 ADD SWAP1 POP SWAP2 SWAP1 POP JUMP JUMPDEST PUSH0 PUSH1 0x60 DUP3 ADD SWAP1 POP PUSH2 0x2646 PUSH0 DUP4 ADD DUP7 PUSH2 0x1D84 JUMP JUMPDEST PUSH2 0x2653 PUSH1 0x20 DUP4 ADD DUP6 PUSH2 0x218A JUMP JUMPDEST PUSH2 0x2660 PUSH1 0x40 DUP4 ADD DUP5 PUSH2 0x1D84 JUMP JUMPDEST SWAP5 SWAP4 POP POP POP POP JUMP JUMPDEST PUSH0 DUP2 SWAP1 POP SWAP3 SWAP2 POP POP JUMP JUMPDEST PUSH0 PUSH2 0x267C DUP3 PUSH2 0x1C4C JUMP JUMPDEST PUSH2 0x2686 DUP2 DUP6 PUSH2 0x2668 JUMP JUMPDEST SWAP4 POP PUSH2 0x2696 DUP2 DUP6 PUSH1 0x20 DUP7 ADD PUSH2 0x1C66 JUMP JUMPDEST DUP1 DUP5 ADD SWAP2 POP POP SWAP3 SWAP2 POP POP JUMP JUMPDEST PUSH0 PUSH2 0x26AD DUP3 DUP5 PUSH2 0x2672 JUMP JUMPDEST SWAP2 POP DUP2 SWAP1 POP SWAP3 SWAP2 POP POP JUMP JUMPDEST PUSH32 0x4E487B7100000000000000000000000000000000000000000000000000000000 PUSH0 MSTORE PUSH1 0x12 PUSH1 0x4 MSTORE PUSH1 0x24 PUSH0 REVERT JUMPDEST PUSH0 PUSH2 0x26EF DUP3 PUSH2 0x1CF6 JUMP JUMPDEST SWAP2 POP PUSH2 0x26FA DUP4 PUSH2 0x1CF6 JUMP JUMPDEST SWAP3 POP DUP3 PUSH2 0x270A JUMPI PUSH2 0x2709 PUSH2 0x26B8 JUMP JUMPDEST JUMPDEST DUP3 DUP3 MOD SWAP1 POP SWAP3 SWAP2 POP POP JUMP JUMPDEST PUSH0 PUSH2 0x271F DUP3 PUSH2 0x1CF6 JUMP JUMPDEST SWAP2 POP PUSH2 0x272A DUP4 PUSH2 0x1CF6 JUMP JUMPDEST SWAP3 POP DUP3 DUP3 ADD SWAP1 POP DUP1 DUP3 GT ISZERO PUSH2 0x2742 JUMPI PUSH2 0x2741 PUSH2 0x25BF JUMP JUMPDEST JUMPDEST SWAP3 SWAP2 POP POP JUMP JUMPDEST PUSH0 DUP2 SWAP1 POP DUP2 PUSH0 MSTORE PUSH1 0x20 PUSH0 KECCAK256 SWAP1 POP SWAP2 SWAP1 POP JUMP JUMPDEST PUSH0 PUSH1 0x20 PUSH1 0x1F DUP4 ADD DIV SWAP1 POP SWAP2 SWAP1 POP JUMP JUMPDEST PUSH0 DUP3 DUP3 SHL SWAP1 POP SWAP3 SWAP2 POP POP JUMP JUMPDEST PUSH0 PUSH1 0x8 DUP4 MUL PUSH2 0x27A4 PUSH32 0xFFFFFFFFFFFFFFFFFFFFFFFFFFFFFFFFFFFFFFFFFFFFFFFFFFFFFFFFFFFFFFFF DUP3 PUSH2 0x2769 JUMP JUMPDEST PUSH2 0x27AE DUP7 DUP4 PUSH2 0x2769 JUMP JUMPDEST SWAP6 POP DUP1 NOT DUP5 AND SWAP4 POP DUP1 DUP7 AND DUP5 OR SWAP3 POP POP POP SWAP4 SWAP3 POP POP POP JUMP JUMPDEST PUSH0 DUP2 SWAP1 POP SWAP2 SWAP1 POP JUMP JUMPDEST PUSH0 PUSH2 0x27E9 PUSH2 0x27E4 PUSH2 0x27DF DUP5 PUSH2 0x1CF6 JUMP JUMPDEST PUSH2 0x27C6 JUMP JUMPDEST PUSH2 0x1CF6 JUMP JUMPDEST SWAP1 POP SWAP2 SWAP1 POP JUMP JUMPDEST PUSH0 DUP2 SWAP1 POP SWAP2 SWAP1 POP JUMP JUMPDEST PUSH2 0x2802 DUP4 PUSH2 0x27CF JUMP JUMPDEST PUSH2 0x2816 PUSH2 0x280E DUP3 PUSH2 0x27F0 JUMP JUMPDEST DUP5 DUP5 SLOAD PUSH2 0x2775 JUMP JUMPDEST DUP3 SSTORE POP POP POP POP JUMP JUMPDEST PUSH0 SWAP1 JUMP JUMPDEST PUSH2 0x282A PUSH2 0x281E JUMP JUMPDEST PUSH2 0x2835 DUP2 DUP5 DUP5 PUSH2 0x27F9 JUMP JUMPDEST POP POP POP JUMP JUMPDEST JUMPDEST DUP2 DUP2 LT ISZERO PUSH2 0x2858 JUMPI PUSH2 0x284D PUSH0 DUP3 PUSH2 0x2822 JUMP JUMPDEST PUSH1 0x1 DUP2 ADD SWAP1 POP PUSH2 0x283B JUMP JUMPDEST POP POP JUMP JUMPDEST PUSH1 0x1F DUP3 GT ISZERO PUSH2 0x289D JUMPI PUSH2 0x286E DUP2 PUSH2 0x2748 JUMP JUMPDEST PUSH2 0x2877 DUP5 PUSH2 0x275A JUMP JUMPDEST DUP2 ADD PUSH1 0x20 DUP6 LT ISZERO PUSH2 0x2886 JUMPI DUP2 SWAP1 POP JUMPDEST PUSH2 0x289A PUSH2 0x2892 DUP6 PUSH2 0x275A JUMP JUMPDEST DUP4 ADD DUP3 PUSH2 0x283A JUMP JUMPDEST POP POP JUMPDEST POP POP POP JUMP JUMPDEST PUSH0 DUP3 DUP3 SHR SWAP1 POP SWAP3 SWAP2 POP POP JUMP JUMPDEST PUSH0 PUSH2 0x28BD PUSH0 NOT DUP5 PUSH1 0x8 MUL PUSH2 0x28A2 JUMP JUMPDEST NOT DUP1 DUP4 AND SWAP2 POP POP SWAP3 SWAP2 POP POP JUMP JUMPDEST PUSH0 PUSH2 0x28D5 DUP4 DUP4 PUSH2 0x28AE JUMP JUMPDEST SWAP2 POP DUP3 PUSH1 0x2 MUL DUP3 OR SWAP1 POP SWAP3 SWAP2 POP POP JUMP JUMPDEST PUSH2 0x28EE DUP3 PUSH2 0x1C4C JUMP JUMPDEST PUSH8 0xFFFFFFFFFFFFFFFF DUP2 GT ISZERO PUSH2 0x2907 JUMPI PUSH2 0x2906 PUSH2 0x21BA JUMP JUMPDEST JUMPDEST PUSH2 0x2911 DUP3 SLOAD PUSH2 0x2562 JUMP JUMPDEST PUSH2 0x291C DUP3 DUP3 DUP6 PUSH2 0x285C JUMP JUMPDEST PUSH0 PUSH1 0x20 SWAP1 POP PUSH1 0x1F DUP4 GT PUSH1 0x1 DUP2 EQ PUSH2 0x294D JUMPI PUSH0 DUP5 ISZERO PUSH2 0x293B JUMPI DUP3 DUP8 ADD MLOAD SWAP1 POP JUMPDEST PUSH2 0x2945 DUP6 DUP3 PUSH2 0x28CA JUMP JUMPDEST DUP7 SSTORE POP PUSH2 0x29AC JUMP JUMPDEST PUSH1 0x1F NOT DUP5 AND PUSH2 0x295B DUP7 PUSH2 0x2748 JUMP JUMPDEST PUSH0 JUMPDEST DUP3 DUP2 LT ISZERO PUSH2 0x2982 JUMPI DUP5 DUP10 ADD MLOAD DUP3 SSTORE PUSH1 0x1 DUP3 ADD SWAP2 POP PUSH1 0x20 DUP6 ADD SWAP5 POP PUSH1 0x20 DUP2 ADD SWAP1 POP PUSH2 0x295D JUMP JUMPDEST DUP7 DUP4 LT ISZERO PUSH2 0x299F JUMPI DUP5 DUP10 ADD MLOAD PUSH2 0x299B PUSH1 0x1F DUP10 AND DUP3 PUSH2 0x28AE JUMP JUMPDEST DUP4 SSTORE POP JUMPDEST PUSH1 0x1 PUSH1 0x2 DUP9 MUL ADD DUP9 SSTORE POP POP POP JUMPDEST POP POP POP POP POP POP JUMP JUMPDEST PUSH0 PUSH2 0x29BE DUP3 PUSH2 0x1CF6 JUMP JUMPDEST SWAP2 POP PUSH2 0x29C9 DUP4 PUSH2 0x1CF6 JUMP JUMPDEST SWAP3 POP DUP3 DUP3 SUB SWAP1 POP DUP2 DUP2 GT ISZERO PUSH2 0x29E1 JUMPI PUSH2 0x29E0 PUSH2 0x25BF JUMP JUMPDEST JUMPDEST SWAP3 SWAP2 POP POP JUMP JUMPDEST PUSH0 DUP2 MLOAD SWAP1 POP SWAP2 SWAP1 POP JUMP JUMPDEST PUSH0 DUP3 DUP3 MSTORE PUSH1 0x20 DUP3 ADD SWAP1 POP SWAP3 SWAP2 POP POP JUMP JUMPDEST PUSH0 PUSH2 0x2A0B DUP3 PUSH2 0x29E7 JUMP JUMPDEST PUSH2 0x2A15 DUP2 DUP6 PUSH2 0x29F1 JUMP JUMPDEST SWAP4 POP PUSH2 0x2A25 DUP2 DUP6 PUSH1 0x20 DUP7 ADD PUSH2 0x1C66 JUMP JUMPDEST PUSH2 0x2A2E DUP2 PUSH2 0x1C8E JUMP JUMPDEST DUP5 ADD SWAP2 POP POP SWAP3 SWAP2 POP POP JUMP JUMPDEST PUSH0 PUSH1 0x80 DUP3 ADD SWAP1 POP PUSH2 0x2A4C PUSH0 DUP4 ADD DUP8 PUSH2 0x1D84 JUMP JUMPDEST PUSH2 0x2A59 PUSH1 0x20 DUP4 ADD DUP7 PUSH2 0x1D84 JUMP JUMPDEST PUSH2 0x2A66 PUSH1 0x40 DUP4 ADD DUP6 PUSH2 0x218A JUMP JUMPDEST DUP2 DUP2 SUB PUSH1 0x60 DUP4 ADD MSTORE PUSH2 0x2A78 DUP2 DUP5 PUSH2 0x2A01 JUMP JUMPDEST SWAP1 POP SWAP6 SWAP5 POP POP POP POP POP JUMP JUMPDEST PUSH0 DUP2 MLOAD SWAP1 POP PUSH2 0x2A91 DUP2 PUSH2 0x1BC4 JUMP JUMPDEST SWAP3 SWAP2 POP POP JUMP JUMPDEST PUSH0 PUSH1 0x20 DUP3 DUP5 SUB SLT ISZERO PUSH2 0x2AAC JUMPI PUSH2 0x2AAB PUSH2 0x1B91 JUMP JUMPDEST JUMPDEST PUSH0 PUSH2 0x2AB9 DUP5 DUP3 DUP6 ADD PUSH2 0x2A83 JUMP JUMPDEST SWAP2 POP POP SWAP3 SWAP2 POP POP JUMP JUMPDEST PUSH0 PUSH1 0x40 DUP3 ADD SWAP1 POP PUSH2 0x2AD5 PUSH0 DUP4 ADD DUP6 PUSH2 0x1D84 JUMP JUMPDEST PUSH2 0x2AE2 PUSH1 0x20 DUP4 ADD DUP5 PUSH2 0x218A JUMP JUMPDEST SWAP4 SWAP3 POP POP POP JUMP INVALID LOG2 PUSH5 0x6970667358 0x22 SLT KECCAK256 0x4F 0xD8 PUSH28 0x9CCEC83B02A7FE0C9D17EAF217B1A0B9B27EC9227C67BF1CEF840D0 0x4C PUSH5 0x736F6C6343 STOP ADDMOD EQ STOP CALLER "
		},
		"gasEstimates": {
			"creation": {
				"codeDepositCost": "2207800",
				"executionCost": "infinite",
				"totalCost": "infinite"
			},
			"external": {
				"approve(address,uint256)": "infinite",
				"balanceOf(address)": "infinite",
				"getApproved(uint256)": "infinite",
				"getOwnerTokenMetaData(address)": "infinite",
				"getOwnerURIs(address)": "infinite",
				"getTokenRanking(uint256)": "infinite",
				"getTokenURI(uint256)": "infinite",
				"isApprovedForAll(address,address)": "infinite",
				"makeRandom(string)": "infinite",
				"minting(string,string)": "infinite",
				"name()": "infinite",
				"ownerOf(uint256)": "infinite",
				"safeTransferFrom(address,address,uint256)": "infinite",
				"safeTransferFrom(address,address,uint256,bytes)": "infinite",
				"setAppAll(address,address,bool)": "infinite",
				"setApprovalForAll(address,bool)": "infinite",
				"supportsInterface(bytes4)": "787",
				"symbol()": "infinite",
				"tokenURI(uint256)": "infinite",
				"transferFrom(address,address,uint256)": "infinite"
			},
			"internal": {
				"_baseURI()": "infinite"
			}
		},
		"methodIdentifiers": {
			"approve(address,uint256)": "095ea7b3",
			"balanceOf(address)": "70a08231",
			"getApproved(uint256)": "081812fc",
			"getOwnerTokenMetaData(address)": "0a48a1ac",
			"getOwnerURIs(address)": "5f0cac76",
			"getTokenRanking(uint256)": "d15a76d2",
			"getTokenURI(uint256)": "3bb3a24d",
			"isApprovedForAll(address,address)": "e985e9c5",
			"makeRandom(string)": "838e4537",
			"minting(string,string)": "8a55a50e",
			"name()": "06fdde03",
			"ownerOf(uint256)": "6352211e",
			"safeTransferFrom(address,address,uint256)": "42842e0e",
			"safeTransferFrom(address,address,uint256,bytes)": "b88d4fde",
			"setAppAll(address,address,bool)": "29d6724e",
			"setApprovalForAll(address,bool)": "a22cb465",
			"supportsInterface(bytes4)": "01ffc9a7",
			"symbol()": "95d89b41",
			"tokenURI(uint256)": "c87b56dd",
			"transferFrom(address,address,uint256)": "23b872dd"
		}
	},
	"abi": [
		{
			"inputs": [
				{
					"internalType": "string",
					"name": "_name",
					"type": "string"
				},
				{
					"internalType": "string",
					"name": "_symbol",
					"type": "string"
				}
			],
			"stateMutability": "nonpayable",
			"type": "constructor"
		},
		{
			"inputs": [
				{
					"internalType": "address",
					"name": "sender",
					"type": "address"
				},
				{
					"internalType": "uint256",
					"name": "tokenId",
					"type": "uint256"
				},
				{
					"internalType": "address",
					"name": "owner",
					"type": "address"
				}
			],
			"name": "ERC721IncorrectOwner",
			"type": "error"
		},
		{
			"inputs": [
				{
					"internalType": "address",
					"name": "operator",
					"type": "address"
				},
				{
					"internalType": "uint256",
					"name": "tokenId",
					"type": "uint256"
				}
			],
			"name": "ERC721InsufficientApproval",
			"type": "error"
		},
		{
			"inputs": [
				{
					"internalType": "address",
					"name": "approver",
					"type": "address"
				}
			],
			"name": "ERC721InvalidApprover",
			"type": "error"
		},
		{
			"inputs": [
				{
					"internalType": "address",
					"name": "operator",
					"type": "address"
				}
			],
			"name": "ERC721InvalidOperator",
			"type": "error"
		},
		{
			"inputs": [
				{
					"internalType": "address",
					"name": "owner",
					"type": "address"
				}
			],
			"name": "ERC721InvalidOwner",
			"type": "error"
		},
		{
			"inputs": [
				{
					"internalType": "address",
					"name": "receiver",
					"type": "address"
				}
			],
			"name": "ERC721InvalidReceiver",
			"type": "error"
		},
		{
			"inputs": [
				{
					"internalType": "address",
					"name": "sender",
					"type": "address"
				}
			],
			"name": "ERC721InvalidSender",
			"type": "error"
		},
		{
			"inputs": [
				{
					"internalType": "uint256",
					"name": "tokenId",
					"type": "uint256"
				}
			],
			"name": "ERC721NonexistentToken",
			"type": "error"
		},
		{
			"anonymous": false,
			"inputs": [
				{
					"indexed": true,
					"internalType": "address",
					"name": "owner",
					"type": "address"
				},
				{
					"indexed": true,
					"internalType": "address",
					"name": "approved",
					"type": "address"
				},
				{
					"indexed": true,
					"internalType": "uint256",
					"name": "tokenId",
					"type": "uint256"
				}
			],
			"name": "Approval",
			"type": "event"
		},
		{
			"anonymous": false,
			"inputs": [
				{
					"indexed": true,
					"internalType": "address",
					"name": "owner",
					"type": "address"
				},
				{
					"indexed": true,
					"internalType": "address",
					"name": "operator",
					"type": "address"
				},
				{
					"indexed": false,
					"internalType": "bool",
					"name": "approved",
					"type": "bool"
				}
			],
			"name": "ApprovalForAll",
			"type": "event"
		},
		{
			"anonymous": false,
			"inputs": [
				{
					"indexed": true,
					"internalType": "address",
					"name": "from",
					"type": "address"
				},
				{
					"indexed": true,
					"internalType": "address",
					"name": "to",
					"type": "address"
				},
				{
					"indexed": true,
					"internalType": "uint256",
					"name": "tokenId",
					"type": "uint256"
				}
			],
			"name": "Transfer",
			"type": "event"
		},
		{
			"inputs": [
				{
					"internalType": "address",
					"name": "to",
					"type": "address"
				},
				{
					"internalType": "uint256",
					"name": "tokenId",
					"type": "uint256"
				}
			],
			"name": "approve",
			"outputs": [],
			"stateMutability": "nonpayable",
			"type": "function"
		},
		{
			"inputs": [
				{
					"internalType": "address",
					"name": "owner",
					"type": "address"
				}
			],
			"name": "balanceOf",
			"outputs": [
				{
					"internalType": "uint256",
					"name": "",
					"type": "uint256"
				}
			],
			"stateMutability": "view",
			"type": "function"
		},
		{
			"inputs": [
				{
					"internalType": "uint256",
					"name": "tokenId",
					"type": "uint256"
				}
			],
			"name": "getApproved",
			"outputs": [
				{
					"internalType": "address",
					"name": "",
					"type": "address"
				}
			],
			"stateMutability": "view",
			"type": "function"
		},
		{
			"inputs": [
				{
					"internalType": "address",
					"name": "owner",
					"type": "address"
				}
			],
			"name": "getOwnerTokenMetaData",
			"outputs": [
				{
					"components": [
						{
							"internalType": "uint256",
							"name": "tokenId",
							"type": "uint256"
						},
						{
							"components": [
								{
									"internalType": "string",
									"name": "tokenURI",
									"type": "string"
								},
								{
									"internalType": "uint256",
									"name": "ranking",
									"type": "uint256"
								}
							],
							"internalType": "struct MyNFT.TokenMetaData",
							"name": "metaData",
							"type": "tuple"
						}
					],
					"internalType": "struct MyNFT.TokenIdMetaDataWrapper[]",
					"name": "",
					"type": "tuple[]"
				}
			],
			"stateMutability": "view",
			"type": "function"
		},
		{
			"inputs": [
				{
					"internalType": "address",
					"name": "owner",
					"type": "address"
				}
			],
			"name": "getOwnerURIs",
			"outputs": [
				{
					"internalType": "string[]",
					"name": "",
					"type": "string[]"
				}
			],
			"stateMutability": "view",
			"type": "function"
		},
		{
			"inputs": [
				{
					"internalType": "uint256",
					"name": "tokenId",
					"type": "uint256"
				}
			],
			"name": "getTokenRanking",
			"outputs": [
				{
					"internalType": "uint256",
					"name": "ranking",
					"type": "uint256"
				}
			],
			"stateMutability": "view",
			"type": "function"
		},
		{
			"inputs": [
				{
					"internalType": "uint256",
					"name": "tokenId",
					"type": "uint256"
				}
			],
			"name": "getTokenURI",
			"outputs": [
				{
					"internalType": "string",
					"name": "",
					"type": "string"
				}
			],
			"stateMutability": "view",
			"type": "function"
		},
		{
			"inputs": [
				{
					"internalType": "address",
					"name": "owner",
					"type": "address"
				},
				{
					"internalType": "address",
					"name": "operator",
					"type": "address"
				}
			],
			"name": "isApprovedForAll",
			"outputs": [
				{
					"internalType": "bool",
					"name": "",
					"type": "bool"
				}
			],
			"stateMutability": "view",
			"type": "function"
		},
		{
			"inputs": [
				{
					"internalType": "string",
					"name": "seed",
					"type": "string"
				}
			],
			"name": "makeRandom",
			"outputs": [
				{
					"internalType": "uint256",
					"name": "",
					"type": "uint256"
				}
			],
			"stateMutability": "pure",
			"type": "function"
		},
		{
			"inputs": [
				{
					"internalType": "string",
					"name": "_tokenURI",
					"type": "string"
				},
				{
					"internalType": "string",
					"name": "seed",
					"type": "string"
				}
			],
			"name": "minting",
			"outputs": [
				{
					"internalType": "string",
					"name": "",
					"type": "string"
				}
			],
			"stateMutability": "nonpayable",
			"type": "function"
		},
		{
			"inputs": [],
			"name": "name",
			"outputs": [
				{
					"internalType": "string",
					"name": "",
					"type": "string"
				}
			],
			"stateMutability": "view",
			"type": "function"
		},
		{
			"inputs": [
				{
					"internalType": "uint256",
					"name": "tokenId",
					"type": "uint256"
				}
			],
			"name": "ownerOf",
			"outputs": [
				{
					"internalType": "address",
					"name": "",
					"type": "address"
				}
			],
			"stateMutability": "view",
			"type": "function"
		},
		{
			"inputs": [
				{
					"internalType": "address",
					"name": "from",
					"type": "address"
				},
				{
					"internalType": "address",
					"name": "to",
					"type": "address"
				},
				{
					"internalType": "uint256",
					"name": "tokenId",
					"type": "uint256"
				}
			],
			"name": "safeTransferFrom",
			"outputs": [],
			"stateMutability": "nonpayable",
			"type": "function"
		},
		{
			"inputs": [
				{
					"internalType": "address",
					"name": "from",
					"type": "address"
				},
				{
					"internalType": "address",
					"name": "to",
					"type": "address"
				},
				{
					"internalType": "uint256",
					"name": "tokenId",
					"type": "uint256"
				},
				{
					"internalType": "bytes",
					"name": "data",
					"type": "bytes"
				}
			],
			"name": "safeTransferFrom",
			"outputs": [],
			"stateMutability": "nonpayable",
			"type": "function"
		},
		{
			"inputs": [
				{
					"internalType": "address",
					"name": "owner",
					"type": "address"
				},
				{
					"internalType": "address",
					"name": "operator",
					"type": "address"
				},
				{
					"internalType": "bool",
					"name": "approved",
					"type": "bool"
				}
			],
			"name": "setAppAll",
			"outputs": [],
			"stateMutability": "nonpayable",
			"type": "function"
		},
		{
			"inputs": [
				{
					"internalType": "address",
					"name": "operator",
					"type": "address"
				},
				{
					"internalType": "bool",
					"name": "approved",
					"type": "bool"
				}
			],
			"name": "setApprovalForAll",
			"outputs": [],
			"stateMutability": "nonpayable",
			"type": "function"
		},
		{
			"inputs": [
				{
					"internalType": "bytes4",
					"name": "interfaceId",
					"type": "bytes4"
				}
			],
			"name": "supportsInterface",
			"outputs": [
				{
					"internalType": "bool",
					"name": "",
					"type": "bool"
				}
			],
			"stateMutability": "view",
			"type": "function"
		},
		{
			"inputs": [],
			"name": "symbol",
			"outputs": [
				{
					"internalType": "string",
					"name": "",
					"type": "string"
				}
			],
			"stateMutability": "view",
			"type": "function"
		},
		{
			"inputs": [
				{
					"internalType": "uint256",
					"name": "_tokenId",
					"type": "uint256"
				}
			],
			"name": "tokenURI",
			"outputs": [
				{
					"internalType": "string",
					"name": "",
					"type": "string"
				}
			],
			"stateMutability": "view",
			"type": "function"
		},
		{
			"inputs": [
				{
					"internalType": "address",
					"name": "from",
					"type": "address"
				},
				{
					"internalType": "address",
					"name": "to",
					"type": "address"
				},
				{
					"internalType": "uint256",
					"name": "tokenId",
					"type": "uint256"
				}
			],
			"name": "transferFrom",
			"outputs": [],
			"stateMutability": "nonpayable",
			"type": "function"
		}
	]
}