{
	"data": {
		"bytecode": {
			"linkReferences": {},
			"object": "608060405234801562000010575f80fd5b5060405162002460380380620024608339818101604052810190620000369190620001ea565b8181815f9081620000489190620004a4565b5080600190816200005a9190620004a4565b505050505062000588565b5f604051905090565b5f80fd5b5f80fd5b5f80fd5b5f80fd5b5f601f19601f8301169050919050565b7f4e487b71000000000000000000000000000000000000000000000000000000005f52604160045260245ffd5b620000c6826200007e565b810181811067ffffffffffffffff82111715620000e857620000e76200008e565b5b80604052505050565b5f620000fc62000065565b90506200010a8282620000bb565b919050565b5f67ffffffffffffffff8211156200012c576200012b6200008e565b5b62000137826200007e565b9050602081019050919050565b5f5b838110156200016357808201518184015260208101905062000146565b5f8484015250505050565b5f620001846200017e846200010f565b620000f1565b905082815260208101848484011115620001a357620001a26200007a565b5b620001b084828562000144565b509392505050565b5f82601f830112620001cf57620001ce62000076565b5b8151620001e18482602086016200016e565b91505092915050565b5f80604083850312156200020357620002026200006e565b5b5f83015167ffffffffffffffff81111562000223576200022262000072565b5b6200023185828601620001b8565b925050602083015167ffffffffffffffff81111562000255576200025462000072565b5b6200026385828601620001b8565b9150509250929050565b5f81519050919050565b7f4e487b71000000000000000000000000000000000000000000000000000000005f52602260045260245ffd5b5f6002820490506001821680620002bc57607f821691505b602082108103620002d257620002d162000277565b5b50919050565b5f819050815f5260205f209050919050565b5f6020601f8301049050919050565b5f82821b905092915050565b5f60088302620003367fffffffffffffffffffffffffffffffffffffffffffffffffffffffffffffffff82620002f9565b620003428683620002f9565b95508019841693508086168417925050509392505050565b5f819050919050565b5f819050919050565b5f6200038c6200038662000380846200035a565b62000363565b6200035a565b9050919050565b5f819050919050565b620003a7836200036c565b620003bf620003b68262000393565b84845462000305565b825550505050565b5f90565b620003d5620003c7565b620003e28184846200039c565b505050565b5b818110156200040957620003fd5f82620003cb565b600181019050620003e8565b5050565b601f82111562000458576200042281620002d8565b6200042d84620002ea565b810160208510156200043d578190505b620004556200044c85620002ea565b830182620003e7565b50505b505050565b5f82821c905092915050565b5f6200047a5f19846008026200045d565b1980831691505092915050565b5f62000494838362000469565b9150826002028217905092915050565b620004af826200026d565b67ffffffffffffffff811115620004cb57620004ca6200008e565b5b620004d78254620002a4565b620004e48282856200040d565b5f60209050601f8311600181146200051a575f841562000505578287015190505b62000511858262000487565b86555062000580565b601f1984166200052a86620002d8565b5f5b8281101562000553578489015182556001820191506020850194506020810190506200052c565b868310156200057357848901516200056f601f89168262000469565b8355505b6001600288020188555050505b505050505050565b611eca80620005965f395ff3fe608060405234801561000f575f80fd5b50600436106100fe575f3560e01c80636352211e11610095578063b88d4fde11610064578063b88d4fde146102a6578063c87b56dd146102c2578063e985e9c5146102f2578063f2cee92b14610322576100fe565b80636352211e1461020c57806370a082311461023c57806395d89b411461026c578063a22cb4651461028a576100fe565b8063162094c4116100d1578063162094c41461019c57806323b872dd146101b857806329d6724e146101d457806342842e0e146101f0576100fe565b806301ffc9a71461010257806306fdde0314610132578063081812fc14610150578063095ea7b314610180575b5f80fd5b61011c60048036038101906101179190611431565b61033e565b6040516101299190611476565b60405180910390f35b61013a61041f565b6040516101479190611519565b60405180910390f35b61016a6004803603810190610165919061156c565b6104ae565b60405161017791906115d6565b60405180910390f35b61019a60048036038101906101959190611619565b6104c9565b005b6101b660048036038101906101b19190611783565b6104df565b005b6101d260048036038101906101cd91906117dd565b610502565b005b6101ee60048036038101906101e99190611857565b610601565b005b61020a600480360381019061020591906117dd565b610611565b005b6102266004803603810190610221919061156c565b610630565b60405161023391906115d6565b60405180910390f35b610256600480360381019061025191906118a7565b610641565b60405161026391906118e1565b60405180910390f35b6102746106f7565b6040516102819190611519565b60405180910390f35b6102a4600480360381019061029f91906118fa565b610787565b005b6102c060048036038101906102bb91906119d6565b61079d565b005b6102dc60048036038101906102d7919061156c565b6107ba565b6040516102e99190611519565b60405180910390f35b61030c60048036038101906103079190611a56565b61085b565b6040516103199190611476565b60405180910390f35b61033c6004803603810190610337919061156c565b6108e9565b005b5f7f80ac58cd000000000000000000000000000000000000000000000000000000007bffffffffffffffffffffffffffffffffffffffffffffffffffffffff1916827bffffffffffffffffffffffffffffffffffffffffffffffffffffffff1916148061040857507f5b5e139f000000000000000000000000000000000000000000000000000000007bffffffffffffffffffffffffffffffffffffffffffffffffffffffff1916827bffffffffffffffffffffffffffffffffffffffffffffffffffffffff1916145b806104185750610417826108f6565b5b9050919050565b60605f805461042d90611ac1565b80601f016020809104026020016040519081016040528092919081815260200182805461045990611ac1565b80156104a45780601f1061047b576101008083540402835291602001916104a4565b820191905f5260205f20905b81548152906001019060200180831161048757829003601f168201915b5050505050905090565b5f6104b88261095f565b506104c2826109e5565b9050919050565b6104db82826104d6610a1e565b610a25565b5050565b8060065f8481526020019081526020015f2090816104fd9190611c8e565b505050565b5f73ffffffffffffffffffffffffffffffffffffffff168273ffffffffffffffffffffffffffffffffffffffff1603610572575f6040517f64a0ae9200000000000000000000000000000000000000000000000000000000815260040161056991906115d6565b60405180910390fd5b5f6105858383610580610a1e565b610a37565b90508373ffffffffffffffffffffffffffffffffffffffff168173ffffffffffffffffffffffffffffffffffffffff16146105fb578382826040517f64283d7b0000000000000000000000000000000000000000000000000000000081526004016105f293929190611d5d565b60405180910390fd5b50505050565b61060c838383610c42565b505050565b61062b83838360405180602001604052805f81525061079d565b505050565b5f61063a8261095f565b9050919050565b5f8073ffffffffffffffffffffffffffffffffffffffff168273ffffffffffffffffffffffffffffffffffffffff16036106b2575f6040517f89c62b640000000000000000000000000000000000000000000000000000000081526004016106a991906115d6565b60405180910390fd5b60035f8373ffffffffffffffffffffffffffffffffffffffff1673ffffffffffffffffffffffffffffffffffffffff1681526020019081526020015f20549050919050565b60606001805461070690611ac1565b80601f016020809104026020016040519081016040528092919081815260200182805461073290611ac1565b801561077d5780601f106107545761010080835404028352916020019161077d565b820191905f5260205f20905b81548152906001019060200180831161076057829003601f168201915b5050505050905090565b610799610792610a1e565b8383610c42565b5050565b6107a8848484610502565b6107b484848484610dab565b50505050565b606060065f8381526020019081526020015f2080546107d890611ac1565b80601f016020809104026020016040519081016040528092919081815260200182805461080490611ac1565b801561084f5780601f106108265761010080835404028352916020019161084f565b820191905f5260205f20905b81548152906001019060200180831161083257829003601f168201915b50505050509050919050565b5f60055f8473ffffffffffffffffffffffffffffffffffffffff1673ffffffffffffffffffffffffffffffffffffffff1681526020019081526020015f205f8373ffffffffffffffffffffffffffffffffffffffff1673ffffffffffffffffffffffffffffffffffffffff1681526020019081526020015f205f9054906101000a900460ff16905092915050565b6108f33382610f5d565b50565b5f7f01ffc9a7000000000000000000000000000000000000000000000000000000007bffffffffffffffffffffffffffffffffffffffffffffffffffffffff1916827bffffffffffffffffffffffffffffffffffffffffffffffffffffffff1916149050919050565b5f8061096a83611050565b90505f73ffffffffffffffffffffffffffffffffffffffff168173ffffffffffffffffffffffffffffffffffffffff16036109dc57826040517f7e2732890000000000000000000000000000000000000000000000000000000081526004016109d391906118e1565b60405180910390fd5b80915050919050565b5f60045f8381526020019081526020015f205f9054906101000a900473ffffffffffffffffffffffffffffffffffffffff169050919050565b5f33905090565b610a328383836001611089565b505050565b5f80610a4284611050565b90505f73ffffffffffffffffffffffffffffffffffffffff168373ffffffffffffffffffffffffffffffffffffffff1614610a8357610a82818486611248565b5b5f73ffffffffffffffffffffffffffffffffffffffff168173ffffffffffffffffffffffffffffffffffffffff1614610b0e57610ac25f855f80611089565b600160035f8373ffffffffffffffffffffffffffffffffffffffff1673ffffffffffffffffffffffffffffffffffffffff1681526020019081526020015f205f82825403925050819055505b5f73ffffffffffffffffffffffffffffffffffffffff168573ffffffffffffffffffffffffffffffffffffffff1614610b8d57600160035f8773ffffffffffffffffffffffffffffffffffffffff1673ffffffffffffffffffffffffffffffffffffffff1681526020019081526020015f205f82825401925050819055505b8460025f8681526020019081526020015f205f6101000a81548173ffffffffffffffffffffffffffffffffffffffff021916908373ffffffffffffffffffffffffffffffffffffffff160217905550838573ffffffffffffffffffffffffffffffffffffffff168273ffffffffffffffffffffffffffffffffffffffff167fddf252ad1be2c89b69c2b068fc378daa952ba7f163c4a11628f55a4df523b3ef60405160405180910390a4809150509392505050565b5f73ffffffffffffffffffffffffffffffffffffffff168273ffffffffffffffffffffffffffffffffffffffff1603610cb257816040517f5b08ba18000000000000000000000000000000000000000000000000000000008152600401610ca991906115d6565b60405180910390fd5b8060055f8573ffffffffffffffffffffffffffffffffffffffff1673ffffffffffffffffffffffffffffffffffffffff1681526020019081526020015f205f8473ffffffffffffffffffffffffffffffffffffffff1673ffffffffffffffffffffffffffffffffffffffff1681526020019081526020015f205f6101000a81548160ff0219169083151502179055508173ffffffffffffffffffffffffffffffffffffffff168373ffffffffffffffffffffffffffffffffffffffff167f17307eab39ab6107e8899845ad3d59bd9653f200f220920489ca2b5937696c3183604051610d9e9190611476565b60405180910390a3505050565b5f8373ffffffffffffffffffffffffffffffffffffffff163b1115610f57578273ffffffffffffffffffffffffffffffffffffffff1663150b7a02610dee610a1e565b8685856040518563ffffffff1660e01b8152600401610e109493929190611de4565b6020604051808303815f875af1925050508015610e4b57506040513d601f19601f82011682018060405250810190610e489190611e42565b60015b610ecc573d805f8114610e79576040519150601f19603f3d011682016040523d82523d5f602084013e610e7e565b606091505b505f815103610ec457836040517f64a0ae92000000000000000000000000000000000000000000000000000000008152600401610ebb91906115d6565b60405180910390fd5b805181602001fd5b63150b7a0260e01b7bffffffffffffffffffffffffffffffffffffffffffffffffffffffff1916817bffffffffffffffffffffffffffffffffffffffffffffffffffffffff191614610f5557836040517f64a0ae92000000000000000000000000000000000000000000000000000000008152600401610f4c91906115d6565b60405180910390fd5b505b50505050565b5f73ffffffffffffffffffffffffffffffffffffffff168273ffffffffffffffffffffffffffffffffffffffff1603610fcd575f6040517f64a0ae92000000000000000000000000000000000000000000000000000000008152600401610fc491906115d6565b60405180910390fd5b5f610fd983835f610a37565b90505f73ffffffffffffffffffffffffffffffffffffffff168173ffffffffffffffffffffffffffffffffffffffff161461104b575f6040517f73c6ac6e00000000000000000000000000000000000000000000000000000000815260040161104291906115d6565b60405180910390fd5b505050565b5f60025f8381526020019081526020015f205f9054906101000a900473ffffffffffffffffffffffffffffffffffffffff169050919050565b80806110c157505f73ffffffffffffffffffffffffffffffffffffffff168273ffffffffffffffffffffffffffffffffffffffff1614155b156111f3575f6110d08461095f565b90505f73ffffffffffffffffffffffffffffffffffffffff168373ffffffffffffffffffffffffffffffffffffffff161415801561113a57508273ffffffffffffffffffffffffffffffffffffffff168173ffffffffffffffffffffffffffffffffffffffff1614155b801561114d575061114b818461085b565b155b1561118f57826040517fa9fbf51f00000000000000000000000000000000000000000000000000000000815260040161118691906115d6565b60405180910390fd5b81156111f157838573ffffffffffffffffffffffffffffffffffffffff168273ffffffffffffffffffffffffffffffffffffffff167f8c5be1e5ebec7d5bd14f71427d1e84f3dd0314c0f7b2291e5b200ac8c7c3b92560405160405180910390a45b505b8360045f8581526020019081526020015f205f6101000a81548173ffffffffffffffffffffffffffffffffffffffff021916908373ffffffffffffffffffffffffffffffffffffffff16021790555050505050565b61125383838361130b565b611306575f73ffffffffffffffffffffffffffffffffffffffff168373ffffffffffffffffffffffffffffffffffffffff16036112c757806040517f7e2732890000000000000000000000000000000000000000000000000000000081526004016112be91906118e1565b60405180910390fd5b81816040517f177e802f0000000000000000000000000000000000000000000000000000000081526004016112fd929190611e6d565b60405180910390fd5b505050565b5f8073ffffffffffffffffffffffffffffffffffffffff168373ffffffffffffffffffffffffffffffffffffffff16141580156113c257508273ffffffffffffffffffffffffffffffffffffffff168473ffffffffffffffffffffffffffffffffffffffff1614806113835750611382848461085b565b5b806113c157508273ffffffffffffffffffffffffffffffffffffffff166113a9836109e5565b73ffffffffffffffffffffffffffffffffffffffff16145b5b90509392505050565b5f604051905090565b5f80fd5b5f80fd5b5f7fffffffff0000000000000000000000000000000000000000000000000000000082169050919050565b611410816113dc565b811461141a575f80fd5b50565b5f8135905061142b81611407565b92915050565b5f60208284031215611446576114456113d4565b5b5f6114538482850161141d565b91505092915050565b5f8115159050919050565b6114708161145c565b82525050565b5f6020820190506114895f830184611467565b92915050565b5f81519050919050565b5f82825260208201905092915050565b5f5b838110156114c65780820151818401526020810190506114ab565b5f8484015250505050565b5f601f19601f8301169050919050565b5f6114eb8261148f565b6114f58185611499565b93506115058185602086016114a9565b61150e816114d1565b840191505092915050565b5f6020820190508181035f83015261153181846114e1565b905092915050565b5f819050919050565b61154b81611539565b8114611555575f80fd5b50565b5f8135905061156681611542565b92915050565b5f60208284031215611581576115806113d4565b5b5f61158e84828501611558565b91505092915050565b5f73ffffffffffffffffffffffffffffffffffffffff82169050919050565b5f6115c082611597565b9050919050565b6115d0816115b6565b82525050565b5f6020820190506115e95f8301846115c7565b92915050565b6115f8816115b6565b8114611602575f80fd5b50565b5f81359050611613816115ef565b92915050565b5f806040838503121561162f5761162e6113d4565b5b5f61163c85828601611605565b925050602061164d85828601611558565b9150509250929050565b5f80fd5b5f80fd5b7f4e487b71000000000000000000000000000000000000000000000000000000005f52604160045260245ffd5b611695826114d1565b810181811067ffffffffffffffff821117156116b4576116b361165f565b5b80604052505050565b5f6116c66113cb565b90506116d2828261168c565b919050565b5f67ffffffffffffffff8211156116f1576116f061165f565b5b6116fa826114d1565b9050602081019050919050565b828183375f83830152505050565b5f611727611722846116d7565b6116bd565b9050828152602081018484840111156117435761174261165b565b5b61174e848285611707565b509392505050565b5f82601f83011261176a57611769611657565b5b813561177a848260208601611715565b91505092915050565b5f8060408385031215611799576117986113d4565b5b5f6117a685828601611558565b925050602083013567ffffffffffffffff8111156117c7576117c66113d8565b5b6117d385828601611756565b9150509250929050565b5f805f606084860312156117f4576117f36113d4565b5b5f61180186828701611605565b935050602061181286828701611605565b925050604061182386828701611558565b9150509250925092565b6118368161145c565b8114611840575f80fd5b50565b5f813590506118518161182d565b92915050565b5f805f6060848603121561186e5761186d6113d4565b5b5f61187b86828701611605565b935050602061188c86828701611605565b925050604061189d86828701611843565b9150509250925092565b5f602082840312156118bc576118bb6113d4565b5b5f6118c984828501611605565b91505092915050565b6118db81611539565b82525050565b5f6020820190506118f45f8301846118d2565b92915050565b5f80604083850312156119105761190f6113d4565b5b5f61191d85828601611605565b925050602061192e85828601611843565b9150509250929050565b5f67ffffffffffffffff8211156119525761195161165f565b5b61195b826114d1565b9050602081019050919050565b5f61197a61197584611938565b6116bd565b9050828152602081018484840111156119965761199561165b565b5b6119a1848285611707565b509392505050565b5f82601f8301126119bd576119bc611657565b5b81356119cd848260208601611968565b91505092915050565b5f805f80608085870312156119ee576119ed6113d4565b5b5f6119fb87828801611605565b9450506020611a0c87828801611605565b9350506040611a1d87828801611558565b925050606085013567ffffffffffffffff811115611a3e57611a3d6113d8565b5b611a4a878288016119a9565b91505092959194509250565b5f8060408385031215611a6c57611a6b6113d4565b5b5f611a7985828601611605565b9250506020611a8a85828601611605565b9150509250929050565b7f4e487b71000000000000000000000000000000000000000000000000000000005f52602260045260245ffd5b5f6002820490506001821680611ad857607f821691505b602082108103611aeb57611aea611a94565b5b50919050565b5f819050815f5260205f209050919050565b5f6020601f8301049050919050565b5f82821b905092915050565b5f60088302611b4d7fffffffffffffffffffffffffffffffffffffffffffffffffffffffffffffffff82611b12565b611b578683611b12565b95508019841693508086168417925050509392505050565b5f819050919050565b5f611b92611b8d611b8884611539565b611b6f565b611539565b9050919050565b5f819050919050565b611bab83611b78565b611bbf611bb782611b99565b848454611b1e565b825550505050565b5f90565b611bd3611bc7565b611bde818484611ba2565b505050565b5b81811015611c0157611bf65f82611bcb565b600181019050611be4565b5050565b601f821115611c4657611c1781611af1565b611c2084611b03565b81016020851015611c2f578190505b611c43611c3b85611b03565b830182611be3565b50505b505050565b5f82821c905092915050565b5f611c665f1984600802611c4b565b1980831691505092915050565b5f611c7e8383611c57565b9150826002028217905092915050565b611c978261148f565b67ffffffffffffffff811115611cb057611caf61165f565b5b611cba8254611ac1565b611cc5828285611c05565b5f60209050601f831160018114611cf6575f8415611ce4578287015190505b611cee8582611c73565b865550611d55565b601f198416611d0486611af1565b5f5b82811015611d2b57848901518255600182019150602085019450602081019050611d06565b86831015611d485784890151611d44601f891682611c57565b8355505b6001600288020188555050505b505050505050565b5f606082019050611d705f8301866115c7565b611d7d60208301856118d2565b611d8a60408301846115c7565b949350505050565b5f81519050919050565b5f82825260208201905092915050565b5f611db682611d92565b611dc08185611d9c565b9350611dd08185602086016114a9565b611dd9816114d1565b840191505092915050565b5f608082019050611df75f8301876115c7565b611e0460208301866115c7565b611e1160408301856118d2565b8181036060830152611e238184611dac565b905095945050505050565b5f81519050611e3c81611407565b92915050565b5f60208284031215611e5757611e566113d4565b5b5f611e6484828501611e2e565b91505092915050565b5f604082019050611e805f8301856115c7565b611e8d60208301846118d2565b939250505056fea2646970667358221220de6b8e5e212c4d4fd8da0b2d1831f706ef4bc888c43520d908a891618ffb32ec64736f6c63430008140033",
			"opcodes": "PUSH1 0x80 PUSH1 0x40 MSTORE CALLVALUE DUP1 ISZERO PUSH3 0x10 JUMPI PUSH0 DUP1 REVERT JUMPDEST POP PUSH1 0x40 MLOAD PUSH3 0x2460 CODESIZE SUB DUP1 PUSH3 0x2460 DUP4 CODECOPY DUP2 DUP2 ADD PUSH1 0x40 MSTORE DUP2 ADD SWAP1 PUSH3 0x36 SWAP2 SWAP1 PUSH3 0x1EA JUMP JUMPDEST DUP2 DUP2 DUP2 PUSH0 SWAP1 DUP2 PUSH3 0x48 SWAP2 SWAP1 PUSH3 0x4A4 JUMP JUMPDEST POP DUP1 PUSH1 0x1 SWAP1 DUP2 PUSH3 0x5A SWAP2 SWAP1 PUSH3 0x4A4 JUMP JUMPDEST POP POP POP POP POP PUSH3 0x588 JUMP JUMPDEST PUSH0 PUSH1 0x40 MLOAD SWAP1 POP SWAP1 JUMP JUMPDEST PUSH0 DUP1 REVERT JUMPDEST PUSH0 DUP1 REVERT JUMPDEST PUSH0 DUP1 REVERT JUMPDEST PUSH0 DUP1 REVERT JUMPDEST PUSH0 PUSH1 0x1F NOT PUSH1 0x1F DUP4 ADD AND SWAP1 POP SWAP2 SWAP1 POP JUMP JUMPDEST PUSH32 0x4E487B7100000000000000000000000000000000000000000000000000000000 PUSH0 MSTORE PUSH1 0x41 PUSH1 0x4 MSTORE PUSH1 0x24 PUSH0 REVERT JUMPDEST PUSH3 0xC6 DUP3 PUSH3 0x7E JUMP JUMPDEST DUP2 ADD DUP2 DUP2 LT PUSH8 0xFFFFFFFFFFFFFFFF DUP3 GT OR ISZERO PUSH3 0xE8 JUMPI PUSH3 0xE7 PUSH3 0x8E JUMP JUMPDEST JUMPDEST DUP1 PUSH1 0x40 MSTORE POP POP POP JUMP JUMPDEST PUSH0 PUSH3 0xFC PUSH3 0x65 JUMP JUMPDEST SWAP1 POP PUSH3 0x10A DUP3 DUP3 PUSH3 0xBB JUMP JUMPDEST SWAP2 SWAP1 POP JUMP JUMPDEST PUSH0 PUSH8 0xFFFFFFFFFFFFFFFF DUP3 GT ISZERO PUSH3 0x12C JUMPI PUSH3 0x12B PUSH3 0x8E JUMP JUMPDEST JUMPDEST PUSH3 0x137 DUP3 PUSH3 0x7E JUMP JUMPDEST SWAP1 POP PUSH1 0x20 DUP2 ADD SWAP1 POP SWAP2 SWAP1 POP JUMP JUMPDEST PUSH0 JUMPDEST DUP4 DUP2 LT ISZERO PUSH3 0x163 JUMPI DUP1 DUP3 ADD MLOAD DUP2 DUP5 ADD MSTORE PUSH1 0x20 DUP2 ADD SWAP1 POP PUSH3 0x146 JUMP JUMPDEST PUSH0 DUP5 DUP5 ADD MSTORE POP POP POP POP JUMP JUMPDEST PUSH0 PUSH3 0x184 PUSH3 0x17E DUP5 PUSH3 0x10F JUMP JUMPDEST PUSH3 0xF1 JUMP JUMPDEST SWAP1 POP DUP3 DUP2 MSTORE PUSH1 0x20 DUP2 ADD DUP5 DUP5 DUP5 ADD GT ISZERO PUSH3 0x1A3 JUMPI PUSH3 0x1A2 PUSH3 0x7A JUMP JUMPDEST JUMPDEST PUSH3 0x1B0 DUP5 DUP3 DUP6 PUSH3 0x144 JUMP JUMPDEST POP SWAP4 SWAP3 POP POP POP JUMP JUMPDEST PUSH0 DUP3 PUSH1 0x1F DUP4 ADD SLT PUSH3 0x1CF JUMPI PUSH3 0x1CE PUSH3 0x76 JUMP JUMPDEST JUMPDEST DUP2 MLOAD PUSH3 0x1E1 DUP5 DUP3 PUSH1 0x20 DUP7 ADD PUSH3 0x16E JUMP JUMPDEST SWAP2 POP POP SWAP3 SWAP2 POP POP JUMP JUMPDEST PUSH0 DUP1 PUSH1 0x40 DUP4 DUP6 SUB SLT ISZERO PUSH3 0x203 JUMPI PUSH3 0x202 PUSH3 0x6E JUMP JUMPDEST JUMPDEST PUSH0 DUP4 ADD MLOAD PUSH8 0xFFFFFFFFFFFFFFFF DUP2 GT ISZERO PUSH3 0x223 JUMPI PUSH3 0x222 PUSH3 0x72 JUMP JUMPDEST JUMPDEST PUSH3 0x231 DUP6 DUP3 DUP7 ADD PUSH3 0x1B8 JUMP JUMPDEST SWAP3 POP POP PUSH1 0x20 DUP4 ADD MLOAD PUSH8 0xFFFFFFFFFFFFFFFF DUP2 GT ISZERO PUSH3 0x255 JUMPI PUSH3 0x254 PUSH3 0x72 JUMP JUMPDEST JUMPDEST PUSH3 0x263 DUP6 DUP3 DUP7 ADD PUSH3 0x1B8 JUMP JUMPDEST SWAP2 POP POP SWAP3 POP SWAP3 SWAP1 POP JUMP JUMPDEST PUSH0 DUP2 MLOAD SWAP1 POP SWAP2 SWAP1 POP JUMP JUMPDEST PUSH32 0x4E487B7100000000000000000000000000000000000000000000000000000000 PUSH0 MSTORE PUSH1 0x22 PUSH1 0x4 MSTORE PUSH1 0x24 PUSH0 REVERT JUMPDEST PUSH0 PUSH1 0x2 DUP3 DIV SWAP1 POP PUSH1 0x1 DUP3 AND DUP1 PUSH3 0x2BC JUMPI PUSH1 0x7F DUP3 AND SWAP2 POP JUMPDEST PUSH1 0x20 DUP3 LT DUP2 SUB PUSH3 0x2D2 JUMPI PUSH3 0x2D1 PUSH3 0x277 JUMP JUMPDEST JUMPDEST POP SWAP2 SWAP1 POP JUMP JUMPDEST PUSH0 DUP2 SWAP1 POP DUP2 PUSH0 MSTORE PUSH1 0x20 PUSH0 KECCAK256 SWAP1 POP SWAP2 SWAP1 POP JUMP JUMPDEST PUSH0 PUSH1 0x20 PUSH1 0x1F DUP4 ADD DIV SWAP1 POP SWAP2 SWAP1 POP JUMP JUMPDEST PUSH0 DUP3 DUP3 SHL SWAP1 POP SWAP3 SWAP2 POP POP JUMP JUMPDEST PUSH0 PUSH1 0x8 DUP4 MUL PUSH3 0x336 PUSH32 0xFFFFFFFFFFFFFFFFFFFFFFFFFFFFFFFFFFFFFFFFFFFFFFFFFFFFFFFFFFFFFFFF DUP3 PUSH3 0x2F9 JUMP JUMPDEST PUSH3 0x342 DUP7 DUP4 PUSH3 0x2F9 JUMP JUMPDEST SWAP6 POP DUP1 NOT DUP5 AND SWAP4 POP DUP1 DUP7 AND DUP5 OR SWAP3 POP POP POP SWAP4 SWAP3 POP POP POP JUMP JUMPDEST PUSH0 DUP2 SWAP1 POP SWAP2 SWAP1 POP JUMP JUMPDEST PUSH0 DUP2 SWAP1 POP SWAP2 SWAP1 POP JUMP JUMPDEST PUSH0 PUSH3 0x38C PUSH3 0x386 PUSH3 0x380 DUP5 PUSH3 0x35A JUMP JUMPDEST PUSH3 0x363 JUMP JUMPDEST PUSH3 0x35A JUMP JUMPDEST SWAP1 POP SWAP2 SWAP1 POP JUMP JUMPDEST PUSH0 DUP2 SWAP1 POP SWAP2 SWAP1 POP JUMP JUMPDEST PUSH3 0x3A7 DUP4 PUSH3 0x36C JUMP JUMPDEST PUSH3 0x3BF PUSH3 0x3B6 DUP3 PUSH3 0x393 JUMP JUMPDEST DUP5 DUP5 SLOAD PUSH3 0x305 JUMP JUMPDEST DUP3 SSTORE POP POP POP POP JUMP JUMPDEST PUSH0 SWAP1 JUMP JUMPDEST PUSH3 0x3D5 PUSH3 0x3C7 JUMP JUMPDEST PUSH3 0x3E2 DUP2 DUP5 DUP5 PUSH3 0x39C JUMP JUMPDEST POP POP POP JUMP JUMPDEST JUMPDEST DUP2 DUP2 LT ISZERO PUSH3 0x409 JUMPI PUSH3 0x3FD PUSH0 DUP3 PUSH3 0x3CB JUMP JUMPDEST PUSH1 0x1 DUP2 ADD SWAP1 POP PUSH3 0x3E8 JUMP JUMPDEST POP POP JUMP JUMPDEST PUSH1 0x1F DUP3 GT ISZERO PUSH3 0x458 JUMPI PUSH3 0x422 DUP2 PUSH3 0x2D8 JUMP JUMPDEST PUSH3 0x42D DUP5 PUSH3 0x2EA JUMP JUMPDEST DUP2 ADD PUSH1 0x20 DUP6 LT ISZERO PUSH3 0x43D JUMPI DUP2 SWAP1 POP JUMPDEST PUSH3 0x455 PUSH3 0x44C DUP6 PUSH3 0x2EA JUMP JUMPDEST DUP4 ADD DUP3 PUSH3 0x3E7 JUMP JUMPDEST POP POP JUMPDEST POP POP POP JUMP JUMPDEST PUSH0 DUP3 DUP3 SHR SWAP1 POP SWAP3 SWAP2 POP POP JUMP JUMPDEST PUSH0 PUSH3 0x47A PUSH0 NOT DUP5 PUSH1 0x8 MUL PUSH3 0x45D JUMP JUMPDEST NOT DUP1 DUP4 AND SWAP2 POP POP SWAP3 SWAP2 POP POP JUMP JUMPDEST PUSH0 PUSH3 0x494 DUP4 DUP4 PUSH3 0x469 JUMP JUMPDEST SWAP2 POP DUP3 PUSH1 0x2 MUL DUP3 OR SWAP1 POP SWAP3 SWAP2 POP POP JUMP JUMPDEST PUSH3 0x4AF DUP3 PUSH3 0x26D JUMP JUMPDEST PUSH8 0xFFFFFFFFFFFFFFFF DUP2 GT ISZERO PUSH3 0x4CB JUMPI PUSH3 0x4CA PUSH3 0x8E JUMP JUMPDEST JUMPDEST PUSH3 0x4D7 DUP3 SLOAD PUSH3 0x2A4 JUMP JUMPDEST PUSH3 0x4E4 DUP3 DUP3 DUP6 PUSH3 0x40D JUMP JUMPDEST PUSH0 PUSH1 0x20 SWAP1 POP PUSH1 0x1F DUP4 GT PUSH1 0x1 DUP2 EQ PUSH3 0x51A JUMPI PUSH0 DUP5 ISZERO PUSH3 0x505 JUMPI DUP3 DUP8 ADD MLOAD SWAP1 POP JUMPDEST PUSH3 0x511 DUP6 DUP3 PUSH3 0x487 JUMP JUMPDEST DUP7 SSTORE POP PUSH3 0x580 JUMP JUMPDEST PUSH1 0x1F NOT DUP5 AND PUSH3 0x52A DUP7 PUSH3 0x2D8 JUMP JUMPDEST PUSH0 JUMPDEST DUP3 DUP2 LT ISZERO PUSH3 0x553 JUMPI DUP5 DUP10 ADD MLOAD DUP3 SSTORE PUSH1 0x1 DUP3 ADD SWAP2 POP PUSH1 0x20 DUP6 ADD SWAP5 POP PUSH1 0x20 DUP2 ADD SWAP1 POP PUSH3 0x52C JUMP JUMPDEST DUP7 DUP4 LT ISZERO PUSH3 0x573 JUMPI DUP5 DUP10 ADD MLOAD PUSH3 0x56F PUSH1 0x1F DUP10 AND DUP3 PUSH3 0x469 JUMP JUMPDEST DUP4 SSTORE POP JUMPDEST PUSH1 0x1 PUSH1 0x2 DUP9 MUL ADD DUP9 SSTORE POP POP POP JUMPDEST POP POP POP POP POP POP JUMP JUMPDEST PUSH2 0x1ECA DUP1 PUSH3 0x596 PUSH0 CODECOPY PUSH0 RETURN INVALID PUSH1 0x80 PUSH1 0x40 MSTORE CALLVALUE DUP1 ISZERO PUSH2 0xF JUMPI PUSH0 DUP1 REVERT JUMPDEST POP PUSH1 0x4 CALLDATASIZE LT PUSH2 0xFE JUMPI PUSH0 CALLDATALOAD PUSH1 0xE0 SHR DUP1 PUSH4 0x6352211E GT PUSH2 0x95 JUMPI DUP1 PUSH4 0xB88D4FDE GT PUSH2 0x64 JUMPI DUP1 PUSH4 0xB88D4FDE EQ PUSH2 0x2A6 JUMPI DUP1 PUSH4 0xC87B56DD EQ PUSH2 0x2C2 JUMPI DUP1 PUSH4 0xE985E9C5 EQ PUSH2 0x2F2 JUMPI DUP1 PUSH4 0xF2CEE92B EQ PUSH2 0x322 JUMPI PUSH2 0xFE JUMP JUMPDEST DUP1 PUSH4 0x6352211E EQ PUSH2 0x20C JUMPI DUP1 PUSH4 0x70A08231 EQ PUSH2 0x23C JUMPI DUP1 PUSH4 0x95D89B41 EQ PUSH2 0x26C JUMPI DUP1 PUSH4 0xA22CB465 EQ PUSH2 0x28A JUMPI PUSH2 0xFE JUMP JUMPDEST DUP1 PUSH4 0x162094C4 GT PUSH2 0xD1 JUMPI DUP1 PUSH4 0x162094C4 EQ PUSH2 0x19C JUMPI DUP1 PUSH4 0x23B872DD EQ PUSH2 0x1B8 JUMPI DUP1 PUSH4 0x29D6724E EQ PUSH2 0x1D4 JUMPI DUP1 PUSH4 0x42842E0E EQ PUSH2 0x1F0 JUMPI PUSH2 0xFE JUMP JUMPDEST DUP1 PUSH4 0x1FFC9A7 EQ PUSH2 0x102 JUMPI DUP1 PUSH4 0x6FDDE03 EQ PUSH2 0x132 JUMPI DUP1 PUSH4 0x81812FC EQ PUSH2 0x150 JUMPI DUP1 PUSH4 0x95EA7B3 EQ PUSH2 0x180 JUMPI JUMPDEST PUSH0 DUP1 REVERT JUMPDEST PUSH2 0x11C PUSH1 0x4 DUP1 CALLDATASIZE SUB DUP2 ADD SWAP1 PUSH2 0x117 SWAP2 SWAP1 PUSH2 0x1431 JUMP JUMPDEST PUSH2 0x33E JUMP JUMPDEST PUSH1 0x40 MLOAD PUSH2 0x129 SWAP2 SWAP1 PUSH2 0x1476 JUMP JUMPDEST PUSH1 0x40 MLOAD DUP1 SWAP2 SUB SWAP1 RETURN JUMPDEST PUSH2 0x13A PUSH2 0x41F JUMP JUMPDEST PUSH1 0x40 MLOAD PUSH2 0x147 SWAP2 SWAP1 PUSH2 0x1519 JUMP JUMPDEST PUSH1 0x40 MLOAD DUP1 SWAP2 SUB SWAP1 RETURN JUMPDEST PUSH2 0x16A PUSH1 0x4 DUP1 CALLDATASIZE SUB DUP2 ADD SWAP1 PUSH2 0x165 SWAP2 SWAP1 PUSH2 0x156C JUMP JUMPDEST PUSH2 0x4AE JUMP JUMPDEST PUSH1 0x40 MLOAD PUSH2 0x177 SWAP2 SWAP1 PUSH2 0x15D6 JUMP JUMPDEST PUSH1 0x40 MLOAD DUP1 SWAP2 SUB SWAP1 RETURN JUMPDEST PUSH2 0x19A PUSH1 0x4 DUP1 CALLDATASIZE SUB DUP2 ADD SWAP1 PUSH2 0x195 SWAP2 SWAP1 PUSH2 0x1619 JUMP JUMPDEST PUSH2 0x4C9 JUMP JUMPDEST STOP JUMPDEST PUSH2 0x1B6 PUSH1 0x4 DUP1 CALLDATASIZE SUB DUP2 ADD SWAP1 PUSH2 0x1B1 SWAP2 SWAP1 PUSH2 0x1783 JUMP JUMPDEST PUSH2 0x4DF JUMP JUMPDEST STOP JUMPDEST PUSH2 0x1D2 PUSH1 0x4 DUP1 CALLDATASIZE SUB DUP2 ADD SWAP1 PUSH2 0x1CD SWAP2 SWAP1 PUSH2 0x17DD JUMP JUMPDEST PUSH2 0x502 JUMP JUMPDEST STOP JUMPDEST PUSH2 0x1EE PUSH1 0x4 DUP1 CALLDATASIZE SUB DUP2 ADD SWAP1 PUSH2 0x1E9 SWAP2 SWAP1 PUSH2 0x1857 JUMP JUMPDEST PUSH2 0x601 JUMP JUMPDEST STOP JUMPDEST PUSH2 0x20A PUSH1 0x4 DUP1 CALLDATASIZE SUB DUP2 ADD SWAP1 PUSH2 0x205 SWAP2 SWAP1 PUSH2 0x17DD JUMP JUMPDEST PUSH2 0x611 JUMP JUMPDEST STOP JUMPDEST PUSH2 0x226 PUSH1 0x4 DUP1 CALLDATASIZE SUB DUP2 ADD SWAP1 PUSH2 0x221 SWAP2 SWAP1 PUSH2 0x156C JUMP JUMPDEST PUSH2 0x630 JUMP JUMPDEST PUSH1 0x40 MLOAD PUSH2 0x233 SWAP2 SWAP1 PUSH2 0x15D6 JUMP JUMPDEST PUSH1 0x40 MLOAD DUP1 SWAP2 SUB SWAP1 RETURN JUMPDEST PUSH2 0x256 PUSH1 0x4 DUP1 CALLDATASIZE SUB DUP2 ADD SWAP1 PUSH2 0x251 SWAP2 SWAP1 PUSH2 0x18A7 JUMP JUMPDEST PUSH2 0x641 JUMP JUMPDEST PUSH1 0x40 MLOAD PUSH2 0x263 SWAP2 SWAP1 PUSH2 0x18E1 JUMP JUMPDEST PUSH1 0x40 MLOAD DUP1 SWAP2 SUB SWAP1 RETURN JUMPDEST PUSH2 0x274 PUSH2 0x6F7 JUMP JUMPDEST PUSH1 0x40 MLOAD PUSH2 0x281 SWAP2 SWAP1 PUSH2 0x1519 JUMP JUMPDEST PUSH1 0x40 MLOAD DUP1 SWAP2 SUB SWAP1 RETURN JUMPDEST PUSH2 0x2A4 PUSH1 0x4 DUP1 CALLDATASIZE SUB DUP2 ADD SWAP1 PUSH2 0x29F SWAP2 SWAP1 PUSH2 0x18FA JUMP JUMPDEST PUSH2 0x787 JUMP JUMPDEST STOP JUMPDEST PUSH2 0x2C0 PUSH1 0x4 DUP1 CALLDATASIZE SUB DUP2 ADD SWAP1 PUSH2 0x2BB SWAP2 SWAP1 PUSH2 0x19D6 JUMP JUMPDEST PUSH2 0x79D JUMP JUMPDEST STOP JUMPDEST PUSH2 0x2DC PUSH1 0x4 DUP1 CALLDATASIZE SUB DUP2 ADD SWAP1 PUSH2 0x2D7 SWAP2 SWAP1 PUSH2 0x156C JUMP JUMPDEST PUSH2 0x7BA JUMP JUMPDEST PUSH1 0x40 MLOAD PUSH2 0x2E9 SWAP2 SWAP1 PUSH2 0x1519 JUMP JUMPDEST PUSH1 0x40 MLOAD DUP1 SWAP2 SUB SWAP1 RETURN JUMPDEST PUSH2 0x30C PUSH1 0x4 DUP1 CALLDATASIZE SUB DUP2 ADD SWAP1 PUSH2 0x307 SWAP2 SWAP1 PUSH2 0x1A56 JUMP JUMPDEST PUSH2 0x85B JUMP JUMPDEST PUSH1 0x40 MLOAD PUSH2 0x319 SWAP2 SWAP1 PUSH2 0x1476 JUMP JUMPDEST PUSH1 0x40 MLOAD DUP1 SWAP2 SUB SWAP1 RETURN JUMPDEST PUSH2 0x33C PUSH1 0x4 DUP1 CALLDATASIZE SUB DUP2 ADD SWAP1 PUSH2 0x337 SWAP2 SWAP1 PUSH2 0x156C JUMP JUMPDEST PUSH2 0x8E9 JUMP JUMPDEST STOP JUMPDEST PUSH0 PUSH32 0x80AC58CD00000000000000000000000000000000000000000000000000000000 PUSH28 0xFFFFFFFFFFFFFFFFFFFFFFFFFFFFFFFFFFFFFFFFFFFFFFFFFFFFFFFF NOT AND DUP3 PUSH28 0xFFFFFFFFFFFFFFFFFFFFFFFFFFFFFFFFFFFFFFFFFFFFFFFFFFFFFFFF NOT AND EQ DUP1 PUSH2 0x408 JUMPI POP PUSH32 0x5B5E139F00000000000000000000000000000000000000000000000000000000 PUSH28 0xFFFFFFFFFFFFFFFFFFFFFFFFFFFFFFFFFFFFFFFFFFFFFFFFFFFFFFFF NOT AND DUP3 PUSH28 0xFFFFFFFFFFFFFFFFFFFFFFFFFFFFFFFFFFFFFFFFFFFFFFFFFFFFFFFF NOT AND EQ JUMPDEST DUP1 PUSH2 0x418 JUMPI POP PUSH2 0x417 DUP3 PUSH2 0x8F6 JUMP JUMPDEST JUMPDEST SWAP1 POP SWAP2 SWAP1 POP JUMP JUMPDEST PUSH1 0x60 PUSH0 DUP1 SLOAD PUSH2 0x42D SWAP1 PUSH2 0x1AC1 JUMP JUMPDEST DUP1 PUSH1 0x1F ADD PUSH1 0x20 DUP1 SWAP2 DIV MUL PUSH1 0x20 ADD PUSH1 0x40 MLOAD SWAP1 DUP2 ADD PUSH1 0x40 MSTORE DUP1 SWAP3 SWAP2 SWAP1 DUP2 DUP2 MSTORE PUSH1 0x20 ADD DUP3 DUP1 SLOAD PUSH2 0x459 SWAP1 PUSH2 0x1AC1 JUMP JUMPDEST DUP1 ISZERO PUSH2 0x4A4 JUMPI DUP1 PUSH1 0x1F LT PUSH2 0x47B JUMPI PUSH2 0x100 DUP1 DUP4 SLOAD DIV MUL DUP4 MSTORE SWAP2 PUSH1 0x20 ADD SWAP2 PUSH2 0x4A4 JUMP JUMPDEST DUP3 ADD SWAP2 SWAP1 PUSH0 MSTORE PUSH1 0x20 PUSH0 KECCAK256 SWAP1 JUMPDEST DUP2 SLOAD DUP2 MSTORE SWAP1 PUSH1 0x1 ADD SWAP1 PUSH1 0x20 ADD DUP1 DUP4 GT PUSH2 0x487 JUMPI DUP3 SWAP1 SUB PUSH1 0x1F AND DUP3 ADD SWAP2 JUMPDEST POP POP POP POP POP SWAP1 POP SWAP1 JUMP JUMPDEST PUSH0 PUSH2 0x4B8 DUP3 PUSH2 0x95F JUMP JUMPDEST POP PUSH2 0x4C2 DUP3 PUSH2 0x9E5 JUMP JUMPDEST SWAP1 POP SWAP2 SWAP1 POP JUMP JUMPDEST PUSH2 0x4DB DUP3 DUP3 PUSH2 0x4D6 PUSH2 0xA1E JUMP JUMPDEST PUSH2 0xA25 JUMP JUMPDEST POP POP JUMP JUMPDEST DUP1 PUSH1 0x6 PUSH0 DUP5 DUP2 MSTORE PUSH1 0x20 ADD SWAP1 DUP2 MSTORE PUSH1 0x20 ADD PUSH0 KECCAK256 SWAP1 DUP2 PUSH2 0x4FD SWAP2 SWAP1 PUSH2 0x1C8E JUMP JUMPDEST POP POP POP JUMP JUMPDEST PUSH0 PUSH20 0xFFFFFFFFFFFFFFFFFFFFFFFFFFFFFFFFFFFFFFFF AND DUP3 PUSH20 0xFFFFFFFFFFFFFFFFFFFFFFFFFFFFFFFFFFFFFFFF AND SUB PUSH2 0x572 JUMPI PUSH0 PUSH1 0x40 MLOAD PUSH32 0x64A0AE9200000000000000000000000000000000000000000000000000000000 DUP2 MSTORE PUSH1 0x4 ADD PUSH2 0x569 SWAP2 SWAP1 PUSH2 0x15D6 JUMP JUMPDEST PUSH1 0x40 MLOAD DUP1 SWAP2 SUB SWAP1 REVERT JUMPDEST PUSH0 PUSH2 0x585 DUP4 DUP4 PUSH2 0x580 PUSH2 0xA1E JUMP JUMPDEST PUSH2 0xA37 JUMP JUMPDEST SWAP1 POP DUP4 PUSH20 0xFFFFFFFFFFFFFFFFFFFFFFFFFFFFFFFFFFFFFFFF AND DUP2 PUSH20 0xFFFFFFFFFFFFFFFFFFFFFFFFFFFFFFFFFFFFFFFF AND EQ PUSH2 0x5FB JUMPI DUP4 DUP3 DUP3 PUSH1 0x40 MLOAD PUSH32 0x64283D7B00000000000000000000000000000000000000000000000000000000 DUP2 MSTORE PUSH1 0x4 ADD PUSH2 0x5F2 SWAP4 SWAP3 SWAP2 SWAP1 PUSH2 0x1D5D JUMP JUMPDEST PUSH1 0x40 MLOAD DUP1 SWAP2 SUB SWAP1 REVERT JUMPDEST POP POP POP POP JUMP JUMPDEST PUSH2 0x60C DUP4 DUP4 DUP4 PUSH2 0xC42 JUMP JUMPDEST POP POP POP JUMP JUMPDEST PUSH2 0x62B DUP4 DUP4 DUP4 PUSH1 0x40 MLOAD DUP1 PUSH1 0x20 ADD PUSH1 0x40 MSTORE DUP1 PUSH0 DUP2 MSTORE POP PUSH2 0x79D JUMP JUMPDEST POP POP POP JUMP JUMPDEST PUSH0 PUSH2 0x63A DUP3 PUSH2 0x95F JUMP JUMPDEST SWAP1 POP SWAP2 SWAP1 POP JUMP JUMPDEST PUSH0 DUP1 PUSH20 0xFFFFFFFFFFFFFFFFFFFFFFFFFFFFFFFFFFFFFFFF AND DUP3 PUSH20 0xFFFFFFFFFFFFFFFFFFFFFFFFFFFFFFFFFFFFFFFF AND SUB PUSH2 0x6B2 JUMPI PUSH0 PUSH1 0x40 MLOAD PUSH32 0x89C62B6400000000000000000000000000000000000000000000000000000000 DUP2 MSTORE PUSH1 0x4 ADD PUSH2 0x6A9 SWAP2 SWAP1 PUSH2 0x15D6 JUMP JUMPDEST PUSH1 0x40 MLOAD DUP1 SWAP2 SUB SWAP1 REVERT JUMPDEST PUSH1 0x3 PUSH0 DUP4 PUSH20 0xFFFFFFFFFFFFFFFFFFFFFFFFFFFFFFFFFFFFFFFF AND PUSH20 0xFFFFFFFFFFFFFFFFFFFFFFFFFFFFFFFFFFFFFFFF AND DUP2 MSTORE PUSH1 0x20 ADD SWAP1 DUP2 MSTORE PUSH1 0x20 ADD PUSH0 KECCAK256 SLOAD SWAP1 POP SWAP2 SWAP1 POP JUMP JUMPDEST PUSH1 0x60 PUSH1 0x1 DUP1 SLOAD PUSH2 0x706 SWAP1 PUSH2 0x1AC1 JUMP JUMPDEST DUP1 PUSH1 0x1F ADD PUSH1 0x20 DUP1 SWAP2 DIV MUL PUSH1 0x20 ADD PUSH1 0x40 MLOAD SWAP1 DUP2 ADD PUSH1 0x40 MSTORE DUP1 SWAP3 SWAP2 SWAP1 DUP2 DUP2 MSTORE PUSH1 0x20 ADD DUP3 DUP1 SLOAD PUSH2 0x732 SWAP1 PUSH2 0x1AC1 JUMP JUMPDEST DUP1 ISZERO PUSH2 0x77D JUMPI DUP1 PUSH1 0x1F LT PUSH2 0x754 JUMPI PUSH2 0x100 DUP1 DUP4 SLOAD DIV MUL DUP4 MSTORE SWAP2 PUSH1 0x20 ADD SWAP2 PUSH2 0x77D JUMP JUMPDEST DUP3 ADD SWAP2 SWAP1 PUSH0 MSTORE PUSH1 0x20 PUSH0 KECCAK256 SWAP1 JUMPDEST DUP2 SLOAD DUP2 MSTORE SWAP1 PUSH1 0x1 ADD SWAP1 PUSH1 0x20 ADD DUP1 DUP4 GT PUSH2 0x760 JUMPI DUP3 SWAP1 SUB PUSH1 0x1F AND DUP3 ADD SWAP2 JUMPDEST POP POP POP POP POP SWAP1 POP SWAP1 JUMP JUMPDEST PUSH2 0x799 PUSH2 0x792 PUSH2 0xA1E JUMP JUMPDEST DUP4 DUP4 PUSH2 0xC42 JUMP JUMPDEST POP POP JUMP JUMPDEST PUSH2 0x7A8 DUP5 DUP5 DUP5 PUSH2 0x502 JUMP JUMPDEST PUSH2 0x7B4 DUP5 DUP5 DUP5 DUP5 PUSH2 0xDAB JUMP JUMPDEST POP POP POP POP JUMP JUMPDEST PUSH1 0x60 PUSH1 0x6 PUSH0 DUP4 DUP2 MSTORE PUSH1 0x20 ADD SWAP1 DUP2 MSTORE PUSH1 0x20 ADD PUSH0 KECCAK256 DUP1 SLOAD PUSH2 0x7D8 SWAP1 PUSH2 0x1AC1 JUMP JUMPDEST DUP1 PUSH1 0x1F ADD PUSH1 0x20 DUP1 SWAP2 DIV MUL PUSH1 0x20 ADD PUSH1 0x40 MLOAD SWAP1 DUP2 ADD PUSH1 0x40 MSTORE DUP1 SWAP3 SWAP2 SWAP1 DUP2 DUP2 MSTORE PUSH1 0x20 ADD DUP3 DUP1 SLOAD PUSH2 0x804 SWAP1 PUSH2 0x1AC1 JUMP JUMPDEST DUP1 ISZERO PUSH2 0x84F JUMPI DUP1 PUSH1 0x1F LT PUSH2 0x826 JUMPI PUSH2 0x100 DUP1 DUP4 SLOAD DIV MUL DUP4 MSTORE SWAP2 PUSH1 0x20 ADD SWAP2 PUSH2 0x84F JUMP JUMPDEST DUP3 ADD SWAP2 SWAP1 PUSH0 MSTORE PUSH1 0x20 PUSH0 KECCAK256 SWAP1 JUMPDEST DUP2 SLOAD DUP2 MSTORE SWAP1 PUSH1 0x1 ADD SWAP1 PUSH1 0x20 ADD DUP1 DUP4 GT PUSH2 0x832 JUMPI DUP3 SWAP1 SUB PUSH1 0x1F AND DUP3 ADD SWAP2 JUMPDEST POP POP POP POP POP SWAP1 POP SWAP2 SWAP1 POP JUMP JUMPDEST PUSH0 PUSH1 0x5 PUSH0 DUP5 PUSH20 0xFFFFFFFFFFFFFFFFFFFFFFFFFFFFFFFFFFFFFFFF AND PUSH20 0xFFFFFFFFFFFFFFFFFFFFFFFFFFFFFFFFFFFFFFFF AND DUP2 MSTORE PUSH1 0x20 ADD SWAP1 DUP2 MSTORE PUSH1 0x20 ADD PUSH0 KECCAK256 PUSH0 DUP4 PUSH20 0xFFFFFFFFFFFFFFFFFFFFFFFFFFFFFFFFFFFFFFFF AND PUSH20 0xFFFFFFFFFFFFFFFFFFFFFFFFFFFFFFFFFFFFFFFF AND DUP2 MSTORE PUSH1 0x20 ADD SWAP1 DUP2 MSTORE PUSH1 0x20 ADD PUSH0 KECCAK256 PUSH0 SWAP1 SLOAD SWAP1 PUSH2 0x100 EXP SWAP1 DIV PUSH1 0xFF AND SWAP1 POP SWAP3 SWAP2 POP POP JUMP JUMPDEST PUSH2 0x8F3 CALLER DUP3 PUSH2 0xF5D JUMP JUMPDEST POP JUMP JUMPDEST PUSH0 PUSH32 0x1FFC9A700000000000000000000000000000000000000000000000000000000 PUSH28 0xFFFFFFFFFFFFFFFFFFFFFFFFFFFFFFFFFFFFFFFFFFFFFFFFFFFFFFFF NOT AND DUP3 PUSH28 0xFFFFFFFFFFFFFFFFFFFFFFFFFFFFFFFFFFFFFFFFFFFFFFFFFFFFFFFF NOT AND EQ SWAP1 POP SWAP2 SWAP1 POP JUMP JUMPDEST PUSH0 DUP1 PUSH2 0x96A DUP4 PUSH2 0x1050 JUMP JUMPDEST SWAP1 POP PUSH0 PUSH20 0xFFFFFFFFFFFFFFFFFFFFFFFFFFFFFFFFFFFFFFFF AND DUP2 PUSH20 0xFFFFFFFFFFFFFFFFFFFFFFFFFFFFFFFFFFFFFFFF AND SUB PUSH2 0x9DC JUMPI DUP3 PUSH1 0x40 MLOAD PUSH32 0x7E27328900000000000000000000000000000000000000000000000000000000 DUP2 MSTORE PUSH1 0x4 ADD PUSH2 0x9D3 SWAP2 SWAP1 PUSH2 0x18E1 JUMP JUMPDEST PUSH1 0x40 MLOAD DUP1 SWAP2 SUB SWAP1 REVERT JUMPDEST DUP1 SWAP2 POP POP SWAP2 SWAP1 POP JUMP JUMPDEST PUSH0 PUSH1 0x4 PUSH0 DUP4 DUP2 MSTORE PUSH1 0x20 ADD SWAP1 DUP2 MSTORE PUSH1 0x20 ADD PUSH0 KECCAK256 PUSH0 SWAP1 SLOAD SWAP1 PUSH2 0x100 EXP SWAP1 DIV PUSH20 0xFFFFFFFFFFFFFFFFFFFFFFFFFFFFFFFFFFFFFFFF AND SWAP1 POP SWAP2 SWAP1 POP JUMP JUMPDEST PUSH0 CALLER SWAP1 POP SWAP1 JUMP JUMPDEST PUSH2 0xA32 DUP4 DUP4 DUP4 PUSH1 0x1 PUSH2 0x1089 JUMP JUMPDEST POP POP POP JUMP JUMPDEST PUSH0 DUP1 PUSH2 0xA42 DUP5 PUSH2 0x1050 JUMP JUMPDEST SWAP1 POP PUSH0 PUSH20 0xFFFFFFFFFFFFFFFFFFFFFFFFFFFFFFFFFFFFFFFF AND DUP4 PUSH20 0xFFFFFFFFFFFFFFFFFFFFFFFFFFFFFFFFFFFFFFFF AND EQ PUSH2 0xA83 JUMPI PUSH2 0xA82 DUP2 DUP5 DUP7 PUSH2 0x1248 JUMP JUMPDEST JUMPDEST PUSH0 PUSH20 0xFFFFFFFFFFFFFFFFFFFFFFFFFFFFFFFFFFFFFFFF AND DUP2 PUSH20 0xFFFFFFFFFFFFFFFFFFFFFFFFFFFFFFFFFFFFFFFF AND EQ PUSH2 0xB0E JUMPI PUSH2 0xAC2 PUSH0 DUP6 PUSH0 DUP1 PUSH2 0x1089 JUMP JUMPDEST PUSH1 0x1 PUSH1 0x3 PUSH0 DUP4 PUSH20 0xFFFFFFFFFFFFFFFFFFFFFFFFFFFFFFFFFFFFFFFF AND PUSH20 0xFFFFFFFFFFFFFFFFFFFFFFFFFFFFFFFFFFFFFFFF AND DUP2 MSTORE PUSH1 0x20 ADD SWAP1 DUP2 MSTORE PUSH1 0x20 ADD PUSH0 KECCAK256 PUSH0 DUP3 DUP3 SLOAD SUB SWAP3 POP POP DUP2 SWAP1 SSTORE POP JUMPDEST PUSH0 PUSH20 0xFFFFFFFFFFFFFFFFFFFFFFFFFFFFFFFFFFFFFFFF AND DUP6 PUSH20 0xFFFFFFFFFFFFFFFFFFFFFFFFFFFFFFFFFFFFFFFF AND EQ PUSH2 0xB8D JUMPI PUSH1 0x1 PUSH1 0x3 PUSH0 DUP8 PUSH20 0xFFFFFFFFFFFFFFFFFFFFFFFFFFFFFFFFFFFFFFFF AND PUSH20 0xFFFFFFFFFFFFFFFFFFFFFFFFFFFFFFFFFFFFFFFF AND DUP2 MSTORE PUSH1 0x20 ADD SWAP1 DUP2 MSTORE PUSH1 0x20 ADD PUSH0 KECCAK256 PUSH0 DUP3 DUP3 SLOAD ADD SWAP3 POP POP DUP2 SWAP1 SSTORE POP JUMPDEST DUP5 PUSH1 0x2 PUSH0 DUP7 DUP2 MSTORE PUSH1 0x20 ADD SWAP1 DUP2 MSTORE PUSH1 0x20 ADD PUSH0 KECCAK256 PUSH0 PUSH2 0x100 EXP DUP2 SLOAD DUP2 PUSH20 0xFFFFFFFFFFFFFFFFFFFFFFFFFFFFFFFFFFFFFFFF MUL NOT AND SWAP1 DUP4 PUSH20 0xFFFFFFFFFFFFFFFFFFFFFFFFFFFFFFFFFFFFFFFF AND MUL OR SWAP1 SSTORE POP DUP4 DUP6 PUSH20 0xFFFFFFFFFFFFFFFFFFFFFFFFFFFFFFFFFFFFFFFF AND DUP3 PUSH20 0xFFFFFFFFFFFFFFFFFFFFFFFFFFFFFFFFFFFFFFFF AND PUSH32 0xDDF252AD1BE2C89B69C2B068FC378DAA952BA7F163C4A11628F55A4DF523B3EF PUSH1 0x40 MLOAD PUSH1 0x40 MLOAD DUP1 SWAP2 SUB SWAP1 LOG4 DUP1 SWAP2 POP POP SWAP4 SWAP3 POP POP POP JUMP JUMPDEST PUSH0 PUSH20 0xFFFFFFFFFFFFFFFFFFFFFFFFFFFFFFFFFFFFFFFF AND DUP3 PUSH20 0xFFFFFFFFFFFFFFFFFFFFFFFFFFFFFFFFFFFFFFFF AND SUB PUSH2 0xCB2 JUMPI DUP2 PUSH1 0x40 MLOAD PUSH32 0x5B08BA1800000000000000000000000000000000000000000000000000000000 DUP2 MSTORE PUSH1 0x4 ADD PUSH2 0xCA9 SWAP2 SWAP1 PUSH2 0x15D6 JUMP JUMPDEST PUSH1 0x40 MLOAD DUP1 SWAP2 SUB SWAP1 REVERT JUMPDEST DUP1 PUSH1 0x5 PUSH0 DUP6 PUSH20 0xFFFFFFFFFFFFFFFFFFFFFFFFFFFFFFFFFFFFFFFF AND PUSH20 0xFFFFFFFFFFFFFFFFFFFFFFFFFFFFFFFFFFFFFFFF AND DUP2 MSTORE PUSH1 0x20 ADD SWAP1 DUP2 MSTORE PUSH1 0x20 ADD PUSH0 KECCAK256 PUSH0 DUP5 PUSH20 0xFFFFFFFFFFFFFFFFFFFFFFFFFFFFFFFFFFFFFFFF AND PUSH20 0xFFFFFFFFFFFFFFFFFFFFFFFFFFFFFFFFFFFFFFFF AND DUP2 MSTORE PUSH1 0x20 ADD SWAP1 DUP2 MSTORE PUSH1 0x20 ADD PUSH0 KECCAK256 PUSH0 PUSH2 0x100 EXP DUP2 SLOAD DUP2 PUSH1 0xFF MUL NOT AND SWAP1 DUP4 ISZERO ISZERO MUL OR SWAP1 SSTORE POP DUP2 PUSH20 0xFFFFFFFFFFFFFFFFFFFFFFFFFFFFFFFFFFFFFFFF AND DUP4 PUSH20 0xFFFFFFFFFFFFFFFFFFFFFFFFFFFFFFFFFFFFFFFF AND PUSH32 0x17307EAB39AB6107E8899845AD3D59BD9653F200F220920489CA2B5937696C31 DUP4 PUSH1 0x40 MLOAD PUSH2 0xD9E SWAP2 SWAP1 PUSH2 0x1476 JUMP JUMPDEST PUSH1 0x40 MLOAD DUP1 SWAP2 SUB SWAP1 LOG3 POP POP POP JUMP JUMPDEST PUSH0 DUP4 PUSH20 0xFFFFFFFFFFFFFFFFFFFFFFFFFFFFFFFFFFFFFFFF AND EXTCODESIZE GT ISZERO PUSH2 0xF57 JUMPI DUP3 PUSH20 0xFFFFFFFFFFFFFFFFFFFFFFFFFFFFFFFFFFFFFFFF AND PUSH4 0x150B7A02 PUSH2 0xDEE PUSH2 0xA1E JUMP JUMPDEST DUP7 DUP6 DUP6 PUSH1 0x40 MLOAD DUP6 PUSH4 0xFFFFFFFF AND PUSH1 0xE0 SHL DUP2 MSTORE PUSH1 0x4 ADD PUSH2 0xE10 SWAP5 SWAP4 SWAP3 SWAP2 SWAP1 PUSH2 0x1DE4 JUMP JUMPDEST PUSH1 0x20 PUSH1 0x40 MLOAD DUP1 DUP4 SUB DUP2 PUSH0 DUP8 GAS CALL SWAP3 POP POP POP DUP1 ISZERO PUSH2 0xE4B JUMPI POP PUSH1 0x40 MLOAD RETURNDATASIZE PUSH1 0x1F NOT PUSH1 0x1F DUP3 ADD AND DUP3 ADD DUP1 PUSH1 0x40 MSTORE POP DUP2 ADD SWAP1 PUSH2 0xE48 SWAP2 SWAP1 PUSH2 0x1E42 JUMP JUMPDEST PUSH1 0x1 JUMPDEST PUSH2 0xECC JUMPI RETURNDATASIZE DUP1 PUSH0 DUP2 EQ PUSH2 0xE79 JUMPI PUSH1 0x40 MLOAD SWAP2 POP PUSH1 0x1F NOT PUSH1 0x3F RETURNDATASIZE ADD AND DUP3 ADD PUSH1 0x40 MSTORE RETURNDATASIZE DUP3 MSTORE RETURNDATASIZE PUSH0 PUSH1 0x20 DUP5 ADD RETURNDATACOPY PUSH2 0xE7E JUMP JUMPDEST PUSH1 0x60 SWAP2 POP JUMPDEST POP PUSH0 DUP2 MLOAD SUB PUSH2 0xEC4 JUMPI DUP4 PUSH1 0x40 MLOAD PUSH32 0x64A0AE9200000000000000000000000000000000000000000000000000000000 DUP2 MSTORE PUSH1 0x4 ADD PUSH2 0xEBB SWAP2 SWAP1 PUSH2 0x15D6 JUMP JUMPDEST PUSH1 0x40 MLOAD DUP1 SWAP2 SUB SWAP1 REVERT JUMPDEST DUP1 MLOAD DUP2 PUSH1 0x20 ADD REVERT JUMPDEST PUSH4 0x150B7A02 PUSH1 0xE0 SHL PUSH28 0xFFFFFFFFFFFFFFFFFFFFFFFFFFFFFFFFFFFFFFFFFFFFFFFFFFFFFFFF NOT AND DUP2 PUSH28 0xFFFFFFFFFFFFFFFFFFFFFFFFFFFFFFFFFFFFFFFFFFFFFFFFFFFFFFFF NOT AND EQ PUSH2 0xF55 JUMPI DUP4 PUSH1 0x40 MLOAD PUSH32 0x64A0AE9200000000000000000000000000000000000000000000000000000000 DUP2 MSTORE PUSH1 0x4 ADD PUSH2 0xF4C SWAP2 SWAP1 PUSH2 0x15D6 JUMP JUMPDEST PUSH1 0x40 MLOAD DUP1 SWAP2 SUB SWAP1 REVERT JUMPDEST POP JUMPDEST POP POP POP POP JUMP JUMPDEST PUSH0 PUSH20 0xFFFFFFFFFFFFFFFFFFFFFFFFFFFFFFFFFFFFFFFF AND DUP3 PUSH20 0xFFFFFFFFFFFFFFFFFFFFFFFFFFFFFFFFFFFFFFFF AND SUB PUSH2 0xFCD JUMPI PUSH0 PUSH1 0x40 MLOAD PUSH32 0x64A0AE9200000000000000000000000000000000000000000000000000000000 DUP2 MSTORE PUSH1 0x4 ADD PUSH2 0xFC4 SWAP2 SWAP1 PUSH2 0x15D6 JUMP JUMPDEST PUSH1 0x40 MLOAD DUP1 SWAP2 SUB SWAP1 REVERT JUMPDEST PUSH0 PUSH2 0xFD9 DUP4 DUP4 PUSH0 PUSH2 0xA37 JUMP JUMPDEST SWAP1 POP PUSH0 PUSH20 0xFFFFFFFFFFFFFFFFFFFFFFFFFFFFFFFFFFFFFFFF AND DUP2 PUSH20 0xFFFFFFFFFFFFFFFFFFFFFFFFFFFFFFFFFFFFFFFF AND EQ PUSH2 0x104B JUMPI PUSH0 PUSH1 0x40 MLOAD PUSH32 0x73C6AC6E00000000000000000000000000000000000000000000000000000000 DUP2 MSTORE PUSH1 0x4 ADD PUSH2 0x1042 SWAP2 SWAP1 PUSH2 0x15D6 JUMP JUMPDEST PUSH1 0x40 MLOAD DUP1 SWAP2 SUB SWAP1 REVERT JUMPDEST POP POP POP JUMP JUMPDEST PUSH0 PUSH1 0x2 PUSH0 DUP4 DUP2 MSTORE PUSH1 0x20 ADD SWAP1 DUP2 MSTORE PUSH1 0x20 ADD PUSH0 KECCAK256 PUSH0 SWAP1 SLOAD SWAP1 PUSH2 0x100 EXP SWAP1 DIV PUSH20 0xFFFFFFFFFFFFFFFFFFFFFFFFFFFFFFFFFFFFFFFF AND SWAP1 POP SWAP2 SWAP1 POP JUMP JUMPDEST DUP1 DUP1 PUSH2 0x10C1 JUMPI POP PUSH0 PUSH20 0xFFFFFFFFFFFFFFFFFFFFFFFFFFFFFFFFFFFFFFFF AND DUP3 PUSH20 0xFFFFFFFFFFFFFFFFFFFFFFFFFFFFFFFFFFFFFFFF AND EQ ISZERO JUMPDEST ISZERO PUSH2 0x11F3 JUMPI PUSH0 PUSH2 0x10D0 DUP5 PUSH2 0x95F JUMP JUMPDEST SWAP1 POP PUSH0 PUSH20 0xFFFFFFFFFFFFFFFFFFFFFFFFFFFFFFFFFFFFFFFF AND DUP4 PUSH20 0xFFFFFFFFFFFFFFFFFFFFFFFFFFFFFFFFFFFFFFFF AND EQ ISZERO DUP1 ISZERO PUSH2 0x113A JUMPI POP DUP3 PUSH20 0xFFFFFFFFFFFFFFFFFFFFFFFFFFFFFFFFFFFFFFFF AND DUP2 PUSH20 0xFFFFFFFFFFFFFFFFFFFFFFFFFFFFFFFFFFFFFFFF AND EQ ISZERO JUMPDEST DUP1 ISZERO PUSH2 0x114D JUMPI POP PUSH2 0x114B DUP2 DUP5 PUSH2 0x85B JUMP JUMPDEST ISZERO JUMPDEST ISZERO PUSH2 0x118F JUMPI DUP3 PUSH1 0x40 MLOAD PUSH32 0xA9FBF51F00000000000000000000000000000000000000000000000000000000 DUP2 MSTORE PUSH1 0x4 ADD PUSH2 0x1186 SWAP2 SWAP1 PUSH2 0x15D6 JUMP JUMPDEST PUSH1 0x40 MLOAD DUP1 SWAP2 SUB SWAP1 REVERT JUMPDEST DUP2 ISZERO PUSH2 0x11F1 JUMPI DUP4 DUP6 PUSH20 0xFFFFFFFFFFFFFFFFFFFFFFFFFFFFFFFFFFFFFFFF AND DUP3 PUSH20 0xFFFFFFFFFFFFFFFFFFFFFFFFFFFFFFFFFFFFFFFF AND PUSH32 0x8C5BE1E5EBEC7D5BD14F71427D1E84F3DD0314C0F7B2291E5B200AC8C7C3B925 PUSH1 0x40 MLOAD PUSH1 0x40 MLOAD DUP1 SWAP2 SUB SWAP1 LOG4 JUMPDEST POP JUMPDEST DUP4 PUSH1 0x4 PUSH0 DUP6 DUP2 MSTORE PUSH1 0x20 ADD SWAP1 DUP2 MSTORE PUSH1 0x20 ADD PUSH0 KECCAK256 PUSH0 PUSH2 0x100 EXP DUP2 SLOAD DUP2 PUSH20 0xFFFFFFFFFFFFFFFFFFFFFFFFFFFFFFFFFFFFFFFF MUL NOT AND SWAP1 DUP4 PUSH20 0xFFFFFFFFFFFFFFFFFFFFFFFFFFFFFFFFFFFFFFFF AND MUL OR SWAP1 SSTORE POP POP POP POP POP JUMP JUMPDEST PUSH2 0x1253 DUP4 DUP4 DUP4 PUSH2 0x130B JUMP JUMPDEST PUSH2 0x1306 JUMPI PUSH0 PUSH20 0xFFFFFFFFFFFFFFFFFFFFFFFFFFFFFFFFFFFFFFFF AND DUP4 PUSH20 0xFFFFFFFFFFFFFFFFFFFFFFFFFFFFFFFFFFFFFFFF AND SUB PUSH2 0x12C7 JUMPI DUP1 PUSH1 0x40 MLOAD PUSH32 0x7E27328900000000000000000000000000000000000000000000000000000000 DUP2 MSTORE PUSH1 0x4 ADD PUSH2 0x12BE SWAP2 SWAP1 PUSH2 0x18E1 JUMP JUMPDEST PUSH1 0x40 MLOAD DUP1 SWAP2 SUB SWAP1 REVERT JUMPDEST DUP2 DUP2 PUSH1 0x40 MLOAD PUSH32 0x177E802F00000000000000000000000000000000000000000000000000000000 DUP2 MSTORE PUSH1 0x4 ADD PUSH2 0x12FD SWAP3 SWAP2 SWAP1 PUSH2 0x1E6D JUMP JUMPDEST PUSH1 0x40 MLOAD DUP1 SWAP2 SUB SWAP1 REVERT JUMPDEST POP POP POP JUMP JUMPDEST PUSH0 DUP1 PUSH20 0xFFFFFFFFFFFFFFFFFFFFFFFFFFFFFFFFFFFFFFFF AND DUP4 PUSH20 0xFFFFFFFFFFFFFFFFFFFFFFFFFFFFFFFFFFFFFFFF AND EQ ISZERO DUP1 ISZERO PUSH2 0x13C2 JUMPI POP DUP3 PUSH20 0xFFFFFFFFFFFFFFFFFFFFFFFFFFFFFFFFFFFFFFFF AND DUP5 PUSH20 0xFFFFFFFFFFFFFFFFFFFFFFFFFFFFFFFFFFFFFFFF AND EQ DUP1 PUSH2 0x1383 JUMPI POP PUSH2 0x1382 DUP5 DUP5 PUSH2 0x85B JUMP JUMPDEST JUMPDEST DUP1 PUSH2 0x13C1 JUMPI POP DUP3 PUSH20 0xFFFFFFFFFFFFFFFFFFFFFFFFFFFFFFFFFFFFFFFF AND PUSH2 0x13A9 DUP4 PUSH2 0x9E5 JUMP JUMPDEST PUSH20 0xFFFFFFFFFFFFFFFFFFFFFFFFFFFFFFFFFFFFFFFF AND EQ JUMPDEST JUMPDEST SWAP1 POP SWAP4 SWAP3 POP POP POP JUMP JUMPDEST PUSH0 PUSH1 0x40 MLOAD SWAP1 POP SWAP1 JUMP JUMPDEST PUSH0 DUP1 REVERT JUMPDEST PUSH0 DUP1 REVERT JUMPDEST PUSH0 PUSH32 0xFFFFFFFF00000000000000000000000000000000000000000000000000000000 DUP3 AND SWAP1 POP SWAP2 SWAP1 POP JUMP JUMPDEST PUSH2 0x1410 DUP2 PUSH2 0x13DC JUMP JUMPDEST DUP2 EQ PUSH2 0x141A JUMPI PUSH0 DUP1 REVERT JUMPDEST POP JUMP JUMPDEST PUSH0 DUP2 CALLDATALOAD SWAP1 POP PUSH2 0x142B DUP2 PUSH2 0x1407 JUMP JUMPDEST SWAP3 SWAP2 POP POP JUMP JUMPDEST PUSH0 PUSH1 0x20 DUP3 DUP5 SUB SLT ISZERO PUSH2 0x1446 JUMPI PUSH2 0x1445 PUSH2 0x13D4 JUMP JUMPDEST JUMPDEST PUSH0 PUSH2 0x1453 DUP5 DUP3 DUP6 ADD PUSH2 0x141D JUMP JUMPDEST SWAP2 POP POP SWAP3 SWAP2 POP POP JUMP JUMPDEST PUSH0 DUP2 ISZERO ISZERO SWAP1 POP SWAP2 SWAP1 POP JUMP JUMPDEST PUSH2 0x1470 DUP2 PUSH2 0x145C JUMP JUMPDEST DUP3 MSTORE POP POP JUMP JUMPDEST PUSH0 PUSH1 0x20 DUP3 ADD SWAP1 POP PUSH2 0x1489 PUSH0 DUP4 ADD DUP5 PUSH2 0x1467 JUMP JUMPDEST SWAP3 SWAP2 POP POP JUMP JUMPDEST PUSH0 DUP2 MLOAD SWAP1 POP SWAP2 SWAP1 POP JUMP JUMPDEST PUSH0 DUP3 DUP3 MSTORE PUSH1 0x20 DUP3 ADD SWAP1 POP SWAP3 SWAP2 POP POP JUMP JUMPDEST PUSH0 JUMPDEST DUP4 DUP2 LT ISZERO PUSH2 0x14C6 JUMPI DUP1 DUP3 ADD MLOAD DUP2 DUP5 ADD MSTORE PUSH1 0x20 DUP2 ADD SWAP1 POP PUSH2 0x14AB JUMP JUMPDEST PUSH0 DUP5 DUP5 ADD MSTORE POP POP POP POP JUMP JUMPDEST PUSH0 PUSH1 0x1F NOT PUSH1 0x1F DUP4 ADD AND SWAP1 POP SWAP2 SWAP1 POP JUMP JUMPDEST PUSH0 PUSH2 0x14EB DUP3 PUSH2 0x148F JUMP JUMPDEST PUSH2 0x14F5 DUP2 DUP6 PUSH2 0x1499 JUMP JUMPDEST SWAP4 POP PUSH2 0x1505 DUP2 DUP6 PUSH1 0x20 DUP7 ADD PUSH2 0x14A9 JUMP JUMPDEST PUSH2 0x150E DUP2 PUSH2 0x14D1 JUMP JUMPDEST DUP5 ADD SWAP2 POP POP SWAP3 SWAP2 POP POP JUMP JUMPDEST PUSH0 PUSH1 0x20 DUP3 ADD SWAP1 POP DUP2 DUP2 SUB PUSH0 DUP4 ADD MSTORE PUSH2 0x1531 DUP2 DUP5 PUSH2 0x14E1 JUMP JUMPDEST SWAP1 POP SWAP3 SWAP2 POP POP JUMP JUMPDEST PUSH0 DUP2 SWAP1 POP SWAP2 SWAP1 POP JUMP JUMPDEST PUSH2 0x154B DUP2 PUSH2 0x1539 JUMP JUMPDEST DUP2 EQ PUSH2 0x1555 JUMPI PUSH0 DUP1 REVERT JUMPDEST POP JUMP JUMPDEST PUSH0 DUP2 CALLDATALOAD SWAP1 POP PUSH2 0x1566 DUP2 PUSH2 0x1542 JUMP JUMPDEST SWAP3 SWAP2 POP POP JUMP JUMPDEST PUSH0 PUSH1 0x20 DUP3 DUP5 SUB SLT ISZERO PUSH2 0x1581 JUMPI PUSH2 0x1580 PUSH2 0x13D4 JUMP JUMPDEST JUMPDEST PUSH0 PUSH2 0x158E DUP5 DUP3 DUP6 ADD PUSH2 0x1558 JUMP JUMPDEST SWAP2 POP POP SWAP3 SWAP2 POP POP JUMP JUMPDEST PUSH0 PUSH20 0xFFFFFFFFFFFFFFFFFFFFFFFFFFFFFFFFFFFFFFFF DUP3 AND SWAP1 POP SWAP2 SWAP1 POP JUMP JUMPDEST PUSH0 PUSH2 0x15C0 DUP3 PUSH2 0x1597 JUMP JUMPDEST SWAP1 POP SWAP2 SWAP1 POP JUMP JUMPDEST PUSH2 0x15D0 DUP2 PUSH2 0x15B6 JUMP JUMPDEST DUP3 MSTORE POP POP JUMP JUMPDEST PUSH0 PUSH1 0x20 DUP3 ADD SWAP1 POP PUSH2 0x15E9 PUSH0 DUP4 ADD DUP5 PUSH2 0x15C7 JUMP JUMPDEST SWAP3 SWAP2 POP POP JUMP JUMPDEST PUSH2 0x15F8 DUP2 PUSH2 0x15B6 JUMP JUMPDEST DUP2 EQ PUSH2 0x1602 JUMPI PUSH0 DUP1 REVERT JUMPDEST POP JUMP JUMPDEST PUSH0 DUP2 CALLDATALOAD SWAP1 POP PUSH2 0x1613 DUP2 PUSH2 0x15EF JUMP JUMPDEST SWAP3 SWAP2 POP POP JUMP JUMPDEST PUSH0 DUP1 PUSH1 0x40 DUP4 DUP6 SUB SLT ISZERO PUSH2 0x162F JUMPI PUSH2 0x162E PUSH2 0x13D4 JUMP JUMPDEST JUMPDEST PUSH0 PUSH2 0x163C DUP6 DUP3 DUP7 ADD PUSH2 0x1605 JUMP JUMPDEST SWAP3 POP POP PUSH1 0x20 PUSH2 0x164D DUP6 DUP3 DUP7 ADD PUSH2 0x1558 JUMP JUMPDEST SWAP2 POP POP SWAP3 POP SWAP3 SWAP1 POP JUMP JUMPDEST PUSH0 DUP1 REVERT JUMPDEST PUSH0 DUP1 REVERT JUMPDEST PUSH32 0x4E487B7100000000000000000000000000000000000000000000000000000000 PUSH0 MSTORE PUSH1 0x41 PUSH1 0x4 MSTORE PUSH1 0x24 PUSH0 REVERT JUMPDEST PUSH2 0x1695 DUP3 PUSH2 0x14D1 JUMP JUMPDEST DUP2 ADD DUP2 DUP2 LT PUSH8 0xFFFFFFFFFFFFFFFF DUP3 GT OR ISZERO PUSH2 0x16B4 JUMPI PUSH2 0x16B3 PUSH2 0x165F JUMP JUMPDEST JUMPDEST DUP1 PUSH1 0x40 MSTORE POP POP POP JUMP JUMPDEST PUSH0 PUSH2 0x16C6 PUSH2 0x13CB JUMP JUMPDEST SWAP1 POP PUSH2 0x16D2 DUP3 DUP3 PUSH2 0x168C JUMP JUMPDEST SWAP2 SWAP1 POP JUMP JUMPDEST PUSH0 PUSH8 0xFFFFFFFFFFFFFFFF DUP3 GT ISZERO PUSH2 0x16F1 JUMPI PUSH2 0x16F0 PUSH2 0x165F JUMP JUMPDEST JUMPDEST PUSH2 0x16FA DUP3 PUSH2 0x14D1 JUMP JUMPDEST SWAP1 POP PUSH1 0x20 DUP2 ADD SWAP1 POP SWAP2 SWAP1 POP JUMP JUMPDEST DUP3 DUP2 DUP4 CALLDATACOPY PUSH0 DUP4 DUP4 ADD MSTORE POP POP POP JUMP JUMPDEST PUSH0 PUSH2 0x1727 PUSH2 0x1722 DUP5 PUSH2 0x16D7 JUMP JUMPDEST PUSH2 0x16BD JUMP JUMPDEST SWAP1 POP DUP3 DUP2 MSTORE PUSH1 0x20 DUP2 ADD DUP5 DUP5 DUP5 ADD GT ISZERO PUSH2 0x1743 JUMPI PUSH2 0x1742 PUSH2 0x165B JUMP JUMPDEST JUMPDEST PUSH2 0x174E DUP5 DUP3 DUP6 PUSH2 0x1707 JUMP JUMPDEST POP SWAP4 SWAP3 POP POP POP JUMP JUMPDEST PUSH0 DUP3 PUSH1 0x1F DUP4 ADD SLT PUSH2 0x176A JUMPI PUSH2 0x1769 PUSH2 0x1657 JUMP JUMPDEST JUMPDEST DUP2 CALLDATALOAD PUSH2 0x177A DUP5 DUP3 PUSH1 0x20 DUP7 ADD PUSH2 0x1715 JUMP JUMPDEST SWAP2 POP POP SWAP3 SWAP2 POP POP JUMP JUMPDEST PUSH0 DUP1 PUSH1 0x40 DUP4 DUP6 SUB SLT ISZERO PUSH2 0x1799 JUMPI PUSH2 0x1798 PUSH2 0x13D4 JUMP JUMPDEST JUMPDEST PUSH0 PUSH2 0x17A6 DUP6 DUP3 DUP7 ADD PUSH2 0x1558 JUMP JUMPDEST SWAP3 POP POP PUSH1 0x20 DUP4 ADD CALLDATALOAD PUSH8 0xFFFFFFFFFFFFFFFF DUP2 GT ISZERO PUSH2 0x17C7 JUMPI PUSH2 0x17C6 PUSH2 0x13D8 JUMP JUMPDEST JUMPDEST PUSH2 0x17D3 DUP6 DUP3 DUP7 ADD PUSH2 0x1756 JUMP JUMPDEST SWAP2 POP POP SWAP3 POP SWAP3 SWAP1 POP JUMP JUMPDEST PUSH0 DUP1 PUSH0 PUSH1 0x60 DUP5 DUP7 SUB SLT ISZERO PUSH2 0x17F4 JUMPI PUSH2 0x17F3 PUSH2 0x13D4 JUMP JUMPDEST JUMPDEST PUSH0 PUSH2 0x1801 DUP7 DUP3 DUP8 ADD PUSH2 0x1605 JUMP JUMPDEST SWAP4 POP POP PUSH1 0x20 PUSH2 0x1812 DUP7 DUP3 DUP8 ADD PUSH2 0x1605 JUMP JUMPDEST SWAP3 POP POP PUSH1 0x40 PUSH2 0x1823 DUP7 DUP3 DUP8 ADD PUSH2 0x1558 JUMP JUMPDEST SWAP2 POP POP SWAP3 POP SWAP3 POP SWAP3 JUMP JUMPDEST PUSH2 0x1836 DUP2 PUSH2 0x145C JUMP JUMPDEST DUP2 EQ PUSH2 0x1840 JUMPI PUSH0 DUP1 REVERT JUMPDEST POP JUMP JUMPDEST PUSH0 DUP2 CALLDATALOAD SWAP1 POP PUSH2 0x1851 DUP2 PUSH2 0x182D JUMP JUMPDEST SWAP3 SWAP2 POP POP JUMP JUMPDEST PUSH0 DUP1 PUSH0 PUSH1 0x60 DUP5 DUP7 SUB SLT ISZERO PUSH2 0x186E JUMPI PUSH2 0x186D PUSH2 0x13D4 JUMP JUMPDEST JUMPDEST PUSH0 PUSH2 0x187B DUP7 DUP3 DUP8 ADD PUSH2 0x1605 JUMP JUMPDEST SWAP4 POP POP PUSH1 0x20 PUSH2 0x188C DUP7 DUP3 DUP8 ADD PUSH2 0x1605 JUMP JUMPDEST SWAP3 POP POP PUSH1 0x40 PUSH2 0x189D DUP7 DUP3 DUP8 ADD PUSH2 0x1843 JUMP JUMPDEST SWAP2 POP POP SWAP3 POP SWAP3 POP SWAP3 JUMP JUMPDEST PUSH0 PUSH1 0x20 DUP3 DUP5 SUB SLT ISZERO PUSH2 0x18BC JUMPI PUSH2 0x18BB PUSH2 0x13D4 JUMP JUMPDEST JUMPDEST PUSH0 PUSH2 0x18C9 DUP5 DUP3 DUP6 ADD PUSH2 0x1605 JUMP JUMPDEST SWAP2 POP POP SWAP3 SWAP2 POP POP JUMP JUMPDEST PUSH2 0x18DB DUP2 PUSH2 0x1539 JUMP JUMPDEST DUP3 MSTORE POP POP JUMP JUMPDEST PUSH0 PUSH1 0x20 DUP3 ADD SWAP1 POP PUSH2 0x18F4 PUSH0 DUP4 ADD DUP5 PUSH2 0x18D2 JUMP JUMPDEST SWAP3 SWAP2 POP POP JUMP JUMPDEST PUSH0 DUP1 PUSH1 0x40 DUP4 DUP6 SUB SLT ISZERO PUSH2 0x1910 JUMPI PUSH2 0x190F PUSH2 0x13D4 JUMP JUMPDEST JUMPDEST PUSH0 PUSH2 0x191D DUP6 DUP3 DUP7 ADD PUSH2 0x1605 JUMP JUMPDEST SWAP3 POP POP PUSH1 0x20 PUSH2 0x192E DUP6 DUP3 DUP7 ADD PUSH2 0x1843 JUMP JUMPDEST SWAP2 POP POP SWAP3 POP SWAP3 SWAP1 POP JUMP JUMPDEST PUSH0 PUSH8 0xFFFFFFFFFFFFFFFF DUP3 GT ISZERO PUSH2 0x1952 JUMPI PUSH2 0x1951 PUSH2 0x165F JUMP JUMPDEST JUMPDEST PUSH2 0x195B DUP3 PUSH2 0x14D1 JUMP JUMPDEST SWAP1 POP PUSH1 0x20 DUP2 ADD SWAP1 POP SWAP2 SWAP1 POP JUMP JUMPDEST PUSH0 PUSH2 0x197A PUSH2 0x1975 DUP5 PUSH2 0x1938 JUMP JUMPDEST PUSH2 0x16BD JUMP JUMPDEST SWAP1 POP DUP3 DUP2 MSTORE PUSH1 0x20 DUP2 ADD DUP5 DUP5 DUP5 ADD GT ISZERO PUSH2 0x1996 JUMPI PUSH2 0x1995 PUSH2 0x165B JUMP JUMPDEST JUMPDEST PUSH2 0x19A1 DUP5 DUP3 DUP6 PUSH2 0x1707 JUMP JUMPDEST POP SWAP4 SWAP3 POP POP POP JUMP JUMPDEST PUSH0 DUP3 PUSH1 0x1F DUP4 ADD SLT PUSH2 0x19BD JUMPI PUSH2 0x19BC PUSH2 0x1657 JUMP JUMPDEST JUMPDEST DUP2 CALLDATALOAD PUSH2 0x19CD DUP5 DUP3 PUSH1 0x20 DUP7 ADD PUSH2 0x1968 JUMP JUMPDEST SWAP2 POP POP SWAP3 SWAP2 POP POP JUMP JUMPDEST PUSH0 DUP1 PUSH0 DUP1 PUSH1 0x80 DUP6 DUP8 SUB SLT ISZERO PUSH2 0x19EE JUMPI PUSH2 0x19ED PUSH2 0x13D4 JUMP JUMPDEST JUMPDEST PUSH0 PUSH2 0x19FB DUP8 DUP3 DUP9 ADD PUSH2 0x1605 JUMP JUMPDEST SWAP5 POP POP PUSH1 0x20 PUSH2 0x1A0C DUP8 DUP3 DUP9 ADD PUSH2 0x1605 JUMP JUMPDEST SWAP4 POP POP PUSH1 0x40 PUSH2 0x1A1D DUP8 DUP3 DUP9 ADD PUSH2 0x1558 JUMP JUMPDEST SWAP3 POP POP PUSH1 0x60 DUP6 ADD CALLDATALOAD PUSH8 0xFFFFFFFFFFFFFFFF DUP2 GT ISZERO PUSH2 0x1A3E JUMPI PUSH2 0x1A3D PUSH2 0x13D8 JUMP JUMPDEST JUMPDEST PUSH2 0x1A4A DUP8 DUP3 DUP9 ADD PUSH2 0x19A9 JUMP JUMPDEST SWAP2 POP POP SWAP3 SWAP6 SWAP2 SWAP5 POP SWAP3 POP JUMP JUMPDEST PUSH0 DUP1 PUSH1 0x40 DUP4 DUP6 SUB SLT ISZERO PUSH2 0x1A6C JUMPI PUSH2 0x1A6B PUSH2 0x13D4 JUMP JUMPDEST JUMPDEST PUSH0 PUSH2 0x1A79 DUP6 DUP3 DUP7 ADD PUSH2 0x1605 JUMP JUMPDEST SWAP3 POP POP PUSH1 0x20 PUSH2 0x1A8A DUP6 DUP3 DUP7 ADD PUSH2 0x1605 JUMP JUMPDEST SWAP2 POP POP SWAP3 POP SWAP3 SWAP1 POP JUMP JUMPDEST PUSH32 0x4E487B7100000000000000000000000000000000000000000000000000000000 PUSH0 MSTORE PUSH1 0x22 PUSH1 0x4 MSTORE PUSH1 0x24 PUSH0 REVERT JUMPDEST PUSH0 PUSH1 0x2 DUP3 DIV SWAP1 POP PUSH1 0x1 DUP3 AND DUP1 PUSH2 0x1AD8 JUMPI PUSH1 0x7F DUP3 AND SWAP2 POP JUMPDEST PUSH1 0x20 DUP3 LT DUP2 SUB PUSH2 0x1AEB JUMPI PUSH2 0x1AEA PUSH2 0x1A94 JUMP JUMPDEST JUMPDEST POP SWAP2 SWAP1 POP JUMP JUMPDEST PUSH0 DUP2 SWAP1 POP DUP2 PUSH0 MSTORE PUSH1 0x20 PUSH0 KECCAK256 SWAP1 POP SWAP2 SWAP1 POP JUMP JUMPDEST PUSH0 PUSH1 0x20 PUSH1 0x1F DUP4 ADD DIV SWAP1 POP SWAP2 SWAP1 POP JUMP JUMPDEST PUSH0 DUP3 DUP3 SHL SWAP1 POP SWAP3 SWAP2 POP POP JUMP JUMPDEST PUSH0 PUSH1 0x8 DUP4 MUL PUSH2 0x1B4D PUSH32 0xFFFFFFFFFFFFFFFFFFFFFFFFFFFFFFFFFFFFFFFFFFFFFFFFFFFFFFFFFFFFFFFF DUP3 PUSH2 0x1B12 JUMP JUMPDEST PUSH2 0x1B57 DUP7 DUP4 PUSH2 0x1B12 JUMP JUMPDEST SWAP6 POP DUP1 NOT DUP5 AND SWAP4 POP DUP1 DUP7 AND DUP5 OR SWAP3 POP POP POP SWAP4 SWAP3 POP POP POP JUMP JUMPDEST PUSH0 DUP2 SWAP1 POP SWAP2 SWAP1 POP JUMP JUMPDEST PUSH0 PUSH2 0x1B92 PUSH2 0x1B8D PUSH2 0x1B88 DUP5 PUSH2 0x1539 JUMP JUMPDEST PUSH2 0x1B6F JUMP JUMPDEST PUSH2 0x1539 JUMP JUMPDEST SWAP1 POP SWAP2 SWAP1 POP JUMP JUMPDEST PUSH0 DUP2 SWAP1 POP SWAP2 SWAP1 POP JUMP JUMPDEST PUSH2 0x1BAB DUP4 PUSH2 0x1B78 JUMP JUMPDEST PUSH2 0x1BBF PUSH2 0x1BB7 DUP3 PUSH2 0x1B99 JUMP JUMPDEST DUP5 DUP5 SLOAD PUSH2 0x1B1E JUMP JUMPDEST DUP3 SSTORE POP POP POP POP JUMP JUMPDEST PUSH0 SWAP1 JUMP JUMPDEST PUSH2 0x1BD3 PUSH2 0x1BC7 JUMP JUMPDEST PUSH2 0x1BDE DUP2 DUP5 DUP5 PUSH2 0x1BA2 JUMP JUMPDEST POP POP POP JUMP JUMPDEST JUMPDEST DUP2 DUP2 LT ISZERO PUSH2 0x1C01 JUMPI PUSH2 0x1BF6 PUSH0 DUP3 PUSH2 0x1BCB JUMP JUMPDEST PUSH1 0x1 DUP2 ADD SWAP1 POP PUSH2 0x1BE4 JUMP JUMPDEST POP POP JUMP JUMPDEST PUSH1 0x1F DUP3 GT ISZERO PUSH2 0x1C46 JUMPI PUSH2 0x1C17 DUP2 PUSH2 0x1AF1 JUMP JUMPDEST PUSH2 0x1C20 DUP5 PUSH2 0x1B03 JUMP JUMPDEST DUP2 ADD PUSH1 0x20 DUP6 LT ISZERO PUSH2 0x1C2F JUMPI DUP2 SWAP1 POP JUMPDEST PUSH2 0x1C43 PUSH2 0x1C3B DUP6 PUSH2 0x1B03 JUMP JUMPDEST DUP4 ADD DUP3 PUSH2 0x1BE3 JUMP JUMPDEST POP POP JUMPDEST POP POP POP JUMP JUMPDEST PUSH0 DUP3 DUP3 SHR SWAP1 POP SWAP3 SWAP2 POP POP JUMP JUMPDEST PUSH0 PUSH2 0x1C66 PUSH0 NOT DUP5 PUSH1 0x8 MUL PUSH2 0x1C4B JUMP JUMPDEST NOT DUP1 DUP4 AND SWAP2 POP POP SWAP3 SWAP2 POP POP JUMP JUMPDEST PUSH0 PUSH2 0x1C7E DUP4 DUP4 PUSH2 0x1C57 JUMP JUMPDEST SWAP2 POP DUP3 PUSH1 0x2 MUL DUP3 OR SWAP1 POP SWAP3 SWAP2 POP POP JUMP JUMPDEST PUSH2 0x1C97 DUP3 PUSH2 0x148F JUMP JUMPDEST PUSH8 0xFFFFFFFFFFFFFFFF DUP2 GT ISZERO PUSH2 0x1CB0 JUMPI PUSH2 0x1CAF PUSH2 0x165F JUMP JUMPDEST JUMPDEST PUSH2 0x1CBA DUP3 SLOAD PUSH2 0x1AC1 JUMP JUMPDEST PUSH2 0x1CC5 DUP3 DUP3 DUP6 PUSH2 0x1C05 JUMP JUMPDEST PUSH0 PUSH1 0x20 SWAP1 POP PUSH1 0x1F DUP4 GT PUSH1 0x1 DUP2 EQ PUSH2 0x1CF6 JUMPI PUSH0 DUP5 ISZERO PUSH2 0x1CE4 JUMPI DUP3 DUP8 ADD MLOAD SWAP1 POP JUMPDEST PUSH2 0x1CEE DUP6 DUP3 PUSH2 0x1C73 JUMP JUMPDEST DUP7 SSTORE POP PUSH2 0x1D55 JUMP JUMPDEST PUSH1 0x1F NOT DUP5 AND PUSH2 0x1D04 DUP7 PUSH2 0x1AF1 JUMP JUMPDEST PUSH0 JUMPDEST DUP3 DUP2 LT ISZERO PUSH2 0x1D2B JUMPI DUP5 DUP10 ADD MLOAD DUP3 SSTORE PUSH1 0x1 DUP3 ADD SWAP2 POP PUSH1 0x20 DUP6 ADD SWAP5 POP PUSH1 0x20 DUP2 ADD SWAP1 POP PUSH2 0x1D06 JUMP JUMPDEST DUP7 DUP4 LT ISZERO PUSH2 0x1D48 JUMPI DUP5 DUP10 ADD MLOAD PUSH2 0x1D44 PUSH1 0x1F DUP10 AND DUP3 PUSH2 0x1C57 JUMP JUMPDEST DUP4 SSTORE POP JUMPDEST PUSH1 0x1 PUSH1 0x2 DUP9 MUL ADD DUP9 SSTORE POP POP POP JUMPDEST POP POP POP POP POP POP JUMP JUMPDEST PUSH0 PUSH1 0x60 DUP3 ADD SWAP1 POP PUSH2 0x1D70 PUSH0 DUP4 ADD DUP7 PUSH2 0x15C7 JUMP JUMPDEST PUSH2 0x1D7D PUSH1 0x20 DUP4 ADD DUP6 PUSH2 0x18D2 JUMP JUMPDEST PUSH2 0x1D8A PUSH1 0x40 DUP4 ADD DUP5 PUSH2 0x15C7 JUMP JUMPDEST SWAP5 SWAP4 POP POP POP POP JUMP JUMPDEST PUSH0 DUP2 MLOAD SWAP1 POP SWAP2 SWAP1 POP JUMP JUMPDEST PUSH0 DUP3 DUP3 MSTORE PUSH1 0x20 DUP3 ADD SWAP1 POP SWAP3 SWAP2 POP POP JUMP JUMPDEST PUSH0 PUSH2 0x1DB6 DUP3 PUSH2 0x1D92 JUMP JUMPDEST PUSH2 0x1DC0 DUP2 DUP6 PUSH2 0x1D9C JUMP JUMPDEST SWAP4 POP PUSH2 0x1DD0 DUP2 DUP6 PUSH1 0x20 DUP7 ADD PUSH2 0x14A9 JUMP JUMPDEST PUSH2 0x1DD9 DUP2 PUSH2 0x14D1 JUMP JUMPDEST DUP5 ADD SWAP2 POP POP SWAP3 SWAP2 POP POP JUMP JUMPDEST PUSH0 PUSH1 0x80 DUP3 ADD SWAP1 POP PUSH2 0x1DF7 PUSH0 DUP4 ADD DUP8 PUSH2 0x15C7 JUMP JUMPDEST PUSH2 0x1E04 PUSH1 0x20 DUP4 ADD DUP7 PUSH2 0x15C7 JUMP JUMPDEST PUSH2 0x1E11 PUSH1 0x40 DUP4 ADD DUP6 PUSH2 0x18D2 JUMP JUMPDEST DUP2 DUP2 SUB PUSH1 0x60 DUP4 ADD MSTORE PUSH2 0x1E23 DUP2 DUP5 PUSH2 0x1DAC JUMP JUMPDEST SWAP1 POP SWAP6 SWAP5 POP POP POP POP POP JUMP JUMPDEST PUSH0 DUP2 MLOAD SWAP1 POP PUSH2 0x1E3C DUP2 PUSH2 0x1407 JUMP JUMPDEST SWAP3 SWAP2 POP POP JUMP JUMPDEST PUSH0 PUSH1 0x20 DUP3 DUP5 SUB SLT ISZERO PUSH2 0x1E57 JUMPI PUSH2 0x1E56 PUSH2 0x13D4 JUMP JUMPDEST JUMPDEST PUSH0 PUSH2 0x1E64 DUP5 DUP3 DUP6 ADD PUSH2 0x1E2E JUMP JUMPDEST SWAP2 POP POP SWAP3 SWAP2 POP POP JUMP JUMPDEST PUSH0 PUSH1 0x40 DUP3 ADD SWAP1 POP PUSH2 0x1E80 PUSH0 DUP4 ADD DUP6 PUSH2 0x15C7 JUMP JUMPDEST PUSH2 0x1E8D PUSH1 0x20 DUP4 ADD DUP5 PUSH2 0x18D2 JUMP JUMPDEST SWAP4 SWAP3 POP POP POP JUMP INVALID LOG2 PUSH5 0x6970667358 0x22 SLT KECCAK256 0xDE PUSH12 0x8E5E212C4D4FD8DA0B2D1831 0xF7 MOD 0xEF 0x4B 0xC8 DUP9 0xC4 CALLDATALOAD KECCAK256 0xD9 ADDMOD 0xA8 SWAP2 PUSH2 0x8FFB ORIGIN 0xEC PUSH5 0x736F6C6343 STOP ADDMOD EQ STOP CALLER "
		},
		"gasEstimates": {
			"creation": {
				"codeDepositCost": "1576400",
				"executionCost": "infinite",
				"totalCost": "infinite"
			},
			"external": {
				"approve(address,uint256)": "infinite",
				"balanceOf(address)": "infinite",
				"getApproved(uint256)": "infinite",
				"isApprovedForAll(address,address)": "infinite",
				"minting(uint256)": "102589",
				"name()": "infinite",
				"ownerOf(uint256)": "infinite",
				"safeTransferFrom(address,address,uint256)": "infinite",
				"safeTransferFrom(address,address,uint256,bytes)": "infinite",
				"setAppAll(address,address,bool)": "infinite",
				"setApprovalForAll(address,bool)": "infinite",
				"setTokenURI(uint256,string)": "infinite",
				"supportsInterface(bytes4)": "787",
				"symbol()": "infinite",
				"tokenURI(uint256)": "infinite",
				"transferFrom(address,address,uint256)": "infinite"
			},
			"internal": {
				"_baseURI()": "infinite"
			}
		},
		"methodIdentifiers": {
			"approve(address,uint256)": "095ea7b3",
			"balanceOf(address)": "70a08231",
			"getApproved(uint256)": "081812fc",
			"isApprovedForAll(address,address)": "e985e9c5",
			"minting(uint256)": "f2cee92b",
			"name()": "06fdde03",
			"ownerOf(uint256)": "6352211e",
			"safeTransferFrom(address,address,uint256)": "42842e0e",
			"safeTransferFrom(address,address,uint256,bytes)": "b88d4fde",
			"setAppAll(address,address,bool)": "29d6724e",
			"setApprovalForAll(address,bool)": "a22cb465",
			"setTokenURI(uint256,string)": "162094c4",
			"supportsInterface(bytes4)": "01ffc9a7",
			"symbol()": "95d89b41",
			"tokenURI(uint256)": "c87b56dd",
			"transferFrom(address,address,uint256)": "23b872dd"
		}
	},
	"abi": [
		{
			"inputs": [
				{
					"internalType": "string",
					"name": "_name",
					"type": "string"
				},
				{
					"internalType": "string",
					"name": "_symbol",
					"type": "string"
				}
			],
			"stateMutability": "nonpayable",
			"type": "constructor"
		},
		{
			"inputs": [
				{
					"internalType": "address",
					"name": "sender",
					"type": "address"
				},
				{
					"internalType": "uint256",
					"name": "tokenId",
					"type": "uint256"
				},
				{
					"internalType": "address",
					"name": "owner",
					"type": "address"
				}
			],
			"name": "ERC721IncorrectOwner",
			"type": "error"
		},
		{
			"inputs": [
				{
					"internalType": "address",
					"name": "operator",
					"type": "address"
				},
				{
					"internalType": "uint256",
					"name": "tokenId",
					"type": "uint256"
				}
			],
			"name": "ERC721InsufficientApproval",
			"type": "error"
		},
		{
			"inputs": [
				{
					"internalType": "address",
					"name": "approver",
					"type": "address"
				}
			],
			"name": "ERC721InvalidApprover",
			"type": "error"
		},
		{
			"inputs": [
				{
					"internalType": "address",
					"name": "operator",
					"type": "address"
				}
			],
			"name": "ERC721InvalidOperator",
			"type": "error"
		},
		{
			"inputs": [
				{
					"internalType": "address",
					"name": "owner",
					"type": "address"
				}
			],
			"name": "ERC721InvalidOwner",
			"type": "error"
		},
		{
			"inputs": [
				{
					"internalType": "address",
					"name": "receiver",
					"type": "address"
				}
			],
			"name": "ERC721InvalidReceiver",
			"type": "error"
		},
		{
			"inputs": [
				{
					"internalType": "address",
					"name": "sender",
					"type": "address"
				}
			],
			"name": "ERC721InvalidSender",
			"type": "error"
		},
		{
			"inputs": [
				{
					"internalType": "uint256",
					"name": "tokenId",
					"type": "uint256"
				}
			],
			"name": "ERC721NonexistentToken",
			"type": "error"
		},
		{
			"anonymous": false,
			"inputs": [
				{
					"indexed": true,
					"internalType": "address",
					"name": "owner",
					"type": "address"
				},
				{
					"indexed": true,
					"internalType": "address",
					"name": "approved",
					"type": "address"
				},
				{
					"indexed": true,
					"internalType": "uint256",
					"name": "tokenId",
					"type": "uint256"
				}
			],
			"name": "Approval",
			"type": "event"
		},
		{
			"anonymous": false,
			"inputs": [
				{
					"indexed": true,
					"internalType": "address",
					"name": "owner",
					"type": "address"
				},
				{
					"indexed": true,
					"internalType": "address",
					"name": "operator",
					"type": "address"
				},
				{
					"indexed": false,
					"internalType": "bool",
					"name": "approved",
					"type": "bool"
				}
			],
			"name": "ApprovalForAll",
			"type": "event"
		},
		{
			"anonymous": false,
			"inputs": [
				{
					"indexed": true,
					"internalType": "address",
					"name": "from",
					"type": "address"
				},
				{
					"indexed": true,
					"internalType": "address",
					"name": "to",
					"type": "address"
				},
				{
					"indexed": true,
					"internalType": "uint256",
					"name": "tokenId",
					"type": "uint256"
				}
			],
			"name": "Transfer",
			"type": "event"
		},
		{
			"inputs": [
				{
					"internalType": "address",
					"name": "to",
					"type": "address"
				},
				{
					"internalType": "uint256",
					"name": "tokenId",
					"type": "uint256"
				}
			],
			"name": "approve",
			"outputs": [],
			"stateMutability": "nonpayable",
			"type": "function"
		},
		{
			"inputs": [
				{
					"internalType": "address",
					"name": "owner",
					"type": "address"
				}
			],
			"name": "balanceOf",
			"outputs": [
				{
					"internalType": "uint256",
					"name": "",
					"type": "uint256"
				}
			],
			"stateMutability": "view",
			"type": "function"
		},
		{
			"inputs": [
				{
					"internalType": "uint256",
					"name": "tokenId",
					"type": "uint256"
				}
			],
			"name": "getApproved",
			"outputs": [
				{
					"internalType": "address",
					"name": "",
					"type": "address"
				}
			],
			"stateMutability": "view",
			"type": "function"
		},
		{
			"inputs": [
				{
					"internalType": "address",
					"name": "owner",
					"type": "address"
				},
				{
					"internalType": "address",
					"name": "operator",
					"type": "address"
				}
			],
			"name": "isApprovedForAll",
			"outputs": [
				{
					"internalType": "bool",
					"name": "",
					"type": "bool"
				}
			],
			"stateMutability": "view",
			"type": "function"
		},
		{
			"inputs": [
				{
					"internalType": "uint256",
					"name": "_tokenId",
					"type": "uint256"
				}
			],
			"name": "minting",
			"outputs": [],
			"stateMutability": "nonpayable",
			"type": "function"
		},
		{
			"inputs": [],
			"name": "name",
			"outputs": [
				{
					"internalType": "string",
					"name": "",
					"type": "string"
				}
			],
			"stateMutability": "view",
			"type": "function"
		},
		{
			"inputs": [
				{
					"internalType": "uint256",
					"name": "tokenId",
					"type": "uint256"
				}
			],
			"name": "ownerOf",
			"outputs": [
				{
					"internalType": "address",
					"name": "",
					"type": "address"
				}
			],
			"stateMutability": "view",
			"type": "function"
		},
		{
			"inputs": [
				{
					"internalType": "address",
					"name": "from",
					"type": "address"
				},
				{
					"internalType": "address",
					"name": "to",
					"type": "address"
				},
				{
					"internalType": "uint256",
					"name": "tokenId",
					"type": "uint256"
				}
			],
			"name": "safeTransferFrom",
			"outputs": [],
			"stateMutability": "nonpayable",
			"type": "function"
		},
		{
			"inputs": [
				{
					"internalType": "address",
					"name": "from",
					"type": "address"
				},
				{
					"internalType": "address",
					"name": "to",
					"type": "address"
				},
				{
					"internalType": "uint256",
					"name": "tokenId",
					"type": "uint256"
				},
				{
					"internalType": "bytes",
					"name": "data",
					"type": "bytes"
				}
			],
			"name": "safeTransferFrom",
			"outputs": [],
			"stateMutability": "nonpayable",
			"type": "function"
		},
		{
			"inputs": [
				{
					"internalType": "address",
					"name": "owner",
					"type": "address"
				},
				{
					"internalType": "address",
					"name": "operator",
					"type": "address"
				},
				{
					"internalType": "bool",
					"name": "approved",
					"type": "bool"
				}
			],
			"name": "setAppAll",
			"outputs": [],
			"stateMutability": "nonpayable",
			"type": "function"
		},
		{
			"inputs": [
				{
					"internalType": "address",
					"name": "operator",
					"type": "address"
				},
				{
					"internalType": "bool",
					"name": "approved",
					"type": "bool"
				}
			],
			"name": "setApprovalForAll",
			"outputs": [],
			"stateMutability": "nonpayable",
			"type": "function"
		},
		{
			"inputs": [
				{
					"internalType": "uint256",
					"name": "_tokenId",
					"type": "uint256"
				},
				{
					"internalType": "string",
					"name": "uri",
					"type": "string"
				}
			],
			"name": "setTokenURI",
			"outputs": [],
			"stateMutability": "nonpayable",
			"type": "function"
		},
		{
			"inputs": [
				{
					"internalType": "bytes4",
					"name": "interfaceId",
					"type": "bytes4"
				}
			],
			"name": "supportsInterface",
			"outputs": [
				{
					"internalType": "bool",
					"name": "",
					"type": "bool"
				}
			],
			"stateMutability": "view",
			"type": "function"
		},
		{
			"inputs": [],
			"name": "symbol",
			"outputs": [
				{
					"internalType": "string",
					"name": "",
					"type": "string"
				}
			],
			"stateMutability": "view",
			"type": "function"
		},
		{
			"inputs": [
				{
					"internalType": "uint256",
					"name": "_tokenId",
					"type": "uint256"
				}
			],
			"name": "tokenURI",
			"outputs": [
				{
					"internalType": "string",
					"name": "",
					"type": "string"
				}
			],
			"stateMutability": "view",
			"type": "function"
		},
		{
			"inputs": [
				{
					"internalType": "address",
					"name": "from",
					"type": "address"
				},
				{
					"internalType": "address",
					"name": "to",
					"type": "address"
				},
				{
					"internalType": "uint256",
					"name": "tokenId",
					"type": "uint256"
				}
			],
			"name": "transferFrom",
			"outputs": [],
			"stateMutability": "nonpayable",
			"type": "function"
		}
	]
}